:020000040800F2
:10000000C804002045010008DD210008951A0008F9
:10001000D92100088D0100087525000800000000A6
:10002000000000000000000000000000FD230008A8
:1000300091010008000000005D2200081125000861
:100040005F0100085F0100085F0100084523000808
:100050005F0100085F0100085F0100085F01000800
:100060005F0100085F0100085F0100085F010008F0
:100070005F0100085F0100085F0100085F010008E0
:100080005F0100085F0100085F0100085F010008D0
:100090005F0100085F0100085F0100085F010008C0
:1000A0005F0100085F0100085F0100085F010008B0
:1000B0005F0100085F0100085F0100085F010008A0
:1000C0005F0100085F0100085F0100085F01000890
:1000D0005F0100085F0100085F0100085F01000880
:1000E0005F010008DD2200085F0100085F010008D1
:1000F0005F0100085F0100085F0100085F01000860
:100100005F0100085F0100085F0100085F0100084F
:100110005F0100085F0100085F0100085F0100083F
:100120005F0100085F0100085F0100085F0100082F
:10013000DFF80CD000F018F800480047112700083D
:10014000C80400200648804706480047FEE7FEE74F
:10015000FEE7FEE7FEE7FEE7FEE7FEE7FEE7FEE777
:100160001525000831010008064C074D06E0E0683F
:1001700040F0010394E8070098471034AC42F6D3EE
:10018000FFF7DAFFCC3A0008EC3A000800BFFEE7C0
:10019000704701B502E00098401E009000980028CA
:1001A000F9D108BD00B5012002F0F6F9014800F0D0
:1001B00003F800BD20A1070007E0022100E000BF16
:1001C0000A1EA1F10101FAD100BF011EA0F1010038
:1001D000F3D1704710B50446082C7DD00CDC082CF8
:1001E00081F0EB82DFE814F018002E00200A1F0ACD
:1001F0001F0A4300540108030B2C01F0858005DC25
:10020000092C6AD00A2C41F0D882FCE30C2C01F0B6
:100210002382582CF7D1F7E3F1A20A21142001F030
:100220002BFDF3A21E21142001F026FDF3A23221A2
:10023000142001F021FDF4A24621142001F01CFD40
:1002400001F0BBBAE6A20A21084601F015FDF1A2B1
:100250001E21142001F010FDF3A23221142001F020
:100260000BFDF8A24621142001F006FDE8E7F7A2F5
:100270000A21084601F000FDFBA21E210A2001F020
:10028000FBFCFEA23221142001F0F6FCFE480068BF
:100290004FF47A7190FBF1F00A2190FBF1F201FB2F
:1002A00012003030F9490870F7480068642190FB6B
:1002B000F1F00A2190FBF1F201FB12003030F44919
:1002C0000870F14800680A2190FBF1F090FBF1F210
:1002D00001FB1200303001E0A4E3FDE3ED490870BA
:1002E000E94800680A2190FBF1F201FB120030306E
:1002F000E9490870E54802783221642001F08AFC5F
:10030000E348027832216E2001F084FCE148027853
:100310003221782001F07EFCDF48027832218220F1
:1003200001F078FCDDA232218C2001F0A5FCDCA2DA
:100330004621142001F0A0FCDC4800684FF47A71DB
:1003400090FBF1F00A2190FBF1F201FB120030303A
:10035000D7490870D5480068642190FBF1F00A2164
:1003600090FBF1F201FB12003030D2490870CF4807
:1003700000680A2190FBF1F090FBF1F201FB120002
:100380003030CD490870C94800680A2190FBF1F26D
:1003900001FB12003030C9490870C5480278462177
:1003A000642001F037FCC348027846216E2001F03A
:1003B00031FCC14802784621782001F02BFCBF486F
:1003C00002784621822001F025FCB4A246218C202F
:1003D00001F052FCBAA25A21142001F04DFCBB4896
:1003E00000684FF47A7190FBF1F00A2190FBF1F272
:1003F00001FB12003030B6490870B448006864212F
:1004000090FBF1F00A2190FBF1F201FB1200303079
:10041000B0490870AD4800680A2190FBF1F090FBEC
:10042000F1F201FB12003030AB490870A7480068B8
:100430000A2190FBF1F201FB12003030A74908704D
:10044000A34802785A21642001F0E4FBA148027815
:100450005A216E2001F0DEFB9F4802785A21782055
:1004600001F0D8FB9D4802785A21822001F0D2FB8E
:100470008AA25A218C2001F0FFFB99A26E21142040
:1004800001F0FAFB6FA28221142001F0F5FBD7E600
:100490006EA20A21084601F0EFFB92A21E210A205B
:1004A00001F0EAFB75A23221142001F0E5FB92482D
:1004B00000684FF47A7190FBF1F00A2190FBF1F2A1
:1004C00001FB120030308D4908708B4800686421B0
:1004D00090FBF1F00A2190FBF1F201FB12003030A9
:1004E00087490870844800680A2190FBF1F090FB6E
:1004F000F1F201FB12003030824908707E4800683A
:100500000A2190FBF1F201FB120030307E490870A5
:100510007A4802783221642001F07CFB7848027826
:1005200032216E2001F076FB764802783221782065
:1005300001F070FB744802783221822001F06AFBDE
:1005400056A232218C2001F097FB55A2462114209F
:1005500001F092FB6D4800684FF47A7190FBF1F066
:100560000A2190FBF1F201FB12003030684908705B
:1005700066480068642190FBF1F00A2190FBF1F2DB
:1005800001FB1200303063490870604800680A219E
:1005900090FBF1F090FBF1F201FB120030305E496C
:1005A00008705A4800680A2190FBF1F201FB120022
:1005B00030305A490870564802784621642001F0CC
:1005C00029FB5448027846216E2001F023FB524853
:1005D00002784621782001F01DFB504802789FE008
:1005E00054696D65204C61707365204D6F646500C2
:1005F000566964656F204D6F646500004D616E75CE
:10060000616C204D6F64650053657474696E677327
:1006100000000000496E746572616374697665203C
:100620004D6F646500000000496E70757420506164
:1006300072616D6574657273204D616E75616C6C6D
:100640007900000052657475726E0000506C65612F
:10065000736520736C6577207468652063616D65D0
:10066000726120746F00000074686520454E44205C
:10067000706F736974696F6E00000000536C696479
:10068000653A203C3C3C00002800002090000020FF
:100690009100002092000020930000203E3E3E008A
:1006A00050616E3A2020203C3C3C00002C00002091
:1006B0009400002095000020960000209700002064
:1006C00054696C743A20203C3C3C0000300000200F
:1006D00098000020990000209A0000209B00002034
:1006E0005365740074686520535441525420706FF0
:1006F000736974696F6E0000340000209C00002054
:100700009D0000209E0000209F0000203800002057
:10071000A0000020A1000020A2000020A3000020D3
:100720004621822001F076FAAFF2900246218C2019
:1007300001F0A2FAAFF278025A21142001F09CFADB
:10074000FE4800684FF47A7190FBF1F00A2190FBAB
:10075000F1F201FB12003030F9490870F7480068E7
:10076000642190FBF1F00A2190FBF1F201FB1200F1
:100770003030F4490870F14800680A2190FBF1F02C
:1007800090FBF1F201FB12003030EF490870EB48AA
:1007900000680A2190FBF1F201FB12003030EB49B6
:1007A0000870E74802785A21642001F033FAE548DE
:1007B00002785A216E2001F02DFAE34802785A217E
:1007C000782001F027FAE14802785A21822001F0CE
:1007D00021FAAFF238125A218C2001F04DFAAFF213
:1007E00000126E21142001F047FAAFF2A812822104
:1007F000142001F041FA23E5D5A20A21084601F0B0
:100800003BFAD9A21E210A2001F036FAD9A23221E0
:10081000142001F031FADB4800684FF47A7190FB44
:10082000F1F00A2190FBF1F201FB12003030D649C1
:100830000870D4480068642190FBF1F00A2190FB15
:10084000F1F201FB12003030D0490870CD48006849
:100850000A2190FBF1F090FBF1F201FB1200303025
:10086000CB490870C74800680A2190FBF1F201FBF0
:1008700012003030C7490870C348027832217D2009
:1008800001F0C8F9C14802783221872001F0C2F98D
:10089000BF4802783221912001F0BCF9BD480278AE
:1008A00032219B2001F0B6F9AFF210223221A520AF
:1008B00001F0E2F9B8A24621142001F0DDF9BA48AE
:1008C00000684FF47A7190FBF1F00A2190FBF1F28D
:1008D00001FB12003030B5490870B348006864214C
:1008E00090FBF1F00A2190FBF1F201FB1200303095
:1008F000AF490870AC4800680A2190FBF1F090FB0A
:10090000F1F201FB12003030AA490870A6480068D5
:100910000A2190FBF1F201FB12003030A649087069
:10092000A248027846217D2001F074F9A04802789F
:100930004621872001F06EF99E48027846219120D9
:1009400001F068F99C48027846219B2001F062F989
:10095000AFF2B8224621A52001F08EF997A25A21C4
:10096000142001F089F9994800684FF47A7190FBDE
:10097000F1F00A2190FBF1F201FB120030309449B2
:10098000087092480068642190FBF1F00A2190FB06
:10099000F1F201FB120030308E4908708B4800687C
:1009A0000A2190FBF1F090FBF1F201FB12003030D4
:1009B00089490870854800680A2190FBF1F201FB23
:1009C0001200303085490870814802785A217D2014
:1009D00001F020F97F4802785A21872001F01AF9A6
:1009E0007D4802785A21912001F014F97B48027861
:1009F0005A219B2001F00EF9AFF260325A21A52056
:100A000001F03AF901E084E382E1AFF22C326E2189
:100A1000142001F031F9AFF2D4328221142001F018
:100A20002BF90DE46EA20A21084601F025F973A204
:100A30000A21084601F020F9744800684FF47A71E1
:100A400090FBF1F00A2190FBF1F201FB1200303033
:100A50006F4908706D480068642190FBF1F00A212D
:100A600090FBF1F201FB120030306A4908706748D0
:100A700000680A2190FBF1F090FBF1F201FB1200FB
:100A8000303065490870614800680A2190FBF1F236
:100A900001FB12003030614908705D480278142172
:100AA000322001F0B7F85B48027814213C2001F0B5
:100AB000B1F8594802781421462001F0ABF85748A4
:100AC00002781421502001F0A5F855A20A21084609
:100AD00001F0D2F855A200E011E20A21084601F027
:100AE000CBF852A20A21084601F0C6F85048006827
:100AF0003C2190FBF1F090FBF1F00A2190FBF1F02A
:100B000090FBF1F201FB120030304A49087048486E
:100B100000683C2190FBF1F090FBF1F00A2190FB82
:100B2000F1F201FB12003030434908704048006880
:100B30003C2190FBF1F04149086086E03C00002038
:100B4000A4000020A5000020A6000020A70000208F
:100B5000506C6561736520656E74657220666F6C9C
:100B60006C6F77696E670000706172616D657465A6
:100B70007273000046616D65733A202020203C3C72
:100B80003C00000040000020A8000020A900002038
:100B9000AA000020AB000020496E74657276616C7B
:100BA0003A203C3C3C00000044000020AC00002007
:100BB000AD000020AE000020AF0000205368757427
:100BC0007465723A20203C3C3C0000004800002044
:100BD000B0000020B1000020B2000020B3000020CF
:100BE00054616B696E672054696D65204C61707348
:100BF000652E2E2E2E2E2E200000000046616D65E3
:100C0000732054616B656E3A20000000880000205C
:100C1000B4000020B5000020B6000020B70000207E
:100C200054696D65204C6566743A00003A00000016
:100C3000C4000020B8000020B9000020C00000203F
:100C4000FE4800683C38FD490860FC4800683C28C4
:100C5000F6DAFA4800680A2190FBF1F090FBF1F215
:100C600001FB12003030F6490870F44800680A2190
:100C700090FBF1F201FB12003030F249087004E001
:100C8000F14800683C38F0490860EF4800683C28AB
:100C9000F6DAED4800680A2190FBF1F090FBF1F2E2
:100CA00001FB12003030E9490870E74800680A216A
:100CB00090FBF1F201FB12003030E4490870E44887
:100CC00002781421322000F0A5FFE24802781421B6
:100CD0003C2000F09FFFDA4802781421462000F003
:100CE00099FFDA4802781421502000F093FFDA4887
:100CF00002781421502000F08DFFD8A20A21084666
:100D000000F0BAFFD7A20A21084600F0B5FF72E54D
:100D1000AFF234120A21084600F0AEFFAFF22412FF
:100D20000A21084600F0A8FFD04800684FF47A7105
:100D300090FBF1F00A2190FBF1F201FB1200303040
:100D4000CB490870C9480068642190FBF1F00A2182
:100D500090FBF1F201FB12003030C6490870C34825
:100D600000680A2190FBF1F090FBF1F201FB120008
:100D70003030C1490870BD4800680A2190FBF1F28B
:100D800001FB12003030BD490870B94802781421C7
:100D9000322000F03FFFB748027814213C2000F0D9
:100DA00039FFB54802781421462000F033FFB348DC
:100DB00002781421502000F02DFFAFF29C120A217E
:100DC000084600F059FFAFF29C120A21084600F0D5
:100DD00053FFAFF2A8120A21084600F04DFF9A48CF
:100DE00000683C2190FBF1F090FBF1F00A2190FBB0
:100DF000F1F090FBF1F201FB1200303094490870E1
:100E0000914800683C2190FBF1F090FBF1F00A2141
:100E100090FBF1F201FB120030308E4908708A48D5
:100E200000683C2190FBF1F08449086004E08348AD
:100E300000683C3881490860804800683C28F6DA40
:100E40007E4800680A2190FBF1F090FBF1F201FB73
:100E5000120030307A490870784800680A2190FB07
:100E6000F1F201FB120030307649087004E0764858
:100E700000683C3874490860734800683C28F6DA1A
:100E8000714800680A2190FBF1F090FBF1F201FB40
:100E9000120030306D4908706B4800680A2190FBE1
:100EA000F1F201FB1200303068490870684802789E
:100EB0001421322000F0AEFE6648027814213C2056
:100EC00000F0A8FE5E4802781421462000F0A2FE41
:100ED0005E4802781421502000F09CFE5E480278A3
:100EE0001421502000F096FE65A20A21084600F069
:100EF000C3FE5CA20A21084600F0BEFE7BE462A2AB
:100F00000A21084600F0B8FE69A20A21084600F04E
:100F1000B3FE6B4800684FF47A7190FBF1F00A2140
:100F200090FBF1F201FB1200303066490870644812
:100F30000068642190FBF1F00A2190FBF1F201FBC3
:100F400012003030604908705D4800680A2190FB4B
:100F5000F1F090FBF1F201FB120030305B490870B8
:100F6000574800680A2190FBF1F201FB1200303073
:100F700057490870534802781421322000F04AFE85
:100F80005148027814213C2000F044FE4F4802787A
:100F90001421462000F03EFE4D48027814215020D6
:100FA00000F038FE4BA20A21084600F065FE4C48CE
:100FB00000684FF47A7190FBF1F00A2190FBF1F296
:100FC00001FB120030304749087045480068642131
:100FD00090FBF1F00A2190FBF1F201FB120030309E
:100FE000414908703E4800680A2190FBF1F090FBEF
:100FF000F1F201FB120030303C49087038480068BB
:101000000A2190FBF1F201FB1200303038490870E0
:10101000344802781421322000F0FCFD3248027876
:1010200014213C2000F0F6FD3048027814214620BF
:1010300000F0F0FD2E48027814215BE0C000002093
:10104000BA000020BB000020C4000020BC0000202B
:10105000B8000020B9000020BD0000205061757369
:101060006500000053746F700000000088000020CD
:10107000B4000020B5000020B6000020B70000201A
:10108000526573756D650000506C65617365206510
:101090006E7465722074686520666F6C6C6F77691A
:1010A0006E6720706172616D657465727300000017
:1010B000546F74616C2046616D65733A00000000E6
:1010C00040000020A8000020A9000020AA00002065
:1010D000AB000020496E74657276616C3A000000C6
:1010E00044000020AC000020AD000020AE00002035
:1010F000AF000020502000F08DFDF7A20A21084625
:1011000000F0BAFDAFF6C4220A21084600F0B4FD93
:1011100053E3F4A20A21084600F0AEFDFBA20A2127
:10112000084600F0A9FDFE4800684FF47A7190FB74
:10113000F1F00A2190FBF1F201FB12003030F94985
:101140000870F7480068642190FBF1F00A2190FBD9
:10115000F1F201FB12003030F3490870F0480068EA
:101160000A2190FBF1F090FBF1F201FB120030300C
:10117000EE490870EA4800680A2190FBF1F201FB91
:1011800012003030EA490870E64802781421322013
:1011900000F040FDE448027814213C2000F03AFDC4
:1011A000E24802781421462000F034FDE04802783D
:1011B0001421502000F02EFDDEA20A21084600F086
:1011C0005BFDE14800684FF47A7190FBF1F00A2171
:1011D00090FBF1F201FB12003030DC490870DA4874
:1011E0000068642190FBF1F00A2190FBF1F201FB11
:1011F00012003030D6490870D34800680A2190FBAD
:10120000F1F090FBF1F201FB12003030D14908708F
:10121000CD4800680A2190FBF1F201FB120030304A
:10122000CD490870C94802781421322000F0F2FC40
:10123000C748027814213C2000F0ECFCC548027835
:101240001421462000F0E6FCC34802781421502007
:1012500000F0E0FCC1A20A21084600F00DFDC448E0
:1012600000684FF47A7190FBF1F00A2190FBF1F2E3
:1012700001FB12003030BF490870BD48006864218E
:1012800090FBF1F00A2190FBF1F201FB12003030EB
:10129000B9490870B64800680A2190FBF1F090FB4C
:1012A000F1F201FB12003030B4490870B048006818
:1012B0000A2190FBF1F201FB12003030B0490870B6
:1012C000AC4802781421322000F0A4FCAA4802782D
:1012D00014213C2000F09EFCA848027814214620EE
:1012E00000F098FCA64802781421502000F092FCEF
:1012F00079A20A21084600F0BFFCAFF6B8420A21E5
:10130000084600F0B9FC58E2AFF284220A210846F0
:1013100000F0B2FC9BA20A21084600F0ADFC9D48FB
:1013200000684FF47A7190FBF1F00A2190FBF1F222
:1013300001FB12003030984908709648006864211B
:1013400090FBF1F00A2190FBF1F201FB120030302A
:10135000924908708F4800680A2190FBF1F090FBD9
:10136000F1F201FB120030308D49087089480068A5
:101370000A2190FBF1F201FB12003030894908701C
:10138000854802781421322000F044FC834802781A
:1013900014213C2000F03EFC8148027814214620B4
:1013A00000F038FC7F4802781421502000F032FC15
:1013B0007DA20A21084600F05FFC7F4800684FF4D8
:1013C0007A7190FBF1F00A2190FBF1F201FB12001F
:1013D00030307A49087078480068642190FBF1F059
:1013E0000A2190FBF1F201FB1200303074490870C1
:1013F000714800680A2190FBF1F090FBF1F201FBCB
:10140000120030306F4908706B4800680A2190FB69
:10141000F1F201FB120030306B4908706748027826
:101420001421322000F0F6FB6548027814213C209C
:1014300000F0F0FB634802781421462000F0EAFB3C
:10144000614802781421502000F0E4FB5FA20A21D9
:10145000084600F011FC614800684FF47A7190FB77
:10146000F1F00A2190FBF1F201FB120030305C49EF
:1014700008705A480068642190FBF1F00A2190FB43
:10148000F1F201FB120030305649087053480068F1
:101490000A2190FBF1F090FBF1F201FB12003030D9
:1014A000514908704D4800680A2190FBF1F201FB98
:1014B000120030304D49087049480278142132201A
:1014C00000F0A8FB4748027814213C2000F0A2FB62
:1014D0004548027814218BE0436F6E74696E756520
:1014E00000000000506C6561736520656E74657264
:1014F0002074686520666F6C6C6F77696E6720700A
:101500006172616D6574657273200000537461725D
:101510007420506F736974696F6E5F583A000000F1
:10152000340000209C0000209D0000209E00002030
:101530009F000020537461727420506F7369746946
:101540006F6E5F593A00000038000020A0000020B4
:10155000A1000020A2000020A300002053746172AB
:101560007420506F736974696F6E5F5A3A0000009F
:101570003C000020A4000020A5000020A6000020C0
:10158000A7000020454E4420506F736974696F6E48
:101590005F583A00280000209000002091000020B1
:1015A0009200002093000020454E4420506F736944
:1015B00074696F6E5F593A002C000020940000207F
:1015C000950000209600002097000020454E442002
:1015D000506F736974696F6E5F5A3A003000002073
:1015E00098000020990000209A0000209B00002015
:1015F000462000F00FFB724802781421502000F0C2
:1016000009FBAFF6FC120A21084600F035FBAFF2E9
:1016100038120A21084600F02FFBAFF6D8720A21D3
:10162000084600F029FBC8E0664A0A21084600F097
:1016300023FB644A24320A21084600F01DFB614A5C
:1016400038320A21084600F017FB5E4A54320A215C
:10165000084600F011FB00BFAFF2D4520A21084641
:1016600000F00AFBAFF2B8520A21084600F004FB72
:10167000554800684FF47A7190FBF1F00A2190FB15
:10168000F1F201FB12003030504908704E480068FA
:10169000642190FBF1F00A2190FBF1F201FB1200B2
:1016A00030304B490870484800680A2190FBF1F03F
:1016B00090FBF1F201FB12003030464908704248BD
:1016C00000680A2190FBF1F201FB12003030424920
:1016D00008703E4802781421322000F09BFA3C4802
:1016E000027814213C2000F095FA3A48027814213F
:1016F000462000F08FFA384802781421502000F07C
:1017000089FAAFF230620A21084600F0B5FA334890
:1017100000684FF47A7190FBF1F00A2190FBF1F22E
:1017200001FB120030302E4908702C4800686421FB
:1017300090FBF1F00A2190FBF1F201FB1200303036
:1017400028490870254800680A2190FBF1F090FBB9
:10175000F1F201FB12003030234908701F48006885
:101760000A2190FBF1F201FB120030301F49087092
:101770001B4802781421322000F04CFA19480278F4
:1017800014213C2000F046FA174802781421462024
:1017900000F040FA154802781421502000F03AFA7F
:1017A000AFF2CC220A21084600F066FA054A54320C
:1017B0000A21084600F060FA00BF00BF10BD00001B
:1017C0009B000020F005000840000020A800002039
:1017D000A9000020AA000020AB0000204400002047
:1017E000AC000020AD000020AE000020AF000020C3
:1017F00051B18200A2F1C042126842F0010382009E
:10180000A2F1C042136009E08200A2F1C042126856
:10181000034B1A408300A3F1C0431A6070470000D5
:10182000FEFF0F00D0E901121143C26811430269A3
:1018300011434269114382691143C2691143026A2B
:101840001143426A1143826A1143C26A1143026B17
:10185000114302689200A2F1C04211608168082918
:101860000BD101688900A1F1C041096841F0400233
:1018700001688900A1F1C0410A60416B0968426BAF
:10188000526841EA0211426B926841EA0221426BBE
:10189000928941EA0241426B128A41EA0251426B4B
:1018A000127D41EA0261426B926911430268521C47
:1018B0009200A2F1C0421160C16AB1F5804F1BD104
:1018C000816B0968826B526841EA0211826B9268EF
:1018D00041EA0221826B128A41EA0251826B127D37
:1018E00041EA0261826B9269114302689200A2F19F
:1018F000C042C2F8041107E06FF07042016889002D
:10190000A1F1C041C1F804217047000008B50121D0
:10191000042000F0C5FC4FF4FE70ADF8000010206C
:101920008DF8030003208DF8020069460B4800F093
:1019300019F84FF47F70094910310860012108201F
:1019400000F0AEFC40F2E330ADF8000004208DF86A
:1019500003006946024800F005F808BD0008014090
:10196000000C01402DE9F041024600250026002030
:1019700000230024002791F803C00CF00F0591F814
:1019800003C00CF0100CBCF1000F03D091F802C0A2
:101990004CEA050591F800C0BCF1000F31D0146885
:1019A00000202BE04FF0010C0CFA00F3B1F800C05E
:1019B0000CEA03069E4220D183004FF00F0C0CFA74
:1019C00003F7BC4305FA03FC4CEA040491F803C096
:1019D000BCF1280F06D14FF0010C0CFA00FCC2F844
:1019E00014C00AE091F803C0BCF1480F05D14FF0D4
:1019F000010C0CFA00FCC2F810C0401C0828D1D31E
:101A00001460B1F800C0BCF1FF0F34DD5468002051
:101A10002EE000F1080C4FF0010808FA0CF3B1F8C1
:101A200000C00CEA03069E4221D183004FF00F0C48
:101A30000CFA03F7BC4305FA03FC4CEA040491F8E2
:101A400003C0BCF1280F05D100F1080C08FA0CF80E
:101A5000C2F8148091F803C0BCF1480F07D100F11F
:101A6000080C4FF0010808FA0CF8C2F81080401C6E
:101A70000828CED35460BDE8F08102460020936868
:101A80000B400BB1012000E000207047416170471E
:101A90000161704700BFFEE710B504462CB14FF45A
:101AA00080510548FFF7F2FF04E04FF480510248EF
:101AB000FFF7EEFF10BD0000001401402DE9F041DA
:101AC00006460F4614461D46DDF818802B46224672
:101AD0003946304600F0BDF904FB05F0414600F000
:101AE0001EF9BDE8F08110B50446092C33D2DFE8B9
:101AF00004F0050A0F14191E23282D000F210520BC
:101B000000F02BF827E02321052000F026F822E042
:101B10003721052000F021F81DE04B21052000F0C1
:101B20001CF818E05F21052000F017F813E073217E
:101B3000052000F012F80EE08721052000F00DF8D6
:101B400009E09B21052000F008F804E0AF21052002
:101B500000F003F800BF00BF10BD70B504460D468D
:101B6000A9B2A0B205230A2200F073F90021642073
:101B700000F0D5F86A1C91B204F10A0290B2032376
:101B8000012200F066F90021122000F0C8F8AA1C1A
:101B900091B204F10B0290B201231A4600F059F9F8
:101BA0000021012000F0BBF86A1E91B204F1080286
:101BB00090B20123022200F04CF90021122000F023
:101BC000AEF8AA1E91B204F1080290B201231A469F
:101BD00000F03FF90021012000F0A1F86A1D91B248
:101BE00004F1080290B20123022200F032F9002130
:101BF000122000F094F8AA1D91B204F1080290B2EC
:101C000001231A4600F025F90021012000F087F891
:101C100070BD00002DE9F047804689461546A5F1C4
:101C2000200000F0FF0A102308224946404600F039
:101C300010F92C2000F06AFA002417E00D4800EBA0
:101C40000A10065D00270DE006F0010018B11F2004
:101C500000F060FA03E04FF6FF7000F05BFA7610D8
:101C6000781CC7B2082FEFDB601CC4B2102CE5DB78
:101C7000BDE8F087DA34000870B505460E46144614
:101C800017E028460830F02803DD002506F1100093
:101C900086B230461030B0F5A07F01DD0025002669
:101CA000227831462846FFF7B5FF641C05F108008D
:101CB00085B220780028E4D170BD00B597B001212D
:101CC000080200F0CDFA02200190002002900520C9
:101CD000039000200490059006904FF080500790EC
:101CE00000200890099008200A9010200B900020F6
:101CF0000C900E900F9010904FF480501190002097
:101D000012901390149001A81590169008A8FFF750
:101D100089FD01210020FFF76BFD17B000BD70B5F4
:101D200004460D4600262C2000F0F0F900BF03E029
:101D3000284600F0EFF9761CA642F9D370BD0000EA
:101D400008B50121084600F0ABFA0121602000F03F
:101D5000A7FA03208DF8020018208DF803004CF23A
:101D60000370ADF8000069462C48FFF7FBFD4FF605
:101D70008070ADF8000069462948FFF7F3FD0320A5
:101D80008DF8020018208DF803001020ADF8000037
:101D900069462248FFF7E6FD2020ADF800006946BD
:101DA0001E48FFF7DFFD0121202000F079FA802096
:101DB000ADF8000069461948FFF7D4FD0121202045
:101DC00000F06EFA4FF40060ADF800006946134869
:101DD000FFF7C8FD10208DF8030003208DF80200E6
:101DE0000121402000F05CFA0220ADF800006946B5
:101DF0000B48FFF7B7FD10208DF8030003208DF886
:101E000002000121202000F04BFA4FF48050ADF881
:101E1000000069460148FFF7A5FD08BD0014014018
:101E20000018014008B5FFF78BFFFFF746FF0120C0
:101E3000FFF732FE00F056F900F03CF84FF6FF7065
:101E40004FF4A073F022002100900846FFF736FE01
:101E500008BD2DE9F04104460D4616461F462A20CE
:101E600000F054F9201200F055F9E0B200F052F9F8
:101E7000A119491EC1F30F2000F04CF9A119491E08
:101E8000C8B200F047F92B2000F040F9281200F00A
:101E900041F9E8B200F03EF9E919491EC1F30F20FB
:101EA00000F038F9E919491EC8B200F033F9BDE86D
:101EB000F081000010B5CF2000F028F9002000F0DC
:101EC00029F9812000F026F9302000F023F9ED20D7
:101ED00000F01CF9642000F01DF9032000F01AF94D
:101EE000122000F017F9812000F014F9E82000F02A
:101EF0000DF9852000F00EF9102000F00BF9782084
:101F000000F008F9CB2000F001F9392000F002F9C7
:101F10002C2000F0FFF8002000F0FCF8342000F046
:101F2000F9F8022000F0F6F8F72000F0EFF8202092
:101F300000F0F0F8EA2000F0E9F8002000F0EAF8FC
:101F4000002000F0E7F8B12000F0E0F8002000F0F9
:101F5000E1F81B2000F0DEF8B62000F0D7F80A20E8
:101F600000F0D8F8A22000F0D5F8C02000F0CEF89C
:101F7000352000F0CFF8C12000F0C8F8112000F0A3
:101F8000C9F8C52000F0C2F8452000F0C3F845208C
:101F900000F0C0F8C72000F0B9F8A22000F0BAF8AD
:101FA000F22000F0B3F8002000F0B4F8262000F092
:101FB000ADF8012000F0AEF8E02000F0A7F80F2007
:101FC00000F0A8F8262000F0A5F8242000F0A2F8E0
:101FD0000B2000F09FF80E2000F09CF8092000F084
:101FE00099F8542000F096F8A82000F093F84620C5
:101FF00000F090F80C2000F08DF8172000F08AF81F
:10200000092000F087F80F2000F084F8072000F086
:1020100081F8002000F07EF8E12000F077F8002041
:1020200000F078F8192000F075F81B2000F072F825
:10203000042000F06FF8102000F06CF8072000F08A
:1020400069F82A2000F066F8472000F063F839208C
:1020500000F060F8032000F05DF8062000F05AF868
:10206000062000F057F8302000F054F8382000F037
:1020700051F80F2000F04EF8362000F047F8C82045
:1020800000F048F82A2000F041F8002000F042F863
:10209000002000F03FF8002000F03CF8EF2000F0B6
:1020A00039F82B2000F032F8002000F033F800203F
:1020B00000F030F8012000F02DF83F2000F02AF861
:1020C0003A2000F023F8552000F024F8112000F009
:1020D0001DF80348FEF75DF8292000F017F810BD41
:1020E000FCBF020010B502210648FFF7CFFC0648EE
:1020F000FEF74FF802210348FFF7CAFC0248FEF73B
:1021000048F810BD00180140FCBF02004FF0C0416C
:102110000880704701490880704700000000026095
:1021200008B501214FF0C05000F0AAF8012000F0DE
:102130008FF84FF4407000F0C9F8012000F0C0F8AB
:1021400000F040F900F048F900F0D6F83E2000F029
:1021500029F900F037F9002000F016F900F032F903
:102160004FF6FF701B49088000F02CF94FF6FF7006
:102170001849091D088000F025F90121022000F00E
:10218000F3F814481C38008800F0020011491C398B
:10219000088000F017F900F0B9F829208DF8000048
:1021A00000208DF801008DF8020001208DF8030059
:1021B000684600F015F803208DF8000000208DF827
:1021C00001008DF8020001208DF80300684600F040
:1021D00007F808BD2028004000BFFEE77047000058
:1021E00070B5002100230F22C47804B3154C246875
:1021F00004F4E064C4F5E064210AC1F10403CA40B8
:10220000447804FA03F184781440214309010E4C08
:102210000678A155047804F01F050124AC40057828
:102220006D11AD0005F1E025C5F8004109E0047825
:1022300004F01F050124AC40044D0678761145F8E2
:10224000264070BD0CED00E000E400E080E100E01D
:10225000014908627047000000000E42704700000C
:1022600029B1064A52690243044B5A6104E0034A09
:1022700052698243014B5A617047000000100240CE
:1022800029B1064AD2690243044BDA6104E0034AE9
:10229000D2698243014BDA617047000000100240AE
:1022A00029B1064A92690243044B9A6104E0034A49
:1022B00092698243014B9A6170470000001002400E
:1022C00001490860704700003C0442420249096A23
:1022D0000143014A116270470010024010B502200C
:1022E00000F002F810BD0000024909888143014A4C
:1022F00011807047042800400348008840F0100017
:102300000149088070470000042800400348008805
:102310004FF6EF71084001490880704704280040DB
:1023200001460020064A12880A40D0B2044A121F11
:1023300012880A4012B108B1012000E00020704765
:102340000428004010B50220FFF7EAFF012808D159
:102350000220FFF7C9FF0348006810B10148006878
:10236000804710BD0000002029B1064A12880243B0
:10237000044B1A8004E0034A12888243014B1A80FE
:10238000704700000028004000B50246FFF7B4FF88
:10239000100C03490880091D0A80FFF7B7FF00BD34
:1023A0001828004000B50246FFF7A6FFC2F303401D
:1023B00003490880091D0A80FFF7A8FF00BD00003F
:1023C0000828004000BF0348008800F020000028D3
:1023D000F9D0704704280040074800884FF6F7718D
:1023E00008400549088000BF0348008800F0080045
:1023F0000028F9D07047000004280040704710B54D
:1024000000F002F810BD00000CB500200190009013
:102410003348006840F480303149086000BF3048DC
:10242000006800F4003000900198401C0190009872
:1024300018B90198B0F5A06FF1D12948006800F4EF
:10244000003010B10120009001E0002000900098C1
:10245000012843D12348006840F01000214908605A
:102460000846006820F0030008600846006840F055
:10247000020008601A4840681949486008464068E8
:1024800048600846406840F48060486008464068FC
:1024900020F47C1048600846406840F4E81048602A
:1024A0000846006840F08070086000BF0C48006873
:1024B00000F000700028F9D00948406820F00300BF
:1024C000074948600846406840F00200486000BF85
:1024D0000348406800F00C000828F9D10CBD00004A
:1024E000001002400020024010B5044674B90121DA
:1024F000084600F0B9F81420FDF75EFE0021012027
:1025000000F0B2F81420FDF757FE00BF00BF10BD69
:102510007047000010B51348006840F001001149F1
:10252000086008464068104908400E49486008465F
:1025300000680E4908400B4908600846006820F40E
:10254000802008600846406820F4FE0048604FF490
:102550001F008860FFF753FF4FF0006004490860D8
:1025600010BD0000001002400000FFF8FFFFF6FE63
:1025700008ED00E000BFFEE702E008C8121F08C136
:10258000002AFAD170477047002001E001C1121FF4
:10259000002AFBD17047000030B5044600250EE04C
:1025A0000848FDF709FE0121002000F05DF805480C
:1025B000FDF702FE0021084600F056F86D1CA5420A
:1025C000EEDB30BDA086010070B50546072D46D272
:1025D000DFE805F0040D161F28313B0001212148DA
:1025E000FFF74BFA08B1002400E0012437E0022194
:1025F0001C48FFF742FA08B1002400E001242EE055
:1026000020211848FFF739FA08B1002400E001241E
:1026100025E040211348FFF730FA08B1002400E01C
:1026200001241CE080210F48FFF727FA08B100249D
:1026300000E0012413E04FF480710A48FFF71DFA0F
:1026400008B1002400E0012409E04FF400710548BE
:10265000FFF713FA08B1002400E0012400BF00BF17
:10266000204670BD000C014007284DD2DFE800F085
:10267000040E18222C36400019B90422234B1A608C
:1026800003E00422214B1B1F1A603DE019B9082208
:102690001E4B1A6003E008221C4B1B1F1A6033E01C
:1026A00019B91022194B1A6003E01022174B1B1F97
:1026B0001A6029E019B92022144B1A6003E0202285
:1026C000124B1B1F1A601FE019B940220F4B1A60F2
:1026D00003E040220D4B1B1F1A6015E019B9802240
:1026E0000A4B1A6003E08022084B1B1F1A600BE0A4
:1026F00021B94FF48072054B1A6004E04FF48072E8
:10270000024B1B1F1A6000BF00BF70471408014036
:1027100008B5FFF787FBFFF7F9F8FFF701FD022087
:10272000FFF73AFFFEA20A210846FFF7A5FA4FF687
:10273000FF704FF4A073F022002100900846FFF7CD
:10274000BDF900F08DFEFC4908600720FB490860D8
:102750000220FB490860FCE3F848006800287DD1AE
:10276000F849086000F07CFEF749086008460068F8
:10277000F1490968401AB0F57A7F0DDD4FF6FF7018
:102780004FF4A073F022002100900846FFF796F95D
:1027900000F066FEE8490860E8480068FDF71AFDA9
:1027A000E7480068FFF79FF90120FFF70DFF0128B8
:1027B0000ED1E3480068032805DAE1480068401CB0
:1027C000DF49086002E00020DD490860FDF7EAFC0F
:1027D0000020FFF7F9FE01280ED1D9480068002833
:1027E00005DDD7480068401ED549086002E0032097
:1027F000D3490860FDF7D6FCD148006890B90420A1
:10280000FFF7E2FE01280DD1CE48006850B9012043
:10281000CA490860CA490860CC490860C9490860CB
:10282000FDF7C0FCC6480068012811D10420FFF75D
:10283000CBFE01280CD1C348006848B90220BF492B
:1028400008600120BE490860BE490860FDF7AAFC87
:10285000BB480068022813D1042000E026E0FFF7FF
:10286000B3FE01280CD1B748006848B90320B3492A
:1028700008600120B2490860B2490860FDF792FC87
:10288000AF480068032811D10420FFF79DFE0128FE
:102890000CD1AC48006848B90420A8490860012060
:1028A000A7490860A7490860FDF77CFCA3480068B9
:1028B00001287DD10020A349086000F0D1FDA24984
:1028C0000860084600689C490968401AB0F57A7F9C
:1028D0000DDD4FF6FF704FF4A073F0220021009041
:1028E0000846FFF7EBF800F0BBFD934908609348FA
:1028F0000068FDF76FFC92480068FFF7F4F80120CC
:10290000FFF762FE01280ED18D480068032805DA22
:102910008B480068401C8A49086002E00120884911
:102920000860FDF73FFC0020FFF74EFE01280ED1A6
:1029300083480068012805DD81480068401E804901
:10294000086002E003207E490860FDF72BFC7C480C
:102950000068012812D10420FFF736FE01280DD1AE
:102960007848006850B9052074490860022074490D
:102970000860012073490860FDF714FC7048006886
:10298000022811D10420FFF71FFE01280CD16D4849
:10299000006848B909206949086001206849086051
:1029A00068490860FDF7FEFB65480068032800E001
:1029B00014E013D10420FFF707FE01280ED161486F
:1029C000006858B900205D4908605D4908605F49AA
:1029D000086001205B490860FDF7E4FB5748006888
:1029E00005287DD100205749086000F039FD56497F
:1029F00008600846006850490968401AB0F57A7FB7
:102A00000DDD4FF6FF704FF4A073F022002100900F
:102A10000846FFF753F800F023FD47490860474890
:102A20000068FDF7D7FB46480068FFF75CF8012017
:102A3000FFF7CAFD01280ED141480068062805DAD3
:102A40003F480068401C3E49086002E002203C49C3
:102A50000860FDF7A7FB0020FFF7B6FD01280ED1A7
:102A600037480068022805DD35480068401E3449B3
:102A7000086002E0062032490860FDF793FB002061
:102A8000FFF7A2FD90B90120FFF79EFD70B902206B
:102A9000FFF79AFD50B90320FFF796FD30B90420E7
:102AA000FFF792FD10B92A482A49086024480068B7
:102AB000022819D1FFF788FD012815D126480068A2
:102AC000401E2549086023480068FDF775FB214832
:102AD00000680A2808DD1F480068A0F51C5000E0C7
:102AE000DDE010381B49086015480068022837D11E
:102AF0000320FFF769FD012832D117480068401C08
:102B00001549086013480068FDF756FB1148006836
:102B10000A2825DD0F480068A0F51C5010381DE07C
:102B2000496E697469616C697A65696E67202E2ED9
:102B30002E202E2E2E0000007C0000201C000020E5
:102B400020000020840000208000002024000020BD
:102B500020A107008C00002028000020FD4908600B
:102B6000FD480068032818D10220FFF72DFD012839
:102B700013D1FA480068401EF8490860F54800681B
:102B8000FDF71AFBF34800680A2806DDF1480068E3
:102B9000A0F51C501038EF490860EF480068032882
:102BA00017D1FFF711FD012813D1EC480068401C34
:102BB000EA490860E7480068FDF7FEFAE548006862
:102BC0000A2806DDE3480068A0F51C501038E149EA
:102BD0000860E1480068042818D10220FFF7F4FCDF
:102BE000012813D1DE480068401EDD490860D9483D
:102BF0000068FDF7E1FAD74800680A2806DDD548E5
:102C00000068A0F51C501038D2490860D24800680E
:102C1000042818D10320FFF7D7FC012813D1D0488E
:102C20000068401CCE490860CA480068FDF7C4FA35
:102C3000C84800680A2806DDC6480068A0F51C5090
:102C40001038C4490860C4480068052812D104201F
:102C5000FFF7BAFC01280DD1C248006850B9062020
:102C6000C14908600220BC4908600120BD490860D4
:102C7000FDF798FAB8480068062810D10420FFF73D
:102C8000A3FC01280BD1B748006840B90120B64920
:102C90000860B1490860B3490860FDF783FAB2489B
:102CA000006806287ED10020AE49086000F0D8FBFD
:102CB000AE49086008460068AD490968401AB0F599
:102CC0007A7F0DDD4FF6FF704FF4A073F0220021E4
:102CD00000900846FEF7F2FE00F0C2FBA44908602F
:102CE000A1480068FDF776FA9B480068FEF7FBFEF6
:102CF0000120FFF769FC01280ED1974800680628DB
:102D000005DA95480068401C9349086002E00220FB
:102D100091490860FDF746FA0020FFF755FC0128AD
:102D20000ED18D480068022805DD8B480068401EE2
:102D30008949086002E0062087490860FDF732FAF9
:102D40000020FFF741FC90B90120FFF73DFC70B96E
:102D50000220FFF739FC50B90320FFF735FC30B9EA
:102D60000420FFF731FC10B982487A4908607A489C
:102D70000068022819D1FFF727FC012815D17E48E9
:102D80000068401E7C49086072480068FDF714FA2C
:102D9000704800680A2808DD6E480068A0F51C50DD
:102DA000103800E0BFE06B4908606B4800680228FB
:102DB00018D10320FFF708FC012813D16E480068E2
:102DC000401C6D49086063480068FDF7F5F96148EB
:102DD00000680A2806DD5F480068A0F51C5010381E
:102DE0005C4908605C480068032818D10220FFF79E
:102DF000EBFB012813D161480068401E5F49086061
:102E000054480068FDF7D8F9524800680A2806DDE2
:102E100050480068A0F51C5010384E4908604E48D4
:102E20000068032817D1FFF7CFFB012813D15348BF
:102E30000068401C5149086046480068FDF7BCF92D
:102E4000444800680A2806DD42480068A0F51C5086
:102E500010384049086040480068042818D1022012
:102E6000FFF7B2FB012813D145480068401E4449D2
:102E7000086038480068FDF79FF9364800680A285E
:102E800006DD34480068A0F51C5010383149086050
:102E900031480068042818D10320FFF795FB01286A
:102EA00013D137480068401C35490860294800683C
:102EB000FDF782F9274800680A2806DD25480068E2
:102EC000A0F51C50103823490860234800680528E5
:102ED00012D10420FFF778FB01280DD121480068AA
:102EE00050B907202049086002201B4908600120D2
:102EF0001C490860FDF756F917480068062812D1EA
:102F00000420FFF761FB01280DD11648006850B975
:102F100005201549086002200F4908600120114969
:102F20000860FDF73FF91048006807287ED10020AF
:102F30000C49086000F094FA0C49086008460068E3
:102F40000B490968401AB0F57A7F27DD4FF6FF700C
:102F500018E01CE28C000020200000202C00002043
:102F600030000020840000201C0000208000002091
:102F70007C00002020A10700340000203800002041
:102F80003C0000204FF4A073F0220021009008467E
:102F9000FEF794FD00F064FAFD490860FD48006802
:102FA000FDF718F9FC480068FEF79DFD0120FFF7CA
:102FB0000BFB01280ED1F8480068062805DAF64810
:102FC0000068401CF449086002E00220F2490860F1
:102FD000FDF7E8F80020FFF7F7FA01280ED1EE48D8
:102FE0000068022805DDEC480068401EEA490860D8
:102FF00002E00620E8490860FDF7D4F80020FFF75A
:10300000E3FA90B90120FFF7DFFA70B90220FFF769
:10301000DBFA50B90320FFF7D7FA30B90420FFF7E5
:10302000D3FA10B9DD48DE49086000E046E1DA482D
:103030000068022817D1FFF7C7FA012813D1D94831
:103040000068401ED7490860D5480068FDF7B4F80D
:10305000D34800680A2806DDD1480068A0F51C5056
:103060001038CF490860CC480068022818D10320E6
:10307000FFF7AAFA012813D1CA480068401CC949C1
:103080000860C7480068FDF797F8C54800680A2837
:1030900006DDC3480068A0F51C501038C049086020
:1030A000BD480068032818D10220FFF78DFA0128D7
:1030B00013D1BD480068401EBB490860B84800688D
:1030C000FDF77AF8B64800680A2806DDB4480068BB
:1030D000A0F51C501038B2490860AF4800680328BA
:1030E00017D1FFF771FA012813D1AF480068401CCF
:1030F000AD490860AA480068FDF75EF8A848006876
:103100000A2806DDA6480068A0F51C501038A4491E
:103110000860A1480068042818D10220FFF754FA7B
:10312000012813D1A1480068401EA04908609C48AE
:103130000068FDF741F89A4800680A2806DD9848BB
:103140000068A0F51C501038954908609248006846
:10315000042818D10320FFF737FA012813D1934828
:103160000068401C914908608D480068FDF724F80C
:103170008B4800680A2806DD89480068A0F51C50C5
:103180001038874908608448006805287FD10420EA
:10319000FFF71AFA01287AD185480068D0BB0820C9
:1031A0007C49086001207C49086081490860FCF77F
:1031B000F9FF7C4800687C49096848437D490860FC
:1031C0007D4909687D4A1268881A002801DB01469A
:1031D00000E041427A4A116010460068714909686E
:1031E00090FBF1F0774908607348006873490968FB
:1031F000884203DD01207449086002E00020724922
:10320000086072490968724A1268881A002802DB4D
:10321000014601E03BE041426E4A11601046006801
:103220006049096890FBF1F06B49086067480068E5
:1032300067490968884203DD01206849086002E0A7
:1032400000206649086066490968664A1268881A5B
:10325000002801DB014600E04142634A116010464C
:1032600000685049096890FBF1F0604908605C48CB
:1032700000685C490968884203DD01205C490860F8
:1032800002E000205A49086000205A49086042487C
:103290000068062812D10420FFF796F901280DD105
:1032A0004348006850B906203A49086002203A496C
:1032B000086001203E490860FCF774FF354800684B
:1032C000082864D133480068FCF784FF324800685E
:1032D000FEF709FC0120FFF777F901280CD12E48F1
:1032E0000068042805DA2C480068401C2A49086058
:1032F00002E00320284908600020FFF765F9012853
:103300000CD125480068032805DD23480068401ECD
:103310002149086002E004201F4908601E48006837
:1033200003280AD10420FFF74FF9012805D15820BE
:1033300018490860032018490860174800680428E5
:103340000AD1FFF741F9012806D100201149086090
:10335000114908602849086000F082F82549096889
:10336000401A2649B0FBF1F0104909680E4A12686C
:103370001144884204D900F0A6F800201D490860D5
:1033800000F06EF81B490968401A1C4938E057E004
:103390007C0000201C0000202000002020A107004D
:1033A0008C00002040000020440000204800002045
:1033B0008400002058000020280000203400002055
:1033C0005C000020680000204C0000202C00002041
:1033D00038000020600000206C0000205000002019
:1033E000300000203C00002064000020700000201D
:1033F00054000020740000202400002040420F00F0
:10340000B0FBF1F00F490968884219D900F05BF868
:1034100000230D48194602680C48006800F02AF89D
:1034200001230B48002102680A48006800F022F8D6
:1034300002230948002102680848006800F01AF8D1
:10344000FFF78AB948000020680000204C000020E7
:103450006C0000205000002070000020540000206C
:10346000034800880249091F098800EB01407047A2
:103470001C2800402DE9F04306460F469046994629
:1034800017B1012F06D102E041F2883402E042F286
:10349000107400BF00BF012E04D101210220FFF7EC
:1034A000E3F803E000210220FFF7DEF8002506E044
:1034B0004846FFF719F82046FCF77EFE6D1C45458F
:1034C000F6DBBDE8F08300B501210620FFF7CCF85C
:1034D00000210620FFF7C8F800BD00000000000032
:1034E00000000000000000000000000000183C3C4C
:1034F0003C181800181800000000000000666666FE
:10350000000000000000000000000000006C6CFEE5
:103510006C6C6CFE6C6C000000000018183C6606B9
:103520000C183060663C1818000000000E1B5B6E23
:1035300030180C76DAD8700000000000001C363617
:103540001C06F66666DC0000000000000018181873
:10355000000000000000000000000000003018180B
:103560000C0C0C0C0C18183000000000000C181883
:10357000303030303018180C000000000000006CB3
:1035800038FE386C00000000000000000000001849
:10359000187E181800000000000000000000000065
:1035A0000000000038383018000000000000000063
:1035B000007E00000000000000000000000000008D
:1035C000000000003838000000000000006060309B
:1035D0003018180C0C060600000000000078CCEC37
:1035E000ECCCDCDCCC780000000000000030383E81
:1035F000303030303030000000000000003C6666A3
:103600006030180C067E000000000000003C66667A
:1036100060386066663C000000000000000C0C6C26
:103620006C6C66FE6060000000000000007E060614
:10363000063E6060301E0000000000000038180CDC
:103640003E666666663C000000000000007E60305A
:103650003018180C0C0C000000000000003C6666DE
:103660006E3C7666663C000000000000003C66662A
:1036700066667C30181C0000000000000000003866
:10368000380000003838000000000000000000385A
:103690003800000038383018000000000060301892
:1036A0000C060C1830600000000000000000000054
:1036B0007E007E00000000000000000000060C18E4
:1036C000306030180C06000000000000003C666608
:1036D000301818001818000000000000007EC3C356
:1036E000F3DBDBF303FE00000000000000183C6683
:1036F00066667E666666000000000000003E666644
:10370000663E6666663E000000000000003C66669D
:1037100006060666663C000000000000001E3666D5
:1037200066666666361E000000000000007E060623
:10373000063E0606067E000000000000007E06062B
:10374000063E06060606000000000000003C666615
:1037500006067666667C000000000000006666666D
:10376000667E66666666000000000000003C181871
:1037700018181818183C0000000000000060606075
:1037800060606066663C000000000000006666360F
:10379000361E36366666000000000000000606068B
:1037A00006060606067E00000000000000C6C6EE03
:1037B000D6D6D6C6C6C600000000000000C6C6CEDB
:1037C000DEF6E6C6C6C6000000000000003C6666E5
:1037D00066666666663C000000000000003E6666A5
:1037E000663E06060606000000000000003C666615
:1037F00066666666663C306000000000003E6666F5
:10380000663E36666666000000000000003C660604
:103810000C183060663C000000000000007E1818A4
:1038200018181818181800000000000000666666D6
:1038300066666666663C000000000000006666661C
:10384000666666663C1800000000000000C6C6C63A
:10385000D6D6D66C6C6C0000000000000066662CAA
:103860001818346666660000000000000066666690
:10387000663C18181818000000000000007E606008
:1038800030180C06067E000000000000003C0C0C06
:103890000C0C0C0C0C0C0C0C3C0000000006060C74
:1038A0000C1818303060600000000000003C303020
:1038B00030303030303030303C0000183C66000092
:1038C00000000000000000000000000000000000F8
:1038D0000000000000000000FF00001C1830000085
:1038E0000000000000000000000000000000003C9C
:1038F00060607C66667C0000000000000006063EFA
:1039000066666666663E0000000000000000003C3F
:1039100066060606663C0000000000000060607C51
:1039200066666666667C0000000000000000003CE1
:1039300066667E06063C00000000000000780C0C65
:103940000C7E0C0C0C0C0000000000000000007C41
:1039500066666666667C60603E0000000006063EA5
:103960006666666666660000000000001818001EA5
:1039700018181818187E0000000000003030003CB5
:1039800030303030303030301E0000000006066627
:1039900066361E366666000000000000001E18181D
:1039A00018181818187E0000000000000000007EA3
:1039B000D6D6D6D6D6C60000000000000000003ED5
:1039C0006666666666660000000000000000003C57
:1039D00066666666663C0000000000000000003E6F
:1039E00066666666663E0606060000000000007C0D
:1039F00066666666667C60606000000000000066C7
:103A0000760E060606060000000000000000007C9E
:103A100006063C60603E000000000000000C0C7ECA
:103A20000C0C0C0C0C78000000000000000000667C
:103A300066666666667C00000000000000000066A6
:103A4000666666663C18000000000000000000C6C4
:103A5000D6D6D6D66C6C00000000000000000066D0
:103A6000663C183C6666000000000000000000662E
:103A700066666666663C30180F0000000000007E37
:103A80006030180C067E000000000000003018189E
:103A9000180C060C18181830000000000018181830
:103AA000181818181818181818000000000C181802
:103AB000183060301818180C00000000008EDB7100
:103AC000000000000000000000000000EC3A0008C8
:103AD00000000020C800000078250008B43B000862
:103AE000C800002000040000882500080000000035
:103AF00000000000000000000000000000000000C6
:103B000000000000000000000000000000000000B5
:103B100000000000000000000000000000000000A5
:103B20000000000000000000000000000000000095
:103B30000000000000000000000000000000000085
:103B40000000000000000000000000000000000075
:103B50000000000000000000000000000000000065
:103B60000000000000000000000000000000000055
:103B70000000000000000000000000000000000045
:103B80000000000000000000000000000000000035
:103B90000000000000000000000000000000000025
:103BA0000000000000000000000000000000000015
:043BB0000000000011
:0400000508000131BD
:00000001FF
