:020000040800F2
:10000000400500204501000831340008792C000823
:100010002D340008050400083938000800000000ED
:100020000000000000000000000000005136000841
:100030000904000800000000B1340008D5370008AA
:100040005F0100085F0100085F01000899350008A2
:100050005F0100085F0100085F0100085F01000800
:100060005F0100085F0100085F0100085F010008F0
:100070005F0100085F0100085F0100085F010008E0
:100080005F0100085F0100085F0100085F010008D0
:100090005F0100085F0100085F0100085F010008C0
:1000A0005F0100085F0100085F0100085F010008B0
:1000B0005F0100085F0100085F0100085F010008A0
:1000C0005F0100085F0100085F0100085F01000890
:1000D0005F0100085F0100085F0100085F01000880
:1000E0005F010008313500085F0100085F0100086A
:1000F0005F0100085F0100085F0100085F01000860
:100100005F0100085F0100085F0100085F0100084F
:100110005F0100085F0100085F0100085F0100083F
:100120005F0100085F0100085F0100085F0100082F
:10013000DFF80CD000F028F900480047C13900086A
:10014000400500200648804706480047FEE7FEE7D6
:10015000FEE7FEE7FEE7FEE7FEE7FEE7FEE7FEE777
:10016000D9370008310100082DE9FE4F81EA030468
:1001700004F0004421F0004100944FF0000B23F004
:10018000004350EA01045ED052EA03045BD0C3F39B
:100190000A54C1F30A552C44A4F2F3340194A0FB91
:1001A0000254C1F3130141F48011C3F3130343F468
:1001B000801301FB024400FB034E840A970A44EAC1
:1001C000815447EA8357A4FB076802958D0A05FB13
:1001D00007854FEA932C04FB0C542705029D4FEA38
:1001E000065847EA1637B5EB08056EEB070C870E85
:1001F000920E47EA811742EA8312A7FB0201B6EB8F
:100200000B0164EB00042B0D43EA0C335E1844EB46
:100210001C50DA465146E7FB0201C5F313044FEACE
:100220000B3343EA14534FEA0432019C43EA0603BA
:10023000A4F10C040294009CCDE900B400F055F840
:1002400003B0BDE8F08F00200146F9E70EB5C10FFD
:1002500080EAE0700844CA07002140F233438DE889
:100260000E000A460B4600F040F803B000BD70B522
:10027000C1F30A5201F000450024C1F3130140F21A
:10028000FF3341F480119A4201DA002070BD40F240
:1002900033439A42A2F2334203DC524200F006F8A2
:1002A00000E090402C43F1D0404270BD202A04DB96
:1002B000203A21FA02F00021704721FA02F3D040DF
:1002C000C2F12002914008431946704710B5141E30
:1002D00073F1000408DA401C41F1000192185B41FF
:1002E0001A4301D120F0010010BD2DE9F04D9246D6
:1002F0009B4611B1B1FA81F202E0B0FA80F22032ED
:10030000904600F053F804460F4640EA0A0041EADE
:100310000B0153465A46084313D0114653EA0100D5
:1003200019D0C8F140025046FFF7C0FF05460E46FF
:1003300050465946424600F039F8084305D001209E
:1003400004E020463946BDE8F08D0020054346EA2A
:10035000E0762C4337430A986305E40AA0EB0800D3
:100360000022FD0A44EA47540A3002D50020014623
:10037000E9E7010510196941DDE9084500196941FE
:10038000BDE8F04DA2E70000064C074D06E0E0682E
:1003900040F0010394E8070098471034AC42F6D3CC
:1003A000FFF7CAFEB46F0008D46F0008202A04DBF0
:1003B000203A00FA02F1002070479140C2F1200378
:1003C00020FA03F319439040704730B58C1810F8A9
:1003D000012B12F00F0301D110F8013B120906D1D5
:1003E00010F8012B03E010F8015B01F8015B5B1EC4
:1003F000F9D101E001F8013B521EFBD1A142E6D345
:10040000002030BD00BFFEE7704701B502E0009854
:10041000401E009000980028F9D108BD00B50120C9
:1004200003F01CFA014800F003F800BD20A107000A
:1004300007E0022100E000BF0A1EA1F10101FAD18C
:1004400000BF011EA0F10100F3D1704710B50446B2
:100450002046722C7DD015DC042802F048820ADC8C
:1004600058B3012849D0022801F02285032842F020
:10047000508202F031B96F2854D070286AD07128A8
:10048000F5D12AE3DF2801F02C8509DC792801F079
:1004900055827A2801F073837B28E8D101F0D5B822
:1004A000E02801F04B85A0F2764000287ED0A0F233
:1004B0004C400028DBD101F03ABFEBA20A210846EC
:1004C00002F004FDEDA21E210A2002F0FFFCF1A2C1
:1004D0003221142002F0FAFCF2A24621142002F08C
:1004E000F5FCF3A25A21142002F0F0FCF3A26E21D5
:1004F000142002F0EBFC02F00CBAE6A20A21084636
:1005000002F0E4FCF0A21E21142002F0DFFCF3A2B2
:100510003221142002F0DAFCF7A24621142002F066
:10052000D5FCE8E7F6A20A21084602F0CFFCFBA2C0
:100530001E210A2002F0CAFCFDA23221142002F082
:10054000C5FCFE4800684FF47A7190FBF1F00A2177
:1005500001E0D5E3F9E090FBF1F201FB120030304D
:10056000F7490870F5480068642190FBF1F00A2112
:1005700090FBF1F201FB12003030F2490870EF48B5
:1005800000680A2190FBF1F090FBF1F201FB1200F0
:100590003030ED490870E94800680A2190FBF1F21B
:1005A00001FB12003030E949087000E0FEE3E44846
:1005B00002783221642002F057FCE24802783221AE
:1005C0006E2002F051FCE04802783221782002F0DF
:1005D0004BFCDE4802783221822002F045FCDCA28E
:1005E00032218C2002F072FCDAA24621142002F0A3
:1005F0006DFCDB4800684FF47A7190FBF1F00A2142
:1006000090FBF1F201FB12003030D6490870D4485B
:100610000068642190FBF1F00A2190FBF1F201FBEC
:1006200012003030D0490870CD4800680A2190FB94
:10063000F1F090FBF1F201FB12003030CB49087071
:10064000C74800680A2190FBF1F201FB120030302C
:10065000C7490870C34802784621642002F004FCB0
:10066000C148027846216E2002F0FEFBBF480278A6
:100670004621782002F0F8FBBD480278462182200E
:1006800002F0F2FBB2A246218C2002F01FFCB9A2BC
:100690005A21142002F01AFCB94800684FF47A710C
:1006A00090FBF1F00A2190FBF1F201FB12003030D7
:1006B000B4490870B2480068642190FBF1F00A2147
:1006C00090FBF1F201FB12003030AF490870AC48EA
:1006D00000680A2190FBF1F090FBF1F201FB12009F
:1006E0003030AA490870A64800680A2190FBF1F250
:1006F00001FB12003030A6490870A24802785A2146
:10070000642002F0B1FBA04802785A216E2002F06A
:10071000ABFB9E4802785A21782002F0A5FB9C484A
:1007200002785A21822002F09FFB89A25A218C2054
:1007300002F0CCFB97A26E21142002F0C7FB6EA240
:100740008221142002F0C2FBD5E66DA20A210846E0
:1007500002F0BCFB90A21E210A2002F0B7FB74A29B
:100760003221142002F0B2FB904800684FF47A71F5
:1007700090FBF1F00A2190FBF1F201FB1200303006
:100780008B49087089480068642190FBF1F00A21C8
:1007900090FBF1F201FB120030308649087083486B
:1007A00000680A2190FBF1F090FBF1F201FB1200CE
:1007B0003030814908707D4800680A2190FBF1F2D1
:1007C00001FB120030307D490870794802783221EF
:1007D000642002F049FB7748027832216E2002F053
:1007E00043FB754802783221782002F03DFB7348C4
:1007F00002783221822002F037FB55A232218C2070
:1008000002F064FB53A24621142002F05FFB6C4807
:1008100000684FF47A7190FBF1F00A2190FBF1F23D
:1008200001FB120030306749087065480068642198
:1008300090FBF1F00A2190FBF1F201FB1200303045
:10084000614908705E4800680A2190FBF1F090FB56
:10085000F1F201FB120030305C4908705848006822
:100860000A2190FBF1F2B3E0454C4543203333308D
:10087000302050726F6A6563740000003320417845
:1008800069732043616D65726120536C69646572A0
:100890000000000054696D65204C61707365204D47
:1008A0006F646500566964656F204D6F6465000074
:1008B0004D616E75616C204D6F6465005365747495
:1008C000696E677300000000496E7465726163743D
:1008D000697665204D6F646500000000496E707593
:1008E0007420506172616D6574657273204D616E24
:1008F00075616C6C7900000052657475726E000051
:10090000506C6561736520736C6577207468652031
:1009100063616D65726120746F000000746865200A
:10092000454E4420706F736974696F6E000000005B
:10093000536C6964653A203C3C3C00002C0000206C
:10094000F0000020F1000020F2000020F300002061
:100950003E3E3E0050616E3A2020203C3C3C000070
:1009600030000020F4000020F5000020F6000020F8
:10097000F700002054696C743A20203C3C3C000095
:1009800034000020F8000020F9000020FA000020C8
:10099000FB00002053657400746865205354415275
:1009A0005420706F736974696F6E00003800002006
:1009B000FC000020FD000020FE000020FF000020C1
:1009C0003C00002000010020010100200201002065
:1009D00001FB12003030FE490870FE4802784621C3
:1009E000642002F041FAFC48027846216E2002F0B1
:1009F0003BFAFA4802784621782002F035FAF448AA
:100A000002784621822002F02FFAAFF2BC02462182
:100A10008C2002F05BFAAFF2A4025A21142002F0FB
:100A200055FAEF4800684FF47A7190FBF1F00A2113
:100A300090FBF1F201FB12003030EA490870E848FF
:100A40000068642190FBF1F00A2190FBF1F201FBB8
:100A500012003030E4490870E14800680A2190FB38
:100A6000F1F090FBF1F201FB12003030DF49087029
:100A7000DB4800680A2190FBF1F201FB12003030E4
:100A8000DB490870D74802785A21642002F0ECF95B
:100A9000D54802785A216E2002F0E6F9D348027850
:100AA0005A21782002F0E0F9D14802785A218220B8
:100AB00002F0DAF9AFF268125A218C2002F006FA3D
:100AC000AFF230126E21142002F000FAAFF2D81209
:100AD0008221142002F0FAF90DE5C6A20A21084687
:100AE00002F0F4F9C9A21E210A2002F0EFF9CAA20D
:100AF0003221142002F0EAF9CB4800684FF47A71F1
:100B000090FBF1F00A2190FBF1F201FB1200303072
:100B1000C6490870C4480068642190FBF1F00A21BE
:100B200090FBF1F201FB12003030C1490870BE4861
:100B300000680A2190FBF1F090FBF1F201FB12003A
:100B40003030BC490870B84800680A2190FBF1F2C7
:100B500001FB12003030B8490870B44802783221E5
:100B60007D2002F081F9B24802783221872002F01C
:100B70007BF9B04802783221912002F075F9AE4835
:100B8000027832219B2002F06FF9AFF23C22322131
:100B9000A52002F09BF9A9A24621142002F096F9A3
:100BA000AA4800684FF47A7190FBF1F00A2190FB9B
:100BB000F1F201FB12003030A5490870A34800682B
:100BC000642190FBF1F00A2190FBF1F201FB12008D
:100BD0003030A04908709D4800680A2190FBF1F070
:100BE00090FBF1F201FB120030309B4908709748EE
:100BF00000680A2190FBF1F201FB120030309749A6
:100C000008709348027846217D2002F02DF9914822
:100C100002784621872002F027F98F480278462182
:100C2000912002F021F98D48027846219B2002F0A4
:100C30001BF9AFF2E4224621A52002F047F988A271
:100C40005A21142002F042F9894800684FF47A7161
:100C500090FBF1F00A2190FBF1F201FB1200303021
:100C60008449087082480068642190FBF1F00A21F1
:100C700090FBF1F201FB120030307F4908707C4894
:100C800000680A2190FBF1F090FBF1F201FB1200E9
:100C900030307A490870764800680A2190FBF1F2FA
:100CA00001FB1200303076490870724802785A21F0
:100CB0007D2002F0D9F8704802785A21872002F08E
:100CC000D3F86E4802785A21912002F0CDF86C4892
:100CD00002785A219B2002F0C7F8AFF28C325A21D9
:100CE000A52002F0F3F8AFF254326E21142002F086
:100CF000EDF8AFF2FC328221142002F0E7F810E4A4
:100D000060A20A21084602F0E1F865A21E210A202D
:100D100002F0DCF8664800684FF47A7190FBF1F05D
:100D20000A2190FBF1F201FB12003030614908709A
:100D30005F480068642190FBF1F00A2190FBF1F21A
:100D400001FB120030305C490870594800680A21E4
:100D500090FBF1F090FBF1F201FB120030305749AB
:100D60000870534800680A2190FBF1F201FB120061
:100D70003030534908704F4802781E216E2002F02F
:100D800073F84D4802781E21782002F06DF84B4828
:100D900002781E21822002F067F8494802781E215D
:100DA0008C2002F061F847A2322100E014E20A2010
:100DB00002F08CF846A23221822002F087F844A289
:100DC0003221A02002F082F84248006884E000004E
:100DD0000301002000010020010100200201002089
:100DE0004000002004010020050100200601002031
:100DF00007010020506C6561736520656E74657233
:100E000020666F6C6C6F77696E670000706172614D
:100E10006D6574657273000046616D65733A2020DC
:100E200020203C3C3C000000440000200801002041
:100E3000090100200A0100200B010020496E7465A1
:100E40007276616C3A203C3C3C0000004800002077
:100E50000C0100200D0100200E0100200F010020D8
:100E6000536875747465723A20203C3C3C00000065
:100E70004C00002010010020110100201201002070
:100E80001301002054616B696E672054696D652001
:100E90004C617073652E2E2E202E2E2E0000000029
:100EA00046616D65732054616B656E3A20000000E9
:100EB000E40000201401002015010020160100208C
:100EC0001701002054696D65204C6566743A000076
:100ED0003A000000600000204FF4616190FBF1F0E7
:100EE000FE49086008460068C0EB0010FC4909682C
:100EF000A1EB80003C2190FBF1F0FA490860F74833
:100F00000068C0EB4011C1EB0020F5490968A1EB76
:100F10000010F4490968C1EB0111A0EB8100F2490E
:100F20000860EE4800680A2190FBF1F090FBF1F2B6
:100F300001FB12003030ED490870E84800680A21D2
:100F400090FBF1F201FB12003030E9490870E548EE
:100F500000680A2190FBF1F090FBF1F201FB120016
:100F60003030E4490870DF4800680A2190FBF1F254
:100F700001FB12003030E0490870DB4800680A21AC
:100F800090FBF1F090FBF1F201FB12003030DB49F5
:100F90000870D54800680A2190FBF1F201FB1200AD
:100FA0003030D7490870D148027832216E2001F0E4
:100FB0005BFFCF4802783221782001F055FFCD4801
:100FC000027832218C2001F04FFFCB480278322189
:100FD000962001F049FFC94802783221AA2001F089
:100FE00043FFC74802783221B42001F03DFFC5A27B
:100FF00046210A2001F06AFFC3A24621502001F0D9
:1010000065FFC2A24621962001F060FFC04800683B
:101010004FF47A7190FBF1F00A2190FBF1F201FBA1
:1010200012003030BB490870B9480068642190FB59
:10103000F1F00A2190FBF1F201FB12003030B649C9
:101040000870B34800680A2190FBF1F090FBF1F2C0
:1010500001FB12003030B1490870AD4800680A2128
:1010600090FBF1F201FB12003030AD490870A94845
:10107000027846211E2001F0F7FEA748027846219B
:10108000282001F0F1FEA54802784621322001F027
:10109000EBFEA348027846213C2001F0E5FEA14882
:1010A00000684FF47A7190FBF1F00A2190FBF1F2A5
:1010B00001FB120030309C4908709A480068642196
:1010C00090FBF1F00A2190FBF1F201FB12003030AD
:1010D00096490870934800680A2190FBF1F090FB54
:1010E000F1F201FB12003030914908708D48006820
:1010F0000A2190FBF1F201FB120030308D4908709B
:10110000894802784621642001F0AEFE87480278C3
:1011100046216E2001F0A8FE8548027846217820FD
:1011200001F0A2FE834802784621822001F09CFE55
:10113000814800684FF47A7190FBF1F00A2190FB2E
:10114000F1F201FB120030307C4908707A480068E7
:10115000642190FBF1F00A2190FBF1F201FB1200F7
:10116000303077490870744800680A2190FBF1F02C
:1011700090FBF1F201FB12003030724908706E48AA
:1011800000680A2190FBF1F201FB120030306E4939
:1011900008706A4802784621AA2001F065FE684876
:1011A00002784621B42001F05FFE664802784621AD
:1011B000BE2001F059FE644802784621C82001F0A3
:1011C00053FE62A25A21142001F080FE61A26E211A
:1011D000142001F07BFE7FE4AFF258320A2108466A
:1011E00001F074FEAFF248321E210A2001F06EFEBB
:1011F0005A4800684FF47A7190FBF1F00A2190FB95
:10120000F1F201FB12003030554908705348006874
:10121000642190FBF1F00A2190FBF1F201FB120036
:101220003030504908704D4800680A2190FBF1F0B9
:1012300090FBF1F201FB120030304B490870474837
:1012400000680A2190FBF1F201FB1200303047499F
:101250000870434802781E216E2001F005FE4148C7
:1012600002781E21782001F0FFFD3F4802781E2100
:10127000822001F0F9FD3D4802781E218C2001F00A
:10128000F3FDAFF2C03232210A2001F01FFEAFF2AF
:10129000C0323221822001F019FEAFF2CC3232216D
:1012A000A02001F013FE0E4800684FF4616190FB2E
:1012B000F1F00A49086008460068C0EB00100849D0
:1012C0000968A1EB80003C2190FBF1F00549086022
:1012D00002480068C0EB40114AE0000020010020F5
:1012E00060000020240100202801002018010020B7
:1012F000190100201A0100201B0100201C01002000
:101300001D010020583A0000593A00005A3A0000E6
:101310007C0000202C0100202D0100202E01002047
:101320002F0100208000002030010020310100202A
:10133000320100203301002084000020340100200D
:1013400035010020360100203701002050617573FF
:101350006500000053746F7000000000E40000207E
:1013600014010020150100201601002017010020A3
:10137000C1EB0020FE490968A1EB0010FD49096896
:10138000C1EB0111A0EB8100FB490860FB4800683C
:101390000A2190FBF1F090FBF1F201FB12003030DA
:1013A000F7490870F54800680A2190FBF1F201FB4B
:1013B00012003030F3490870EE4800680A2190FBB3
:1013C000F1F090FBF1F201FB12003030EE490870B1
:1013D000E84800680A2190FBF1F201FB120030306E
:1013E000EA490870E44800680A2190FBF1F090FB9C
:1013F000F1F201FB12003030E5490870DE48006868
:101400000A2190FBF1F201FB12003030E149087033
:10141000DB48027832216E2001F026FDD94802789F
:101420003221782001F020FDD748027832218C202B
:1014300001F01AFDD54802783221962001F014FD02
:10144000D34802783221AA2001F00EFDD14802785B
:101450003221B42001F008FDAFF2581246210A20D3
:1014600001F034FDAFF260124621502001F02EFD54
:10147000AFF268124621962001F028FDC6480068A8
:101480004FF47A7190FBF1F00A2190FBF1F201FB2D
:1014900012003030C1490870BF480068642190FBD9
:1014A000F1F00A2190FBF1F201FB12003030BC494F
:1014B0000870B94800680A2190FBF1F090FBF1F246
:1014C00001FB12003030B7490870B34800680A21A8
:1014D00090FBF1F201FB12003030B3490870AF48C5
:1014E000027846211E2001F0BFFCAD48027846215B
:1014F000282001F0B9FCAB4802784621322001F0E7
:10150000B3FCA948027846213C2001F0ADFCA74875
:1015100000684FF47A7190FBF1F00A2190FBF1F230
:1015200001FB12003030A2490870A0480068642115
:1015300090FBF1F00A2190FBF1F201FB1200303038
:101540009C490870994800680A2190FBF1F090FBD3
:10155000F1F201FB1200303097490870934800689F
:101560000A2190FBF1F201FB120030309349087020
:101570008F4802784621642001F076FC8D4802787D
:1015800046216E2001F070FC8B48027846217820BD
:1015900001F06AFC894802784621822001F064FC4F
:1015A000874800684FF47A7190FBF1F00A2190FBB4
:1015B000F1F201FB12003030824908708048006867
:1015C000642190FBF1F00A2190FBF1F201FB120083
:1015D00030307D4908707A4800680A2190FBF1F0AC
:1015E00090FBF1F201FB120030307849087074482A
:1015F00000680A2190FBF1F201FB120030307449BF
:101600000870704802784621AA2001F02DFC6E482F
:1016100002784621B42001F027FC6C48027846216C
:10162000BE2001F021FC6A4802784621C82001F062
:101630001BFC68A25A21142001F048FCAFF2EC22F6
:101640006E21142001F042FCC5E564A20A2108467F
:1016500001F03CFCAFF64C021E210A2001F036FCE2
:1016600065A23221142001F031FC674800684FF474
:101670007A7190FBF1F00A2190FBF1F201FB12006C
:1016800030306249087060480068642190FBF1F0D6
:101690000A2190FBF1F201FB120030305C49087026
:1016A000594800680A2190FBF1F090FBF1F201FB30
:1016B0001200303057490870534800680A2190FBE7
:1016C000F1F201FB12003030534908704F480278A4
:1016D0003221912001F0C8FB4D48027832219B2035
:1016E00001F0C2FB4B4802783221A52001F0BCFB7F
:1016F000494802783221AF2001F0B6FBAFF6B05274
:101700003221B92001F0E2FB44A24621142001F06D
:10171000DDFB464800684FF47A7190FBF1F00A2136
:1017200090FBF1F201FB12003030414908703F4854
:101730000068642190FBF1F00A2190FBF1F201FBBB
:10174000120030303B490870384800680A2190FB8D
:10175000F1F090FBF1F201FB1200303036490870D5
:10176000324800680A2190FBF1F201FB120065E0AB
:10177000600000202401002028010020200100201A
:1017800018010020190100201A0100201B0100206F
:101790001C0100201D0100207C0000202C010020E5
:1017A0002D0100202E0100202F01002080000020AC
:1017B00030010020310100203201002033010020DF
:1017C0008400002034010020350100203601002073
:1017D00037010020526573756D650000506C6561BE
:1017E000736520656E7465722074686520666F6C21
:1017F0006C6F77696E670000546F74616C2046618E
:101800006D65733A3C3C3C00440000200801002018
:10181000090100200A0100200B010020496E7465B7
:101820007276616C3A2020203C3C3C00480000204D
:101830000C0100200D0100200E0100203030FE4977
:101840000870FE4802784621912001F00DFBFC480B
:10185000027846219B2001F007FBFA4802784621D6
:10186000A52001F001FBF44802784621AF2001F0E9
:10187000FBFAAFF624724621B92001F027FBF2A251
:101880005A21142001F022FBF34800684FF47A71CA
:1018900090FBF1F00A2190FBF1F201FB12003030D5
:1018A000EE490870EC480068642190FBF1F00A21D1
:1018B00090FBF1F201FB12003030E9490870E64874
:1018C00000680A2190FBF1F090FBF1F201FB12009D
:1018D0003030E4490870E04800680A2190FBF1F2DA
:1018E00001FB12003030E0490870DC4802785A21D0
:1018F000912001F0B9FADA4802785A219B2001F0D0
:10190000B3FAD84802785A21A52001F0ADFAD6489A
:1019100002785A21AF2001F0A7FAAFF6CC725A2113
:10192000B92001F0D3FAD1A26E21142001F0CEFA31
:10193000D14A8221142001F0C9FA4CE4AFF26412BA
:101940000A21084601F0C2FACCA21E210A2001F0A9
:10195000BDFACDA23221142001F0B8FABDA2462171
:10196000142001F0B3FACD4800684FF47A7190FB6F
:10197000F1F00A2190FBF1F201FB12003030C8496E
:101980000870C6480068642190FBF1F00A2190FBC2
:10199000F1F201FB12003030C2490870BF48006804
:1019A0000A2190FBF1F090FBF1F201FB12003030C4
:1019B000BD490870B94800680A2190FBF1F201FBAB
:1019C00012003030B9490870B548027846212D2000
:1019D00001F04AFAB34802784621372001F044FA70
:1019E000B14802784621412001F03EFAAF48027822
:1019F00046214B2001F038FA9F4A583246215520A3
:101A000001F064FAAAA25A21142001F05FFA91A20F
:101A10006E21142001F05AFAAA4800684FF47A7136
:101A200090FBF1F00A2190FBF1F201FB1200303043
:101A3000A5490870A3480068642190FBF1F00A21D1
:101A400090FBF1F201FB12003030A04908709D4874
:101A500000680A2190FBF1F090FBF1F201FB12000B
:101A600030309B490870974800680A2190FBF1F2DA
:101A700001FB1200303097490870934802786E21BC
:101A80002D2001F0F1F9914802786E21372001F004
:101A9000EBF98F4802786E21412001F0E5F98D487D
:101AA00002786E214B2001F0DFF9734A58326E2123
:101AB000552001F00BFA88A28221142001F006FAC9
:101AC00064A29621142001F001FA884800684FF4BE
:101AD0007A7190FBF1F00A2190FBF1F201FB120008
:101AE00030308349087081480068642190FBF1F030
:101AF0000A2190FBF1F201FB120030307D490870A1
:101B00007A4800680A2190FBF1F090FBF1F201FBAA
:101B10001200303078490870744800680A2190FB40
:101B2000F1F201FB120030307449087070480278FD
:101B300096212D2001F098F96E48027896213720E1
:101B400001F092F96C4802789621412001F08CF95D
:101B50006A48027896214B2001F086F9464A5832AD
:101B60009621552001F0B2F940A2AA21142001F0DB
:101B7000ADF9414ABE21142001F0A8F964E5AFF2A5
:101B8000A4320A21084601F0A1F93CA21E210A2034
:101B900001F09CF95AA23221142001F097F92DA2EC
:101BA0004621142001F092F9594800684FF47A71E7
:101BB00090FBF1F00A2190FBF1F201FB12003030B2
:101BC0005449087052480068642190FBF1F00A21E2
:101BD00090FBF1F201FB120030304F4908704C4885
:101BE00000680A2190FBF1F090FBF1F201FB12007A
:101BF00030304A490870464800680A2190FBF1F2EB
:101C000001FB1200303046490870424802784621F4
:101C10002D2001F029F9404802784621372001F0B3
:101C200023F93E4802784621412001F01DF93C4845
:101C3000027846214B2075E00F0100200C010020A6
:101C40000D0100200E010020536875747465723A0E
:101C5000202020203C3C3C004C00002010010020B3
:101C6000110100201201002013010020436F6E7447
:101C7000696E756500000000F80800087061726107
:101C80006D65746572732000537461727420506FB7
:101C9000736974696F6E5F583A0000003800002065
:101CA000FC000020FD000020FE000020FF000020BE
:101CB000537461727420506F736974696F6E5F59E9
:101CC0003A0000003C00002000010020010100203B
:101CD0000201002003010020537461727420506FD0
:101CE000736974696F6E5F5A3A000000400000200B
:101CF000040100200501002006010020070100204A
:101D0000456E6420506F736974696F6E5F583A0056
:101D10002C000020F0000020F1000020F200002044
:101D2000F300002001F0A0F8FE4A4621552001F002
:101D3000CDF8FDA25A21142001F0C8F8AFF2EC0250
:101D40006E21142001F0C2F8FB4800684FF47A714C
:101D500090FBF1F00A2190FBF1F201FB1200303010
:101D6000F6490870F4480068642190FBF1F00A21FC
:101D700090FBF1F201FB12003030F1490870EE489F
:101D800000680A2190FBF1F090FBF1F201FB1200D8
:101D90003030EC490870E84800680A2190FBF1F205
:101DA00001FB12003030E8490870E44802786E21E7
:101DB0002D2001F059F8E24802786E21372001F019
:101DC00053F8E04802786E21412001F04DF8DE48DA
:101DD00002786E214B2001F047F8D24A6E2155203F
:101DE00001F074F8D9A28221142001F06FF8AFF24B
:101DF0009C129621142001F069F8D84800684FF42D
:101E00007A7190FBF1F00A2190FBF1F201FB1200D4
:101E10003030D3490870D1480068642190FBF1F05C
:101E20000A2190FBF1F201FB12003030CD4908701D
:101E3000CA4800680A2190FBF1F090FBF1F201FB27
:101E400012003030C8490870C44800680A2190FB6D
:101E5000F1F201FB12003030C4490870C04802782A
:101E600096212D2001F000F8BE48027896213720F7
:101E700000F0FAFFBC4802789621412000F0F4FF00
:101E8000BA48027896214B2000F0EEFFA54A962131
:101E9000552001F01BF8AFF22C22AA21142001F0EA
:101EA00015F8A04A583ABE21142001F00FF844E575
:101EB0009C4AAC3A0A21084601F008F8994A883A47
:101EC0001E21142001F002F8964A743A322114209F
:101ED00000F0FCFF934A583A4621142000F0F6FF28
:101EE0002BE5AFF208720A21084600F0EFFFA04A86
:101EF0001E210A2000F0EAFF9EA23221142000F0E9
:101F0000E5FF9F4800680A2190FBF1F201FB1200F7
:101F100030309C4908700846027832217D2000F05C
:101F2000A3FFAFF2B8224621142000F0CFFF7D4A74
:101F3000583A5A21142000F0C9FFFEE492A20A2167
:101F4000084600F0C3FF8A4AB8321E210A2000F07A
:101F5000BDFFAFF2BC221E21822000F0B7FFAFF21E
:101F6000C8221E21A02000F0B1FF8C4800684FF469
:101F7000616190FBF1F08A49086008460068C0EB97
:101F8000001086490968A1EB80003C2190FBF1F02C
:101F90008449086082480068C0EB4011C1EB002012
:101FA0007E490968A1EB00107E490968C1EB011167
:101FB000A0EB81007C490860794800680A2190FB09
:101FC000F1F090FBF1F201FB12003030774908701C
:101FD000734800680A2190FBF1F201FB12003030D7
:101FE000734908706F4800680A2190FBF1F090FB7C
:101FF000F1F201FB120030306E4908706948006848
:102000000A2190FBF1F201FB120030306A4908709E
:10201000654800680A2190FBF1F090FBF1F201FBAA
:1020200012003030654908705F4800680A2190FB53
:10203000F1F201FB12003030614908705B48027810
:102040001E216E2000F010FF594802781E217820D2
:1020500000F00AFF574802781E218C2000F004FF90
:10206000554802781E21962000F0FEFE5348027863
:102070001E21AA2000F0F8FE514802781E21B4204B
:1020800000F0F2FEAFF6845232210A2000F01EFF6B
:10209000AFF68C523221502000F018FFAFF6945268
:1020A0003221962000F012FF464800684FF47A7102
:1020B00090FBF1F00A2190FBF1F201FB12003030AD
:1020C000414908703F480068642190FBF1F00A2103
:1020D00090FBF1F201FB120030303C4908703948A6
:1020E00000680A2190FBF1F090FBF1F201FB120075
:1020F000303037490870334800680A2190FBF1F20C
:1021000001FB12003030334908702F480278322129
:102110001E2000F0A9FE2D4802783221282000F070
:10212000A3FE59E050090008456E6420506F7369A2
:1021300074696F6E5F593A0030000020F40000208F
:10214000F5000020F6000020F7000020456E642016
:10215000506F736974696F6E5F5A3A0034000020E3
:10216000F8000020F9000020FA000020FB00002009
:102170000C0E0008537065656428312D35293A002E
:10218000900000203801002054616B696E67205672
:102190006964656F2E2E2E202E2E2E0060000020EA
:1021A0002001002024010020280100201801002027
:1021B000190100201A0100201B0100201C01002031
:1021C0001D0100207C0000202C0100202D0100209A
:1021D0002E0100202F010020FE48027832210846FF
:1021E00000F042FEFC48027832213C2000F03CFE28
:1021F000FA4800684FF47A7190FBF1F00A2190FBE5
:10220000F1F201FB12003030F5490870F348006824
:10221000642190FBF1F00A2190FBF1F201FB120026
:102220003030F0490870ED4800680A2190FBF1F069
:1022300090FBF1F201FB12003030EB490870E748E7
:1022400000680A2190FBF1F201FB12003030E749EF
:102250000870E34802783221642000F005FEE1486E
:10226000027832216E2000F0FFFDDF480278322133
:10227000782000F0F9FDDD4802783221822000F05C
:10228000F3FDDB4800684FF47A7190FBF1F00A210E
:1022900090FBF1F201FB12003030D6490870D448AF
:1022A0000068642190FBF1F00A2190FBF1F201FB40
:1022B00012003030D0490870CD4800680A2190FBE8
:1022C000F1F090FBF1F201FB12003030CB490870C5
:1022D000C74800680A2190FBF1F201FB1200303080
:1022E000C7490870C34802783221AA2000F0BCFD1B
:1022F000C14802783221B42000F0B6FDBF48027810
:102300003221BE2000F0B0FDBD4802783221C82045
:1023100000F0AAFDAFF6CC724621142000F0D6FDE5
:10232000AFF6D0725A21142000F0D0FDF1E2AFF2E6
:10233000A8120A21084600F0C9FDB24A1E210A204F
:1023400000F0C4FDAFF2B0621E21822000F0BEFD9D
:10235000AFF2BC621E21A02000F0B8FDAA480068C0
:102360004FF4616190FBF1F0A849086008460068ED
:10237000C0EB0010A4490968A1EB80003C2190FB50
:10238000F1F0A3490860A1480068C0EB4011C1EB1F
:1023900000209D490968A1EB00109D490968C1EB27
:1023A0000111A0EB81009B490860984800680A2150
:1023B00090FBF1F090FBF1F201FB120030309649F6
:1023C0000870924800680A2190FBF1F201FB1200AC
:1023D0003030924908708E4800680A2190FBF1F075
:1023E00090FBF1F201FB120030308D4908708848F3
:1023F00000680A2190FBF1F201FB1200303089499C
:102400000870844800680A2190FBF1F090FBF1F21B
:1024100001FB12003030844908707E4800680A21B0
:1024200090FBF1F201FB12003030804908707A48CD
:1024300002781E216E2000F017FD784802781E21D8
:10244000782000F011FD764802781E218C2000F0E3
:102450000BFD744802781E21962000F005FD72489D
:1024600002781E21AA2000F0FFFC704802781E218D
:10247000B42000F0F9FC6EA232210A2000F026FD03
:102480006CA23221502000F021FD6BA23221962057
:1024900000F01CFD694800684FF47A7190FBF1F080
:1024A0000A2190FBF1F201FB120030306449087000
:1024B00062480068642190FBF1F00A2190FBF1F280
:1024C00001FB120030305F4908705C4800680A2147
:1024D00090FBF1F090FBF1F201FB120030303D492E
:1024E0000870564800680A2190FBF1F201FB1200C7
:1024F0003030394908705248027832211E2000F0ED
:10250000B3FC504802783221282000F0ADFC31485D
:1025100002783221084600F0A7FC2F4802783221C9
:102520003C2000F0A1FC2D4800684FF47A7190FB2C
:10253000F1F00A2190FBF1F201FB12003030284942
:10254000087026480068642190FBF1F00A2190FB96
:10255000F1F201FB12003030224908701F48006878
:102560000A2190FBF1F090FBF1F201FB12003030F8
:102570001D490870194800680A2190FBF1F201FB1F
:102580001200303019490870154802783221642051
:1025900000F06AFC1348027832216E2000F064FCDF
:1025A000114802783221782000F05EFC0F48027852
:1025B0003221822000F058FC0D4800684FF47A71F7
:1025C00090FBF1F00A2190FBF1F201FB1200303098
:1025D000084939E02E0100202F0100208000002052
:1025E00030010020310100203201002033010020A1
:1025F0008400002034010020350100203601002035
:1026000037010020C40E00086000002020010020D7
:1026100024010020280100201801002019010020B9
:102620001A0100201B0100201C0100201D010020B8
:10263000583A0000593A00005A3A00007C00002045
:102640002C0100202D0100200870B348006864218F
:1026500090FBF1F00A2190FBF1F201FB1200303007
:10266000AE490870AC4800680A2190FBF1F090FB7D
:10267000F1F201FB12003030A9490870A648006849
:102680000A2190FBF1F201FB12003030A5490870DD
:10269000A54802783221AA2000F0E6FB9F48027884
:1026A0003221B42000F0E0FB9D4802783221BE20A8
:1026B00000F0DAFB9B4802783221C82000F0D4FBFE
:1026C000AFF6F0624621142000F000FC974A5A2130
:1026D000142000F0FBFB1CE1954A0A21084600F09B
:1026E000F5FB934A80321E21142000F0EFFB914845
:1026F00000684FF47A7190FBF1F00A2190FBF1F23F
:1027000001FB120030308C4908708A48006864214F
:1027100090FBF1F00A2190FBF1F201FB1200303046
:1027200086490870834800680A2190FBF1F090FB0D
:10273000F1F201FB12003030814908707D480068D9
:102740000A2190FBF1F201FB120030307D49087044
:10275000794802781E21642000F086FB77480278D1
:102760001E216E2000F080FB754802781E21782023
:1027700000F07AFB734802781E21822000F074FB7F
:102780006B4AA0321E218C2000F0A0FB684AA432C4
:102790003221142000F09AFB6B4800684FF47A71E4
:1027A00090FBF1F00A2190FBF1F201FB12003030B6
:1027B0006649087064480068642190FBF1F00A21C2
:1027C00090FBF1F201FB12003030614908705E4865
:1027D00000680A2190FBF1F090FBF1F201FB12007E
:1027E00030305C490870584800680A2190FBF1F2CB
:1027F00001FB1200303058490870544802783221E9
:10280000642000F031FB5248027832216E2000F043
:102810002BFB504802783221782000F025FB4E48EF
:1028200002783221822000F01FFB414AA03232217F
:102830008C2000F04BFB3E4AC4324621142000F0AD
:1028400045FB354800684FF47A7190FBF1F00A219E
:1028500090FBF1F201FB12003030334908702E4832
:102860000068642190FBF1F00A2190FBF1F201FB7A
:102870001200303029490870274800680A2190FB6F
:10288000F1F090FBF1F201FB1200303024490870A6
:10289000214800680A2190FBF1F201FB1200303060
:1028A00020490870204802784621642000F0DCFAB4
:1028B0001A48027846216E2000F0D6FA18480278AD
:1028C0004621782000F0D0FA16480278462182206E
:1028D00000F0CAFA164AA03246218C2000F0F6FA1F
:1028E000134A48325A21142000F0F0FA11E0104A3D
:1028F0000C320A21084600F0E9FA18A21E21142021
:1029000000F0E4FA0A4A48323221142000F0DEFADC
:1029100000BF00BF10BD0000840000203501002072
:102920003601002037010020340100205413000834
:10293000B00800087C0000202C0100202D010020A0
:102940002E0100202F0100208000002030010020F7
:1029500031010020320100203301002052652D6931
:102960006E697469616C697A6500000051B182001A
:10297000A2F1C042126842F001038200A2F1C042FB
:10298000136009E08200A2F1C0421268034B1A40B2
:102990008300A3F1C0431A6070470000FEFF0F00E0
:1029A000D0E901121143C26811430269114342691F
:1029B000114382691143C2691143026A1143426A99
:1029C0001143826A1143C26A1143026B11430268C8
:1029D0009200A2F1C0421160816808290BD1016800
:1029E0008900A1F1C041096841F0400201688900F5
:1029F000A1F1C0410A60416B0968426B526841EA2B
:102A00000211426B926841EA0221426B928941EACB
:102A10000241426B128A41EA0251426B127D41EA45
:102A20000261426B926911430268521C9200A2F14A
:102A3000C0421160C16AB1F5804F1BD1816B09683A
:102A4000826B526841EA0211826B926841EA02216C
:102A5000826B128A41EA0251826B127D41EA026165
:102A6000826B9269114302689200A2F1C042C2F8DF
:102A7000041107E06FF0704201688900A1F1C041C4
:102A8000C1F804217047000008B50121042000F0BE
:102A900031FD0420ADF8000010208DF80300032064
:102AA0008DF802006946254800F04EF80121082003
:102AB00000F020FD4FF47040ADF8000010208DF8BC
:102AC000030003208DF8020069461D4800F03CF821
:102AD0000121102000F00EFDC020ADF800001020F4
:102AE0008DF8030003208DF802006946154800F0B8
:102AF0002BF84FF47040124914310860C02011497E
:102B000048610121082000F0F5FC0120ADF800002B
:102B100004208DF803006946094800F015F80121EA
:102B2000102000F0E7FCF020ADF8000004208DF844
:102B300003006946024800F007F808BD000801409C
:102B4000000C0140001001402DE9F0410246002533
:102B50000026002000230024002791F803C00CF079
:102B60000F0591F803C00CF0100CBCF1000F03D05E
:102B700091F802C04CEA050591F800C0BCF1000FC5
:102B800031D0146800202BE04FF0010C0CFA00F358
:102B9000B1F800C00CEA03069E4220D183004FF03A
:102BA0000F0C0CFA03F7BC4305FA03FC4CEA0404CF
:102BB00091F803C0BCF1280F06D14FF0010C0CFABC
:102BC00000FCC2F814C00AE091F803C0BCF1480F41
:102BD00005D14FF0010C0CFA00FCC2F810C0401CEB
:102BE0000828D1D31460B1F800C0BCF1FF0F34DD68
:102BF000546800202EE000F1080C4FF0010808FA9C
:102C00000CF3B1F800C00CEA03069E4221D1830008
:102C10004FF00F0C0CFA03F7BC4305FA03FC4CEA27
:102C2000040491F803C0BCF1280F05D100F1080C91
:102C300008FA0CF8C2F8148091F803C0BCF1480FF0
:102C400007D100F1080C4FF0010808FA0CF8C2F89F
:102C50001080401C0828CED35460BDE8F0810246A5
:102C6000002093680B400BB1012000E0002070476A
:102C7000416170470161704700BFFEE710B504462F
:102C80002CB14FF480510548FFF7F2FF04E04FF4F8
:102C900080510248FFF7EEFF10BD00000014014014
:102CA0002DE9F04106460F4614461D46DDF8188012
:102CB0002B4622463946304600F0F5F904FB05F074
:102CC000414600F056F9BDE8F08108B54FF6FF70B7
:102CD0004FF4A073F022002100900846FFF7E0FFB8
:102CE00008BD38B504464FF6FF70009004EB840031
:102CF0000A2202EB8000C0F5A07083B204EB8400CE
:102D000002EB800081B20F220520FFF7C9FF38BD1A
:102D100010B504460D2C49D2DFE804F0070C11165B
:102D20001B20252A2F34393E43000F21052000F0B7
:102D30003FF83BE02321052000F03AF836E0372148
:102D4000052000F035F831E04B21052000F030F887
:102D50002CE05F21052000F02BF827E073210520EF
:102D600000F026F822E08721052000F021F81DE080
:102D70009B21052000F01CF818E0AF21052000F091
:102D800017F813E0C321052000F012F80EE0D72158
:102D9000052000F00DF809E0EB21052000F008F80F
:102DA00004E0FF21052000F003F800BF00BF10BDC4
:102DB00070B504460D46A9B2A0B205230A2200F060
:102DC00072F90021642000F0D4F86A1C91B204F179
:102DD0000A0290B20323012200F065F900211220BB
:102DE00000F0C7F8AA1C91B204F10B0290B20123C3
:102DF0001A4600F058F90021012000F0BAF86A1EC6
:102E000091B204F1080290B20123022200F04BF9C2
:102E10000021122000F0ADF8AA1E91B204F10802C0
:102E200090B201231A4600F03EF90021012000F083
:102E3000A0F86A1D91B204F1080290B201230222A7
:102E400000F031F90021122000F093F8AA1D91B290
:102E500004F1080290B201231A4600F024F900217F
:102E6000012000F086F870BD2DE9F04780468946C4
:102E70001546A5F1200000F0FF0A1023082249465C
:102E8000404600F010F92C2000F06AFA002417E008
:102E90000D4800EB0A10065D00270DE006F001006A
:102EA00018B11F2000F060FA03E04FF6FF7000F049
:102EB0005BFA7610781CC7B2082FEFDB601CC4B237
:102EC000102CE5DBBDE8F087C269000870B5054647
:102ED0000E46144617E028460830F02803DD00258A
:102EE00006F1100086B230461030B0F5A07F01DD4B
:102EF00000250026227831462846FFF7B5FF641CDE
:102F000005F1080085B220780028E4D170BD00B535
:102F100097B00121080200F0CDFA022001900020B4
:102F200002900520039000200490059006904FF039
:102F30008050079000200890099008200A901020E7
:102F40000B9000200C900E900F9010904FF480503A
:102F50001190002012901390149001A815901690D3
:102F600008A8FFF71DFD01210020FFF7FFFC17B0A7
:102F700000BD70B504460D4600262C2000F0F0F987
:102F800000BF03E0284600F0EFF9761CA642F9D313
:102F900070BD000008B50121084600F0ABFA012120
:102FA000602000F0A7FA03208DF8020018208DF8A9
:102FB00003004CF20370ADF8000069462C48FFF79F
:102FC000C3FD4FF68070ADF8000069462948FFF751
:102FD000BBFD03208DF8020018208DF8030010209F
:102FE000ADF8000069462248FFF7AEFD2020ADF89D
:102FF000000069461E48FFF7A7FD0121202000F0D0
:1030000079FA8020ADF8000069461948FFF79CFD69
:103010000121202000F06EFA4FF40060ADF80000AE
:1030200069461348FFF790FD10208DF80300032038
:103030008DF802000121402000F05CFA0220ADF87A
:10304000000069460B48FFF77FFD10208DF8030054
:1030500003208DF802000121202000F04BFA4FF4EC
:103060008050ADF8000069460148FFF76DFD08BDCE
:10307000001401400018014008B5FFF78BFFFFF76F
:1030800046FF0120FFF7FAFD00F056F900F03CF88A
:103090004FF6FF704FF4A073F02200210090084615
:1030A000FFF7FEFD08BD2DE9F04104460D4616462A
:1030B0001F462A2000F054F9201200F055F9E0B222
:1030C00000F052F9A119491EC1F30F2000F04CF98C
:1030D000A119491EC8B200F047F92B2000F040F9B1
:1030E000281200F041F9E8B200F03EF9E919491E52
:1030F000C1F30F2000F038F9E919491EC8B200F0F9
:1031000033F9BDE8F081000010B5CF2000F028F9B8
:10311000002000F029F9812000F026F9302000F08D
:1031200023F9ED2000F01CF9642000F01DF90320C4
:1031300000F01AF9122000F017F9812000F014F9BC
:10314000E82000F00DF9852000F00EF9102000F0C5
:103150000BF9782000F008F9CB2000F001F93920B4
:1031600000F002F92C2000F0FFF8002000F0FCF83D
:10317000342000F0F9F8022000F0F6F8F72000F013
:10318000EFF8202000F0F0F8EA2000F0E9F8002045
:1031900000F0EAF8002000F0E7F8B12000F0E0F8D5
:1031A000002000F0E1F81B2000F0DEF8B62000F06F
:1031B000D7F80A2000F0D8F8A22000F0D5F8C020F7
:1031C00000F0CEF8352000F0CFF8C12000F0C8F8AC
:1031D000112000F0C9F8C52000F0C2F8452000F029
:1031E000C3F8452000F0C0F8C72000F0B9F8A220CD
:1031F00000F0BAF8F22000F0B3F8002000F0B4F8C4
:10320000262000F0ADF8012000F0AEF8E02000F03C
:10321000A7F80F2000F0A8F8262000F0A5F8242039
:1032200000F0A2F80B2000F09FF80E2000F09CF8B0
:10323000092000F099F8542000F096F8A82000F03A
:1032400093F8462000F090F80C2000F08DF817203D
:1032500000F08AF8092000F087F80F2000F084F8C9
:10326000072000F081F8002000F07EF8E12000F057
:1032700077F8002000F078F8192000F075F81B208E
:1032800000F072F8042000F06FF8102000F06CF8E5
:10329000072000F069F82A2000F066F8472000F0C7
:1032A00063F8392000F060F8032000F05DF8062094
:1032B00000F05AF8062000F057F8302000F054F8DB
:1032C000382000F051F80F2000F04EF8362000F0C2
:1032D00047F8C82000F048F82A2000F041F8002004
:1032E00000F042F8002000F03FF8002000F03CF829
:1032F000EF2000F039F82B2000F032F8002000F029
:1033000033F8002000F030F8012000F02DF83F20C5
:1033100000F02AF83A2000F023F8552000F024F8B5
:10332000112000F01DF80348FDF76FF8292000F088
:1033300017F810BDFCBF020010B502210648FFF7C8
:1033400097FC0648FDF761F802210348FFF792FC5D
:103350000248FDF75AF810BD00180140FCBF0200FA
:103360004FF0C04108807047014908807047000055
:103370000000026008B501214FF0C05000F0AAF82B
:10338000012000F08FF84FF4407000F0C9F80120E0
:1033900000F0C0F800F040F900F048F900F0D6F86D
:1033A0003E2000F029F900F037F9002000F016F96E
:1033B00000F032F94FF6FF701B49088000F02CF93D
:1033C0004FF6FF701849091D088000F025F901210A
:1033D000022000F0F3F814481C38008800F00200C6
:1033E00011491C39088000F017F900F0B9F82920BC
:1033F0008DF8000000208DF801008DF802000120FA
:103400008DF80300684600F015F803208DF80000E1
:1034100000208DF801008DF8020001208DF80300D6
:10342000684600F007F808BD2028004000BFFEE70E
:103430007047000070B5002100230F22C47804B348
:10344000154C246804F4E064C4F5E064210AC1F179
:103450000403CA40447804FA03F1847814402143F9
:1034600009010E4C0678A155047804F01F050124CB
:10347000AC4005786D11AD0005F1E025C5F80041BF
:1034800009E0047804F01F050124AC40044D0678DF
:10349000761145F8264070BD0CED00E000E400E038
:1034A00080E100E0014908627047000000000E4220
:1034B0007047000029B1064A52690243044B5A6121
:1034C00004E0034A52698243014B5A61704700008D
:1034D0000010024029B1064AD2690243044BDA6166
:1034E00004E0034AD2698243014BDA61704700006D
:1034F0000010024029B1064A92690243044B9A61C6
:1035000004E0034A92698243014B9A6170470000CC
:103510000010024001490860704700003C0442422C
:103520000249096A0143014A1162704700100240D2
:1035300010B5022000F002F810BD00000249098811
:103540008143014A118070470428004003480088E5
:1035500040F0100001490880704700000428004036
:10356000034800884FF6EF71084001490880704712
:103570000428004001460020064A12880A40D0B2C2
:10358000044A121F12880A4012B108B1012000E05B
:10359000002070470428004010B50220FFF7EAFF22
:1035A000012808D10220FFF7C9FF0348006810B1C5
:1035B00001480068804710BD0000002029B1064A7C
:1035C00012880243044B1A8004E0034A12888243A3
:1035D000014B1A80704700000028004000B50246E9
:1035E000FFF7B4FF100C03490880091D0A80FFF79C
:1035F000B7FF00BD1828004000B50246FFF7A6FF40
:10360000C2F3034003490880091D0A80FFF7A8FFA1
:1036100000BD00000828004000BF0348008800F0FB
:1036200020000028F9D0704704280040074800888F
:103630004FF6F77108400549088000BF034800882D
:1036400000F008000028F9D070470000042800406E
:10365000704710B500F002F810BD00000CB5002056
:10366000019000903348006840F480303149086090
:1036700000BF3048006800F4003000900198401C02
:103680000190009818B90198B0F5A06FF1D12948C0
:10369000006800F4003010B10120009001E000202B
:1036A00000900098012843D12348006840F01000A2
:1036B000214908600846006820F0030008600846B9
:1036C000006840F0020008601A48406819494860E4
:1036D0000846406848600846406840F4806048609A
:1036E0000846406820F47C1048600846406840F472
:1036F000E81048600846006840F08070086000BF2D
:103700000C48006800F000700028F9D009484068B3
:1037100020F00300074948600846406840F0020076
:10372000486000BF0348406800F00C000828F9D149
:103730000CBD0000001002400020024010B50446FD
:1037400024B1012C11D0022C2DD11DE001210846FD
:1037500000F0DAF81420FCF76BFE0021012000F0E5
:10376000D3F81420FCF764FE1DE00121032000F0D3
:10377000CBF81420FCF75CFE0021032000F0C4F815
:103780001420FCF755FE0EE00121052000F0BCF8E6
:103790001420FCF74DFE0021052000F0B5F81420A0
:1037A000FCF746FE00BF00BF10BD014606290FD240
:1037B000DFE801F00E0306080A0C4FF4C87007E0BA
:1037C000C82005E0642003E0322001E0192000BF9A
:1037D00000BF70477047000010B51348006840F004
:1037E00001001149086008464068104908400E4928
:1037F0004860084600680E4908400B4908600846C2
:10380000006820F4802008600846406820F4FE002C
:1038100048604FF41F008860FFF71BFF4FF0006007
:103820000449086010BD0000001002400000FFF8CD
:10383000FFFFF6FE08ED00E000BFFEE702E008C86B
:10384000121F08C1002AFAD170477047002001E01A
:1038500001C1121F002AFBD17047000030B5044699
:1038600000250EE00848FCF7E3FD0121002000F0F0
:103870004BF80548FCF7DCFD0021084600F044F851
:103880006D1CA542EEDB30BDA086010070B505467B
:10389000052D31D2DFE805F0030C151E27000121AC
:1038A0001748FFF7DCF908B1002400E0012423E009
:1038B00010211448FFF7D3F908B1002400E00124D7
:1038C0001AE020210F48FFF7CAF908B1002400E0F0
:1038D000012411E040210B48FFF7C1F908B1002491
:1038E00000E0012408E080210648FFF7B8F908B19C
:1038F000002400E0012400BF00BF204670BD00008E
:10390000000C014000080140072851D2DFE800F018
:10391000040E17232F3B440019B90422254B1A60CB
:1039200003E00422234B1B1F1A6041E019B9402217
:10393000214B5A6102E040221F4B1A6138E021B945
:103940004FF480421D4B1A6004E04FF480421B4B41
:103950001B1F1A602CE021B94FF40042174B1A606C
:1039600004E04FF40042154B1B1F1A6020E021B900
:103970004FF48052114B1A6004E04FF480520F4B09
:103980001B1F1A6014E019B980220B4B5A6102E028
:103990008022094B1A610BE021B94FF40052074B0A
:1039A0001A6004E04FF40052044B1B1F1A6000BF62
:1039B00000BF70471408014000100140140C014082
:1039C0001FB5FFF759FBFFF75FF8FFF7D3FC0220A5
:1039D000FFF744FFFCA20A210846FFF777FAFFF73A
:1039E00074F902F09DFFFE4908600020FD4908605F
:1039F0000220FD49086002F07DBFFA4800680028F7
:103A00007ED1FA490860F7480068FCF71FFDF648C8
:103A10000068FFF77DF90120FFF738FF012811D179
:103A20000220FFF75EF9F0480068052805DAEE4845
:103A30000068401CEC49086002E00220EA49086086
:103A4000FCF7ECFC0020FFF721FF012811D1022038
:103A5000FFF747F9E4480068022805DDE2480068FE
:103A6000401EE149086002E00520DF490860FCF7DC
:103A7000D5FCDD480068022814D10420FFF706FFBA
:103A800001280FD1D948006860B90120D5490860E4
:103A9000D5490860D6490860D4490860FCF7BEFCE7
:103AA000FFF713F9D0480068032815D10420FFF769
:103AB000EDFE012810D1CD48006868B90220C9493F
:103AC00008600120C8490860CA490860C749086001
:103AD000FCF7A4FCFFF7F9F8C3480068042814D1E8
:103AE000FFF7D4FE012810D1C048006868B9032050
:103AF000BC4908600120BC490860BC49086000E07E
:103B00001BE0FCF78BFCFFF7E0F8B74800680528DE
:103B100013D10420FFF7BAFE01280ED1B348006884
:103B200058B90420AF4908600120AF490860AF4987
:103B30000860FCF773FCFFF7C8F8AA480068012882
:103B40007ED10020A9490860A6480068FCF77EFCE9
:103B5000A5480068FFF7DCF80120FFF797FE012871
:103B600010D1FFF7BEF8A0480068032805DA9E4888
:103B70000068401C9C49086002E001209A490860E6
:103B8000FCF74CFC0020FFF781FE012810D1FFF765
:103B9000A8F895480068012805DD93480068401E94
:103BA0009149086002E003208F490860FCF736FC69
:103BB0008D480068012820D10420FFF767FE012806
:103BC0001BD18A480068C0B96F208649086002206E
:103BD0008549086001208549086087480068874951
:103BE00008608748006887490860874800688749F7
:103BF0000860FCF713FCFFF768F87B4800680228B0
:103C000014D10420FFF742FE01280FD17748006845
:103C100060B9792073490860022073490860012067
:103C200072490860FCF7FAFBFFF74FF86E4800682E
:103C3000032819D10420FFF729FE012814D100E040
:103C400012E06A48006878B90020664908600220DE
:103C500065490860002066490860012063490860E2
:103C6000FCF7DCFBFFF731F85E4800686F287DD178
:103C700000205E4908605B480068FCF7E7FB5A4893
:103C80000068FFF745F80120FFF700FE012811D179
:103C90000220FFF726F854480068062805DA524843
:103CA0000068401C5049086002E002204E4908604C
:103CB000FCF7B4FB0020FFF7E9FD012811D1022039
:103CC000FFF70FF848480068022805DD46480068FD
:103CD000401E4549086002E0062043490860FCF7A1
:103CE0009DFB0020FFF7D2FD90B90120FFF7CEFD2C
:103CF00070B90220FFF7CAFD50B90320FFF7C6FDD7
:103D000030B90420FFF7C2FD10B9414841490860AD
:103D100035480068022830D1FFF7B8FD01282CD1C2
:103D200036480068002828DD34480068401E3349C2
:103D3000086008460068304908600023A022194640
:103D4000184602F0F7FD33480068FCF771FB314874
:103D500000680A2811DD2F480068FCF777FA2E4A20
:103D60002E4BCDE90001FCF7FFF900E077E1CDE94A
:103D70000201FCF77CFA274908601B48006802280A
:103D80005ED10320FFF782FD012859D11B4800684E
:103D900042F20F71884253DA18480068401C1749F4
:103DA000086008460068144908600023A0221946EC
:103DB000012002F0BFFD17480068FCF739FB1548E9
:103DC00000680A283CDD2BE0496E697469616C6902
:103DD0007A65696E67202E2E2E202E2E2E00000072
:103DE000D00000201C00002020000020E000002067
:103DF00024000020280000207C0000202C0000204F
:103E000080000020300000208400002034000020CA
:103E100020A10700E80000209A9999999999E93F13
:103E2000FE480068FCF712FAFD4AFE4BCDE900019E
:103E3000FCF79AF9CDE90201FCF719FAF749086095
:103E4000F948006803282FD10220FFF71FFD012841
:103E50002AD1F6480068002826DDF4480068401E94
:103E6000F249086008460068F14908600123A02271
:103E70000021084602F05EFDE8480068FCF7D8FA29
:103E8000E64800680A280FDDE4480068FCF7DEF920
:103E9000E34AE44BCDE90001FCF766F9CDE9020104
:103EA000FCF7E5F9DD490860DF480068032830D1F8
:103EB000FFF7ECFC01282CD1DC48006842F20F71BE
:103EC000884226DAD9480068401CD849086008466C
:103ED0000068D74908600123A0220021184602F09B
:103EE00029FDCE480068FCF7A3FACC4800680A28F0
:103EF0000FDDCA480068FCF7A9F9C94AC94BCDE9EA
:103F00000001FCF731F9CDE90201FCF7B0F9C34932
:103F10000860C548006804282FD10220FFF7B6FCCE
:103F200001282AD1C3480068002826DDC14800685E
:103F3000401EC049086008460068BF490860022367
:103F4000A0220021084602F0F5FCB4480068FCF706
:103F50006FFAB24800680A280FDDB0480068FCF725
:103F600075F9AF4AAF4BCDE90001FCF7FDF8CDE99B
:103F70000201FCF77CF9A9490860AB4800680428F5
:103F800031D10320FFF782FC01282CD1A948006819
:103F900042F20F71884226DAA6480068401CA54903
:103FA000086008460068A44908600223A022002196
:103FB000012002F0BFFC99480068FCF739FA9748E5
:103FC00000680A280FDD95480068FCF73FF9944A1D
:103FD000944BCDE90001FCF7C7F8CDE90201FCF7ED
:103FE00046F98E49086090480068052820D10420D1
:103FF000FFF74CFC01281BD190480068C0B9702025
:104000008F4908600220884908608E4800688E4900
:104010000860874800688D490860874800688C49B7
:104020000860012085490860FCF7F8F9FEF74DFEAD
:104030007D480068062812D10420FFF727FC0128DC
:104040000DD17E48006850B901207D49086076494D
:1040500008607A490860FCF7E1F9FEF736FE784817
:10406000006870287DD10020744908607448006899
:10407000FCF7ECF96C480068FEF74AFE0120FFF7F8
:1040800005FC012811D10220FEF72BFE66480068CE
:10409000062805DA64480068401C6349086002E0AD
:1040A000022061490860FCF7B9F90020FFF7EEFB38
:1040B000012811D10220FEF714FE5B480068022897
:1040C00005DD59480068401E5749086002E0062097
:1040D00055490860FCF7A2F90020FFF7D7FB90B91B
:1040E0000120FFF7D3FB70B90220FFF7CFFB50B9D7
:1040F0000320FFF7CBFB30B90420FFF7C7FB10B953
:1041000054484649086048480068022830D1FFF703
:10411000BDFB01282CD14C480068002828DD4A4806
:104120000068401E48490860084600684549086024
:104130000023A0221946184602F0FCFB374800680D
:10414000FCF776F9354800680A2811DD3348006825
:10415000FCF77CF8324A334BCDE90001FCF704F858
:1041600000E0ADE1CDE90201FCF781F82B490860E0
:104170002D480068022831D10320FFF787FB012872
:104180002CD13148006842F20F71884226DA2E485D
:104190000068401C2C4908600846006829490860EE
:1041A0000023A0221946012002F0C4FB1B4800682E
:1041B000FCF73EF9194800680A280FDD1748006827
:1041C000FCF744F8164A174BCDE90001FBF7CCFF8A
:1041D000CDE90201FCF74BF810490860124800686D
:1041E00003284FD10220FFF751FB01284AD117487D
:1041F0000068002846DD15480068401E1349086025
:10420000084600680A4908600123A02200210846E8
:1042100002F090FB014800681EE00000E80000206A
:104220009A9999999999E93F20000020300000203F
:10423000800000203400002084000020E0000020E6
:104240001C0000207C000020380000203C000020E2
:104250004000002020A10700FCF7EAF8FE480068B3
:104260000A280FDDFC480068FBF7F0FFFB4AFC4B17
:10427000CDE90001FBF778FFCDE90201FBF7F7FF7D
:10428000F5490860F7480068032830D1FFF7FEFAC7
:1042900001282CD1F448006842F20F71884226DAD6
:1042A000F1480068401CF049086008460068EF4982
:1042B00008600123A0220021184602F03BFBE648DB
:1042C0000068FCF7B5F8E44800680A280FDDE2480A
:1042D0000068FBF7BBFFE14AE14BCDE90001FBF7CA
:1042E00043FFCDE90201FBF7C2FFDB490860DD486F
:1042F000006804282FD10220FFF7C8FA01282AD12C
:10430000DB480068002826DDD9480068401ED849EF
:10431000086008460068D74908600223A0220021EF
:10432000084602F007FBCC480068FCF781F8CA4851
:1043300000680A280FDDC8480068FBF787FFC74AF6
:10434000C74BCDE90001FBF70FFFCDE90201FBF7F9
:104350008EFFC1490860C3480068042831D103209A
:10436000FFF794FA01282CD1C148006842F20F717E
:10437000884226DABE480068401CBD4908600846ED
:104380000068BC4908600223A0220021012002F03D
:10439000D1FAB1480068FCF74BF8AF4800680A282A
:1043A0000FDDAD480068FBF751FFAC4AAC4BCDE9DF
:1043B0000001FBF7D9FECDE90201FBF758FFA64942
:1043C0000860A8480068052818D10420FFF75EFAA5
:1043D000012813D1A848006801280FD1A748006818
:1043E00060B97120A649086002209E49086001203A
:1043F000A2490860FCF712F8FEF767FC99480068CC
:10440000052818D10420FFF741FA012813D19D484F
:10441000006801280FD19948006860B9DF209849E9
:10442000086002208F490860012094490860FBF76A
:10443000F5FFFEF74AFC8B480068062840D10420AF
:10444000FFF724FA01283BD18C480068C0BB6F20DD
:104450008B49086002208349086001208749086071
:10446000FBF7DCFFFEF731FC8748006887490968E5
:10447000401A0390002801DB039801E003984042B2
:10448000834908600846006800EB800040018149CC
:1044900008607D4800687D490968884203DD012085
:1044A0007D49086002E000207B4908607B48006885
:1044B0006D490968401A0390002802DB039802E066
:1044C0005DE003984042764908600846006800EBCA
:1044D00080004001734908607048006862490968BB
:1044E000884203DD01207049086002E000206E4927
:1044F00008606E4800685E490968401A0390002809
:1045000001DB039801E003984042694908600846CE
:10451000006800EB8000400166490860634800685D
:1045200053490968884203DD01206349086002E0BD
:104530000020614908600023564819460268564821
:10454000006802F0F7F9504800685C4908600123F0
:104550005448002102685448006802F0EBF94F48C3
:10456000006842490860022352480021026852480C
:10457000006802F0DFF94D4800683E490860404895
:104580000068712866D100203C4908603C480068FA
:10459000FBF75CFF33480068FEF7BAFB0120FFF72A
:1045A00075F9012811D10220FEF79BFB2D48006808
:1045B000062805DA2B480068401C2A49086002E0FA
:1045C000022028490860FBF729FF0020FFF75EF969
:1045D000012811D10220FEF784FB2248006802283E
:1045E00005DD20480068401E1E49086002E00620E4
:1045F0001C490860FBF712FF0020FFF747F990B94C
:104600000120FFF743F970B90220FFF73FF950B9D5
:104610000320FFF73BF930B90420FFF737F910B951
:1046200027480D4908600F48006802285FD1FFF74E
:104630002DF901285BD123480068002857DD214867
:104640000068401E1F49086003480068FBF7F0FE41
:10465000014839E0E6E10000E80000209A999999C4
:104660009999E93F200000203C00002080000020B4
:10467000400000208400002024000020E0000020F2
:104680001C000020280000202C0000203800002002
:104690006400002070000020500000203000002046
:1046A0006800002074000020540000203400002026
:1046B0006C00002078000020580000207C000020C2
:1046C00020A107004400002000680A280FDDFB48F5
:1046D0000068FBF7BBFDFA4AFA4BCDE90001FBF796
:1046E00043FDCDE90201FBF7C2FDF4490860F6483D
:1046F0000068022827D10320FFF7C8F8012822D13B
:10470000F248006842F20F7188421CDAEF480068F4
:10471000401CEE490860E9480068FBF789FEE7485D
:1047200000680A280FDDE5480068FBF78FFDE44AC2
:10473000E44BCDE90001FBF717FDCDE90201FBF7E2
:1047400096FDDE490860E0480068032825D1022074
:10475000FFF79CF8012820D1DD48006800281CDD07
:10476000DB480068401EDA490860D4480068FBF75F
:104770005FFED24800680A280FDDD0480068FBF7CA
:1047800065FDCF4ACF4BCDE90001FBF7EDFCCDE94C
:104790000201FBF76CFDC9490860CB48006803289B
:1047A00026D1FFF773F8012822D1C948006842F2E8
:1047B0000F7188421CDAC6480068401CC449086072
:1047C000BE480068FBF734FEBC4800680A280FDDCD
:1047D000BA480068FBF73AFDB94ABA4BCDE9000187
:1047E000FBF7C2FCCDE90201FBF741FDB3490860CC
:1047F000B5480068042825D10220FFF747F80128B2
:1048000020D1B448006800281CDDB2480068401E72
:10481000B0490860A9480068FBF70AFEA74800688D
:104820000A280FDDA5480068FBF710FDA44AA54B38
:10483000CDE90001FBF798FCCDE90201FBF717FD7C
:104840009E490860A0480068042827D10320FFF78C
:104850001DF8012822D19F48006842F20F7188425A
:104860001CDA9C480068401C9A490860934800681C
:10487000FBF7DEFD914800680A280FDD8F480068CD
:10488000FBF7E4FC8E4A8F4BCDE90001FBF76CFC93
:10489000CDE90201FBF7EBFC884908608A48006813
:1048A000052845D10420FEF7F1FF012840D18A48B0
:1048B0000068E8BB722089490860042082490860CA
:1048C000012085490860FBF7A9FD814800688149FE
:1048D000096808447D4909684843814908600846D9
:1048E0000068804908608048006880490968401A6B
:1048F0000390002801DB039801E0039840427C49C3
:104900000860084600687149096890FBF1F0794930
:1049100008600846006800EB8000400176490860A6
:104920007148006871490968884205DD012000E08E
:104930005FE07249086002E000207049086070483A
:10494000006870490968401A0390002801DB039849
:1049500001E0039840426C490860084600685B49E2
:10496000096890FBF1F0694908606248006800EB53
:104970008000400166490860614800686149096833
:10498000884203DD01206349086002E0002061499C
:1049900008606148006861490968401A039000286E
:1049A00001DB039801E0039840425D490860084636
:1049B00000684649096890FBF1F05A4908600846CA
:1049C000006800EB800040015749086052480068C9
:1049D00052490968884203DD01205449086002E019
:1049E00000205249086001F09BFF51490860FEF722
:1049F0006CF935480068062814D10420FEF746FFFC
:104A000001280FD13448006860B97020334908602C
:104A100002202D49086001202F490860FBF7FEFCA9
:104A2000FEF753F92D480068792845D100202A491E
:104A300008602A480068FBF709FD23480068FEF774
:104A400067F90120FEF722FF01281BD10220FEF7A3
:104A500048F91D480068082805DA1B480068801CD2
:104A6000194908600CE018480068082805D1164864
:104A70000068401C1449086002E0022012490860E6
:104A8000FBF7CCFC0020FEF701FF012859D10220E2
:104A9000FEF727F90C480068022803D109200A49CB
:104AA00008604CE008480068092843DA06480068B6
:104AB000801E0549086042E08BE10000E80000200C
:104AC0009A9999999999E93F200000204400002083
:104AD000480000204C000020E00000201C000020C6
:104AE0005C000020600000202C0000203800002026
:104AF00064000020B400002070000020500000205E
:104B0000300000203C00002068000020B800002099
:104B100074000020540000203400002040000020D9
:104B20006C000020BC00002078000020580000200D
:104B3000D8000020FE480068401EFD490860FBF7D1
:104B40006DFC0020FEF7A2FE90B90120FEF79EFE4C
:104B500070B90220FEF79AFE50B90320FEF796FEC8
:104B600030B90420FEF792FE10B9F248F24908600D
:104B7000EF480068022824D1FEF788FE012820D1E2
:104B8000EE48006800281CDDEC480068401EEB4938
:104B90000860E9480068FBF74BFCE74800680A2812
:104BA0000FDDE5480068FBF751FBE54AE54BCDE931
:104BB0000001FBF7D9FACDE90201FBF758FBDE490A
:104BC0000860DB480068022827D10320FEF75EFE5C
:104BD000012822D1D948006842F20F7188421CDABC
:104BE000D6480068401CD5490860D3480068FBF7E8
:104BF0001FFCD14800680A280FDDCF480068FBF78A
:104C000025FBCF4ACF4BCDE90001FBF7ADFACDE94B
:104C10000201FBF72CFBC8490860C548006804285E
:104C200025D10220FEF732FE012820D1C6480068B7
:104C300000281CDDC4480068401EC3490860BE4807
:104C40000068FBF7F5FBBC4800680A280FDDBA488E
:104C50000068FBF7FBFABA4ABA4BCDE90001FBF753
:104C600083FACDE90201FBF702FBB3490860B048C3
:104C70000068042827D10320FEF708FE012822D16E
:104C8000B148006842F20F7188421CDAAE480068F1
:104C9000401CAD490860A8480068FBF7C9FBA6485E
:104CA00000680A280FDDA4480068FBF7CFFAA44A81
:104CB000A44BCDE90001FBF757FACDE90201FBF760
:104CC000D6FA9D4908609A480068062825D1022036
:104CD000FEF7DCFD012820D19C48006800281CDD7F
:104CE0009A480068401E9949086093480068FBF79D
:104CF0009FFB914800680A280FDD8F480068FBF78A
:104D0000A5FA8F4A8F4BCDE90001FBF72DFACDE9CB
:104D10000201FBF7ACFA884908608548006806285C
:104D200027D10320FEF7B2FD012822D18748006871
:104D300042F20F7188421CDA84480068401C8349A3
:104D400008607D480068FBF773FB7B4800680A2811
:104D50000FDD79480068FBF779FA794A794BCDE99C
:104D60000001FBF701FACDE90201FBF780FA724975
:104D700008606F480068082814D10420FEF786FDFB
:104D800001280FD17248006860B97A207149086023
:104D900002206749086001206D490860FBF73EFB6F
:104DA000FDF793FF62480068092812D10420FEF73E
:104DB0006DFD01280DD16648006850B90120654994
:104DC00008605B49086062490860FBF727FBFDF754
:104DD0007CFF604800687A287ED100205C4908602A
:104DE0005C480068FBF732FB51480068FDF790FF14
:104DF0000120FEF74BFD01281BD10220FDF771FFBA
:104E00004B480068082805DA49480068801C484972
:104E100008600CE046480068082805D1444800684E
:104E2000401C4349086002E0022041490860FBF74A
:104E3000F5FA0020FEF72AFD01281BD10220FDF71C
:104E400050FF3B480068022803D109203849086018
:104E50000EE037480068092805DA35480068801EEA
:104E60003349086004E032480068401E3049086059
:104E7000FBF7D4FA0020FEF709FD90B90120FEF7F8
:104E800005FD70B90220FEF701FD50B90320FEF7C1
:104E9000FDFC30B90420FEF7F9FC10B9254826497D
:104EA000086023480068022826D1FEF7EFFC01289D
:104EB00022D12948006800281EDD27480068401ECE
:104EC000254908601C480068FBF7B2FA1A480068D8
:104ED0000A2811DD184800E0DBE10068FBF7B6F9AD
:104EE000174A184BCDE90001FBF73EF9CDE9020165
:104EF000FBF7BDF9104908600D48006802283ED153
:104F00000320FEF7C3FC012839D11348006842F2A0
:104F10000F71884233DA10480068401C0E4908605F
:104F200005480068FBF784FA034800680A2815E082
:104F30002000002020A10700E80000203800002009
:104F40009A9999999999E93F3C00002040000020E6
:104F5000E00000201C0000202C0000200FDDFE4897
:104F60000068FBF773F9FD4AFD4BCDE90001FBF743
:104F7000FBF8CDE90201FBF77AF9F7490860F94837
:104F80000068042825D10220FEF780FC012820D1EA
:104F9000F548006800281CDDF3480068401EF2490F
:104FA0000860ED480068FBF743FAEB4800680A2800
:104FB0000FDDE9480068FBF749F9E84AE84BCDE91D
:104FC0000001FBF7D1F8CDE90201FBF750F9E24906
:104FD0000860E4480068042827D10320FEF756FC47
:104FE000012822D1E048006842F20F7188421CDAA1
:104FF000DD480068401CDC490860D7480068FBF7C2
:1050000017FAD54800680A280FDDD3480068FBF777
:105010001DF9D24AD24BCDE90001FBF7A5F8CDE945
:105020000201FBF724F9CC490860CE480068062845
:1050300025D10220FEF72AFC012820D1CB480068A8
:1050400000281CDDC9480068401EC8490860C248E5
:105050000068FBF7EDF9C04800680A280FDDBE487C
:105060000068FBF7F3F8BD4ABD4BCDE90001FBF743
:105070007BF8CDE90201FBF7FAF8B7490860B948B7
:105080000068062827D10320FEF700FC012822D162
:10509000B648006842F20F7188421CDAB3480068D3
:1050A000401CB2490860AC480068FBF7C1F9AA4847
:1050B00000680A280FDDA8480068FBF7C7F8A74A70
:1050C000A74BCDE90001FBF74FF8CDE90201FBF753
:1050D000CEF8A1490860A3480068082818D1042028
:1050E000FEF7D4FB012813D1A148006801280FD195
:1050F000A048006860B97B209F4908600220994958
:10510000086001209B490860FBF788F9FDF7DDFD89
:1051100094480068082844D10420FEF7B7FB012812
:105120003FD19648006801283BD192480068C0BB37
:10513000DF209149086002208A49086001208D49DA
:105140000860FBF76BF9FDF7C0FD8D4800688D49DD
:105150000968401A0390002801DB039801E00398D6
:105160004042894908600846006800EB8000400121
:10517000864908608248006882490968884203DDE0
:1051800001208349086002E00020814908608148CD
:10519000006881490968401A0390002802DB0398DF
:1051A00002E05DE0039840427C49086008460068E0
:1051B00000EB800040017A49086076480068764933
:1051C0000968884203DD01207649086002E000207A
:1051D000744908607448006874490968401A03906B
:1051E000002801DB039801E0039840427049086001
:1051F0000846006800EB800040016E4908606A487C
:1052000000686A490968884203DD01206A4908602C
:1052100002E000206849086000235C4819460268E3
:105220005B48006801F086FB01235D4800210268AD
:105230005C48006801F07EFB02235E4800210268A2
:105240005D48006801F076FB4E4800684C490860F4
:10525000514800684F490860544800685249086046
:1052600040480068092814D10420FEF70FFB0128EC
:105270000FD14048006860B97A203F490860022099
:105280003849086001203B490860FBF7C7F8FDF783
:105290001CFD394800687B285CD100203549086036
:1052A00035480068FBF7D2F82E480068FDF730FD5E
:1052B0000120FEF7EBFA012811D10220FDF711FDC4
:1052C00028480068062805DA26480068401C254959
:1052D000086002E0022023490860FBF79FF80020E5
:1052E000FEF7D4FA012811D10220FDF7FAFC1D487F
:1052F0000068022805DD1B480068401E1949086047
:1053000002E0062017490860FBF788F80020FEF746
:10531000BDFA90B90120FEF7B9FA70B90220FEF784
:10532000B5FA50B90320FEF7B1FA30B90420FEF700
:10533000ADFA10B92148084908600A4800680228F7
:105340005DD1FEF7A3FA012859D11D480068002855
:1053500055DD37E0B3E20000E80000209A99999902
:105360009999E93F200000203000002034000020FF
:1053700024000020E00000201C0000202800002065
:105380007C00002038000020640000207000002015
:1053900050000020800000203C0000206800002019
:1053A00074000020540000208400002040000020F1
:1053B0006C000020780000205800002020A1070089
:1053C00044000020FA480068401EF9490860F94886
:1053D0000068FBF72DF8F74800680A280FDDF5484C
:1053E0000068FAF733FFF44AF44BCDE90001FAF70D
:1053F000BBFECDE90201FAF73AFFEE490860F0483A
:105400000068022827D10320FEF740FA012822D1A4
:10541000E748006842F20F7188421CDAE4480068ED
:10542000401CE3490860E3480068FBF701F8E148E5
:1054300000680A280FDDDF480068FAF707FFDE4A38
:10544000DE4BCDE90001FAF78FFECDE90201FAF754
:105450000EFFD8490860DA480068032825D10220E9
:10546000FEF714FA012820D1D648006800281CDD78
:10547000D4480068401ED3490860CE480068FAF757
:10548000D7FFCC4800680A280FDDCA480068FAF741
:10549000DDFEC94AC94BCDE90001FAF765FECDE949
:1054A0000201FAF7E4FEC3490860C5480068032812
:1054B00026D1FEF7EBF9012822D1C248006842F25A
:1054C0000F7188421CDABF480068401CBD49086063
:1054D000B8480068FAF7ACFFB64800680A280FDD44
:1054E000B4480068FAF7B2FEB34AB44BCDE9000104
:1054F000FAF73AFECDE90201FAF7B9FEAD490860C4
:10550000AF480068042825D10220FEF7BFF9012822
:1055100020D1AD48006800281CDDAB480068401E63
:10552000A9490860A3480068FAF782FFA14800680B
:105530000A280FDD9F480068FAF788FE9E4A9F4BB5
:10554000CDE90001FAF710FECDE90201FAF78FFE6E
:10555000984908609A480068042827D10320FEF77C
:1055600095F9012822D19848006842F20F718842CB
:105570001CDA95480068401C934908608D48006813
:10558000FAF756FF8B4800680A280FDD8948006843
:10559000FAF75CFE884A894BCDE90001FAF7E4FD91
:1055A000CDE90201FAF763FE824908608448006889
:1055B00005283FD10420FEF769F901283AD1834834
:1055C0000068B8BB72208249086004207C490860EA
:1055D00001207E490860FAF721FF7A4800687A497D
:1055E000096808447249096848437A4908600846CE
:1055F0000068794908607948006879490968401A63
:105600000390002801DB039801E0039840427549AC
:1056100008600846006800EB80004001724908609D
:105620006E4800686E490968884204DD01206F49B0
:10563000086003E02BE100206C4908606C480068BA
:105640006C490968401A0390002801DB039801E0C7
:1056500003984042684908600846006800EB8000F3
:1056600040016649086062480068624909688842EA
:1056700003DD01206249086002E000206049086003
:105680006048006860490968401A0390002801DBFF
:10569000039801E0039840425C49086008460068AE
:1056A00000EB800040015A4908605648006856499E
:1056B0000968884203DD01205649086002E00020A5
:1056C0005449086000234848194602684748006862
:1056D00001F030F901234948002102684848006878
:1056E00001F028F902234A4800210268494800686D
:1056F00001F020F93A480068384908603D480068E0
:105700003B490860404800683E49086042480068DC
:1057100033490968401A0390002801DB039801E02F
:10572000039840422F4908600846006820490968EC
:1057300090FBF1F0394908600846006800EB8000F2
:1057400040012949086034480068254909688842B1
:1057500003DD01202549086002E00020234908609C
:105760002F48006823490968401A0390002801DB8C
:10577000039801E0039840421F490860084600680A
:105780000B49096890FBF1F026490860084600685B
:1057900000EB800040011949086021480068154964
:1057A0000968884240DD0120154908603FE000009B
:1057B00044000020E80000209A9999999999E93FBE
:1057C00020000020480000204C000020E0000020C5
:1057D0001C0000205C000020600000207C000020F5
:1057E00038000020640000207000002050000020DD
:1057F000800000203C000020680000207400002091
:105800005400002084000020400000206C00002094
:1058100078000020580000202C000020B400002058
:1058200030000020B80000200020FE490860FE483B
:105830000068FE490968401A0390002801DB0398BC
:1058400001E003984042FA49086008460068F949B7
:10585000096890FBF1F0F84908600846006800EB21
:1058600080004001F5490860EF480068EF49096889
:10587000884203DD0120F249086002E00020F0497F
:10588000086001F04DF8EF490860FDF71EFAEE4898
:105890000068062813D10420FDF7F8FF01280ED177
:1058A000EA48006858B97A20E94908600120E649C9
:1058B0000860E6490860FAF7B1FDFDF706FAE4482A
:1058C000006872287ED10020E049086001F028F8C5
:1058D000E049086008460068DA490968401AB0F5EE
:1058E0007A7F08DDDC480068401EDB49086001F073
:1058F00017F8D4490860D6480068FAF7A7FDD248DF
:105900000068FDF705FA0120FDF7C0FF012811D15D
:105910000320FDF7E6F9CC480068052805DACA48F7
:105920000068401CC849086002E00420C6490860BD
:10593000FAF774FD0020FDF7A9FF012811D103201B
:10594000FDF7CFF9C0480068042805DDBE480068AF
:10595000401EBD49086002E00520BB490860FAF717
:105960005DFDB948006803281ED10420FDF78EFFB5
:10597000012819D1B5480068B0B9B84800680128B5
:1059800004D101F014F80120B449086040F27640D7
:10599000AF4908600320AC4908600120AB490860AA
:1059A000FAF73CFDFDF791F9A748006804281CD1DF
:1059B000FDF76CFF012818D1A4480068A8B90020A1
:1059C000A34900E0C3E0086002209F49086000206E
:1059D000A3490860A0490860A249086001209B49CA
:1059E0000860FAF71BFDFDF770F900F099FF99497F
:1059F0000860084600689C490968401A9B49096884
:105A000001EB4102C2EBC111B0EBC10F0EDD9348B7
:105A1000006858B900F0CBFF00F082FF944908609D
:105A20000120FDF71BFF01208C49086089480068B0
:105A30008F490968401A8F49096801EB4102C2EB9E
:105A4000C111B0EBC10F65DD84480068012861D148
:105A500000F0ADFF00F064FF8349086000207F493B
:105A600008600120FDF7FAFE7E480068401C7D4971
:105A7000086000238048194602688048006800F0EA
:105A800059FF7E480068012807D17D4800687D499C
:105A9000096808447A49086006E07948006879494D
:105AA0000968401A76490860012377480021026896
:105AB0005C48006800F03EFF5A480068012807D1A2
:105AC000724800687249096808447049086006E035
:105AD0006E4800686E490968401A6C4908600223E4
