:020000040800F2
:10000000C804002045010008CD200008851900081B
:10001000C92000088D0100086524000800000000C8
:10002000000000000000000000000000ED220008B9
:1000300091010008000000004D2100080124000883
:100040005F0100085F0100085F0100083522000819
:100050005F0100085F0100085F0100085F01000800
:100060005F0100085F0100085F0100085F010008F0
:100070005F0100085F0100085F0100085F010008E0
:100080005F0100085F0100085F0100085F010008D0
:100090005F0100085F0100085F0100085F010008C0
:1000A0005F0100085F0100085F0100085F010008B0
:1000B0005F0100085F0100085F0100085F010008A0
:1000C0005F0100085F0100085F0100085F01000890
:1000D0005F0100085F0100085F0100085F01000880
:1000E0005F010008CD2100085F0100085F010008E2
:1000F0005F0100085F0100085F0100085F01000860
:100100005F0100085F0100085F0100085F0100084F
:100110005F0100085F0100085F0100085F0100083F
:100120005F0100085F0100085F0100085F0100082F
:10013000DFF80CD000F018F800480047012600084E
:10014000C80400200648804706480047FEE7FEE74F
:10015000FEE7FEE7FEE7FEE7FEE7FEE7FEE7FEE777
:100160000524000831010008064C074D06E0E06850
:1001700040F0010394E8070098471034AC42F6D3EE
:10018000FFF7DAFF4C3800086C38000800BFFEE7C4
:10019000704701B502E00098401E009000980028CA
:1001A000F9D108BD00B5012002F06EF9014800F058
:1001B00003F800BD20A1070007E0022100E000BF16
:1001C0000A1EA1F10101FAD100BF011EA0F1010038
:1001D000F3D1704710B50446082C7DD00CDC082CF8
:1001E00081F06B82DFE814F018002E0040093F090F
:1001F0003F094300540108030B2C01F0328005DC59
:10020000092C6AD00A2C41F05882FDE30C2C01F035
:100210004481582CF7D1F8E3F1A20A21142001F00F
:10022000A3FCF3A21E21142001F09EFCF3A23221B4
:10023000142001F099FCF4A24621142001F094FC52
:1002400001F03BBAE6A20A21084601F08DFCF1A2BA
:100250001E21142001F088FCF3A23221142001F0A9
:1002600083FCF8A24621142001F07EFCE8E7F7A207
:100270000A21084601F078FCFBA21E210A2001F0A9
:1002800073FCFEA23221142001F06EFCFE480068CF
:100290004FF47A7190FBF1F00A2190FBF1F201FB2F
:1002A00012003030F9490870F7480068642190FB6B
:1002B000F1F00A2190FBF1F201FB12003030F44919
:1002C0000870F14800680A2190FBF1F090FBF1F210
:1002D00001FB1200303001E03CE3FDE3ED49087022
:1002E000E94800680A2190FBF1F201FB120030306E
:1002F000E9490870E54802783221642001F002FCE7
:10030000E348027832216E2001F0FCFBE1480278DC
:100310003221782001F0F6FBDF480278322182207A
:1003200001F0F0FBDDA232218C2001F01DFCDCA2EB
:100330004621142001F018FCDC4800684FF47A7163
:1003400090FBF1F00A2190FBF1F201FB120030303A
:10035000D7490870D5480068642190FBF1F00A2164
:1003600090FBF1F201FB12003030D2490870CF4807
:1003700000680A2190FBF1F090FBF1F201FB120002
:100380003030CD490870C94800680A2190FBF1F26D
:1003900001FB12003030C9490870C5480278462177
:1003A000642001F0AFFBC348027846216E2001F0C3
:1003B000A9FBC14802784621782001F0A3FBBF4881
:1003C00002784621822001F09DFBB4A246218C20B8
:1003D00001F0CAFBBAA25A21142001F0C5FBBB48A8
:1003E00000684FF47A7190FBF1F00A2190FBF1F272
:1003F00001FB12003030B6490870B448006864212F
:1004000090FBF1F00A2190FBF1F201FB1200303079
:10041000B0490870AD4800680A2190FBF1F090FBEC
:10042000F1F201FB12003030AB490870A7480068B8
:100430000A2190FBF1F201FB12003030A74908704D
:10044000A34802785A21642001F05CFBA14802789D
:100450005A216E2001F056FB9F4802785A217820DD
:1004600001F050FB9D4802785A21822001F04AFB9E
:100470008AA25A218C2001F077FB99A26E211420C8
:1004800001F072FB6FA28221142001F06DFBD7E610
:100490006EA20A21084601F067FB92A21E210A20E3
:1004A00001F062FB75A23221142001F05DFB92483D
:1004B00000684FF47A7190FBF1F00A2190FBF1F2A1
:1004C00001FB120030308D4908708B4800686421B0
:1004D00090FBF1F00A2190FBF1F201FB12003030A9
:1004E00087490870844800680A2190FBF1F090FB6E
:1004F000F1F201FB12003030824908707E4800683A
:100500000A2190FBF1F201FB120030307E490870A5
:100510007A4802783221642001F0F4FA78480278AF
:1005200032216E2001F0EEFA7648027832217820EE
:1005300001F0E8FA744802783221822001F0E2FAF0
:1005400056A232218C2001F00FFB55A24621142027
:1005500001F00AFB6D4800684FF47A7190FBF1F0EE
:100560000A2190FBF1F201FB12003030684908705B
:1005700066480068642190FBF1F00A2190FBF1F2DB
:1005800001FB1200303063490870604800680A219E
:1005900090FBF1F090FBF1F201FB120030305E496C
:1005A00008705A4800680A2190FBF1F201FB120022
:1005B00030305A490870564802784621642001F0CC
:1005C000A1FA5448027846216E2001F09BFA524865
:1005D00002784621782001F095FA504802789FE091
:1005E00054696D65204C61707365204D6F646500C2
:1005F000566964656F204D6F646500004D616E75CE
:10060000616C204D6F64650053657474696E677327
:1006100000000000496E746572616374697665203C
:100620004D6F646500000000496E70757420506164
:1006300072616D6574657273204D616E75616C6C6D
:100640007900000052657475726E0000506C65612F
:10065000736520736C6577207468652063616D65D0
:10066000726120746F00000074686520454E44205C
:10067000706F736974696F6E00000000536C696479
:10068000653A203C3C3C00002800002090000020FF
:100690009100002092000020930000203E3E3E008A
:1006A00050616E3A2020203C3C3C00002C00002091
:1006B0009400002095000020960000209700002064
:1006C00054696C743A20203C3C3C0000300000200F
:1006D00098000020990000209A0000209B00002034
:1006E0005365740074686520535441525420706FF0
:1006F000736974696F6E0000340000209C00002054
:100700009D0000209E0000209F0000203800002057
:10071000A0000020A1000020A2000020A3000020D3
:100720004621822001F0EEF9AFF2900246218C20A2
:1007300001F01AFAAFF278025A21142001F014FAEB
:10074000FE4800684FF47A7190FBF1F00A2190FBAB
:10075000F1F201FB12003030F9490870F7480068E7
:10076000642190FBF1F00A2190FBF1F201FB1200F1
:100770003030F4490870F14800680A2190FBF1F02C
:1007800090FBF1F201FB12003030EF490870EB48AA
:1007900000680A2190FBF1F201FB12003030EB49B6
:1007A0000870E74802785A21642001F0ABF9E54867
:1007B00002785A216E2001F0A5F9E34802785A2107
:1007C000782001F09FF9E14802785A21822001F057
:1007D00099F9AFF238125A218C2001F0C5F9AFF225
:1007E00000126E21142001F0BFF9AFF2A81282218D
:1007F000142001F0B9F923E5D5A20A21084601F039
:10080000B3F9DDA20A21084601F0AEF9DE4800681E
:100810004FF47A7190FBF1F00A2190FBF1F201FBA9
:1008200012003030D9490870D7480068642190FB25
:10083000F1F00A2190FBF1F201FB12003030D449B3
:100840000870D14800680A2190FBF1F090FBF1F2AA
:1008500001FB12003030CF490870CB4800680A21F4
:1008600090FBF1F201FB12003030CB490870C74811
:1008700002781421322001F045F9C548027814218C
:100880003C2001F03FF9C34802781421462001F0D2
:1008900039F9C14802781421502001F033F9BFA280
:1008A0000A21084601F060F9BF4800684FF47A71E8
:1008B00090FBF1F00A2190FBF1F201FB12003030C5
:1008C000BA490870B8480068642190FBF1F00A2129
:1008D00090FBF1F201FB12003030B5490870B248CC
:1008E00000680A2190FBF1F090FBF1F201FB12008D
:1008F0003030B0490870AC4800680A2190FBF1F232
:1009000001FB12003030AC490870A848027814216D
:10091000322001F0F7F8A648027814213C2001F0BB
:10092000F1F8A44802781421462001F0EBF8A2481F
:1009300002781421502001F0E5F8AFF25C220A2180
:10094000084601F011F9AFF204320A21084601F01D
:100950000BF975E499A20A21084601F005F99EA257
:100960000A21084601F000F99F4800684FF47A71A7
:1009700090FBF1F00A2190FBF1F201FB1200303004
:100980009A49087098480068642190FBF1F00A21A8
:1009900090FBF1F201FB120030309549087092484B
:1009A00000680A2190FBF1F090FBF1F201FB1200CC
:1009B0003030904908708C4800680A2190FBF1F2B1
:1009C00001FB120030308C490870884802781421ED
:1009D000322001F097F88648027814213C2001F07B
:1009E00091F8844802781421462001F08BF882485F
:1009F00002781421502001F085F880A20A210846CF
:100A000001F0B2F867A201E0C2E219E10A2108464A
:100A100001F0AAF863A20A21084601F0A5F87A4875
:100A200000683C2190FBF1F090FBF1F00A2190FB73
:100A3000F1F090FBF1F201FB1200303073490870C5
:100A4000714800683C2190FBF1F090FBF1F00A2125
:100A500090FBF1F201FB120030306D4908706A48DA
:100A600000683C2190FBF1F06A49086004E06948A5
:100A700000683C3867490860664800683C28F6DA38
:100A8000644800680A2190FBF1F090FBF1F201FB51
:100A900012003030604908705E4800680A2190FBFF
:100AA000F1F201FB120030305C49087004E0564856
:100AB00000683C3854490860534800683C28F6DA1E
:100AC000514800680A2190FBF1F090FBF1F201FB24
:100AD00012003030524900E0AAE108704A4800682C
:100AE0000A2190FBF1F201FB120030304C490870F2
:100AF000464802781421322001F004F84448027874
:100B000014213C2000F0FEFF4348027814214620C7
:100B100000F0F8FF424802781421502000F0F2FF64
:100B2000404802781421502000F0ECFF3EA20A2138
:100B3000084601F019F83EA20A217DE03C000020A1
:100B4000A4000020A5000020A6000020A70000208F
:100B5000506C6561736520656E746572207468659C
:100B600020666F6C6C6F77696E6720706172616D63
:100B70006574657273000000546F74616C20466187
:100B80006D65733A0000000040000020A8000020BE
:100B9000A9000020AA000020AB000020496E746567
:100BA0007276616C3A00000044000020AC00002026
:100BB000AD000020AE000020AF00002054616B6942
:100BC0006E672054696D65204C617073652E2E2E02
:100BD0002E2E2E200000000046616D6573205461AA
:100BE0006B656E3A2000000088000020B0000020F5
:100BF000B1000020B2000020B300002054696D65F0
:100C0000204C6566743A0000C0000020B40000204B
:100C1000B5000020BC000020B6000020B700002076
:100C2000B8000020B9000020506175736500000015
:100C300053746F7000000000084600F095FF26E432
:100C4000AFF288020A21084600F08EFFAFF2780268
:100C50000A21084600F088FFFE4800684FF47A71C8
:100C600090FBF1F00A2190FBF1F201FB1200303011
:100C7000F9490870F7480068642190FBF1F00A21F7
:100C800090FBF1F201FB12003030F4490870F1489A
:100C900000680A2190FBF1F090FBF1F201FB1200D9
:100CA0003030EF490870EB4800680A2190FBF1F200
:100CB00001FB12003030EB490870E748027814213C
:100CC000322000F01FFFE548027814213C2000F09C
:100CD00019FFE34802781421462000F013FFE14891
:100CE00002781421502000F00DFFAFF2F0020A212B
:100CF000084600F039FFAFF254120A21084600F00E
:100D000033FFAFF260120A21084600F02DFFD648EB
:100D100000683C2190FBF1F090FBF1F00A2190FB80
:100D2000F1F090FBF1F201FB12003030CF49087076
:100D3000CD4800683C2190FBF1F090FBF1F00A21D6
:100D400090FBF1F201FB12003030C9490870C6482F
:100D500000683C2190FBF1F0C649086004E0C548FA
:100D600000683C38C3490860C24800683C28F6DA8D
:100D7000C04800680A2190FBF1F090FBF1F201FB02
:100D800012003030BC490870BA4800680A2190FB54
:100D9000F1F201FB12003030B849087004E0B248AB
:100DA00000683C38B0490860AF4800683C28F6DA73
:100DB000AD4800680A2190FBF1F090FBF1F201FBD5
:100DC00012003030AE490870A74800680A2190FB35
:100DD000F1F201FB12003030A9490870A3480278F3
:100DE0001421322000F08EFEA148027814213C200C
:100DF00000F088FEA04802781421462000F082FE10
:100E00009F4802781421502000F07CFE9D48027813
:100E10001421502000F076FE9BA20A21084600F023
:100E2000A3FEAFF2F4120A21084600F09DFEE2E4B0
:100E3000AFF2E4220A21084600F096FEAFF2C82283
:100E40000A21084600F090FE914800684FF47A713C
:100E500090FBF1F00A2190FBF1F201FB120030301F
:100E60008C4908708A480068642190FBF1F00A21DF
:100E700090FBF1F201FB1200303087490870844882
:100E800000680A2190FBF1F090FBF1F201FB1200E7
:100E90003030824908707E4800680A2190FBF1F2E8
:100EA00001FB120030307E4908707A480278142124
:100EB000322000F027FE7848027814213C2000F010
:100EC00021FE764802781421462000F01BFE74486B
:100ED00002781421502000F015FEAFF240320A21B2
:100EE000084600F041FE6F4800684FF47A7190FBAD
:100EF000F1F00A2190FBF1F201FB120030306A4957
:100F0000087068480068642190FBF1F00A2190FBAA
:100F1000F1F201FB1200303064490870614800684A
:100F20000A2190FBF1F090FBF1F201FB120030304E
:100F30005F4908705B4800680A2190FBF1F201FBF1
:100F4000120030305B490870574802781421322073
:100F500000F0D8FD5548027814213C2000F0D2FD65
:100F6000534802781421462000F0CCFD5148027805
:100F70001421502000F0C6FD4FA20A21084600F0BF
:100F8000F3FDAFF640120A21084600F0EDFD94E3B0
:100F90004CA20A21084600F0E7FD54A20A210846A7
:100FA00000F0E2FD564800684FF47A7190FBF1F0D2
:100FB0000A2190FBF1F201FB120030305149087018
:100FC0004F480068642190FBF1F00A2190FBF1F298
:100FD00001FB120030304C490870494800680A2172
:100FE00090FBF1F090FBF1F201FB12003030474929
:100FF0000870434800680A2190FBF1F201FB1200DF
:101000003030434908703F4802781421322000F004
:1010100079FD3D48027814213C2000F073FD3B48E7
:1010200002781421462000F06DFD39480278142121
:10103000502000F067FD37A20A21084600F094FD19
:10104000394800684FF47A7190FBF1F00A2190FB67
:10105000F1F26BE088000020B0000020B100002019
:10106000B2000020B3000020C0000020B400002027
:10107000B5000020BC000020B6000020B700002012
:10108000B8000020B9000020526573756D6500003E
:1010900040000020A8000020A9000020AA00002095
:1010A000AB00002044000020AC000020AD00002078
:1010B000AE000020AF000020436F6E74696E75654E
:1010C00000000000506C6561736520656E74657288
:1010D0002074686520666F6C6C6F77696E6720702E
:1010E0006172616D65746572732000005374617282
:1010F0007420506F736974696F6E5F583A00000016
:10110000340000209C0000209D0000209E00002054
:101110009F000020537461727420506F736974696A
:101120006F6E5F593A0000003800002001FB12008A
:101130003030FE490870FE480068642190FBF1F0F1
:101140000A2190FBF1F201FB12003030F9490870DE
:10115000F74800680A2190FBF1F090FBF1F201FBE7
:1011600012003030F4490870F14800680A2190FB01
:10117000F1F201FB12003030F0490870EB480278C0
:101180001421322000F0BEFCEA48027814213C20F1
:1011900000F0B8FCE84802781421462000F0B2FCC8
:1011A000E64802781421502000F0ACFCE4A20A21A9
:1011B000084600F0D9FCE74800684FF47A7190FBCC
:1011C000F1F00A2190FBF1F201FB12003030E2490C
:1011D0000870E0480068642190FBF1F00A2190FB60
:1011E000F1F201FB12003030DC490870D948006888
:1011F0000A2190FBF1F090FBF1F201FB120030307C
:10120000D7490870D34800680A2190FBF1F201FB2E
:1012100012003030D3490870CF48027814213220B0
:1012200000F070FCCD48027814213C2000F06AFCEC
:10123000CB4802781421462000F064FCC9480278AB
:101240001421502000F05EFCAFF294120A210846EF
:1012500000F08AFCAFF614420A21084600F084FC34
:101260002BE2AFF214720A21084600F07DFCBEA208
:101270000A21084600F078FCBF4800684FF47A71F4
:1012800090FBF1F00A2190FBF1F201FB12003030EB
:10129000BA490870B8480068642190FBF1F00A214F
:1012A00090FBF1F201FB12003030B5490870B248F2
:1012B00000680A2190FBF1F090FBF1F201FB1200B3
:1012C0003030B0490870AC4800680A2190FBF1F258
:1012D00001FB12003030AC490870A8480278142194
:1012E000322000F00FFCA648027814213C2000F0C8
:1012F00009FCA44802781421462000F003FCA2480F
:1013000002781421502000F0FDFBA0A20A2108461B
:1013100000F02AFCA14800684FF47A7190FBF1F0CC
:101320000A2190FBF1F201FB120030309C49087059
:101330009A480068642190FBF1F00A2190FBF1F2D9
:1013400001FB1200303097490870944800680A2168
:1013500090FBF1F090FBF1F201FB1200303092496A
:1013600008708E4800680A2190FBF1F201FB120020
:1013700030308E4908708A4802781421322000F0FB
:10138000C1FB8848027814213C2000F0BBFB864852
:1013900002781421462000F0B5FB8448027814211D
:1013A000502000F0AFFB82A20A21084600F0DCFBCF
:1013B000834800684FF47A7190FBF1F00A2190FBAA
:1013C000F1F201FB120030307E4908707C48006861
:1013D000642190FBF1F00A2190FBF1F201FB120075
:1013E000303079490870764800680A2190FBF1F0A6
:1013F00090FBF1F201FB1200303074490870704824
:1014000000680A2190FBF1F201FB120030307049B4
:1014100008706C4802781421322000F073FB6A488F
:10142000027814213C2000F06DFB684802781421FA
:10143000462000F067FB664802781421502000F037
:1014400061FBAFF660020A21084600F08DFBAFF2A7
:1014500098320A21084600F087FBAFF618620A218D
:10146000084600F081FB28E1AFF67C620A210846BD
:1014700000F07AFBAFF664620A21084600F074FBC4
:10148000AFF65C620A21084600F06EFBAFF64C62D4
:101490000A21084600F068FB00BFAFF64C120A2193
:1014A000084600F061FBAFF630120A21084600F052
:1014B0005BFB484800684FF47A7190FBF1F00A2119
:1014C00090FBF1F201FB12003030434908704148B3
:1014D0000068642190FBF1F00A2190FBF1F201FB1E
:1014E000120030303D4908703A4800680A2190FBEC
:1014F000F1F090FBF1F201FB120030303849087036
:10150000344800680A2190FBF1F201FB12003030F0
:1015100034490870304802781421322000F0F2FA81
:101520002E48027814213C205EE00000A00000203C
:1015300038000020A1000020A2000020A30000200D
:10154000537461727420506F736974696F6E5F5A5F
:101550003A0000003C000020A4000020A50000206C
:10156000A6000020A7000020454E4420506F73695C
:1015700074696F6E5F583A002800002090000020C8
:10158000910000209200002093000020454E44204E
:10159000506F736974696F6E5F593A002C000020B8
:1015A0009400002095000020960000209700002065
:1015B000454E4420506F736974696F6E5F5A3A00EC
:1015C0003000002098000020990000209A000020A0
:1015D0009B00002040000020A8000020A90000205F
:1015E000AA000020AB00002000F08CFA34480278FA
:1015F0001421462000F086FA324802781421502047
:1016000000F080FAAFF66C220A21084600F0ACFA2E
:101610002D4800684FF47A7190FBF1F00A2190FB9D
:10162000F1F201FB120030302849087026480068AA
:10163000642190FBF1F00A2190FBF1F201FB120012
:10164000303023490870204800680A2190FBF1F0EF
:1016500090FBF1F201FB120030301E4908701A486D
:1016600000680A2190FBF1F201FB120030301A49A8
:101670000870164802781421322000F043FA14480A
:10168000027814213C2000F03DFA1248027814211F
:10169000462000F037FA104802781421502000F05C
:1016A00031FAAFF2EC520A21084600F05DFA0B4A1B
:1016B0000A21084600F058FA00BF00BF10BD000024
:1016C000AA000020AB00002044000020AC00002055
:1016D000AD000020AE000020AF000020440600084E
:1016E00051B18200A2F1C042126842F001038200AF
:1016F000A2F1C042136009E08200A2F1C042126868
:10170000034B1A408300A3F1C0431A6070470000E6
:10171000FEFF0F00D0E901121143C26811430269B4
:1017200011434269114382691143C2691143026A3C
:101730001143426A1143826A1143C26A1143026B28
:10174000114302689200A2F1C04211608168082929
:101750000BD101688900A1F1C041096841F0400244
:1017600001688900A1F1C0410A60416B0968426BC0
:10177000526841EA0211426B926841EA0221426BCF
:10178000928941EA0241426B128A41EA0251426B5C
:10179000127D41EA0261426B926911430268521C58
:1017A0009200A2F1C0421160C16AB1F5804F1BD115
:1017B000816B0968826B526841EA0211826B926800
:1017C00041EA0221826B128A41EA0251826B127D48
:1017D00041EA0261826B9269114302689200A2F1B0
:1017E000C042C2F8041107E06FF07042016889003E
:1017F000A1F1C041C1F804217047000008B50121E2
:10180000042000F0C5FC4FF4FE70ADF8000010207D
:101810008DF8030003208DF8020069460B4800F0A4
:1018200019F84FF47F700949103108600121082030
:1018300000F0AEFC40F2E330ADF8000004208DF87B
:1018400003006946024800F005F808BD00080140A1
:10185000000C01402DE9F041024600250026002041
:1018600000230024002791F803C00CF00F0591F825
:1018700003C00CF0100CBCF1000F03D091F802C0B3
:101880004CEA050591F800C0BCF1000F31D0146896
:1018900000202BE04FF0010C0CFA00F3B1F800C06F
:1018A0000CEA03069E4220D183004FF00F0C0CFA85
:1018B00003F7BC4305FA03FC4CEA040491F803C0A7
:1018C000BCF1280F06D14FF0010C0CFA00FCC2F855
:1018D00014C00AE091F803C0BCF1480F05D14FF0E5
:1018E000010C0CFA00FCC2F810C0401C0828D1D32F
:1018F0001460B1F800C0BCF1FF0F34DD5468002063
:101900002EE000F1080C4FF0010808FA0CF3B1F8D2
:1019100000C00CEA03069E4221D183004FF00F0C59
:101920000CFA03F7BC4305FA03FC4CEA040491F8F3
:1019300003C0BCF1280F05D100F1080C08FA0CF81F
:10194000C2F8148091F803C0BCF1480F07D100F130
:10195000080C4FF0010808FA0CF8C2F81080401C7F
:101960000828CED35460BDE8F08102460020936879
:101970000B400BB1012000E000207047416170472F
:101980000161704700BFFEE710B504462CB14FF46B
:1019900080510548FFF7F2FF04E04FF48051024800
:1019A000FFF7EEFF10BD0000001401402DE9F041EB
:1019B00006460F4614461D46DDF818802B46224683
:1019C0003946304600F0BDF904FB05F0414600F011
:1019D0001EF9BDE8F08110B50446092C33D2DFE8CA
:1019E00004F0050A0F14191E23282D000F210520CD
:1019F00000F02BF827E02321052000F026F822E054
:101A00003721052000F021F81DE04B21052000F0D2
:101A10001CF818E05F21052000F017F813E073218F
:101A2000052000F012F80EE08721052000F00DF8E7
:101A300009E09B21052000F008F804E0AF21052013
:101A400000F003F800BF00BF10BD70B504460D469E
:101A5000A9B2A0B205230A2200F073F90021642084
:101A600000F0D5F86A1C91B204F10A0290B2032387
:101A7000012200F066F90021122000F0C8F8AA1C2B
:101A800091B204F10B0290B201231A4600F059F909
:101A90000021012000F0BBF86A1E91B204F1080297
:101AA00090B20123022200F04CF90021122000F034
:101AB000AEF8AA1E91B204F1080290B201231A46B0
:101AC00000F03FF90021012000F0A1F86A1D91B259
:101AD00004F1080290B20123022200F032F9002141
:101AE000122000F094F8AA1D91B204F1080290B2FD
:101AF00001231A4600F025F90021012000F087F8A3
:101B000070BD00002DE9F047804689461546A5F1D5
:101B1000200000F0FF0A102308224946404600F04A
:101B200010F92C2000F06AFA002417E00D4800EBB1
:101B30000A10065D00270DE006F0010018B11F2015
:101B400000F060FA03E04FF6FF7000F05BFA7610E9
:101B5000781CC7B2082FEFDB601CC4B2102CE5DB89
:101B6000BDE8F0875A32000870B505460E461446A7
:101B700017E028460830F02803DD002506F11000A4
:101B800086B230461030B0F5A07F01DD002500267A
:101B9000227831462846FFF7B5FF641C05F108009E
:101BA00085B220780028E4D170BD00B597B001213E
:101BB000080200F0CDFA02200190002002900520DA
:101BC000039000200490059006904FF080500790FD
:101BD00000200890099008200A9010200B90002007
:101BE0000C900E900F9010904FF4805011900020A8
:101BF00012901390149001A81590169008A8FFF762
:101C000089FD01210020FFF76BFD17B000BD70B505
:101C100004460D4600262C2000F0F0F900BF03E03A
:101C2000284600F0EFF9761CA642F9D370BD0000FB
:101C300008B50121084600F0ABFA0121602000F050
:101C4000A7FA03208DF8020018208DF803004CF24B
:101C50000370ADF8000069462C48FFF7FBFD4FF616
:101C60008070ADF8000069462948FFF7F3FD0320B6
:101C70008DF8020018208DF803001020ADF8000048
:101C800069462248FFF7E6FD2020ADF800006946CE
:101C90001E48FFF7DFFD0121202000F079FA8020A7
:101CA000ADF8000069461948FFF7D4FD0121202056
:101CB00000F06EFA4FF40060ADF80000694613487A
:101CC000FFF7C8FD10208DF8030003208DF80200F7
:101CD0000121402000F05CFA0220ADF800006946C6
:101CE0000B48FFF7B7FD10208DF8030003208DF897
:101CF00002000121202000F04BFA4FF48050ADF893
:101D0000000069460148FFF7A5FD08BD0014014029
:101D10000018014008B5FFF78BFFFFF746FF0120D1
:101D2000FFF732FE00F056F900F03CF84FF6FF7076
:101D30004FF4A073F022002100900846FFF736FE12
:101D400008BD2DE9F04104460D4616461F462A20DF
:101D500000F054F9201200F055F9E0B200F052F909
:101D6000A119491EC1F30F2000F04CF9A119491E19
:101D7000C8B200F047F92B2000F040F9281200F01B
:101D800041F9E8B200F03EF9E919491EC1F30F200C
:101D900000F038F9E919491EC8B200F033F9BDE87E
:101DA000F081000010B5CF2000F028F9002000F0ED
:101DB00029F9812000F026F9302000F023F9ED20E8
:101DC00000F01CF9642000F01DF9032000F01AF95E
:101DD000122000F017F9812000F014F9E82000F03B
:101DE0000DF9852000F00EF9102000F00BF9782095
:101DF00000F008F9CB2000F001F9392000F002F9D9
:101E00002C2000F0FFF8002000F0FCF8342000F057
:101E1000F9F8022000F0F6F8F72000F0EFF82020A3
:101E200000F0F0F8EA2000F0E9F8002000F0EAF80D
:101E3000002000F0E7F8B12000F0E0F8002000F00A
:101E4000E1F81B2000F0DEF8B62000F0D7F80A20F9
:101E500000F0D8F8A22000F0D5F8C02000F0CEF8AD
:101E6000352000F0CFF8C12000F0C8F8112000F0B4
:101E7000C9F8C52000F0C2F8452000F0C3F845209D
:101E800000F0C0F8C72000F0B9F8A22000F0BAF8BE
:101E9000F22000F0B3F8002000F0B4F8262000F0A3
:101EA000ADF8012000F0AEF8E02000F0A7F80F2018
:101EB00000F0A8F8262000F0A5F8242000F0A2F8F1
:101EC0000B2000F09FF80E2000F09CF8092000F095
:101ED00099F8542000F096F8A82000F093F84620D6
:101EE00000F090F80C2000F08DF8172000F08AF830
:101EF000092000F087F80F2000F084F8072000F098
:101F000081F8002000F07EF8E12000F077F8002052
:101F100000F078F8192000F075F81B2000F072F836
:101F2000042000F06FF8102000F06CF8072000F09B
:101F300069F82A2000F066F8472000F063F839209D
:101F400000F060F8032000F05DF8062000F05AF879
:101F5000062000F057F8302000F054F8382000F048
:101F600051F80F2000F04EF8362000F047F8C82056
:101F700000F048F82A2000F041F8002000F042F874
:101F8000002000F03FF8002000F03CF8EF2000F0C7
:101F900039F82B2000F032F8002000F033F8002050
:101FA00000F030F8012000F02DF83F2000F02AF872
:101FB0003A2000F023F8552000F024F8112000F01A
:101FC0001DF80348FEF7E5F8292000F017F810BDCA
:101FD000FCBF020010B502210648FFF7CFFC0648FF
:101FE000FEF7D7F802210348FFF7CAFC0248FEF7C4
:101FF000D0F810BD00180140FCBF02004FF0C041F6
:1020000008807047014908807047000000000260A6
:1020100008B501214FF0C05000F0AAF8012000F0EF
:102020008FF84FF4407000F0C9F8012000F0C0F8BC
:1020300000F040F900F048F900F0D6F83E2000F03A
:1020400029F900F037F9002000F016F900F032F914
:102050004FF6FF701B49088000F02CF94FF6FF7017
:102060001849091D088000F025F90121022000F01F
:10207000F3F814481C38008800F0020011491C399C
:10208000088000F017F900F0B9F829208DF8000059
:1020900000208DF801008DF8020001208DF803006A
:1020A000684600F015F803208DF8000000208DF838
:1020B00001008DF8020001208DF80300684600F051
:1020C00007F808BD2028004000BFFEE77047000069
:1020D00070B5002100230F22C47804B3154C246886
:1020E00004F4E064C4F5E064210AC1F10403CA40C9
:1020F000447804FA03F184781440214309010E4C1A
:102100000678A155047804F01F050124AC40057839
:102110006D11AD0005F1E025C5F8004109E0047836
:1021200004F01F050124AC40044D0678761145F8F3
:10213000264070BD0CED00E000E400E080E100E02E
:10214000014908627047000000000E42704700001D
:1021500029B1064A52690243044B5A6104E0034A1A
:1021600052698243014B5A617047000000100240DF
:1021700029B1064AD2690243044BDA6104E0034AFA
:10218000D2698243014BDA617047000000100240BF
:1021900029B1064A92690243044B9A6104E0034A5A
:1021A00092698243014B9A6170470000001002401F
:1021B00001490860704700003C0442420249096A34
:1021C0000143014A116270470010024010B502201D
:1021D00000F002F810BD0000024909888143014A5D
:1021E00011807047042800400348008840F0100028
:1021F0000149088070470000042800400348008817
:102200004FF6EF71084001490880704704280040EC
:1022100001460020064A12880A40D0B2044A121F22
:1022200012880A4012B108B1012000E00020704776
:102230000428004010B50220FFF7EAFF012808D16A
:102240000220FFF7C9FF0348006810B10148006889
:10225000804710BD0000002029B1064A12880243C1
:10226000044B1A8004E0034A12888243014B1A800F
:10227000704700000028004000B50246FFF7B4FF99
:10228000100C03490880091D0A80FFF7B7FF00BD45
:102290001828004000B50246FFF7A6FFC2F303402E
:1022A00003490880091D0A80FFF7A8FF00BD000050
:1022B0000828004000BF0348008800F020000028E4
:1022C000F9D0704704280040074800884FF6F7719E
:1022D00008400549088000BF0348008800F0080056
:1022E0000028F9D07047000004280040704710B55E
:1022F00000F002F810BD00000CB500200190009025
:102300003348006840F480303149086000BF3048ED
:10231000006800F4003000900198401C0190009883
:1023200018B90198B0F5A06FF1D12948006800F400
:10233000003010B10120009001E0002000900098D2
:10234000012843D12348006840F01000214908606B
:102350000846006820F0030008600846006840F066
:10236000020008601A4840681949486008464068F9
:1023700048600846406840F480604860084640680D
:1023800020F47C1048600846406840F4E81048603B
:102390000846006840F08070086000BF0C48006884
:1023A00000F000700028F9D00948406820F00300D0
:1023B000074948600846406840F00200486000BF96
:1023C0000348406800F00C000828F9D10CBD00005B
:1023D000001002400020024010B5044674B90121EB
:1023E000084600F0B9F81420FDF7E6FE00210120B0
:1023F00000F0B2F81420FDF7DFFE00BF00BF10BDF3
:102400007047000010B51348006840F00100114902
:10241000086008464068104908400E494860084670
:1024200000680E4908400B4908600846006820F41F
:10243000802008600846406820F4FE0048604FF4A1
:102440001F008860FFF753FF4FF0006004490860E9
:1024500010BD0000001002400000FFF8FFFFF6FE74
:1024600008ED00E000BFFEE702E008C8121F08C147
:10247000002AFAD170477047002001E001C1121F05
:10248000002AFBD17047000030B5044600250EE05D
:102490000848FDF791FE0121002000F05DF8054895
:1024A000FDF78AFE0021084600F056F86D1CA54293
:1024B000EEDB30BDA086010070B50546072D46D283
:1024C000DFE805F0040D161F28313B0001212148EB
:1024D000FFF74BFA08B1002400E0012437E00221A5
:1024E0001C48FFF742FA08B1002400E001242EE066
:1024F00020211848FFF739FA08B1002400E0012430
:1025000025E040211348FFF730FA08B1002400E02D
:1025100001241CE080210F48FFF727FA08B10024AE
:1025200000E0012413E04FF480710A48FFF71DFA20
:1025300008B1002400E0012409E04FF400710548CF
:10254000FFF713FA08B1002400E0012400BF00BF28
:10255000204670BD000C014007284DD2DFE800F096
:10256000040E18222C36400019B90422234B1A609D
:1025700003E00422214B1B1F1A603DE019B9082219
:102580001E4B1A6003E008221C4B1B1F1A6033E02D
:1025900019B91022194B1A6003E01022174B1B1FA8
:1025A0001A6029E019B92022144B1A6003E0202296
:1025B000124B1B1F1A601FE019B940220F4B1A6003
:1025C00003E040220D4B1B1F1A6015E019B9802251
:1025D0000A4B1A6003E08022084B1B1F1A600BE0B5
:1025E00021B94FF48072054B1A6004E04FF48072F9
:1025F000024B1B1F1A6000BF00BF70471408014048
:1026000008B5FFF787FBFFF7F9F8FFF701FD022098
:10261000FFF73AFFFEA20A210846FFF7A5FA4FF698
:10262000FF704FF4A073F022002100900846FFF7DE
:10263000BDF900F0D5FDFC4908600520FB490860A4
:102640000220FB490860FDE3F848006800287DD1BE
:10265000F849086000F0C4FDF749086008460068C2
:10266000F1490968401AB0F57A7F0DDD4FF6FF7029
:102670004FF4A073F022002100900846FFF796F96E
:1026800000F0AEFDE8490860E8480068FDF7A2FDEB
:10269000E7480068FFF79FF90120FFF70DFF0128C9
:1026A0000ED1E3480068032805DAE1480068401CC1
:1026B000DF49086002E00020DD490860FDF772FD97
:1026C0000020FFF7F9FE01280ED1D9480068002844
:1026D00005DDD7480068401ED549086002E00320A8
:1026E000D3490860FDF75EFDD148006890B9042029
:1026F000FFF7E2FE01280DD1CE48006850B9012055
:10270000CA490860CA490860CC490860C9490860DC
:10271000FDF748FDC6480068012811D10420FFF7E5
:10272000CBFE01280CD1C348006848B90220BF493C
:1027300008600120BE490860BE490860FDF732FD0F
:10274000BB480068022813D1042000E026E0FFF710
:10275000B3FE01280CD1B748006848B90320B3493B
:1027600008600120B2490860B2490860FDF71AFD0F
:10277000AF480068032811D10420FFF79DFE01280F
:102780000CD1AC48006848B90420A8490860012071
:10279000A7490860A7490860FDF704FDA348006841
:1027A00001287DD10020A349086000F019FDA2494D
:1027B0000860084600689C490968401AB0F57A7FAD
:1027C0000DDD4FF6FF704FF4A073F0220021009052
:1027D0000846FFF7EBF800F003FD934908609348C3
:1027E0000068FDF7F7FC92480068FFF7F4F8012055
:1027F000FFF762FE01280ED18D480068032805DA34
:102800008B480068401C8A49086002E00120884922
:102810000860FDF7C7FC0020FFF74EFE01280ED12F
:1028200083480068012805DD81480068401E804912
:10283000086002E003207E490860FDF7B3FC7C4895
:102840000068012812D10420FFF736FE01280DD1BF
:102850007848006850B9052074490860022074491E
:102860000860012073490860FDF79CFC704800680F
:10287000022811D10420FFF71FFE01280CD16D485A
:10288000006848B909206949086001206849086062
:1028900068490860FDF786FC65480068032800E089
:1028A00014E013D10420FFF707FE01280ED1614880
:1028B000006858B900205D4908605D4908605F49BB
:1028C000086001205B490860FDF76CFC5748006810
:1028D00005287DD100205749086000F081FC564949
:1028E00008600846006850490968401AB0F57A7FC8
:1028F0000DDD4FF6FF704FF4A073F0220021009021
:102900000846FFF753F800F06BFC4749086047485A
:102910000068FDF75FFC46480068FFF75CF801209F
:10292000FFF7CAFD01280ED141480068062805DAE4
:102930003F480068401C3E49086002E002203C49D4
:102940000860FDF72FFC0020FFF7B6FD01280ED12F
:1029500037480068022805DD35480068401E3449C4
:10296000086002E0062032490860FDF71BFC0020E9
:10297000FFF7A2FD90B90120FFF79EFD70B902207C
:10298000FFF79AFD50B90320FFF796FD30B90420F8
:10299000FFF792FD10B92A482A49086024480068C8
:1029A000022819D1FFF788FD012815D126480068B3
:1029B000401E2549086023480068FDF7FDFB2148BB
:1029C00000680A2808DD1F480068A0F51C5000E0D8
:1029D000DDE010381B49086015480068022837D12F
:1029E0000320FFF769FD012832D117480068401C19
:1029F0001549086013480068FDF7DEFB11480068C0
:102A00000A2825DD0F480068A0F51C5010381DE08D
:102A1000496E697469616C697A65696E67202E2EEA
:102A20002E202E2E2E0000007C0000201C000020F6
:102A300020000020840000208000002024000020CE
:102A400020A107008C00002028000020FE4908601B
:102A5000FE480068032818D10220FFF72DFD012849
:102A600013D1FB480068401EF9490860F648006829
:102A7000FDF7A2FBF44800680A2806DDF24800686A
:102A8000A0F51C501038F0490860F0480068032891
:102A900017D1FFF711FD012813D1ED480068401C44
:102AA000EB490860E8480068FDF786FBE6480068E7
:102AB0000A2806DDE4480068A0F51C501038E249F9
:102AC0000860E2480068042818D10220FFF7F4FCEF
:102AD000012813D1DF480068401EDE490860DA484B
:102AE0000068FDF769FBD84800680A2806DDD6486B
:102AF0000068A0F51C501038D3490860D34800681E
:102B0000042818D10320FFF7D7FC012813D1D1489E
:102B10000068401CCF490860CB480068FDF74CFBBB
:102B2000C94800680A2806DDC7480068A0F51C509F
:102B30001038C5490860C5480068052812D104202E
:102B4000FFF7BAFC01280DD1C348006850B9062030
:102B5000C24908600220BD4908600120BE490860E2
:102B6000FDF720FBB9480068062810D10420FFF7C4
:102B7000A3FC01280BD1B848006840B90120B7492F
:102B80000860B2490860B4490860FDF70BFBB34820
:102B9000006806287ED10020AF49086000F020FBC5
:102BA000AF49086008460068AE490968401AB0F5A8
:102BB0007A7F0DDD4FF6FF704FF4A073F0220021F5
:102BC00000900846FEF7F2FE00F00AFBA5490860F7
:102BD000A2480068FDF7FEFA9C480068FEF7FBFE7D
:102BE0000120FFF769FC01280ED1984800680628EB
:102BF00005DA96480068401C9449086002E002200B
:102C000092490860FDF7CEFA0020FFF755FC012835
:102C10000ED18E480068022805DD8C480068401EF1
:102C20008A49086002E0062088490860FDF7BAFA80
:102C30000020FFF741FC90B90120FFF73DFC70B97F
:102C40000220FFF739FC50B90320FFF735FC30B9FB
:102C50000420FFF731FC10B983487B4908607B48AA
:102C60000068022819D1FFF727FC012815D17F48F9
:102C70000068401E7D49086073480068FDF79CFAB3
:102C8000714800680A2808DD6F480068A0F51C50EC
:102C9000103800E0BEE06C4908606C48006802280B
:102CA00018D10320FFF708FC012813D16F480068F2
:102CB000401C6E49086064480068FDF77DFA624870
:102CC00000680A2806DD60480068A0F51C5010382E
:102CD0005D4908605D480068032818D10220FFF7AD
:102CE000EBFB012813D162480068401E6049086070
:102CF00055480068FDF760FA534800680A2806DD69
:102D000051480068A0F51C5010384F4908604F48E2
:102D10000068032817D1FFF7CFFB012813D15448CF
:102D20000068401C5249086047480068FDF744FAB3
:102D3000454800680A2806DD43480068A0F51C5095
:102D400010384149086041480068042818D1022021
:102D5000FFF7B2FB012813D146480068401E4549E1
:102D6000086039480068FDF727FA374800680A28E4
:102D700006DD35480068A0F51C501038324908605F
:102D800032480068042818D10320FFF795FB01287A
:102D900013D138480068401C364908602A4800684A
:102DA000FDF70AFA284800680A2806DD2648006868
:102DB000A0F51C50103824490860244800680528F4
:102DC00011D10420FFF778FB01280CD122480068BC
:102DD00048B907202149086001201C4908601E49A4
:102DE0000860FDF7DFF919480068062812D10420B1
:102DF000FFF762FB01280DD11748006850B9052084
:102E00001649086002201149086001201249086033
:102E1000FDF7C8F91148006807287DD10F48006800
:102E2000FDF7D8F909480068FEF7D5FD0120FFF746
:102E300043FB012827D105480068052820DA03480C
:102E4000006819E092E100008C00002020000020C2
:102E50002C00002030000020840000201C000020F6
:102E6000800000207C00002020A10700340000200A
:102E7000380000203C000020401CC149086002E0EE
:102E80000120BF4908600020FFF716FB01280CD184
:102E9000BB480068012805DDB9480068401EB849F4
:102EA000086002E00520B6490860B54800680128BE
:102EB00009D10220FFF700FB012804D1B1480068C6
:102EC000401EB0490860AE480068012809D10320BF
:102ED000FFF7F2FA012804D1AA480068401CA9496A
:102EE0000860A7480068022808D1FFF7E5FA012822
:102EF00004D1A5480068401EA3490860A0480068A6
:102F000002280BD10320FFF7D7FA012806D19E48EB
:102F10000068401C9C4900E0A6E0086098480068F2
:102F2000032809D10220FFF7C7FA012804D19748E6
:102F30000068401E9549086091480068032808D140
:102F4000FFF7BAFA012804D190480068401C8F4965
:102F500008608B480068042877D1FFF7ADFA012894
:102F600073D108208A490860032085490860854894
:102F700000688549096848438649086086490968A8
:102F8000864A1268881A002801DB014600E04142A7
:102F9000834A1160104600687A49096890FBF1F095
:102FA000804908607C4800687C490968884203DDE4
:102FB00001207D49086002E000207B4908607B49D0
:102FC00009687B4A1268881A002801DB014600E084
:102FD0004142784A1160104600686A49096890FBCE
:102FE000F1F07549086071480068714909688842C4
:102FF00003DD01207149086002E000206F4908608C
:103000006F4909686F4A1268881A002801DB014677
:1030100000E041426C4A1160104600685949096855
:1030200090FBF1F0694908606548006865490968E6
:10303000884204DD01206649086003E005E00020C5
:10304000634908600020634908604D48006805280E
:103050000AD10420FFF730FA012805D106204C4997
:1030600008600120464908604948006808287DD169
:1030700047480068FDF7AEF841480068FEF7ABFC32
:103080000120FFF719FA01280CD13D4800680428F7
:1030900005DA3B480068401C3949086002E003201B
:1030A000374908600020FFF707FA01280CD134489F
:1030B0000068032805DD32480068401E304908607A
:1030C00002E004202E4908602D48006803280AD138
:1030D0000420FFF7F1F9012805D158202C49086098
:1030E0000320274908602648006804280AD1FFF712
:1030F000E3F9012806D1002025490860204908602D
:103100003549086000F06CF832490968401A3349C3
:10311000B0FBF1F11D4800681B4A1268104481425F
:1031200004D900F090F800202A49086000F058F80F
:1031300028490968401A2949B0FBF1F01349096888
:1031400088421BD900F07FF8002316481946026810
:103150001548006800F04EF8012317480021026866
:103160001648006800F046F8022300E006E0174821
:10317000002102681648006800F03CF8FFF764BAC6
:1031800020000020400000204400002048000020D3
:103190001C000020580000202800002034000020DF
:1031A0005C000020680000204C0000202C00002063
:1031B00038000020600000206C000020500000203B
:1031C000300000203C00002064000020700000203F
:1031D00054000020740000202400002040420F0012
:1031E000034800880249091F098800EB0140704725
:1031F0001C2800402DE9F04306460F4690469946AC
:1032000017B1012F06D102E041F2883402E042F208
:10321000107400BF00BF012E04D101210220FFF76E
:103220009BF903E000210220FFF796F9002506E054
:103230004846FFF7D1F82046FCF7BEFF6D1C454518
:10324000F6DBBDE8F08300B501210620FFF784F925
:1032500000210620FFF780F900BD000000000000FB
:1032600000000000000000000000000000183C3CCE
:103270003C18180018180000000000000066666680
:10328000000000000000000000000000006C6CFE68
:103290006C6C6CFE6C6C000000000018183C66063C
:1032A0000C183060663C1818000000000E1B5B6EA6
:1032B00030180C76DAD8700000000000001C36369A
:1032C0001C06F66666DC00000000000000181818F6
:1032D000000000000000000000000000003018188E
:1032E0000C0C0C0C0C18183000000000000C181806
:1032F000303030303018180C000000000000006C36
:1033000038FE386C000000000000000000000018CB
:10331000187E1818000000000000000000000000E7
:1033200000000000383830180000000000000000E5
:10333000007E00000000000000000000000000000F
:10334000000000003838000000000000006060301D
:103350003018180C0C060600000000000078CCECB9
:10336000ECCCDCDCCC780000000000000030383E03
:10337000303030303030000000000000003C666625
:103380006030180C067E000000000000003C6666FD
:1033900060386066663C000000000000000C0C6CA9
:1033A0006C6C66FE6060000000000000007E060697
:1033B000063E6060301E0000000000000038180C5F
:1033C0003E666666663C000000000000007E6030DD
:1033D0003018180C0C0C000000000000003C666661
:1033E0006E3C7666663C000000000000003C6666AD
:1033F00066667C30181C00000000000000000038E9
:1034000038000000383800000000000000000038DC
:103410003800000038383018000000000060301814
:103420000C060C18306000000000000000000000D6
:103430007E007E00000000000000000000060C1866
:10344000306030180C06000000000000003C66668A
:10345000301818001818000000000000007EC3C3D8
:10346000F3DBDBF303FE00000000000000183C6605
:1034700066667E666666000000000000003E6666C6
:10348000663E6666663E000000000000003C666620
:1034900006060666663C000000000000001E366658
:1034A00066666666361E000000000000007E0606A6
:1034B000063E0606067E000000000000007E0606AE
:1034C000063E06060606000000000000003C666698
:1034D00006067666667C00000000000000666666F0
:1034E000667E66666666000000000000003C1818F4
:1034F00018181818183C00000000000000606060F8
:1035000060606066663C0000000000000066663691
:10351000361E36366666000000000000000606060D
:1035200006060606067E00000000000000C6C6EE85
:10353000D6D6D6C6C6C600000000000000C6C6CE5D
:10354000DEF6E6C6C6C6000000000000003C666667
:1035500066666666663C000000000000003E666627
:10356000663E06060606000000000000003C666697
:1035700066666666663C306000000000003E666677
:10358000663E36666666000000000000003C660687
:103590000C183060663C000000000000007E181827
:1035A0001818181818180000000000000066666659
:1035B00066666666663C000000000000006666669F
:1035C000666666663C1800000000000000C6C6C6BD
:1035D000D6D6D66C6C6C0000000000000066662C2D
:1035E0001818346666660000000000000066666613
:1035F000663C18181818000000000000007E60608B
:1036000030180C06067E000000000000003C0C0C88
:103610000C0C0C0C0C0C0C0C3C0000000006060CF6
:103620000C1818303060600000000000003C3030A2
:1036300030303030303030303C0000183C66000014
:10364000000000000000000000000000000000007A
:103650000000000000000000FF00001C1830000007
:103660000000000000000000000000000000003C1E
:1036700060607C66667C0000000000000006063E7C
:1036800066666666663E0000000000000000003CC2
:1036900066060606663C0000000000000060607CD4
:1036A00066666666667C0000000000000000003C64
:1036B00066667E06063C00000000000000780C0CE8
:1036C0000C7E0C0C0C0C0000000000000000007CC4
:1036D00066666666667C60603E0000000006063E28
:1036E0006666666666660000000000001818001E28
:1036F00018181818187E0000000000003030003C38
:1037000030303030303030301E00000000060666A9
:1037100066361E366666000000000000001E18189F
:1037200018181818187E0000000000000000007E25
:10373000D6D6D6D6D6C60000000000000000003E57
:103740006666666666660000000000000000003CD9
:1037500066666666663C0000000000000000003EF1
:1037600066666666663E0606060000000000007C8F
:1037700066666666667C6060600000000000006649
:10378000760E060606060000000000000000007C21
:1037900006063C60603E000000000000000C0C7E4D
:1037A0000C0C0C0C0C7800000000000000000066FF
:1037B00066666666667C0000000000000000006629
:1037C000666666663C18000000000000000000C647
:1037D000D6D6D6D66C6C0000000000000000006653
:1037E000663C183C666600000000000000000066B1
:1037F00066666666663C30180F0000000000007EBA
:103800006030180C067E0000000000000030181820
:10381000180C060C181818300000000000181818B2
:10382000181818181818181818000000000C181884
:10383000183060301818180C00000000008EDB7182
:103840000000000000000000000000006C380008CC
:1038500000000020C400000068240008303900087F
:10386000C4000020040400007824000800000000C8
:103870000000000000000000000000000000000048
:103880000000000000000000000000000000000038
:103890000000000000000000000000000000000028
:1038A0000000000000000000000000000000000018
:1038B0000000000000000000000000000000000008
:1038C00000000000000000000000000000000000F8
:1038D00000000000000000000000000000000000E8
:1038E00000000000000000000000000000000000D8
:1038F00000000000000000000000000000000000C8
:1039000000000000000000000000000000000000B7
:1039100000000000000000000000000000000000A7
:103920000000000000000000000000000000000097
:0400000508000131BD
:00000001FF
