:020000040800F2
:10000000E00400204501000851240008091D0008F3
:100010004D240008CB030008E92700080000000079
:100020000000000000000000000000007126000831
:10003000CF03000800000000D12400088527000835
:100040005F0100085F0100085F010008B925000892
:100050005F0100085F0100085F0100085F01000800
:100060005F0100085F0100085F0100085F010008F0
:100070005F0100085F0100085F0100085F010008E0
:100080005F0100085F0100085F0100085F010008D0
:100090005F0100085F0100085F0100085F010008C0
:1000A0005F0100085F0100085F0100085F010008B0
:1000B0005F0100085F0100085F0100085F010008A0
:1000C0005F0100085F0100085F0100085F01000890
:1000D0005F0100085F0100085F0100085F01000880
:1000E0005F010008512500085F0100085F0100085A
:1000F0005F0100085F0100085F0100085F01000860
:100100005F0100085F0100085F0100085F0100084F
:100110005F0100085F0100085F0100085F0100083F
:100120005F0100085F0100085F0100085F0100082F
:10013000DFF80CD000F028F90048004785290008B6
:10014000E00400200648804706480047FEE7FEE737
:10015000FEE7FEE7FEE7FEE7FEE7FEE7FEE7FEE777
:1001600089270008310100082DE9FE4F81EA0304C8
:1001700004F0004421F0004100944FF0000B23F004
:10018000004350EA01045ED052EA03045BD0C3F39B
:100190000A54C1F30A552C44A4F2F3340194A0FB91
:1001A0000254C1F3130141F48011C3F3130343F468
:1001B000801301FB024400FB034E840A970A44EAC1
:1001C000815447EA8357A4FB076802958D0A05FB13
:1001D00007854FEA932C04FB0C542705029D4FEA38
:1001E000065847EA1637B5EB08056EEB070C870E85
:1001F000920E47EA811742EA8312A7FB0201B6EB8F
:100200000B0164EB00042B0D43EA0C335E1844EB46
:100210001C50DA465146E7FB0201C5F313044FEACE
:100220000B3343EA14534FEA0432019C43EA0603BA
:10023000A4F10C040294009CCDE900B400F055F840
:1002400003B0BDE8F08F00200146F9E70EB5C10FFD
:1002500080EAE0700844CA07002140F233438DE889
:100260000E000A460B4600F040F803B000BD70B522
:10027000C1F30A5201F000450024C1F3130140F21A
:10028000FF3341F480119A4201DA002070BD40F240
:1002900033439A42A2F2334203DC524200F006F8A2
:1002A00000E090402C43F1D0404270BD202A04DB96
:1002B000203A21FA02F00021704721FA02F3D040DF
:1002C000C2F12002914008431946704710B5141E30
:1002D00073F1000408DA401C41F1000192185B41FF
:1002E0001A4301D120F0010010BD2DE9F04D9246D6
:1002F0009B4611B1B1FA81F202E0B0FA80F22032ED
:10030000904600F053F804460F4640EA0A0041EADE
:100310000B0153465A46084313D0114653EA0100D5
:1003200019D0C8F140025046FFF7C0FF05460E46FF
:1003300050465946424600F039F8084305D001209E
:1003400004E020463946BDE8F08D0020054346EA2A
:10035000E0762C4337430A986305E40AA0EB0800D3
:100360000022FD0A44EA47540A3002D50020014623
:10037000E9E7010510196941DDE9084500196941FE
:10038000BDE8F04DA2E70000064C074D06E0E0682E
:1003900040F0010394E8070098471034AC42F6D3CC
:1003A000FFF7CAFEAC400008CC400008202A04DB5E
:1003B000203A00FA02F1002070479140C2F1200378
:1003C00020FA03F319439040704700BFFEE77047DF
:1003D00001B502E00098401E009000980028F9D175
:1003E00008BD000000B5012002F010FA014800F03D
:1003F00003F800BD20A1070007E0022100E000BFD4
:100400000A1EA1F10101FAD100BF011EA0F10100F5
:10041000F3D1704710B50446082C7DD00CDC082CB5
:1004200081F00483DFE814F018002E003A0A390A3C
:10043000390A4300540108030B2C01F09A8005DCB3
:10044000092C6AD00A2C41F0F182FCE30C2C01F05B
:100450003D82582CF7D1F7E3F1A20A21142001F0D4
:1004600045FDF3A21E21142001F040FDF3A232212C
:10047000142001F03BFDF4A24621142001F036FDCA
:1004800001F0D4BAE6A20A21084601F02FFDF1A23C
:100490001E21142001F02AFDF3A23221142001F0C4
:1004A00025FDF8A24621142001F020FDE8E7F7A27F
:1004B0000A21084601F01AFDFBA21E210A2001F0C4
:1004C00015FDFEA23221142001F010FDFE48006847
:1004D0004FF47A7190FBF1F00A2190FBF1F201FBED
:1004E00012003030F9490870F7480068642190FB29
:1004F000F1F00A2190FBF1F201FB12003030F449D7
:100500000870F14800680A2190FBF1F090FBF1F2CD
:1005100001FB1200303001E0A4E3FDE3ED49087077
:10052000E94800680A2190FBF1F201FB120030302B
:10053000E9490870E54802783221642001F0A4FC02
:10054000E348027832216E2001F09EFCE1480278F7
:100550003221782001F098FCDF4802783221822095
:1005600001F092FCDDA232218C2001F0BFFCDCA264
:100570004621142001F0BAFCDC4800684FF47A717F
:1005800090FBF1F00A2190FBF1F201FB12003030F8
:10059000D7490870D5480068642190FBF1F00A2122
:1005A00090FBF1F201FB12003030D2490870CF48C5
:1005B00000680A2190FBF1F090FBF1F201FB1200C0
:1005C0003030CD490870C94800680A2190FBF1F22B
:1005D00001FB12003030C9490870C5480278462135
:1005E000642001F051FCC348027846216E2001F0DE
:1005F0004BFCC14802784621782001F045FCBF48F9
:1006000002784621822001F03FFCB4A246218C20D2
:1006100001F06CFCBAA25A21142001F067FCBB481F
:1006200000684FF47A7190FBF1F00A2190FBF1F22F
:1006300001FB12003030B6490870B44800686421EC
:1006400090FBF1F00A2190FBF1F201FB1200303037
:10065000B0490870AD4800680A2190FBF1F090FBAA
:10066000F1F201FB12003030AB490870A748006876
:100670000A2190FBF1F201FB12003030A74908700B
:10068000A34802785A21642001F0FEFBA1480278B9
:100690005A216E2001F0F8FB9F4802785A217820F9
:1006A00001F0F2FB9D4802785A21822001F0ECFB18
:1006B0008AA25A218C2001F019FC99A26E211420E3
:1006C00001F014FC6FA28221142001F00FFCD7E688
:1006D0006EA20A21084601F009FC92A21E210A20FE
:1006E00001F004FC75A23221142001F0FFFB9248B6
:1006F00000684FF47A7190FBF1F00A2190FBF1F25F
:1007000001FB120030308D4908708B48006864216D
:1007100090FBF1F00A2190FBF1F201FB1200303066
:1007200087490870844800680A2190FBF1F090FB2B
:10073000F1F201FB12003030824908707E480068F7
:100740000A2190FBF1F201FB120030307E49087063
:100750007A4802783221642001F096FB78480278CA
:1007600032216E2001F090FB764802783221782009
:1007700001F08AFB744802783221822001F084FB68
:1007800056A232218C2001F0B1FB55A24621142043
:1007900001F0ACFB6D4800684FF47A7190FBF1F00A
:1007A0000A2190FBF1F201FB120030306849087019
:1007B00066480068642190FBF1F00A2190FBF1F299
:1007C00001FB1200303063490870604800680A215C
:1007D00090FBF1F090FBF1F201FB120030305E492A
:1007E00008705A4800680A2190FBF1F201FB1200E0
:1007F00030305A490870564802784621642001F08A
:1008000043FB5448027846216E2001F03DFB5248DC
:1008100002784621782001F037FB504802789FE0AB
:1008200054696D65204C61707365204D6F6465007F
:10083000566964656F204D6F646500004D616E758B
:10084000616C204D6F64650053657474696E6773E5
:1008500000000000496E74657261637469766520FA
:100860004D6F646500000000496E70757420506122
:1008700072616D6574657273204D616E75616C6C2B
:100880007900000052657475726E0000506C6561ED
:10089000736520736C6577207468652063616D658E
:1008A000726120746F00000074686520454E44201A
:1008B000706F736974696F6E00000000536C696437
:1008C000653A203C3C3C000028000020A0000020AD
:1008D000A1000020A2000020A30000203E3E3E0018
:1008E00050616E3A2020203C3C3C00002C0000204F
:1008F000A4000020A5000020A6000020A7000020E2
:1009000054696C743A20203C3C3C000030000020CC
:10091000A8000020A9000020AA000020AB000020B1
:100920005365740074686520535441525420706FAD
:10093000736974696F6E000034000020AC00002001
:10094000AD000020AE000020AF00002038000020E5
:10095000B0000020B1000020B2000020B300002051
:100960004621822001F090FAAFF2900246218C20BD
:1009700001F0BCFAAFF278025A21142001F0B6FA65
:10098000FE4800684FF47A7190FBF1F00A2190FB69
:10099000F1F201FB12003030F9490870F7480068A5
:1009A000642190FBF1F00A2190FBF1F201FB1200AF
:1009B0003030F4490870F14800680A2190FBF1F0EA
:1009C00090FBF1F201FB12003030EF490870EB4868
:1009D00000680A2190FBF1F201FB12003030EB4974
:1009E0000870E74802785A21642001F04DFAE54882
:1009F00002785A216E2001F047FAE34802785A2122
:100A0000782001F041FAE14802785A21822001F071
:100A10003BFAAFF238125A218C2001F067FAAFF29C
:100A200000126E21142001F061FAAFF2A8128221A7
:100A3000142001F05BFA23E5D5A20A21084601F053
:100A400055FAD9A21E210A2001F050FAD9A232216A
:100A5000142001F04BFADB4800684FF47A7190FBE8
:100A6000F1F00A2190FBF1F201FB12003030D6497F
:100A70000870D4480068642190FBF1F00A2190FBD3
:100A8000F1F201FB12003030D0490870CD48006807
:100A90000A2190FBF1F090FBF1F201FB12003030E3
:100AA000CB490870C74800680A2190FBF1F201FBAE
:100AB00012003030C7490870C348027832217D20C7
:100AC00001F0E2F9C14802783221872001F0DCF917
:100AD000BF4802783221912001F0D6F9BD48027852
:100AE00032219B2001F0D0F9AFF210223221A52053
:100AF00001F0FCF9B8A24621142001F0F7F9BA4838
:100B000000684FF47A7190FBF1F00A2190FBF1F24A
:100B100001FB12003030B5490870B3480068642109
:100B200090FBF1F00A2190FBF1F201FB1200303052
:100B3000AF490870AC4800680A2190FBF1F090FBC7
:100B4000F1F201FB12003030AA490870A648006893
:100B50000A2190FBF1F201FB12003030A649087027
:100B6000A248027846217D2001F08EF9A048027843
:100B70004621872001F088F99E480278462191207D
:100B800001F082F99C48027846219B2001F07CF913
:100B9000AFF2B8224621A52001F0A8F997A25A2168
:100BA000142001F0A3F9994800684FF47A7190FB82
:100BB000F1F00A2190FBF1F201FB12003030944970
:100BC000087092480068642190FBF1F00A2190FBC4
:100BD000F1F201FB120030308E4908708B4800683A
:100BE0000A2190FBF1F090FBF1F201FB1200303092
:100BF00089490870854800680A2190FBF1F201FBE1
:100C00001200303085490870814802785A217D20D1
:100C100001F03AF97F4802785A21872001F034F92F
:100C20007D4802785A21912001F02EF97B48027804
:100C30005A219B2001F028F9AFF260325A21A520F9
:100C400001F054F901E099E38BE1AFF22C326E210F
:100C5000142001F04BF9AFF2D4328221142001F0BC
:100C600045F90DE46EA20A21084601F03FF973A28E
:100C70001E210A2001F03AF9744800684FF47A7195
:100C800090FBF1F00A2190FBF1F201FB12003030F1
:100C90006F4908706D480068642190FBF1F00A21EB
:100CA00090FBF1F201FB120030306A49087067488E
:100CB00000680A2190FBF1F090FBF1F201FB1200B9
:100CC000303065490870614800680A2190FBF1F2F4
:100CD00001FB12003030614908705D4802781E2126
:100CE0006E2001F0D1F85B4802781E21782001F0D7
:100CF000CBF8594802781E21822001F0C5F85748E8
:100D000002781E218C2001F0BFF855A232210A2062
:100D100001F0ECF855A200E022E23221822001F03D
:100D2000E5F852A23221A02001F0E0F85048006816
:100D30004FF4616190FBF1F04E490860084600688D
:100D4000C0EB00104A490968A1EB80003C2190FBF0
:100D5000F1F04949086047480068C0EB4011C1EB19
:100D6000002043490968A1EB001043490968C1EB21
:100D70000111A0EB81004149086081E03C000020A6
:100D8000B4000020B5000020B6000020B70000200D
:100D9000506C6561736520656E74657220666F6C5A
:100DA0006C6F77696E670000706172616D65746564
:100DB0007273000046616D65733A202020203C3C30
:100DC0003C00000040000020B8000020B9000020D6
:100DD000BA000020BB000020496E74657276616C19
:100DE0003A203C3C3C00000044000020BC000020B5
:100DF000BD000020BE000020BF00002053687574B5
:100E00007465723A20203C3C3C0000004800002001
:100E1000C0000020C1000020C2000020C30000204C
:100E200054616B696E672054696D65204C61707305
:100E3000652E2E2E202E2E2E0000000046616D65A0
:100E4000732054616B656E3A20000000940000200E
:100E5000C4000020C5000020C6000020C7000020FC
:100E600054696D65204C6566743A00003A000000D4
:100E70005C000020D0000020D4000020D80000201A
:100E8000FE4800680A2190FBF1F090FBF1F201FBB3
:100E900012003030FA490870F84800680A2190FBC7
:100EA000F1F201FB12003030F6490870F648006894
:100EB0000A2190FBF1F090FBF1F201FB12003030BF
:100EC000F2490870F04800680A2190FBF1F201FB3A
:100ED00012003030EE490870EE4800680A2190FB9D
:100EE000F1F090FBF1F201FB12003030EA4908709A
:100EF000E84800680A2190FBF1F201FB1200303053
:100F0000E6490870DE48027832216E2000F0BCFF0E
:100F1000DC4802783221782000F0B6FFDB48027806
:100F200032218C2000F0B0FFD9480278322196207F
:100F300000F0AAFFD84802783221AA2000F0A4FFCE
:100F4000D64802783221B42000F09EFFD4A2462178
:100F5000142000F0CBFFD4A25A21142000F0C6FFC9
:100F600069E5AFF244120A21084600F0BFFFAFF274
:100F700034121E210A2000F0B9FFCD4800684FF45A
:100F80007A7190FBF1F00A2190FBF1F201FB120063
:100F90003030C8490870C6480068642190FBF1F001
:100FA0000A2190FBF1F201FB12003030C2490870B7
:100FB000BF4800680A2190FBF1F090FBF1F201FBC1
:100FC00012003030BD490870B94800680A2190FB12
:100FD000F1F201FB12003030B9490870B5480278CF
:100FE0001E216E2000F050FFB34802781E217820A9
:100FF00000F04AFFB14802781E21822000F044FF31
:10100000AF4802781E218C2000F03EFFAFF2B012F4
:1010100032210A2000F06AFFAFF2B01232218220A2
:1010200000F064FFAFF2BC123221A02000F05EFF9E
:10103000A44800684FF4616190FBF1F08F490860AB
:1010400008460068C0EB00109E490968A1EB8000CB
:101050003C2190FBF1F08C49086088480068C0EBA7
:101060004011C1EB002097490968A1EB00108649A7
:101070000968C1EB0111A0EB8100864908607F4837
:1010800000680A2190FBF1F090FBF1F201FB1200E5
:1010900030307B490870794800680A2190FBF1F2F2
:1010A00001FB1200303077490870774800680A2148
:1010B00090FBF1F090FBF1F201FB1200303073492C
:1010C0000870714800680A2190FBF1F201FB1200E0
:1010D00030306F4908706F4800680A2190FBF1F0CA
:1010E00090FBF1F201FB120030306B490870694847
:1010F00000680A2190FBF1F201FB120030306749D1
:1011000008705F48027832216E2000F0BDFE5D4815
:1011100002783221782000F0B7FE5C480278322154
:101120008C2000F0B1FE5A4802783221962000F05F
:10113000ABFE594802783221AA2000F0A5FE57489C
:1011400002783221B42000F09FFE5FA246211420D5
:1011500000F0CCFE54A25A21142000F0C7FE6AE42D
:101160005BA20A21084600F0C1FE63A20A210846DC
:1011700000F0BCFE644800684FF47A7190FBF1F017
:101180000A2190FBF1F201FB120030305F49087038
:101190005D480068642190FBF1F00A2190FBF1F2B8
:1011A00001FB120030305A490870574800680A2184
:1011B00090FBF1F090FBF1F201FB12003030554949
:1011C0000870514800680A2190FBF1F201FB1200FF
:1011D0003030514908704D4802781421322000F017
:1011E00053FE4B48027814213C2000F04DFE494844
:1011F00002781421462000F047FE47480278142167
:10120000502000F041FE45A20A21084600F06EFE83
:10121000454800684FF47A7190FBF1F00A2190FB89
:10122000F1F201FB12003030404908703E4800687E
:10123000642190FBF1F00A2190FBF1F201FB120016
:1012400030303B490870384800680A2190FBF1F0C3
:1012500090FBF1F201FB1200303036490870324841
:1012600000680A2190FBF1F201FB12003030324994
:1012700008702E480278142132205FE0D000002050
:10128000C8000020C9000020D4000020CA000020AF
:10129000CB000020D8000020CC000020CD00002092
:1012A000506175736500000053746F70000000009A
:1012B00094000020C4000020C5000020C6000020CB
:1012C000C70000205C000020526573756D6500004A
:1012D000506C6561736520656E7465722074686515
:1012E00020666F6C6C6F77696E6720706172616DDC
:1012F0006574657273000000546F74616C20466100
:101300006D65733A0000000040000020B800002026
:10131000B9000020BA000020BB000020496E7465AF
:101320007276616C3A00000044000020BC0000208E
:10133000BD000020BE000020BF00002000F0A4FD82
:10134000FD48027814213C2000F09EFDFB48027805
:101350001421462000F098FDF9480278142150200D
:1013600000F092FDF7A20A21084600F0BFFDAFF69B
:10137000EC220A21084600F0B9FD57E3F4A20A2145
:10138000084600F0B3FDFCA20A21084600F0AEFDBD
:10139000FE4800684FF47A7190FBF1F00A2190FB4F
:1013A000F1F201FB12003030F9490870F74800688B
:1013B000642190FBF1F00A2190FBF1F201FB120095
:1013C0003030F4490870F14800680A2190FBF1F0D0
:1013D00090FBF1F201FB12003030EF490870EB484E
:1013E00000680A2190FBF1F201FB12003030EB495A
:1013F0000870E74802781421322000F045FDE548E6
:10140000027814213C2000F03FFDE34802781421CB
:10141000462000F039FDE14802781421502000F008
:1014200033FDDFA20A21084600F060FDE1480068B4
:101430004FF47A7190FBF1F00A2190FBF1F201FB7D
:1014400012003030DC490870DA480068642190FBF3
:10145000F1F00A2190FBF1F201FB12003030D74984
:101460000870D44800680A2190FBF1F090FBF1F27B
:1014700001FB12003030D2490870CE4800680A21C2
:1014800090FBF1F201FB12003030CE490870CA48DF
:1014900002781421322000F0F7FCC84802781421A9
:1014A0003C2000F0F1FCC64802781421462000F0F0
:1014B000EBFCC44802781421502000F0E5FCC2A2E5
:1014C0000A21084600F012FDC44800684FF47A7102
:1014D00090FBF1F00A2190FBF1F201FB1200303099
:1014E000BF490870BD480068642190FBF1F00A21F3
:1014F00090FBF1F201FB12003030BA490870B74896
:1015000000680A2190FBF1F090FBF1F201FB120060
:101510003030B5490870B14800680A2190FBF1F2FB
:1015200001FB12003030B1490870AD480278142137
:10153000322000F0A9FCAB48027814213C2000F0D6
:10154000A3FCA94802781421462000F09DFCA7487E
:1015500002781421502000F097FC7AA20A21084654
:1015600000F0C4FCAFF6E4420A21084600F0BEFCDD
:101570005CE2AFF2A4220A21084600F0B7FC9CA26C
:101580000A21084600F0B2FC9D4800684FF47A71C9
:1015900090FBF1F00A2190FBF1F201FB12003030D8
:1015A0009849087096480068642190FBF1F00A2180
:1015B00090FBF1F201FB1200303093490870904823
:1015C00000680A2190FBF1F090FBF1F201FB1200A0
:1015D00030308E4908708A4800680A2190FBF1F289
:1015E00001FB120030308A490870864802781421C5
:1015F000322000F049FC8448027814213C2000F09D
:1016000043FC824802781421462000F03DFC8048CB
:1016100002781421502000F037FC7EA20A210846EF
:1016200000F064FC7F4800684FF47A7190FBF1F0A1
:101630000A2190FBF1F201FB120030307A49087068
:1016400078480068642190FBF1F00A2190FBF1F2E8
:1016500001FB1200303075490870724800680A2199
:1016600090FBF1F090FBF1F201FB12003030704979
:1016700008706C4800680A2190FBF1F201FB12002F
:1016800030306C490870684802781421322000F02C
:10169000FBFB6648027814213C2000F0F5FB64480F
:1016A00002781421462000F0EFFB624802781421F2
:1016B000502000F0E9FB60A20A21084600F016FC69
:1016C000614800684FF47A7190FBF1F00A2190FBB9
:1016D000F1F201FB120030305C4908705A48006892
:1016E000642190FBF1F00A2190FBF1F201FB120062
:1016F000303057490870544800680A2190FBF1F0D7
:1017000090FBF1F201FB12003030524908704E4854
:1017100000680A2190FBF1F201FB120030304E49C3
:1017200008704A4802781421322000F0ADFB484886
:10173000027814213C2091E0BD000020BE00002072
:10174000BF000020436F6E74696E75650000000075
:10175000506C6561736520656E7465722074686590
:1017600020666F6C6C6F77696E6720706172616D57
:101770006574657273200000537461727420506F39
:10178000736974696F6E5F583A000000340000207E
:10179000AC000020AD000020AE000020AF00002013
:1017A000537461727420506F736974696F6E5F59FE
:1017B0003A00000038000020B0000020B1000020F6
:1017C000B2000020B3000020537461727420506F87
:1017D000736974696F6E5F5A3A0000003C00002024
:1017E000B4000020B5000020B6000020B7000020A3
:1017F000454E4420506F736974696F6E5F583A00AC
:1018000028000020A0000020A1000020A20000204D
:10181000A3000020454E4420506F736974696F6EB9
:101820005F593A002C000020A4000020A5000020F1
:10183000A6000020A7000020454E4420506F736989
:1018400074696F6E5F5A3A0030000020A8000020D3
:10185000A9000020AA000020AB00002000F014FB2B
:10186000734802781421462000F00EFB714802787C
:101870001421502000F008FBAFF634220A2108465C
:1018800000F034FBAFF244120A21084600F02EFBB0
:10189000694A0A21084600F029FBC7E0664A543A23
:1018A0000A21084600F022FB634A303A0A21084622
:1018B00000F01CFB604A1C3A0A21084600F016FBA7
:1018C0005D4A0A21084600F011FB00BFAFF200623A
:1018D0000A21084600F00AFBAFF2E4520A2108464A
:1018E00000F004FB554800684FF47A7190FBF1F06A
:1018F0000A2190FBF1F201FB1200303050490870D0
:101900004E480068642190FBF1F00A2190FBF1F24F
:1019100001FB120030304B490870484800680A212A
:1019200090FBF1F090FBF1F201FB120030304649E0
:101930000870424800680A2190FBF1F201FB120096
:101940003030424908703E4802781421322000F0BD
:101950009BFA3C48027814213C2000F095FA3A4862
:1019600002781421462000F08FFA384802781421BA
:10197000502000F089FAAFF25C620A21084600F0BC
:10198000B5FA334800684FF47A7190FBF1F00A2100
:1019900090FBF1F201FB120030302E4908702C4808
:1019A0000068642190FBF1F00A2190FBF1F201FB49
:1019B0001200303028490870254800680A2190FB41
:1019C000F1F090FBF1F201FB120030302349087076
:1019D0001F4800680A2190FBF1F201FB1200303031
:1019E0001F4908701B4802781421322000F04CFA7D
:1019F0001948027814213C2000F046FA1748027872
:101A00001421462000F040FA154802781421502095
:101A100000F03AFAAFF2D4220A21084600F066FA42
:101A2000054A0A21084600F061FA00BF00BF10BD58
:101A3000AA000020AB00002084080008400000201D
:101A4000B8000020B9000020BA000020BB00002030
:101A500044000020BC000020BD000020BE0000208B
:101A6000BF00002051B18200A2F1C042126842F0D2
:101A700001038200A2F1C042136009E08200A2F1DA
:101A8000C0421268034B1A408300A3F1C0431A609E
:101A900070470000FEFF0F00D0E901121143C26839
:101AA0001143026911434269114382691143C269BA
:101AB0001143026A1143426A1143826A1143C26AA6
:101AC0001143026B114302689200A2F1C0421160FF
:101AD000816808290BD101688900A1F1C04109681A
:101AE00041F0400201688900A1F1C0410A60416BE8
:101AF0000968426B526841EA0211426B926841EAFE
:101B00000221426B928941EA0241426B128A41EA08
:101B10000251426B127D41EA0261426B92691143AC
:101B20000268521C9200A2F1C0421160C16AB1F574
:101B3000804F1BD1816B0968826B526841EA0211A8
:101B4000826B926841EA0221826B128A41EA025159
:101B5000826B127D41EA0261826B926911430268D5
:101B60009200A2F1C042C2F8041107E06FF0704287
:101B700001688900A1F1C041C1F80421704700004B
:101B800008B50121042000F0C5FC4FF4FE70ADF84B
:101B9000000010208DF8030003208DF80200694634
:101BA0000B4800F019F84FF47F70094910310860B4
:101BB0000121082000F0AEFC40F2E330ADF8000057
:101BC00004208DF803006946024800F005F808BDBE
:101BD00000080140000C01402DE9F04102460025BB
:101BE0000026002000230024002791F803C00CF0F9
:101BF0000F0591F803C00CF0100CBCF1000F03D0DE
:101C000091F802C04CEA050591F800C0BCF1000F44
:101C100031D0146800202BE04FF0010C0CFA00F3D7
:101C2000B1F800C00CEA03069E4220D183004FF0B9
:101C30000F0C0CFA03F7BC4305FA03FC4CEA04044E
:101C400091F803C0BCF1280F06D14FF0010C0CFA3B
:101C500000FCC2F814C00AE091F803C0BCF1480FC0
:101C600005D14FF0010C0CFA00FCC2F810C0401C6A
:101C70000828D1D31460B1F800C0BCF1FF0F34DDE7
:101C8000546800202EE000F1080C4FF0010808FA1B
:101C90000CF3B1F800C00CEA03069E4221D1830088
:101CA0004FF00F0C0CFA03F7BC4305FA03FC4CEAA7
:101CB000040491F803C0BCF1280F05D100F1080C11
:101CC00008FA0CF8C2F8148091F803C0BCF1480F70
:101CD00007D100F1080C4FF0010808FA0CF8C2F81F
:101CE0001080401C0828CED35460BDE8F081024625
:101CF000002093680B400BB1012000E000207047EA
:101D0000416170470161704700BFFEE710B50446AE
:101D10002CB14FF480510548FFF7F2FF04E04FF477
:101D200080510248FFF7EEFF10BD00000014014093
:101D30002DE9F04106460F4614461D46DDF8188091
:101D40002B4622463946304600F0BDF904FB05F02B
:101D5000414600F01EF9BDE8F08110B50446092C9B
:101D600033D2DFE804F0050A0F14191E23282D00D2
:101D70000F21052000F02BF827E02321052000F09B
:101D800026F822E03721052000F021F81DE04B2144
:101D9000052000F01CF818E05F21052000F017F87E
:101DA00013E07321052000F012F80EE087210520D2
:101DB00000F00DF809E09B21052000F008F804E090
:101DC000AF21052000F003F800BF00BF10BD70B5C3
:101DD00004460D46A9B2A0B205230A2200F073F909
:101DE0000021642000F0D5F86A1C91B204F10A02C7
:101DF00090B20323012200F066F90021122000F0C6
:101E0000C8F8AA1C91B204F10B0290B201231A4641
:101E100000F059F90021012000F0BBF86A1E91B2D0
:101E200004F1080290B20123022200F04CF90021D3
:101E3000122000F0AEF8AA1E91B204F1080290B28E
:101E400001231A4600F03FF90021012000F0A1F81B
:101E50006A1D91B204F1080290B20123022200F03F
:101E600032F90021122000F094F8AA1D91B204F179
:101E7000080290B201231A4600F025F90021012042
:101E800000F087F870BD00002DE9F04780468946D4
:101E90001546A5F1200000F0FF0A1023082249464C
:101EA000404600F010F92C2000F06AFA002417E0F8
:101EB0000D4800EB0A10065D00270DE006F001005A
:101EC00018B11F2000F060FA03E04FF6FF7000F039
:101ED0005BFA7610781CC7B2082FEFDB601CC4B227
:101EE000102CE5DBBDE8F087BA3A000870B505466E
:101EF0000E46144617E028460830F02803DD00257A
:101F000006F1100086B230461030B0F5A07F01DD3A
:101F100000250026227831462846FFF7B5FF641CCD
:101F200005F1080085B220780028E4D170BD00B525
:101F300097B00121080200F0CDFA022001900020A4
:101F400002900520039000200490059006904FF029
:101F50008050079000200890099008200A901020D7
:101F60000B9000200C900E900F9010904FF480502A
:101F70001190002012901390149001A815901690C3
:101F800008A8FFF789FD01210020FFF76BFD17B0BE
:101F900000BD70B504460D4600262C2000F0F0F977
:101FA00000BF03E0284600F0EFF9761CA642F9D303
:101FB00070BD000008B50121084600F0ABFA012110
:101FC000602000F0A7FA03208DF8020018208DF899
:101FD00003004CF20370ADF8000069462C48FFF78F
:101FE000FBFD4FF68070ADF8000069462948FFF709
:101FF000F3FD03208DF8020018208DF80300102057
:10200000ADF8000069462248FFF7E6FD2020ADF854
:10201000000069461E48FFF7DFFD0121202000F087
:1020200079FA8020ADF8000069461948FFF7D4FD21
:102030000121202000F06EFA4FF40060ADF800009E
:1020400069461348FFF7C8FD10208DF803000320F0
:102050008DF802000121402000F05CFA0220ADF86A
:10206000000069460B48FFF7B7FD10208DF803000C
:1020700003208DF802000121202000F04BFA4FF4DC
:102080008050ADF8000069460148FFF7A5FD08BD86
:10209000001401400018014008B5FFF78BFFFFF75F
:1020A00046FF0120FFF732FE00F056F900F03CF841
:1020B0004FF6FF704FF4A073F02200210090084605
:1020C000FFF736FE08BD2DE9F04104460D461646E1
:1020D0001F462A2000F054F9201200F055F9E0B212
:1020E00000F052F9A119491EC1F30F2000F04CF97C
:1020F000A119491EC8B200F047F92B2000F040F9A1
:10210000281200F041F9E8B200F03EF9E919491E41
:10211000C1F30F2000F038F9E919491EC8B200F0E8
:1021200033F9BDE8F081000010B5CF2000F028F9A8
:10213000002000F029F9812000F026F9302000F07D
:1021400023F9ED2000F01CF9642000F01DF90320B4
:1021500000F01AF9122000F017F9812000F014F9AC
:10216000E82000F00DF9852000F00EF9102000F0B5
:102170000BF9782000F008F9CB2000F001F93920A4
:1021800000F002F92C2000F0FFF8002000F0FCF82D
:10219000342000F0F9F8022000F0F6F8F72000F003
:1021A000EFF8202000F0F0F8EA2000F0E9F8002035
:1021B00000F0EAF8002000F0E7F8B12000F0E0F8C5
:1021C000002000F0E1F81B2000F0DEF8B62000F05F
:1021D000D7F80A2000F0D8F8A22000F0D5F8C020E7
:1021E00000F0CEF8352000F0CFF8C12000F0C8F89C
:1021F000112000F0C9F8C52000F0C2F8452000F019
:10220000C3F8452000F0C0F8C72000F0B9F8A220BC
:1022100000F0BAF8F22000F0B3F8002000F0B4F8B3
:10222000262000F0ADF8012000F0AEF8E02000F02C
:10223000A7F80F2000F0A8F8262000F0A5F8242029
:1022400000F0A2F80B2000F09FF80E2000F09CF8A0
:10225000092000F099F8542000F096F8A82000F02A
:1022600093F8462000F090F80C2000F08DF817202D
:1022700000F08AF8092000F087F80F2000F084F8B9
:10228000072000F081F8002000F07EF8E12000F047
:1022900077F8002000F078F8192000F075F81B207E
:1022A00000F072F8042000F06FF8102000F06CF8D5
:1022B000072000F069F82A2000F066F8472000F0B7
:1022C00063F8392000F060F8032000F05DF8062084
:1022D00000F05AF8062000F057F8302000F054F8CB
:1022E000382000F051F80F2000F04EF8362000F0B2
:1022F00047F8C82000F048F82A2000F041F80020F4
:1023000000F042F8002000F03FF8002000F03CF818
:10231000EF2000F039F82B2000F032F8002000F018
:1023200033F8002000F030F8012000F02DF83F20B5
:1023300000F02AF83A2000F023F8552000F024F8A5
:10234000112000F01DF80348FEF742F8292000F0A4
:1023500017F810BDFCBF020010B502210648FFF7B8
:10236000CFFC0648FEF734F802210348FFF7CAFC09
:102370000248FEF72DF810BD00180140FCBF020016
:102380004FF0C04108807047014908807047000045
:102390000000026008B501214FF0C05000F0AAF81B
:1023A000012000F08FF84FF4407000F0C9F80120D0
:1023B00000F0C0F800F040F900F048F900F0D6F85D
:1023C0003E2000F029F900F037F9002000F016F95E
:1023D00000F032F94FF6FF701B49088000F02CF92D
:1023E0004FF6FF701849091D088000F025F90121FA
:1023F000022000F0F3F814481C38008800F00200B6
:1024000011491C39088000F017F900F0B9F82920AB
:102410008DF8000000208DF801008DF802000120E9
:102420008DF80300684600F015F803208DF80000D1
:1024300000208DF801008DF8020001208DF80300C6
:10244000684600F007F808BD2028004000BFFEE7FE
:102450007047000070B5002100230F22C47804B338
:10246000154C246804F4E064C4F5E064210AC1F169
:102470000403CA40447804FA03F1847814402143E9
:1024800009010E4C0678A155047804F01F050124BB
:10249000AC4005786D11AD0005F1E025C5F80041AF
:1024A00009E0047804F01F050124AC40044D0678CF
:1024B000761145F8264070BD0CED00E000E400E028
:1024C00080E100E0014908627047000000000E4210
:1024D0007047000029B1064A52690243044B5A6111
:1024E00004E0034A52698243014B5A61704700007D
:1024F0000010024029B1064AD2690243044BDA6156
:1025000004E0034AD2698243014BDA61704700005C
:102510000010024029B1064A92690243044B9A61B5
:1025200004E0034A92698243014B9A6170470000BC
:102530000010024001490860704700003C0442421C
:102540000249096A0143014A1162704700100240C2
:1025500010B5022000F002F810BD00000249098801
:102560008143014A118070470428004003480088D5
:1025700040F0100001490880704700000428004026
:10258000034800884FF6EF71084001490880704702
:102590000428004001460020064A12880A40D0B2B2
:1025A000044A121F12880A4012B108B1012000E04B
:1025B000002070470428004010B50220FFF7EAFF12
:1025C000012808D10220FFF7C9FF0348006810B1B5
:1025D00001480068804710BD0000002029B1064A6C
:1025E00012880243044B1A8004E0034A1288824393
:1025F000014B1A80704700000028004000B50246D9
:10260000FFF7B4FF100C03490880091D0A80FFF78B
:10261000B7FF00BD1828004000B50246FFF7A6FF2F
:10262000C2F3034003490880091D0A80FFF7A8FF91
:1026300000BD00000828004000BF0348008800F0EB
:1026400020000028F9D0704704280040074800887F
:102650004FF6F77108400549088000BF034800881D
:1026600000F008000028F9D070470000042800405E
:10267000704710B500F002F810BD00000CB5002046
:10268000019000903348006840F480303149086080
:1026900000BF3048006800F4003000900198401CF2
:1026A0000190009818B90198B0F5A06FF1D12948B0
:1026B000006800F4003010B10120009001E000201B
:1026C00000900098012843D12348006840F0100092
:1026D000214908600846006820F0030008600846A9
:1026E000006840F0020008601A48406819494860D4
:1026F0000846406848600846406840F4806048608A
:102700000846406820F47C1048600846406840F461
:10271000E81048600846006840F08070086000BF1C
:102720000C48006800F000700028F9D009484068A3
:1027300020F00300074948600846406840F0020066
:10274000486000BF0348406800F00C000828F9D139
:102750000CBD0000001002400020024010B50446ED
:1027600074B90121084600F0B9F81420FDF744FEC1
:102770000021012000F0B2F81420FDF73DFE00BF5B
:1027800000BF10BD7047000010B51348006840F04E
:1027900001001149086008464068104908400E4988
:1027A0004860084600680E4908400B490860084622
:1027B000006820F4802008600846406820F4FE008D
:1027C00048604FF41F008860FFF753FF4FF0006030
:1027D0000449086010BD0000001002400000FFF82E
:1027E000FFFFF6FE08ED00E000BFFEE702E008C8CC
:1027F000121F08C1002AFAD170477047002001E07B
:1028000001C1121F002AFBD17047000030B50446F9
:1028100000250EE00848FDF7EFFD0121002000F043
:102820005DF80548FDF7E8FD0021084600F056F880
:102830006D1CA542EEDB30BDA086010070B50546DB
:10284000072D46D2DFE805F0040D161F28313B00A6
:1028500001212148FFF74BFA08B1002400E00124D0
:1028600037E002211C48FFF742FA08B1002400E0DB
:1028700001242EE020211848FFF739FA08B100247E
:1028800000E0012425E040211348FFF730FA08B1A9
:10289000002400E001241CE080210F48FFF727FA04
:1028A00008B1002400E0012413E04FF480710A48CD
:1028B000FFF71DFA08B1002400E0012409E04FF4FD
:1028C00000710548FFF713FA08B1002400E0012465
:1028D00000BF00BF204670BD000C014007284DD24C
:1028E000DFE800F0040E18222C36400019B904224B
:1028F000234B1A6003E00422214B1B1F1A603DE0AA
:1029000019B908221E4B1A6003E008221C4B1B1F3A
:102910001A6033E019B91022194B1A6003E0102233
:10292000174B1B1F1A6029E019B92022144B1A609B
:1029300003E02022124B1B1F1A601FE019B940222E
:102940000F4B1A6003E040220D4B1B1F1A6015E06D
:1029500019B980220A4B1A6003E08022084B1B1F22
:102960001A600BE021B94FF48072054B1A6004E045
:102970004FF48072024B1B1F1A6000BF00BF7047EC
:102980001408014008B5FFF787FBFFF7F9F8FFF7D8
:1029900001FD0220FFF73AFFFEA20A210846FFF7D9
:1029A000A5FA4FF6FF704FF4A073F02200210090BB
:1029B0000846FFF7BDF901F043F8FC490860002024
:1029C000FB490860FB49086001F00DB8F848006851
:1029D00000287DD1F849086001F032F8F749086015
:1029E00008460068F1490968401AB0F57A7F0DDDA4
:1029F0004FF6FF704FF4A073F022002100900846BC
:102A0000FFF796F901F01CF8E8490860E84800680B
:102A1000FDF700FDE7480068FFF79FF90120FFF789
:102A20000DFF01280ED1E3480068032805DAE148CC
:102A30000068401CDF49086002E00020DD490860B2
:102A4000FDF7D0FC0020FFF7F9FE01280ED1D94890
:102A50000068002805DDD7480068401ED549086099
:102A600002E00320D3490860FDF7BCFCD1480068B0
:102A700090B90420FFF7E2FE01280DD1CE4800688E
:102A800050B90120CA490860CA490860CC490860A9
:102A9000C9490860FDF7A6FCC6480068012811D1A5
:102AA0000420FFF7CBFE01280CD1C348006848B9C9
:102AB0000220BF4908600120BE490860BE49086085
:102AC000FDF790FCBB480068022813D1042000E009
:102AD00026E0FFF7B3FE01280CD1B748006848B9DB
:102AE0000320B34908600120B2490860B249086078
:102AF000FDF778FCAF480068032811D10420FFF7E8
:102B00009DFE01280CD1AC48006848B90420A849B2
:102B100008600120A7490860A7490860FDF762FC2A
:102B2000A348006801287DD10020A349086000F077
:102B300087FFA2490860084600689C490968401A56
:102B4000B0F57A7F0DDD4FF6FF704FF4A073F022E1
:102B5000002100900846FFF7EBF800F071FF934961
:102B6000086093480068FDF755FC92480068FFF73D
:102B7000F4F80120FFF762FE01280ED18D480068AD
:102B8000032805DA8B480068401C8A49086002E087
:102B9000012088490860FDF725FC0020FFF74EFE64
:102BA00001280ED183480068012805DD81480068AE
:102BB000401E8049086002E003207E490860FDF75E
:102BC00011FC7C480068012812D10420FFF736FE72
:102BD00001280DD17848006850B905207449086073
:102BE000022074490860012073490860FDF7FAFB70
:102BF00070480068022811D10420FFF71FFE012849
:102C00000CD16D48006848B9092069490860012065
:102C10006849086068490860FDF7E4FB654800689A
:102C2000032800E014E013D10420FFF707FE012879
:102C30000ED16148006858B900205D4908605D49BF
:102C400008605F49086001205B490860FDF7CAFB26
:102C50005748006805287DD100205749086000F0DA
:102C6000EFFE564908600846006850490968401A56
:102C7000B0F57A7F0DDD4FF6FF704FF4A073F022B0
:102C8000002100900846FFF753F800F0D9FE4749AD
:102C9000086047480068FDF7BDFB46480068FFF73D
:102CA0005CF80120FFF7CAFD01280ED141480068F9
:102CB000062805DA3F480068401C3E49086002E0EB
:102CC00002203C490860FDF78DFB0020FFF7B6FDB0
:102CD00001280ED137480068022805DD3548006814
:102CE000401E3449086002E0062032490860FDF7C2
:102CF00079FB0020FFF7A2FD90B90120FFF79EFDB0
:102D000070B90220FFF79AFD50B90320FFF796FD36
:102D100030B90420FFF792FD10B92A482A4908600B
:102D200024480068022820D1FFF788FD01281CD123
:102D300026480068401E2549086023480068FDF7C2
:102D40005BFB214800680A280FDD1F480068FDF77B
:102D50007DFA00E00BE106461D4A1E4BFDF704FA22
:102D60000446FDF784FA18490860124800680228F2
:102D700042D10320FFF762FD01283DD113480068CE
:102D8000401C1249086010480068FDF735FB0E48EA
:102D9000006821E0496E697469616C697A65696EE1
:102DA00067202E2E2E202E2E2E00000084000020C4
:102DB0001C0000202000002090000020880000203F
:102DC0002400002020A107009800002028000020F7
:102DD0009A9999999999E93F0A280DDDFE4800686A
:102DE000FDF734FA0646FD4AFD4BFDF7BDF90446F2
:102DF000FDF73DFAF8490860FA48006803281FD13A
:102E00000220FFF71BFD01281AD1F7480068401E79
:102E1000F5490860F0480068FDF7EEFAEE480068F2
:102E20000A280DDDEC480068FDF710FA0646EB4A6B
:102E3000EB4BFDF799F90446FDF719FAE6490860EE
:102E4000E848006803281ED1FFF7F8FC01281AD1D2
:102E5000E5480068401CE4490860DF480068FDF769
:102E6000CBFADD4800680A280DDDDB480068FDF775
:102E7000EDF90646D94ADA4BFDF776F90446FDF737
:102E8000F6F9D5490860D748006804281FD1022008
:102E9000FFF7D4FC01281AD1D4480068401ED3495A
:102EA0000860CD480068FDF7A7FACB4800680A28FB
:102EB0000DDDC9480068FDF7C9F90646C74AC84B89
:102EC000FDF752F90446FDF7D2F9C3490860C54839
:102ED000006804281FD10320FFF7B0FC01281AD195
:102EE000C2480068401CC1490860BB480068FDF743
:102EF00083FAB94800680A280DDDB7480068FDF775
:102F0000A5F90646B54AB64BFDF72EF90446FDF77E
:102F1000AEF9B1490860B3480068052812D1042011
:102F2000FFF78CFC01280DD1B148006850B906208C
:102F3000B04908600220AB4908600120AC49086034
:102F4000FDF750FAA7480068062810D10420FFF7C3
:102F500075FC01280BD1A648006840B90120A5499D
:102F60000860A0490860A2490860FDF73BFAA14843
:102F7000006806287ED100209D49086000F060FDB1
:102F80009D490860084600689C490968401AB0F5E8
:102F90007A7F0DDD4FF6FF704FF4A073F022002111
:102FA00000900846FEF7C4FE00F04AFD9349086011
:102FB00090480068FDF72EFA8A480068FEF7CDFEBB
:102FC0000120FFF73BFC01280ED186480068062847
:102FD00005DA84480068401C8249086002E002204B
:102FE00080490860FDF7FEF90020FFF727FC012863
:102FF0000ED17C480068022805DD7A480068401E32
:103000007849086002E0062076490860FDF7EAF991
:103010000020FFF713FC90B90120FFF70FFC70B9F7
:103020000220FFF70BFC50B90320FFF707FC30B973
:103030000420FFF703FC10B971486749086069482C
:103040000068022820D1FFF7F9FB01281CD16D4848
:103050000068401E6B4908605F480068FDF7CCF9C6
:103060005D4800680A280FDD5B480068FDF7EEF850
:10307000064600E006E1594A594BFDF775F804464B
:10308000FDF7F5F8544908605648006802281FD13A
:103090000320FFF7D3FB01281AD15A480068401CCF
:1030A000584908604C480068FDF7A6F94A4800688E
:1030B0000A280DDD48480068FDF7C8F80646474A6B
:1030C000474BFDF751F80446FDF7D1F84249086037
:1030D0004448006803281FD10220FFF7AFFB0128F6
:1030E0001AD149480068401E474908603A480068BC
:1030F000FDF782F9384800680A280DDD3648006877
:10310000FDF7A4F80646354A354BFDF72DF8044681
:10311000FDF7ADF8304908603248006803281ED139
:10312000FFF78CFB01281AD137480068401C36494C
:10313000086029480068FDF75FF9274800680A28F9
:103140000DDD25480068FDF781F80646234A244B2B
:10315000FDF70AF80446FDF78AF81F490860214880
:10316000006804281FD10220FFF768FB01281AD14C
:1031700026480068401E2549086017480068FDF78A
:103180003BF9154800680A280DDD13480068FDF773
:103190005DF80646114A124BFCF7E6FF0446FDF7C0
:1031A00066F80D4908600F48006804283CD10320E8
:1031B000FFF744FB012837D114480068401C13492D
:1031C000086005480068FDF717F9034800680A28F9
:1031D0002ADD014800681BE0980000209A9999991F
:1031E0009999E93F200000202C00002030000020A9
:1031F000900000201C000020880000208400002097
:1032000020A1070034000020380000203C000020EE
:10321000FDF71CF80646FE4AFE4BFCF7A5FF0446E8
:10322000FDF725F8FC490860FC480068052812D124
:103230000420FFF703FB01280DD1F948006850B9BD
:103240000720F84908600220F44908600120F44989
:103250000860FDF7C7F8F1480068062812D104207D
:10326000FFF7ECFA01280DD1ED48006850B90520B0
:10327000EC4908600220E94908600120E84908603B
:10328000FDF7B0F8E748006807287DD10020E44941
:10329000086000F0D5FBE449086008460068E3498F
:1032A0000968401AB0F57A7F0DDD4FF6FF704FF4D4
:1032B000A073F022002100900846FEF739FD00F0CF
:1032C000BFFBDA490860D7480068FDF7A3F8D34888
:1032D0000068FEF742FD0120FFF7B0FA01280ED189
:1032E000CE480068062805DACC480068401CCB4967
:1032F000086002E00220C9490860FDF773F8002069
:10330000FFF79CFA01280ED1C4480068022805DDA9
:10331000C2480068401EC149086002E00620BF495B
:103320000860FDF75FF80020FFF788FA90B90120E8
:10333000FFF784FA70B90220FFF780FA50B9032032
:10334000FFF77CFA30B90420FFF778FA10B9B848D3
:10335000B1490860B1480068022820D1FFF76EFA31
:1033600001281CD1B3480068401EB2490860AA4831
:103370000068FDF741F8A84800680A280FDDA64854
:103380000068FCF763FF00E09AE10646A04AA14B03
:10339000FCF7EAFE0446FCF76AFF9F4908609F4875
:1033A000006802281FD10320FFF748FA01281AD12C
:1033B000A0480068401C9F49086097480068FDF7D6
:1033C0001BF8954800680A280DDD93480068FCF753
:1033D0003DFF06468E4A8F4BFCF7C6FE0446FCF7BF
:1033E00046FF8D4908608D48006803281FD10220E0
:1033F000FFF724FA01281AD18F480068401E8E4931
:10340000086085480068FCF7F7FF834800680A28D1
:103410000DDD81480068FCF719FF06467C4A7D4BAC
:10342000FCF7A2FE0446FCF722FF7B4908607B48BC
:10343000006803281ED1FFF701FA01281AD17E483F
:103440000068401C7C49086073480068FCF7D4FFA2
:10345000714800680A280DDD6F480068FCF7F6FE29
:1034600006466B4A6B4BFCF77FFE0446FCF7FFFEFB
:10347000694908606948006804281FD10220FFF7E5
:10348000DDF901281AD16D480068401E6B490860BB
:1034900061480068FCF7B0FF5F4800680A280DDD4E
:1034A0005D480068FCF7D2FE0646594A594BFCF7C6
:1034B0005BFE0446FCF7DBFE57490860574800688E
:1034C00004281FD10320FFF7B9F901281AD15B485E
:1034D0000068401C594908604F480068FCF78CFFA1
:1034E0004D4800680A280DDD4B480068FCF7AEFE29
:1034F0000646474A474BFCF737FE0446FCF7B7FE43
:10350000454908604548006805283ED10420FFF77A
:1035100095F9012839D142480068B0BB08204149DB
:10352000086003203D49086001203D490860FCF720
:1035300059FF414800684149096808443D49096804
:1035400048433F490860084600683E4908603E49D4
:1035500009683E4A1268881A002801DB014600E02B
:1035600041423B4A1160104600683249096890FBAD
:10357000F1F03849086034480068344909688842E5
:1035800004DD01203449086003E082E00020324974
:10359000086032490968324A1268881A002801DB3B
:1035A000014600E041422F4A11601046006821495F
:1035B000096890FBF1F02C49086028480068284908
:1035C0000968884203DD01202849086002E00020E4
:1035D0002649086026490968264A1268881A002880
:1035E00001DB014600E04142234A116010460068B9
:1035F0001049096890FBF1F0204908601C480068F8
:103600001C49096888423DDD01201D4908603CE0F5
:103610009A9999999999E93F9800002020000020F3
:10362000900000201C000020880000208400002062
:1036300020A1070040000020440000204800002096
:10364000580000205C0000202800002034000020EA
:10365000600000206C0000204C0000202C000020A6
:10366000380000206400002070000020500000207E
:10367000300000203C000020680000207400002082
:10368000540000200020D949086000F0D9F9D84939
:103690000860D8480068062812D10420FFF7CEF849
:1036A00001280DD1D448006850B90620D3490860DC
:1036B0000220D04908600120CF490860FCF792FE43
:1036C000CE48006808287CD10020CB49086000F073
:1036D000B7F9CB49086008460068C5490968401A2F
:1036E000B0F57A7F08DDC7480068401EC54908600C
:1036F00000F0A6F9BE490860C1480068C2490968DF
:10370000401AB0F5FA7F0DDD4FF6FF704FF4A0734D
:10371000F022002100900846FEF70AFB00F090F925
:10372000B9490860B5480068FCF774FEB148006804
:10373000FEF713FB0120FFF781F801280ED1AD48F9
:103740000068042805DAAB480068401CA9490860F5
:1037500002E00320A7490860FCF744FE0020FFF7C1
:103760006DF801280ED1A3480068032805DDA148A3
:103770000068401E9F49086002E004209D490860DF
:10378000FCF730FE9B48006803281DD10420FFF79A
:1037900055F8012818D198480068A8B99B480068D6
:1037A000012804D100F07FF90120984908605820D1
:1037B0009249086003208F49086001208E49086003
:1037C00000E091E0FCF70EFE8A480068042816D15C
:1037D000FFF734F8012812D18748006878B9002033
:1037E00086490860834908608949086085490860FE
:1037F00088490860012080490860FCF7F3FD00F06B
:103800001FF97F4908600846006883490968401A23
:103810008249096801EB4102C2EBC111B0EBC10F53
:103820000EDD7A48006858B900F03DF900F008F95B
:103830007B4908600120FEF7E9FF01207349086019
:103840006F48006876490968401A7649096801EBB3
:103850004102C2EBC111B0EBC10F2CDD6B48006817
:10386000012828D100F01FF900F0EAF86A49086041
:103870000020664908600120FEF7C8FF654800681F
:10388000401C64490860002367481946026867487D
:10389000006800F0DFF801236548002102686548F0
:1038A000006800F0D7F802236348002102684F48FF
:1038B000006800F0CFF857480068604909688842FE
:1038C00012D10520FEF7A2FF00204C4908604949AB
:1038D00008604F4908604B4908604E490860012064
:1038E00045490860FCF77EFD4448006858287AD1B5
:1038F0000020414908604248006843490968401A6D
:10390000B0F5FA7F0DDD4FF6FF704FF4A073F02293
:10391000002100900846FEF70BFA00F091F83A49B2
:10392000086036480068FCF775FD32480068FEF70D
:1039300014FA0120FEF782FF01280ED12D480068FD
:10394000042805DA2B480068401C2A49086002E078
:10395000032028490860FCF745FD0020FEF76EFFB4
:1039600001280ED123480068032805DD214800689E
:10397000401E2049086002E004201E490860FCF750
:1039800031FD1C480068032812D10420FEF756FFC1
:1039900001280DD11848006850B90820174908605F
:1039A000032014490860012013490860FCF71AFD40
:1039B00010480068042816D1FEF740FF012812D1F4
:1039C0000D48006878B900200C4908600949086072
:1039D0000F4908600B4908600E490860012006493C
:1039E0000860FCF7FFFCFEF7F1BF00005400002068
:1039F0008C00002020000020900000201C000020EF
:103A0000880000205C000020840000209C00002032
:103A100024000020940000207C00002044000020AE
:103A200078000020480000206C0000204C0000209E
:103A30007000002050000020740000204000002092
:103A4000034800880249091F098800EB01407047BC
:103A50001C2800402DE9F04306460F469046994643
:103A600017B1012F06D102E041F2883402E042F2A0
:103A7000107400BF00BF012E04D101210220FEF707
:103A80002DFF03E000210220FEF728FF002506E0BD
:103A90004846FEF763FE2046FCF7AEFC6D1C45452C
:103AA000F6DBBDE8F08300B501210620FEF716FF26
:103AB00000210620FEF712FF00BD000000000000FC
:103AC00000000000000000000000000000183C3C66
:103AD0003C18180018180000000000000066666618
:103AE000000000000000000000000000006C6CFE00
:103AF0006C6C6CFE6C6C000000000018183C6606D4
:103B00000C183060663C1818000000000E1B5B6E3D
:103B100030180C76DAD8700000000000001C363631
:103B20001C06F66666DC000000000000001818188D
:103B30000000000000000000000000000030181825
:103B40000C0C0C0C0C18183000000000000C18189D
:103B5000303030303018180C000000000000006CCD
:103B600038FE386C00000000000000000000001863
:103B7000187E18180000000000000000000000007F
:103B8000000000003838301800000000000000007D
:103B9000007E0000000000000000000000000000A7
:103BA00000000000383800000000000000606030B5
:103BB0003018180C0C060600000000000078CCEC51
:103BC000ECCCDCDCCC780000000000000030383E9B
:103BD000303030303030000000000000003C6666BD
:103BE0006030180C067E000000000000003C666695
:103BF00060386066663C000000000000000C0C6C41
:103C00006C6C66FE6060000000000000007E06062E
:103C1000063E6060301E0000000000000038180CF6
:103C20003E666666663C000000000000007E603074
:103C30003018180C0C0C000000000000003C6666F8
:103C40006E3C7666663C000000000000003C666644
:103C500066667C30181C0000000000000000003880
:103C60003800000038380000000000000000003874
:103C700038000000383830180000000000603018AC
:103C80000C060C183060000000000000000000006E
:103C90007E007E00000000000000000000060C18FE
:103CA000306030180C06000000000000003C666622
:103CB000301818001818000000000000007EC3C370
:103CC000F3DBDBF303FE00000000000000183C669D
:103CD00066667E666666000000000000003E66665E
:103CE000663E6666663E000000000000003C6666B8
:103CF00006060666663C000000000000001E3666F0
:103D000066666666361E000000000000007E06063D
:103D1000063E0606067E000000000000007E060645
:103D2000063E06060606000000000000003C66662F
:103D300006067666667C0000000000000066666687
:103D4000667E66666666000000000000003C18188B
:103D500018181818183C000000000000006060608F
:103D600060606066663C0000000000000066663629
:103D7000361E3636666600000000000000060606A5
:103D800006060606067E00000000000000C6C6EE1D
:103D9000D6D6D6C6C6C600000000000000C6C6CEF5
:103DA000DEF6E6C6C6C6000000000000003C6666FF
:103DB00066666666663C000000000000003E6666BF
:103DC000663E06060606000000000000003C66662F
:103DD00066666666663C306000000000003E66660F
:103DE000663E36666666000000000000003C66061F
:103DF0000C183060663C000000000000007E1818BF
:103E000018181818181800000000000000666666F0
:103E100066666666663C0000000000000066666636
:103E2000666666663C1800000000000000C6C6C654
:103E3000D6D6D66C6C6C0000000000000066662CC4
:103E400018183466666600000000000000666666AA
:103E5000663C18181818000000000000007E606022
:103E600030180C06067E000000000000003C0C0C20
:103E70000C0C0C0C0C0C0C0C3C0000000006060C8E
:103E80000C1818303060600000000000003C30303A
:103E900030303030303030303C0000183C660000AC
:103EA0000000000000000000000000000000000012
:103EB0000000000000000000FF00001C183000009F
:103EC0000000000000000000000000000000003CB6
:103ED00060607C66667C0000000000000006063E14
:103EE00066666666663E0000000000000000003C5A
:103EF00066060606663C0000000000000060607C6C
:103F000066666666667C0000000000000000003CFB
:103F100066667E06063C00000000000000780C0C7F
:103F20000C7E0C0C0C0C0000000000000000007C5B
:103F300066666666667C60603E0000000006063EBF
:103F40006666666666660000000000001818001EBF
:103F500018181818187E0000000000003030003CCF
:103F600030303030303030301E0000000006066641
:103F700066361E366666000000000000001E181837
:103F800018181818187E0000000000000000007EBD
:103F9000D6D6D6D6D6C60000000000000000003EEF
:103FA0006666666666660000000000000000003C71
:103FB00066666666663C0000000000000000003E89
:103FC00066666666663E0606060000000000007C27
:103FD00066666666667C60606000000000000066E1
:103FE000760E060606060000000000000000007CB9
:103FF00006063C60603E000000000000000C0C7EE5
:104000000C0C0C0C0C780000000000000000006696
:1040100066666666667C00000000000000000066C0
:10402000666666663C18000000000000000000C6DE
:10403000D6D6D6D66C6C00000000000000000066EA
:10404000663C183C66660000000000000000006648
:1040500066666666663C30180F0000000000007E51
:104060006030180C067E00000000000000301818B8
:10407000180C060C1818183000000000001818184A
:10408000181818181818181818000000000C18181C
:10409000183060301818180C00000000008EDB711A
:1040A000000000000000000000000000CC400008FC
:1040B00000000020DC000000EC270008A8410008F8
:1040C000DC00002004040000FC27000800000000C1
:1040D00000000000000000000000000000000000E0
:1040E00000000000000000000000000000000000D0
:1040F00000000000000000000000000000000000C0
:1041000000000000000000000000000000000000AF
:10411000000000000000000000000000000000009F
:10412000000000000000000000000000000000008F
:10413000000000000000000000000000000000007F
:10414000000000000000000000000000000000006F
:10415000000000000000000000000000000000005F
:10416000000000000000000000000000000000004F
:10417000000000000000000000000000000000003F
:10418000000000000000000000000000000000002F
:10419000000000000000000000000000000000001F
:0841A000000000000000000017
:0400000508000131BD
:00000001FF
