:020000040800F2
:1000000040050020450100085D340008A52C0008CB
:100010005934000805040008653800080000000095
:100020000000000000000000000000007D36000815
:100030000904000800000000DD3400080138000851
:100040005F0100085F0100085F010008C535000876
:100050005F0100085F0100085F0100085F01000800
:100060005F0100085F0100085F0100085F010008F0
:100070005F0100085F0100085F0100085F010008E0
:100080005F0100085F0100085F0100085F010008D0
:100090005F0100085F0100085F0100085F010008C0
:1000A0005F0100085F0100085F0100085F010008B0
:1000B0005F0100085F0100085F0100085F010008A0
:1000C0005F0100085F0100085F0100085F01000890
:1000D0005F0100085F0100085F0100085F01000880
:1000E0005F0100085D3500085F0100085F0100083E
:1000F0005F0100085F0100085F0100085F01000860
:100100005F0100085F0100085F0100085F0100084F
:100110005F0100085F0100085F0100085F0100083F
:100120005F0100085F0100085F0100085F0100082F
:10013000DFF80CD000F028F900480047ED3900083E
:10014000400500200648804706480047FEE7FEE7D6
:10015000FEE7FEE7FEE7FEE7FEE7FEE7FEE7FEE777
:1001600005380008310100082DE9FE4F81EA03043B
:1001700004F0004421F0004100944FF0000B23F004
:10018000004350EA01045ED052EA03045BD0C3F39B
:100190000A54C1F30A552C44A4F2F3340194A0FB91
:1001A0000254C1F3130141F48011C3F3130343F468
:1001B000801301FB024400FB034E840A970A44EAC1
:1001C000815447EA8357A4FB076802958D0A05FB13
:1001D00007854FEA932C04FB0C542705029D4FEA38
:1001E000065847EA1637B5EB08056EEB070C870E85
:1001F000920E47EA811742EA8312A7FB0201B6EB8F
:100200000B0164EB00042B0D43EA0C335E1844EB46
:100210001C50DA465146E7FB0201C5F313044FEACE
:100220000B3343EA14534FEA0432019C43EA0603BA
:10023000A4F10C040294009CCDE900B400F055F840
:1002400003B0BDE8F08F00200146F9E70EB5C10FFD
:1002500080EAE0700844CA07002140F233438DE889
:100260000E000A460B4600F040F803B000BD70B522
:10027000C1F30A5201F000450024C1F3130140F21A
:10028000FF3341F480119A4201DA002070BD40F240
:1002900033439A42A2F2334203DC524200F006F8A2
:1002A00000E090402C43F1D0404270BD202A04DB96
:1002B000203A21FA02F00021704721FA02F3D040DF
:1002C000C2F12002914008431946704710B5141E30
:1002D00073F1000408DA401C41F1000192185B41FF
:1002E0001A4301D120F0010010BD2DE9F04D9246D6
:1002F0009B4611B1B1FA81F202E0B0FA80F22032ED
:10030000904600F053F804460F4640EA0A0041EADE
:100310000B0153465A46084313D0114653EA0100D5
:1003200019D0C8F140025046FFF7C0FF05460E46FF
:1003300050465946424600F039F8084305D001209E
:1003400004E020463946BDE8F08D0020054346EA2A
:10035000E0762C4337430A986305E40AA0EB0800D3
:100360000022FD0A44EA47540A3002D50020014623
:10037000E9E7010510196941DDE9084500196941FE
:10038000BDE8F04DA2E70000064C074D06E0E0682E
:1003900040F0010394E8070098471034AC42F6D3CC
:1003A000FFF7CAFEEC6A00080C6B0008202A04DB89
:1003B000203A00FA02F1002070479140C2F1200378
:1003C00020FA03F319439040704730B58C1810F8A9
:1003D000012B12F00F0301D110F8013B120906D1D5
:1003E00010F8012B03E010F8015B01F8015B5B1EC4
:1003F000F9D101E001F8013B521EFBD1A142E6D345
:10040000002030BD00BFFEE7704701B502E0009854
:10041000401E009000980028F9D108BD00B50120C9
:1004200003F032FA014800F003F800BD20A10700F4
:1004300007E0022100E000BF0A1EA1F10101FAD18C
:1004400000BF011EA0F10100F3D1704710B50446B2
:100450002046722C7ED015DC042802F059820ADC7A
:1004600070B3012842D0022801F00A85032842F027
:100470005B8202F041B96F284DD070286BD0712893
:10048000F5D10FE3DF2801F014850CDC792801F0A9
:1004900038827A2801F056837B2801F0B980DD2864
:1004A000E5D102F0FDB8E02801F03085A0F27640F9
:1004B00000287DD0A0F24C400028D8D101F01BBF0D
:1004C000F1A20A21142002F017FDF3A21E2114202C
:1004D00002F012FDF3A23221142002F00DFDF4A26D
:1004E0004621142002F008FD02F01EBAE6A20A21FD
:1004F000084602F001FDF1A21E21142002F0FCFCCE
:10050000F3A23221142002F0F7FCF8A246211420B5
:1005100002F0F2FCE8E7F7A20A21084602F0ECFC40
:10052000FBA21E210A2002F0E7FCFEA232211420C9
:1005300002F0E2FCFE4800684FF47A7190FBF1F0A3
:100540000A2190FBF1F201FB12003030F9490870EA
:10055000F74801E0B9E3F1E00068642190FBF1F0B5
:100560000A2190FBF1F201FB12003030F2490870D1
:10057000EF4800680A2190FBF1F090FBF1F201FBDB
:1005800012003030ED490870E94800680A2190FBFC
:10059000F1F201FB12003030E9490870E5480278B9
:1005A0003221642002F076FCE3480278322100E038
:1005B000FEE36E2002F06EFCE048027832217820E3
:1005C00002F068FCDE4802783221822002F062FCF0
:1005D000DCA232218C2002F08FFCDBA24621142009
:1005E00002F08AFCDB4800684FF47A7190FBF1F06E
:1005F0000A2190FBF1F201FB12003030D64908705D
:10060000D4480068642190FBF1F00A2190FBF1F2DC
:1006100001FB12003030D1490870CE4800680A2131
:1006200090FBF1F090FBF1F201FB12003030CC496D
:100630000870C84800680A2190FBF1F201FB120023
:100640003030C8490870C44802784621642002F05E
:1006500021FCC248027846216E2002F01BFCC048F3
:1006600002784621782002F015FCBE480278462127
:10067000822002F00FFCB3A246218C2002F03CFC49
:10068000B9A25A21142002F037FCBA4800684FF48E
:100690007A7190FBF1F00A2190FBF1F201FB12005C
:1006A0003030B5490870B3480068642190FBF1F020
:1006B0000A2190FBF1F201FB12003030AF490870C3
:1006C000AC4800680A2190FBF1F090FBF1F201FBCD
:1006D00012003030AA490870A64800680A2190FB31
:1006E000F1F201FB12003030A6490870A2480278EE
:1006F0005A21642002F0CEFBA04802785A216E20D5
:1007000002F0C8FB9E4802785A21782002F0C2FB12
:100710009C4802785A21822002F0BCFB89A25A210F
:100720008C2002F0E9FB98A26E21142002F0E4FB79
:100730006EA28221142002F0DFFBD5E66DA20A2111
:10074000084602F0D9FB91A21E210A2002F0D4FB38
:1007500074A23221142002F0CFFB914800684FF4BC
:100760007A7190FBF1F00A2190FBF1F201FB12008B
:1007700030308C4908708A480068642190FBF1F0A1
:100780000A2190FBF1F201FB12003030864908701B
:10079000834800680A2190FBF1F090FBF1F201FB25
:1007A00012003030814908707D4800680A2190FBB2
:1007B000F1F201FB120030307D490870794802786F
:1007C0003221642002F066FB7748027832216E20E5
:1007D00002F060FB754802783221782002F05AFB63
:1007E000734802783221822002F054FB55A2322154
:1007F0008C2002F081FB54A24621142002F07CFBE5
:100800006C4800684FF47A7190FBF1F00A2190FB7C
:10081000F1F201FB1200303067490870654800684A
:10082000642190FBF1F00A2190FBF1F201FB120030
:100830003030624908705F4800680A2190FBF1F08F
:1008400090FBF1F201FB120030305D49087059480D
:1008500000680A2190FBF1F201FB12003030594987
:100860000870554802784621642002F013FB534873
:10087000027846216E2002F00DFB51480278462195
:10088000782002F007FB9FE054696D65204C617091
:100890007365204D6F646500566964656F204D6F08
:1008A000646500004D616E75616C204D6F6465007C
:1008B00053657474696E677300000000496E746557
:1008C00072616374697665204D6F64650000000095
:1008D000496E70757420506172616D6574657273D4
:1008E000204D616E75616C6C790000005265747505
:1008F000726E0000506C6561736520736C657720C3
:100900007468652063616D65726120746F0000001A
:1009100074686520454E4420706F736974696F6E0A
:1009200000000000536C6964653A203C3C3C0000C8
:100930002C000020F0000020F1000020F200002038
:10094000F30000203E3E3E0050616E3A2020203CE5
:100950003C3C000030000020F4000020F5000020A6
:10096000F6000020F700002054696C743A20203C07
:100970003C3C000034000020F8000020F90000207A
:10098000FA000020FB0000205365740074686520A5
:10099000535441525420706F736974696F6E000034
:1009A00038000020FC000020FD000020FE00002098
:1009B000FF0000203C000020000100200101002079
:1009C0000201002003010020FE4802784621822017
:1009D00002F060FAAFF2940246218C2002F08CFA09
:1009E000AFF27C025A21142002F086FAF648006821
:1009F0004FF47A7190FBF1F00A2190FBF1F201FBC8
:100A000012003030F1490870EF480068642190FB13
:100A1000F1F00A2190FBF1F201FB12003030EC49B9
:100A20000870E94800680A2190FBF1F090FBF1F2B0
:100A300001FB12003030E7490870E34800680A21E2
:100A400090FBF1F201FB12003030E3490870DF48FF
:100A500002785A21642002F01DFADD4802785A21FA
:100A60006E2002F017FADB4802785A21782002F053
:100A700011FAD94802785A21822002F00BFAAFF21B
:100A80003C125A218C2002F037FAAFF204126E2188
:100A9000142002F031FAAFF2AC128221142002F0DD
:100AA0002BFA21E5CDA20A21084602F025FAD1A2AF
:100AB0001E210A2002F020FAD1A23221142002F0D5
:100AC0001BFAD34800684FF47A7190FBF1F00A21C9
:100AD00090FBF1F201FB12003030CE490870CC4897
:100AE0000068642190FBF1F00A2190FBF1F201FB18
:100AF00012003030C8490870C54800680A2190FBD0
:100B0000F1F090FBF1F201FB12003030C3490870A4
:100B1000BF4800680A2190FBF1F201FB120030305F
:100B2000BF490870BB48027832217D2002F0B2F93B
:100B3000B94802783221872002F0ACF9B748027830
:100B40003221912002F0A6F9B548027832219B208B
:100B500002F0A0F9AFF214223221A52002F0CCF964
:100B6000B0A24621142002F0C7F9B24800684FF441
:100B70007A7190FBF1F00A2190FBF1F201FB120077
:100B80003030AD490870AB480068642190FBF1F04B
:100B90000A2190FBF1F201FB12003030A7490870E6
:100BA000A44800680A2190FBF1F090FBF1F201FBF0
:100BB00012003030A24908709E4800680A2190FB5C
:100BC000F1F201FB120030309E4908709A48027819
:100BD00046217D2002F05EF9984802784621872060
:100BE00002F058F9964802784621912002F052F915
:100BF0009448027846219B2002F04CF9AFF2BC22C7
:100C00004621A52002F078F98FA25A21142002F083
:100C100073F9914800684FF47A7190FBF1F00A2162
:100C200090FBF1F201FB120030308C4908708A48C9
:100C30000068642190FBF1F00A2190FBF1F201FBC6
:100C40001200303086490870834800680A2190FB02
:100C5000F1F090FBF1F201FB120030308149087095
:100C60007D4800680A2190FBF1F201FB1200303050
:100C70007D490870794802785A217D2002F00AF9EE
:100C8000774802785A21872002F004F975480278E3
:100C90005A21912002F0FEF8734802785A219B20D5
:100CA00002F0F8F8AFF264325A21A52002F024F9DC
:100CB000AFF22C326E21142002F01EF9AFF2D432C2
:100CC0008221142002F018F90EE468A20A210846D5
:100CD00002F012F96CA21E210A2002F00DF96E48F2
:100CE00000684FF47A7190FBF1F00A2190FBF1F269
:100CF00001FB1200303069490870674800686421C0
:100D000090FBF1F00A2190FBF1F201FB1200303070
:100D100063490870604800680A2190FBF1F090FB7D
:100D2000F1F201FB120030305E4908705A48006849
:100D30000A2190FBF1F201FB120030305A49087091
:100D4000564802781E216E2002F0A4F8544802781A
:100D50001E21782002F09EF8524802781E2182203F
:100D600002F098F8504802781E218C2002F092F888
:100D70004EA232210A2002F0BFF84FA23221822077
:100D800002F0BAF84CA23221A02002F0B5F84B488C
:100D900000684FF4616190FBF1F049490860084632
:100DA0000068C0EB001045490968A1EB800000E035
:100DB000F5E13C2190FBF1F04249086040480068B1
:100DC00082E0000003010020400000200401002018
:100DD000050100200601002007010020506C65611C
:100DE000736520656E74657220666F6C6C6F7769D1
:100DF0006E670000706172616D65746572730000EA
:100E000046616D65733A202020203C3C3C00000088
:100E10004400002008010020090100200A010020F0
:100E20000B010020496E74657276616C3A203C3C7F
:100E30003C000000480000200C0100200D010020B3
:100E40000E0100200F010020536875747465723A1A
:100E500020203C3C3C0000004C0000201001002001
:100E600011010020120100201301002054616B6960
:100E70006E672054696D65204C617073652E2E2E4F
:100E8000202E2E2E0000000046616D6573205461F7
:100E90006B656E3A20000000E40000201401002081
:100EA00015010020160100201701002054696D650E
:100EB000204C6566743A00003A0000006000002093
:100EC0002001002024010020C0EB4011C1EB0020D4
:100ED000FE490968A1EB0010FD490968C1EB011149
:100EE000A0EB8100FB490860FB4800680A2190FBE9
:100EF000F1F090FBF1F201FB12003030F74908707D
:100F0000F54800680A2190FBF1F201FB1200303035
:100F1000F3490870EE4800680A2190FBF1F090FB5D
:100F2000F1F201FB12003030EE490870E848006829
:100F30000A2190FBF1F201FB12003030EA490870FF
:100F4000E44800680A2190FBF1F090FBF1F201FB0C
:100F500012003030E5490870DE4800680A2190FB35
:100F6000F1F201FB12003030E1490870DB480278F1
:100F700032216E2001F08EFFD9480278322178208C
:100F800001F088FFD748027832218C2001F082FFDF
:100F9000D54802783221962001F07CFFD3480278B0
:100FA0003221AA2001F076FFD14802783221B42004
:100FB00001F070FFCFA246210A2001F09DFFCEA2D2
:100FC0004621502001F098FFCCA24621962001F046
:100FD00093FFCB4800684FF47A7190FBF1F00A213F
:100FE00090FBF1F201FB12003030C6490870C44892
:100FF0000068642190FBF1F00A2190FBF1F201FB03
:1010000012003030C0490870BD4800680A2190FBCA
:10101000F1F090FBF1F201FB12003030BB49087097
:10102000B74800680A2190FBF1F201FB1200303052
:10103000B7490870B348027846211E2001F02AFF04
:10104000B14802784621282001F024FFAF480278F9
:101050004621322001F01EFFAD48027846213C2097
:1010600001F018FFAB4800684FF47A7190FBF1F083
:101070000A2190FBF1F201FB12003030A649087002
:10108000A4480068642190FBF1F00A2190FBF1F282
:1010900001FB12003030A14908709E4800680A2107
:1010A00090FBF1F090FBF1F201FB120030309C4913
:1010B0000870984800680A2190FBF1F201FB1200C9
:1010C000303098490870944802784621642001F035
:1010D000E1FE9248027846216E2001F0DBFE904846
:1010E00002784621782001F0D5FE8E48027846210C
:1010F000822001F0CFFE8C4800684FF47A7190FB9B
:10110000F1F00A2190FBF1F201FB12003030874927
:10111000087085480068642190FBF1F00A2190FB7B
:10112000F1F201FB12003030814908707E480068FE
:101130000A2190FBF1F090FBF1F201FB120030303C
:101140007C490870784800680A2190FBF1F201FBA5
:101150001200303078490870744802784621AA207D
:1011600001F098FE724802784621B42001F092FE08
:10117000704802784621BE2001F08CFE6E4802784D
:101180004621C82001F086FE6CA25A21142001F0ED
:10119000B3FE6CA26E21142001F0AEFE81E4AFF22A
:1011A00034320A21084601F0A7FEAFF224321E2194
:1011B0000A2001F0A1FE654800684FF47A7190FBA7
:1011C000F1F00A2190FBF1F201FB1200303060498E
:1011D00008705E480068642190FBF1F00A2190FBE2
:1011E000F1F201FB120030305A490870574800688C
:1011F0000A2190FBF1F090FBF1F201FB120030307C
:1012000055490870514800680A2190FBF1F201FB32
:1012100012003030514908704D4802781E216E206E
:1012200001F038FE4B4802781E21782001F032FE92
:10123000494802781E21822001F02CFE474802789E
:101240001E218C2001F026FEAFF2A03232210A20AE
:1012500001F052FEAFF2A0323221822001F04CFEAA
:10126000AFF2AC323221A02001F046FE17480068F0
:101270004FF4616190FBF1F017490860084600687F
:10128000C0EB001011490968A1EB80003C2190FBE4
:10129000F1F00F49086010480068C0EB4011C1EB45
:1012A00000200A490968A1EB001009490968C1EB4F
:1012B0000111A0EB810007490860074800680A2176
:1012C00090FBF1F090FBF1F24AE00000600000209A
:1012D0002401002028010020200100201801002006
:1012E000190100201A0100201B0100201C01002010
:1012F0001D010020583A0000593A00005A3A0000F7
:101300007C0000202C0100202D0100202E01002057
:101310002F0100208000002030010020310100203A
:10132000320100203301002084000020340100201D
:10133000350100203601002037010020506175730F
:101340006500000053746F7000000000E40000208E
:1013500014010020150100201601002017010020B3
:1013600001FB12003030FE490870FE4800680A2177
:1013700090FBF1F201FB12003030FB490870FB4892
:1013800000680A2190FBF1F090FBF1F201FB1200E2
:101390003030F7490870F54800680A2190FBF1F2F7
:1013A00001FB12003030F3490870F34800680A214D
:1013B00090FBF1F090FBF1F201FB12003030EF49AD
:1013C0000870ED4800680A2190FBF1F201FB120061
:1013D0003030EB490870E248027832216E2001F08B
:1013E00059FDE14802783221782001F053FDE048B0
:1013F000027832218C2001F04DFDDE480278322146
:10140000962001F047FDDD4802783221AA2001F044
:1014100041FDDB4802783221B42001F03BFDAFF200
:101420002C1246210A2001F067FDAFF2341246214A
:10143000502001F061FDAFF23C124621962001F0F0
:101440005BFDD04800684FF47A7190FBF1F00A21FF
:1014500090FBF1F201FB12003030CB490870C94813
:101460000068642190FBF1F00A2190FBF1F201FB8E
:1014700012003030C5490870C24800680A2190FB4C
:10148000F1F090FBF1F201FB12003030C04908701E
:10149000BC4800680A2190FBF1F201FB12003030D9
:1014A000BC490870B848027846211E2001F0F2FCC1
:1014B000B64802784621282001F0ECFCB4480278B6
:1014C0004621322001F0E6FCB248027846213C2059
:1014D00001F0E0FCB04800684FF47A7190FBF1F045
:1014E0000A2190FBF1F201FB12003030AB49087089
:1014F000A9480068642190FBF1F00A2190FBF1F209
:1015000001FB12003030A6490870A34800680A2188
:1015100090FBF1F090FBF1F201FB12003030A14999
:1015200008709D4800680A2190FBF1F201FB12004F
:1015300030309D490870994802784621642001F0B6
:10154000A9FC9748027846216E2001F0A3FC95483B
:1015500002784621782001F09DFC934802784621CC
:10156000822001F097FC914800684FF47A7190FB5B
:10157000F1F00A2190FBF1F201FB120030308C49AE
:1015800008708A480068642190FBF1F00A2190FB02
:10159000F1F201FB12003030864908708348006880
:1015A0000A2190FBF1F090FBF1F201FB12003030C8
:1015B000814908707D4800680A2190FBF1F201FB27
:1015C000120030307D490870794802784621AA20FF
:1015D00001F060FC774802784621B42001F05AFC03
:1015E000754802784621BE2001F054FC7348027809
:1015F0004621C82001F04EFC71A25A21142001F0AE
:101600007BFCAFF2C0226E21142001F075FCC5E511
:101610006DA20A21084601F06FFCAFF628021E21D8
:101620000A2001F069FC6FA23221142001F064FC51
:10163000704800684FF47A7190FBF1F00A2190FB3A
:10164000F1F201FB120030306B4908706948006804
:10165000642190FBF1F00A2190FBF1F201FB1200F2
:10166000303066490870634800680A2190FBF1F049
:1016700090FBF1F201FB12003030614908705D48C7
:1016800000680A2190FBF1F201FB120030305D4945
:101690000870594802783221912001F0FBFB57482D
:1016A000027832219B2001F0F5FB55480278322167
:1016B000A52001F0EFFB534802783221AF2001F062
:1016C000E9FBAFF680523221B92001F015FC4EA2A1
:1016D0004621142001F010FC4F4800684FF47A7145
:1016E00090FBF1F00A2190FBF1F201FB1200303087
:1016F0004A49087048480068642190FBF1F00A21CB
:1017000090FBF1F201FB120030304549087042486D
:1017100000680A2190FBF1F090FBF1F201FB12004E
:101720003030404908703C4800680A2190FBF1F2D3
:1017300001FB120030303C490870384802784621DD
:10174000912001F0A7FB3648027846219B2001F04A
:10175000A1FB344802784621A52001F09BFB65E0FF
:101760001801002020010020190100202401002080
:101770001A0100201B010020280100201C0100206C
:101780001D0100207C0000202C0100202D010020E4
:101790002E0100202F0100208000002030010020B9
:1017A000310100203201002033010020840000209C
:1017B00034010020350100203601002037010020CF
:1017C000526573756D650000506C656173652065C9
:1017D0006E7465722074686520666F6C6C6F7769D3
:1017E0006E670000546F74616C2046616D65733ADA
:1017F0003C3C3C004400002008010020090100207E
:101800000A0100200B010020496E74657276616C3C
:101810003A2020203C3C3C00480000200C010020E5
:101820000D0100200E0100200F010020FE4802786B
:101830004621AF2001F02EFBAFF6F8624621B92019
:1018400001F05AFBF9A25A21142001F055FBFB4884
:1018500000684FF47A7190FBF1F00A2190FBF1F2ED
:1018600001FB12003030F6490870F448006864212A
:1018700090FBF1F00A2190FBF1F201FB12003030F5
:10188000F0490870ED4800680A2190FBF1F090FBE8
:10189000F1F201FB12003030EB490870E7480068B4
:1018A0000A2190FBF1F201FB12003030E749087089
:1018B000E34802785A21912001F0ECFAE1480278DD
:1018C0005A219B2001F0E6FADF4802785A21A52030
:1018D00001F0E0FADD4802785A21AF2001F0DAFA8F
:1018E000AFF6A0725A21B92001F006FBD8A26E21F2
:1018F000142001F001FBD94A8221142001F0FCFAE6
:101900004CE4AFF23C120A21084601F0F5FAD4A2E9
:101910001E210A2001F0F0FAD4A23221142001F095
:10192000EBFAC5A24621142001F0E6FAD44800687B
:101930004FF47A7190FBF1F00A2190FBF1F201FB78
:1019400012003030CF490870CD480068642190FB08
:10195000F1F00A2190FBF1F201FB12003030CA498C
:101960000870C74800680A2190FBF1F090FBF1F283
:1019700001FB12003030C5490870C14800680A21D7
:1019800090FBF1F201FB12003030C1490870BD48F4
:10199000027846212D2001F07DFABB4802784621CD
:1019A000372001F077FAB94802784621412001F04A
:1019B00071FAB748027846214B2001F06BFAA74A2A
:1019C00058324621552001F097FAB2A25A2114202C
:1019D00001F092FA98A26E21142001F08DFAB2481B
:1019E00000684FF47A7190FBF1F00A2190FBF1F25C
:1019F00001FB12003030AD490870AB48006864212B
:101A000090FBF1F00A2190FBF1F201FB1200303063
:101A1000A7490870A44800680A2190FBF1F090FBE8
:101A2000F1F201FB12003030A24908709E480068B4
:101A30000A2190FBF1F201FB120030309E49087040
:101A40009A4802786E212D2001F024FA98480278F5
:101A50006E21372001F01EFA964802786E2141204F
:101A600001F018FA944802786E214B2001F012FA26
:101A70007A4A58326E21552001F03EFA8FA2822117
:101A8000142001F039FA6CA29621142001F034FAE6
:101A90008F4800684FF47A7190FBF1F00A2190FBB7
:101AA000F1F201FB120030308A4908708848006862
:101AB000642190FBF1F00A2190FBF1F201FB12008E
:101AC000303085490870824800680A2190FBF1F0A7
:101AD00090FBF1F201FB12003030804908707C4825
:101AE00000680A2190FBF1F201FB120030307C49C2
:101AF00008707848027896212D2001F0CBF97648BD
:101B000002789621372001F0C5F9744802789621B1
:101B1000412001F0BFF97248027896214B2001F074
:101B2000B9F94E4A58329621552001F0E5F948A2FC
:101B3000AA21142001F0E0F9484ABE21142001F046
:101B4000DBF964E5AFF280320A21084601F0D4F9EE
:101B500043A21E210A2001F0CFF962A232211420F3
:101B600001F0CAF934A24621142001F0C5F96148F8
:101B700000684FF47A7190FBF1F00A2190FBF1F2CA
:101B800001FB120030305C4908705A48006864213B
:101B900090FBF1F00A2190FBF1F201FB12003030D2
:101BA00056490870534800680A2190FBF1F090FBF9
:101BB000F1F201FB12003030514908704D480068C5
:101BC0000A2190FBF1F201FB120030304D49087000
:101BD0004948027846212D2001F05CF947480278F7
:101BE0004621372001F056F9454802784621412028
:101BF00001F050F94348027846214B2001F04AF9A0
:101C0000164A58324621552001F076F93EA25A2153
:101C1000142001F071F908A26E21142001F06CF972
:101C20003D4800687AE000000F0100205368757499
:101C30007465723A202020203C3C3C004C0000207F
:101C400010010020110100201201002013010020CA
:101C5000436F6E74696E756500000000EC08000843
:101C6000706172616D657465727320005374617286
:101C70007420506F736974696F6E5F583A0000008A
:101C800038000020FC000020FD000020FE000020A5
:101C9000FF000020537461727420506F736974697F
:101CA0006F6E5F593A0000003C00002000010020E8
:101CB0000101002002010020030100205374617221
:101CC0007420506F736974696F6E5F5A3A00000038
:101CD0004000002004010020050100200601002032
:101CE00007010020456E6420506F736974696F6E40
:101CF0005F583A002C000020F0000020F100002086
:101D0000F2000020F3000020456E6420506F7369DC
:101D100074696F6E5F593A00300000204FF47A7199
:101D200090FBF1F00A2190FBF1F201FB1200303040
:101D3000FE490870FE480068642190FBF1F00A211A
:101D400090FBF1F201FB12003030FA490870F848BC
:101D500000680A2190FBF1F090FBF1F201FB120008
:101D60003030F5490870F24800680A2190FBF1F222
:101D700001FB12003030F1490870EC4802786E2106
:101D80002D2001F087F8EB4802786E21372001F012
:101D900081F8E94802786E21412001F07BF8E7489C
:101DA00002786E214B2001F075F8E54A6E2155202E
:101DB00001F0A2F8E3A28221142001F09DF8AFF215
:101DC00088129621142001F097F8E24800684FF439
:101DD0007A7190FBF1F00A2190FBF1F201FB120005
:101DE0003030DD490870DB480068642190FBF1F079
:101DF0000A2190FBF1F201FB12003030D749087044
:101E0000D44800680A2190FBF1F090FBF1F201FB4D
:101E100012003030D2490870CE4800680A2190FB89
:101E2000F1F201FB12003030CE490870CA48027846
:101E300096212D2001F02EF8C848027896213720EF
:101E400001F028F8C64802789621412001F022F8D6
:101E5000C448027896214B2001F01CF8B84A96211C
:101E6000552001F049F8AFF21822AA21142001F000
:101E700043F8B34A583ABE21142001F03DF83FE53B
:101E8000AF4AAC3A0A21084601F036F8AC4A883A23
:101E90001E21142001F030F8A94A743A322114208E
:101EA00001F02AF8A64A583A4621142001F024F8F5
:101EB00026E5AFF2EC620A21084601F01DF8AA4AB5
:101EC0001E210A2001F018F8A8A23221142001F0E6
:101ED00013F8A94800680A2190FBF1F201FB1200F7
:101EE0003030A64908700846027832217D2000F083
:101EF000D1FFAFF2A4224621142000F0FDFF904A4A
:101F0000583A5A21142000F0F7FFF9E49CA20A2164
:101F1000084600F0F1FF944AB8321E210A2000F072
:101F2000EBFFAFF2A8221E21822000F0E5FFAFF206
:101F3000B4221E21A02000F0DFFF964800684FF475
:101F4000616190FBF1F09449086008460068C0EBBD
:101F5000001090490968A1EB80003C2190FBF1F052
:101F60008E4908608C480068C0EB4011C1EB00202E
:101F700088490968A1EB001088490968C1EB011183
:101F8000A0EB810086490860834800680A2190FB25
:101F9000F1F090FBF1F201FB120030308149087042
:101FA0007D4800680A2190FBF1F201FB12003030FD
:101FB0007D490870794800680A2190FBF1F090FB98
:101FC000F1F201FB12003030784908707348006864
:101FD0000A2190FBF1F201FB1200303074490870C5
:101FE0006F4800680A2190FBF1F090FBF1F201FBD1
:101FF000120030306F490870694800680A2190FB70
:10200000F1F201FB120030306B490870654802782C
:102010001E216E2000F03EFF634802781E217820CA
:1020200000F038FF614802781E218C2000F032FF5A
:102030005F4802781E21962000F02CFF5D48027850
:102040001E21AA2000F026FF5B4802781E21B42042
:1020500000F020FFAFF6645232210A2000F04CFF5E
:10206000AFF66C523221502000F046FFAFF67452AA
:102070003221962000F040FF504800684FF47A71FA
:1020800090FBF1F00A2190FBF1F201FB12003030DD
:102090004B49087049480068642190FBF1F00A211F
:1020A00090FBF1F201FB12003030464908704348C2
:1020B00000680A2190FBF1F090FBF1F201FB1200A5
:1020C0003030414908703D4800680A2190FBF1F228
:1020D00001FB120030303D49087039480278322146
:1020E0001E2000F0D7FE374802783221282000F069
:1020F000D1FE354802783221084600F0CBFE334845
:10210000027832213C2000F0C5FE314800684FF4CF
:102110007A7190FBF1F00A2190FBF1F201FB1200C1
:1021200030302C4908702A48006855E0F40000203F
:1021300030000020F5000020F6000020F70000200D
:1021400044090008456E6420506F736974696F6EAE
:102150005F5A3A0034000020F8000020F900002007
:10216000FA000020FB000020F40D000853706565A4
:102170006428312D35293A009000002038010020D4
:1021800054616B696E6720566964656F2E2E2E2030
:102190002E2E2E00600000202001002024010020AF
:1021A0002801002018010020190100201A01002038
:1021B0001B0100201C0100201D0100207C000020CC
:1021C0002C0100202D0100202E0100202F010020D5
:1021D0008000002030010020642190FBF1F00A21F2
:1021E00090FBF1F201FB12003030FE490870FE480E
:1021F00000680A2190FBF1F090FBF1F201FB120064
:102200003030FA490870F84800680A2190FBF1F272
:1022100001FB12003030F6490870F648027832218E
:10222000642000F037FEEF48027832216E2000F083
:1022300031FEEE4802783221782000F02BFEEC4887
:1022400002783221822000F025FEEB4800684FF42E
:102250007A7190FBF1F00A2190FBF1F201FB120080
:102260003030E6490870E4480068642190FBF1F0E2
:102270000A2190FBF1F201FB12003030E0490870B6
:10228000DD4800680A2190FBF1F090FBF1F201FBC0
:1022900012003030DB490870D74800680A2190FBF3
:1022A000F1F201FB12003030D7490870D3480278B0
:1022B0003221AA2000F0EEFDD14802783221B4206C
:1022C00000F0E8FDCF4802783221BE2000F0E2FDA8
:1022D000CD4802783221C82000F0DCFDAFF6A472B0
:1022E0004621142000F008FEAFF6A8725A211420EF
:1022F00000F002FE18E3AFF278120A21084600F05F
:10230000FBFDC24A1E210A2000F0F6FDAFF29462E6
:102310001E21822000F0F0FDAFF2A0621E21A0205D
:1023200000F0EAFDBA4800684FF4616190FBF1F0FB
:10233000B849086008460068C0EB0010B449096855
:10234000A1EB80003C2190FBF1F0B3490860B1485B
:102350000068C0EB4011C1EB0020AD490968A1EB5A
:102360000010AD490968C1EB0111A0EB8100AB4938
:102370000860A84800680A2190FBF1F090FBF1F298
:1023800001FB12003030A6490870A24800680A21FB
:1023900090FBF1F201FB12003030A24908709E4818
:1023A00000680A2190FBF1F090FBF1F201FB1200B2
:1023B00030309D490870984800680A2190FBF1F27E
:1023C00001FB1200303099490870944800680A21D6
:1023D00090FBF1F090FBF1F201FB120030309449D8
:1023E00008708E4800680A2190FBF1F201FB120090
:1023F0003030904908708A4802781E216E2000F023
:1024000049FD884802781E21782000F043FD864867
:1024100002781E218C2000F03DFD844802781E21A8
:10242000962000F037FD824802781E21AA2000F095
:1024300031FD804802781E21B42000F02BFD7EA2E1
:1024400032210A2000F058FD7CA23221502000F0F9
:1024500053FD7BA23221962000F04EFD79480068A2
:102460004FF47A7190FBF1F00A2190FBF1F201FB3D
:10247000120030307449087072480068642190FB83
:10248000F1F00A2190FBF1F201FB120030306F49AC
:1024900008706C4800680A2190FBF1F090FBF1F2A3
:1024A00001FB120030306A490870664800680A2152
:1024B00090FBF1F201FB120030306649087062486F
:1024C000027832211E2000F0E5FC604802783221BB
:1024D000282000F0DFFC5E4802783221084600F038
:1024E000D9FC5C48027832213C2000F0D3FC3E4805
:1024F00000684FF47A7190FBF1F00A2190FBF1F241
:1025000001FB120030303B490870374800686421F5
:1025100090FBF1F00A2190FBF1F201FB1200303048
:1025200030490870304800680A2190FBF1F090FBB8
:10253000F1F201FB120030302C4908702A48006883
:102540000A2190FBF1F201FB12003030284908709B
:10255000284802783221642000F09CFC214802784F
:1025600032216E2000F096FC20480278322178203B
:1025700000F090FC1E4802783221822000F08AFC94
:102580001D4800684FF47A7190FBF1F00A2190FB2E
:10259000F1F201FB1200303018490870164800684B
:1025A000642190FBF1F00A2190FBF1F201FB120093
:1025B000303013490870104800680A2190FBF1F090
:1025C00090FBF1F201FB120030300E4908700A480E
:1025D00000680A2190FBF1F201FB120030300A4939
:1025E000087039E031010020800000203201002015
:1025F000330100203001002084000020340100203D
:10260000350100203601002037010020AC0E000803
:10261000600000202001002024010020280100206B
:1026200018010020190100201A0100201B010020C0
:102630001C0100201D010020583A0000593A0000FA
:102640005A3A00007C0000202C0100202D010020BF
:102650002E0100202F010020B44802783221AA2048
:1026600000F018FCB24802783221B42000F012FCCD
:10267000B04802783221BE2000F00CFCAE4802784F
:102680003221C82000F006FCAFF6CC6246211420AF
:1026900000F032FCA94A5A21142000F02DFC43E13D
:1026A000AFF6DC620A21084600F026FCA44A1E218F
:1026B0000A2000F021FCA3A23221142000F01CFC0F
:1026C000A34800680A2190FBF1F201FB12003030B0
:1026D000A04908700846027832217D2000F0DAFB1C
:1026E0009D4A4621142000F007FC9B4A9C3A5A213F
:1026F000142000F001FC17E1974AE43A0A21084649
:1027000000F0FAFB944A643A1E21142000F0F4FB16
:10271000924800684FF47A7190FBF1F00A2190FB27
:10272000F1F201FB120030308D4908708B480068CF
:10273000642190FBF1F00A2190FBF1F201FB120001
:10274000303088490870854800680A2190FBF1F014
:1027500090FBF1F201FB12003030834908707F4892
:1027600000680A2190FBF1F201FB120030307F4932
:1027700008707B4802781E21642000F08BFB7948AA
:1027800002781E216E2000F085FB774802781E211A
:10279000782000F07FFB754802781E21822000F02F
:1027A00079FB6D4A443A1E218C2000F0A5FB6A4A51
:1027B000403A3221142000F09FFB6D4800684FF42E
:1027C0007A7190FBF1F00A2190FBF1F201FB12000B
:1027D00030306849087066480068642190FBF1F069
:1027E0000A2190FBF1F201FB1200303062490870BF
:1027F0005F4800680A2190FBF1F090FBF1F201FBC9
:10280000120030305D490870594800680A2190FB79
:10281000F1F201FB12003030594908705548027836
:102820003221642000F036FB5348027832216E20BA
:1028300000F030FB514802783221782000F02AFB6A
:102840004F4802783221822000F024FB424A443A69
:1028500032218C2000F050FB3F4A203A46211420C0
:1028600000F04AFB474800684FF47A7190FBF1F0A2
:102870000A2190FBF1F201FB120030302B49087065
:1028800040480068642190FBF1F00A2190FBF1F2CE
:1028900001FB12003030264908703A4800680A21CE
:1028A00090FBF1F090FBF1F201FB12003030214976
:1028B0000870344800680A2190FBF1F201FB120015
:1028C00030301D490870194802784621642000F014
:1028D000E1FA1748027846216E2000F0DBFA15482D
:1028E00002784621782000F0D5FA13480278462174
:1028F000822000F0CFFA184A443A46218C2000F09A
:10290000FBFA154A9C3A5A21142000F0F5FA0BE024
:102910001DA20A21142000F0EFFA0F4A9C3A1E2152
:10292000142000F0E9FA00BF00BF10BD3401002000
:102930003501002036010020370100204413000833
:10294000F40D0008537065656428312D39293A006B
:102950009000002038010020880900087C00002039
:102960002C0100202D0100202E0100202F0100202D
:1029700080000020300100203101002032010020C1
:10298000330100208400002052652D696E6974694E
:10299000616C697A6500000051B18200A2F1C04209
:1029A000126842F001038200A2F1C042136009E004
:1029B0008200A2F1C0421268034B1A408300A3F1C7
:1029C000C0431A6070470000FEFF0F00D0E90112FB
:1029D0001143C2681143026911434269114382697C
:1029E0001143C2691143026A1143426A1143826A68
:1029F0001143C26A1143026B114302689200A2F1B3
:102A0000C0421160816808290BD101688900A1F1D9
:102A1000C041096841F0400201688900A1F1C0414C
:102A20000A60416B0968426B526841EA0211426BCD
:102A3000926841EA0221426B928941EA0241426B6B
:102A4000128A41EA0251426B127D41EA0261426BF5
:102A5000926911430268521C9200A2F1C0421160B7
:102A6000C16AB1F5804F1BD1816B0968826B5268D6
:102A700041EA0211826B926841EA0221826B128A5A
:102A800041EA0251826B127D41EA0261826B9269D6
:102A9000114302689200A2F1C042C2F8041107E09B
:102AA0006FF0704201688900A1F1C041C1F80421B2
:102AB0007047000008B50121042000F031FD04201A
:102AC000ADF8000010208DF8030003208DF80200FF
:102AD0006946254800F04EF80121082000F020FD4D
:102AE0004FF47040ADF8000010208DF80300032073
:102AF0008DF8020069461D4800F03CF801211020C5
:102B000000F00EFDC020ADF8000010208DF803008D
:102B100003208DF802006946154800F02BF84FF4A9
:102B20007040124914310860C020114948610121E8
:102B3000082000F0F5FC0120ADF8000004208DF81D
:102B400003006946094800F015F80121102000F043
:102B5000E7FCF020ADF8000004208DF80300694682
:102B6000024800F007F808BD00080140000C0140D1
:102B7000001001402DE9F04102460025002600200A
:102B800000230024002791F803C00CF00F0591F8F2
:102B900003C00CF0100CBCF1000F03D091F802C080
:102BA0004CEA050591F800C0BCF1000F31D0146863
:102BB00000202BE04FF0010C0CFA00F3B1F800C03C
:102BC0000CEA03069E4220D183004FF00F0C0CFA52
:102BD00003F7BC4305FA03FC4CEA040491F803C074
:102BE000BCF1280F06D14FF0010C0CFA00FCC2F822
:102BF00014C00AE091F803C0BCF1480F05D14FF0B2
:102C0000010C0CFA00FCC2F810C0401C0828D1D3FB
:102C10001460B1F800C0BCF1FF0F34DD546800202F
:102C20002EE000F1080C4FF0010808FA0CF3B1F89F
:102C300000C00CEA03069E4221D183004FF00F0C26
:102C40000CFA03F7BC4305FA03FC4CEA040491F8C0
:102C500003C0BCF1280F05D100F1080C08FA0CF8EC
:102C6000C2F8148091F803C0BCF1480F07D100F1FD
:102C7000080C4FF0010808FA0CF8C2F81080401C4C
:102C80000828CED35460BDE8F08102460020936846
:102C90000B400BB1012000E00020704741617047FC
:102CA0000161704700BFFEE710B504462CB14FF438
:102CB00080510548FFF7F2FF04E04FF480510248CD
:102CC000FFF7EEFF10BD0000001401402DE9F041B8
:102CD00006460F4614461D46DDF818802B46224650
:102CE0003946304600F0F5F904FB05F0414600F0A6
:102CF00056F9BDE8F08108B54FF6FF704FF4A073A8
:102D0000F022002100900846FFF7E0FF08BD38B52B
:102D100004464FF6FF70009004EB84000A2202EB99
:102D20008000C0F5A07083B204EB840002EB800049
:102D300081B20F220520FFF7C9FF38BD10B5044648
:102D40000D2C49D2DFE804F0070C11161B20252AB0
:102D50002F34393E43000F21052000F03FF83BE0BF
:102D60002321052000F03AF836E03721052000F055
:102D700035F831E04B21052000F030F82CE05F21E0
:102D8000052000F02BF827E07321052000F026F83D
:102D900022E08721052000F021F81DE09B2105207D
:102DA00000F01CF818E0AF21052000F017F813E040
:102DB000C321052000F012F80EE0D721052000F015
:102DC0000DF809E0EB21052000F008F804E0FF21F0
:102DD000052000F003F800BF00BF10BD70B5044629
:102DE0000D46A9B2A0B205230A2200F072F9002113
:102DF000642000F0D4F86A1C91B204F10A0290B287
:102E00000323012200F065F90021122000F0C7F829
:102E1000AA1C91B204F10B0290B201231A4600F0F1
:102E200058F90021012000F0BAF86A1E91B204F1AD
:102E3000080290B20123022200F04BF90021122077
:102E400000F0ADF8AA1E91B204F1080290B201237D
:102E50001A4600F03EF90021012000F0A0F86A1D9A
:102E600091B204F1080290B20123022200F031F97C
:102E70000021122000F093F8AA1D91B204F108027B
:102E800090B201231A4600F024F90021012000F03D
:102E900086F870BD2DE9F047804689461546A5F1B4
:102EA000200000F0FF0A102308224946404600F0A7
:102EB00010F92C2000F06AFA002417E00D4800EB0E
:102EC0000A10065D00270DE006F0010018B11F2072
:102ED00000F060FA03E04FF6FF7000F05BFA761046
:102EE000781CC7B2082FEFDB601CC4B2102CE5DBE6
:102EF000BDE8F087FA64000870B505460E46144632
:102F000017E028460830F02803DD002506F1100000
:102F100086B230461030B0F5A07F01DD00250026D6
:102F2000227831462846FFF7B5FF641C05F10800FA
:102F300085B220780028E4D170BD00B597B001219A
:102F4000080200F0CDFA0220019000200290052036
:102F5000039000200490059006904FF08050079059
:102F600000200890099008200A9010200B90002063
:102F70000C900E900F9010904FF480501190002004
:102F800012901390149001A81590169008A8FFF7BE
:102F90001DFD01210020FFF7FFFC17B000BD70B53B
:102FA00004460D4600262C2000F0F0F900BF03E097
:102FB000284600F0EFF9761CA642F9D370BD000058
:102FC00008B50121084600F0ABFA0121602000F0AD
:102FD000A7FA03208DF8020018208DF803004CF2A8
:102FE0000370ADF8000069462C48FFF7C3FD4FF6AB
:102FF0008070ADF8000069462948FFF7BBFD03204B
:103000008DF8020018208DF803001020ADF80000A4
:1030100069462248FFF7AEFD2020ADF80000694662
:103020001E48FFF7A7FD0121202000F079FA80203B
:10303000ADF8000069461948FFF79CFD01212020EA
:1030400000F06EFA4FF40060ADF8000069461348D6
:10305000FFF790FD10208DF8030003208DF802008B
:103060000121402000F05CFA0220ADF80000694622
:103070000B48FFF77FFD10208DF8030003208DF82B
:1030800002000121202000F04BFA4FF48050ADF8EF
:10309000000069460148FFF76DFD08BD00140140BE
:1030A0000018014008B5FFF78BFFFFF746FF01202E
:1030B000FFF7FAFD00F056F900F03CF84FF6FF700C
:1030C0004FF4A073F022002100900846FFF7FEFDA8
:1030D00008BD2DE9F04104460D4616461F462A203C
:1030E00000F054F9201200F055F9E0B200F052F966
:1030F000A119491EC1F30F2000F04CF9A119491E76
:10310000C8B200F047F92B2000F040F9281200F077
:1031100041F9E8B200F03EF9E919491EC1F30F2068
:1031200000F038F9E919491EC8B200F033F9BDE8DA
:10313000F081000010B5CF2000F028F9002000F049
:1031400029F9812000F026F9302000F023F9ED2044
:1031500000F01CF9642000F01DF9032000F01AF9BA
:10316000122000F017F9812000F014F9E82000F097
:103170000DF9852000F00EF9102000F00BF97820F1
:1031800000F008F9CB2000F001F9392000F002F935
:103190002C2000F0FFF8002000F0FCF8342000F0B4
:1031A000F9F8022000F0F6F8F72000F0EFF8202000
:1031B00000F0F0F8EA2000F0E9F8002000F0EAF86A
:1031C000002000F0E7F8B12000F0E0F8002000F067
:1031D000E1F81B2000F0DEF8B62000F0D7F80A2056
:1031E00000F0D8F8A22000F0D5F8C02000F0CEF80A
:1031F000352000F0CFF8C12000F0C8F8112000F011
:10320000C9F8C52000F0C2F8452000F0C3F84520F9
:1032100000F0C0F8C72000F0B9F8A22000F0BAF81A
:10322000F22000F0B3F8002000F0B4F8262000F0FF
:10323000ADF8012000F0AEF8E02000F0A7F80F2074
:1032400000F0A8F8262000F0A5F8242000F0A2F84D
:103250000B2000F09FF80E2000F09CF8092000F0F1
:1032600099F8542000F096F8A82000F093F8462032
:1032700000F090F80C2000F08DF8172000F08AF88C
:10328000092000F087F80F2000F084F8072000F0F4
:1032900081F8002000F07EF8E12000F077F80020AF
:1032A00000F078F8192000F075F81B2000F072F893
:1032B000042000F06FF8102000F06CF8072000F0F8
:1032C00069F82A2000F066F8472000F063F83920FA
:1032D00000F060F8032000F05DF8062000F05AF8D6
:1032E000062000F057F8302000F054F8382000F0A5
:1032F00051F80F2000F04EF8362000F047F8C820B3
:1033000000F048F82A2000F041F8002000F042F8D0
:10331000002000F03FF8002000F03CF8EF2000F023
:1033200039F82B2000F032F8002000F033F80020AC
:1033300000F030F8012000F02DF83F2000F02AF8CE
:103340003A2000F023F8552000F024F8112000F076
:103350001DF80348FDF759F8292000F017F810BDB3
:10336000FCBF020010B502210648FFF797FC064893
:10337000FDF74BF802210348FFF792FC0248FDF7E6
:1033800044F810BD00180140FCBF02004FF0C041DE
:103390000880704701490880704700000000026003
:1033A00008B501214FF0C05000F0AAF8012000F04C
:1033B0008FF84FF4407000F0C9F8012000F0C0F819
:1033C00000F040F900F048F900F0D6F83E2000F097
:1033D00029F900F037F9002000F016F900F032F971
:1033E0004FF6FF701B49088000F02CF94FF6FF7074
:1033F0001849091D088000F025F90121022000F07C
:10340000F3F814481C38008800F0020011491C39F8
:10341000088000F017F900F0B9F829208DF80000B5
:1034200000208DF801008DF8020001208DF80300C6
:10343000684600F015F803208DF8000000208DF894
:1034400001008DF8020001208DF80300684600F0AD
:1034500007F808BD2028004000BFFEE770470000C5
:1034600070B5002100230F22C47804B3154C2468E2
:1034700004F4E064C4F5E064210AC1F10403CA4025
:10348000447804FA03F184781440214309010E4C76
:103490000678A155047804F01F050124AC40057896
:1034A0006D11AD0005F1E025C5F8004109E0047893
:1034B00004F01F050124AC40044D0678761145F850
:1034C000264070BD0CED00E000E400E080E100E08B
:1034D000014908627047000000000E42704700007A
:1034E00029B1064A52690243044B5A6104E0034A77
:1034F00052698243014B5A6170470000001002403C
:1035000029B1064AD2690243044BDA6104E0034A56
:10351000D2698243014BDA6170470000001002401B
:1035200029B1064A92690243044B9A6104E0034AB6
:1035300092698243014B9A6170470000001002407B
:1035400001490860704700003C0442420249096A90
:103550000143014A116270470010024010B5022079
:1035600000F002F810BD0000024909888143014AB9
:1035700011807047042800400348008840F0100084
:103580000149088070470000042800400348008873
:103590004FF6EF7108400149088070470428004049
:1035A00001460020064A12880A40D0B2044A121F7F
:1035B00012880A4012B108B1012000E000207047D3
:1035C0000428004010B50220FFF7EAFF012808D1C7
:1035D0000220FFF7C9FF0348006810B101480068E6
:1035E000804710BD0000002029B1064A128802431E
:1035F000044B1A8004E0034A12888243014B1A806C
:10360000704700000028004000B50246FFF7B4FFF5
:10361000100C03490880091D0A80FFF7B7FF00BDA1
:103620001828004000B50246FFF7A6FFC2F303408A
:1036300003490880091D0A80FFF7A8FF00BD0000AC
:103640000828004000BF0348008800F02000002840
:10365000F9D0704704280040074800884FF6F771FA
:1036600008400549088000BF0348008800F00800B2
:103670000028F9D07047000004280040704710B5BA
:1036800000F002F810BD00000CB500200190009081
:103690003348006840F480303149086000BF30484A
:1036A000006800F4003000900198401C01900098E0
:1036B00018B90198B0F5A06FF1D12948006800F45D
:1036C000003010B10120009001E00020009000982F
:1036D000012843D12348006840F0100021490860C8
:1036E0000846006820F0030008600846006840F0C3
:1036F000020008601A484068194948600846406856
:1037000048600846406840F4806048600846406869
:1037100020F47C1048600846406840F4E810486097
:103720000846006840F08070086000BF0C480068E0
:1037300000F000700028F9D00948406820F003002C
:10374000074948600846406840F00200486000BFF2
:103750000348406800F00C000828F9D10CBD0000B7
:10376000001002400020024010B5044624B1012C94
:1037700011D0022C2DD11DE00121084600F0DAF80D
:103780001420FCF755FE0021012000F0D3F814208E
:10379000FCF74EFE1DE00121032000F0CBF81420C1
:1037A000FCF746FE0021032000F0C4F81420FCF7CB
:1037B0003FFE0EE00121052000F0BCF81420FCF7CC
:1037C00037FE0021052000F0B5F81420FCF730FE8C
:1037D00000BF00BF10BD014606290FD2DFE801F08F
:1037E0000E0306080A0C4FF4C87007E0C82005E075
:1037F000642003E0322001E0192000BF00BF7047C1
:103800007047000010B51348006840F001001149EE
:10381000086008464068104908400E49486008465C
:1038200000680E4908400B4908600846006820F40B
:10383000802008600846406820F4FE0048604FF48D
:103840001F008860FFF71BFF4FF00060044908600D
:1038500010BD0000001002400000FFF8FFFFF6FE60
:1038600008ED00E000BFFEE702E008C8121F08C133
:10387000002AFAD170477047002001E001C1121FF1
:10388000002AFBD17047000030B5044600250EE049
:103890000848FCF7CDFD0121002000F04BF8054859
:1038A000FCF7C6FD0021084600F044F86D1CA54257
:1038B000EEDB30BDA086010070B50546052D31D286
:1038C000DFE805F0030C151E270001211748FFF75C
:1038D000DCF908B1002400E0012423E010211448A1
:1038E000FFF7D3F908B1002400E001241AE02021F9
:1038F0000F48FFF7CAF908B1002400E0012411E0E5
:1039000040210B48FFF7C1F908B1002400E0012471
:1039100008E080210648FFF7B8F908B1002400E06C
:10392000012400BF00BF204670BD0000000C014014
:1039300000080140072851D2DFE800F0040E1723E9
:103940002F3B440019B90422254B1A6003E00422DE
:10395000234B1B1F1A6041E019B94022214B5A61C9
:1039600002E040221F4B1A6138E021B94FF4804237
:103970001D4B1A6004E04FF480421B4B1B1F1A6062
:103980002CE021B94FF40042174B1A6004E04FF4C9
:103990000042154B1B1F1A6020E021B94FF48052E2
:1039A000114B1A6004E04FF480520F4B1B1F1A603A
:1039B00014E019B980220B4B5A6102E08022094BB6
:1039C0001A610BE021B94FF40052074B1A6004E072
:1039D0004FF40052044B1B1F1A6000BF00BF70471A
:1039E0001408014000100140140C0140FFF75AFB7D
:1039F000FFF760F8FFF7D4FC0220FFF745FFFDA2B8
:103A00000A210846FFF778FAFFF775F902F024FD5E
:103A1000FE4908600020FE490860FE49086002F087
:103A2000E6BCFB48006800287ED1FB490860F848E6
:103A30000068FCF70BFDF7480068FFF77FF90120ED
:103A4000FFF73AFF012811D10020FFF760F9F14894
:103A50000068032805DAEF480068401CED4908605B
:103A600002E00020EB490860FCF7D8FC0020FFF7DB
:103A700023FF012811D10020FFF749F9E54800682C
:103A8000002805DDE3480068401EE249086002E0C6
:103A90000320E0490860FCF7C1FCDE480068A0B9DB
:103AA0000420FFF709FF01280FD1DB48006860B947
:103AB0000120D7490860D7490860D8490860D6492D
:103AC0000860FCF7ABFCFFF716F9D2480068012844
:103AD00015D10420FFF7F0FE012810D1CE48006870
:103AE00068B90220CA4908600120CA490860CC4967
:103AF0000860C9490860FCF791FCFFF7FCF8C5486D
:103B00000068022815D10420FFF7D6FE012810D145
:103B1000C148006868B90320BD4908600120BD495B
:103B20000860BD49086000E01BE0FCF777FCFFF788
:103B3000E2F8B8480068032813D10420FFF7BCFE60
:103B400001280ED1B448006858B90420B049086073
:103B50000120B0490860B0490860FCF75FFCFFF73E
:103B6000CAF8AB48006801287ED10020AA49086045
:103B7000A7480068FCF76AFCA6480068FFF7DEF873
:103B80000120FFF799FE012810D1FFF7C0F8A148E6
:103B90000068032805DA9F480068401C9D490860BA
:103BA00002E001209B490860FCF738FC0020FFF789
:103BB00083FE012810D1FFF7AAF896480068012873
:103BC00005DD94480068401E9249086002E0032029
:103BD00090490860FCF722FC8E480068012820D13B
:103BE0000420FFF769FE01281BD18B480068C0B98B
:103BF0006F208749086002208649086001208649B5
:103C000008608848006888490860884800688849D2
:103C100008608848006888490860FCF7FFFBFFF7E8
:103C20006AF87C480068022814D10420FFF744FE9B
:103C300001280FD17848006860B97920744908607C
:103C4000022074490860012073490860FCF7E6FB14
:103C5000FFF751F86F480068032817D10420FFF7D9
:103C60002BFE012812D100E010E06B48006868B913
:103C700000206749086067490860684908600120BA
:103C800065490860FCF7CAFBFFF735F86048006833
:103C90006F287DD10020604908605D480068FCF70E
:103CA000D5FB5C480068FFF749F80120FFF704FEE8
:103CB000012811D10220FFF72AF85648006806288B
:103CC00005DA54480068401C5249086002E00220AE
:103CD00050490860FCF7A2FB0020FFF7EDFD01282A
:103CE00011D10220FFF713F84A480068022805DDC9
:103CF00048480068401E4749086002E006204549E0
:103D00000860FCF78BFB0020FFF7D6FD90B901207F
:103D1000FFF7D2FD70B90220FFF7CEFD50B90320A6
:103D2000FFF7CAFD30B90420FFF7C6FD10B94348BC
:103D3000434908603748006802282ED1FFF7BCFDD0
:103D400001282AD138480068002826DD3648006856
:103D5000401E354908600846006832490860002363
:103D6000A0221946184602F081FB35480068FCF78E
:103D70005FFB334800680A280FDD31480068FCF714
:103D800065FA06462F4A304BFCF7EEF9044600E090
:103D90006BE1FCF76CFA2A4908601E4800680228AB
:103DA0005CD10320FFF788FD012857D11E48006829
:103DB00042F20F71884251DA1B480068401C1A49D0
:103DC000086008460068174908600023A0221946C9
:103DD000012002F04BFB1A480068FCF729FB184849
:103DE00000680A283ADD16480068FCF72FFA0646F4
:103DF000144A2BE0496E697469616C697A65696E71
:103E000067202E2E2E202E2E2E000000D000002007
:103E10001C00002020000020E000002024000020E2
:103E2000280000207C0000202C00002080000020C2
:103E300030000020840000203400002020A1070072
:103E4000E80000209A9999999999E93FFE4BFCF76F
:103E50008BF90446FCF70BFAFC490860FC48006843
:103E600003282DD10220FFF727FD012828D1F9488A
:103E70000068002824DDF7480068401EF549086006
:103E800008460068F44908600123A0220021084682
:103E900002F0ECFAED480068FCF7CAFAEB4800685B
:103EA0000A280DDDE9480068FCF7D0F90646EB4A20
:103EB000E54BFCF759F90446FCF7D9F9E3490860EA
:103EC000E348006803282ED1FFF7F6FC01282AD129
:103ED000E048006842F20F71884224DADD48006849
:103EE000401CDC49086008460068DB490860012383
:103EF000A0220021184602F0B9FAD4480068FCF765
:103F000097FAD24800680A280DDDD0480068FCF70F
:103F10009DF90646D14ACC4BFCF726F90446FCF73E
:103F2000A6F9CA490860CA48006804282DD10220B1
:103F3000FFF7C2FC012828D1C9480068002824DD09
:103F4000C7480068401EC649086008460068C54961
:103F500008600223A0220021084602F087FABB482D
:103F60000068FCF765FAB94800680A280DDDB74813
:103F70000068FCF76BF90646B84AB34BFCF7F4F857
:103F80000446FCF774F9B1490860B1480068042898
:103F90002FD10320FFF790FC01282AD1B0480068F8
:103FA00042F20F71884224DAAD480068401CAC49E7
:103FB000086008460068AB4908600223A02200217F
:103FC000012002F053FAA1480068FCF731FA9F483B
:103FD00000680A280DDD9D480068FCF737F90646A1
:103FE0009E4A994BFCF7C0F80446FCF740F9974904
:103FF000086097480068052820D10420FFF75CFC82
:1040000001281BD198480068C0B970209749086002
:1040100002208F49086096480068964908608E48DB
:104020000068954908608F4800689449086001203D
:104030008D490860FCF7F2F9FEF75DFE84480068E0
:10404000062812D10420FFF737FC01280DD186483D
:10405000006850B90120854908607D49086082499F
:104060000860FCF7DBF9FEF746FE80480068702820
:104070007DD100207C4908607C480068FCF7E6F9A7
:1040800073480068FEF75AFE0120FFF715FC01286F
:1040900011D10220FEF73BFE6D480068062805DAC4
:1040A0006B480068401C6A49086002E002206849C9
:1040B0000860FCF7B3F90020FFF7FEFB012811D1DF
:1040C0000220FEF724FE62480068022805DD6048F1
:1040D0000068401E5E49086002E006205C490860F6
:1040E000FCF79CF90020FFF7E7FB90B90120FFF7F0
:1040F000E3FB70B90220FFF7DFFB50B90320FFF7A5
:10410000DBFB30B90420FFF7D7FB10B95C484F49FF
:1041100008604F48006802282ED1FFF7CDFB012828
:104120002AD154480068002826DD52480068401E05
:1041300050490860084600684D4908600023A022E5
:104140001946184602F092F940480068FCF770F9E9
:104150003E4800680A280FDD3C480068FCF776F806
:1041600006463E4A384BFBF7FFFF044600E09DE160
:10417000FCF77DF8354908603548006802282FD1E2
:104180000320FFF799FB01282AD13A48006842F240
:104190000F71884224DA37480068401C35490860AE
:1041A00008460068324908600023A0221946012011
:1041B00002F05CF925480068FCF73AF923480068EA
:1041C0000A280DDD21480068FCF740F80646234A1E
:1041D0001D4BFBF7C9FF0446FCF749F81B49086073
:1041E0001B48006803282DD10220FFF765FB01283A
:1041F00028D121480068002824DD1F480068401E9F
:104200001D49086008460068134908600123A02280
:104210000021084602F02AF90C480068FCF708F96A
:104220000A4800680A280DDD08480068FCF70EF807
:1042300006460A4A044BFBF797FF0446FCF717F8BB
:104240000249086002481DE09999E93FE800002012
:104250002000002030000020800000209A999999C9
:104260003400002084000020E00000201C0000201A
:104270007C000020380000203C000020400000208E
:1042800020A10700006803282ED1FFF715FB0128A5
:104290002AD1FE48006842F20F71884224DAFB48B6
:1042A0000068401CF949086008460068F849086041
:1042B0000123A0220021184602F0D8F8F548006832
:1042C000FCF7B6F8F34800680A280DDDF1480068ED
:1042D000FBF7BCFF0646F04AF04BFBF745FF0446F0
:1042E000FBF7C5FFEB490860ED48006804282DD1B5
:1042F0000220FFF7E1FA012828D1EA4800680028E7
:1043000024DDE8480068401EE64908600846006869
:10431000E54908600223A0220021084602F0A6F821
:10432000DC480068FCF784F8DA4800680A280DDDEC
:10433000D8480068FBF78AFF0646D74AD74BFBF7F9
:1043400013FF0446FBF793FFD2490860D448006886
:1043500004282FD10320FFF7AFFA01282AD1D14832
:10436000006842F20F71884224DACE480068401C8F
:10437000CC49086008460068CB4908600223A022A7
:104380000021012002F072F8C2480068FCF750F8E2
:10439000C04800680A280DDDBE480068FBF756FFDC
:1043A0000646BD4ABD4BFBF7DFFE0446FBF75FFF49
:1043B000B8490860BA480068052818D10420FFF7FA
:1043C0007BFA012813D1B948006801280FD1B848F9
:1043D000006860B97120B74908600220B0490860E0
:1043E0000120B3490860FCF719F8FEF784FCAC48DB
:1043F0000068052818D10420FFF75EFA012813D1C0
:10440000AD48006801280FD1A948006860B9DF20D5
:10441000A84908600220A24908600120A449086058
:10442000FBF7FCFFFEF767FC9D48006806283DD1BE
:104430000420FFF741FA012838D19D480068A8BB45
:104440006F209C4908600220954908600120984926
:104450000860FBF7E3FFFEF74EFC98490968984AAD
:104460001268881A002801DB014600E04142954AA3
:1044700011601046006800EB80004001924908601E
:104480008E4800688E490968884203DD01208F4903
:10449000086002E000208D4908608D4909687B4A68
:1044A0001268881A002802DB014601E05AE0414206
:1044B000884A11601046006800EB80004001864980
:1044C00008608348006871490968884203DD01205B
:1044D0008249086002E0002080490860804909683C
:1044E000704A1268881A002801DB014600E0414248
:1044F0007C4A11601046006800EB800040017A4958
:1045000008607748006867490968884203DD012030
:104510007649086002E000207449086000236A4878
:10452000194602686948006801F0A0FF6348006806
:104530006F490860012368480021026867480068E5
:1045400001F094FF62480068514908600223664800
:10455000002102686548006801F088FF6048006833
:10456000514908605348006871287CD100205049A7
:10457000086050480068FBF769FF49480068FEF78B
:10458000DDFB0120FFF798F9012811D10220FEF789
:10459000BEFB43480068062805DA41480068401C15
:1045A0003F49086002E002203D490860FBF736FF02
:1045B0000020FFF781F9012811D10220FEF7A7FBA7
:1045C00037480068022805DD35480068401E344938
:1045D000086002E0062032490860FBF71FFF002058
:1045E000FFF76AF990B90120FFF766F970B9022068
:1045F000FFF762F950B90320FFF75EF930B90420E4
:10460000FFF75AF910B93B4822490860244800686E
:10461000022822D1FFF750F901281ED13648006840
:1046200000281ADD34480068401E334908601948E4
:104630000068FBF7FDFE174800680A280DDD1548E5
:104640000068FBF703FE0646134A144BFBF78CFD8C
:104650000446FBF70CFE0F49086011480068022869
:1046600060D1032000E0BDE1FFF726F9012859D110
:104670002148006842F20F71884253DA1E480068F0
:10468000401C1D4908600348006837E03C000020DA
:1046900080000020E80000209A9999999999E93FB3
:1046A0002000002040000020840000202400002082
:1046B000E00000201C000020280000202C0000202A
:1046C000380000206400002070000020500000200E
:1046D00030000020680000207400002054000020FA
:1046E000340000206C0000207800002058000020DA
:1046F0007C00002020A1070044000020FBF798FE6A
:10470000FE4800680A280DDDFC480068FBF79EFDA6
:104710000646FB4AFB4BFBF727FD0446FBF7A7FDCC
:10472000F6490860F8480068032823D10220FFF703
:10473000C3F801281ED1F548006800281ADDF348A7
:104740000068401EF1490860EC480068FBF770FE05
:10475000EA4800680A280DDDE8480068FBF776FDA6
:104760000646E74AE74BFBF7FFFC0446FBF77FFDF5
:10477000E2490860E4480068032824D1FFF79CF868
:10478000012820D1E148006842F20F7188421ADA0C
:10479000DE480068401CDD490860D8480068FBF727
:1047A00047FED64800680A280DDDD4480068FBF7AC
:1047B0004DFD0646D24AD34BFBF7D6FC0446FBF729
:1047C00056FDCE490860D0480068042823D1022055
:1047D000FFF772F801281ED1CD48006800281ADDC5
:1047E000CB480068401ECA490860C4480068FBF70F
:1047F0001FFEC24800680A280DDDC0480068FBF7AC
:1048000025FD0646BE4ABF4BFBF7AEFC0446FBF750
:104810002EFDBA490860BC480068042825D1032051
:10482000FFF74AF8012820D1B948006842F20F7119
:1048300088421ADAB6480068401CB5490860AF489B
:104840000068FBF7F5FDAD4800680A280DDDAB48B0
:104850000068FBF7FBFC0646A94AAA4BFBF784FC61
:104860000446FBF704FDA5490860A7480068052831
:1048700045D10420FFF720F8012840D1A548006861
:10488000E8BB7220A449086004209F490860012009
:10489000A0490860FBF7C2FD9C4800689C49096874
:1048A00008449E49096848439D49086008460068D5
:1048B0009C4908609C4909689C4A1268881A00282B
:1048C00001DB014600E04142994A11601046006850
:1048D0009249096890FBF1F0964908600846006823
:1048E00000EB80004001944908608F4800688F49C0
:1048F0000968884204DD01209049086003E058E01F
:1049000000208E4908608E4909688E4A1268881A0C
:10491000002801DB014600E041428B4A116010464D
:1049200000687E49096890FBF1F088490860814879
:10493000006800EB800040018549086080480068FD
:1049400080490968884203DD01208249086002E04D
:1049500000208049086080490968804A1268881AE6
:10496000002801DB014600E041427D4A116010460B
:1049700000686A49096890FBF1F07A4908600846C6
:10498000006800EB800040017749086072480068C9
:1049900072490968884203DD01207449086002E019
:1049A00000207249086001F057FD71490860FEF768
:1049B000A2F955480068062814D10420FEF77CFFB0
:1049C00001280FD15348006860B97020524908602F
:1049D00002204D49086001204E490860FBF71EFD8A
:1049E000FEF789F94C48006879287DD100204949B3
:1049F000086049480068FBF729FD43480068FEF756
:104A00009DF90120FEF758FF01281BD10220FEF777
:104A10007EF93D480068082805DA3B480068801C9C
:104A2000394908600CE038480068082805D1364844
:104A30000068401C3449086002E0022032490860E6
:104A4000FBF7ECFC0020FEF737FF01281BD102200A
:104A5000FEF75DF92C480068022803D109202A4995
:104A600008600EE028480068092805DA2648006832
:104A7000801E2549086004E023480068401E224942
:104A80000860FBF7CBFC0020FEF716FF90B9012071
:104A9000FEF712FF70B90220FEF70EFF50B9032097
:104AA000FEF70AFF30B90420FEF706FF10B93148BF
:104AB0001249086014480068022864D1FEF7FCFE21
:104AC000012860D11948006800285CDD174800689B
:104AD000401E1649086009480068FBF7A9FC074812
:104AE00000680A284FDD00E04BE104480068FBF74E
:104AF000ADFB0646024A034B3EE00000E800002002
:104B00009A9999999999E93F20000020480000203E
:104B10004C000020E00000201C0000204400002089
:104B20005C000020600000202C00002038000020E5
:104B300064000020B400002070000020500000201D
:104B4000300000203C00002068000020B800002059
:104B50007400002054000020340000204000002099
:104B60006C000020BC0000207800002058000020CD
:104B7000D800002020A10700FBF7F6FA0446FBF757
:104B800076FBFE490860FE480068022825D1032014
:104B9000FEF792FE012820D1FA48006842F20F7118
:104BA00088421ADAF7480068401CF6490860F34862
:104BB0000068FBF73DFCF14800680A280DDDEF486E
:104BC0000068FBF743FB0646EF4AF04BFBF7CCFAD5
:104BD0000446FBF74CFBE9490860E94800680428F3
:104BE00023D10220FEF768FE01281ED1E8480068A4
:104BF00000281ADDE6480068401EE5490860DF48E5
:104C00000068FBF715FCDD4800680A280DDDDB486D
:104C10000068FBF71BFB0646DB4ADC4BFBF7A4FAFC
:104C20000446FBF724FBD5490860D54800680428F2
:104C300025D10320FEF740FE012820D1D44800688A
:104C400042F20F7188421ADAD1480068401CD049FC
:104C50000860CA480068FBF7EBFBC84800680A28F0
:104C60000DDDC6480068FBF7F1FA0646C64AC74B99
:104C7000FBF77AFA0446FBF7FAFAC0490860C04825
:104C80000068062823D10220FEF716FE01281ED157
:104C9000C048006800281ADDBE480068401EBD49B3
:104CA0000860B6480068FBF7C3FBB44800680A28F0
:104CB0000DDDB2480068FBF7C9FA0646B24AB34BAD
:104CC000FBF752FA0446FBF7D2FAAC490860AC484D
:104CD0000068062825D10320FEF7EEFD012820D12B
:104CE000AC48006842F20F7188421ADAA94800689D
:104CF000401CA8490860A1480068FBF799FB9F4841
:104D000000680A280DDD9D480068FBF79FFA0646FB
:104D10009D4A9E4BFBF728FA0446FBF7A8FA9749F1
:104D2000086097480068082814D10420FEF7C4FDE5
:104D300001280FD19848006860B97A209749086027
:104D400002208F490860012093490860FBF766FB49
:104D5000FDF7D1FF8A480068092812D10420FEF728
:104D6000ABFD01280DD18C48006850B901208B495A
:104D700008608349086088490860FBF74FFBFDF72E
:104D8000BAFF864800687A287ED1002082490860F0
:104D900082480068FBF75AFB79480068FDF7CEFFB0
:104DA0000120FEF789FD01281BD10220FDF7AFFF8E
:104DB00073480068082805DA71480068801C70494B
:104DC00008600CE06E480068082805D16C4800684F
:104DD000401C6B49086002E0022069490860FBF74B
:104DE0001DFB0020FEF768FD01281BD10220FDF706
:104DF0008EFF63480068022803D1092060490860DB
:104E00000EE05F480068092805DA5D480068801EEA
:104E10005B49086004E05A480068401E5849086031
:104E2000FBF7FCFA0020FEF747FD90B90120FEF7E2
:104E300043FD70B90220FEF73FFD50B90320FEF795
:104E40003BFD30B90420FEF737FD10B954484B49FB
:104E500008604B480068022824D1FEF72DFD012888
:104E600020D15048006800281CDD4E480068401ED4
:104E70004C49086041480068FBF7DAFA3F4800688F
:104E80000A280FDD3D4800E0CBE10068FBF7DEF9C2
:104E900006463D4A3D4BFBF767F90446FBF7E7F949
:104EA0003649086036480068022825D10320FEF7FD
:104EB00003FD012820D13B48006842F20F7188426F
:104EC0001ADA38480068401C364908602B480068E8
:104ED000FBF7AEFA294800680A280DDD274800686C
:104EE000FBF7B4F90646284A284BFBF73DF9044680
:104EF000FBF7BDF92149086021480068042823D147
:104F00000220FEF7D9FC01281ED12748006800289E
:104F10001ADD25480068401E2349086017480068CC
:104F2000FBF786FA154800680A280DDD134800686B
:104F3000FBF78CF90646144A144BFBF715F90446A7
:104F4000FBF795F90D4908600D48006804283ED12B
:104F50000320FEF7B1FC012839D11348006842F262
:104F60000F71884233DA10480068401C0E4908600F
:104F700002480068FBF75CFA004817E0E8000020F0
:104F800020000020380000209A9999999999E93FCA
:104F90003C00002040000020E00000201C00002019
:104FA00020A107002C0000203000002000680A2803
:104FB0000DDDFE480068FBF749F90646FC4AFD4B4B
:104FC000FBF7D2F80446FBF752F9F8490860FA48B3
:104FD0000068062823D10220FEF76EFC01281ED1AE
:104FE000F648006800281ADDF4480068401EF349BE
:104FF0000860EE480068FBF71BFAEC4800680A28D6
:105000000DDDEA480068FBF721F90646E84AE94B5E
:10501000FBF7AAF80446FBF72AF9E4490860E648DA
:105020000068062825D10320FEF746FC012820D180
:10503000E248006842F20F7188421ADADF480068DD
:10504000401CDE490860D9480068FBF7F1F9D748F1
:1050500000680A280DDDD5480068FBF7F7F806461A
:10506000D34AD44BFBF780F80446FBF700F9CF494D
:105070000860D1480068082818D10420FEF71CFCFD
:10508000012813D1CE48006801280FD1CD4800680F
:1050900060B97B20CC4908600220C7490860012024
:1050A000C8490860FBF7BAF9FDF725FEC248006859
:1050B000082841D10420FEF7FFFB01283CD1C3485A
:1050C0000068012838D1BF480068A8BBDF20BE496E
:1050D00008600220B84908600120BA490860FBF75F
:1050E0009DF9FDF708FEBA490968BA4A1268881A9C
:1050F000002801DB014600E04142B74A116010463A
:10510000006800EB80004001B4490860B0480068C6
:10511000B0490968884203DD0120B149086002E016
:105120000020AF490860AF490968AF4A1268881A81
:10513000002802DB014601E05AE04142AB4A11601F
:105140001046006800EB80004001A9490860A548AE
:105150000068A5490968884203DD0120A549086067
:1051600002E00020A3490860A3490968A34A126825
:10517000881A002801DB014600E04142A04A116084
:105180001046006800EB800040019E4908609A4884
:1051900000689A490968884203DD01209A4908603D
:1051A00002E000209849086000238C4819460268F4
:1051B0008B48006801F05AF901238D4800210268EC
:1051C0008C48006801F052F902238E4800210268E1
:1051D0008D48006801F04AF97E4800687C49086003
:1051E000814800687F4908608448006882490860F7
:1051F00071480068092814D10420FEF75DFB0128DE
:105200000FD17048006860B97A206F4908600220A9
:105210006949086001206B490860FBF7FFF8FDF75A
:105220006AFD694800687B287ED1002065490860D6
:1052300065480068FBF70AF95F480068FDF77EFDE6
:105240000120FEF739FB012811D10220FDF75FFD97
:1052500059480068062805DA57480068401C564936
:10526000086002E0022054490860FBF7D7F80020EC
:10527000FEF722FB012811D10220FDF748FD4E4820
:105280000068022805DD4C480068401E4A49086055
:1052900002E0062048490860FBF7C0F80020FEF74E
:1052A0000BFB90B90120FEF707FB70B90220FEF757
:1052B00003FB50B90320FEF7FFFA30B90420FEF7D4
:1052C000FBFA10B95148394908603B480068022888
:1052D00022D1FEF7F1FA01281ED14D4800680028BE
:1052E0001ADD4B480068401E494908602F48006895
:1052F000FBF79EF82D4800680A280DDD2B48006852
:10530000FAF7A4FF06462A4A2A4BFAF72DFF04466D
:10531000FAF7ADFF2549086027480068022827D121
:105320000320FEF7C9FA00E03DE2012820D1384809
:10533000006842F20F7188421ADA35480068401C52
:105340003349086019480068FBF772F8174800688D
:105350000A280DDD15480068FAF778FF0646144A5A
:10536000144BFAF701FF0446FAF781FF0F49086072
:105370001148006803285BD10220FEF79DFA01283E
:1053800056D124480068002852DD22480068401E9B
:105390002049086005480068FBF74AF803480068A0
:1053A0000A2845DD0148006836E00000E8000020DA
:1053B0009A9999999999E93F20000020340000209A
:1053C00024000020E00000201C0000202800002015
:1053D0007C000020380000206400002070000020C5
:1053E00050000020800000203C00002068000020C9
:1053F00074000020540000208400002040000020A1
:105400006C000020780000205800002020A1070038
:105410004400002048000020FAF718FF0646FD4A25
:10542000FD4BFAF7A1FE0446FAF721FFFB4908609D
:10543000FB480068032824D1FEF73EFA012820D15A
:10544000F848006842F20F7188421ADAF54800689D
:10545000401CF4490860F1480068FAF7E9FFEF489A
:1054600000680A280DDDED480068FAF7EFFE0646F1
:10547000E84AE94BFAF778FE0446FAF7F8FEE749FE
:105480000860E7480068042823D10220FEF714FAD8
:1054900001281ED1E448006800281ADDE2480068AF
:1054A000401EE1490860DD480068FAF7C1FFDB48AB
:1054B00000680A280DDDD9480068FAF7C7FE0646DD
:1054C000D44AD54BFAF750FE0446FAF7D0FED3493A
:1054D0000860D3480068042825D10320FEF7ECF9C2
:1054E000012820D1D048006842F20F7188421ADAB0
:1054F000CD480068401CCC490860C8480068FAF7ED
:1055000097FFC64800680A280DDDC4480068FAF70E
:105510009DFE0646BF4AC04BFAF726FE0446FAF740
:10552000A6FEBE490860BE48006805283DD104209B
:10553000FEF7C2F9012838D1BC480068A8BB722028
:10554000BB4908600420B64908600120B7490860DB
:10555000FAF764FFB3480068B34909680844B549DD
:1055600009684843B449086008460068B3490860C0
:10557000B3490968B34A1268881A002801DB01465A
:1055800000E04142B04A11601046006800EB800024
:105590004001AE490860AA480068AA4909688842E3
:1055A00004DD0120AA49086003E0E4E00020A849E6
:1055B0000860A8490968A84A1268881A002801DB0F
:1055C000014600E04142A54A11601046006800EB28
:1055D00080004001A24908609E4800689E49096811
:1055E000884203DD01209F49086002E000209D49B8
:1055F00008609D4909689D4A1268881A002801DBE5
:10560000014600E041429A4A11601046006800EBF2
:1056100080004001974908609348006893490968F1
:10562000884203DD01209449086002E0002092498D
:10563000086000238548194602688548006800F024
:1056400015FF01238648002102688648006800F0A3
:105650000DFF02238748002102688748006800F098
:1056600005FF78480068764908607B4800687949FA
:1056700008607E4800687C49086080490968714A72
:105680001268881A002801DB014600E041426E4A98
:105690001160104600686749096890FBF1F078498D
:1056A00008600846006800EB800040016749086018
:1056B0007248006863490968884203DD0120644933
:1056C000086002E00020624908606E490968624A89
:1056D0001268881A002801DB014600E041425F4A57
:1056E0001160104600685349096890FBF1F0664963
:1056F00008600846006800EB8000400158490860D7
:105700006048006854490968884203DD0120554912
:10571000086002E00020534908605C490968534A68
:105720001268881A002801DB014600E04142504A15
:105730001160104600683F49096890FBF1F0544938
:1057400008600846006800EB800040014949086095
:105750004E48006845490968884203DD01204649F2
:10576000086002E000204449086000F075FE4949E5
:105770000860FDF7C0FA2A480068062813D1042003
:10578000FEF79AF801280ED12848006858B97A2007
:105790002749086001202249086024490860FAF777
:1057A0003DFEFDF7A8FA22480068722831D100209A
:1057B0001E49086000F050FE37490860084600683E
:1057C00034490968401AB0F57A7F08DD1B48006843
:1057D000401E1A49086000F03FFE2E490860144838
:1057E0000068FAF733FE0E480068FDF7A7FA0120BB
:1057F000FEF762F8012856D10320FDF788FA084821
:10580000006805284ADA06480068401C0449086018
:1058100047E04FE19A9999999999E93FE80000206A
:1058200020000020480000204C000020E000002064
:105830001C000020440000205C00002060000020CC
:105840007C00002038000020640000207000002050
:1058500050000020800000203C0000206800002054
:10586000740000205400002084000020400000202C
:105870006C00002078000020580000202C00002040
:10588000B400002030000020B800002034000020C8
:10589000BC000020D8000020D40000200420FE49D5
:1058A0000860FAF7BBFD0020FEF706F8012811D1C9
:1058B0000320FDF72CFAF8480068042805DDF648B7
:1058C0000068401EF449086002E00520F2490860C3
:1058D000FAF7A4FDF048006803281ED10420FDF764
:1058E000EBFF012819D1ED480068B0B9EC48006819
:1058F000012804D100F0F7FD0120E949086040F2D9
:105900007640E84908600320E34908600120E34944
:105910000860FAF783FDFDF7EEF9DF480068042818
:1059200018D1FDF7C9FF012814D1DC48006888B9F7
:105930000020DC490860D8490860DB490860DB4981
:105940000860DB4908600120D4490860FAF766FD69
:10595000FDF7D1F900F080FDD649086008460068DF
:10596000D5490968401AD549096801EB4102C2EBE3
:10597000C111B0EBC10F0EDDC948006858B900F085
:10598000B2FD00F069FDCE4908600120FDF77CFF03
:105990000120C3490860C7480068C9490968401A1E
:1059A000C849096801EB4102C2EBC111B0EBC10F5C
:1059B00065DDBB480068012861D100F094FD00F06E
:1059C0004BFDBD4908600020B54908600120FDF786
:1059D0005BFFB7480068401CB54908600023BA481F
:1059E00019460268B948006800F040FDB7480068F1
:1059F000012807D1B6480068B64909680844B44987
:105A0000086006E0B2480068B2490968401AB04927
:105A100008600123B04800210268B048006800F027
:105A200025FDAE480068012807D1AD480068AD49A2
:105A300009680844AA49086006E0A9480068A9491D
:105A40000968401AA64908600223A7480021026895
:105A5000A648006800F00AFDA4480068012807D1A4
:105A6000A3480068A34909680844A149086006E002
:105A70009F4800689F490968401A9D4908608C4802
:105A800000689D490968884214D10520FDF7FCFE95
:105A90000020844908608049086083490860834980
:105AA00008608349086001207C490860FAF7B6FC69
:105AB000FDF721F97B48006840F2764188426ED1BB
:105AC00000207649086077480068FAF7BFFC724802
:105AD0000068FDF733F90120FDF7EEFE012811D132
