:020000040800F2
:100000002005002045010008452B00088D2300082D
:10001000412B0008CB0300080D2F00080000000052
:10002000000000000000000000000000652D000836
:10003000CF03000800000000C52B0008A92E00080F
:100040005F0100085F0100085F010008AD2C000897
:100050005F0100085F0100085F0100085F01000800
:100060005F0100085F0100085F0100085F010008F0
:100070005F0100085F0100085F0100085F010008E0
:100080005F0100085F0100085F0100085F010008D0
:100090005F0100085F0100085F0100085F010008C0
:1000A0005F0100085F0100085F0100085F010008B0
:1000B0005F0100085F0100085F0100085F010008A0
:1000C0005F0100085F0100085F0100085F01000890
:1000D0005F0100085F0100085F0100085F01000880
:1000E0005F010008452C00085F0100085F0100085F
:1000F0005F0100085F0100085F0100085F01000860
:100100005F0100085F0100085F0100085F0100084F
:100110005F0100085F0100085F0100085F0100083F
:100120005F0100085F0100085F0100085F0100082F
:10013000DFF80CD000F028F900480047A93000088B
:10014000200500200648804706480047FEE7FEE7F6
:10015000FEE7FEE7FEE7FEE7FEE7FEE7FEE7FEE777
:10016000AD2E0008310100082DE9FE4F81EA03049D
:1001700004F0004421F0004100944FF0000B23F004
:10018000004350EA01045ED052EA03045BD0C3F39B
:100190000A54C1F30A552C44A4F2F3340194A0FB91
:1001A0000254C1F3130141F48011C3F3130343F468
:1001B000801301FB024400FB034E840A970A44EAC1
:1001C000815447EA8357A4FB076802958D0A05FB13
:1001D00007854FEA932C04FB0C542705029D4FEA38
:1001E000065847EA1637B5EB08056EEB070C870E85
:1001F000920E47EA811742EA8312A7FB0201B6EB8F
:100200000B0164EB00042B0D43EA0C335E1844EB46
:100210001C50DA465146E7FB0201C5F313044FEACE
:100220000B3343EA14534FEA0432019C43EA0603BA
:10023000A4F10C040294009CCDE900B400F055F840
:1002400003B0BDE8F08F00200146F9E70EB5C10FFD
:1002500080EAE0700844CA07002140F233438DE889
:100260000E000A460B4600F040F803B000BD70B522
:10027000C1F30A5201F000450024C1F3130140F21A
:10028000FF3341F480119A4201DA002070BD40F240
:1002900033439A42A2F2334203DC524200F006F8A2
:1002A00000E090402C43F1D0404270BD202A04DB96
:1002B000203A21FA02F00021704721FA02F3D040DF
:1002C000C2F12002914008431946704710B5141E30
:1002D00073F1000408DA401C41F1000192185B41FF
:1002E0001A4301D120F0010010BD2DE9F04D9246D6
:1002F0009B4611B1B1FA81F202E0B0FA80F22032ED
:10030000904600F053F804460F4640EA0A0041EADE
:100310000B0153465A46084313D0114653EA0100D5
:1003200019D0C8F140025046FFF7C0FF05460E46FF
:1003300050465946424600F039F8084305D001209E
:1003400004E020463946BDE8F08D0020054346EA2A
:10035000E0762C4337430A986305E40AA0EB0800D3
:100360000022FD0A44EA47540A3002D50020014623
:10037000E9E7010510196941DDE9084500196941FE
:10038000BDE8F04DA2E70000064C074D06E0E0682E
:1003900040F0010394E8070098471034AC42F6D3CC
:1003A000FFF7CAFE2C5E00084C5E0008202A04DB22
:1003B000203A00FA02F1002070479140C2F1200378
:1003C00020FA03F319439040704700BFFEE77047DF
:1003D00001B502E00098401E009000980028F9D175
:1003E00008BD000000B5012002F0A2FD014800F0A8
:1003F00003F800BD20A1070007E0022100E000BFD4
:100400000A1EA1F10101FAD100BF011EA0F10100F5
:10041000F3D1704710B504462046722C7ED015DC0F
:10042000042801F013860ADC68B3012841D00228B1
:1004300001F0D782032841F0158601F0FBBC6F283C
:100440004CD070286BD07128F5D10FE3DF2801F074
:10045000E1820BDC792801F007807A2801F02681FF
:100460007B287DD0DD28E6D101F0B7BCE02801F083
:10047000FF82A0F27640002873D0A0F24C40002802
:10048000D9D101F0A6BBF1A20A21142002F0A8F8EC
:10049000F2A21E21142002F0A3F8F3A232211420AC
:1004A00002F09EF8F3A24621142002F099F801F020
:1004B000D9BDE6A20A21084602F092F8F0A21E2158
:1004C000142002F08DF8F3A23221142002F088F8F3
:1004D000F7A24621142002F083F8E8E7F6A20A21E9
:1004E000084602F07DF8FBA21E210A2002F078F8EF
:1004F000FDA23221142002F073F8FE4800684FF488
:100500007A7190FBF1F00A2190FBF1F201FB1200ED
:100510003030F9490870F748006801E0B9E3F1E0CC
:10052000642190FBF1F00A2190FBF1F201FB120033
:100530003030F2490870EF4800680A2190FBF1F072
:1005400090FBF1F201FB12003030ED490870E948F0
:1005500000680A2190FBF1F201FB1200303001E04B
:10056000FEE3FEE3E7490870E348027832216420A5
:1005700002F004F8E148027832216E2001F0FEFF1B
:10058000DF4802783221782001F0F8FFDD48027858
:100590003221822001F0F2FFDBA232218C2002F016
:1005A0001FF8DAA24621142002F01AF8DA4800688F
:1005B0004FF47A7190FBF1F00A2190FBF1F201FB0C
:1005C00012003030D5490870D3480068642190FB90
:1005D000F1F00A2190FBF1F201FB12003030D0491A
:1005E0000870CD4800680A2190FBF1F090FBF1F211
:1005F00001FB12003030CB490870C74800680A215F
:1006000090FBF1F201FB12003030C7490870C3487B
:1006100002784621642001F0B1FFC14802784621EA
:100620006E2001F0ABFFBF4802784621782001F030
:10063000A5FFBD4802784621822001F09FFFB2A2AB
:1006400046218C2001F0CCFFB8A25A21142001F0E1
:10065000C7FFB94800684FF47A7190FBF1F00A21A6
:1006600090FBF1F201FB12003030B4490870B2483F
:100670000068642190FBF1F00A2190FBF1F201FB8C
:1006800012003030AE490870AB4800680A2190FB78
:10069000F1F090FBF1F201FB12003030A949087033
:1006A000A54800680A2190FBF1F201FB12003030EE
:1006B000A5490870A14802785A21642001F05EFF24
:1006C0009F4802785A216E2001F058FF9D48027819
:1006D0005A21782001F052FF9B4802785A2182204B
:1006E00001F04CFF88A25A218C2001F079FF97A2DB
:1006F0006E21142001F074FF6DA28221142001F0FC
:100700006FFFD4E66CA20A21084601F069FF90A2AF
:100710001E210A2001F064FF73A23221142001F08F
:100720005FFF904800684FF47A7190FBF1F00A2166
:1007300090FBF1F201FB120030308B4908708948C0
:100740000068642190FBF1F00A2190FBF1F201FBBB
:100750001200303085490870824800680A2190FBF9
:10076000F1F090FBF1F201FB12003030804908708B
:100770007C4800680A2190FBF1F201FB1200303046
:100780007C490870784802783221642001F0F6FE36
:100790007648027832216E2001F0F0FE744802782B
:1007A0003221782001F0EAFE72480278322182205C
:1007B00001F0E4FE54A232218C2001F011FF53A27B
:1007C0004621142001F00CFF6B4800684FF47A7149
:1007D00090FBF1F00A2190FBF1F201FB12003030A6
:1007E0006649087064480068642190FBF1F00A21B2
:1007F00090FBF1F201FB12003030614908705E4855
:1008000000680A2190FBF1F090FBF1F201FB12006D
:1008100030305C490870584800680A2190FBF1F2BA
:1008200001FB1200303058490870544802784621C4
:10083000642001F0A3FE5248027846216E2001F0A8
:100840009DFE50480278462178209FE054696D65EE
:10085000204C61707365204D6F6465005669646556
:100860006F204D6F646500004D616E75616C204DA9
:100870006F64650053657474696E677300000000EF
:10088000496E746572616374697665204D6F646545
:1008900000000000496E70757420506172616D65D2
:1008A00074657273204D616E75616C6C7900000027
:1008B00052657475726E0000506C656173652073CB
:1008C0006C6577207468652063616D657261207462
:1008D0006F00000074686520454E4420706F736996
:1008E00074696F6E00000000536C6964653A203CC7
:1008F0003C3C00002C000020D4000020D50000204B
:10090000D6000020D70000203E3E3E0050616E3AE7
:100910002020203C3C3C000030000020D80000207B
:10092000D9000020DA000020DB00002054696C743C
:100930003A20203C3C3C000034000020DC00002039
:10094000DD000020DE000020DF0000205365740081
:1009500074686520535441525420706F73697469F0
:100960006F6E000038000020E0000020E100002051
:10097000E2000020E30000203C000020E400002012
:10098000E5000020E6000020E700002001F0F6FD71
:10099000FE4802784621822001F0F0FDAFF2980275
:1009A00046218C2001F01CFEAFF280025A21142057
:1009B00001F016FEF64800684FF47A7190FBF1F0F2
:1009C0000A2190FBF1F201FB12003030F14908706E
:1009D000EF480068642190FBF1F00A2190FBF1F2EE
:1009E00001FB12003030EC490870E94800680A2128
:1009F00090FBF1F090FBF1F201FB12003030E7497F
:100A00000870E34800680A2190FBF1F201FB120034
:100A10003030E3490870DF4802785A21642001F041
:100A2000ADFDDD4802785A216E2001F0A7FDDB48BC
:100A300002785A21782001F0A1FDD94802785A2184
:100A4000822001F09BFDAFF240125A218C2001F070
:100A5000C7FDAFF208126E21142001F0C1FDAFF204
:100A6000B0128221142001F0BBFD20E5CDA20A21A5
:100A7000084601F0B5FDD1A21E210A2001F0B0FD0B
:100A8000D1A23221142001F0ABFDD34800684FF40D
:100A90007A7190FBF1F00A2190FBF1F201FB120058
:100AA0003030CE490870CC480068642190FBF1F0EA
:100AB0000A2190FBF1F201FB12003030C8490870A6
:100AC000C54800680A2190FBF1F090FBF1F201FBB0
:100AD00012003030C3490870BF4800680A2190FBFB
:100AE000F1F201FB12003030BF490870BB480278B8
:100AF00032217D2001F042FDB94802783221872061
:100B000001F03CFDB74802783221912001F036FD1A
:100B1000B548027832219B2001F030FDAFF2182257
:100B20003221A52001F05CFDB0A24621142001F085
:100B300057FDB24800684FF47A7190FBF1F00A213A
:100B400090FBF1F201FB12003030AD490870AB4868
:100B50000068642190FBF1F00A2190FBF1F201FBA7
:100B600012003030A7490870A44800680A2190FBA1
:100B7000F1F090FBF1F201FB12003030A249087055
:100B80009E4800680A2190FBF1F201FB1200303010
:100B90009E4908709A48027846217D2001F0EEFCBB
:100BA000984802784621872001F0E8FC96480278B0
:100BB0004621912001F0E2FC9448027846219B20D6
:100BC00001F0DCFCAFF2C0224621A52001F008FDB7
:100BD0008FA25A21142001F003FD914800684FF4C0
:100BE0007A7190FBF1F00A2190FBF1F201FB120007
:100BF00030308C4908708A480068642190FBF1F01D
:100C00000A2190FBF1F201FB120030308649087096
:100C1000834800680A2190FBF1F090FBF1F201FBA0
:100C200012003030814908707D4800680A2190FB2D
:100C3000F1F201FB120030307D49087079480278EA
:100C40005A217D2001F09AFC774802785A218720AA
:100C500001F094FC754802785A21912001F08EFC35
:100C6000734802785A219B2001F088FCAFF2683269
:100C70005A21A52001F0B4FCAFF230326E211420CD
:100C800001F0AEFCAFF2D8328221142001F0A8FCB2
:100C90000DE468A20A21084601F0A2FC6CA21E2104
:100CA0000A2001F09DFC6E4800684FF47A7190FBB9
:100CB000F1F00A2190FBF1F201FB1200303069499A
:100CC000087067480068642190FBF1F00A2190FBEE
:100CD000F1F201FB1200303063490870604800688F
:100CE0000A2190FBF1F090FBF1F201FB1200303091
:100CF0005E4908705A4800680A2190FBF1F201FB36
:100D0000120030305A490870564802781E216E2071
:100D100001F034FC544802781E21782001F02EFCAA
:100D2000524802781E21822001F028FC50480278A7
:100D30001E218C2001F022FC4EA232210A2001F05B
:100D40004FFC4FA23221822001F04AFC4CA23221FA
:100D5000A02001F045FC4B4800684FF4616101E0C0
:100D600016E216E190FBF1F047490860084600687A
:100D7000C0EB001043490968A1EB80003C2190FBC7
:100D8000F1F0424908604048006881E0E700002037
:100D900040000020E8000020E9000020EA000020D8
:100DA000EB000020506C6561736520656E746572A0
:100DB00020666F6C6C6F77696E670000706172619E
:100DC0006D6574657273000046616D65733A20202D
:100DD00020203C3C3C00000044000020EC000020AF
:100DE000ED000020EE000020EF000020496E746549
:100DF0007276616C3A203C3C3C00000048000020C8
:100E0000F0000020F1000020F2000020F30000209C
:100E1000536875747465723A20203C3C3C000000B5
:100E20004C000020F4000020F5000020F600002017
:100E3000F700002054616B696E672054696D65206E
:100E40004C617073652E2E2E202E2E2E0000000079
:100E500046616D65732054616B656E3A2000000039
:100E6000C8000020F8000020F9000020FA0000204F
:100E7000FB00002054696D65204C6566743A0000E3
:100E80003A0000006000002004010020080100205A
:100E9000C0EB4011C1EB0020FE490968A1EB001036
:100EA000FD490968C1EB0111A0EB8100FB49086015
:100EB000FB4800680A2190FBF1F090FBF1F201FB86
:100EC00012003030F7490870F54800680A2190FB9D
:100ED000F1F201FB12003030F3490870EE4800686F
:100EE0000A2190FBF1F090FBF1F201FB120030308F
:100EF000EE490870E84800680A2190FBF1F201FB16
:100F000012003030EA490870E44800680A2190FB7A
:100F1000F1F090FBF1F201FB12003030E54908706E
:100F2000DE4800680A2190FBF1F201FB120030302C
:100F3000E1490870DB48027832216E2001F01EFB87
:100F4000D94802783221782001F018FBD74802787E
:100F500032218C2001F012FBD548027832219620F4
:100F600001F00CFBD34802783221AA2001F006FBE5
:100F7000D14802783221B42001F000FBCFA24621F3
:100F8000142001F02DFBCFA25A21142001F028FBE0
:100F90006BE5AFF260120A21084601F021FBAFF2C7
:100FA00050121E210A2001F01BFBC84800684FF4B4
:100FB0007A7190FBF1F00A2190FBF1F201FB120033
:100FC0003030C3490870C1480068642190FBF1F0DB
:100FD0000A2190FBF1F201FB12003030BD4908708C
:100FE000BA4800680A2190FBF1F090FBF1F201FB96
:100FF00012003030B8490870B44800680A2190FBEC
:10100000F1F201FB12003030B4490870B0480278A8
:101010001E216E2001F0B2FAAE4802781E2178201F
:1010200001F0ACFAAC4802781E21822001F0A6FA49
:10103000AA4802781E218C2001F0A0FAAFF2CC124F
:1010400032210A2001F0CCFAAFF2CC1232218220F8
:1010500001F0C6FAAFF2D8123221A02001F0C0FA96
:101060008C4800684FF4616190FBF1F08C49086096
:1010700008460068C0EB001086490968A1EB8000B3
:101080003C2190FBF1F08449086085480068C0EB82
:101090004011C1EB00207F490968A1EB00107E4997
:1010A0000968C1EB0111A0EB81007C4908607C4814
:1010B00000680A2190FBF1F090FBF1F201FB1200B5
:1010C000303078490870764800680A2190FBF1F2C8
:1010D00001FB12003030744908706F4800680A2123
:1010E00090FBF1F090FBF1F201FB120030306F4900
:1010F0000870694800680A2190FBF1F201FB1200B8
:1011000030306B490870654800680A2190FBF1F0A7
:1011100090FBF1F201FB12003030664908705F4825
:1011200000680A2190FBF1F201FB120030306249A5
:1011300008705C48027832216E2001F01FFA5A488C
:1011400002783221782001F019FA584802783221C9
:101150008C2001F013FA564802783221962001F0D3
:101160000DFA544802783221AA2001F007FA5248B9
:1011700002783221B42001F001FA59A2462114204C
:1011800001F02EFA4FA25A21142001F029FA6CE442
:1011900055A20A21084601F023FAAFF2E0321E21DF
:1011A0000A2001F01DFA57A23221142001F018FA8A
:1011B000584800684FF47A7190FBF1F00A2190FBD7
:1011C000F1F201FB120030305349087051480068B9
:1011D000642190FBF1F00A2190FBF1F201FB120077
:1011E00030304E4908704B4800680A2190FBF1F0FE
:1011F00090FBF1F201FB120030304949087045487C
:1012000000680A2190FBF1F201FB120030304549E1
:101210000870414802783221912001F0AFF93F482F
:10122000027832219B2001F0A9F93D480278322151
:10123000A52001F0A3F93B4802783221AF2001F04C
:101240009DF9AFF63C123221B92001F0C9F936A25E
:101250004621142001F0C4F9374800684FF47A7130
:1012600090FBF1F00A2190FBF1F201FB120030300B
:101270003249087030480068642190FBF1F00A217F
:1012800090FBF1F201FB120030302D4908702A4822
:10129000006857E060000020080100200C010020D9
:1012A00004010020FC000020FD000020FE000020C2
:1012B000FF00002000010020010100205061757333
:1012C0006500000053746F7000000000C80000202B
:1012D000F8000020F9000020FA000020FB000020A8
:1012E000526573756D650000506C656173652065AE
:1012F0006E7465722074686520666F6C6C6F7769B8
:101300006E670000546F74616C2046616D65733ABE
:101310003C3C3C0044000020EC000020ED0000209C
:10132000EE000020EF000020496E74657276616C5B
:101330003A2020203C3C3C0048000020F0000020E7
:10134000F10000200A2190FBF1F090FBF1F201FB8B
:1013500012003030FE490870FE4800680A2190FBF8
:10136000F1F201FB12003030FB490870FB480278B3
:101370004621912001F002F9F948027846219B208C
:1013800001F0FCF8F24802784621A52001F0F6F8B9
:10139000F14802784621AF2001F0F0F8AFF698222C
:1013A0004621B92001F01CF9EEA25A21142001F0C7
:1013B00017F9F04800684FF47A7190FBF1F00A21B8
:1013C00090FBF1F201FB12003030EB490870E94864
:1013D0000068642190FBF1F00A2190FBF1F201FB1F
:1013E00012003030E5490870E24800680A2190FB9D
:1013F000F1F090FBF1F201FB12003030E04908708F
:10140000DC4800680A2190FBF1F201FB1200303049
:10141000DC490870D84802785A21912001F0AEF8D2
:10142000D64802785A219B2001F0A8F8D4480278C7
:101430005A21A52001F0A2F8D24802785A21AF2003
:1014400001F09CF8AFF640325A21B92001F0C8F8FB
:10145000CDA26E21142001F0C3F8AFF6AC32822188
:10146000142001F0BDF813E4AFF284120A210846FB
:1014700001F0B6F8C7A21E210A2001F0B1F8C8A2F7
:101480003221142001F0ACF8B9A24621142001F059
:10149000A7F8C84800684FF47A7190FBF1F00A2170
:1014A00090FBF1F201FB12003030C3490870C148D3
:1014B0000068642190FBF1F00A2190FBF1F201FB3E
:1014C00012003030BD490870BA4800680A2190FB0C
:1014D000F1F090FBF1F201FB12003030B8490870D6
:1014E000B44800680A2190FBF1F201FB1200303091
:1014F000B4490870B048027846212D2001F03EF82A
:10150000AE4802784621372001F038F8AC4802781E
:101510004621412001F032F8AA48027846214B20AA
:1015200001F02CF8AFF620424621552001F058F882
:10153000A5A25A21142001F053F88DA26E21142087
:1015400001F04EF8A54800684FF47A7190FBF1F075
:101550000A2190FBF1F201FB12003030A049087023
:101560009E480068642190FBF1F00A2190FBF1F2A3
:1015700001FB120030309B490870984800680A212E
:1015800090FBF1F090FBF1F201FB12003030964934
:101590000870924800680A2190FBF1F201FB1200EA
:1015A0003030924908708E4802786E212D2000F06C
:1015B000E5FF8C4802786E21372000F0DFFF8A4873
:1015C00002786E21412000F0D9FF884802786E2110
:1015D0004B2000F0D3FFAFF6D0426E21552000F033
:1015E000FFFF83A28221142000F0FAFF60A296215F
:1015F000142000F0F5FF834800684FF47A7190FBE7
:10160000F1F00A2190FBF1F201FB120030307E492B
:1016100008707C480068642190FBF1F00A2190FB7F
:10162000F1F201FB1200303078490870754800680B
:101630000A2190FBF1F090FBF1F201FB1200303037
:10164000734908706F4800680A2190FBF1F201FBB2
:10165000120030306F4908706B48027896212D20B7
:1016600000F08CFF694802789621372000F086FF51
:10167000674802789621412000F080FF6548027893
:1016800096214B2000F07AFFAFF684529621552028
:1016900000F0A6FF3CA2AA21142000F0A1FFAFF6A3
:1016A000F052BE21142000F09BFF71E4AFF2C8326B
:1016B0000A21084600F094FF36A21E210A2000F0FD
:1016C0008FFF55A23221142000F08AFF28A2462164
:1016D000142000F085FF544800684FF47A7190FBA5
:1016E000F1F00A2190FBF1F201FB120030304F497A
:1016F00008704D480068642190FBF1F00A2190FBCE
:10170000F1F201FB12003030494908704648006888
:101710000A2190FBF1F090FBF1F201FB1200303056
:1017200044490870404800680A2190FBF1F201FB2F
:1017300012003030404908703C48027846212D2084
:1017400000F01CFF3A4802784621372076E000007E
:10175000F200002048000020F3000020F0000020EC
:10176000F1000020536875747465723A20202020BF
:101770003C3C3C004C000020F4000020F500002020
:10178000F6000020F7000020436F6E74696E7565E7
:1017900000000000706172616D65746572732000F5
:1017A000537461727420506F736974696F6E5F58FF
:1017B0003A00000038000020E0000020E100002096
:1017C000E2000020E3000020537461727420506F27
:1017D000736974696F6E5F593A0000003C00002025
:1017E000E4000020E5000020E6000020E7000020E3
:1017F000537461727420506F736974696F6E5F5AAD
:101800003A00000040000020E8000020E90000202D
:10181000EA000020EB000020456E6420506F7369E1
:1018200074696F6E5F583A002C000020D4000020CD
:10183000D5000020D6000020D700002000F09EFE3A
:10184000FE4802784621412000F098FEFC480278CC
:1018500046214B2000F092FEAFF6547246215520EF
:1018600000F0BEFEF7A25A21142000F0B9FEAFF23C
:1018700000126E21142000F0B3FEF64800684FF409
:101880007A7190FBF1F00A2190FBF1F201FB12005A
:101890003030F1490870EF480068642190FBF1F0A6
:1018A0000A2190FBF1F201FB12003030EB49087085
:1018B000E84800680A2190FBF1F090FBF1F201FB8F
:1018C00012003030E6490870E24800680A2190FBB7
:1018D000F1F201FB12003030E2490870DE48027874
:1018E0006E212D2000F04AFEDC4802786E21372060
:1018F00000F044FEDA4802786E21412000F03EFEFE
:10190000D84802786E214B2000F038FED64A6E216E
:10191000552000F065FED5A28221142000F060FE63
:10192000AFF2B4129621142000F05AFED34800689A
:101930004FF47A7190FBF1F00A2190FBF1F201FB78
:1019400012003030CE490870CC480068642190FB0A
:10195000F1F00A2190FBF1F201FB12003030C9498D
:101960000870C64800680A2190FBF1F090FBF1F284
:1019700001FB12003030C4490870C04800680A21D9
:1019800090FBF1F201FB12003030C0490870BC48F6
:10199000027896212D2000F0F1FDBA4802789621B8
:1019A000372000F0EBFDB84802789621412000F086
:1019B000E5FDB648027896214B2000F0DFFDAA4AEB
:1019C0009621552000F00CFEAFF24422AA211420EB
:1019D00000F006FEA44A583ABE21142000F000FE92
:1019E00040E3A14AAC3A0A21084600F0F9FD9E4ABC
:1019F000883A1E21142000F0F3FD9B4A743A3221EC
:101A0000142000F0EDFD984A583A4621142000F0C9
:101A1000E7FD27E3AFF230720A21084600F0E0FD4F
:101A2000AFF668421E210A2000F0DAFD98A23221AA
:101A3000142000F0D5FD994800680A2190FBF1F2CE
:101A400001FB1200303096490870084602783221B6
:101A50007D2000F093FDAFF2D0224621142000F04B
:101A6000BFFD814A583A5A21142000F0B9FDF9E22D
:101A70008CA20A21084600F0B3FDAFF608421E21F1
:101A80000A2000F0ADFDAFF2D8221E21822000F026
:101A9000A7FDAFF2E4221E21A02000F0A1FD8648A0
:101AA00000684FF4616190FBF1F0844908600846DA
:101AB0000068C0EB001080490968A1EB80003C2160
:101AC00090FBF1F07E4908607C480068C0EB401153
:101AD000C1EB002078490968A1EB0010784909683A
:101AE000C1EB0111A0EB81007649086073480068E2
:101AF0000A2190FBF1F090FBF1F201FB1200303073
:101B0000714908706D4800680A2190FBF1F201FBF1
:101B1000120030306D490870694800680A2190FB56
:101B2000F1F090FBF1F201FB1200303068490870CF
:101B3000634800680A2190FBF1F201FB120030308B
:101B4000644908705F4800680A2190FBF1F090FB3F
:101B5000F1F201FB120030305F490870594800680B
:101B60000A2190FBF1F201FB120030305B49087052
:101B7000554802781E216E2000F000FD534802787F
:101B80001E21782000F0FAFC514802781E218C209A
:101B900000F0F4FC4F4802781E21962000F0EEFC85
:101BA0004D4802781E21AA2000F0E8FC4B4802783C
:101BB0001E21B42000F0E2FCAFF600123221142006
:101BC00000F00EFDAFF604124621142000F008FDCF
:101BD00048E234A20A21084600F002FDAFF66C523A
:101BE0001E210A2000F0FCFCAFF23C421E218220A4
:101BF00000F0F6FCAFF248421E21A02000F0F0FCFD
:101C00002D4800684FF4616190FBF1F02B490860AA
:101C100008460068C0EB001027490968A1EB800066
:101C20003C2190FBF1F02649086024480068C0EB95
:101C30004011C1EB00202049096851E0D600002086
:101C4000D7000020456E6420506F736974696F6E11
:101C50005F593A0030000020D8000020D900002051
:101C6000DA000020DB00002008090008456E64202F
:101C7000506F736974696F6E5F5A3A0034000020C8
:101C8000DC000020DD000020DE000020DF0000205E
:101C9000537065656428312D39293A009000002081
:101CA0001C01002054616B696E6720566964656F82
:101CB0002E2E2E202E2E2E0060000020040100204B
:101CC000080100200C010020FC000020FD00002085
:101CD000FE000020FF000020000100200101002084
:101CE000A1EB0010E0490968C1EB0111A0EB8100F4
:101CF000DE490860DE4800680A2190FBF1F090FBA5
:101D0000F1F201FB12003030DA490870D84800685F
:101D10000A2190FBF1F201FB12003030D649087025
:101D2000D14800680A2190FBF1F090FBF1F201FB31
:101D300012003030D1490870CB4800680A2190FB6E
:101D4000F1F201FB12003030CD490870C74800683D
:101D50000A2190FBF1F090FBF1F201FB1200303010
:101D6000C8490870C14800680A2190FBF1F201FBE4
:101D700012003030C4490870BE4802781E216E201F
:101D800000F0FCFBBC4802781E21782000F0F6FB36
:101D9000BA4802781E218C2000F0F0FBB848027887
:101DA0001E21962000F0EAFBB64802781E21AA20E8
:101DB00000F0E4FBB44802781E21B42000F0DEFB02
:101DC000AFF6E4223221142000F00AFCAFF60C3208
:101DD0004621142000F004FC44E1AFF6F4220A216D
:101DE000084600F0FDFBA94A1E210A2000F0F8FB7E
:101DF000AFF264123221142000F0F2FBA448006814
:101E00000A2190FBF1F201FB12003030A149087069
:101E10000846027832217D2000F0B0FB9E4A462120
:101E2000142000F0DDFB9C4A9C3A5A21142000F05B
:101E3000D7FB17E1984AE43A0A21084600F0D0FBA4
:101E4000954A643A1E21142000F0CAFB93480068AA
:101E50004FF47A7190FBF1F00A2190FBF1F201FB53
:101E6000120030308E4908708C480068642190FB65
:101E7000F1F00A2190FBF1F201FB120030308949A8
:101E80000870864800680A2190FBF1F090FBF1F29F
:101E900001FB1200303084490870804800680A2134
:101EA00090FBF1F201FB12003030804908707C4851
:101EB00002781E21642000F061FB7A4802781E211E
:101EC0006E2000F05BFB784802781E21782000F03D
:101ED00055FB764802781E21822000F04FFB6E4AA7
:101EE000443A1E218C2000F07BFB6B4A403A3221A1
:101EF000142000F075FB6E4800684FF47A7190FB77
:101F0000F1F00A2190FBF1F201FB12003030694937
:101F1000087067480068642190FBF1F00A2190FB8B
:101F2000F1F201FB1200303063490870604800682C
:101F30000A2190FBF1F090FBF1F201FB120030302E
:101F40005E4908705A4800680A2190FBF1F201FBD3
:101F5000120030305A490870564802783221642005
:101F600000F00CFB5448027832216E2000F006FB92
:101F7000524802783221782000F000FB5048027865
:101F80003221822000F0FAFA434A443A32218C206E
:101F900000F026FB404A203A4621142000F020FBA6
:101FA000484800684FF47A7190FBF1F00A2190FBE9
:101FB000F1F201FB120030304349087041480068DB
:101FC000642190FBF1F00A2190FBF1F201FB120079
:101FD00030303E4908703B4800680A2190FBF1F020
:101FE00090FBF1F201FB120030303949087035489E
:101FF00000680A2190FBF1F201FB120030303549F4
:102000000870314802784621642000F0B7FA2F4862
:10201000027846216E2000F0B1FA2D480278462160
:10202000782000F0ABFA2B4802784621822000F09D
:10203000A5FA194A443A46218C2000F0D1FA164AF2
:102040009C3A5A21142000F0CBFA0BE022A20A217C
:10205000142000F0C5FA104A9C3A1E21142000F00A
:10206000BFFA00BF00BF10BD080100200C01002016
:1020700004010020FC000020FD000020FE000020E4
:10208000FF0000200001002001010020BC0D00081D
:10209000900000201C0100204C0900087C0000205A
:1020A0001001002011010020120100201301002066
:1020B00080000020140100201501002016010020DE
:1020C00017010020840000201801002019010020C1
:1020D0001A0100201B01002052652D696E69746988
:1020E000616C697A6500000051B18200A2F1C042C2
:1020F000126842F001038200A2F1C042136009E0BD
:102100008200A2F1C0421268034B1A408300A3F17F
:10211000C0431A6070470000FEFF0F00D0E90112B3
:102120001143C26811430269114342691143826934
:102130001143C2691143026A1143426A1143826A20
:102140001143C26A1143026B114302689200A2F16B
:10215000C0421160816808290BD101688900A1F192
:10216000C041096841F0400201688900A1F1C04105
:102170000A60416B0968426B526841EA0211426B86
:10218000926841EA0221426B928941EA0241426B24
:10219000128A41EA0251426B127D41EA0261426BAE
:1021A000926911430268521C9200A2F1C042116070
:1021B000C16AB1F5804F1BD1816B0968826B52688F
:1021C00041EA0211826B926841EA0221826B128A13
:1021D00041EA0251826B127D41EA0261826B92698F
:1021E000114302689200A2F1C042C2F8041107E054
:1021F0006FF0704201688900A1F1C041C1F804216B
:102200007047000008B50121042000F0FDFC4FF4E8
:10221000FE70ADF8000010208DF8030003208DF84B
:10222000020069460B4800F019F84FF47F70094925
:10223000143108600121082000F0E6FC40F2E33090
:10224000ADF8000004208DF803006946024800F054
:1022500005F808BD00080140000C01402DE9F041DF
:10226000024600250026002000230024002791F8C4
:1022700003C00CF00F0591F803C00CF0100CBCF17A
:10228000000F03D091F802C04CEA050591F800C098
:10229000BCF1000F31D0146800202BE04FF0010C8E
:1022A0000CFA00F3B1F800C00CEA03069E4220D1FC
:1022B00083004FF00F0C0CFA03F7BC4305FA03FC44
:1022C0004CEA040491F803C0BCF1280F06D14FF08A
:1022D000010C0CFA00FCC2F814C00AE091F803C02B
:1022E000BCF1480F05D14FF0010C0CFA00FCC2F80C
:1022F00010C0401C0828D1D31460B1F800C0BCF154
:10230000FF0F34DD546800202EE000F1080C4FF080
:10231000010808FA0CF3B1F800C00CEA03069E426B
:1023200021D183004FF00F0C0CFA03F7BC4305FAE0
:1023300003FC4CEA040491F803C0BCF1280F05D15A
:1023400000F1080C08FA0CF8C2F8148091F803C0E8
:10235000BCF1480F07D100F1080C4FF0010808FA52
:102360000CF8C2F81080401C0828CED35460BDE899
:10237000F0810246002093680B400BB1012000E081
:1023800000207047416170470161704700BFFEE760
:1023900010B504462CB14FF480510548FFF7F2FF09
:1023A00004E04FF480510248FFF7EEFF10BD00003B
:1023B000001401402DE9F04106460F4614461D4623
:1023C000DDF818802B4622463946304600F0F5F9F4
:1023D00004FB05F0414600F056F9BDE8F08108B570
:1023E0004FF6FF704FF4A073F022002100900846D2
:1023F000FFF7E0FF08BD38B504464FF6FF700090C8
:1024000004EB84000A2202EB8000C0F5A07083B2C6
:1024100004EB840002EB800081B20F220520FFF75D
:10242000C9FF38BD10B504460D2C49D2DFE804F0D1
:10243000070C11161B20252A2F34393E43000F218B
:10244000052000F03FF83BE02321052000F03AF89A
:1024500036E03721052000F035F831E04B2105202A
:1024600000F030F82CE05F21052000F02BF827E089
:102470007321052000F026F822E08721052000F0D6
:1024800021F81DE09B21052000F01CF818E0AF2189
:10249000052000F017F813E0C321052000F012F822
:1024A0000EE0D721052000F00DF809E0EB21052012
:1024B00000F008F804E0FF21052000F003F800BF59
:1024C00000BF10BD70B504460D46A9B2A0B20523E9
:1024D0000A2200F072F90021642000F0D4F86A1C8E
:1024E00091B204F10A0290B20323012200F065F9CF
:1024F0000021122000F0C7F8AA1C91B204F10B02CF
:1025000090B201231A4600F058F90021012000F092
:10251000BAF86A1E91B204F1080290B201230222B5
:1025200000F04BF90021122000F0ADF8AA1E91B284
:1025300004F1080290B201231A4600F03EF900218E
:10254000012000F0A0F86A1D91B204F1080290B2D7
:102550000123022200F031F90021122000F093F84B
:10256000AA1D91B204F1080290B201231A4600F0AC
:1025700024F90021012000F086F870BD2DE9F04714
:10258000804689461546A5F1200000F0FF0A102379
:1025900008224946404600F010F92C2000F06AFA63
:1025A000002417E00D4800EB0A10065D00270DE03F
:1025B00006F0010018B11F2000F060FA03E04FF6AA
:1025C000FF7000F05BFA7610781CC7B2082FEFDBC3
:1025D000601CC4B2102CE5DBBDE8F0873A58000857
:1025E00070B505460E46144617E028460830F02818
:1025F00003DD002506F1100086B230461030B0F53C
:10260000A07F01DD00250026227831462846FFF70D
:10261000B5FF641C05F1080085B220780028E4D1DC
:1026200070BD00B597B00121080200F0CDFA02207C
:102630000190002002900520039000200490059056
:1026400006904FF0805007900020089009900820D5
:102650000A9010200B9000200C900E900F9010907C
:102660004FF480501190002012901390149001A804
:102670001590169008A8FFF751FD01210020FFF7E3
:1026800033FD17B000BD70B504460D4600262C2062
:1026900000F0F0F900BF03E0284600F0EFF9761CE7
:1026A000A642F9D370BD000008B50121084600F02C
:1026B000ABFA0121602000F0A7FA03208DF8020098
:1026C00018208DF803004CF20370ADF80000694645
:1026D0002C48FFF7C3FD4FF68070ADF80000694647
:1026E0002948FFF7BBFD03208DF8020018208DF864
:1026F00003001020ADF8000069462248FFF7AEFD48
:102700002020ADF8000069461E48FFF7A7FD012113
:10271000202000F079FA8020ADF8000069461948C1
:10272000FFF79CFD0121202000F06EFA4FF40060BD
:10273000ADF8000069461348FFF790FD10208DF8B2
:10274000030003208DF802000121402000F05CFA14
:102750000220ADF8000069460B48FFF77FFD10200E
:102760008DF8030003208DF802000121202000F0E5
:102770004BFA4FF48050ADF8000069460148FFF76E
:102780006DFD08BD001401400018014008B5FFF7B9
:102790008BFFFFF746FF0120FFF7FAFD00F056F927
:1027A00000F03CF84FF6FF704FF4A073F0220021C8
:1027B00000900846FFF7FEFD08BD2DE9F0410446F4
:1027C0000D4616461F462A2000F054F9201200F04C
:1027D00055F9E0B200F052F9A119491EC1F30F20DA
:1027E00000F04CF9A119491EC8B200F047F92B209E
:1027F00000F040F9281200F041F9E8B200F03EF98B
:10280000E919491EC1F30F2000F038F9E919491EF2
:10281000C8B200F033F9BDE8F081000010B5CF2058
:1028200000F028F9002000F029F9812000F026F9B5
:10283000302000F023F9ED2000F01CF9642000F0B6
:102840001DF9032000F01AF9122000F017F9812079
:1028500000F014F9E82000F00DF9852000F00EF9E1
:10286000102000F00BF9782000F008F9CB2000F0E0
:1028700001F9392000F002F92C2000F0FFF80020C7
:1028800000F0FCF8342000F0F9F8022000F0F6F82F
:10289000F72000F0EFF8202000F0F0F8EA2000F038
:1028A000E9F8002000F0EAF8002000F0E7F8B12095
:1028B00000F0E0F8002000F0E1F81B2000F0DEF866
:1028C000B62000F0D7F80A2000F0D8F8A22000F0D7
:1028D000D5F8C02000F0CEF8352000F0CFF8C120A8
:1028E00000F0C8F8112000F0C9F8C52000F0C2F8C7
:1028F000452000F0C3F8452000F0C0F8C72000F0E4
:10290000B9F8A22000F0BAF8F22000F0B3F80020E5
:1029100000F0B4F8262000F0ADF8012000F0AEF889
:10292000E02000F0A7F80F2000F0A8F8262000F023
:10293000A5F8242000F0A2F80B2000F09FF80E204C
:1029400000F09CF8092000F099F8542000F096F867
:10295000A82000F093F8462000F090F80C2000F03A
:102960008DF8172000F08AF8092000F087F80F2072
:1029700000F084F8072000F081F8002000F07EF8D5
:10298000E12000F077F8002000F078F8192000F03E
:1029900075F81B2000F072F8042000F06FF810208A
:1029A00000F06CF8072000F069F82A2000F066F8C3
:1029B000472000F063F8392000F060F8032000F0B1
:1029C0005DF8062000F05AF8062000F057F8302095
:1029D00000F054F8382000F051F80F2000F04EF8C5
:1029E000362000F047F8C82000F048F82A2000F010
:1029F00041F8002000F042F8002000F03FF80020ED
:102A000000F03CF8EF2000F039F82B2000F032F80D
:102A1000002000F033F8002000F030F8012000F032
:102A20002DF83F2000F02AF83A2000F023F8552036
:102A300000F024F8112000F01DF80348FDF7C8FC51
:102A4000292000F017F810BDFCBF020010B50221CC
:102A50000648FFF797FC0648FDF7BAFC0221034839
:102A6000FFF792FC0248FDF7B3FC10BD00180140CF
:102A7000FCBF02004FF0C041088070470149088048
:102A8000704700000000026008B501214FF0C050FF
:102A900000F0AAF8012000F08FF84FF4407000F029
:102AA000C9F8012000F0C0F800F040F900F048F942
:102AB00000F0D6F83E2000F029F900F037F90020A8
:102AC00000F016F900F032F94FF6FF701B4908804C
:102AD00000F02CF94FF6FF701849091D088000F02E
:102AE00025F90121022000F0F3F814481C38008871
:102AF00000F0020011491C39088000F017F900F0BD
:102B0000B9F829208DF8000000208DF801008DF81B
:102B1000020001208DF80300684600F015F803203C
:102B20008DF8000000208DF801008DF802000120D2
:102B30008DF80300684600F007F808BD2028004023
:102B400000BFFEE77047000070B5002100230F2290
:102B5000C47804B3154C246804F4E064C4F5E0645C
:102B6000210AC1F10403CA40447804FA03F18478CD
:102B70001440214309010E4C0678A155047804F055
:102B80001F050124AC4005786D11AD0005F1E0256D
:102B9000C5F8004109E0047804F01F050124AC40A9
:102BA000044D0678761145F8264070BD0CED00E026
:102BB00000E400E080E100E00149086270470000A5
:102BC00000000E427047000029B1064A52690243D4
:102BD000044B5A6104E0034A52698243014B5A6133
:102BE000704700000010024029B1064AD269024332
:102BF000044BDA6104E0034AD2698243014BDA6193
:102C0000704700000010024029B1064A9269024351
:102C1000044B9A6104E0034A92698243014B9A6132
:102C20007047000000100240014908607047000032
:102C30003C0442420249096A0143014A1162704759
:102C40000010024010B5022000F002F810BD000094
:102C5000024909888143014A1180704704280040D5
:102C60000348008840F010000149088070470000C8
:102C700004280040034800884FF6EF7108400149DE
:102C8000088070470428004001460020064A128848
:102C90000A40D0B2044A121F12880A4012B108B189
:102CA000012000E0002070470428004010B50220F9
:102CB000FFF7EAFF012808D10220FFF7C9FF034808
:102CC000006810B101480068804710BD0000002076
:102CD00029B1064A12880243044B1A8004E0034AD1
:102CE00012888243014B1A80704700000028004080
:102CF00000B50246FFF7B4FF100C03490880091D18
:102D00000A80FFF7B7FF00BD1828004000B5024653
:102D1000FFF7A6FFC2F3034003490880091D0A809C
:102D2000FFF7A8FF00BD00000828004000BF0348CF
:102D3000008800F020000028F9D0704704280040E7
:102D4000074800884FF6F77108400549088000BF22
:102D50000348008800F008000028F9D07047000000
:102D600004280040704710B500F002F810BD0000C4
:102D70000CB50020019000903348006840F480308A
:102D80003149086000BF3048006800F4003000900E
:102D90000198401C0190009818B90198B0F5A06FF7
:102DA000F1D12948006800F4003010B101200090F2
:102DB00001E0002000900098012843D123480068DA
:102DC00040F01000214908600846006820F0030028
:102DD00008600846006840F0020008601A48406831
:102DE000194948600846406848600846406840F411
:102DF000806048600846406820F47C1048600846BF
:102E0000406840F4E81048600846006840F0807070
:102E1000086000BF0C48006800F000700028F9D07E
:102E20000948406820F003000749486008464068A8
:102E300040F00200486000BF0348406800F00C000A
:102E40000828F9D10CBD000000100240002002400B
:102E500010B5044674B90121084600F0D1F81420D9
:102E6000FDF7CAFA0021012000F0CAF81420FDF78E
:102E7000C3FA00BF00BF10BD0146052912D2DFE82A
:102E800001F00306090C0F004FF448600AE04FF40C
:102E9000C86007E04FF4487004E04FF4A07001E010
:102EA000A02000BF00BF70477047000010B5134856
:102EB000006840F001001149086008464068104968
:102EC00008400E494860084600680E4908400B4912
:102ED00008600846006820F48020086008464068C2
:102EE00020F4FE0048604FF41F008860FFF73BFFAE
:102EF0004FF000600449086010BD0000001002405F
:102F00000000FFF8FFFFF6FE08ED00E000BFFEE75F
:102F100002E008C8121F08C1002AFAD170477047A2
:102F2000002001E001C1121F002AFBD17047000000
:102F300030B5044600250EE00848FDF75DFA012192
:102F4000002000F05DF80548FDF756FA002108461C
:102F500000F056F86D1CA542EEDB30BDA0860100E6
:102F600070B50546072D46D2DFE805F0040D161FA3
:102F700028313B0001212148FFF7FBF908B100246B
:102F800000E0012437E002211C48FFF7F2F908B104
:102F9000002400E001242EE020211848FFF7E9F981
:102FA00008B1002400E0012425E040211348FFF788
:102FB000E0F908B1002400E001241CE080210F4862
:102FC000FFF7D7F908B1002400E0012413E04FF423
:102FD00080710A48FFF7CDF908B1002400E0012410
:102FE00009E04FF400710548FFF7C3F908B1002468
:102FF00000E0012400BF00BF204670BD000C01406E
:1030000007284DD2DFE800F0040E18222C364000CD
:1030100019B90422234B1A6003E00422214B1B1F21
:103020001A603DE019B908221E4B1A6003E008221D
:103030001C4B1B1F1A6033E019B91022194B1A6080
:1030400003E01022174B1B1F1A6029E019B9202238
:10305000144B1A6003E02022124B1B1F1A601FE062
:1030600019B940220F4B1A6003E040220D4B1B1F81
:103070001A6015E019B980220A4B1A6003E0802219
:10308000084B1B1F1A600BE021B94FF48072054BEF
:103090001A6004E04FF48072024B1B1F1A6000BFDD
:1030A00000BF704714080140FFF770FBFFF7AAF854
:1030B000FFF7EAFC0220FFF73BFFFDA20A210846CA
:1030C000FFF78EFAFFF78BF902F06EFBFE490860FE
:1030D0000020FE490860FE49086002F02CBBFB4856
:1030E000006800287ED1FB490860F8480068FDF7B9
:1030F00091F9F7480068FFF795F90120FFF730FFD5
:10310000012811D10020FFF776F9F1480068032863
:1031100005DAEF480068401CED49086002E0002035
:10312000EB490860FDF75EF90020FFF719FF012861
:1031300011D10020FFF75FF9E5480068002805DDA0
:10314000E3480068401EE249086002E00320E049CD
:103150000860FDF747F9DE480068A0B90420FFF7D2
:10316000FFFE01280FD1DB48006860B90120D74974
:103170000860D7490860D8490860D6490860FDF75B
:1031800031F9FFF72CF9D2480068012815D1042045
:10319000FFF7E6FE012810D1CE48006868B902208A
:1031A000CA4908600120CA490860CC490860C94979
:1031B0000860FDF717F9FFF712F9C5480068022803
:1031C00015D10420FFF7CCFE012810D1C1480068BA
:1031D00068B90320BD4908600120BD490860BD49A8
:1031E000086000E01BE0FDF7FDF8FFF7F8F8B848CD
:1031F0000068032813D10420FFF7B2FE01280ED186
:10320000B448006858B90420B04908600120B049AA
:103210000860B0490860FDF7E5F8FFF7E0F8AB4853
:10322000006801287ED10020AA490860A7480068EC
:10323000FDF7F0F8A6480068FFF7F4F80120FFF763
:103240008FFE012810D1FFF7D6F8A14800680328A7
:1032500005DA9F480068401C9D49086002E0012093
:103260009B490860FDF7BEF80020FFF779FE0128B2
:1032700010D1FFF7C0F896480068012805DD944892
:103280000068401E9249086002E0032090490860EF
:10329000FDF7A8F88E480068012820D10420FFF728
:1032A0005FFE01281BD18B480068C0B96F20874999
:1032B0000860022086490860012086490860884825
:1032C000006888490860884800688849086088481C
:1032D000006888490860FDF785F8FFF780F87C48AA
:1032E0000068022814D10420FFF73AFE01280FD10C
:1032F0007848006860B979207449086002207449F0
:103300000860012073490860FDF76CF8FFF767F863
:103310006F480068032817D10420FFF721FE012819
:1033200012D100E010E06B48006868B900206749DE
:1033300008606749086068490860012065490860BD
:10334000FDF750F8FFF74BF8604800686F287DD113
:103350000020604908605D480068FDF75BF85C4844
:103360000068FFF75FF80120FFF7FAFD012811D18F
:103370000220FFF740F856480068062805DA54484E
:103380000068401C5249086002E002205049086071
:10339000FDF728F80020FFF7E3FD012811D10220F6
:1033A000FFF729F84A480068022805DD4848006808
:1033B000401E4749086002E0062045490860FDF7C5
:1033C00011F80020FFF7CCFD90B90120FFF7C8FDF0
:1033D00070B90220FFF7C4FD50B90320FFF7C0FD0C
:1033E00030B90420FFF7BCFD10B9434843490860D9
:1033F0003748006802282ED1FFF7B2FD01282AD1F4
:1034000038480068002826DD36480068401E3549E7
:10341000086008460068324908600023A022194667
:10342000184602F0CBF935480068FCF7E5FF334851
:1034300000680A280FDD31480068FCF707FF0646E0
:103440002F4A304BFCF790FE044600E053E1FCF7B6
:103450000EFF2A4908601E48006802285CD103203C
:10346000FFF77EFD012857D11E48006842F20F7118
:10347000884251DA1B480068401C1A490860084617
:103480000068174908600023A0221946012002F0B5
:1034900095F91A480068FCF7AFFF184800680A2839
:1034A0003ADD16480068FCF7D1FE0646144A2BE0C8
:1034B000496E697469616C697A65696E67202E2E40
:1034C0002E202E2E2E000000B80000201C00002010
:1034D00020000020C400002024000020280000203C
:1034E0007C0000202C000020800000203000002004
:1034F000840000203400002020A10700CC00002020
:103500009A9999999999E93FFE4BFCF72DFE04464B
:10351000FCF7ADFEFC490860FC480068032827D191
:103520000220FFF71DFD012822D1F948006800287C
:103530001EDDF7480068401EF5490860084600682F
:10354000F4490860F0480068FCF756FFEE48006850
:103550000A280DDDEC480068FCF778FE0646EE4AC6
:10356000E84BFCF701FE0446FCF781FEE6490860E3
:10357000E6480068032828D1FFF7F2FC012824D18F
:10358000E348006842F20F7188421EDAE0480068A2
:10359000401CDF49086008460068DE490860DA48D8
:1035A0000068FCF729FFD84800680A280DDDD648D6
:1035B0000068FCF74BFE0646D74AD24BFCF7D4FD19
:1035C0000446FCF754FED0490860D048006804283F
:1035D00027D10220FFF7C4FC012822D1CF48006880
:1035E00000281EDDCD480068401ECC490860084612
:1035F0000068CB490860C4480068FCF7FDFEC2487B
:1036000000680A280DDDC0480068FCF71FFE06466A
:10361000C14ABC4BFCF7A8FD0446FCF728FEBA499A
:103620000860BA480068042829D10320FFF798FCF5
:10363000012824D1B948006842F20F7188421EDA8D
:10364000B6480068401CB549086008460068B4499F
:103650000860AD480068FCF7CFFEAB4800680A2858
:103660000DDDA9480068FCF7F1FD0646AA4AA54B06
:10367000FCF77AFD0446FCF7FAFDA3490860A3486D
:103680000068052820D10420FFF76AFC01281BD11F
:10369000A4480068C0B97020A349086002209B4973
:1036A0000860A2480068A24908609A480068A149D9
:1036B00008609B480068A04908600120994908609B
:1036C000FCF790FEFEF78BFE90480068062812D1AA
:1036D0000420FFF745FC01280DD19248006850B93D
:1036E000012091490860894908608E490860FCF70B
:1036F00079FEFEF774FE8C48006870287DD10020AA
:103700008849086088480068FCF784FE7F480068A4
:10371000FEF788FE0120FFF723FC012811D10220CB
:10372000FEF769FE79480068062805DA77480068E0
:10373000401C7649086002E0022074490860FCF7EA
:1037400051FE0020FFF70CFC012811D10220FEF7EA
:1037500052FE6E480068022805DD6C480068401E75
:103760006A49086002E0062068490860FCF73AFEF2
:103770000020FFF7F5FB90B90120FFF7F1FB70B9CE
:103780000220FFF7EDFB50B90320FFF7E9FB30B94A
:103790000420FFF7E5FB10B968485B4908605B4807
:1037A000006802282ED1FFF7DBFB01282AD16048F0
:1037B0000068002826DD5E480068401E5C490860FD
:1037C00008460068594908600023A0221946184697
:1037D00001F0F4FF4C480068FCF70EFE4A48006810
:1037E0000A280FDD48480068FCF730FD06464A4AC3
:1037F000444BFCF7B9FC044600E089E1FCF737FDD7
:10380000414908604148006802282FD10320FFF792
:10381000A7FB01282AD14648006842F20F7188426E
:1038200024DA43480068401C4149086008460068A3
:103830003E4908600023A0221946012001F0BEFF86
:1038400031480068FCF7D8FD2F4800680A280DDDD4
:103850002D480068FCF7FAFC06462F4A294BFCF776
:1038600083FC0446FCF703FD2749086027480068ED
:10387000032827D10220FFF773FB012822D12D480E
:10388000006800281EDD2B480068401E294908609A
:10389000084600681F4908601B480068FCF7ACFD3B
:1038A000194800680A280DDD17480068FCF7CEFCAF
:1038B0000646194A134BFCF757FC0446FCF7D7FCA5
:1038C0001149086011480068032847D1FFF748FBF9
:1038D000012843D11748006842F20F7188423DDA4F
:1038E00014480068401C13490860084600680949EC
:1038F000086005480068FCF77FFD034800680A2857
:103900002CDD1DE09999E93FCC000020200000202B
:1039100030000020800000209A99999934000020FE
:1039200084000020C40000201C0000207C00002037
:10393000380000203C0000204000002020A10700AB
:10394000FE480068FCF782FC0646FD4AFD4BFCF78A
:103950000BFC0446FCF78BFCF8490860FA48006849
:10396000042827D10220FFF7FBFA012822D1F748CB
:10397000006800281EDDF5480068401EF349086015
:1039800008460068F2490860EC480068FCF734FD1E
:10399000EA4800680A280DDDE8480068FCF756FC94
:1039A0000646E74AE74BFCF7DFFB0446FCF75FFC03
:1039B000E2490860E4480068042829D10320FFF7A1
:1039C000CFFA012824D1E148006842F20F71884201
:1039D0001EDADE480068401CDC49086008460068C2
:1039E000DB490860D5480068FCF706FDD34800684D
:1039F0000A280DDDD1480068FCF728FC0646D04AAD
:103A0000D04BFCF7B1FB0446FCF731FCCB49086016
:103A1000CD480068052818D10420FFF7A1FA012835
:103A200013D1CC48006801280FD1CB48006860B999
:103A30007120CA4908600220C34908600120C649B4
:103A40000860FCF7CFFCFEF7CAFCBF4800680528F9
:103A500018D10420FFF784FA012813D1C048006868
:103A600001280FD1BC48006860B9DF20BB4908605D
:103A70000220B54908600120B7490860FCF7B2FC94
:103A8000FEF7ADFCB0480068062841D10420FFF7DE
:103A900067FA01283CD1B0480068C8BB6F20AF4925
:103AA00008600220A84908600120AB490860FCF7C3
:103AB00099FCFEF794FCAB490968AB4A1268881A76
:103AC000002801DB014600E04142A84A116010468F
:103AD0000068A749096890FBF1F000EB8000400105
:103AE000A44908609F4800689F490968884203DD2F
:103AF0000120A149086002E000209F4908609F4919
:103B000009689F4A1268881A002802DB014601E012
:103B100062E041429B4A116010460068944909687E
:103B200090FBF1F000EB800040019749086093485A
:103B3000006893490968884203DD012093490860C1
:103B400002E0002091490860914909687F4A1268A3
:103B5000881A002801DB014600E041428D4A1160CD
:103B6000104600688249096890FBF1F000EB800084
:103B7000400189490860864800687449096888429C
:103B800003DD01208549086002E0002083490860C8
:103B900001237848002102687748006801F00EFE92
:103BA000704800687E490860012377480021026858
:103BB0007648006801F002FE7048006879490860A4
:103BC00001237548002102687448006801F0F6FD81
:103BD0006F4800685E4908606048006871287CD1C1
:103BE00000205D4908605D480068FCF713FC5648FA
:103BF0000068FEF717FC0120FFF7B2F9012811D188
:103C00000220FEF7F8FB50480068062805DA4E4807
:103C10000068401C4C49086002E002204A490860E4
:103C2000FCF7E0FB0020FFF79BF9012811D10220EF
:103C3000FEF7E1FB44480068022805DD42480068C1
:103C4000401E4149086002E006203F490860FCF739
:103C5000C9FB0020FFF784F990B90120FFF780F934
:103C600070B90220FFF77CF950B90320FFF778F90B
:103C700030B90420FFF774F910B94B482F49086098
:103C800031480068022822D1FFF76AF901281ED1C5
:103C90003748006800281ADD35480068401E34495E
:103CA000086026480068FCF7A7FB244800680A283B
:103CB0000DDD22480068FCF7C9FA0646204A214B70
:103CC000FCF752FA0446FCF7D2FA1C4908601E4879
:103CD0000068022827D1032000E0B3E1FFF740F994
:103CE000012820D12248006842F20F7188421ADA76
:103CF0001F480068401C1E49086010480068FCF717
:103D00007BFB0E4800680A280DDD0C480068FCF7B4
:103D10009DFA06460A4A0B4BFCF726FA0446FCF7C6
:103D2000A6FA064908600848006803285ED1022008
:103D3000FFF716F9012859D11C4839E0CC000020C2
:103D40009A9999999999E93F200000204000002014
:103D50008400002024000020C40000201C0000205B
:103D6000280000202C0000203800002064000020E3
:103D7000440000207000002050000020300000208F
:103D80003C00002068000020740000205400002047
:103D9000340000206C000020780000205800002033
:103DA0007C0000208000002020A1070048000020A7
:103DB000006800281ADDFE480068401EFC490860C3
:103DC000FC480068FCF718FBFA4800680A280DDD7B
:103DD000F8480068FCF73AFA0646F74AF74BFCF752
:103DE000C3F90446FCF743FAF2490860F448006856
:103DF000032824D1FFF7B4F8012820D1EC4800684B
:103E000042F20F7188421ADAE9480068401CE8491A
:103E10000860E8480068FCF7EFFAE64800680A28FE
:103E20000DDDE4480068FCF711FA0646E24AE34B70
:103E3000FCF79AF90446FCF71AFADE490860E048F4
:103E40000068042823D10220FFF78AF801281ED138
:103E5000DC48006800281ADDDA480068401ED949AD
:103E60000860D4480068FCF7C7FAD24800680A28FE
:103E70000DDDD0480068FCF7E9F90646CE4ACF4B85
:103E8000FCF772F90446FCF7F2F9CA490860CC481D
:103E90000068042825D10320FFF762F8012820D10B
:103EA000C848006842F20F7188421ADAC5480068B3
:103EB000401CC4490860BF480068FCF79DFABD4833
:103EC00000680A280DDDBB480068FCF7BFF906460C
:103ED000B94ABA4BFCF748F90446FCF7C8F9B549AA
:103EE0000860B7480068052841D10420FFF738F87A
:103EF00001283CD1B4480068C8BB7220B3490860AF
:103F00000320AF4908600120AF490860FCF76AFA56
:103F1000A7480068AB4909680844AD4909684843A7
:103F2000AC49086008460068AB490860AB490968BD
:103F3000AB4A1268881A002801DB014600E04142C2
:103F4000A84A116010460068A149096890FBF1F089
:103F500000EB80004001A4490860A0480068A04927
:103F60000968884204DD0120A049086003E050E0B0
:103F700000209E4908609E4909689E4A1268881A76
:103F8000002801DB014600E041429B4A11601046D7
:103F900000688F49096890FBF1F000EB8000400158
:103FA000964908609248006892490968884203DD92
:103FB00001209349086002E000209149086091497E
:103FC0000968914A1268881A002801DB014600E05E
:103FD00041428E4A1160104600687D49096890FB95
:103FE000F1F000EB800040018949086085480068D5
:103FF00085490968884203DD01208649086002E09E
:1040000000208449086001F0CFFB83490860FEF777
:10401000E6F96B480068062814D10420FEF7A0FFDB
:1040200001280FD16848006860B9702067490860AE
:10403000022063490860012063490860FCF7D2F957
:10404000FEF7CDF96148006879287DD100205E49EE
:1040500008605E480068FCF7DDF959480068FEF723
:10406000E1F90120FEF77CFF01281BD10220FEF7B9
:10407000C2F953480068082805DA51480068801CD6
:104080004F4908600CE04E480068082805D14C48AC
:104090000068401C4A49086002E002204849086064
:1040A000FCF7A0F90020FEF75BFF01281BD10220DE
:1040B000FEF7A1F942480068022803D109204049CF
:1040C00008600EE03E480068092805DA3C480068B0
:1040D000801E3B49086004E039480068401E3849AA
:1040E0000860FCF77FF90020FEF73AFF90B9012045
:1040F000FEF736FF70B90220FEF732FF50B90320F9
:10410000FEF72EFF30B90420FEF72AFF10B943480E
:10411000284908602A480068022824D1FEF720FFB9
:10412000012820D12E48006800281CDD2C4800689A
:10413000401E2B4908601F480068FCF75DF91D48C8
:1041400000680A280FDD00E045E11A480068FCF726
:104150007DF80646184A194BFCF706F80446FCF7AA
:1041600086F8144908601648006802285FD10320C9
:10417000FEF7F6FE01285AD11948006842F20F7185
:10418000884254DA16480068401C154908600948FE
:104190000068FCF731F9074800680A2847DD054840
:1041A0000068FCF753F80646034A044B38E0000069
:1041B00048000020CC0000209A9999999999E93FEC
:1041C000200000204C000020C40000201C00002023
:1041D000440000205C000020600000202C00002033
:1041E00038000020640000207000002050000020F3
:1041F000300000203C0000206800002074000020F7
:104200005400002034000020400000206C000020FA
:104210007800002058000020C000002020A10700E6
:10422000FBF7A2FF0446FCF722F8FE490860FE48AF
:104230000068042823D10220FEF792FE01281ED137
:10424000FA48006800281ADDF8480068401EF7495F
:104250000860F4480068FCF7CFF8F24800680A28C4
:104260000DDDF0480068FBF7F1FF0646F04AF14B20
:10427000FBF77AFF0446FBF7FAFFEA490860EA48D1
:104280000068042825D10320FEF76AFE012820D10A
:10429000E648006842F20F7188421ADAE348006883
:1042A000401CE2490860DF480068FCF7A5F8DD48DB
:1042B00000680A280DDDDB480068FBF7C7FF0646EB
:1042C000DB4ADC4BFBF750FF0446FBF7D0FFD54938
:1042D0000860D5480068062823D10220FEF740FE7A
:1042E00001281ED1D448006800281ADDD248006891
:1042F000401ED1490860CB480068FCF77DF8C948EA
:1043000000680A280DDDC7480068FBF79FFF0646D6
:10431000C74AC84BFBF728FF0446FBF7A8FFC14973
:104320000860C1480068062825D10320FEF718FE62
:10433000012820D1C048006842F20F7188421ADA81
:10434000BD480068401CBC490860B6480068FCF7DE
:1043500053F8B44800680A280DDDB2480068FBF73E
:1043600075FF0646B24AB34BFBF7FEFE0446FBF769
:104370007EFFAC490860AC480068082814D10420CE
:10438000FEF7EEFD01280FD1AC48006860B97A2035
:10439000AB4908600220A44908600120A7490860D1
:1043A000FCF720F8FEF71BF89F480068092812D197
:1043B0000420FEF7D5FD01280DD1A048006850B9B2
:1043C00001209F490860984908609C490860FCF7F3
:1043D00009F8FEF704F89A4800687A287ED1002090
:1043E0009649086096480068FCF714F88E48006803
:1043F000FEF718F80120FEF7B3FD01281BD10220BB
:10440000FDF7F9FF88480068082805DA8648006843
:10441000801C854908600CE083480068082805D1A5
:1044200081480068401C8049086002E002207E4903
:104430000860FBF7D7FF0020FEF792FD01281BD193
:104440000220FDF7D8FF78480068022803D1092030
:10445000754908600EE074480068092805DA72485A
:104460000068801E7049086004E06F480068401EC4
:104470006D490860FBF7B6FF0020FEF771FD90B9AB
:104480000120FEF76DFD70B90220FEF769FD50B9FD
:104490000320FEF765FD30B90420FEF761FD10B979
:1044A00068486049086060480068022824D1FEF727
:1044B00057FD012820D16448006800281CDD6348AE
:1044C0000068401E6149086056480068FBF794FF89
:1044D000544800680A280FDD524800E048E10068AF
:1044E000FBF7B4FE0646524A524BFBF73DFE04462C
:1044F000FBF7BDFE4B4908604B480068022825D1F8
:104500000320FEF72DFD012820D14F48006842F21C
:104510000F7188421ADA4D480068401C4B49086008
:1045200040480068FBF768FF3E4800680A280DDD38
:104530003C480068FBF78AFE06463D4A3D4BFBF7C8
:1045400013FE0446FBF793FE3649086036480068C0
:10455000042823D10220FEF703FD01281ED1334891
:10456000006800281ADD3A480068401E3849086093
:104570002C480068FBF740FF2A4800680A280DDD38
:1045800028480068FBF762FE0646294A294BFBF7DC
:10459000EBFD0446FBF76BFE2249086022480068E9
:1045A000042825D10320FEF7DBFC012820D11F4879
:1045B000006842F20F7188421ADA25480068401CF0
:1045C0002349086017480068FBF716FF1548006884
:1045D0000A280DDD13480068FBF738FE0646144A2A
:1045E000144BFBF7C1FD0446FBF741FE0D49086083
:1045F0000D48006806283ED10220FEF7B1FC0128D4
:1046000039D10D480068002835DD12480068401E89
:104610001049086003480068FBF7EEFE0148006897
:104620000A2819E0CC000020200000203C000020D7
:104630009A9999999999E93F40000020C400002077
:104640001C00002020A10700380000202C000020C2
:1046500030000020340000200DDDFE480068FBF72C
:10466000F5FD0646FC4AFD4BFBF77EFD0446FBF7D5
:10467000FEFDF8490860FA480068062825D10320A5
:10468000FEF76EFC012820D1F648006842F20F7157
:1046900088421ADAF4480068401CF3490860ED4883
:1046A0000068FBF7A9FEEB4800680A280DDDE94821
:1046B0000068FBF7CBFD0646E74AE84BFBF754FDE5
:1046C0000446FBF7D4FDE3490860E5480068082884
:1046D00018D10420FEF744FC012813D1E3480068F8
:1046E00001280FD1E248006860B97B20E1490860E9
:1046F0000220DB4908600120DD490860FBF772FEFB
:10470000FDF76DFED6480068082818D10420FEF792
:1047100027FC012813D1D848006801280FD1D448BC
:10472000006860B9DF20D34908600220CC490860E6
:104730000120CF490860FBF755FEFDF750FEC84841
:104740000068092814D10420FEF70AFC01280FD1C3
:10475000C748006860B97A20C64908600220C0498D
:1047600008600120C2490860FBF73CFEFDF737FEF8
:10477000C04800687B287CD10020BD490860BD4846
:104780000068FBF747FEB6480068FDF74BFE0120C6
:10479000FEF7E6FB012811D10220FDF72CFEB04800
:1047A0000068062805DAAE480068401CAC4908607D
:1047B00002E00220AA490860FBF714FE0020FEF781
:1047C000CFFB012811D10220FDF715FEA448006897
:1047D000022805DDA2480068401EA149086002E0E9
:1047E00006209F490860FBF7FDFD0020FEF7B8FB9F
:1047F00090B90120FEF7B4FB70B90220FEF7B0FBC0
:1048000050B90320FEF7ACFB30B90420FEF7A8FB3B
:1048100010B99A488F49086091480068022822D14F
:10482000FEF79EFB01281ED19548006800281ADD7E
:1048300093480068401E9249086086480068FBF76C
:10484000DBFD844800680A280DDD82480068FBF71C
:10485000FDFC0646804A814BFBF786FC0446FBF7CD
:1048600006FD7C4908607E480068022827D10320A5
:1048700000E012E2FEF774FB012820D180480068B6
:1048800042F20F7188421ADA7D480068401C7C4968
:10489000086070480068FBF7AFFD6E4800680A28A2
:1048A0000DDD6C480068FBF7D1FC06466A4A6B4B8D
:1048B000FBF75AFC0446FBF7DAFC664908606848D7
:1048C0000068032823D10220FEF74AFB01281ED1ED
:1048D0006C48006800281ADD6A480068401E694973
:1048E00008605C480068FBF787FD5A4800680A28A2
:1048F0000DDD58480068FBF7A9FC0646564A574BA1
:10490000FBF732FC0446FBF7B2FC524908605448FE
:104910000068032824D1FEF723FB012820D1594841
:10492000006842F20F7188421ADA56480068401C4B
:104930005449086047480068FBF75EFD4548006839
:104940000A280DDD43480068FBF780FC0646424A12
:10495000424BFBF709FC0446FBF789FC3D49086024
:104960003F480068042823D10220FEF7F9FA012805
:104970001ED14548006800281ADD43480068401EE3
:104980004149086033480068FBF736FD314800684C
:104990000A280DDD2F480068FBF758FC06462E4A12
:1049A0002E4BFBF7E1FB0446FBF761FC294908604D
:1049B0002B480068042825D10320FEF7D1FA0128EE
:1049C00020D13148006842F20F7188421ADA2E482D
:1049D0000068401C2C4908601E480068FBF70CFD6D
:1049E0001C4800680A280DDD1A480068FBF72EFCF9
:1049F0000646194A194BFBF7B7FB0446FBF737FC91
:104A00001449086016480068052845D10420FEF7BF
:104A1000A7FA012840D116480068E8BB7220154962
:104A2000086003200E490860012011490860FBF767
:104A3000D9FC1448006814490968084410490968F9
:104A40004843124908600846006811490860114946
:104A5000096822E0CC0000209A9999999999E93F38
:104A6000200000204000002034000020240000200E
:104A7000C40000201C0000202800002020A1070006
:104A800044000020480000204C0000205C00002072
:104A9000600000207C000020E7E0FE4A1268881ACF
:104AA000002801DB014600E04142FB4A116010464C
:104AB000006800EB80004001F8490860F848006891
:104AC000F4490968884203DD0120F649086002E0E4
:104AD0000020F4490860F4490968F44A1268881A09
:104AE000002801DB014600E04142F14A1160104616
:104AF000006800EB80004001EE490860EA48006869
:104B0000EA490968884203DD0120EB49086002E0B8
:104B10000020E9490860E9490968E94A1268881AE9
:104B2000002801DB014600E04142E64A11601046E0
:104B3000006800EB80004001E3490860DF4800683E
:104B4000DF490968884203DD0120E049086002E08E
:104B50000020DE4908600023D04819460268D14889
:104B6000006800F02BFE0023D24819460268D248A4
:104B7000006800F023FE0023D34819460268D3489A
:104B8000006800F01BFED2490968C24A1268881A00
:104B9000002801DB014600E04142BF4A1160104697
:104BA0000068CC49096890FBF1F000EB80004001FF
:104BB000BA490860C6480068B6490968884203DDFA
:104BC0000120B849086002E00020B6490860C249E7
:104BD0000968B64A1268881A002801DB014600E01D
:104BE0004142B34A116010460068BA49096890FB17
:104BF000F1F000EB80004001AE490860B648006863
:104C0000AA490968884203DD0120AB49086002E037
:104C10000020A9490860B1490968A94A1268881AA0
:104C2000002801DB014600E04142A64A116010461F
:104C30000068A849096890FBF1F000EB8000400192
:104C4000A1490860A54800689D490968884203DDBC
:104C500001209E49086002E000209C49086000F0A5
:104C6000A3FD9F490860FDF7BAFB9E48006806282F
:104C700013D10420FEF774F901280ED19A48006878
:104C800058B97A20994908600120964908609649E8
:104C90000860FBF7A7FBFDF7A2FB944800687228A9
:104CA0007ED100209049086000F07EFD90490860A8
:104CB000084600688A490968401AB0F57A7F08DD1D
:104CC0008C480068401E8B49086000F06DFD8449E7
:104CD000086086480068FBF79DFB82480068FDF786
:104CE000A1FB0120FEF73CF9012811D10320FDF7BB
:104CF00082FB7C480068042805DA7A480068401C7A
:104D00007849086002E0032076490860FBF76AFBF7
:104D10000020FEF725F9012811D10320FDF76BFBD8
:104D200070480068032805DD6E480068401E6D4924
:104D3000086002E004206B490860FBF753FB6948F8
:104D4000006803281ED10420FEF70AF9012819D1B2
:104D500065480068B0B968480068012804D100F0CF
:104D600062FD01206449086040F276405F490860B6
:104D700003205C49086001205B490860FBF732FBB7
:104D8000FDF72DFB5748006804281AD1FEF7E8F814
:104D9000012816D15448006898B90020534900E012
:104DA00001E108604F4908605449086051490860B2
:104DB0005349086001204C490860FBF713FBFDF7DD
:104DC0000EFB00F0F1FC4A490860084600684D49B6
:104DD0000968401A4C49096801EB4102C2EBC11154
:104DE000B0EBC10F0EDD4448006858B900F01BFD60
:104DF00000F0DAFC454908600120FEF799F801202F
:104E00003D4908603A48006840490968401A4049ED
:104E1000096801EB4102C2EBC111B0EBC10F79DDB2
:104E200035480068012875D100F0FDFC00F0BCFC9D
:104E3000344908600020304908600120FEF778F806
:104E40002F480068401C2E4908600023134819466B
:104E500002681448006800F0B1FC1248006801289C
:104E600007D10F4800680D49096808440C490860DB
:104E700006E00B48006809490968401A08490860BB
:104E800001230C48002102680B48006800F096FCE2
:104E9000094840E038000020640000207000002035
:104EA0007C00002050000020800000203C000020FA
:104EB00068000020740000205400002084000020BE
:104EC000400000206C0000207800002058000020E6
:104ED0002C0000204400002030000020340000207E
:104EE000C000002020000020C40000201C00002082
:104EF000BC00002060000020D00000202400002022
:104F0000C80000208C0000204800002088000020FD
:104F10004C0000202CE00068012807D1F748006809
:104F2000F74909680844F549086006E0F348006855
:104F3000F3490968401AF14908600223F148002149
:104F40000268F148006800F039FCEF480068012869
:104F500007D1EE480068EB4909680844EB4908604E
:104F600006E0EB480068EB490968401AE849086028
:104F7000E9480068E9490968884214D10520FDF72D
:104F8000D7FF0020E6490860E6490860E649086066
:104F9000E6490860E04908600120E5490860FBF740
:104FA00021FAFDF71CFADE48006840F2764188429B
:104FB0006ED10020DE490860D9480068FBF72AFA64
:104FC000D8480068FDF72EFA0120FDF7C9FF012837
:104FD00011D10320FDF70FFAD2480068042805DA42
:104FE000D0480068401CCF49086002E00320CD494A
:104FF0000860FBF7F7F90020FDF7B2FF012811D197
:105000000320FDF7F8F9C7480068032805DDC54807
:105010000068401EC349086002E00420C1490860DE
:10502000FBF7E0F9BF480068032814D10420FDF71E
:1050300097FF01280FD1BE48006860B90820B84921
:1050400008600320B74908600120B9490860FBF7F0
:10505000C9F9FDF7C4F9B3480068042818D1FDF771
:105060007FFF012814D1B248006888B90020AC49FC
:105070000860AC490860AC490860AC490860A649C2
:1050800008600120AA490860FBF7ACF9FDF7A7F911
:10509000A348006802287DD10020A5490860A048E7
:1050A0000068FBF7B7F99F480068FDF7BBF90120DE
:1050B000FDF756FF012810D1FDF79DF999480068CA
:1050C000032805DA97480068401C9649086002E00A
:1050D000012094490860FBF785F90020FDF740FFA7
:1050E000012810D1FDF787F98E480068012805DDF9
:1050F0008C480068401E8B49086002E00320894903
:105100000860FBF76FF987480068012814D1042074
:10511000FDF726FF01280FD18548006860B96F2090
:105120007F49086002207F490860012080490860AB
:10513000FBF758F9FDF753F97A480068022813D1B4
:105140000420FDF70DFF01280ED17948006858B9F9
:10515000DD207349086001207249086074490860C5
:10516000FBF740F9FDF73BF96E480068032817D1BB
:105170000420FDF7F5FE012812D16D48006848B9FA
:10518000002067490860674908606A490860012093
:10519000674900E004E00860FBF724F9FDF71FF918
:1051A0005F480068DF287DD10020614908605C48C5
:1051B0000068FBF72FF95B480068FDF733F9012021
:1051C000FDF7CEFE012811D10220FDF714F9554854
:1051D0000068042805DA53480068401C51490860FB
:1051E00002E002204F490860FBF7FCF80020FDF7C1
:1051F000B7FE012811D10220FDF7FDF849480068EB
:10520000022805DD47480068401E4649086002E064
:10521000042044490860FBF7E5F84248006802288A
:105220000ED1FDF79DFE01280AD1434800680028F1
:1052300006DD41480068401E3F490860FBF7D2F890
:105240003848006802280FD10320FDF789FE0128A5
:105250000AD139480068092806DA37480068401C36
:1052600035490860FBF7BEF82E480068032836D1A0
:105270000420FDF775FE012831D12D48006870BB70
:10528000E0202749086003202649086001202849BA
:105290000860FBF7A7F829490968294A1268881AA3
:1052A000002800E0EBE001DB014600E04142254A36
:1052B00011602248006822490968884203DD012004
:1052C0002149086002E000201F4908601F49096861
:1052D0001F4A1268881A002802DB014601E0B6E086
:1052E00041421C4A116019480068194909688842FE
:1052F00034DD01201849086033E000008000002000
:105300007400002078000020580000208400002055
:105310007C00002070000020C80000204400002015
:105320001C0000202000002024000020600000203D
:10533000C400002028000020900000202C00002045
:1053400038000020640000205000002030000020C1
:105350003C00002068000020540000200020F74995
:105360000860F7490968F74A1268881A002801DBC3
:10537000014600E04142F44A1160F1480068F149F9
:105380000968884203DD0120F049086002E000203E
:10539000EE490860EE480068EE49096888420FDD72
:1053A000EB480068E8490968884204DDE84800687D
:1053B000E949086013E0E4480068E74908600EE046
:1053C000E4480068E0490968884204DDE148006873
:1053D000E149086003E0DC480068DF490860DF4815
:1053E0000068FDF749FDDC49096891FBF0F0DC49F4
:1053F000086008460068DB490860D8480068FDF787
:105400003BFDD5490968D84A514391FBF0F0D74993
:10541000086008460068CE49096890FBF1F0D4495D
:105420000860D2480068CB49096890FBF1F0D14987
:105430000860CE480068C449096890FBF1F0CE4985
:10544000086000F0B1F9CD490860FCF7C8FFCC480E
:105450000068042813D1FDF783FD01280FD1C94846
:10546000006860B97020C84908600220C44908601B
:105470000120C4490860FAF7B5FFFCF7B0FFC24845
:105480000068E0287ED10020BE49086000F08CF959
:10549000BE49086008460068B8490968401AB0F576
:1054A0007A7F08DDAF480068401EAE49086000F012
:1054B0007BF9B2490860B4480068FAF7ABFFB0481E
:1054C0000068FCF7AFFF0120FDF74AFD012811D16C
:1054D0000320FCF790FFAA480068042805DAA848D2
:1054E0000068401CA649086002E00320A449086047
:1054F000FAF778FF0020FDF733FD012811D10320D2
:10550000FCF779FF9E480068032805DD9C48006889
:10551000401E9B49086002E0042099490860FAF7A0
:1055200061FF97480068032815D10420FDF718FD96
:10553000012810D19348006868B940F6C20092492A
:10554000086003208E49086001208E490860FAF740
:1055500049FFFCF744FF8A480068042818D1FDF78A
:10556000FFFC012814D18748006888B900208649CB
:10557000086083490860864908607A49086001200C
:10558000804900E044E00860FAF72CFFFCF727FFB1
:1055900000F00AF97D490860084600687D490968FD
:1055A000401A7349096888420ADD0023012219461E
:1055B0007948006800F002F900F0F6F875490860D3
:1055C0007248006875490968401A6A490968884242
:1055D0000ADD0023012219465848006800F0EEF861
:1055E00000F0E2F86D490860684800686C49096895
:1055F000401A6149096888420ADD002301221946E0
:105600005248006800F0DAF800F0CEF8644908600B
:105610005D48006840F6C20188427DD100205949AA
:10562000086000F0C1F8594908600846006853490D
:105630000968401AB0F57A7F08DD4A480068401EC4
:105640004849086000F0B0F84C4908604E480068CE
:10565000FAF7E0FE4A480068FCF7E4FE0120FDF797
:105660007FFC012811D10320FCF7C5FE44480068E7
:10567000042805DA42480068401C4149086002E0FD
:1056800003203F490860FAF7ADFE0020FDF768FCF3
:10569000012811D10320FCF7AEFE39480068032829
:1056A00005DD37480068401E3549086002E00420E7
:1056B00033490860FAF796FE3148006803281DD187
:1056C0000420FDF74DFC012818D12E480068A8B928
:1056D00034480068012804D100F0A5F801203149C0
:1056E0000860E0202849086003202549086001205F
:1056F00024490860FAF776FEFCF771FE204800683E
:10570000042818D1FDF72CFC012814D11D4800688D
:1057100010B900201C4900E00DE00860184908603D
:105720001B4908600F490860012016490860FAF714
:1057300059FEFCF754FEFDF7D2BC000054000020D7
:1057400034000020400000206C00002058000020A1
:1057500064000020680000209400002090000020D9
:105760005C0000206000002040420F0098000020F4
:105770009C000020A0000020A4000020C000002009
:1057800020000020C40000201C000020BC000020DD
:1057900028000020A800002050000020AC000020BD
:1057A000B0000020D0000020034800880249091FF3
:1057B000098800EB014070471C2800402DE9F043A8
:1057C00007460D4690469946052D13D2DFE805F0B1
:1057D0000306090C0F004FF49C740BE040F2712497
:1057E00008E040F2E24405E040F6354402E041F6CC
:1057F0006A0400BF00BF012F04D101210220FDF780
:10580000FFFB03E000210220FDF7FAFB002606E083
:105810004846FDF71DFB2046FAF7EEFD761C46458F
:10582000F6DBBDE8F08300B501210620FDF7E8FBBB
:1058300000210620FDF7E4FB00BD00000000000091
:1058400000000000000000000000000000183C3CC8
:105850003C1818001818000000000000006666667A
:10586000000000000000000000000000006C6CFE62
:105870006C6C6CFE6C6C000000000018183C660636
:105880000C183060663C1818000000000E1B5B6EA0
:1058900030180C76DAD8700000000000001C363694
:1058A0001C06F66666DC00000000000000181818F0
:1058B0000000000000000000000000000030181888
:1058C0000C0C0C0C0C18183000000000000C181800
:1058D000303030303018180C000000000000006C30
:1058E00038FE386C000000000000000000000018C6
:1058F000187E1818000000000000000000000000E2
:1059000000000000383830180000000000000000DF
:10591000007E000000000000000000000000000009
:105920000000000038380000000000000060603017
:105930003018180C0C060600000000000078CCECB3
:10594000ECCCDCDCCC780000000000000030383EFD
:10595000303030303030000000000000003C66661F
:105960006030180C067E000000000000003C6666F7
:1059700060386066663C000000000000000C0C6CA3
:105980006C6C66FE6060000000000000007E060691
:10599000063E6060301E0000000000000038180C59
:1059A0003E666666663C000000000000007E6030D7
:1059B0003018180C0C0C000000000000003C66665B
:1059C0006E3C7666663C000000000000003C6666A7
:1059D00066667C30181C00000000000000000038E3
:1059E00038000000383800000000000000000038D7
:1059F000380000003838301800000000006030180F
:105A00000C060C18306000000000000000000000D0
:105A10007E007E00000000000000000000060C1860
:105A2000306030180C06000000000000003C666684
:105A3000301818001818000000000000007EC3C3D2
:105A4000F3DBDBF303FE00000000000000183C66FF
:105A500066667E666666000000000000003E6666C0
:105A6000663E6666663E000000000000003C66661A
:105A700006060666663C000000000000001E366652
:105A800066666666361E000000000000007E0606A0
:105A9000063E0606067E000000000000007E0606A8
:105AA000063E06060606000000000000003C666692
:105AB00006067666667C00000000000000666666EA
:105AC000667E66666666000000000000003C1818EE
:105AD00018181818183C00000000000000606060F2
