:020000040800F2
:100000000005002045010008412A0008B52200082B
:100010003D2A0008CB030008D92D0008000000008D
:10002000000000000000000000000000612C00083B
:10003000CF03000800000000C12A0008752D000849
:100040005F0100085F0100085F010008A92B00089C
:100050005F0100085F0100085F0100085F01000800
:100060005F0100085F0100085F0100085F010008F0
:100070005F0100085F0100085F0100085F010008E0
:100080005F0100085F0100085F0100085F010008D0
:100090005F0100085F0100085F0100085F010008C0
:1000A0005F0100085F0100085F0100085F010008B0
:1000B0005F0100085F0100085F0100085F010008A0
:1000C0005F0100085F0100085F0100085F01000890
:1000D0005F0100085F0100085F0100085F01000880
:1000E0005F010008412B00085F0100085F01000864
:1000F0005F0100085F0100085F0100085F01000860
:100100005F0100085F0100085F0100085F0100084F
:100110005F0100085F0100085F0100085F0100083F
:100120005F0100085F0100085F0100085F0100082F
:10013000DFF80CD000F028F900480047752F0008C0
:10014000000500200648804706480047FEE7FEE716
:10015000FEE7FEE7FEE7FEE7FEE7FEE7FEE7FEE777
:10016000792D0008310100082DE9FE4F81EA0304D2
:1001700004F0004421F0004100944FF0000B23F004
:10018000004350EA01045ED052EA03045BD0C3F39B
:100190000A54C1F30A552C44A4F2F3340194A0FB91
:1001A0000254C1F3130141F48011C3F3130343F468
:1001B000801301FB024400FB034E840A970A44EAC1
:1001C000815447EA8357A4FB076802958D0A05FB13
:1001D00007854FEA932C04FB0C542705029D4FEA38
:1001E000065847EA1637B5EB08056EEB070C870E85
:1001F000920E47EA811742EA8312A7FB0201B6EB8F
:100200000B0164EB00042B0D43EA0C335E1844EB46
:100210001C50DA465146E7FB0201C5F313044FEACE
:100220000B3343EA14534FEA0432019C43EA0603BA
:10023000A4F10C040294009CCDE900B400F055F840
:1002400003B0BDE8F08F00200146F9E70EB5C10FFD
:1002500080EAE0700844CA07002140F233438DE889
:100260000E000A460B4600F040F803B000BD70B522
:10027000C1F30A5201F000450024C1F3130140F21A
:10028000FF3341F480119A4201DA002070BD40F240
:1002900033439A42A2F2334203DC524200F006F8A2
:1002A00000E090402C43F1D0404270BD202A04DB96
:1002B000203A21FA02F00021704721FA02F3D040DF
:1002C000C2F12002914008431946704710B5141E30
:1002D00073F1000408DA401C41F1000192185B41FF
:1002E0001A4301D120F0010010BD2DE9F04D9246D6
:1002F0009B4611B1B1FA81F202E0B0FA80F22032ED
:10030000904600F053F804460F4640EA0A0041EADE
:100310000B0153465A46084313D0114653EA0100D5
:1003200019D0C8F140025046FFF7C0FF05460E46FF
:1003300050465946424600F039F8084305D001209E
:1003400004E020463946BDE8F08D0020054346EA2A
:10035000E0762C4337430A986305E40AA0EB0800D3
:100360000022FD0A44EA47540A3002D50020014623
:10037000E9E7010510196941DDE9084500196941FE
:10038000BDE8F04DA2E70000064C074D06E0E0682E
:1003900040F0010394E8070098471034AC42F6D3CC
:1003A000FFF7CAFEC8470008E8470008202A04DB18
:1003B000203A00FA02F1002070479140C2F1200378
:1003C00020FA03F319439040704700BFFEE77047DF
:1003D00001B502E00098401E009000980028F9D175
:1003E00008BD000000B5012002F008FD014800F042
:1003F00003F800BD20A1070007E0022100E000BFD4
:100400000A1EA1F10101FAD100BF011EA0F10100F5
:10041000F3D1704710B504462046722C7ED015DC0F
:10042000042801F0B6850ADC60B3012840D0022818
:1004300001F08D82032841F0B88501F09EBC6F2841
:100440004BD070286BD07128F5D10FE3DF2801F075
:1004500097820ADC79287DD07A287CD07B2801F02D
:10046000DA80DD28E7D101F05ABCE02801F0B6823D
:10047000A0F2764000286FD0A0F24C400028DAD1DC
:1004800001F05DBBF1A20A21142002F027F8F3A2CB
:100490001E21142002F022F8F3A23221142002F0CF
:1004A0001DF8F4A24621142002F018F801F07DBDD9
:1004B000E6A20A21084602F011F8F1A21E2114203A
:1004C00002F00CF8F3A23221142002F007F8F8A28F
:1004D0004621142002F002F8E8E7F7A20A210846B4
:1004E00001F0FCFFFBA21E210A2001F0F7FFFEA293
:1004F0003221142001F0F2FFFE4800684FF47A71B7
:1005000090FBF1F00A2190FBF1F201FB1200303078
:10051000F9490870F7480068642101E0B9E3F1E0A7
:1005200090FBF1F00A2190FBF1F201FB1200303058
:10053000F2490870EF4800680A2190FBF1F090FB47
:10054000F1F201FB12003030ED490870E948006813
:100550000A2102E0FEE3FEE3FEE390FBF1F201FB81
:1005600012003030E7490870E348027832216420F5
:1005700001F082FFE148027832216E2001F07CFF19
:10058000DF4802783221782001F076FFDD480278DA
:100590003221822001F070FFDBA232218C2001F099
:1005A0009DFFDAA24621142001F098FFDA48006886
:1005B0004FF47A7190FBF1F00A2190FBF1F201FB0C
:1005C00012003030D5490870D3480068642190FB90
:1005D000F1F00A2190FBF1F201FB12003030D0491A
:1005E0000870CD4800680A2190FBF1F090FBF1F211
:1005F00001FB12003030CB490870C74800680A215F
:1006000090FBF1F201FB12003030C7490870C3487B
:1006100002784621642001F02FFFC148027846216C
:100620006E2001F029FFBF4802784621782001F0B2
:1006300023FFBD4802784621822001F01DFFB2A2AF
:1006400046218C2001F04AFFB8A25A21142001F063
:1006500045FFB94800684FF47A7190FBF1F00A2128
:1006600090FBF1F201FB12003030B4490870B2483F
:100670000068642190FBF1F00A2190FBF1F201FB8C
:1006800012003030AE490870AB4800680A2190FB78
:10069000F1F090FBF1F201FB12003030A949087033
:1006A000A54800680A2190FBF1F201FB12003030EE
:1006B000A5490870A14802785A21642001F0DCFEA7
:1006C0009F4802785A216E2001F0D6FE9D4802789C
:1006D0005A21782001F0D0FE9B4802785A218220CE
:1006E00001F0CAFE88A25A218C2001F0F7FE97A2E1
:1006F0006E21142001F0F2FE6DA28221142001F07F
:10070000EDFED3E66CA20A21084601F0E7FE90A2B6
:100710001E210A2001F0E2FE73A23221142001F012
:10072000DDFE904800684FF47A7190FBF1F00A21E9
:1007300090FBF1F201FB120030308B4908708948C0
:100740000068642190FBF1F00A2190FBF1F201FBBB
:100750001200303085490870824800680A2190FBF9
:10076000F1F090FBF1F201FB12003030804908708B
:100770007C4800680A2190FBF1F201FB1200303046
:100780007C490870784802783221642001F074FEB8
:100790007648027832216E2001F06EFE74480278AD
:1007A0003221782001F068FE7248027832218220DE
:1007B00001F062FE54A232218C2001F08FFE53A280
:1007C0004621142001F08AFE6B4800684FF47A71CC
:1007D00090FBF1F00A2190FBF1F201FB12003030A6
:1007E0006649087064480068642190FBF1F00A21B2
:1007F00090FBF1F201FB12003030614908705E4855
:1008000000680A2190FBF1F090FBF1F201FB12006D
:1008100030305C490870584800680A2190FBF1F2BA
:1008200001FB1200303058490870544802784621C4
:10083000642001F021FE5248027846216E2001F02A
:100840001BFE50480278462178209FE054696D6570
:10085000204C61707365204D6F6465005669646556
:100860006F204D6F646500004D616E75616C204DA9
:100870006F64650053657474696E677300000000EF
:10088000496E746572616374697665204D6F646545
:1008900000000000496E70757420506172616D65D2
:1008A00074657273204D616E75616C6C7900000027
:1008B00052657475726E0000506C656173652073CB
:1008C0006C6577207468652063616D657261207462
:1008D0006F00000074686520454E4420706F736996
:1008E00074696F6E00000000536C6964653A203CC7
:1008F0003C3C000028000020B0000020B100002097
:10090000B2000020B30000203E3E3E0050616E3A2F
:100910002020203C3C3C00002C000020B4000020A3
:10092000B5000020B6000020B700002054696C74A8
:100930003A20203C3C3C000030000020B800002061
:10094000B9000020BA000020BB00002053657400ED
:1009500074686520535441525420706F73697469F0
:100960006F6E000034000020BC000020BD0000209D
:10097000BE000020BF00002038000020C000002082
:10098000C1000020C2000020C300002001F074FD5F
:10099000FE4802784621822001F06EFDAFF29802F7
:1009A00046218C2001F09AFDAFF280025A211420DA
:1009B00001F094FDF64800684FF47A7190FBF1F075
:1009C0000A2190FBF1F201FB12003030F14908706E
:1009D000EF480068642190FBF1F00A2190FBF1F2EE
:1009E00001FB12003030EC490870E94800680A2128
:1009F00090FBF1F090FBF1F201FB12003030E7497F
:100A00000870E34800680A2190FBF1F201FB120034
:100A10003030E3490870DF4802785A21642001F041
:100A20002BFDDD4802785A216E2001F025FDDB48C0
:100A300002785A21782001F01FFDD94802785A2106
:100A4000822001F019FDAFF240125A218C2001F0F2
:100A500045FDAFF208126E21142001F03FFDAFF208
:100A6000B0128221142001F039FD1FE5CDA20A2128
:100A7000084601F033FDD1A21E210A2001F02EFD0F
:100A8000D1A23221142001F029FDD34800684FF48F
:100A90007A7190FBF1F00A2190FBF1F201FB120058
:100AA0003030CE490870CC480068642190FBF1F0EA
:100AB0000A2190FBF1F201FB12003030C8490870A6
:100AC000C54800680A2190FBF1F090FBF1F201FBB0
:100AD00012003030C3490870BF4800680A2190FBFB
:100AE000F1F201FB12003030BF490870BB480278B8
:100AF00032217D2001F0C0FCB948027832218720E4
:100B000001F0BAFCB74802783221912001F0B4FC20
:100B1000B548027832219B2001F0AEFCAFF21822DA
:100B20003221A52001F0DAFCB0A24621142001F008
:100B3000D5FCB24800684FF47A7190FBF1F00A21BD
:100B400090FBF1F201FB12003030AD490870AB4868
:100B50000068642190FBF1F00A2190FBF1F201FBA7
:100B600012003030A7490870A44800680A2190FBA1
:100B7000F1F090FBF1F201FB12003030A249087055
:100B80009E4800680A2190FBF1F201FB1200303010
:100B90009E4908709A48027846217D2001F06CFC3D
:100BA000984802784621872001F066FC9648027832
:100BB0004621912001F060FC9448027846219B2058
:100BC00001F05AFCAFF2C0224621A52001F086FCBC
:100BD0008FA25A21142001F081FC914800684FF443
:100BE0007A7190FBF1F00A2190FBF1F201FB120007
:100BF00030308C4908708A480068642190FBF1F01D
:100C00000A2190FBF1F201FB120030308649087096
:100C1000834800680A2190FBF1F090FBF1F201FBA0
:100C200012003030814908707D4800680A2190FB2D
:100C3000F1F201FB120030307D49087079480278EA
:100C40005A217D2001F018FC774802785A2187202C
:100C500001F012FC754802785A21912001F00CFC39
:100C6000734802785A219B2001F006FCAFF26832EB
:100C70005A21A52001F032FCAFF230326E2114204F
:100C800001F02CFCAFF2D8328221142001F026FCB6
:100C90000CE468A20A21084601F020FC6CA21E2187
:100CA0000A2001F01BFC6E4800684FF47A7190FB3B
:100CB000F1F00A2190FBF1F201FB1200303069499A
:100CC000087067480068642190FBF1F00A2190FBEE
:100CD000F1F201FB1200303063490870604800688F
:100CE0000A2190FBF1F090FBF1F201FB1200303091
:100CF0005E4908705A4800680A2190FBF1F201FB36
:100D0000120030305A490870564802781E216E2071
:100D100001F0B2FB544802781E21782001F0ACFBB0
:100D2000524802781E21822001F0A6FB504802782A
:100D30001E218C2001F0A0FB4EA232210A2001F0DE
:100D4000CDFB4FA23221822001F0C8FB4CA2322100
:100D5000A02002E01DE23AE31CE101F0BFFB49489C
:100D600000684FF4616190FBF1F047490860084664
:100D70000068C0EB001043490968A1EB80003C21EA
:100D800090FBF1F0414908603F4881E0C30000203A
:100D90003C000020C4000020C5000020C600002048
:100DA000C7000020506C6561736520656E746572C4
:100DB00020666F6C6C6F77696E670000706172619E
:100DC0006D6574657273000046616D65733A20202D
:100DD00020203C3C3C00000040000020C8000020D7
:100DE000C9000020CA000020CB000020496E7465B5
:100DF0007276616C3A203C3C3C00000044000020CC
:100E0000CC000020CD000020CE000020CF0000202C
:100E1000536875747465723A20203C3C3C000000B5
:100E200048000020D0000020D1000020D200002087
:100E3000D300002054616B696E672054696D652092
:100E40004C617073652E2E2E202E2E2E0000000079
:100E500046616D65732054616B656E3A2000000039
:100E6000A4000020D4000020D5000020D6000020DF
:100E7000D700002054696D65204C6566743A000007
:100E80003A0000005C000020E0000020E4000020A8
:100E90000068C0EB4011C1EB0020FE490968A1EBDE
:100EA0000010FD490968C1EB0111A0EB8100FB496D
:100EB0000860FB4800680A2190FBF1F090FBF1F21A
:100EC00001FB12003030F7490870F54800680A212C
:100ED00090FBF1F201FB12003030F3490870EE484C
:100EE00000680A2190FBF1F090FBF1F201FB120087
:100EF0003030EE490870E84800680A2190FBF1F2B2
:100F000001FB12003030EA490870E44800680A2109
:100F100090FBF1F090FBF1F201FB12003030E5495B
:100F20000870DE4800680A2190FBF1F201FB120014
:100F30003030E1490870DB48027832216E2001F040
:100F40009BFAD94802783221782001F095FAD748E7
:100F5000027832218C2001F08FFAD54802783221B4
:100F6000962001F089FAD34802783221AA2001F0B4
:100F700083FAD14802783221B42001F07DFACFA261
:100F80004621142001F0AAFACEA25A21142001F021
:100F9000A5FA6AE5AFF264120A21084601F09EFA4A
:100FA000AFF254121E210A2001F098FAC7480068D7
:100FB0004FF47A7190FBF1F00A2190FBF1F201FB02
:100FC00012003030C2490870C0480068642190FBAC
:100FD000F1F00A2190FBF1F201FB12003030BD4923
:100FE0000870BA4800680A2190FBF1F090FBF1F21A
:100FF00001FB12003030B8490870B44800680A217B
:1010000090FBF1F201FB12003030B4490870B04897
:1010100002781E216E2001F02FFAAE4802781E21C0
:10102000782001F029FAAC4802781E21822001F0D4
:1010300023FAAA4802781E218C2001F01DFAAFF293
:10104000CC1232210A2001F049FAAFF2CC1232213F
:10105000822001F043FAAFF2D8123221A02001F031
:101060003DFA8C4800684FF4616190FBF1F08C49C7
:10107000086008460068C0EB001086490968A1EBCB
:1010800080003C2190FBF1F08349086084480068AF
:10109000C0EB4011C1EB00207E490968A1EB0010B4
:1010A0007D490968C1EB0111A0EB81007B49086013
:1010B0007B4800680A2190FBF1F090FBF1F201FB04
:1010C0001200303077490870754800680A2190FB9B
:1010D000F1F201FB12003030734908706E4800686D
:1010E0000A2190FBF1F090FBF1F201FB120030308D
:1010F0006E490870684800680A2190FBF1F201FB14
:10110000120030306A490870644800680A2190FB78
:10111000F1F090FBF1F201FB1200303065490870EC
:101120005E4800680A2190FBF1F201FB12003030AA
:10113000614908705B48027832216E2001F09CF909
:10114000594802783221782001F096F95748027800
:1011500032218C2001F090F95548027832219620F6
:1011600001F08AF9534802783221AA2001F084F96B
:10117000514802783221B42001F07EF958A246216C
:10118000142001F0ABF94FA25A21142001F0A6F966
:101190006BE455A20A21084601F0A0F9AFF2E4324F
:1011A0001E210A2001F09AF959A23221142001F0DF
:1011B00095F95B4800684FF47A7190FBF1F00A21D1
:1011C00090FBF1F201FB1200303056490870544890
:1011D0000068642190FBF1F00A2190FBF1F201FB21
:1011E00012003030504908704D4800680A2190FBC9
:1011F000F1F090FBF1F201FB120030304B49087026
:10120000474800680A2190FBF1F201FB12003030E0
:10121000474908704348027832217D2001F02CF9BB
:10122000414802783221872001F026F93F480278B0
:101230003221912001F020F93D48027832219B2093
:1012400001F01AF9AFF640123221A52001F046F95B
:1012500038A24621142001F041F93A4800684FF4C1
:101260007A7190FBF1F00A2190FBF1F201FB120080
:1012700030303549087033480068642190FBF1F044
:101280000A2190FBF1F201FB120030302F49087067
:101290002C485DE05C000020E4000020E800002015
:1012A000E0000020D8000020D9000020DA00002053
:1012B000DB000020DC000020DD00002050617573A1
:1012C0006500000053746F7000000000A40000204F
:1012D000D4000020D5000020D6000020D700002038
:1012E000526573756D650000506C656173652065AE
:1012F0006E7465722074686520666F6C6C6F7769B8
:101300006E6720706172616D6574657273000000B4
:10131000546F74616C2046616D65733A3C3C3C00CF
:1013200040000020C8000020C9000020CA000020A2
:10133000CB000020496E74657276616C3A20203CC7
:101340003C3C000044000020CC000020CD000020E8
:1013500000680A2190FBF1F090FBF1F201FB120012
:101360003030FE490870FE4800680A2190FBF1F217
:1013700001FB12003030FB490870FB48027846211F
:101380007D2001F079F8F94802784621872001F0A4
:1013900073F8F24802784621912001F06DF8F14887
:1013A000027846219B2001F067F8AFF6A42246217F
:1013B000A52001F093F8EEA25A21142001F08EF836
:1013C000AFF614326E21142001F088F860E4EBA22D
:1013D0000A21084601F082F8EFA21E210A2001F03E
:1013E0007DF8F0A23221142001F078F8AFF2D40297
:1013F0004621142001F072F8EF4800684FF47A712A
:1014000090FBF1F00A2190FBF1F201FB1200303069
:10141000EA490870E8480068642190FBF1F00A216D
:1014200090FBF1F201FB12003030E5490870E24810
:1014300000680A2190FBF1F090FBF1F201FB120031
:101440003030E0490870DC4800680A2190FBF1F276
:1014500001FB12003030DC490870D8480278462180
:10146000232001F009F8D648027846212D2001F00A
:1014700003F8D44802784621372000F0FDFFD24817
:1014800002784621412000F0F7FFAFF68432462172
:101490004B2001F023F8CDA25A21142001F01EF8B0
:1014A000AFF288126E21142001F018F8CC480068C1
:1014B0004FF47A7190FBF1F00A2190FBF1F201FBFD
:1014C00012003030C7490870C5480068642190FB9D
:1014D000F1F00A2190FBF1F201FB12003030C24919
:1014E0000870BF4800680A2190FBF1F090FBF1F210
:1014F00001FB12003030BD490870B94800680A216C
:1015000090FBF1F201FB12003030B9490870B54888
:1015100002786E21232000F0AFFFB34802786E21DD
:101520002D2000F0A9FFB14802786E21372000F08D
:10153000A3FFAF4802786E21412000F09DFFAFF677
:1015400038426E214B2000F0C9FFAAA2822114204C
:1015500000F0C4FFAFF23C229621142000F0BEFF41
:10156000A94800684FF47A7190FBF1F00A2190FBD2
:10157000F1F201FB12003030A4490870A248006863
:10158000642190FBF1F00A2190FBF1F201FB1200C3
:1015900030309F4908709C4800680A2190FBF1F0A8
:1015A00090FBF1F201FB120030309A490870964826
:1015B00000680A2190FBF1F201FB120030309649DD
:1015C0000870924802789621232000F055FF904839
:1015D000027896212D2000F04FFF8E480278962148
:1015E000372000F049FF8C4802789621412000F016
:1015F00043FFAFF6EC4296214B2000F06FFF5CA258
:10160000AA21142000F06AFFAFF65C52AA21142030
:1016100000F064FFBDE459A20A21084600F05EFF15
:10162000AFF668021E210A2000F058FF7BA232218B
:10163000142000F053FF7E4800684FF47A7190FB4D
:10164000F1F00A2190FBF1F201FB120030307949F0
:10165000087077480068642190FBF1F00A2190FB44
:10166000F1F201FB120030307349087070480068D5
:101670000A2190FBF1F090FBF1F201FB12003030F7
:101680006E4908706A4800680A2190FBF1F201FB7C
:10169000120030306A4908706648027832217D2095
:1016A00000F0EAFE644802783221872000F0E4FE70
:1016B000624802783221912000F0DEFE6048027814
:1016C00032219B2000F0D8FEAFF6C4523221A52073
:1016D00000F004FF5BA24621142000F0FFFE5E48EC
:1016E00000684FF47A7190FBF1F00A2190FBF1F25F
:1016F00001FB1200303059490870574800686421D6
:1017000090FBF1F00A2190FBF1F201FB1200303066
:1017100053490870504800680A2190FBF1F090FB93
:10172000F1F201FB120030304E4908704A4800685F
:101730000A2190FBF1F201FB120030304A49087097
:101740004648027846217D2000F096FE4448027803
:101750004621872000F090FE424887E0CE0000201E
:1017600044000020CF000020CC000020CD0000204D
:10177000436F6E74696E756500000000506C6561A2
:10178000736520656E7465722074686520666F6C81
:101790006C6F77696E670000706172616D6574656A
:1017A00072732000537461727420506F736974698E
:1017B0006F6E5F583A00000034000020BC0000202B
:1017C000BD000020BE000020BF00002053746172E5
:1017D0007420506F736974696F6E5F593A0000002E
:1017E00038000020C0000020C1000020C2000020FE
:1017F000C3000020537461727420506F7369746960
:101800006F6E5F5A3A0000003C000020C4000020C8
:10181000C5000020C6000020C7000020454E44201F
:10182000506F736974696F6E5F583A3C3C3C0000BE
:1018300028000020B0000020B1000020B2000020ED
:10184000B3000020454E4420506F736974696F6E79
:101850005F593A3C3C0000002C000020B4000020FE
:10186000B5000020B6000020B70000200278462115
:10187000912000F001FEFE48027846219B2000F0F6
:10188000FBFDAFF67C724621A52000F027FEF9A2F1
:101890005A21142000F022FEFA4800684FF47A71B1
:1018A00090FBF1F00A2190FBF1F201FB12003030C5
:1018B000F5490870F3480068642190FBF1F00A21B3
:1018C00090FBF1F201FB12003030F0490870ED4856
:1018D00000680A2190FBF1F090FBF1F201FB12008D
:1018E0003030EB490870E74800680A2190FBF1F2BC
:1018F00001FB12003030E7490870E34802785A21B2
:101900007D2000F0B9FDE14802785A21872000F0DF
:10191000B3FDDF4802785A21912000F0ADFDDD488B
:1019200002785A219B2000F0A7FDDB4A5A21A5200E
:1019300000F0D4FDAFF2C8126E21142000F0CEFDED
:10194000D54A583A8221142000F0C8FD2DE3D24A2E
:10195000AC3A0A21084600F0C1FDCF4A883A1E2160
:10196000142000F0BBFDCC4A743A3221142000F060
:10197000B5FDC94A583A4621142000F0AFFD00BF1A
:10198000AFF208220A21084600F0A8FDAFF6D432D3
:101990001E210A2000F0A2FDC0A23221142000F076
:1019A0009DFDC14800680A2190FBF1F201FB120085
:1019B0003030BE4908700846027832217D2000F0A0
:1019C0005BFDAFF254224621142000F087FDB24A9D
:1019D000583A5A21142000F081FDE6E2B4A20A210F
:1019E000084600F07BFDAFF674321E210A2000F09D
:1019F00075FDAFF240221E21822000F06FFDAFF294
:101A00004C221E21A02000F069FDAE4800684FF472
:101A1000616190FBF1F0AC49086008460068C0EBDA
:101A20000010A8490968A1EB80003C2190FBF1F06F
:101A3000A6490860A4480068C0EB4011C1EB002033
:101A4000A0490968A1EB0010A0490968C1EB011188
:101A5000A0EB81009E4908609B4800680A2190FB2A
:101A6000F1F090FBF1F201FB12003030994908705F
:101A7000954800680A2190FBF1F201FB120030301A
:101A800095490870914800680A2190FBF1F090FB9D
:101A9000F1F201FB12003030904908708B48006869
:101AA0000A2190FBF1F201FB120030308C490870E2
:101AB000874800680A2190FBF1F090FBF1F201FBEE
:101AC0001200303087490870814800680A2190FB75
:101AD000F1F201FB12003030834908707D48027832
:101AE0001E216E2000F0C8FC7B4802781E21782061
:101AF00000F0C2FC794802781E218C2000F0BCFC6A
:101B0000774802781E21962000F0B6FC75480278CE
:101B10001E21AA2000F0B0FC734802781E21B420D8
:101B200000F0AAFCAFF66C023221142000F0D6FCC3
:101B3000AFF670024621142000F0D0FC35E25CA222
:101B40000A21084600F0CAFCAFF6D8421E210A203E
:101B500000F0C4FCAFF2A4321E21822000F0BEFCD3
:101B6000AFF2B0321E21A02000F0B8FC554800684A
:101B70004FF4616190FBF1F053490860084600683A
:101B8000C0EB00104F490968A1EB80003C2190FB9D
:101B9000F1F04E4908604C480068C0EB4011C1EBC1
:101BA000002048490968A1EB001048490968C1EBC9
:101BB0000111A0EB810046490860434800680A21F2
:101BC00090FBF1F090FBF1F201FB12003030414943
:101BD00008703D4800680A2190FBF1F201FB1200F9
:101BE00030303D490870394800680A2190FBF1F017
:101BF00090FBF1F201FB1200303038490870334895
:101C000000680A2190FBF1F201FB120030303449E8
:101C100008702F4800680A2190FBF1F090FBF1F268
:101C200001FB120030302F490870294800680A2152
:101C300090FBF1F201FB120030302B49087025486F
:101C400002781E216E2000F017FC234802781E2126
:101C5000782000F011FC214802781E218C2000F031
:101C60000BFC1F4802781E21962000F005FC3DE089
:101C7000B7000020454E4420506F736974696F6E41
:101C80005F5A3A0030000020B8000020B900002060
:101C9000BA000020BB0000200809000853706565E9
:101CA0006428312D39293A008C000020F8000020EA
:101CB00054616B696E6720566964656F2E2E2E2005
:101CC0002E2E2E005C000020E0000020E40000200A
:101CD000E8000020D8000020D9000020DA00002011
:101CE000DB000020DC000020DD000020B04802788E
:101CF0001E21AA2000F0C0FBAE4802781E21B420AD
:101D000000F0BAFBAFF628223221142000F0E6FBE7
:101D1000AFF650224621142000F0E0FB45E1AFF27F
:101D2000A4520A21084600F0D9FBAFF670721E21BA
:101D30000A2000F0D3FBAFF29C023221142000F005
:101D4000CDFB9D4800680A2190FBF1F201FB1200D7
:101D500030309A4908700846027832217D2000F020
:101D60008BFB974A4621142000F0B8FB944A9C3A1A
:101D70005A21142000F0B2FB17E1914AE43A0A21FB
:101D8000084600F0ABFB8E4A643A1E21142000F096
:101D9000A5FB8C4800684FF47A7190FBF1F00A21A2
:101DA00090FBF1F201FB1200303087490870854842
:101DB0000068642190FBF1F00A2190FBF1F201FB35
:101DC00012003030814908707E4800680A2190FB7B
:101DD000F1F090FBF1F201FB120030307C49087009
:101DE000784800680A2190FBF1F201FB12003030C4
:101DF00078490870744802781E21642000F03CFB8A
:101E0000724802781E216E2000F036FB704802787E
:101E10001E21782000F030FB6E4802781E218220BF
:101E200000F02AFB664A443A1E218C2000F056FB43
:101E3000634A403A3221142000F050FB66480068A3
:101E40004FF47A7190FBF1F00A2190FBF1F201FB63
:101E500012003030614908705F480068642190FBCF
:101E6000F1F00A2190FBF1F201FB120030305C49E5
:101E70000870594800680A2190FBF1F090FBF1F2DC
:101E800001FB1200303057490870534800680A219E
:101E900090FBF1F201FB12003030534908704F48BB
:101EA00002783221642000F0E7FA4D4802783221AE
:101EB0006E2000F0E1FA4B4802783221782000F0E1
:101EC000DBFA494802783221822000F0D5FA3C4AF8
:101ED000443A32218C2000F001FB394A203A462155
:101EE000142000F0FBFA414800684FF47A7190FB2F
:101EF000F1F00A2190FBF1F201FB120030303C4975
:101F000008703A480068642190FBF1F00A2190FBC8
:101F1000F1F201FB12003030364908703348006896
:101F20000A2190FBF1F090FBF1F201FB120030303E
:101F3000314908702D4800680A2190FBF1F201FB3D
:101F4000120030302D49087029480278462164205B
:101F500000F092FA2748027846216E2000F08CFAB1
:101F6000254802784621782000F086FA2348027836
:101F70004621822000F080FA114A443A46218C2002
:101F800000F0ACFA0E4A9C3A5A21142000F0A6FA4E
:101F90000BE01BA20A21142000F0A0FA084A9C3A88
:101FA0001E21142000F09AFA00BF00BF10BD0000EF
:101FB000DC000020DD0000208C000020F800002064
:101FC0004C09000878000020EC000020ED00002003
:101FD000EE000020EF0000207C000020F000002038
:101FE000F1000020F2000020F3000020800000201B
:101FF000F4000020F5000020F6000020F70000208B
:1020000052652D696E697469616C697A65000000BA
:1020100051B18200A2F1C042126842F00103820075
:10202000A2F1C042136009E08200A2F1C04212682E
:10203000034B1A408300A3F1C0431A6070470000AD
:10204000FEFF0F00D0E901121143C268114302697B
:1020500011434269114382691143C2691143026A03
:102060001143426A1143826A1143C26A1143026BEF
:10207000114302689200A2F1C042116081680829F0
:102080000BD101688900A1F1C041096841F040020B
:1020900001688900A1F1C0410A60416B0968426B87
:1020A000526841EA0211426B926841EA0221426B96
:1020B000928941EA0241426B128A41EA0251426B23
:1020C000127D41EA0261426B926911430268521C1F
:1020D0009200A2F1C0421160C16AB1F5804F1BD1DC
:1020E000816B0968826B526841EA0211826B9268C7
:1020F00041EA0221826B128A41EA0251826B127D0F
:1021000041EA0261826B9269114302689200A2F176
:10211000C042C2F8041107E06FF070420168890004
:10212000A1F1C041C1F804217047000008B50121A8
:10213000042000F0E7FC4FF4FE70ADF80000102022
:102140008DF8030003208DF8020069460B4800F06B
:1021500019F84FF47F7009491431086001210820F3
:1021600000F0D0FC40F2E330ADF8000004208DF820
:1021700003006946024800F005F808BD0008014068
:10218000000C01402DE9F041024600250026002008
:1021900000230024002791F803C00CF00F0591F8EC
:1021A00003C00CF0100CBCF1000F03D091F802C07A
:1021B0004CEA050591F800C0BCF1000F31D014685D
:1021C00000202BE04FF0010C0CFA00F3B1F800C036
:1021D0000CEA03069E4220D183004FF00F0C0CFA4C
:1021E00003F7BC4305FA03FC4CEA040491F803C06E
:1021F000BCF1280F06D14FF0010C0CFA00FCC2F81C
:1022000014C00AE091F803C0BCF1480F05D14FF0AB
:10221000010C0CFA00FCC2F810C0401C0828D1D3F5
:102220001460B1F800C0BCF1FF0F34DD5468002029
:102230002EE000F1080C4FF0010808FA0CF3B1F899
:1022400000C00CEA03069E4221D183004FF00F0C20
:102250000CFA03F7BC4305FA03FC4CEA040491F8BA
:1022600003C0BCF1280F05D100F1080C08FA0CF8E6
:10227000C2F8148091F803C0BCF1480F07D100F1F7
:10228000080C4FF0010808FA0CF8C2F81080401C46
:102290000828CED35460BDE8F08102460020936840
:1022A0000B400BB1012000E00020704741617047F6
:1022B0000161704700BFFEE710B504462CB14FF432
:1022C00080510548FFF7F2FF04E04FF480510248C7
:1022D000FFF7EEFF10BD0000001401402DE9F041B2
:1022E00006460F4614461D46DDF818802B4622464A
:1022F0003946304600F0DFF904FB05F0414600F0B6
:1023000040F9BDE8F08108B54FF6FF704FF4A073B7
:10231000F022002100900846FFF7E0FF08BD38B525
:1023200004464FF6FF70009004EB84000A2202EB93
:102330008000C0F5A07083B204EB840002EB800043
:1023400081B20F220520FFF7C9FF38BD10B5044642
:10235000092C33D2DFE804F0050A0F14191E2328D4
:102360002D000F21052000F02BF827E02321052068
:1023700000F026F822E03721052000F021F81DE0CA
:102380004B21052000F01CF818E05F21052000F02B
:1023900017F813E07321052000F012F80EE08721F2
:1023A000052000F00DF809E09B21052000F008F859
:1023B00004E0AF21052000F003F800BF00BF10BD0E
:1023C00070B504460D46A9B2A0B205230A2200F05A
:1023D00072F90021642000F0D4F86A1C91B204F173
:1023E0000A0290B20323012200F065F900211220B5
:1023F00000F0C7F8AA1C91B204F10B0290B20123BD
:102400001A4600F058F90021012000F0BAF86A1EBF
:1024100091B204F1080290B20123022200F04BF9BC
:102420000021122000F0ADF8AA1E91B204F10802BA
:1024300090B201231A4600F03EF90021012000F07D
:10244000A0F86A1D91B204F1080290B201230222A1
:1024500000F031F90021122000F093F8AA1D91B28A
:1024600004F1080290B201231A4600F024F9002179
:10247000012000F086F870BD2DE9F04780468946BE
:102480001546A5F1200000F0FF0A10230822494656
:10249000404600F010F92C2000F06AFA002417E002
:1024A0000D4800EB0A10065D00270DE006F0010064
:1024B00018B11F2000F060FA03E04FF6FF7000F043
:1024C0005BFA7610781CC7B2082FEFDB601CC4B231
:1024D000102CE5DBBDE8F087D641000870B5054655
:1024E0000E46144617E028460830F02803DD002584
:1024F00006F1100086B230461030B0F5A07F01DD45
:1025000000250026227831462846FFF7B5FF641CD7
:1025100005F1080085B220780028E4D170BD00B52F
:1025200097B00121080200F0CDFA022001900020AE
:1025300002900520039000200490059006904FF033
:102540008050079000200890099008200A901020E1
:102550000B9000200C900E900F9010904FF4805034
:102560001190002012901390149001A815901690CD
:1025700008A8FFF767FD01210020FFF749FD17B00C
:1025800000BD70B504460D4600262C2000F0F0F981
:1025900000BF03E0284600F0EFF9761CA642F9D30D
:1025A00070BD000008B50121084600F0ABFA01211A
:1025B000602000F0A7FA03208DF8020018208DF8A3
:1025C00003004CF20370ADF8000069462C48FFF799
:1025D000D9FD4FF68070ADF8000069462948FFF735
:1025E000D1FD03208DF8020018208DF80300102083
:1025F000ADF8000069462248FFF7C4FD2020ADF881
:10260000000069461E48FFF7BDFD0121202000F0B3
:1026100079FA8020ADF8000069461948FFF7B2FD4D
:102620000121202000F06EFA4FF40060ADF80000A8
:1026300069461348FFF7A6FD10208DF8030003201C
:102640008DF802000121402000F05CFA0220ADF874
:10265000000069460B48FFF795FD10208DF8030038
:1026600003208DF802000121202000F04BFA4FF4E6
:102670008050ADF8000069460148FFF783FD08BDB2
:10268000001401400018014008B5FFF78BFFFFF769
:1026900046FF0120FFF710FE00F056F900F03CF86D
:1026A0004FF6FF704FF4A073F0220021009008460F
:1026B000FFF714FE08BD2DE9F04104460D4616460D
:1026C0001F462A2000F054F9201200F055F9E0B21C
:1026D00000F052F9A119491EC1F30F2000F04CF986
:1026E000A119491EC8B200F047F92B2000F040F9AB
:1026F000281200F041F9E8B200F03EF9E919491E4C
:10270000C1F30F2000F038F9E919491EC8B200F0F2
:1027100033F9BDE8F081000010B5CF2000F028F9B2
:10272000002000F029F9812000F026F9302000F087
:1027300023F9ED2000F01CF9642000F01DF90320BE
:1027400000F01AF9122000F017F9812000F014F9B6
:10275000E82000F00DF9852000F00EF9102000F0BF
:102760000BF9782000F008F9CB2000F001F93920AE
:1027700000F002F92C2000F0FFF8002000F0FCF837
:10278000342000F0F9F8022000F0F6F8F72000F00D
:10279000EFF8202000F0F0F8EA2000F0E9F800203F
:1027A00000F0EAF8002000F0E7F8B12000F0E0F8CF
:1027B000002000F0E1F81B2000F0DEF8B62000F069
:1027C000D7F80A2000F0D8F8A22000F0D5F8C020F1
:1027D00000F0CEF8352000F0CFF8C12000F0C8F8A6
:1027E000112000F0C9F8C52000F0C2F8452000F023
:1027F000C3F8452000F0C0F8C72000F0B9F8A220C7
:1028000000F0BAF8F22000F0B3F8002000F0B4F8BD
:10281000262000F0ADF8012000F0AEF8E02000F036
:10282000A7F80F2000F0A8F8262000F0A5F8242033
:1028300000F0A2F80B2000F09FF80E2000F09CF8AA
:10284000092000F099F8542000F096F8A82000F034
:1028500093F8462000F090F80C2000F08DF8172037
:1028600000F08AF8092000F087F80F2000F084F8C3
:10287000072000F081F8002000F07EF8E12000F051
:1028800077F8002000F078F8192000F075F81B2088
:1028900000F072F8042000F06FF8102000F06CF8DF
:1028A000072000F069F82A2000F066F8472000F0C1
:1028B00063F8392000F060F8032000F05DF806208E
:1028C00000F05AF8062000F057F8302000F054F8D5
:1028D000382000F051F80F2000F04EF8362000F0BC
:1028E00047F8C82000F048F82A2000F041F80020FE
:1028F00000F042F8002000F03FF8002000F03CF823
:10290000EF2000F039F82B2000F032F8002000F022
:1029100033F8002000F030F8012000F02DF83F20BF
:1029200000F02AF83A2000F023F8552000F024F8AF
:10293000112000F01DF80348FDF74AFD292000F0A2
:1029400017F810BDFCBF020010B502210648FFF7C2
:10295000ADFC0648FDF73CFD02210348FFF7A8FC4B
:102960000248FDF735FD10BD00180140FCBF020014
:102970004FF0C0410880704701490880704700004F
:102980000000026008B501214FF0C05000F0AAF825
:10299000012000F08FF84FF4407000F0C9F80120DA
:1029A00000F0C0F800F040F900F048F900F0D6F867
:1029B0003E2000F029F900F037F9002000F016F968
:1029C00000F032F94FF6FF701B49088000F02CF937
:1029D0004FF6FF701849091D088000F025F9012104
:1029E000022000F0F3F814481C38008800F00200C0
:1029F00011491C39088000F017F900F0B9F82920B6
:102A00008DF8000000208DF801008DF802000120F3
:102A10008DF80300684600F015F803208DF80000DB
:102A200000208DF801008DF8020001208DF80300D0
:102A3000684600F007F808BD2028004000BFFEE708
:102A40007047000070B5002100230F22C47804B342
:102A5000154C246804F4E064C4F5E064210AC1F173
:102A60000403CA40447804FA03F1847814402143F3
:102A700009010E4C0678A155047804F01F050124C5
:102A8000AC4005786D11AD0005F1E025C5F80041B9
:102A900009E0047804F01F050124AC40044D0678D9
:102AA000761145F8264070BD0CED00E000E400E032
:102AB00080E100E0014908627047000000000E421A
:102AC0007047000029B1064A52690243044B5A611B
:102AD00004E0034A52698243014B5A617047000087
:102AE0000010024029B1064AD2690243044BDA6160
:102AF00004E0034AD2698243014BDA617047000067
:102B00000010024029B1064A92690243044B9A61BF
:102B100004E0034A92698243014B9A6170470000C6
:102B20000010024001490860704700003C04424226
:102B30000249096A0143014A1162704700100240CC
:102B400010B5022000F002F810BD0000024909880B
:102B50008143014A118070470428004003480088DF
:102B600040F0100001490880704700000428004030
:102B7000034800884FF6EF7108400149088070470C
:102B80000428004001460020064A12880A40D0B2BC
:102B9000044A121F12880A4012B108B1012000E055
:102BA000002070470428004010B50220FFF7EAFF1C
:102BB000012808D10220FFF7C9FF0348006810B1BF
:102BC00001480068804710BD0000002029B1064A76
:102BD00012880243044B1A8004E0034A128882439D
:102BE000014B1A80704700000028004000B50246E3
:102BF000FFF7B4FF100C03490880091D0A80FFF796
:102C0000B7FF00BD1828004000B50246FFF7A6FF39
:102C1000C2F3034003490880091D0A80FFF7A8FF9B
:102C200000BD00000828004000BF0348008800F0F5
:102C300020000028F9D07047042800400748008889
:102C40004FF6F77108400549088000BF0348008827
:102C500000F008000028F9D0704700000428004068
:102C6000704710B500F002F810BD00000CB5002050
:102C7000019000903348006840F48030314908608A
:102C800000BF3048006800F4003000900198401CFC
:102C90000190009818B90198B0F5A06FF1D12948BA
:102CA000006800F4003010B10120009001E0002025
:102CB00000900098012843D12348006840F010009C
:102CC000214908600846006820F0030008600846B3
:102CD000006840F0020008601A48406819494860DE
:102CE0000846406848600846406840F48060486094
:102CF0000846406820F47C1048600846406840F46C
:102D0000E81048600846006840F08070086000BF26
:102D10000C48006800F000700028F9D009484068AD
:102D200020F00300074948600846406840F0020070
:102D3000486000BF0348406800F00C000828F9D143
:102D40000CBD0000001002400020024010B50446F7
:102D500074B90121084600F0B9F81420FDF74CFBC6
:102D60000021012000F0B2F81420FDF745FB00BF60
:102D700000BF10BD7047000010B51348006840F058
:102D800001001149086008464068104908400E4992
:102D90004860084600680E4908400B49086008462C
:102DA000006820F4802008600846406820F4FE0097
:102DB00048604FF41F008860FFF753FF4FF000603A
:102DC0000449086010BD0000001002400000FFF838
:102DD000FFFFF6FE08ED00E000BFFEE702E008C8D6
:102DE000121F08C1002AFAD170477047002001E085
:102DF00001C1121F002AFBD17047000030B5044604
:102E000000250EE00848FDF7F7FA0121002000F048
:102E10005DF80548FDF7F0FA0021084600F056F885
:102E20006D1CA542EEDB30BDA086010070B50546E5
:102E3000072D46D2DFE805F0040D161F28313B00B0
:102E400001212148FFF729FA08B1002400E00124FC
:102E500037E002211C48FFF720FA08B1002400E007
:102E600001242EE020211848FFF717FA08B10024AA
:102E700000E0012425E040211348FFF70EFA08B1D5
:102E8000002400E001241CE080210F48FFF705FA30
:102E900008B1002400E0012413E04FF480710A48D7
:102EA000FFF7FBF908B1002400E0012409E04FF42A
:102EB00000710548FFF7F1F908B1002400E0012492
:102EC00000BF00BF204670BD000C014007284DD256
:102ED000DFE800F0040E18222C36400019B9042255
:102EE000234B1A6003E00422214B1B1F1A603DE0B4
:102EF00019B908221E4B1A6003E008221C4B1B1F45
:102F00001A6033E019B91022194B1A6003E010223D
:102F1000174B1B1F1A6029E019B92022144B1A60A5
:102F200003E02022124B1B1F1A601FE019B9402238
:102F30000F4B1A6003E040220D4B1B1F1A6015E077
:102F400019B980220A4B1A6003E08022084B1B1F2C
:102F50001A600BE021B94FF48072054B1A6004E04F
:102F60004FF48072024B1B1F1A6000BF00BF7047F6
:102F700014080140FFF788FBFFF7D8F8FFF702FDC0
:102F80000220FFF73BFFFDA20A210846FFF7A6FA41
:102F9000FFF7B9F901F0D6F8FE4908600020FE49B4
:102FA0000860FE49086001F0BEB8FB4800680028D0
:102FB0007ED1FB490860F8480068FDF72BFAF74816
:102FC0000068FFF7C3F90120FFF730FF012811D196
:102FD0000020FFF7A4F9F1480068032805DAEF485C
:102FE0000068401CED49086002E00020EB490860E1
:102FF000FDF7F8F90020FFF719FF012811D1002093
:10300000FFF78DF9E5480068002805DDE348006812
:10301000401EE249086002E00320E0490860FDF735
:10302000E1F9DE480068A0B90420FFF7FFFE01289F
:103030000FD1DB48006860B90120D7490860D74943
:103040000860D8490860D6490860FDF7CBF9FFF75A
:103050005AF9D2480068012813D10420FFF7E6FE90
:1030600001280ED1CE48006858B90220CA4908602C
:103070000120CA490860CA490860FDF7B3F9FFF7A3
:1030800042F9C6480068022815D10420FFF7CEFE99
:10309000012810D1C248006868B90320BE49086001
:1030A0000120BE490860BE490860FDF79BF900E0B9
:1030B00019E0FFF728F9B9480068032813D1042064
:1030C000FFF7B4FE01280ED1B548006858B90420B6
:1030D000B14908600120B1490860B1490860FDF7B5
:1030E00081F9FFF710F9AC48006801287ED1002073
:1030F000AB490860A8480068FDF78CF9A74800684C
:10310000FFF724F90120FFF791FE012810D1FFF706
:1031100006F9A2480068032805DAA0480068401CA8
:103120009E49086002E001209C490860FDF75AF9B9
:103130000020FFF77BFE012810D1FFF7F0F8974839
:103140000068012805DD95480068401E9349086025
:1031500002E0032091490860FDF744F98F480068B8
:10316000012814D10420FFF761FE01280FD18C48FB
:10317000006860B96F2088490860022087490860AC
:10318000012087490860FDF72DF9FFF7BCF8834857
:103190000068022813D10420FFF748FE01280ED151
:1031A0007F48006858B979207B49086001207B4935
:1031B00008607B490860FDF715F9FFF7A4F8774828
:1031C0000068032817D10420FFF730FE012812D130
:1031D0007348006850B900206F4908606F49086063
:1031E0007049086001206E49086000E003E0FDF7C7
:1031F000F9F8FFF788F8684800686F287DD100204B
:103200006749086064480068FDF704F9634800688E
:10321000FFF79CF80120FFF709FE012811D10220D9
:10322000FFF77DF85D480068062805DA5B4800680E
:10323000401C5A49086002E0022058490860FDF726
:10324000D1F80020FFF7F2FD012811D10220FFF78D
:1032500066F852480068022805DD50480068401EA4
:103260004E49086002E006204C490860FDF7BAF8B4
:103270000020FFF7DBFD90B90120FFF7D7FD70B903
:103280000220FFF7D3FD50B90320FFF7CFFD30B97F
:103290000420FFF7CBFD10B94348444908603F487C
:1032A000006802282ED1FFF7C1FD01282AD140482D
:1032B0000068002826DD3E480068401E3C49086042
:1032C000084600683B4908600023A02219461846BA
:1032D00000F042FF35480068FDF78EF8334800687B
:1032E0000A280FDD31480068FCF7B0FF0646324A75
:1032F000324BFCF739FF044600E03DE1FCF7B7FF35
:103300002A4908602548006802282FD10320FFF7CA
:103310008DFD01282AD12648006842F20F718842AB
:1033200024DA23480068401C2149086008460068E8
:10333000204908600023A0221946012000F00CFF5C
:103340001A480068FDF758F8184800680A280DDD8B
:1033500016480068FCF77AFF0646174A174BFCF739
:1033600003FF0446FCF783FF104908600B48006820
:1033700003284AD10220FFF759FD21E0496E697404
:1033800069616C697A65696E67202E2E2E202E2E5B
:103390002E000000940000201C00002020000020CF
:1033A000A00000202400002020A10700A800002089
:1033B00028000020780000209A9999999999E93F6E
:1033C000012822D1FE48006800281EDDFC48006864
:1033D000401EFB49086008460068FA490860FA4840
:1033E0000068FDF709F8F84800680A280DDDF6487E
:1033F0000068FCF72BFF0646F44AF54BFCF7B4FED9
:103400000446FCF734FFF0490860F24800680328DE
:1034100028D1FFF70BFD012824D1E948006842F2CA
:103420000F7188421EDAE6480068401CE4490860D3
:1034300008460068E3490860E3480068FCF7DCFFE1
:10344000E14800680A280DDDDF480068FCF7FEFE51
:103450000646DE4ADE4BFCF787FE0446FCF707FF14
:10346000D9490860DB480068042827D10220FFF70B
:10347000DDFC012822D1D848006800281EDDD6488E
:103480000068401ED449086008460068CD490860BD
:10349000CD480068FCF7B0FFCB4800680A280DDD76
:1034A000C9480068FCF7D2FE0646C84AC84BFCF77C
:1034B0005BFE0446FCF7DBFEC3490860C5480068B4
:1034C000042829D10320FFF7B1FC012824D1C248E8
:1034D000006842F20F7188421EDABF480068401C43
:1034E000BD49086008460068B6490860B6480068EB
:1034F000FCF782FFB44800680A280DDDB248006876
:10350000FCF7A4FE0646B14AB14BFCF72DFE04467B
:10351000FCF7ADFEAC490860AE480068052814D140
:103520000420FFF783FC01280FD1AC48006860B984
:103530007020AB4908600220A64908600120A74915
:103540000860FCF74FFFFEF7DEFEA2480068062881
:1035500012D10420FFF76AFC01280DD19F480068B2
:1035600050B901209E4908609A4908609B4908604B
:10357000FCF738FFFEF7C7FE9948006870287DD138
:1035800000209649086096480068FCF743FF914880
:103590000068FEF7DBFE0120FFF748FC012811D18F
:1035A0000220FEF7BCFE8B480068062805DA894831
:1035B0000068401C8749086002E0022085490860D5
:1035C000FCF710FF0020FFF731FC012811D1022089
:1035D000FEF7A5FE7F480068022805DD7D480068EB
:1035E000401E7C49086002E006207A490860FCF72A
:1035F000F9FE0020FFF71AFC90B90120FFF716FC36
:1036000070B90220FFF712FC50B90320FFF70EFC3F
:1036100030B90420FFF70AFC10B972486A49086003
:103620006C48006802282ED1FFF700FC01282AD13F
:103630006D480068002826DD6B480068401E6A4916
:103640000860084600685F4908600023A022194608
:10365000184600F081FD5C480068FCF7CDFE5A4832
:1036600000680A280FDD58480068FCF7EFFD0646A1
:10367000564A574BFCF778FD044600E03BE1FCF767
:10368000F6FD514908605348006802282FD10320F5
:10369000FFF7CCFB01282AD15348006842F20F7192
:1036A000884224DA50480068401C4F4908600846A8
:1036B0000068444908600023A0221946012000F058
:1036C0004BFD41480068FCF797FE3F4800680A2818
:1036D0000DDD3D480068FCF7B9FD06463B4A3C4B12
:1036E000FCF742FD0446FCF7C2FD37490860394843
:1036F0000068032827D10220FFF798FB012822D178
:103700003A48006800281EDD38480068401E3749E6
:103710000860084600682B4908602B480068FCF7E1
:103720006BFE294800680A280DDD27480068FCF771
:103730008DFD0646254A264BFCF716FD0446FCF790
:1037400096FD2149086023480068032828D1FFF727
:103750006DFB012824D12548006842F20F71884290
:103760001EDA22480068401C2049086008460068AC
:103770001449086014480068FCF73EFE12480068CF
:103780000A280DDD10480068FCF760FD06460F4A68
:103790000F4BFCF7E9FC0446FCF769FD0A49086099
:1037A0000C480068042842D10220FFF73FFB0128A3
:1037B0003DD10F480068002839DD0D48006819E048
:1037C0002C00002078000020A80000209A999999E8
:1037D0009999E93F2000002030000020A00000203F
:1037E0001C00002020A10700340000203800002029
:1037F0003C000020401EFC49086008460068FB4968
:103800000860FB480068FCF7F7FDF94800680A28E3
:103810000DDDF7480068FCF719FD0646F54AF64B42
:10382000FCF7A2FC0446FCF722FDF1490860F348CE
:103830000068042829D10320FFF7F8FA012824D1D1
:10384000E948006842F20F7188421EDAE6480068D3
:10385000401CE549086008460068E4490860E448FF
:103860000068FCF7C9FDE24800680A280DDDE04861
:103870000068FCF7EBFC0646DE4ADF4BFCF774FC05
:103880000446FCF7F4FCDA490860DC4800680528C7
:1038900018D10420FFF7CAFA012813D1D8480068CC
:1038A00001280FD1D748006860B97120D649086057
:1038B0000220D24908600120D2490860FCF792FD3D
:1038C000FEF721FDCD480068062814D10420FFF73B
:1038D000ADFA01280FD1CB48006860B96F20CA4902
:1038E00008600220C54908600120C6490860FCF74D
:1038F00079FDFEF708FDC448006871287ED10020DC
:10390000C0490860C0480068FCF784FDBB480068F7
:10391000FEF71CFD0120FFF789FA012811D10220D2
:10392000FEF7FDFCB5480068062805DAB3480068D4
:10393000401CB249086002E00220B0490860FCF770
:1039400051FD0020FFF772FA012811D10220FEF785
:10395000E6FCAA480068022805DDA8480068401E69
:10396000A649086002E00620A4490860FCF73AFD79
:103970000020FFF75BFA90B90120FFF757FA70B902
:103980000220FFF753FA50B90320FFF74FFA30B97E
:103990000420FFF74BFA10B99C48954908609748F6
:1039A0000068022822D1FFF741FA01281ED1984869
:1039B000006800281ADD96480068401E9449086097
:1039C0008B480068FCF718FD894800680A280DDD5F
:1039D00087480068FCF73AFC0646864A864BFCF7A7
:1039E000C3FB0446FCF743FC814908608348006838
:1039F000022827D10320FFF719FA00E098E10128F7
:103A000020D18348006842F20F7188421ADA804858
:103A10000068401C7E49086075480068FCF7ECFCB3
:103A2000734800680A280DDD71480068FCF70EFC39
:103A30000646704A704BFCF797FB0446FCF717FCF0
:103A40006B4908606D480068032823D10220FFF706
:103A5000EDF901281ED16F48006800281ADD6D4875
:103A60000068401E6B49086061480068FCF7C4FCB0
:103A70005F4800680A280DDD5D480068FCF7E6FB3A
:103A800006465C4A5C4BFCF76FFB0446FCF7EFFB19
:103A90005749086059480068032824D1FFF7C6F940
:103AA000012820D15B48006842F20F7188421ADA7F
:103AB00058480068401C574908604D480068FCF7AA
:103AC0009BFC4B4800680A280DDD49480068FCF75C
:103AD000BDFB0646474A484BFCF746FB0446FCF74D
:103AE000C6FB4349086045480068042823D10220EA
:103AF000FFF79CF901281ED14748006800281ADD0D
:103B000045480068401E4449086039480068FCF791
:103B100073FC374800680A280DDD35480068FCF75B
:103B200095FB0646334A344BFCF71EFB0446FCF774
:103B30009EFB2F49086031480068042825D10320E6
:103B4000FFF774F9012820D13348006842F20F7161
:103B500088421ADA30480068401C2F49086024481F
:103B60000068FCF749FC224800680A280DDD20485F
:103B70000068FCF76BFB06461E4A1F4BFCF7F4FA85
:103B80000446FCF774FB1A4908601C4800680528C5
:103B900029D10420FFF74AF9012824D119480068E7
:103BA00008BB7220184908600320144908600120EE
:103BB00014490860FCF716FC1648006816490968A5
:103BC00008441349096848431449086008460068D6
:103BD0001349086013490968134A1268881A0028B3
:103BE00024DB014623E08AE03C000020780000202E
:103BF000A80000209A9999999999E93F20000020FE
:103C000024000020A00000201C00002020A10700AC
:103C10004000002044000020480000205800002000
:103C20005C00002028000020340000204142FE4AB1
:103C3000116010460068FD49096890FBF1F000EB47
:103C400080004001FA490860FA480068FA490968AA
:103C5000884203DD0120F949086002E00020F749AD
:103C60000860F7490968F74A1268881A002801DBDA
:103C7000014600E04142F44A116010460068EB49F9
:103C8000096890FBF1F000EB80004001EF4908600B
:103C9000EB480068EB490968884203DD0120EC49E4
:103CA000086002E00020EA490860EA490968EA4A37
:103CB0001268881A002801DB014600E04142E74A09
:103CC000116010460068D949096890FBF1F000EBDB
:103CD00080004001E2490860DE480068DE4909686A
:103CE000884203DD0120DF49086002E00020DD4951
:103CF000086000F027FADC490860FEF704FBDB48A7
:103D00000068062814D10420FFF790F801280FD18D
:103D1000D748006860B97020D64908600220D349AE
:103D200008600120D2490860FCF75CFBFEF7EBFA63
:103D3000D048006872287DD10020CD49086000F08D
:103D400001FACD49086008460068C7490968401A69
:103D5000B0F57A7F08DDC9480068401EC749086091
:103D600000F0F0F9C0490860C2480068FCF752FB57
:103D7000BE480068FEF7EAFA0120FFF757F801286D
:103D800011D10320FEF7CBFAB8480068042805DA01
:103D9000B6480068401CB549086002E00320B349FA
:103DA0000860FCF71FFB0020FFF740F8012811D145
:103DB0000320FEF7B4FAAD480068032805DDAB48E0
:103DC0000068401EA949086002E00420A749086075
:103DD000FCF708FBA548006803281ED10420FFF764
:103DE00025F8012819D1A2480068B0B9A448006894
:103DF000012804D100F0E5F90120A149086040F252
:103E000076409C4908600320984908600120984941
:103E10000860FCF7E7FAFEF776FA94480068042891
:103E20001AD1FFF703F8012816D19148006898B914
:103E3000002000E0C0E08F4908608C49086091498B
:103E400008608E4908609049086001208849086030
:103E5000FCF7C8FAFEF757FA00F074F986490860D3
:103E60000846006889490968401A8949096801EBD0
:103E70004102C2EBC111B0EBC10F0EDD80480068FA
:103E800058B900F09EF900F05DF982490860012000
:103E9000FEF7B4FF01207A490860774800687D4941
:103EA0000968401A7C49096801EB4102C2EBC11163
:103EB000B0EBC10F65DD72480068012861D100F0E8
:103EC00080F900F03FF97149086000206C490860F2
:103ED0000120FEF793FF6C480068401C6A490860A7
:103EE00000235348194602685448006800F034F92A
:103EF00052480068012807D1684800684C490968A1
:103F000008446649086006E0644800684849096852
:103F1000401A6249086001234C48002102684C485D
:103F2000006800F019F94A480068012807D15C4888
:103F300000684649096808445949086006E058483D
:103F4000006842490968401A5549086002234448FC
:103F5000002102684348006800F0FEF8414800680C
:103F6000012807D14F4800683D49096808444D4978
:103F7000086006E0494800682D490968401A474929
:103F800008604148006829490968884214D1052021
:103F9000FEF734FF0020374908603449086039498A
:103FA00008603649086038490860012030490860D7
:103FB000FCF718FAFEF7A7F92E48006840F27641A0
:103FC000884271D100202A4908602A480068FCF71D
:103FD00021FA26480068FEF7B9F90120FEF726FF0E
:103FE000012811D10320FEF79AF92048006804281F
:103FF00005DA1E480068401C1C49086002E00320E6
:104000001A490860FCF7EEF90020FEF70FFF0128BF
:1040100053D10320FEF783F914480068032847DDD5
:1040200012480068401E40E0600000204000002070
:104030006C00002028000020340000204C000020EC
:104040002C000020380000206400002070000020B8
:1040500050000020300000203C00002068000020BC
:1040600074000020540000209C000020200000204C
:10407000A00000201C000020980000205C00002010
:10408000AC00002024000020A400002088000020B4
:104090004400002084000020480000207800002018
:1040A0007C000020800000203DE02049086002E004
:1040B00004201E490860FCF795F91C480068032895
:1040C00014D10420FEF7B2FE01280FD11848006871
:1040D00060B90820174908600320144908600120CE
:1040E00013490860FCF77EF9FEF70DF90F480068E8
:1040F000042818D1FEF79AFE012814D10C48006854
:1041000088B900200B490860084908600A4908601E
:104110000A4908600A490860012005490860FCF75F
:1041200061F9FEF7F0F8FEF740BF00002000002024
:10413000A00000201C000020240000205C000020C3
:10414000A4000020034800880249091F098800EBE9
:10415000014070471C2800402DE9F04307460D46FA
:1041600090469946052D13D2DFE805F00306090CA9
:104170000F004FF49C740BE040F2712408E040F211
:10418000E24405E040F6354402E041F66A0400BF2F
:1041900000BF012F04D101210220FEF797FE03E0AA
:1041A00000210220FEF792FE002606E04846FEF7B8
:1041B000CDFD2046FCF720F9761C4645F6DBBDE830
:1041C000F08300B501210620FEF780FE00210620C5
:1041D000FEF77CFE00BD00000000000000000000B3
:1041E000000000000000000000183C3C3C181800D3
:1041F000181800000000000000666666000000005D
:104200000000000000000000006C6CFE6C6C6CFE96
:104210006C6C000000000018183C66060C1830603A
:10422000663C1818000000000E1B5B6E30180C7600
:10423000DAD8700000000000001C36361C06F66656
:1042400066DC0000000000000018181800000000E4
:104250000000000000000000003018180C0C0C0CCE
:104260000C18183000000000000C181830303030E6
:104270003018180C000000000000006C38FE386C8C
:10428000000000000000000000000018187E181850
:10429000000000000000000000000000000000001E
:1042A000383830180000000000000000007E0000D8
:1042B00000000000000000000000000000000000FE
:1042C0003838000000000000006060303018180C22
:1042D0000C060600000000000078CCECECCCDCDC26
:1042E000CC780000000000000030383E3030303024
:1042F0003030000000000000003C66666030180CA2
:10430000067E000000000000003C666660386066C3
:10431000663C000000000000000C0C6C6C6C66FE3B
:104320006060000000000000007E0606063E60603F
:10433000301E0000000000000038180C3E66666663
:10434000663C000000000000007E60303018180C51
:104350000C0C000000000000003C66666E3C7666B7
:10436000663C000000000000003C666666667C302B
:10437000181C000000000000000000383800000099
:10438000383800000000000000000038380000004D
:104390003838301800000000006030180C060C1887
:1043A0003060000000000000000000007E007E0081
:1043B000000000000000000000060C1830603018FB
:1043C0000C06000000000000003C66663018180073
:1043D0001818000000000000007EC3C3F3DBDBF30D
:1043E00003FE00000000000000183C6666667E6662
:1043F0006666000000000000003E6666663E666677
:10440000663E000000000000003C66660606066688
:10441000663C000000000000001E366666666666A8
:10442000361E000000000000007E0606063E06065E
:10443000067E000000000000007E0606063E06061E
:104440000606000000000000003C66660606766670
:10445000667C00000000000000666666667E666698
:104460006666000000000000003C181818181818B4
:10447000183C000000000000006060606060606642
:10448000663C00000000000000666636361E3636C8
:104490006666000000000000000606060606060626
:1044A000067E00000000000000C6C6EED6D6D6C6C6
:1044B000C6C600000000000000C6C6CEDEF6E6C696
:1044C000C6C6000000000000003C666666666666C0
:1044D000663C000000000000003E6666663E060680
:1044E0000606000000000000003C66666666666620
:1044F000663C306000000000003E6666663E366640
:104500006666000000000000003C66060C18306083
:10451000663C000000000000007E181818181818EB
:104520001818000000000000006666666666666691
:10453000663C00000000000000666666666666660F
:104540003C1800000000000000C6C6C6D6D6D66CD7
:104550006C6C0000000000000066662C18183466C1
:10456000666600000000000000666666663C18187B
:104570001818000000000000007E606030180C0673
:10458000067E000000000000003C0C0C0C0C0C0C23
:104590000C0C0C0C3C0000000006060C0C1818302B
:1045A0003060600000000000003C303030303030BF
:1045B000303030303C0000183C6600000000000045
:1045C00000000000000000000000000000000000EB
:1045D00000000000FF00001C183000000000000078
:1045E00000000000000000000000003C60607C66ED
:1045F000667C0000000000000006063E66666666F7
:10460000663E0000000000000000003C6606060652
:10461000663C0000000000000060607C6666666624
:10462000667C0000000000000000003C66667E061C
:10463000063C00000000000000780C0C0C7E0C0C06
:104640000C0C0000000000000000007C666666663E
:10465000667C60603E0000000006063E6666666698
:1046600066660000000000001818001E18181818D0
:10467000187E0000000000003030003C3030303048
:10468000303030301E0000000006066666361E36EA
:104690006666000000000000001E181818181818A0
:1046A000187E0000000000000000007ED6D6D6D69E
:1046B000D6C60000000000000000003E6666666688
:1046C00066660000000000000000003C666666664A
:1046D000663C0000000000000000003E6666666662
:1046E000663E0606060000000000007C6666666600
:1046F000667C60606000000000000066760E0606C2
:1047000006060000000000000000007C06063C6079
:10471000603E000000000000000C0C7E0C0C0C0C35
:104720000C78000000000000000000666666666607
:10473000667C000000000000000000666666666699
:104740003C18000000000000000000C6D6D6D6D6F7
:104750006C6C00000000000000000066663C183C25
:10476000666600000000000000000066666666667F
:10477000663C30180F0000000000007E6030180C0E
:10478000067E00000000000000301818180C060C0F
:1047900018181830000000000018181818181818F9
:1047A0001818181818000000000C1818183060307D
:1047B0001818180C00000000008EDB7100000000CB
:1047C0000000000000000000E84700080000002092
:1047D000FC000000DC2D0008E4480008FC0000207C
:1047E00004040000EC2D00080000000000000000A0
:1047F00000000000000000000000000000000000B9
:1048000000000000000000000000000000000000A8
:104810000000000000000000000000000000000098
:104820000000000000000000000000000000000088
:104830000000000000000000000000000000000078
:104840000000000000000000000000000000000068
:104850000000000000000000000000000000000058
:104860000000000000000000000000000000000048
:104870000000000000000000000000000000000038
:104880000000000000000000000000000000000028
:104890000000000000000000000000000000000018
:1048A0000000000000000000000000000000000008
:1048B00000000000000000000000000000000000F8
:1048C00000000000000000000000000000000000E8
:1048D00000000000000000000000000000000000D8
:0448E00000000000D4
:0400000508000131BD
:00000001FF
