:020000040800F2
:1000000040050020450100085D340008A52C0008CB
:100010005934000805040008693800080000000091
:100020000000000000000000000000007D36000815
:100030000904000800000000DD340008073800084B
:100040005F0100085F0100085F010008C535000876
:100050005F0100085F0100085F0100085F01000800
:100060005F0100085F0100085F0100085F010008F0
:100070005F0100085F0100085F0100085F010008E0
:100080005F0100085F0100085F0100085F010008D0
:100090005F0100085F0100085F0100085F010008C0
:1000A0005F0100085F0100085F0100085F010008B0
:1000B0005F0100085F0100085F0100085F010008A0
:1000C0005F0100085F0100085F0100085F01000890
:1000D0005F0100085F0100085F0100085F01000880
:1000E0005F0100085D3500085F0100085F0100083E
:1000F0005F0100085F0100085F0100085F01000860
:100100005F0100085F0100085F0100085F0100084F
:100110005F0100085F0100085F0100085F0100083F
:100120005F0100085F0100085F0100085F0100082F
:10013000DFF80CD000F028F900480047F13900083A
:10014000400500200648804706480047FEE7FEE7D6
:10015000FEE7FEE7FEE7FEE7FEE7FEE7FEE7FEE777
:1001600009380008310100082DE9FE4F81EA030437
:1001700004F0004421F0004100944FF0000B23F004
:10018000004350EA01045ED052EA03045BD0C3F39B
:100190000A54C1F30A552C44A4F2F3340194A0FB91
:1001A0000254C1F3130141F48011C3F3130343F468
:1001B000801301FB024400FB034E840A970A44EAC1
:1001C000815447EA8357A4FB076802958D0A05FB13
:1001D00007854FEA932C04FB0C542705029D4FEA38
:1001E000065847EA1637B5EB08056EEB070C870E85
:1001F000920E47EA811742EA8312A7FB0201B6EB8F
:100200000B0164EB00042B0D43EA0C335E1844EB46
:100210001C50DA465146E7FB0201C5F313044FEACE
:100220000B3343EA14534FEA0432019C43EA0603BA
:10023000A4F10C040294009CCDE900B400F055F840
:1002400003B0BDE8F08F00200146F9E70EB5C10FFD
:1002500080EAE0700844CA07002140F233438DE889
:100260000E000A460B4600F040F803B000BD70B522
:10027000C1F30A5201F000450024C1F3130140F21A
:10028000FF3341F480119A4201DA002070BD40F240
:1002900033439A42A2F2334203DC524200F006F8A2
:1002A00000E090402C43F1D0404270BD202A04DB96
:1002B000203A21FA02F00021704721FA02F3D040DF
:1002C000C2F12002914008431946704710B5141E30
:1002D00073F1000408DA401C41F1000192185B41FF
:1002E0001A4301D120F0010010BD2DE9F04D9246D6
:1002F0009B4611B1B1FA81F202E0B0FA80F22032ED
:10030000904600F053F804460F4640EA0A0041EADE
:100310000B0153465A46084313D0114653EA0100D5
:1003200019D0C8F140025046FFF7C0FF05460E46FF
:1003300050465946424600F039F8084305D001209E
:1003400004E020463946BDE8F08D0020054346EA2A
:10035000E0762C4337430A986305E40AA0EB0800D3
:100360000022FD0A44EA47540A3002D50020014623
:10037000E9E7010510196941DDE9084500196941FE
:10038000BDE8F04DA2E70000064C074D06E0E0682E
:1003900040F0010394E8070098471034AC42F6D3CC
:1003A000FFF7CAFE1C6900083C690008202A04DB2C
:1003B000203A00FA02F1002070479140C2F1200378
:1003C00020FA03F319439040704730B58C1810F8A9
:1003D000012B12F00F0301D110F8013B120906D1D5
:1003E00010F8012B03E010F8015B01F8015B5B1EC4
:1003F000F9D101E001F8013B521EFBD1A142E6D345
:10040000002030BD00BFFEE7704701B502E0009854
:10041000401E009000980028F9D108BD00B50120C9
:1004200003F034FA014800F003F800BD20A10700F2
:1004300007E0022100E000BF0A1EA1F10101FAD18C
:1004400000BF011EA0F10100F3D1704710B50446B2
:100450002046722C7ED015DC042802F059820ADC7A
:1004600070B3012842D0022801F00A85032842F027
:100470005B8202F041B96F284DD070286BD0712893
:10048000F5D10FE3DF2801F014850CDC792801F0A9
:1004900038827A2801F056837B2801F0B980DD2864
:1004A000E5D102F0FDB8E02801F03085A0F27640F9
:1004B00000287DD0A0F24C400028D8D101F01BBF0D
:1004C000F1A20A21142002F017FDF3A21E2114202C
:1004D00002F012FDF3A23221142002F00DFDF4A26D
:1004E0004621142002F008FD02F01EBAE6A20A21FD
:1004F000084602F001FDF1A21E21142002F0FCFCCE
:10050000F3A23221142002F0F7FCF8A246211420B5
:1005100002F0F2FCE8E7F7A20A21084602F0ECFC40
:10052000FBA21E210A2002F0E7FCFEA232211420C9
:1005300002F0E2FCFE4800684FF47A7190FBF1F0A3
:100540000A2190FBF1F201FB12003030F9490870EA
:10055000F74801E0B9E3F1E00068642190FBF1F0B5
:100560000A2190FBF1F201FB12003030F2490870D1
:10057000EF4800680A2190FBF1F090FBF1F201FBDB
:1005800012003030ED490870E94800680A2190FBFC
:10059000F1F201FB12003030E9490870E5480278B9
:1005A0003221642002F076FCE3480278322100E038
:1005B000FEE36E2002F06EFCE048027832217820E3
:1005C00002F068FCDE4802783221822002F062FCF0
:1005D000DCA232218C2002F08FFCDBA24621142009
:1005E00002F08AFCDB4800684FF47A7190FBF1F06E
:1005F0000A2190FBF1F201FB12003030D64908705D
:10060000D4480068642190FBF1F00A2190FBF1F2DC
:1006100001FB12003030D1490870CE4800680A2131
:1006200090FBF1F090FBF1F201FB12003030CC496D
:100630000870C84800680A2190FBF1F201FB120023
:100640003030C8490870C44802784621642002F05E
:1006500021FCC248027846216E2002F01BFCC048F3
:1006600002784621782002F015FCBE480278462127
:10067000822002F00FFCB3A246218C2002F03CFC49
:10068000B9A25A21142002F037FCBA4800684FF48E
:100690007A7190FBF1F00A2190FBF1F201FB12005C
:1006A0003030B5490870B3480068642190FBF1F020
:1006B0000A2190FBF1F201FB12003030AF490870C3
:1006C000AC4800680A2190FBF1F090FBF1F201FBCD
:1006D00012003030AA490870A64800680A2190FB31
:1006E000F1F201FB12003030A6490870A2480278EE
:1006F0005A21642002F0CEFBA04802785A216E20D5
:1007000002F0C8FB9E4802785A21782002F0C2FB12
:100710009C4802785A21822002F0BCFB89A25A210F
:100720008C2002F0E9FB98A26E21142002F0E4FB79
:100730006EA28221142002F0DFFBD5E66DA20A2111
:10074000084602F0D9FB91A21E210A2002F0D4FB38
:1007500074A23221142002F0CFFB914800684FF4BC
:100760007A7190FBF1F00A2190FBF1F201FB12008B
:1007700030308C4908708A480068642190FBF1F0A1
:100780000A2190FBF1F201FB12003030864908701B
:10079000834800680A2190FBF1F090FBF1F201FB25
:1007A00012003030814908707D4800680A2190FBB2
:1007B000F1F201FB120030307D490870794802786F
:1007C0003221642002F066FB7748027832216E20E5
:1007D00002F060FB754802783221782002F05AFB63
:1007E000734802783221822002F054FB55A2322154
:1007F0008C2002F081FB54A24621142002F07CFBE5
:100800006C4800684FF47A7190FBF1F00A2190FB7C
:10081000F1F201FB1200303067490870654800684A
:10082000642190FBF1F00A2190FBF1F201FB120030
:100830003030624908705F4800680A2190FBF1F08F
:1008400090FBF1F201FB120030305D49087059480D
:1008500000680A2190FBF1F201FB12003030594987
:100860000870554802784621642002F013FB534873
:10087000027846216E2002F00DFB51480278462195
:10088000782002F007FB9FE054696D65204C617091
:100890007365204D6F646500566964656F204D6F08
:1008A000646500004D616E75616C204D6F6465007C
:1008B00053657474696E677300000000496E746557
:1008C00072616374697665204D6F64650000000095
:1008D000496E70757420506172616D6574657273D4
:1008E000204D616E75616C6C790000005265747505
:1008F000726E0000506C6561736520736C657720C3
:100900007468652063616D65726120746F0000001A
:1009100074686520454E4420706F736974696F6E0A
:1009200000000000536C6964653A203C3C3C0000C8
:100930002C000020F0000020F1000020F200002038
:10094000F30000203E3E3E0050616E3A2020203CE5
:100950003C3C000030000020F4000020F5000020A6
:10096000F6000020F700002054696C743A20203C07
:100970003C3C000034000020F8000020F90000207A
:10098000FA000020FB0000205365740074686520A5
:10099000535441525420706F736974696F6E000034
:1009A00038000020FC000020FD000020FE00002098
:1009B000FF0000203C000020000100200101002079
:1009C0000201002003010020FE4802784621822017
:1009D00002F060FAAFF2940246218C2002F08CFA09
:1009E000AFF27C025A21142002F086FAF648006821
:1009F0004FF47A7190FBF1F00A2190FBF1F201FBC8
:100A000012003030F1490870EF480068642190FB13
:100A1000F1F00A2190FBF1F201FB12003030EC49B9
:100A20000870E94800680A2190FBF1F090FBF1F2B0
:100A300001FB12003030E7490870E34800680A21E2
:100A400090FBF1F201FB12003030E3490870DF48FF
:100A500002785A21642002F01DFADD4802785A21FA
:100A60006E2002F017FADB4802785A21782002F053
:100A700011FAD94802785A21822002F00BFAAFF21B
:100A80003C125A218C2002F037FAAFF204126E2188
:100A9000142002F031FAAFF2AC128221142002F0DD
:100AA0002BFA21E5CDA20A21084602F025FAD1A2AF
:100AB0001E210A2002F020FAD1A23221142002F0D5
:100AC0001BFAD34800684FF47A7190FBF1F00A21C9
:100AD00090FBF1F201FB12003030CE490870CC4897
:100AE0000068642190FBF1F00A2190FBF1F201FB18
:100AF00012003030C8490870C54800680A2190FBD0
:100B0000F1F090FBF1F201FB12003030C3490870A4
:100B1000BF4800680A2190FBF1F201FB120030305F
:100B2000BF490870BB48027832217D2002F0B2F93B
:100B3000B94802783221872002F0ACF9B748027830
:100B40003221912002F0A6F9B548027832219B208B
:100B500002F0A0F9AFF214223221A52002F0CCF964
:100B6000B0A24621142002F0C7F9B24800684FF441
:100B70007A7190FBF1F00A2190FBF1F201FB120077
:100B80003030AD490870AB480068642190FBF1F04B
:100B90000A2190FBF1F201FB12003030A7490870E6
:100BA000A44800680A2190FBF1F090FBF1F201FBF0
:100BB00012003030A24908709E4800680A2190FB5C
:100BC000F1F201FB120030309E4908709A48027819
:100BD00046217D2002F05EF9984802784621872060
:100BE00002F058F9964802784621912002F052F915
:100BF0009448027846219B2002F04CF9AFF2BC22C7
:100C00004621A52002F078F98FA25A21142002F083
:100C100073F9914800684FF47A7190FBF1F00A2162
:100C200090FBF1F201FB120030308C4908708A48C9
:100C30000068642190FBF1F00A2190FBF1F201FBC6
:100C40001200303086490870834800680A2190FB02
:100C5000F1F090FBF1F201FB120030308149087095
:100C60007D4800680A2190FBF1F201FB1200303050
:100C70007D490870794802785A217D2002F00AF9EE
:100C8000774802785A21872002F004F975480278E3
:100C90005A21912002F0FEF8734802785A219B20D5
:100CA00002F0F8F8AFF264325A21A52002F024F9DC
:100CB000AFF22C326E21142002F01EF9AFF2D432C2
:100CC0008221142002F018F90EE468A20A210846D5
:100CD00002F012F96CA21E210A2002F00DF96E48F2
:100CE00000684FF47A7190FBF1F00A2190FBF1F269
:100CF00001FB1200303069490870674800686421C0
:100D000090FBF1F00A2190FBF1F201FB1200303070
:100D100063490870604800680A2190FBF1F090FB7D
:100D2000F1F201FB120030305E4908705A48006849
:100D30000A2190FBF1F201FB120030305A49087091
:100D4000564802781E216E2002F0A4F8544802781A
:100D50001E21782002F09EF8524802781E2182203F
:100D600002F098F8504802781E218C2002F092F888
:100D70004EA232210A2002F0BFF84FA23221822077
:100D800002F0BAF84CA23221A02002F0B5F84B488C
:100D900000684FF4616190FBF1F049490860084632
:100DA0000068C0EB001045490968A1EB800000E035
:100DB000F5E13C2190FBF1F04249086040480068B1
:100DC00082E0000003010020400000200401002018
:100DD000050100200601002007010020506C65611C
:100DE000736520656E74657220666F6C6C6F7769D1
:100DF0006E670000706172616D65746572730000EA
:100E000046616D65733A202020203C3C3C00000088
:100E10004400002008010020090100200A010020F0
:100E20000B010020496E74657276616C3A203C3C7F
:100E30003C000000480000200C0100200D010020B3
:100E40000E0100200F010020536875747465723A1A
:100E500020203C3C3C0000004C0000201001002001
:100E600011010020120100201301002054616B6960
:100E70006E672054696D65204C617073652E2E2E4F
:100E8000202E2E2E0000000046616D6573205461F7
:100E90006B656E3A20000000E40000201401002081
:100EA00015010020160100201701002054696D650E
:100EB000204C6566743A00003A0000006000002093
:100EC0002001002024010020C0EB4011C1EB0020D4
:100ED000FE490968A1EB0010FD490968C1EB011149
:100EE000A0EB8100FB490860FB4800680A2190FBE9
:100EF000F1F090FBF1F201FB12003030F74908707D
:100F0000F54800680A2190FBF1F201FB1200303035
:100F1000F3490870EE4800680A2190FBF1F090FB5D
:100F2000F1F201FB12003030EE490870E848006829
:100F30000A2190FBF1F201FB12003030EA490870FF
:100F4000E44800680A2190FBF1F090FBF1F201FB0C
:100F500012003030E5490870DE4800680A2190FB35
:100F6000F1F201FB12003030E1490870DB480278F1
:100F700032216E2001F08EFFD9480278322178208C
:100F800001F088FFD748027832218C2001F082FFDF
:100F9000D54802783221962001F07CFFD3480278B0
:100FA0003221AA2001F076FFD14802783221B42004
:100FB00001F070FFCFA246210A2001F09DFFCEA2D2
:100FC0004621502001F098FFCCA24621962001F046
:100FD00093FFCB4800684FF47A7190FBF1F00A213F
:100FE00090FBF1F201FB12003030C6490870C44892
:100FF0000068642190FBF1F00A2190FBF1F201FB03
:1010000012003030C0490870BD4800680A2190FBCA
:10101000F1F090FBF1F201FB12003030BB49087097
:10102000B74800680A2190FBF1F201FB1200303052
:10103000B7490870B348027846211E2001F02AFF04
:10104000B14802784621282001F024FFAF480278F9
:101050004621322001F01EFFAD48027846213C2097
:1010600001F018FFAB4800684FF47A7190FBF1F083
:101070000A2190FBF1F201FB12003030A649087002
:10108000A4480068642190FBF1F00A2190FBF1F282
:1010900001FB12003030A14908709E4800680A2107
:1010A00090FBF1F090FBF1F201FB120030309C4913
:1010B0000870984800680A2190FBF1F201FB1200C9
:1010C000303098490870944802784621642001F035
:1010D000E1FE9248027846216E2001F0DBFE904846
:1010E00002784621782001F0D5FE8E48027846210C
:1010F000822001F0CFFE8C4800684FF47A7190FB9B
:10110000F1F00A2190FBF1F201FB12003030874927
:10111000087085480068642190FBF1F00A2190FB7B
:10112000F1F201FB12003030814908707E480068FE
:101130000A2190FBF1F090FBF1F201FB120030303C
:101140007C490870784800680A2190FBF1F201FBA5
:101150001200303078490870744802784621AA207D
:1011600001F098FE724802784621B42001F092FE08
:10117000704802784621BE2001F08CFE6E4802784D
:101180004621C82001F086FE6CA25A21142001F0ED
:10119000B3FE6CA26E21142001F0AEFE81E4AFF22A
:1011A00034320A21084601F0A7FEAFF224321E2194
:1011B0000A2001F0A1FE654800684FF47A7190FBA7
:1011C000F1F00A2190FBF1F201FB1200303060498E
:1011D00008705E480068642190FBF1F00A2190FBE2
:1011E000F1F201FB120030305A490870574800688C
:1011F0000A2190FBF1F090FBF1F201FB120030307C
:1012000055490870514800680A2190FBF1F201FB32
:1012100012003030514908704D4802781E216E206E
:1012200001F038FE4B4802781E21782001F032FE92
:10123000494802781E21822001F02CFE474802789E
:101240001E218C2001F026FEAFF2A03232210A20AE
:1012500001F052FEAFF2A0323221822001F04CFEAA
:10126000AFF2AC323221A02001F046FE17480068F0
:101270004FF4616190FBF1F017490860084600687F
:10128000C0EB001011490968A1EB80003C2190FBE4
:10129000F1F00F49086010480068C0EB4011C1EB45
:1012A00000200A490968A1EB001009490968C1EB4F
:1012B0000111A0EB810007490860074800680A2176
:1012C00090FBF1F090FBF1F24AE00000600000209A
:1012D0002401002028010020200100201801002006
:1012E000190100201A0100201B0100201C01002010
:1012F0001D010020583A0000593A00005A3A0000F7
:101300007C0000202C0100202D0100202E01002057
:101310002F0100208000002030010020310100203A
:10132000320100203301002084000020340100201D
:10133000350100203601002037010020506175730F
:101340006500000053746F7000000000E40000208E
:1013500014010020150100201601002017010020B3
:1013600001FB12003030FE490870FE4800680A2177
:1013700090FBF1F201FB12003030FB490870FB4892
:1013800000680A2190FBF1F090FBF1F201FB1200E2
:101390003030F7490870F54800680A2190FBF1F2F7
:1013A00001FB12003030F3490870F34800680A214D
:1013B00090FBF1F090FBF1F201FB12003030EF49AD
:1013C0000870ED4800680A2190FBF1F201FB120061
:1013D0003030EB490870E248027832216E2001F08B
:1013E00059FDE14802783221782001F053FDE048B0
:1013F000027832218C2001F04DFDDE480278322146
:10140000962001F047FDDD4802783221AA2001F044
:1014100041FDDB4802783221B42001F03BFDAFF200
:101420002C1246210A2001F067FDAFF2341246214A
:10143000502001F061FDAFF23C124621962001F0F0
:101440005BFDD04800684FF47A7190FBF1F00A21FF
:1014500090FBF1F201FB12003030CB490870C94813
:101460000068642190FBF1F00A2190FBF1F201FB8E
:1014700012003030C5490870C24800680A2190FB4C
:10148000F1F090FBF1F201FB12003030C04908701E
:10149000BC4800680A2190FBF1F201FB12003030D9
:1014A000BC490870B848027846211E2001F0F2FCC1
:1014B000B64802784621282001F0ECFCB4480278B6
:1014C0004621322001F0E6FCB248027846213C2059
:1014D00001F0E0FCB04800684FF47A7190FBF1F045
:1014E0000A2190FBF1F201FB12003030AB49087089
:1014F000A9480068642190FBF1F00A2190FBF1F209
:1015000001FB12003030A6490870A34800680A2188
:1015100090FBF1F090FBF1F201FB12003030A14999
:1015200008709D4800680A2190FBF1F201FB12004F
:1015300030309D490870994802784621642001F0B6
:10154000A9FC9748027846216E2001F0A3FC95483B
:1015500002784621782001F09DFC934802784621CC
:10156000822001F097FC914800684FF47A7190FB5B
:10157000F1F00A2190FBF1F201FB120030308C49AE
:1015800008708A480068642190FBF1F00A2190FB02
:10159000F1F201FB12003030864908708348006880
:1015A0000A2190FBF1F090FBF1F201FB12003030C8
:1015B000814908707D4800680A2190FBF1F201FB27
:1015C000120030307D490870794802784621AA20FF
:1015D00001F060FC774802784621B42001F05AFC03
:1015E000754802784621BE2001F054FC7348027809
:1015F0004621C82001F04EFC71A25A21142001F0AE
:101600007BFCAFF2C0226E21142001F075FCC5E511
:101610006DA20A21084601F06FFCAFF628021E21D8
:101620000A2001F069FC6FA23221142001F064FC51
:10163000704800684FF47A7190FBF1F00A2190FB3A
:10164000F1F201FB120030306B4908706948006804
:10165000642190FBF1F00A2190FBF1F201FB1200F2
:10166000303066490870634800680A2190FBF1F049
:1016700090FBF1F201FB12003030614908705D48C7
:1016800000680A2190FBF1F201FB120030305D4945
:101690000870594802783221912001F0FBFB57482D
:1016A000027832219B2001F0F5FB55480278322167
:1016B000A52001F0EFFB534802783221AF2001F062
:1016C000E9FBAFF680523221B92001F015FC4EA2A1
:1016D0004621142001F010FC4F4800684FF47A7145
:1016E00090FBF1F00A2190FBF1F201FB1200303087
:1016F0004A49087048480068642190FBF1F00A21CB
:1017000090FBF1F201FB120030304549087042486D
:1017100000680A2190FBF1F090FBF1F201FB12004E
:101720003030404908703C4800680A2190FBF1F2D3
:1017300001FB120030303C490870384802784621DD
:10174000912001F0A7FB3648027846219B2001F04A
:10175000A1FB344802784621A52001F09BFB65E0FF
:101760001801002020010020190100202401002080
:101770001A0100201B010020280100201C0100206C
:101780001D0100207C0000202C0100202D010020E4
:101790002E0100202F0100208000002030010020B9
:1017A000310100203201002033010020840000209C
:1017B00034010020350100203601002037010020CF
:1017C000526573756D650000506C656173652065C9
:1017D0006E7465722074686520666F6C6C6F7769D3
:1017E0006E670000546F74616C2046616D65733ADA
:1017F0003C3C3C004400002008010020090100207E
:101800000A0100200B010020496E74657276616C3C
:101810003A2020203C3C3C00480000200C010020E5
:101820000D0100200E0100200F010020FE4802786B
:101830004621AF2001F02EFBAFF6F8624621B92019
:1018400001F05AFBF9A25A21142001F055FBFB4884
:1018500000684FF47A7190FBF1F00A2190FBF1F2ED
:1018600001FB12003030F6490870F448006864212A
:1018700090FBF1F00A2190FBF1F201FB12003030F5
:10188000F0490870ED4800680A2190FBF1F090FBE8
:10189000F1F201FB12003030EB490870E7480068B4
:1018A0000A2190FBF1F201FB12003030E749087089
:1018B000E34802785A21912001F0ECFAE1480278DD
:1018C0005A219B2001F0E6FADF4802785A21A52030
:1018D00001F0E0FADD4802785A21AF2001F0DAFA8F
:1018E000AFF6A0725A21B92001F006FBD8A26E21F2
:1018F000142001F001FBD94A8221142001F0FCFAE6
:101900004CE4AFF23C120A21084601F0F5FAD4A2E9
:101910001E210A2001F0F0FAD4A23221142001F095
:10192000EBFAC5A24621142001F0E6FAD44800687B
:101930004FF47A7190FBF1F00A2190FBF1F201FB78
:1019400012003030CF490870CD480068642190FB08
:10195000F1F00A2190FBF1F201FB12003030CA498C
:101960000870C74800680A2190FBF1F090FBF1F283
:1019700001FB12003030C5490870C14800680A21D7
:1019800090FBF1F201FB12003030C1490870BD48F4
:10199000027846212D2001F07DFABB4802784621CD
:1019A000372001F077FAB94802784621412001F04A
:1019B00071FAB748027846214B2001F06BFAA74A2A
:1019C00058324621552001F097FAB2A25A2114202C
:1019D00001F092FA98A26E21142001F08DFAB2481B
:1019E00000684FF47A7190FBF1F00A2190FBF1F25C
:1019F00001FB12003030AD490870AB48006864212B
:101A000090FBF1F00A2190FBF1F201FB1200303063
:101A1000A7490870A44800680A2190FBF1F090FBE8
:101A2000F1F201FB12003030A24908709E480068B4
:101A30000A2190FBF1F201FB120030309E49087040
:101A40009A4802786E212D2001F024FA98480278F5
:101A50006E21372001F01EFA964802786E2141204F
:101A600001F018FA944802786E214B2001F012FA26
:101A70007A4A58326E21552001F03EFA8FA2822117
:101A8000142001F039FA6CA29621142001F034FAE6
:101A90008F4800684FF47A7190FBF1F00A2190FBB7
:101AA000F1F201FB120030308A4908708848006862
:101AB000642190FBF1F00A2190FBF1F201FB12008E
:101AC000303085490870824800680A2190FBF1F0A7
:101AD00090FBF1F201FB12003030804908707C4825
:101AE00000680A2190FBF1F201FB120030307C49C2
:101AF00008707848027896212D2001F0CBF97648BD
:101B000002789621372001F0C5F9744802789621B1
:101B1000412001F0BFF97248027896214B2001F074
:101B2000B9F94E4A58329621552001F0E5F948A2FC
:101B3000AA21142001F0E0F9484ABE21142001F046
:101B4000DBF964E5AFF280320A21084601F0D4F9EE
:101B500043A21E210A2001F0CFF962A232211420F3
:101B600001F0CAF934A24621142001F0C5F96148F8
:101B700000684FF47A7190FBF1F00A2190FBF1F2CA
:101B800001FB120030305C4908705A48006864213B
:101B900090FBF1F00A2190FBF1F201FB12003030D2
:101BA00056490870534800680A2190FBF1F090FBF9
:101BB000F1F201FB12003030514908704D480068C5
:101BC0000A2190FBF1F201FB120030304D49087000
:101BD0004948027846212D2001F05CF947480278F7
:101BE0004621372001F056F9454802784621412028
:101BF00001F050F94348027846214B2001F04AF9A0
:101C0000164A58324621552001F076F93EA25A2153
:101C1000142001F071F908A26E21142001F06CF972
:101C20003D4800687AE000000F0100205368757499
:101C30007465723A202020203C3C3C004C0000207F
:101C400010010020110100201201002013010020CA
:101C5000436F6E74696E756500000000EC08000843
:101C6000706172616D657465727320005374617286
:101C70007420506F736974696F6E5F583A0000008A
:101C800038000020FC000020FD000020FE000020A5
:101C9000FF000020537461727420506F736974697F
:101CA0006F6E5F593A0000003C00002000010020E8
:101CB0000101002002010020030100205374617221
:101CC0007420506F736974696F6E5F5A3A00000038
:101CD0004000002004010020050100200601002032
:101CE00007010020456E6420506F736974696F6E40
:101CF0005F583A002C000020F0000020F100002086
:101D0000F2000020F3000020456E6420506F7369DC
:101D100074696F6E5F593A00300000204FF47A7199
:101D200090FBF1F00A2190FBF1F201FB1200303040
:101D3000FE490870FE480068642190FBF1F00A211A
:101D400090FBF1F201FB12003030FA490870F848BC
:101D500000680A2190FBF1F090FBF1F201FB120008
:101D60003030F5490870F24800680A2190FBF1F222
:101D700001FB12003030F1490870EC4802786E2106
:101D80002D2001F087F8EB4802786E21372001F012
:101D900081F8E94802786E21412001F07BF8E7489C
:101DA00002786E214B2001F075F8E54A6E2155202E
:101DB00001F0A2F8E3A28221142001F09DF8AFF215
:101DC00088129621142001F097F8E24800684FF439
:101DD0007A7190FBF1F00A2190FBF1F201FB120005
:101DE0003030DD490870DB480068642190FBF1F079
:101DF0000A2190FBF1F201FB12003030D749087044
:101E0000D44800680A2190FBF1F090FBF1F201FB4D
:101E100012003030D2490870CE4800680A2190FB89
:101E2000F1F201FB12003030CE490870CA48027846
:101E300096212D2001F02EF8C848027896213720EF
:101E400001F028F8C64802789621412001F022F8D6
:101E5000C448027896214B2001F01CF8B84A96211C
:101E6000552001F049F8AFF21822AA21142001F000
:101E700043F8B34A583ABE21142001F03DF83FE53B
:101E8000AF4AAC3A0A21084601F036F8AC4A883A23
:101E90001E21142001F030F8A94A743A322114208E
:101EA00001F02AF8A64A583A4621142001F024F8F5
:101EB00026E5AFF2EC620A21084601F01DF8AA4AB5
:101EC0001E210A2001F018F8A8A23221142001F0E6
:101ED00013F8A94800680A2190FBF1F201FB1200F7
:101EE0003030A64908700846027832217D2000F083
:101EF000D1FFAFF2A4224621142000F0FDFF904A4A
:101F0000583A5A21142000F0F7FFF9E49CA20A2164
:101F1000084600F0F1FF944AB8321E210A2000F072
:101F2000EBFFAFF2A8221E21822000F0E5FFAFF206
:101F3000B4221E21A02000F0DFFF964800684FF475
:101F4000616190FBF1F09449086008460068C0EBBD
:101F5000001090490968A1EB80003C2190FBF1F052
:101F60008E4908608C480068C0EB4011C1EB00202E
:101F700088490968A1EB001088490968C1EB011183
:101F8000A0EB810086490860834800680A2190FB25
:101F9000F1F090FBF1F201FB120030308149087042
:101FA0007D4800680A2190FBF1F201FB12003030FD
:101FB0007D490870794800680A2190FBF1F090FB98
:101FC000F1F201FB12003030784908707348006864
:101FD0000A2190FBF1F201FB1200303074490870C5
:101FE0006F4800680A2190FBF1F090FBF1F201FBD1
:101FF000120030306F490870694800680A2190FB70
:10200000F1F201FB120030306B490870654802782C
:102010001E216E2000F03EFF634802781E217820CA
:1020200000F038FF614802781E218C2000F032FF5A
:102030005F4802781E21962000F02CFF5D48027850
:102040001E21AA2000F026FF5B4802781E21B42042
:1020500000F020FFAFF6645232210A2000F04CFF5E
:10206000AFF66C523221502000F046FFAFF67452AA
:102070003221962000F040FF504800684FF47A71FA
:1020800090FBF1F00A2190FBF1F201FB12003030DD
:102090004B49087049480068642190FBF1F00A211F
:1020A00090FBF1F201FB12003030464908704348C2
:1020B00000680A2190FBF1F090FBF1F201FB1200A5
:1020C0003030414908703D4800680A2190FBF1F228
:1020D00001FB120030303D49087039480278322146
:1020E0001E2000F0D7FE374802783221282000F069
:1020F000D1FE354802783221084600F0CBFE334845
:10210000027832213C2000F0C5FE314800684FF4CF
:102110007A7190FBF1F00A2190FBF1F201FB1200C1
:1021200030302C4908702A48006855E0F40000203F
:1021300030000020F5000020F6000020F70000200D
:1021400044090008456E6420506F736974696F6EAE
:102150005F5A3A0034000020F8000020F900002007
:10216000FA000020FB000020F40D000853706565A4
:102170006428312D35293A009000002038010020D4
:1021800054616B696E6720566964656F2E2E2E2030
:102190002E2E2E00600000202001002024010020AF
:1021A0002801002018010020190100201A01002038
:1021B0001B0100201C0100201D0100207C000020CC
:1021C0002C0100202D0100202E0100202F010020D5
:1021D0008000002030010020642190FBF1F00A21F2
:1021E00090FBF1F201FB12003030FE490870FE480E
:1021F00000680A2190FBF1F090FBF1F201FB120064
:102200003030FA490870F84800680A2190FBF1F272
:1022100001FB12003030F6490870F648027832218E
:10222000642000F037FEEF48027832216E2000F083
:1022300031FEEE4802783221782000F02BFEEC4887
:1022400002783221822000F025FEEB4800684FF42E
:102250007A7190FBF1F00A2190FBF1F201FB120080
:102260003030E6490870E4480068642190FBF1F0E2
:102270000A2190FBF1F201FB12003030E0490870B6
:10228000DD4800680A2190FBF1F090FBF1F201FBC0
:1022900012003030DB490870D74800680A2190FBF3
:1022A000F1F201FB12003030D7490870D3480278B0
:1022B0003221AA2000F0EEFDD14802783221B4206C
:1022C00000F0E8FDCF4802783221BE2000F0E2FDA8
:1022D000CD4802783221C82000F0DCFDAFF6A472B0
:1022E0004621142000F008FEAFF6A8725A211420EF
:1022F00000F002FE18E3AFF278120A21084600F05F
:10230000FBFDC24A1E210A2000F0F6FDAFF29462E6
:102310001E21822000F0F0FDAFF2A0621E21A0205D
:1023200000F0EAFDBA4800684FF4616190FBF1F0FB
:10233000B849086008460068C0EB0010B449096855
:10234000A1EB80003C2190FBF1F0B3490860B1485B
:102350000068C0EB4011C1EB0020AD490968A1EB5A
:102360000010AD490968C1EB0111A0EB8100AB4938
:102370000860A84800680A2190FBF1F090FBF1F298
:1023800001FB12003030A6490870A24800680A21FB
:1023900090FBF1F201FB12003030A24908709E4818
:1023A00000680A2190FBF1F090FBF1F201FB1200B2
:1023B00030309D490870984800680A2190FBF1F27E
:1023C00001FB1200303099490870944800680A21D6
:1023D00090FBF1F090FBF1F201FB120030309449D8
:1023E00008708E4800680A2190FBF1F201FB120090
:1023F0003030904908708A4802781E216E2000F023
:1024000049FD884802781E21782000F043FD864867
:1024100002781E218C2000F03DFD844802781E21A8
:10242000962000F037FD824802781E21AA2000F095
:1024300031FD804802781E21B42000F02BFD7EA2E1
:1024400032210A2000F058FD7CA23221502000F0F9
:1024500053FD7BA23221962000F04EFD79480068A2
:102460004FF47A7190FBF1F00A2190FBF1F201FB3D
:10247000120030307449087072480068642190FB83
:10248000F1F00A2190FBF1F201FB120030306F49AC
:1024900008706C4800680A2190FBF1F090FBF1F2A3
:1024A00001FB120030306A490870664800680A2152
:1024B00090FBF1F201FB120030306649087062486F
:1024C000027832211E2000F0E5FC604802783221BB
:1024D000282000F0DFFC5E4802783221084600F038
:1024E000D9FC5C48027832213C2000F0D3FC3E4805
:1024F00000684FF47A7190FBF1F00A2190FBF1F241
:1025000001FB120030303B490870374800686421F5
:1025100090FBF1F00A2190FBF1F201FB1200303048
:1025200030490870304800680A2190FBF1F090FBB8
:10253000F1F201FB120030302C4908702A48006883
:102540000A2190FBF1F201FB12003030284908709B
:10255000284802783221642000F09CFC214802784F
:1025600032216E2000F096FC20480278322178203B
:1025700000F090FC1E4802783221822000F08AFC94
:102580001D4800684FF47A7190FBF1F00A2190FB2E
:10259000F1F201FB1200303018490870164800684B
:1025A000642190FBF1F00A2190FBF1F201FB120093
:1025B000303013490870104800680A2190FBF1F090
:1025C00090FBF1F201FB120030300E4908700A480E
:1025D00000680A2190FBF1F201FB120030300A4939
:1025E000087039E031010020800000203201002015
:1025F000330100203001002084000020340100203D
:10260000350100203601002037010020AC0E000803
:10261000600000202001002024010020280100206B
:1026200018010020190100201A0100201B010020C0
:102630001C0100201D010020583A0000593A0000FA
:102640005A3A00007C0000202C0100202D010020BF
:102650002E0100202F010020B44802783221AA2048
:1026600000F018FCB24802783221B42000F012FCCD
:10267000B04802783221BE2000F00CFCAE4802784F
:102680003221C82000F006FCAFF6CC6246211420AF
:1026900000F032FCA94A5A21142000F02DFC43E13D
:1026A000AFF6DC620A21084600F026FCA44A1E218F
:1026B0000A2000F021FCA3A23221142000F01CFC0F
:1026C000A34800680A2190FBF1F201FB12003030B0
:1026D000A04908700846027832217D2000F0DAFB1C
:1026E0009D4A4621142000F007FC9B4A9C3A5A213F
:1026F000142000F001FC17E1974AE43A0A21084649
:1027000000F0FAFB944A643A1E21142000F0F4FB16
:10271000924800684FF47A7190FBF1F00A2190FB27
:10272000F1F201FB120030308D4908708B480068CF
:10273000642190FBF1F00A2190FBF1F201FB120001
:10274000303088490870854800680A2190FBF1F014
:1027500090FBF1F201FB12003030834908707F4892
:1027600000680A2190FBF1F201FB120030307F4932
:1027700008707B4802781E21642000F08BFB7948AA
:1027800002781E216E2000F085FB774802781E211A
:10279000782000F07FFB754802781E21822000F02F
:1027A00079FB6D4A443A1E218C2000F0A5FB6A4A51
:1027B000403A3221142000F09FFB6D4800684FF42E
:1027C0007A7190FBF1F00A2190FBF1F201FB12000B
:1027D00030306849087066480068642190FBF1F069
:1027E0000A2190FBF1F201FB1200303062490870BF
:1027F0005F4800680A2190FBF1F090FBF1F201FBC9
:10280000120030305D490870594800680A2190FB79
:10281000F1F201FB12003030594908705548027836
:102820003221642000F036FB5348027832216E20BA
:1028300000F030FB514802783221782000F02AFB6A
:102840004F4802783221822000F024FB424A443A69
:1028500032218C2000F050FB3F4A203A46211420C0
:1028600000F04AFB474800684FF47A7190FBF1F0A2
:102870000A2190FBF1F201FB120030302B49087065
:1028800040480068642190FBF1F00A2190FBF1F2CE
:1028900001FB12003030264908703A4800680A21CE
:1028A00090FBF1F090FBF1F201FB12003030214976
:1028B0000870344800680A2190FBF1F201FB120015
:1028C00030301D490870194802784621642000F014
:1028D000E1FA1748027846216E2000F0DBFA15482D
:1028E00002784621782000F0D5FA13480278462174
:1028F000822000F0CFFA184A443A46218C2000F09A
:10290000FBFA154A9C3A5A21142000F0F5FA0BE024
:102910001DA20A21142000F0EFFA0F4A9C3A1E2152
:10292000142000F0E9FA00BF00BF10BD3401002000
:102930003501002036010020370100204413000833
:10294000F40D0008537065656428312D39293A006B
:102950009000002038010020880900087C00002039
:102960002C0100202D0100202E0100202F0100202D
:1029700080000020300100203101002032010020C1
:10298000330100208400002052652D696E6974694E
:10299000616C697A6500000051B18200A2F1C04209
:1029A000126842F001038200A2F1C042136009E004
:1029B0008200A2F1C0421268034B1A408300A3F1C7
:1029C000C0431A6070470000FEFF0F00D0E90112FB
:1029D0001143C2681143026911434269114382697C
:1029E0001143C2691143026A1143426A1143826A68
:1029F0001143C26A1143026B114302689200A2F1B3
:102A0000C0421160816808290BD101688900A1F1D9
:102A1000C041096841F0400201688900A1F1C0414C
:102A20000A60416B0968426B526841EA0211426BCD
:102A3000926841EA0221426B928941EA0241426B6B
:102A4000128A41EA0251426B127D41EA0261426BF5
:102A5000926911430268521C9200A2F1C0421160B7
:102A6000C16AB1F5804F1BD1816B0968826B5268D6
:102A700041EA0211826B926841EA0221826B128A5A
:102A800041EA0251826B127D41EA0261826B9269D6
:102A9000114302689200A2F1C042C2F8041107E09B
:102AA0006FF0704201688900A1F1C041C1F80421B2
:102AB0007047000008B50121042000F031FD04201A
:102AC000ADF8000010208DF8030003208DF80200FF
:102AD0006946254800F04EF80121082000F020FD4D
:102AE0004FF47040ADF8000010208DF80300032073
:102AF0008DF8020069461D4800F03CF801211020C5
:102B000000F00EFDC020ADF8000010208DF803008D
:102B100003208DF802006946154800F02BF84FF4A9
:102B20007040124914310860C020114948610121E8
:102B3000082000F0F5FC0120ADF8000004208DF81D
:102B400003006946094800F015F80121102000F043
:102B5000E7FCF020ADF8000004208DF80300694682
:102B6000024800F007F808BD00080140000C0140D1
:102B7000001001402DE9F04102460025002600200A
:102B800000230024002791F803C00CF00F0591F8F2
:102B900003C00CF0100CBCF1000F03D091F802C080
:102BA0004CEA050591F800C0BCF1000F31D0146863
:102BB00000202BE04FF0010C0CFA00F3B1F800C03C
:102BC0000CEA03069E4220D183004FF00F0C0CFA52
:102BD00003F7BC4305FA03FC4CEA040491F803C074
:102BE000BCF1280F06D14FF0010C0CFA00FCC2F822
:102BF00014C00AE091F803C0BCF1480F05D14FF0B2
:102C0000010C0CFA00FCC2F810C0401C0828D1D3FB
:102C10001460B1F800C0BCF1FF0F34DD546800202F
:102C20002EE000F1080C4FF0010808FA0CF3B1F89F
:102C300000C00CEA03069E4221D183004FF00F0C26
:102C40000CFA03F7BC4305FA03FC4CEA040491F8C0
:102C500003C0BCF1280F05D100F1080C08FA0CF8EC
:102C6000C2F8148091F803C0BCF1480F07D100F1FD
:102C7000080C4FF0010808FA0CF8C2F81080401C4C
:102C80000828CED35460BDE8F08102460020936846
:102C90000B400BB1012000E00020704741617047FC
:102CA0000161704700BFFEE710B504462CB14FF438
:102CB00080510548FFF7F2FF04E04FF480510248CD
:102CC000FFF7EEFF10BD0000001401402DE9F041B8
:102CD00006460F4614461D46DDF818802B46224650
:102CE0003946304600F0F5F904FB05F0414600F0A6
:102CF00056F9BDE8F08108B54FF6FF704FF4A073A8
:102D0000F022002100900846FFF7E0FF08BD38B52B
:102D100004464FF6FF70009004EB84000A2202EB99
:102D20008000C0F5A07083B204EB840002EB800049
:102D300081B20F220520FFF7C9FF38BD10B5044648
:102D40000D2C49D2DFE804F0070C11161B20252AB0
:102D50002F34393E43000F21052000F03FF83BE0BF
:102D60002321052000F03AF836E03721052000F055
:102D700035F831E04B21052000F030F82CE05F21E0
:102D8000052000F02BF827E07321052000F026F83D
:102D900022E08721052000F021F81DE09B2105207D
:102DA00000F01CF818E0AF21052000F017F813E040
:102DB000C321052000F012F80EE0D721052000F015
:102DC0000DF809E0EB21052000F008F804E0FF21F0
:102DD000052000F003F800BF00BF10BD70B5044629
:102DE0000D46A9B2A0B205230A2200F072F9002113
:102DF000642000F0D4F86A1C91B204F10A0290B287
:102E00000323012200F065F90021122000F0C7F829
:102E1000AA1C91B204F10B0290B201231A4600F0F1
:102E200058F90021012000F0BAF86A1E91B204F1AD
:102E3000080290B20123022200F04BF90021122077
:102E400000F0ADF8AA1E91B204F1080290B201237D
:102E50001A4600F03EF90021012000F0A0F86A1D9A
:102E600091B204F1080290B20123022200F031F97C
:102E70000021122000F093F8AA1D91B204F108027B
:102E800090B201231A4600F024F90021012000F03D
:102E900086F870BD2DE9F047804689461546A5F1B4
:102EA000200000F0FF0A102308224946404600F0A7
:102EB00010F92C2000F06AFA002417E00D4800EB0E
:102EC0000A10065D00270DE006F0010018B11F2072
:102ED00000F060FA03E04FF6FF7000F05BFA761046
:102EE000781CC7B2082FEFDB601CC4B2102CE5DBE6
:102EF000BDE8F0872A63000870B505460E46144603
:102F000017E028460830F02803DD002506F1100000
:102F100086B230461030B0F5A07F01DD00250026D6
:102F2000227831462846FFF7B5FF641C05F10800FA
:102F300085B220780028E4D170BD00B597B001219A
:102F4000080200F0CDFA0220019000200290052036
:102F5000039000200490059006904FF08050079059
:102F600000200890099008200A9010200B90002063
:102F70000C900E900F9010904FF480501190002004
:102F800012901390149001A81590169008A8FFF7BE
:102F90001DFD01210020FFF7FFFC17B000BD70B53B
:102FA00004460D4600262C2000F0F0F900BF03E097
:102FB000284600F0EFF9761CA642F9D370BD000058
:102FC00008B50121084600F0ABFA0121602000F0AD
:102FD000A7FA03208DF8020018208DF803004CF2A8
:102FE0000370ADF8000069462C48FFF7C3FD4FF6AB
:102FF0008070ADF8000069462948FFF7BBFD03204B
:103000008DF8020018208DF803001020ADF80000A4
:1030100069462248FFF7AEFD2020ADF80000694662
:103020001E48FFF7A7FD0121202000F079FA80203B
:10303000ADF8000069461948FFF79CFD01212020EA
:1030400000F06EFA4FF40060ADF8000069461348D6
:10305000FFF790FD10208DF8030003208DF802008B
:103060000121402000F05CFA0220ADF80000694622
:103070000B48FFF77FFD10208DF8030003208DF82B
:1030800002000121202000F04BFA4FF48050ADF8EF
:10309000000069460148FFF76DFD08BD00140140BE
:1030A0000018014008B5FFF78BFFFFF746FF01202E
:1030B000FFF7FAFD00F056F900F03CF84FF6FF700C
:1030C0004FF4A073F022002100900846FFF7FEFDA8
:1030D00008BD2DE9F04104460D4616461F462A203C
:1030E00000F054F9201200F055F9E0B200F052F966
:1030F000A119491EC1F30F2000F04CF9A119491E76
:10310000C8B200F047F92B2000F040F9281200F077
:1031100041F9E8B200F03EF9E919491EC1F30F2068
:1031200000F038F9E919491EC8B200F033F9BDE8DA
:10313000F081000010B5CF2000F028F9002000F049
:1031400029F9812000F026F9302000F023F9ED2044
:1031500000F01CF9642000F01DF9032000F01AF9BA
:10316000122000F017F9812000F014F9E82000F097
:103170000DF9852000F00EF9102000F00BF97820F1
:1031800000F008F9CB2000F001F9392000F002F935
:103190002C2000F0FFF8002000F0FCF8342000F0B4
:1031A000F9F8022000F0F6F8F72000F0EFF8202000
:1031B00000F0F0F8EA2000F0E9F8002000F0EAF86A
:1031C000002000F0E7F8B12000F0E0F8002000F067
:1031D000E1F81B2000F0DEF8B62000F0D7F80A2056
:1031E00000F0D8F8A22000F0D5F8C02000F0CEF80A
:1031F000352000F0CFF8C12000F0C8F8112000F011
:10320000C9F8C52000F0C2F8452000F0C3F84520F9
:1032100000F0C0F8C72000F0B9F8A22000F0BAF81A
:10322000F22000F0B3F8002000F0B4F8262000F0FF
:10323000ADF8012000F0AEF8E02000F0A7F80F2074
:1032400000F0A8F8262000F0A5F8242000F0A2F84D
:103250000B2000F09FF80E2000F09CF8092000F0F1
:1032600099F8542000F096F8A82000F093F8462032
:1032700000F090F80C2000F08DF8172000F08AF88C
:10328000092000F087F80F2000F084F8072000F0F4
:1032900081F8002000F07EF8E12000F077F80020AF
:1032A00000F078F8192000F075F81B2000F072F893
:1032B000042000F06FF8102000F06CF8072000F0F8
:1032C00069F82A2000F066F8472000F063F83920FA
:1032D00000F060F8032000F05DF8062000F05AF8D6
:1032E000062000F057F8302000F054F8382000F0A5
:1032F00051F80F2000F04EF8362000F047F8C820B3
:1033000000F048F82A2000F041F8002000F042F8D0
:10331000002000F03FF8002000F03CF8EF2000F023
:1033200039F82B2000F032F8002000F033F80020AC
:1033300000F030F8012000F02DF83F2000F02AF8CE
:103340003A2000F023F8552000F024F8112000F076
:103350001DF80348FDF759F8292000F017F810BDB3
:10336000FCBF020010B502210648FFF797FC064893
:10337000FDF74BF802210348FFF792FC0248FDF7E6
:1033800044F810BD00180140FCBF02004FF0C041DE
:103390000880704701490880704700000000026003
:1033A00008B501214FF0C05000F0AAF8012000F04C
:1033B0008FF84FF4407000F0C9F8012000F0C0F819
:1033C00000F040F900F048F900F0D6F83E2000F097
:1033D00029F900F037F9002000F016F900F032F971
:1033E0004FF6FF701B49088000F02CF94FF6FF7074
:1033F0001849091D088000F025F90121022000F07C
:10340000F3F814481C38008800F0020011491C39F8
:10341000088000F017F900F0B9F829208DF80000B5
:1034200000208DF801008DF8020001208DF80300C6
:10343000684600F015F803208DF8000000208DF894
:1034400001008DF8020001208DF80300684600F0AD
:1034500007F808BD2028004000BFFEE770470000C5
:1034600070B5002100230F22C47804B3154C2468E2
:1034700004F4E064C4F5E064210AC1F10403CA4025
:10348000447804FA03F184781440214309010E4C76
:103490000678A155047804F01F050124AC40057896
:1034A0006D11AD0005F1E025C5F8004109E0047893
:1034B00004F01F050124AC40044D0678761145F850
:1034C000264070BD0CED00E000E400E080E100E08B
:1034D000014908627047000000000E42704700007A
:1034E00029B1064A52690243044B5A6104E0034A77
:1034F00052698243014B5A6170470000001002403C
:1035000029B1064AD2690243044BDA6104E0034A56
:10351000D2698243014BDA6170470000001002401B
:1035200029B1064A92690243044B9A6104E0034AB6
:1035300092698243014B9A6170470000001002407B
:1035400001490860704700003C0442420249096A90
:103550000143014A116270470010024010B5022079
:1035600000F002F810BD0000024909888143014AB9
:1035700011807047042800400348008840F0100084
:103580000149088070470000042800400348008873
:103590004FF6EF7108400149088070470428004049
:1035A00001460020064A12880A40D0B2044A121F7F
:1035B00012880A4012B108B1012000E000207047D3
:1035C0000428004010B50220FFF7EAFF012808D1C7
:1035D0000220FFF7C9FF0348006810B101480068E6
:1035E000804710BD0000002029B1064A128802431E
:1035F000044B1A8004E0034A12888243014B1A806C
:10360000704700000028004000B50246FFF7B4FFF5
:10361000100C03490880091D0A80FFF7B7FF00BDA1
:103620001828004000B50246FFF7A6FFC2F303408A
:1036300003490880091D0A80FFF7A8FF00BD0000AC
:103640000828004000BF0348008800F02000002840
:10365000F9D0704704280040074800884FF6F771FA
:1036600008400549088000BF0348008800F00800B2
:103670000028F9D07047000004280040704710B5BA
:1036800000F002F810BD00000CB500200190009081
:103690003348006840F480303149086000BF30484A
:1036A000006800F4003000900198401C01900098E0
:1036B00018B90198B0F5A06FF1D12948006800F45D
:1036C000003010B10120009001E00020009000982F
:1036D000012843D12348006840F0100021490860C8
:1036E0000846006820F0030008600846006840F0C3
:1036F000020008601A484068194948600846406856
:1037000048600846406840F4806048600846406869
:1037100020F47C1048600846406840F4E810486097
:103720000846006840F08070086000BF0C480068E0
:1037300000F000700028F9D00948406820F003002C
:10374000074948600846406840F00200486000BFF2
:103750000348406800F00C000828F9D10CBD0000B7
:10376000001002400020024010B5044624B1012C94
:1037700011D0022C2DD11DE00121084600F0DCF80B
:103780001420FCF755FE0021012000F0D5F814208C
:10379000FCF74EFE1DE00121032000F0CDF81420BF
:1037A000FCF746FE0021032000F0C6F81420FCF7C9
:1037B0003FFE0EE00121052000F0BEF81420FCF7CA
:1037C00037FE0021052000F0B7F81420FCF730FE8A
:1037D00000BF00BF10BD0146062912D2DFE801F08C
:1037E000110306090C0F4FF448600AE04FF4C8605B
:1037F00007E04FF4487004E04FF4C87001E0C820BF
:1038000000BF00BF7047704710B51348006840F014
:1038100001001149086008464068104908400E49F7
:103820004860084600680E4908400B490860084691
:10383000006820F4802008600846406820F4FE00FC
:1038400048604FF41F008860FFF719FF4FF00060D9
:103850000449086010BD0000001002400000FFF89D
:10386000FFFFF6FE08ED00E000BFFEE702E008C83B
:10387000121F08C1002AFAD170477047002001E0EA
:1038800001C1121F002AFBD17047000030B5044669
:1038900000250EE00848FCF7CBFD0121002000F0D8
:1038A0004BF80548FCF7C4FD0021084600F044F839
:1038B0006D1CA542EEDB30BDA086010070B505464B
:1038C000052D31D2DFE805F0030C151E270001217C
:1038D0001748FFF7DAF908B1002400E0012423E0DB
:1038E00010211448FFF7D1F908B1002400E00124A9
:1038F0001AE020210F48FFF7C8F908B1002400E0C2
:10390000012411E040210B48FFF7BFF908B1002462
:1039100000E0012408E080210648FFF7B6F908B16D
:10392000002400E0012400BF00BF204670BD00005D
:10393000000C014000080140072851D2DFE800F0E8
:10394000040E17232F3B440019B90422254B1A609B
:1039500003E00422234B1B1F1A6041E019B94022E7
:10396000214B5A6102E040221F4B1A6138E021B915
:103970004FF480421D4B1A6004E04FF480421B4B11
:103980001B1F1A602CE021B94FF40042174B1A603C
:1039900004E04FF40042154B1B1F1A6020E021B9D0
:1039A0004FF48052114B1A6004E04FF480520F4BD9
:1039B0001B1F1A6014E019B980220B4B5A6102E0F8
:1039C0008022094B1A610BE021B94FF40052074BDA
:1039D0001A6004E04FF40052044B1B1F1A6000BF32
:1039E00000BF70471408014000100140140C014052
:1039F000FFF758FBFFF75EF8FFF7D2FC0220FFF756
:103A000045FFFDA20A210846FFF776FAFFF773F992
:103A100002F03AFCFE4908600020FE490860FE49B9
:103A2000086002F020BCFB48006800287ED1FB49FA
:103A30000860F8480068FCF709FDF7480068FFF7E0
:103A40007DF90120FFF73AFF012811D10020FFF78F
:103A50005EF9F1480068032805DAEF480068401C69
:103A6000ED49086002E00020EB490860FCF7D6FC55
:103A70000020FFF723FF012811D10020FFF747F9AD
:103A8000E5480068002805DDE3480068401EE2497B
:103A9000086002E00320E0490860FCF7BFFCDE4854
:103AA0000068A0B90420FFF709FF01280FD1DB4807
:103AB000006860B90120D7490860D7490860D84933
:103AC0000860D6490860FCF7A9FCFFF714F9D24852
:103AD0000068012815D10420FFF7F0FE012810D15D
:103AE000CE48006868B90220CA4908600120CA4966
:103AF0000860CC490860C9490860FCF78FFCFFF7F3
:103B0000FAF8C5480068022815D10420FFF7D6FE50
:103B1000012810D1C148006868B90320BD49086078
:103B20000120BD490860BD49086000E01BE0FCF7CA
:103B300075FCFFF7E0F8B8480068032813D10420AB
:103B4000FFF7BCFE01280ED1B448006858B9042024
:103B5000B04908600120B0490860B0490860FCF72E
:103B60005DFCFFF7C8F8AB48006801287ED1002053
:103B7000AA490860A7480068FCF768FCA6480068E6
:103B8000FFF7DCF80120FFF799FE012810D1FFF7BD
:103B9000BEF8A1480068032805DA9F480068401C69
:103BA0009D49086002E001209B490860FCF736FC53
:103BB0000020FFF783FE012810D1FFF7A8F89648F0
:103BC0000068012805DD94480068401E924908609D
:103BD00002E0032090490860FCF720FC8E48006852
:103BE000012820D10420FFF769FE01281BD18B4852
:103BF0000068C0B96F2087490860022086490860C4
:103C0000012086490860884800688849086088481B
:103C10000068884908608848006888490860FCF79F
:103C2000FDFBFFF768F87C480068022814D10420E7
:103C3000FFF744FE01280FD17848006860B9792069
:103C400074490860022074490860012073490860C3
:103C5000FCF7E4FBFFF74FF86F480068032817D123
:103C60000420FFF72BFE012812D100E010E06B4882
:103C7000006868B9002067490860674908606849BA
:103C80000860012065490860FCF7C8FBFFF733F8BE
:103C9000604800686F287DD10020604908605D4859
:103CA0000068FCF7D3FB5C480068FFF747F8012089
:103CB000FFF704FE012811D10220FFF728F856482B
:103CC0000068062805DA54480068401C524908601C
:103CD00002E0022050490860FCF7A0FB0020FFF73B
:103CE000EDFD012811D10220FFF711F84A480068C4
:103CF000022805DD48480068401E4749086002E088
:103D0000062045490860FCF789FB0020FFF7D6FD37
:103D100090B90120FFF7D2FD70B90220FFF7CEFD68
:103D200050B90320FFF7CAFD30B90420FFF7C6FDE4
:103D300010B94348434908603748006802282ED12B
:103D4000FFF7BCFD01282AD138480068002826DD8D
:103D500036480068401E3549086008460068324908
:103D600008600023A0221946184602F097FA354849
:103D70000068FCF75DFB334800680A280FDD314816
:103D80000068FCF763FA06462F4A304BFCF7ECF963
:103D9000044600E06BE1FCF76AFA2A4908601E4815
:103DA000006802285CD10320FFF788FD012857D165
:103DB0001E48006842F20F71884251DA1B480068C1
:103DC000401C1A490860084600681749086000232B
:103DD000A0221946012002F061FA1A480068FCF797
:103DE00027FB184800680A283ADD16480068FCF7E7
:103DF0002DFA0646144A2BE0496E697469616C69B4
:103E00007A65696E67202E2E2E202E2E2E00000041
:103E1000D00000201C00002020000020E000002036
:103E200024000020280000207C0000202C0000201E
:103E3000800000203000002084000020340000209A
:103E400020A10700E80000209A9999999999E93FE3
:103E5000FE4BFCF789F90446FCF709FAFC490860B7
:103E6000FC48006803282DD10220FFF727FD012818
:103E700028D1F9480068002824DDF7480068401E72
:103E8000F549086008460068F44908600123A0224B
:103E90000021084602F002FAED480068FCF7C8FA73
:103EA000EB4800680A280DDDE9480068FCF7CEF908
:103EB0000646EB4AE54BFCF757F90446FCF7D7F901
:103EC000E3490860E348006803282ED1FFF7F6FCB9
:103ED00001282AD1E048006842F20F71884224DAB2
:103EE000DD480068401CDC49086008460068DB4982
:103EF00008600123A0220021184602F0CFF9D4481F
:103F00000068FCF795FAD24800680A280DDDD04811
:103F10000068FCF79BF90646D14ACC4BFCF724F924
:103F20000446FCF7A4F9CA490860CA480068042896
:103F30002DD10220FFF7C2FC012828D1C948006812
:103F4000002824DDC7480068401EC64908600846AE
:103F50000068C54908600223A0220021084602F03B
:103F60009DF9BB480068FCF763FAB94800680A2865
:103F70000DDDB7480068FCF769F90646B84AB34B4F
:103F8000FCF7F2F80446FCF772F9B1490860B14851
:103F9000006804282FD10320FFF790FC01282AD1C4
:103FA000B048006842F20F71884224DAAD480068D8
:103FB000401CAC49086008460068AB490860022311
:103FC000A0220021012002F069F9A1480068FCF755
:103FD0002FFA9F4800680A280DDD9D480068FCF70D
:103FE00035F906469E4A994BFCF7BEF80446FCF7A5
:103FF0003EF99749086097480068052820D10420B9
:10400000FFF75CFC01281BD198480068C0B97020FC
:104010009749086002208F490860964800689649D1
:1040200008608E480068954908608F480068944988
:10403000086001208D490860FCF7F0F9FEF75BFE8F
:1040400084480068062812D10420FFF737FC0128B5
:104050000DD18648006850B90120854908607D4926
:10406000086082490860FCF7D9F9FEF744FE8048F1
:10407000006870287DD100207C4908607C48006879
:10408000FCF7E4F973480068FEF758FE0120FFF7DB
:1040900015FC012811D10220FEF739FE6D48006899
:1040A000062805DA6B480068401C6A49086002E08F
:1040B000022068490860FCF7B1F90020FFF7FEFB19
:1040C000012811D10220FEF722FE62480068022872
:1040D00005DD60480068401E5E49086002E0062079
:1040E0005C490860FCF79AF90020FFF7E7FB90B9FC
:1040F0000120FFF7E3FB70B90220FFF7DFFB50B9A7
:104100000320FFF7DBFB30B90420FFF7D7FB10B922
:104110005C484F4908604F48006802282ED1FFF7DD
:10412000CDFB01282AD154480068002826DD5248DA
:104130000068401E50490860084600684D49086004
:104140000023A0221946184602F0A8F8404800684B
:10415000FCF76EF93E4800680A280FDD3C4800680D
:10416000FCF774F806463E4A384BFBF7FDFF044661
:1041700000E09DE1FCF77BF83549086035480068B0
:1041800002282FD10320FFF799FB01282AD13A48B2
:10419000006842F20F71884224DA37480068401CF8
:1041A0003549086008460068324908600023A022AB
:1041B0001946012002F072F825480068FCF738F92A
:1041C000234800680A280DDD21480068FCF73EF806
:1041D0000646234A1D4BFBF7C7FF0446FCF747F88A
:1041E0001B4908601B48006803282DD10220FFF7F7
:1041F00065FB012828D121480068002824DD1F48DC
:104200000068401E1D4908600846006813490860A0
:104210000123A0220021084602F040F80C48006863
:10422000FCF706F90A4800680A280DDD084800680E
:10423000FCF70CF806460A4A044BFBF795FF0446C8
:10424000FCF715F80249086002481DE09999E93F1A
:10425000E800002020000020300000208000002026
:104260009A9999993400002084000020E0000020F1
:104270001C0000207C000020380000203C000020B2
:104280004000002020A10700006803282ED1FFF77E
:1042900015FB01282AD1FE48006842F20F718842BE
:1042A00024DAFB480068401CF949086008460068A9
:1042B000F84908600123A0220021184601F0EEFF12
:1042C000F5480068FCF7B4F8F34800680A280DDDEB
:1042D000F1480068FBF7BAFF0646F04AF04BFBF7DF
:1042E00043FF0446FBF7C3FFEB490860ED48006855
:1042F00004282DD10220FFF7E1FA012828D1EA484D
:104300000068002824DDE8480068401EE64908608F
:1043100008460068E54908600223A02200210846FB
:1043200001F0BCFFDC480068FCF782F8DA4800685E
:104330000A280DDDD8480068FBF788FF0646D74AF3
:10434000D74BFBF711FF0446FBF791FFD2490860FA
:10435000D448006804282FD10320FFF7AFFA0128C2
:104360002AD1D148006842F20F71884224DACE483F
:104370000068401CCC49086008460068CB490860CA
:104380000223A0220021012001F088FFC24800681A
:10439000FCF74EF8C04800680A280DDDBE480068EA
:1043A000FBF754FF0646BD4ABD4BFBF7DDFE044656
:1043B000FBF75DFFB8490860BA480068052818D1C6
:1043C0000420FFF77BFA012813D1B94800680128BF
:1043D0000FD1B848006860B97120B7490860022061
:1043E000B04908600120B3490860FCF717F8FEF7F0
:1043F00082FCAC480068052818D10420FFF75EFA5B
:10440000012813D1AD48006801280FD1A9480068E0
:1044100060B9DF20A84908600220A2490860012095
:10442000A4490860FBF7FAFFFEF765FC9D480068A9
:1044300006283DD10420FFF741FA012838D19D48D4
:104440000068A8BB6F209C4908600220954908605D
:10445000012098490860FBF7E1FFFEF74CFC984902
:104460000968984A1268881A002801DB014600E0B2
:104470004142954A11601046006800EB80004001FF
:10448000924908608E4800688E490968884203DDB9
:1044900001208F49086002E000208D4908608D49A5
:1044A00009687B4A1268881A002802DB014601E08D
:1044B0005AE04142884A11601046006800EB8000D3
:1044C000400186490860834800687149096888424C
:1044D00003DD01208249086002E000208049086075
:1044E00080490968704A1268881A002801DB014671
:1044F00000E041427C4A11601046006800EB8000F9
:1045000040017A490860774800686749096888422D
:1045100003DD01207649086002E00020744908604C
:1045200000236A48194602686948006801F0B6FE2F
:10453000634800686F4908600123684800210268E9
:104540006748006801F0AAFE6248006851490860A7
:1045500002236648002102686548006801F09EFE5B
:1045600060480068514908605348006871287CD150
:1045700000205049086050480068FBF767FF494831
:104580000068FEF7DBFB0120FFF798F9012811D145
:104590000220FEF7BCFB43480068062805DA4148C4
:1045A0000068401C3F49086002E002203D49086065
:1045B000FBF734FF0020FFF781F9012811D1022019
:1045C000FEF7A5FB37480068022805DD354800687E
:1045D000401E3449086002E0062032490860FBF7BB
:1045E0001DFF0020FFF76AF990B90120FFF766F977
:1045F00070B90220FFF762F950B90320FFF75EF9A6
:1046000030B90420FFF75AF910B93B482249086035
:1046100024480068022822D1FFF750F901281ED152
:104620003648006800281ADD34480068401E3349C7
:10463000086019480068FBF7FBFE174800680A2865
:104640000DDD15480068FBF701FE0646134A144BC2
:10465000FBF78AFD0446FBF70AFE0F490860114884
:104660000068022860D1032000E0BDE1FFF726F9D1
:10467000012859D12148006842F20F71884253DA6B
:104680001E480068401C1D4908600348006837E068
:104690003C00002080000020E80000209A999999B1
:1046A0009999E93F2000002040000020840000206C
:1046B00024000020E00000201C0000202800002032
:1046C0002C00002038000020640000207000002032
:1046D00050000020300000206800002074000020FE
:1046E00054000020340000206C00002078000020DE
:1046F000580000207C00002020A10700440000207A
:10470000FBF796FEFE4800680A280DDDFC480068AD
:10471000FBF79CFD0646FB4AFB4BFBF725FD0446D9
:10472000FBF7A5FDF6490860F8480068032823D187
:104730000220FFF7C3F801281ED1F54800680028C1
:104740001ADDF3480068401EF1490860EC48006833
:10475000FBF76EFEEA4800680A280DDDE8480068AD
:10476000FBF774FD0646E74AE74BFBF7FDFC044602
:10477000FBF77DFDE2490860E4480068032824D186
:10478000FFF79CF8012820D1E148006842F20F7140
:1047900088421ADADE480068401CDD490860D848C3
:1047A0000068FBF745FED64800680A280DDDD448AE
:1047B0000068FBF74BFD0646D24AD34BFBF7D4FC0F
:1047C0000446FBF754FDCE490860D0480068042831
:1047D00023D10220FFF772F801281ED1CD480068CE
:1047E00000281ADDCB480068401ECA490860C4484A
:1047F0000068FBF71DFEC24800680A280DDDC048AE
:104800000068FBF723FD0646BE4ABF4BFBF7ACFC36
:104810000446FBF72CFDBA490860BC480068042830
:1048200025D10320FFF74AF8012820D1B9480068B4
:1048300042F20F7188421ADAB6480068401CB54946
:104840000860AF480068FBF7F3FDAD4800680A2830
:104850000DDDAB480068FBF7F9FC0646A94AAA4BF8
:10486000FBF782FC0446FBF702FDA5490860A74858
:104870000068052845D10420FFF720F8012840D121
:10488000A5480068E8BB7220A449086004209F493D
:1048900008600120A0490860FBF7C0FD9C48006843
:1048A0009C49096808449E49096848439D49086035
:1048B000084600689C4908609C4909689C4A12683F
:1048C000881A002801DB014600E04142994A116044
:1048D000104600689249096890FBF1F0964908601B
:1048E0000846006800EB80004001944908608F484A
:1048F00000688F490968884204DD012090490860FA
:1049000003E058E000208E4908608E4909688E4A0D
:104910001268881A002801DB014600E041428B4AF8
:104920001160104600687E49096890FBF1F08849E3
:1049300008608148006800EB8000400185490860FC
:104940008048006880490968884203DD0120824967
:10495000086002E000208049086080490968804AB8
:104960001268881A002801DB014600E041427D4AB6
:104970001160104600686A49096890FBF1F07A49B5
:1049800008600846006800EB800040017749086035
:104990007248006872490968884203DD0120744941
:1049A000086002E000207249086001F06DFC714966
:1049B0000860FEF7A0F955480068062814D10420C5
:1049C000FEF77CFF01280FD15348006860B97020C2
:1049D0005249086002204D49086001204E49086094
:1049E000FBF71CFDFEF787F94C48006879287DD15C
:1049F00000204949086049480068FBF727FD434803
:104A00000068FEF79BF90120FEF758FF01281BD133
:104A10000220FEF77CF93D480068082805DA3B488B
:104A20000068801C394908600CE038480068082894
:104A300005D136480068401C3449086002E0022075
:104A400032490860FBF7EAFC0020FEF737FF012837
:104A50001BD10220FEF75BF92C480068022803D125
:104A600009202A4908600EE028480068092805DA6C
:104A700026480068801E2549086004E02348006835
:104A8000401E22490860FBF7C9FC0020FEF716FF14
:104A900090B90120FEF712FF70B90220FEF70EFF59
:104AA00050B90320FEF70AFF30B90420FEF706FFD5
:104AB00010B931481249086014480068022864D1CE
:104AC000FEF7FCFE012860D11948006800285CDD73
:104AD00017480068401E1649086009480068FBF73F
:104AE000A7FC074800680A284FDD00E04BE10448B6
:104AF0000068FBF7ABFB0646024A034B3EE00000B2
:104B0000E80000209A9999999999E93F200000209E
:104B1000480000204C000020E00000201C00002085
:104B2000440000205C000020600000202C000020D9
:104B30003800002064000020B40000207000002035
:104B400050000020300000203C00002068000020C1
:104B5000B800002074000020540000203400002021
:104B6000400000206C000020BC00002078000020E5
:104B700058000020D800002020A10700FBF7F4FA1D
:104B80000446FBF774FBFE490860FE4800680228F3
:104B900025D10320FEF792FE012820D1FA480068B3
:104BA00042F20F7188421ADAF7480068401CF64951
:104BB0000860F3480068FBF73BFCF14800680A28EE
:104BC0000DDDEF480068FBF741FB0646EF4AF04B6E
:104BD000FBF7CAFA0446FBF74AFBE9490860E948D3
:104BE0000068042823D10220FEF768FE01281ED1A8
:104BF000E848006800281ADDE6480068401EE549DC
:104C00000860DF480068FBF713FCDD4800680A28ED
:104C10000DDDDB480068FBF719FB0646DB4ADC4B81
:104C2000FBF7A2FA0446FBF722FBD5490860D548FA
:104C30000068042825D10320FEF740FE012820D17A
:104C4000D448006842F20F7188421ADAD1480068ED
:104C5000401CD0490860CA480068FBF7E9FBC84817
:104C600000680A280DDDC6480068FBF7EFFA064623
:104C7000C64AC74BFBF778FA0446FBF7F8FAC04977
:104C80000860C0480068062823D10220FEF716FEFF
:104C900001281ED1C048006800281ADDBE480068FF
:104CA000401EBD490860B6480068FBF7C1FBB44828
:104CB00000680A280DDDB2480068FBF7C7FA06460F
:104CC000B24AB34BFBF750FA0446FBF7D0FAAC49B3
:104CD0000860AC480068062825D10320FEF7EEFDE9
:104CE000012820D1AC48006842F20F7188421ADADC
:104CF000A9480068401CA8490860A1480068FBF763
:104D000097FB9F4800680A280DDD9D480068FBF767
:104D10009DFA06469D4A9E4BFBF726FA0446FBF792
:104D2000A6FA9749086097480068082814D104201B
:104D3000FEF7C4FD01280FD19848006860B97A20B9
:104D40009749086002208F49086001209349086054
:104D5000FBF764FBFDF7CFFF8A480068092812D1F2
:104D60000420FEF7ABFD01280DD18C48006850B936
:104D700001208B4908608349086088490860FBF777
:104D80004DFBFDF7B8FF864800687A287ED10020E9
:104D90008249086082480068FBF758FB7948006840
:104DA000FDF7CCFF0120FEF789FD01281BD1022071
:104DB000FDF7ADFF73480068082805DA7148006800
:104DC000801C704908600CE06E480068082805D116
:104DD0006C480068401C6B49086002E00220694989
:104DE0000860FBF71BFB0020FEF768FD01281BD1C4
:104DF0000220FDF78CFF63480068022803D10920D8
:104E0000604908600EE05F480068092805DA5D48DF
:104E10000068801E5B49086004E05A480068401E34
:104E200058490860FBF7FAFA0020FEF747FD90B9F1
:104E30000120FEF743FD70B90220FEF73FFD50B997
:104E40000320FEF73BFD30B90420FEF737FD10B913
:104E500054484B4908604B480068022824D1FEF7AB
:104E60002DFD012820D15048006800281CDD4E4847
:104E70000068401E4C49086041480068FBF7D8FABA
:104E80003F4800680A280FDD3D4800E046E1006821
:104E9000FBF7DCF906463D4A3D4BFBF765F9044656
:104EA000FBF7E5F93649086036480068022825D145
:104EB0000320FEF703FD012820D13B48006842F2A1
:104EC0000F7188421ADA38480068401C3649086079
:104ED0002B480068FBF7ACFA294800680A280DDD6A
:104EE00027480068FBF7B2F90646284A284BFBF72B
:104EF0003BF90446FBF7BBF92149086021480068EB
:104F0000042823D10220FEF7D9FC01281ED127480E
:104F1000006800281ADD25480068401E2349086003
:104F200017480068FBF784FA154800680A280DDD69
:104F300013480068FBF78AF90646144A144BFBF73E
:104F400013F90446FBF793F90D4908600D48006812
:104F500004283ED10320FEF7B1FC012839D11348C3
:104F6000006842F20F71884233DA10480068401C32
:104F70000E49086002480068FBF75AFA004817E03B
:104F8000E800002020000020380000209A9999991C
:104F90009999E93F3C00002040000020E0000020FB
:104FA0001C00002020A107002C0000203000002061
:104FB00000680A280DDDFE480068FBF747F9064641
:104FC000FC4AFD4BFBF7D0F80446FBF750F9F849D3
:104FD0000860FA480068062823D10220FEF76EFC1C
:104FE00001281ED1F648006800281ADDF448006840
:104FF000401EF3490860EE480068FBF719FAEC48D8
:1050000000680A280DDDEA480068FBF71FF906462C
:10501000E84AE94BFBF7A8F80446FBF728F9E4490E
:105020000860E6480068062825D10320FEF746FC04
:10503000012820D1E248006842F20F7188421ADA52
:10504000DF480068401CDE490860D9480068FBF76B
:10505000EFF9D74800680A280DDDD5480068FBF74E
:10506000F5F80646D34AD44BFBF77EF80446FBF727
:10507000FEF8CF490860D1480068082818D10420FC
:10508000FEF71CFC012813D1CE48006801280FD17F
:10509000CD48006860B97B20CC4908600220C74930
:1050A00008600120C8490860FBF7B8F9FDF723FE46
:1050B000C2480068082818D10420FEF7FFFB012829
:1050C00013D1C348006801280FD1BF48006860B9F8
:1050D000DF20BE4908600220B84908600120BA49B3
:1050E0000860FBF79BF9FDF706FEB4480068092845
:1050F00014D10420FEF7E2FB01280FD1B24800686A
:1051000060B97A20B14908600220AC4908600120EA
:10511000AD490860FBF782F9FDF7EDFDAB4800688B
:105120007B287CD10020A8490860A8480068FBF7CC
:105130008DF9A2480068FDF701FE0120FEF7BEFBD5
:10514000012811D10220FDF7E2FD9C4800680628E5
:1051500005DA9A480068401C9849086002E002207D
:1051600096490860FBF75AF90020FEF7A7FB0128D3
:1051700011D10220FDF7CBFD90480068022805DD23
:105180008E480068401E8D49086002E006208B4969
:105190000860FBF743F90020FEF790FB90B901206F
:1051A000FEF78CFB70B90220FEF788FB50B9032094
:1051B000FEF784FB30B90420FEF780FB10B9854868
:1051C0007B4908607D480068022822D1FEF776FB03
:1051D00001281ED18048006800281ADD7E4800683A
:1051E000401E7D49086072480068FBF721F970484D
:1051F00000680A280DDD6E480068FBF727F80646B0
:105200006C4A6D4BFAF7B0FF0446FBF730F868497B
:1052100008606A480068022827D1032000E022E2E3
:10522000FEF74CFB012820D16B48006842F20F7159
:1052300088421ADA68480068401C674908605C4880
:105240000068FBF7F5F85A4800680A280DDD584851
:105250000068FAF7FBFF0646564A574BFAF784FFF9
:105260000446FBF704F852490860544800680328D4
:1052700023D10220FEF722FB01281ED157480068E7
:1052800000281ADD55480068401E54490860484807
:105290000068FBF7CDF8464800680A280DDD444851
:1052A0000068FAF7D3FF0646424A434BFAF75CFF21
:1052B0000446FAF7DCFF3E490860404800680328CE
:1052C00024D1FEF7FBFA012820D14448006842F2BD
:1052D0000F7188421ADA41480068401C3F49086053
:1052E00033480068FBF7A4F8314800680A280DDD50
:1052F0002F480068FAF7AAFF06462E4A2E4BFAF707
:1053000033FF0446FAF7B3FF294908602B480068C9
:10531000042823D10220FEF7D1FA01281ED13048FB
:10532000006800281ADD2E480068401E2C490860DD
:105330001F480068FBF77CF81D4800680A280DDD4F
:105340001B480068FAF782FF06461A4A1A4BFAF71A
:105350000BFF0446FAF78BFF1549086017480068F1
:10536000042840D10320FEF7A9FA01283BD11C48AC
:10537000006842F20F71884235DA19480068401C13
:10538000174908600A480068FBF752F808480068A7
:105390000A2828DD06480068FAF758FF0646054A3D
:1053A000054BFAF7E1FE0446FAF761FF004919E000
:1053B000E80000209A9999999999E93F20000020E6
:1053C0003400002024000020E00000201C00002009
:1053D0002800002020A107004400002048000020F1
:1053E0004C0000200860FE48006805283DD10420DC
:1053F000FEF764FA012838D1FA480068A8BB722089
:10540000F94908600420F64908600120F549086060
:10541000FBF704F8F5480068F54909680844F549C0
:1054200009684843F449086008460068F349086081
:10543000F3490968F34A1268881A002801DB01461B
:1054400000E04142F04A11601046006800EB800025
:105450004001EE490860EA480068EA490968884264
:1054600004DD0120EA49086003E0E4E00020E849A7
:105470000860E8490968E84A1268881A002801DBD0
:10548000014600E04142E54A11601046006800EB29
:1054900080004001E2490860DE480068DE49096892
:1054A000884203DD0120DF49086002E00020DD4979
:1054B0000860DD490968DD4A1268881A002801DBA6
:1054C000014600E04142DA4A11601046006800EBF4
:1054D00080004001D7490860D3480068D349096873
:1054E000884203DD0120D449086002E00020D2494F
:1054F00008600023C54819460268C548006800F0E6
:10550000CDFE0123C64800210268C648006800F0AD
:10551000C5FE0223C74800210268C748006800F0A2
:10552000BDFEB8480068B6490860BB480068B94984
:105530000860BE480068BC490860C0490968B14AB3
:105540001268881A002801DB014600E04142AE4A99
:10555000116010460068A749096890FBF1F0B8494E
:1055600008600846006800EB80004001A749086019
:10557000B2480068A3490968884203DD0120A449B4
:10558000086002E00020A2490860AE490968A24A0A
:105590001268881A002801DB014600E041429F4A58
:1055A0001160104600689349096890FBF1F0A64924
:1055B00008600846006800EB8000400198490860D8
:1055C000A048006894490968884203DD0120954994
:1055D000086002E00020934908609C490968934AEA
:1055E0001268881A002801DB014600E04142904A17
:1055F0001160104600687F49096890FBF1F09449FA
:1056000008600846006800EB800040018949086096
:105610008E48006885490968884203DD0120864973
:10562000086002E000208449086000F02DFE8949EE
:105630000860FDF760FB6A480068062813D1042063
:10564000FEF73CF901280ED16648006858B97A2067
:105650006549086001206249086062490860FAF7FC
:10566000DDFEFDF748FB6048006872287ED100200F
:105670005C49086000F008FE774908600846006849
:1056800074490968401AB0F57A7F08DD5B48006804
:10569000401E5A49086000F0F7FD6E490860524804
:1056A0000068FAF7D3FE4E480068FDF747FB01207B
:1056B000FEF704F9012811D10320FDF728FB484823
:1056C0000068052805DA46480068401C444908601F
:1056D00002E0042042490860FAF7A0FE0020FEF72D
:1056E000EDF8012811D10320FDF711FB3C480068BB
:1056F000042805DD3A480068401E3949086002E088
:10570000052037490860FAF789FE35480068032804
:105710001ED10420FEF7D2F8012819D131480068C3
:10572000B0B94E480068012804D100F0F4FD012012
:105730004A49086040F276402B4908600320284916
:105740000860012027490860FAF768FEFDF7D3FAE0
:105750002348006804281AD1FEF7B0F8012816D1B2
:105760002048006898B900201F4900E008E108605F
:105770001B4908603A4908602049086039490860B7
:10578000012018490860FAF749FEFDF7B4FA00F065
:105790007BFD314908600846006833490968401AB2
:1057A0001249096801EB4102C2EBC111B0EBC10F14
:1057B0000EDD2A48006858B900F0ADFD00F064FD28
:1057C0002A4908600120FEF761F80120234908609A
:1057D0002148006825490968401A0549096847E0D9
:1057E00020000020E00000201C00002048000020D5
:1057F0004C000020440000205C00002060000020DD
:105800007C00002038000020640000207000002090
:1058100050000020800000203C0000206800002094
:10582000740000205400002084000020400000206C
:105830006C00002078000020580000202C00002080
:10584000B400002030000020B80000203400002008
:10585000BC000020D8000020D4000020EC00002074
:1058600024000020E40000208C000020880000209C
:1058700001EB4102C2EBC111B0EBC10F65DDFE4887
:105880000068012861D100F046FD00F0FDFCFB49F5
:1058900008600020F84908600120FDF7F7FFF8488C
:1058A0000068401CF64908600023F6481946026863
:1058B000F548006800F0F2FCF3480068012807D1C1
:1058C000F2480068F24909680844F049086006E0B7
:1058D000EE480068EE490968401AEC490860012367
:1058E000EC4800210268EC48006800F0D7FCEA4868
:1058F0000068012807D1E9480068E94909680844B7
:10590000E649086006E0E5480068E5490968401A8C
:10591000E24908600223E34800210268E248006887
:1059200000F0BCFCE0480068012807D1DF480068AF
:10593000DF4909680844DD49086006E0DB48006883
:10594000DB490968401AD9490860CD480068D9493F
:105950000968884214D10520FDF798FF0020D64938
:105960000860D6490860D6490860D6490860C4492D
:1059700008600120D4490860FAF750FDFDF7BBF933
:10598000CD48006840F2764188426ED10020CE4971
:105990000860C9480068FAF759FDC8480068FDF773
:1059A000CDF90120FDF78AFF012811D10320FDF771
:1059B000AEF9C2480068042805DAC0480068401CF7
:1059C000BE49086002E00320BC490860FAF726FDE2
:1059D0000020FDF773FF012811D10320FDF797F98F
:1059E000B6480068032805DDB4480068401EB34986
:1059F000086002E00420B1490860FAF70FFDAF48E3
:105A00000068032814D10420FDF758FF01280FD1A6
:105A1000AD48006860B90820A74908600320A7497D
:105A200008600120A8490860FAF7F8FCFDF763F95F
:105A3000A2480068042818D1FDF740FF012814D1BE
:105A4000A148006888B900209B4908609B4908600C
:105A50009B4908609B4908608949086001209A4970
:105A60000860FAF7DBFCFDF746F993480068022866
:105A70007ED10020944908608F480068FAF7E6FC60
:105A80008E480068FDF75AF90120FDF717FF01283D
:105A900010D1FDF73CF989480068032805DA8748EA
:105AA0000068401C8549086002E0012083490860C5
:105AB000FAF7B4FC0020FDF701FF012810D1FDF733
:105AC00026F97E480068012805DD7C480068401EF4
:105AD0007A49086002E0032078490860FAF79EFCE2
