:020000040800F2
:10000000C0040020450100085920000829190008F3
:10001000552000088D010008F123000800000000B1
:10002000000000000000000000000000792200082D
:100030009101000800000000D92000088D2300086D
:100040005F0100085F0100085F010008C12100088E
:100050005F0100085F0100085F0100085F01000800
:100060005F0100085F0100085F0100085F010008F0
:100070005F0100085F0100085F0100085F010008E0
:100080005F0100085F0100085F0100085F010008D0
:100090005F0100085F0100085F0100085F010008C0
:1000A0005F0100085F0100085F0100085F010008B0
:1000B0005F0100085F0100085F0100085F010008A0
:1000C0005F0100085F0100085F0100085F01000890
:1000D0005F0100085F0100085F0100085F01000880
:1000E0005F010008592100085F0100085F01000856
:1000F0005F0100085F0100085F0100085F01000860
:100100005F0100085F0100085F0100085F0100084F
:100110005F0100085F0100085F0100085F0100083F
:100120005F0100085F0100085F0100085F0100082F
:10013000DFF80CD000F018F8004800478D250008C3
:10014000C00400200648804706480047FEE7FEE757
:10015000FEE7FEE7FEE7FEE7FEE7FEE7FEE7FEE777
:100160009123000831010008064C074D06E0E068C5
:1001700040F0010394E8070098471034AC42F6D3EE
:10018000FFF7DAFF783400089834000800BFFEE774
:10019000704701B502E00098401E009000980028CA
:1001A000F9D108BD07E0022100E000BF0A1EA1F15D
:1001B0000101FAD100BF011EA0F10100F3D1704787
:1001C00010B50446082C7DD00CDC082C81F04B8245
:1001D000DFE814F018002E001F091E091E09430055
:1001E0004001E5020B2C01F0118005DC092C6AD0DE
:1001F0000A2C41F03882FCE30C2C01F02381582CAE
:10020000F7D1F7E3F0A20A21142001F073FCF2A267
:100210001E21142001F06EFCF2A23221142001F004
:1002200069FCF3A24621142001F064FC01F01BBA22
:10023000E5A20A21084601F05DFCF0A20A21084669
:1002400001F058FCF2A20A21084601F053FCF7A283
:100250000A21084601F04EFCE8E7F6A20A2108460A
:1002600001F048FCFEA20A21084601F043FCFE48CA
:1002700000684FF47A7190FBF1F00A2190FBF1F2E3
:1002800001FB12003030F9490870F748006864211A
:1002900090FBF1F00A2190FBF1F201FB12003030EB
:1002A000F3490870F04800680A2190FBF1F090FBD8
:1002B000F1F201FB12003030EE490870EA480068A4
:1002C0000A2101E019E3FDE390FBF1F201FB1200CA
:1002D0003030E9490870E54802781421322001F0F5
:1002E000D7FBE348027814213C2001F0D1FBE14820
:1002F00002781421462001F0CBFBDF48027814215C
:10030000502001F0C5FBDDA20A21084601F0F2FBF6
:10031000DC4800684FF47A7190FBF1F00A2190FB01
:10032000F1F201FB12003030D7490870D54800685F
:10033000642190FBF1F00A2190FBF1F201FB120025
:100340003030D2490870CF4800680A2190FBF1F0A4
:1003500090FBF1F201FB12003030CD490870C94822
:1003600000680A2190FBF1F201FB12003030C9490C
:100370000870C54802781421322001F089FBC34877
:10038000027814213C2001F083FBC148027814213B
:10039000462001F07DFBBF4802781421502001F077
:1003A00077FBBDA20A21084601F0A4FBBC48006807
:1003B0004FF47A7190FBF1F00A2190FBF1F201FB0E
:1003C00012003030B7490870B5480068642190FBCE
:1003D000F1F00A2190FBF1F201FB12003030B2493A
:1003E0000870AF4800680A2190FBF1F090FBF1F231
:1003F00001FB12003030AD490870A94800680A219D
:1004000090FBF1F201FB12003030A9490870A548B9
:1004100002781421322001F03BFBA348027814211A
:100420003C2001F035FBA14802781421462001F060
:100430002FFB9F4802781421502001F029FB9DA238
:100440000A21084601F056FB78A20A21084601F06D
:1004500051FBEBE698A20A21084601F04BFB80A273
:100460000A21084601F046FB9F4800684FF47A7164
:1004700090FBF1F00A2190FBF1F201FB1200303009
:100480009A49087098480068642190FBF1F00A21AD
:1004900090FBF1F201FB1200303095490870924850
:1004A00000680A2190FBF1F090FBF1F201FB1200D1
:1004B0003030904908708C4800680A2190FBF1F2B6
:1004C00001FB120030308C490870884802781421F2
:1004D000322001F0DDFA8648027814213C2001F038
:1004E000D7FA844802781421462001F0D1FA8248D4
:1004F00002781421502001F0CBFA60A20A210846AC
:1005000001F0F8FA7D4800684FF47A7190FBF1F041
:100510000A2190FBF1F201FB12003030784908709B
:1005200076480068642190FBF1F00A2190FBF1F21B
:1005300001FB1200303073490870704800680A21CE
:1005400090FBF1F090FBF1F201FB120030306E49AC
:1005500008706A4800680A2190FBF1F201FB120062
:1005600030306A490870664802781421322001F060
:100570008FFA6448027814213C2001F089FA62481D
:1005800002781421462001F083FA60480278142191
:10059000502001F07DFA40A20A21084601F0AAFA93
:1005A0005B4800684FF47A7190FBF1F00A2190FBF0
:1005B000F1F201FB120030305649087054480068CF
:1005C000642190FBF1F0A7E054696D65204C6170E7
:1005D0007365204D6F646500566964656F204D6FCB
:1005E000646500004D616E75616C204D6F6465003F
:1005F00053657474696E677300000000496E74651A
:1006000072616374697665204D6F64650000000057
:10061000496E70757420506172616D657465727396
:10062000204D616E75616C6C7900000052657475C7
:10063000726E0000506C6561736520736C65772085
:100640007468652063616D65726120746F207468E1
:100650006520454E4420706F736974696F6E0000A9
:10066000536C6964653A0000280000208400002073
:1006700085000020860000208700002050616E3A2F
:10068000000000002C0000208800002089000020CD
:100690008A0000208B00002054696C743A0000002E
:1006A000300000208C0000208D0000208E000020F3
:1006B0008F00002053657400506C65617365207372
:1006C0006C6577207468652063616D657261207464
:1006D0006F2074686520535441525420706F7369C1
:1006E00074696F6E2000000034000020900000202C
:1006F000910000209200002093000020380000208C
:100700009400002095000020960000209700002013
:100710003C000020980000200A2190FBF1F201FB30
:1007200012003030FE490870FE4800680A2190FB34
:10073000F1F090FBF1F201FB12003030FA49087041
:10074000F84800680A2190FBF1F201FB12003030FA
:10075000F6490870F64802781421322001F098F921
:10076000EF48027814213C2001F092F9EE4802781B
:100770001421462001F08CF9EC4802781421502015
:1007800001F086F9AFF2D4020A21084601F0B2F96D
:10079000AFF268120A21084601F0ACF946E5E5A27D
:1007A0000A21084601F0A6F9ECA20A21084601F048
:1007B000A1F9EE4800684FF47A7190FBF1F00A213C
:1007C00090FBF1F201FB12003030E9490870E74874
:1007D0000068642190FBF1F00A2190FBF1F201FB2B
:1007E00012003030E3490870E04800680A2190FBAD
:1007F000F1F090FBF1F201FB12003030DE4908709D
:10080000DA4800680A2190FBF1F201FB1200303057
:10081000DA490870D64802781421322001F038F9FC
:10082000D448027814213C2001F032F9D2480278F1
:100830001421462001F02CF9D048027814215020D0
:1008400001F026F9CEA20A21084601F053F9CF485B
:1008500000684FF47A7190FBF1F00A2190FBF1F2FD
:1008600001FB12003030CA490870C8480068642192
:1008700090FBF1F00A2190FBF1F201FB1200303005
:10088000C4490870C14800680A2190FBF1F090FB50
:10089000F1F201FB12003030BF490870BB4800681C
:1008A0000A2190FBF1F201FB12003030BB490870C5
:1008B000B74802781421322001F0EAF8B5480278EE
:1008C00014213C2001F0E4F8B348027814214620BA
:1008D00001F0DEF8B14802781421502001F0D8F878
:1008E000AFF230220A21084601F004F9AFF2C42227
:1008F0000A21084601F0FEF898E4A9A20A21084658
:1009000001F0F8F8ADA20A21084601F0F3F8AF486B
:1009100000684FF47A7190FBF1F00A2190FBF1F23C
:1009200001FB12003030AA490870A8480068642111
:1009300090FBF1F00A2190FBF1F201FB1200303044
:10094000A4490870A14800680A2190FBF1F090FBCF
:10095000F1F201FB120030309F4908709B4800689B
:100960000A2190FBF1F201FB120030309B49087024
:10097000974802781421322001F08AF895480278CD
:1009800014213C2001F084F8934802781421462079
:1009900001F07EF8914802781421502001F078F897
:1009A0008FA20A21084601F0A5F877A20A2108467D
:1009B00001F0A0F874A20A21084601F09BF88B48C8
:1009C00000683C2190FBF1F090FBF1F00A2190FBD4
:1009D000F1F090FBF1F201FB120030308449087015
:1009E000824800683C2190FBF1F090FBF1F00A2175
:1009F00001E09EE278E090FBF1F201FB1200303062
:100A00007C490870794800683C2190FBF1F07A49F4
:100A1000086004E0784800683C3877490860764808
:100A200000683C28F6DA744800680A2190FBF1F06F
:100A300090FBF1F201FB12003030704908706E48F3
:100A400000680A2190FBF1F201FB120030306C4982
:100A5000087004E0654800683C38644908606348F1
:100A600000683C28F6DA614800680A2190FBF1F042
:100A700090FBF1F201FB12003030624908705B48D4
:100A800000680A2190FBF1F201FB120030305D4951
:100A90000870574802781421322000F0F9FF5548B9
:100AA000027814213C2000F0F3FF5448027814210E
:100AB000462000F0EDFF534802781421502000F04A
:100AC000E7FF00E085E1504802781421502000F053
:100AD000DFFF4EA20A21084601F00CF84DA20A21C0
:100AE000084601F007F8B4E42DA20A21084601F0F7
:100AF00001F832A20A21084600F0FCFF33480068E2
:100B00004FF47A7190FBF1F00A2190FBF1F201FBB6
:100B1000120030302E4908702C48006864217DE0B6
:100B2000990000203C0000209A0000209B0000203B
:100B300098000020506C6561736520656E74657265
:100B40002074686520666F6C6C6F77696E672070C3
:100B50006172616D6574657273000000546F746139
:100B60006C2046616D65733A000000004000002073
:100B70009C0000209D0000209E0000209F0000207F
:100B8000496E74657276616C3A0000004400002082
:100B9000A0000020A1000020A2000020A30000204F
:100BA00054616B696E672054696D65204C61707388
:100BB000652E2E2E2E2E2E200000000046616D6523
:100BC000732054616B656E3A20000000B000002075
:100BD000A4000020A5000020A6000020A7000020FF
:100BE00054696D65204C6566743A0000B8000020B9
:100BF000A8000020A9000020B4000020AA000020C6
:100C0000AB000020AC000020AD00002050617573E7
:100C10006500000053746F700000000090FBF1F05D
:100C20000A2190FBF1F201FB12003030FE490870FE
:100C3000FE4800680A2190FBF1F090FBF1F201FB05
:100C400012003030FA490870F84800680A2190FB19
:100C5000F1F201FB12003030F6490870F6480278D4
:100C60001421322000F014FFEF48027814213C20B8
:100C700000F00EFFEE4802781421462000F008FF35
:100C8000EC4802781421502000F002FFAFF2B002CD
:100C90000A21084600F02EFFAFF214120A2108467E
:100CA00000F028FFAFF220120A21084600F022FFD0
:100CB000E24800683C2190FBF1F090FBF1F00A2142
:100CC00090FBF1F090FBF1F201FB12003030DC49B7
:100CD0000870DA4800683C2190FBF1F090FBF1F0DD
:100CE0000A2190FBF1F201FB12003030D549087067
:100CF000D24800683C2190FBF1F0D349086004E041
:100D0000D14800683C38D0490860CF4800683C288A
:100D1000F6DACD4800680A2190FBF1F090FBF1F281
:100D200001FB12003030C9490870C74800680A2129
:100D300090FBF1F201FB12003030C549087004E06D
:100D4000BE4800683C38BD490860BC4800683C2883
:100D5000F6DABA4800680A2190FBF1F090FBF1F254
:100D600001FB12003030BB490870B44800680A210A
:100D700090FBF1F201FB12003030B6490870B04828
:100D800002781421322000F083FEAE48027814214C
:100D90003C2000F07DFEAD4802781421462000F092
:100DA00077FEAC4802781421502000F071FEAA486A
:100DB00002781421502000F06BFEA8A20A210846F8
:100DC00000F098FEAFF2B4120A21084600F092FE3D
:100DD000E4E4AFF2A0220A21084600F08BFEAFF255
:100DE00084220A21084600F085FE9E4800684FF4E0
:100DF0007A7190FBF1F00A2190FBF1F201FB1200F5
:100E000030309949087097480068642190FBF1F0F0
:100E10000A2190FBF1F201FB120030309349087077
:100E2000904800680A2190FBF1F090FBF1F201FB81
:100E3000120030308E4908708A4800680A2190FB01
:100E4000F1F201FB120030308A49087086480278BE
:100E50001421322000F01CFE8448027814213C202A
:100E600000F016FE824802781421462000F010FEA1
:100E7000804802781421502000F00AFEAFF20032C0
:100E80000A21084600F036FE7B4800684FF47A716C
:100E900090FBF1F00A2190FBF1F201FB12003030DF
:100EA0007649087074480068642190FBF1F00A21CB
:100EB00090FBF1F201FB12003030714908706E486E
:100EC00000680A2190FBF1F090FBF1F201FB1200A7
:100ED00030306C490870684800680A2190FBF1F2D4
:100EE00001FB120030306849087064480278142110
:100EF000322000F0CDFD6248027814213C2000F041
:100F0000C7FD604802781421462000F0C1FD5E480C
:100F100002781421502000F0BBFD5CA20A21084693
:100F200000F0E8FDAFF6FC020A21084600F0E2FD01
:100F300099E359A20A21084600F0DCFD60A20A21CB
:100F4000084600F0D7FD634800684FF47A7190FBC3
:100F5000F1F00A2190FBF1F201FB120030305E4902
:100F600008705C480068642190FBF1F00A2190FB56
:100F7000F1F201FB12003030584908705548006802
:100F80000A2190FBF1F090FBF1F201FB12003030EE
:100F9000534908704F4800680A2190FBF1F201FBA9
:100FA000120030304F4908704B480278142132202B
:100FB00000F06EFD4948027814213C2000F068FDE5
:100FC000474802781421462000F062FD4548027827
:100FD0001421502000F05CFD43A20A21084600F0D5
:100FE00089FD464800684FF47A7190FBF1F00A21C0
:100FF00090FBF1F201FB12003030414908703F488C
:101000000068642190FBF1F00A2190FBF1F201FBF2
:10101000120030303B490870384800680A2190FBC4
:10102000F1F090FBF1F26FE0A5000020B00000208D
:10103000A6000020A7000020A4000020B800002087
:10104000A8000020A9000020B4000020AA00002071
:10105000AB000020AC000020AD000020526573758D
:101060006D650000400000209C0000209D000020D5
:101070009E0000209F00002044000020A0000020CF
:10108000A1000020A2000020A3000020436F6E7486
:10109000696E756500000000506C656173652065C0
:1010A0006E7465722074686520666F6C6C6F77690A
:1010B0006E6720706172616D6574657273200000E7
:1010C000537461727420506F736974696F6E5F58E6
:1010D0003A00000034000020900000209100002021
:1010E0009200002093000020537461727420506FAE
:1010F000736974696F6E5F593A0000003800002010
:10110000940000209500002001FB12003030FE49C1
:101110000870FE4800680A2190FBF1F201FB120002
:101120003030FB490870FB4802781421322000F06F
:10113000AFFCF948027814213C2000F0A9FCF248E9
:1011400002781421462000F0A3FCF1480278142113
:10115000502000F09DFCF1A20A21084600F0CAFCD4
:10116000F34800684FF47A7190FBF1F00A2190FB8C
:10117000F1F201FB12003030EE490870EC480068D3
:10118000642190FBF1F00A2190FBF1F201FB1200C7
:101190003030E9490870E64800680A2190FBF1F018
:1011A00090FBF1F201FB12003030E4490870E04896
:1011B00000680A2190FBF1F201FB12003030E04997
:1011C0000870DC4802781421322000F061FCDA4813
:1011D000027814213C2000F05BFCD84802781421EE
:1011E000462000F055FCD64802781421502000F02B
:1011F0004FFCAFF268120A21084600F07BFCAFF604
:10120000D4320A21084600F075FC2CE2AFF2DC6211
:101210000A21084600F06EFCCAA20A21084600F026
:1012200069FCCC4800684FF47A7190FBF1F00A2118
:1012300090FBF1F201FB12003030C7490870C5483D
:101240000068642190FBF1F00A2190FBF1F201FBB0
:1012500012003030C1490870BE4800680A2190FB76
:10126000F1F090FBF1F201FB12003030BC49087044
:10127000B84800680A2190FBF1F201FB12003030FF
:10128000B8490870B44802781421322000F000FCFC
:10129000B248027814213C2000F0FAFBB0480278F2
:1012A0001421462000F0F4FBAE48027814215020AF
:1012B00000F0EEFBACA20A21084600F01BFCAE4891
:1012C00000684FF47A7190FBF1F00A2190FBF1F283
:1012D00001FB12003030A9490870A748006864215A
:1012E00090FBF1F00A2190FBF1F201FB120030308B
:1012F000A3490870A04800680A2190FBF1F090FB18
:10130000F1F201FB120030309E4908709A480068E3
:101310000A2190FBF1F201FB120030309A4908706B
:10132000964802781421322000F0B2FB94480278EB
:1013300014213C2000F0ACFB924802781421462096
:1013400000F0A6FB904802781421502000F0A0FB8A
:101350008EA20A21084600F0CDFB904800684FF4A9
:101360007A7190FBF1F00A2190FBF1F201FB12007F
:1013700030308B49087089480068642190FBF1F097
:101380000A2190FBF1F201FB120030308549087010
:10139000824800680A2190FBF1F090FBF1F201FB1A
:1013A00012003030804908707C4800680A2190FBA8
:1013B000F1F201FB120030307C4908707848027865
:1013C0001421322000F064FB7648027814213C207E
:1013D00000F05EFB744802781421462000F058FBB0
:1013E000724802781421502000F052FBAFF6280218
:1013F0000A21084600F07EFBAFF270320A2108464F
:1014000000F078FBAFF6DC520A21084600F072FBD0
:1014100029E1AFF63C620A21084600F06BFBAFF60B
:1014200024620A21084600F065FBAFF61C620A211F
:10143000084600F05FFBAFF60C620A21084600F098
:1014400059FB00BFAFF614120A21084600F052FB08
:10145000AFF6F8020A21084600F04CFB5448006839
:101460004FF47A7190FBF1F00A2190FBF1F201FB4D
:10147000120030304F4908704D480068642190FBDD
:10148000F1F00A2190FBF1F201FB120030304A49E1
:101490000870474800680A2190FBF1F090FBF1F2D8
:1014A00001FB1200303045490870414800680A21AC
:1014B00090FBF1F201FB12003030414908703D48C9
:1014C00002781421322000F0E3FA3B48027814211C
:1014D0003C2000F0DDFA394802781421462000F063
:1014E000D7FA374802781421502000F0D1FAAFF62D
:1014F00070120A21084600F0FDFA324800684FF4E5
:101500007A7190FBF1F05FE0960000203800002037
:101510009700002094000020950000205374617211
:101520007420506F736974696F6E5F5A3A000000DF
:101530003C00002098000020990000209A00002024
:101540009B000020454E4420506F736974696F6E94
:101550005F583A0028000020840000208500002009
:101560008600002087000020454E4420506F73699C
:1015700074696F6E5F593A002C00002088000020CB
:10158000890000208A0000208B000020454E442066
:10159000506F736974696F6E5F5A3A0030000020B3
:1015A0008C0000208D0000208E0000208F00002085
:1015B000400000209C0000209D0000209E00002094
:1015C0009F000020440000200A2190FBF1F201FB63
:1015D000120030302549087025480068642190FBCE
:1015E000F1F00A2190FBF1F201FB120030302149A9
:1015F00008701F4800680A2190FBF1F090FBF1F29F
:1016000001FB120030301C490870194800680A219B
:1016100090FBF1F201FB12003030184908701348BA
:1016200002781421322000F033FA12480278142193
:101630003C2000F02DFA104802781421462000F0DA
:1016400027FA0E4802781421502000F021FAAFF258
:10165000C4520A21084600F04DFA094A0A210846F8
:1016600000F048FA00BF00BF10BD0000A00000203D
:1016700044000020A1000020A2000020A3000020C0
:101680002C06000851B18200A2F1C042126842F05B
:1016900001038200A2F1C042136009E08200A2F1BE
:1016A000C0421268034B1A408300A3F1C0431A6082
:1016B00070470000FEFF0F00D0E901121143C2681D
:1016C0001143026911434269114382691143C2699E
:1016D0001143026A1143426A1143826A1143C26A8A
:1016E0001143026B114302689200A2F1C0421160E3
:1016F000816808290BD101688900A1F1C0410968FE
:1017000041F0400201688900A1F1C0410A60416BCB
:101710000968426B526841EA0211426B926841EAE1
:101720000221426B928941EA0241426B128A41EAEC
:101730000251426B127D41EA0261426B9269114390
:101740000268521C9200A2F1C0421160C16AB1F558
:10175000804F1BD1816B0968826B526841EA02118C
:10176000826B926841EA0221826B128A41EA02513D
:10177000826B127D41EA0261826B926911430268B9
:101780009200A2F1C042C2F8041107E06FF070426B
:1017900001688900A1F1C041C1F80421704700002F
:1017A00008B50121042000F0B9FC4FF4FE70ADF83B
:1017B000000010208DF8030003208DF80200694618
:1017C0000B4800F019F84FF47F7009491031086098
:1017D0000121082000F0A2FC40F2E330ADF8000047
:1017E00028208DF803006946024800F005F808BD7E
:1017F00000080140000C01402DE9F041024600259F
:101800000026002000230024002791F803C00CF0DC
:101810000F0591F803C00CF0100CBCF1000F03D0C1
:1018200091F802C04CEA050591F800C0BCF1000F28
:1018300031D0146800202BE04FF0010C0CFA00F3BB
:10184000B1F800C00CEA03069E4220D183004FF09D
:101850000F0C0CFA03F7BC4305FA03FC4CEA040432
:1018600091F803C0BCF1280F06D14FF0010C0CFA1F
:1018700000FCC2F814C00AE091F803C0BCF1480FA4
:1018800005D14FF0010C0CFA00FCC2F810C0401C4E
:101890000828D1D31460B1F800C0BCF1FF0F34DDCB
:1018A000546800202EE000F1080C4FF0010808FAFF
:1018B0000CF3B1F800C00CEA03069E4221D183006C
:1018C0004FF00F0C0CFA03F7BC4305FA03FC4CEA8B
:1018D000040491F803C0BCF1280F05D100F1080CF5
:1018E00008FA0CF8C2F8148091F803C0BCF1480F54
:1018F00007D100F1080C4FF0010808FA0CF8C2F803
:101900001080401C0828CED35460BDE8F081024608
:10191000002093680B400BB1012000E000207047CD
:10192000416170470161704700BFFEE710B5044692
:101930002CB14FF480510548FFF7F2FF04E04FF45B
:1019400080510248FFF7EEFF10BD00000014014077
:101950002DE9F04106460F4614461D46DDF8188075
:101960002B4622463946304600F0B1F904FB05F01B
:10197000414600F012F9BDE8F08110B50446072C8D
:1019800028D2DFE804F004090E13181D22000F21ED
:10199000052000F021F81DE02321052000F01CF8AF
:1019A00018E03721052000F017F813E04B2105203F
:1019B00000F012F80EE05F21052000F00DF809E0BC
:1019C0007321052000F008F804E07D21052000F0D7
:1019D00003F800BF00BF10BD70B504460D46A9B2A4
:1019E000A0B205230A2200F072F90021642000F061
:1019F000D4F86A1C91B204F10A0290B203230122C6
:101A000000F065F90021122000F0C7F8AA1C91B27D
:101A100004F10B0290B201231A4600F058F900219C
:101A2000012000F0BAF86A1E91B204F1080290B2E7
:101A30000123022200F04BF90021122000F0ADF842
:101A4000AA1E91B204F1080290B201231A4600F0D6
:101A50003EF90021012000F0A0F86A1D91B204F1C6
:101A6000080290B20123022200F031F90021122075
:101A700000F093F8AA1D91B204F1080290B201237C
:101A80001A4600F024F90021012000F086F870BD0C
:101A90002DE9F047804689461546A5F1200000F063
:101AA000FF0A102308224946404600F010F92C2076
:101AB00000F06AFA002417E00D4800EB0A10065DFA
:101AC00000270DE006F0010018B11F2000F060FAB9
:101AD00003E04FF6FF7000F05BFA7610781CC7B297
:101AE000082FEFDB601CC4B2102CE5DBBDE8F087EB
:101AF000862E000870B505460E46144617E02846A7
:101B00000830F02803DD002506F1100086B23046CB
:101B10001030B0F5A07F01DD002500262278314687
:101B20002846FFF7B5FF641C05F1080085B2207850
:101B30000028E4D170BD00B597B00121080200F083
:101B4000CDFA022001900020029005200390002091
:101B50000490059006904FF0805007900020089068
:101B6000099008200A9010200B9000200C900E90F5
:101B70000F9010904FF4805011900020129013900D
:101B8000149001A81590169008A8FFF795FD012163
:101B90000020FFF777FD17B000BD70B504460D4675
:101BA00000262C2000F0F0F900BF03E0284600F0EA
:101BB000EFF9761CA642F9D370BD000008B50121EB
:101BC000084600F0ABFA0121602000F0A7FA0320DC
:101BD0008DF8020018208DF803004CF20370ADF868
:101BE000000069462C48FFF707FE4FF68070ADF8FD
:101BF000000069462948FFF7FFFD03208DF8020029
:101C000018208DF803001020ADF800006946224826
:101C1000FFF7F2FD2020ADF8000069461E48FFF7EF
:101C2000EBFD0121202000F079FA8020ADF80000C2
:101C300069461948FFF7E0FD0121202000F06EFA07
:101C40004FF40060ADF8000069461348FFF7D4FD7B
:101C500010208DF8030003208DF8020001214020A0
:101C600000F05CFA0220ADF8000069460B48FFF76F
:101C7000C3FD10208DF8030003208DF80200012120
:101C8000202000F04BFA4FF48050ADF80000694678
:101C90000148FFF7B1FD08BD0014014000180140E4
:101CA00008B5FFF78BFFFFF746FF0120FFF73EFE69
:101CB00000F056F900F03CF84FF6FF704FF4A073B7
:101CC000F022002100900846FFF742FE08BD2DE9F2
:101CD000F04104460D4616461F462A2000F054F9EE
:101CE000201200F055F9E0B200F052F9A119491E96
:101CF000C1F30F2000F04CF9A119491EC8B200F041
:101D000047F92B2000F040F9281200F041F9E8B221
:101D100000F03EF9E919491EC1F30F2000F038F92F
:101D2000E919491EC8B200F033F9BDE8F08100009E
:101D300010B5CF2000F028F9002000F029F981200B
:101D400000F026F9302000F023F9ED2000F01CF916
:101D5000642000F01DF9032000F01AF9122000F0B1
:101D600017F9812000F014F9E82000F00DF9852022
:101D700000F00EF9102000F00BF9782000F008F9BF
:101D8000CB2000F001F9392000F002F92C2000F0FE
:101D9000FFF8002000F0FCF8342000F0F9F80220F1
:101DA00000F0F6F8F72000F0EFF8202000F0F0F84F
:101DB000EA2000F0E9F8002000F0EAF8002000F046
:101DC000E7F8B12000F0E0F8002000F0E1F81B2077
:101DD00000F0DEF8B62000F0D7F80A2000F0D8F8BE
:101DE000A22000F0D5F8C02000F0CEF8352000F099
:101DF000CFF8C12000F0C8F8112000F0C9F8C520C4
:101E000000F0C2F8452000F0C3F8452000F0C0F80B
:101E1000C72000F0B9F8A22000F0BAF8F22000F0D4
:101E2000B3F8002000F0B4F8262000F0ADF801204F
:101E300000F0AEF8E02000F0A7F80F2000F0A8F8BE
:101E4000262000F0A5F8242000F0A2F80B2000F0D6
:101E50009FF80E2000F09CF8092000F099F854201B
:101E600000F096F8A82000F093F8462000F090F8D3
:101E70000C2000F08DF8172000F08AF8092000F0FF
:101E800087F80F2000F084F8072000F081F8002088
:101E900000F07EF8E12000F077F8002000F078F8FC
:101EA000192000F075F81B2000F072F8042000F0F3
:101EB0006FF8102000F06CF8072000F069F82A2075
:101EC00000F066F8472000F063F8392000F060F871
:101ED000032000F05DF8062000F05AF8062000F01C
:101EE00057F8302000F054F8382000F051F80F2057
:101EF00000F04EF8362000F047F8C82000F048F80F
:101F00002A2000F041F8002000F042F8002000F004
:101F10003FF8002000F03CF8EF2000F039F82B20CB
:101F200000F032F8002000F033F8002000F030F824
:101F3000012000F02DF83F2000F02AF83A2000F0B0
:101F400023F8552000F024F8112000F01DF8034874
:101F5000FEF71FF9292000F017F810BDFCBF0200A2
:101F600010B502210648FFF7DBFC0648FEF711F921
:101F700002210348FFF7D6FC0248FEF70AF910BD1C
:101F800000180140FCBF02004FF0C04108807047BC
:101F900001490880704700000000026008B5012177
:101FA0004FF0C05000F0AAF8012000F08FF84FF475
:101FB000407000F0C9F8012000F0C0F800F040F9CE
:101FC00000F048F900F0D6F83E2000F029F900F0C2
:101FD00037F9002000F016F900F032F94FF6FF70E3
:101FE0001B49088000F02CF94FF6FF701849091DB5
:101FF000088000F025F90121022000F0F3F81448D0
:102000001C38008800F0020011491C39088000F0DB
:1020100017F900F0B9F829208DF8000000208DF89C
:1020200001008DF8020001208DF80300684600F0E1
:1020300015F803208DF8000000208DF801008DF8C0
:10204000020001208DF80300684600F007F808BD83
:102050002028004000BFFEE77047000070B5002157
:1020600000230F22C47804B3154C246804F4E06400
:10207000C4F5E064210AC1F10403CA40447804FABB
:1020800003F184781440214309010E4C0678A155D0
:10209000047804F01F050124AC4005786D11AD00F3
:1020A00005F1E025C5F8004109E0047804F01F05BA
:1020B0000124AC40044D0678761145F8264070BDE9
:1020C0000CED00E000E400E080E100E0014908627E
:1020D0007047000000000E427047000029B1064A18
:1020E00052690243044B5A6104E0034A5269824335
:1020F000014B5A61704700000010024029B1064AA6
:10210000D2690243044BDA6104E0034AD269824394
:10211000014BDA61704700000010024029B1064A05
:1021200092690243044B9A6104E0034A9269824334
:10213000014B9A617047000000100240014908609D
:10214000704700003C0442420249096A0143014AC7
:10215000116270470010024010B5022000F002F832
:1021600010BD0000024909888143014A118070476F
:10217000042800400348008840F01000014908800E
:102180007047000004280040034800884FF6EF71B4
:10219000084001490880704704280040014600209B
:1021A000064A12880A40D0B2044A121F12880A4016
:1021B00012B108B1012000E000207047042800405F
:1021C00010B50220FFF7EAFF012808D10220FFF72F
:1021D000C9FF0348006810B101480068804710BD7E
:1021E0000000002029B1064A12880243044B1A80DD
:1021F00004E0034A12888243014B1A8070470000B2
:102200000028004000B50246FFF7B4FF100C034958
:102210000880091D0A80FFF7B7FF00BD182800409D
:1022200000B50246FFF7A6FFC2F30340034908804A
:10223000091D0A80FFF7A8FF00BD00000828004024
:1022400000BF0348008800F020000028F9D0704744
:1022500004280040074800884FF6F77108400549F8
:10226000088000BF0348008800F008000028F9D06B
:102270007047000004280040704710B500F002F8D5
:1022800010BD00000CB5002001900090334800689C
:1022900040F480303149086000BF3048006800F4E5
:1022A000003000900198401C0190009818B90198E6
:1022B000B0F5A06FF1D12948006800F4003010B1EA
:1022C0000120009001E0002000900098012843D1F7
:1022D0002348006840F01000214908600846006863
:1022E00020F0030008600846006840F00200086023
:1022F0001A484068194948600846406848600846DE
:10230000406840F4806048600846406820F47C10D3
:1023100048600846406840F4E81048600846006895
:1023200040F08070086000BF0C48006800F000704A
:102330000028F9D00948406820F0030007494860A8
:102340000846406840F00200486000BF034840680B
:1023500000F00C000828F9D10CBD0000001002406C
:102360000020024010B5044674B90121084600F06F
:10237000B9F81420FDF716FF0021012000F0B2F893
:102380001420FDF70FFF00BF00BF10BD7047000015
:1023900010B51348006840F0010011490860084674
:1023A0004068104908400E494860084600680E49D8
:1023B00008400B4908600846006820F48020086047
:1023C0000846406820F4FE0048604FF41F00886013
:1023D000FFF753FF4FF000600449086010BD000094
:1023E000001002400000FFF8FFFFF6FE08ED00E0DD
:1023F00000BFFEE702E008C8121F08C1002AFAD198
:1024000070477047002001E001C1121F002AFBD174
:102410007047000030B5044600250EE00848FDF77F
:10242000C1FE0121002000F05DF80548FDF7BAFE6D
:102430000021084600F056F86D1CA542EEDB30BDC9
:10244000A086010070B50546072D46D2DFE805F0ED
:10245000040D161F28313B0001212148FFF757FAD0
:1024600008B1002400E0012437E002211C48FFF7F6
:102470004EFA08B1002400E001242EE02021184883
:10248000FFF745FA08B1002400E0012425E04021CF
:102490001348FFF73CFA08B1002400E001241CE0D7
:1024A00080210F48FFF733FA08B1002400E001242F
:1024B00013E04FF480710A48FFF729FA08B10024AD
:1024C00000E0012409E04FF400710548FFF71FFA0E
:1024D00008B1002400E0012400BF00BF204670BD09
:1024E000000C014007284DD2DFE800F0040E18224E
:1024F0002C36400019B90422234B1A6003E0042251
:10250000214B1B1F1A603DE019B908221E4B1A60AF
:1025100003E008221C4B1B1F1A6033E019B910227C
:10252000194B1A6003E01022174B1B1F1A6029E099
:1025300019B92022144B1A6003E02022124B1B1FF2
:102540001A601FE019B940220F4B1A6003E04022C5
:102550000D4B1B1F1A6015E019B980220A4B1A6037
:1025600003E08022084B1B1F1A600BE021B94FF4D7
:102570008072054B1A6004E04FF48072024B1B1FFF
:102580001A6000BF00BF70471408014008B5FFF78C
:1025900087FBFFF705F9FFF701FD0220FFF73AFF80
:1025A000FEA20A210846FFF7A5FA4FF6FF704FF486
:1025B000A073F022002100900846FFF7C9F900F04F
:1025C00025FCFC4908600020FB490860FB490860C5
:1025D000EAE3F948006800287ED100F017FCF849CA
:1025E000086008460068F3490968401A42F2107111
:1025F00088420DDD4FF6FF704FF4A073F0220021EA
:1026000000900846FFF7A4F900F000FCE9490860D3
:10261000E9480068FDF7D4FDE8480068FFF7ADF928
:102620000020FFF70FFF01280FD1E44800680328BE
:1026300005DAE2480068401CE049086002E000203A
:10264000DE490860DF48FDF7ADFD0120FFF7FAFE27
:1026500001280FD1D9480068002805DDD748006857
:10266000401ED649086002E00320D4490860D548DE
:10267000FDF798FDD148006850B90420FFF7E2FE4D
:10268000012805D1CC490860CC490860CE490860D2
:10269000CA48006801280AD10420FFF7D3FE0128A8
:1026A00005D10220C44908600120C4490860C3481C
:1026B000006802280AD10420FFF7C4FE012805D1D2
:1026C0000320BD4908600120BC490860BB48006880
:1026D00003280CD1042000E009E0FFF7B3FE012835
:1026E00005D10420B44908600120B4490860B2480B
:1026F0000068012859D1B0480068FDF761FDAF4876
:102700000068FFF73AF90020FFF79CFE01280CD182
:10271000AA480068032805DAA8480068401CA749B1
:10272000086002E00120A54908600120FFF78AFE49
:1027300001280CD1A1480068012805DD9F480068E8
:10274000401E9E49086002E003209C4908609B48A7
:10275000006801280AD10420FFF774FE012805D182
:102760000520954908600120944908609348006855
:1027700002280AD10420FFF765FE012805D10920AF
:102780008D49086001208D4908608C480068032845
:102790000BD10420FFF756FE012806D10020864900
:1027A00008608649086088490860834800680528F1
:1027B0007ED181480068FDF703FD80480068FFF77F
:1027C000DCF80020FFF73EFE01280CD17B480068B2
:1027D000052805DA79480068401C7849086002E05D
:1027E0000120764908600120FFF72CFE01280CD15A
:1027F00072480068012805DD70480068401E6F4976
:10280000086002E005206D4908606C4800680128F6
:1028100009D10220FFF716FE012804D16B48006899
:10282000401E6A49086065480068012809D10320F4
:10283000FFF708FE012804D164480068401C634982
:1028400008605E480068022808D1FFF7FBFD0128F8
:1028500004D15F480068401E5D4908605748006821
:10286000022809D10320FFF7EDFD012804D15848C3
:102870000068401C5649086050480068032809D188
:102880000220FFF7DFFD012804D152480068401EF6
:102890005049086049480068032808D1FFF7D2FD75
:1028A000012804D14B480068401C4A49086000E0F8
:1028B0001AE042480068042809D1FFF7C3FD012847
:1028C00005D107203C49086001203C4908603B488D
:1028D0000068052808D10420FFF7B4FD012803D1C2
:1028E000354908603549086033480068062877D1C3
:1028F00031480068FDF764FC30480068FFF73DF898
:102900000020FFF79FFD01280CD12C480068052806
:1029100005DA2A480068401C2849086002E00120C6
:10292000264908600120FFF78DFD01280CD12348BE
:102930000068012805DD21480068401E1F49086025
:1029400002E005201D4908601C480068012809D1E3
:102950000220FFF777FD012804D11F480068401EC0
:102960001D49086015480068012809D10320FFF7B8
:1029700069FD012804D118480068401C1649086008
:102980000E480068022808D1FFF75CFD012804D139
:1029900012480068401E1149086022E0496E6974BF
:1029A00069616C697A65696E67202E2E2E202E2E45
:1029B0002E0000007C0000201C00002020000020D1
:1029C0008000002020A10700240000202800002013
:1029D0002C000020300000203400002038000020AF
:1029E00049E0F2480068022809D10320FFF72AFDD8
:1029F000012804D1EE480068401CED490860EB480E
:102A00000068032809D10220FFF71CFD012804D12A
:102A1000E8480068401EE7490860E4480068032869
:102A200008D1FFF70FFD012804D1E2480068401CDF
:102A3000E0490860DD48006804280DD1FFF702FD79
:102A4000012809D1DC480068012805D10720DB49AD
:102A500008600120D5490860D448006805280AD1DB
:102A60000420FFF7EFFC012805D10520D3490860B9
:102A70000120CE490860D148006807287ED1CF48A0
:102A80000068FDF79DFBC9480068FEF776FF00204F
:102A9000FFF7D8FC01280CD1C4480068052805DAE6
:102AA000C2480068401CC149086002E00120BF49DB
:102AB00008600120FFF7C6FC01280CD1BB48006864
:102AC000012805DDB9480068401EB849086002E0E9
:102AD0000520B6490860B5480068012809D10220E0
:102AE000FFF7B0FC012804D1B5480068401EB44986
:102AF0000860AE480068012809D10320FFF7A2FC56
:102B0000012804D1AE480068401CAD490860A748C0
:102B10000068022808D1FFF795FC012804D1A948D4
:102B20000068401EA7490860A0480068022809D133
:102B30000320FFF787FC012804D1A2480068401C4D
:102B4000A049086099480068032809D10220FFF7CE
:102B500079FC012804D19C480068401E9A4908600D
:102B600092480068032808D1FFF76CFC012804D1C3
:102B700095480068401C9449086000E08AE08B4852
:102B80000068042877D1FFF75DFC012873D1082085
:102B90008A49086003208549086089480068894996
:102BA000096848438949086089490968894A12685F
:102BB000881A002801DB014600E04142864A116084
:102BC000104600687E49096890FBF1F0834908606F
:102BD0007F4800687F490968884203DD01208049F9
:102BE000086002E000207E4908607E490968704A5A
:102BF0001268881A002801DB014600E041427A4A47
:102C00001160104600686E49096890FBF1F0774941
:102C100008607448006866490968884203DD01203D
:102C20007349086002E00020714908607149096831
:102C3000604A1268881A002801DB014600E0414220
:102C40006D4A1160104600685D49096890FBF1F01B
:102C50006A4908606748006856490968884204DD87
:102C600001206749086003E005E00020644908602E
:102C70000020644908604D48006805280AD10420F6
:102C8000FFF7E0FB012805D106204C490860012030
:102C9000464908604948006808287DD147480068CF
:102CA000FDF78EFA41480068FEF767FE0020FFF747
:102CB000C9FB01280CD13D480068042805DA3B48CF
:102CC0000068401C3949086002E003203749086069
:102CD0000120FFF7B7FB01280CD134480068032816
:102CE00005DD32480068401E3049086002E00420DB
:102CF0002E4908602D48006803280AD10420FFF7F8
:102D0000A1FB012805D158202C4908600320274940
:102D100008602648006804280AD1FFF793FB0128C1
:102D200006D1002025490860204908602249086032
:102D300000F06CF833490968401A3349B0FBF1F0F0
:102D4000214909681F4A12681144884204D900F0D9
:102D500090F800202B49086000F058F829490968CC
:102D6000401A2949B0FBF1F01749096888421BD97C
:102D700000F07FF8002319481946026818480068D7
:102D800000F04EF801231948002102681848006835
:102D900000F046F8022300E006E01848002102682F
:102DA0001748006800F03CF813E400002000002001
:102DB000380000203C000020240000201C000020DF
:102DC000400000204400002048000020580000205F
:102DD00028000020340000205C0000206800002053
:102DE0004C0000202C000020600000206C0000201F
:102DF00050000020300000206400002070000020FF
:102E0000540000207400002040420F000348008856
:102E10000249091F098800EB014070471C28004047
:102E20002DE9F04306460F469046994617B1012F0B
:102E300006D102E041F2883402E042F2107400BF91
:102E400000BF012E04D101210220FFF74BFB03E05C
:102E500000210220FFF746FB002506E04846FFF769
:102E600081FA2046FDF79EF96D1C4545F6DBBDE86D
:102E7000F08300B501210620FFF734FB0021062076
:102E8000FFF730FB00BD0000000000000000000064
:102E9000000000000000000000183C3C3C18180036
:102EA00018180000000000000066666600000000C0
:102EB0000000000000000000006C6CFE6C6C6CFEFA
:102EC0006C6C000000000018183C66060C1830609E
:102ED000663C1818000000000E1B5B6E30180C7664
:102EE000DAD8700000000000001C36361C06F666BA
:102EF00066DC000000000000001818180000000048
:102F00000000000000000000003018180C0C0C0C31
:102F10000C18183000000000000C18183030303049
:102F20003018180C000000000000006C38FE386CEF
:102F3000000000000000000000000018187E1818B3
:102F40000000000000000000000000000000000081
:102F5000383830180000000000000000007E00003B
:102F60000000000000000000000000000000000061
:102F70003838000000000000006060303018180C85
:102F80000C060600000000000078CCECECCCDCDC89
:102F9000CC780000000000000030383E3030303087
:102FA0003030000000000000003C66666030180C05
:102FB000067E000000000000003C66666038606627
:102FC000663C000000000000000C0C6C6C6C66FE9F
:102FD0006060000000000000007E0606063E6060A3
:102FE000301E0000000000000038180C3E666666C7
:102FF000663C000000000000007E60303018180CB5
:103000000C0C000000000000003C66666E3C76661A
:10301000663C000000000000003C666666667C308E
:10302000181C0000000000000000003838000000FC
:1030300038380000000000000000003838000000B0
:103040003838301800000000006030180C060C18EA
:103050003060000000000000000000007E007E00E4
:10306000000000000000000000060C18306030185E
:103070000C06000000000000003C666630181800D6
:103080001818000000000000007EC3C3F3DBDBF370
:1030900003FE00000000000000183C6666667E66C5
:1030A0006666000000000000003E6666663E6666DA
:1030B000663E000000000000003C666606060666EC
:1030C000663C000000000000001E3666666666660C
:1030D000361E000000000000007E0606063E0606C2
:1030E000067E000000000000007E0606063E060682
:1030F0000606000000000000003C666606067666D4
:10310000667C00000000000000666666667E6666FB
:103110006666000000000000003C18181818181817
:10312000183C0000000000000060606060606066A5
:10313000663C00000000000000666636361E36362B
:103140006666000000000000000606060606060689
:10315000067E00000000000000C6C6EED6D6D6C629
:10316000C6C600000000000000C6C6CEDEF6E6C6F9
:10317000C6C6000000000000003C66666666666623
:10318000663C000000000000003E6666663E0606E3
:103190000606000000000000003C66666666666683
:1031A000663C306000000000003E6666663E3666A3
:1031B0006666000000000000003C66060C183060E7
:1031C000663C000000000000007E1818181818184F
:1031D00018180000000000000066666666666666F5
:1031E000663C000000000000006666666666666673
:1031F0003C1800000000000000C6C6C6D6D6D66C3B
:103200006C6C0000000000000066662C1818346624
:10321000666600000000000000666666663C1818DE
:103220001818000000000000007E606030180C06D6
:10323000067E000000000000003C0C0C0C0C0C0C86
:103240000C0C0C0C3C0000000006060C0C1818308E
:103250003060600000000000003C30303030303022
:10326000303030303C0000183C66000000000000A8
:10327000000000000000000000000000000000004E
:1032800000000000FF00001C1830000000000000DB
:1032900000000000000000000000003C60607C6650
:1032A000667C0000000000000006063E666666665A
:1032B000663E0000000000000000003C66060606B6
:1032C000663C0000000000000060607C6666666688
:1032D000667C0000000000000000003C66667E0680
:1032E000063C00000000000000780C0C0C7E0C0C6A
:1032F0000C0C0000000000000000007C66666666A2
:10330000667C60603E0000000006063E66666666FB
:1033100066660000000000001818001E1818181833
:10332000187E0000000000003030003C30303030AB
:10333000303030301E0000000006066666361E364D
:103340006666000000000000001E18181818181803
:10335000187E0000000000000000007ED6D6D6D601
:10336000D6C60000000000000000003E66666666EB
:1033700066660000000000000000003C66666666AD
:10338000663C0000000000000000003E66666666C5
:10339000663E0606060000000000007C6666666663
:1033A000667C60606000000000000066760E060625
:1033B00006060000000000000000007C06063C60DD
:1033C000603E000000000000000C0C7E0C0C0C0C99
:1033D0000C7800000000000000000066666666666B
:1033E000667C0000000000000000006666666666FD
:1033F0003C18000000000000000000C6D6D6D6D65B
:103400006C6C00000000000000000066663C183C88
:1034100066660000000000000000006666666666E2
:10342000663C30180F0000000000007E6030180C71
:10343000067E00000000000000301818180C060C72
:10344000181818300000000000181818181818185C
:103450001818181818000000000C181818306030E0
:103460001818180C00000000008EDB71000000002E
:103470000000000000000000983400080000002058
:10348000BC000000F423000854350008BC000020F4
:1034900004040000042400080000000000000000F4
:1034A000000000000000000000000000000000001C
:1034B000000000000000000000000000000000000C
:1034C00000000000000000000000000000000000FC
:1034D00000000000000000000000000000000000EC
:1034E00000000000000000000000000000000000DC
:1034F00000000000000000000000000000000000CC
:1035000000000000000000000000000000000000BB
:1035100000000000000000000000000000000000AB
:10352000000000000000000000000000000000009B
:10353000000000000000000000000000000000008B
:10354000000000000000000000000000000000007B
:043550000000000077
:0400000508000131BD
:00000001FF
