:020000040800F2
:10000000000400204501000899080008DD030008ED
:10001000950800088D0100082D0A00080000000066
:10002000000000000000000000000000DD080008E3
:1000300091010008000000009B080008C9090008A1
:100040005F0100085F0100085F0100085F01000810
:100050005F0100085F0100085F0100085F01000800
:100060005F0100085F0100085F0100085F010008F0
:100070005F0100085F0100085F0100085F010008E0
:100080005F0100085F0100085F0100085F010008D0
:100090005F0100085F0100085F0100085F010008C0
:1000A0005F0100085F0100085F0100085F010008B0
:1000B0005F0100085F0100085F0100085F010008A0
:1000C0005F0100085F0100085F0100085F01000890
:1000D0005F0100085F0100085F0100085F01000880
:1000E0005F0100085F0100085F0100085F01000870
:1000F0005F0100085F0100085F0100085F01000860
:100100005F0100085F0100085F0100085F0100084F
:100110005F0100085F0100085F0100085F0100083F
:100120005F0100085F0100085F0100085F0100082F
:10013000DFF80CD000F018F8004800474F0A00081C
:10014000000400200648804706480047FEE7FEE717
:10015000FEE7FEE7FEE7FEE7FEE7FEE7FEE7FEE777
:10016000CD09000831010008064C074D06E0E068A3
:1001700040F0010394E8070098471034AC42F6D3EE
:10018000FFF7DAFF580A0008680A000800BFFEE718
:10019000704701B502E00098401E009000980028CA
:1001A000F9D108BD51B18200A2F1C042126842F0FB
:1001B00001038200A2F1C042136009E08200A2F1B3
:1001C000C0421268034B1A408300A3F1C0431A6077
:1001D00070470000FEFF0F00D0E901121143C26812
:1001E0001143026911434269114382691143C26993
:1001F0001143026A1143426A1143826A1143C26A7F
:100200001143026B114302689200A2F1C0421160D7
:10021000816808290BD101688900A1F1C0410968F2
:1002200041F0400201688900A1F1C0410A60416BC0
:100230000968426B526841EA0211426B926841EAD6
:100240000221426B928941EA0241426B128A41EAE1
:100250000251426B127D41EA0261426B9269114385
:100260000268521C9200A2F1C0421160C16AB1F54D
:10027000804F1BD1816B0968826B526841EA021181
:10028000826B926841EA0221826B128A41EA025132
:10029000826B127D41EA0261826B926911430268AE
:1002A0009200A2F1C042C2F8041107E06FF0704260
:1002B00001688900A1F1C041C1F8042170472DE90E
:1002C000F0410246002500260020002300240027DC
:1002D00091F803C00CF00F0591F803C00CF0100C5E
:1002E000BCF1000F03D091F802C04CEA050591F86B
:1002F00000C0BCF1000F31D0146800202BE04FF09B
:10030000010C0CFA00F3B1F800C00CEA03069E429F
:1003100020D183004FF00F0C0CFA03F7BC4305FA11
:1003200003FC4CEA040491F803C0BCF1280F06D189
:100330004FF0010C0CFA00FCC2F814C00AE091F86E
:1003400003C0BCF1480F05D14FF0010C0CFA00FCC2
:10035000C2F810C0401C0828D1D31460B1F800C006
:10036000BCF1FF0F34DD546800202EE000F1080CD2
:100370004FF0010808FA0CF3B1F800C00CEA0306CC
:100380009E4221D183004FF00F0C0CFA03F7BC43BF
:1003900005FA03FC4CEA040491F803C0BCF1280FF1
:1003A00005D100F1080C08FA0CF8C2F8148091F895
:1003B00003C0BCF1480F07D100F1080C4FF0010851
:1003C00008FA0CF8C2F81080401C0828CED35460FC
:1003D000BDE8F081416170470161704700BFFEE7F1
:1003E00010B504462CB14FF480510548FFF7F2FFD9
:1003F00004E04FF480510248FFF7EEFF10BD00000B
:10040000001401402DE9F04106460F4614461D46F2
:10041000DDF818802B4622463946304600F0D3F8E6
:1004200004FB05F0414600F034F8BDE8F08100B56A
:1004300097B00121080200F031FA0220019000205B
:1004400002900520039000200490059006904FF044
:100450008050079000200890099008200A901020F2
:100460000B9000200C900E900F9010904FF4805045
:100470001190002012901390149001A815901690DE
:1004800008A8FFF7A9FE01210020FFF78BFE17B097
:1004900000BD70B504460D4600262C2000F0F0F992
:1004A00000BF03E0284600F0EFF9761CA642F9D31E
:1004B00070BD000008B50121084600F0FFF90121D8
:1004C000602000F0FBF903208DF8020018208DF861
:1004D00003004CF20370ADF8000069462C48FFF7AA
:1004E000EEFE4FF68070ADF8000069462948FFF730
:1004F000E6FE03208DF8020018208DF8030010207E
:10050000ADF8000069462248FFF7D9FE2020ADF87B
:10051000000069461E48FFF7D2FE0121202000F0AE
:10052000CDF98020ADF8000069461948FFF7C7FEF5
:100530000121202000F0C2F94FF40060ADF8000066
:1005400069461348FFF7BBFE10208DF80300032017
:100550008DF802000121402000F0B0F90220ADF832
:10056000000069460B48FFF7AAFE10208DF8030033
:1005700003208DF802000121202000F09FF94FF4A4
:100580008050ADF8000069460148FFF798FE08BDAD
:10059000001401400018014008B5FFF78BFFFFF77A
:1005A00046FF0120FFF71CFF00F056F900F03CF871
:1005B0004FF6FF704FF4A073F02200210090084620
:1005C000FFF720FF08BD2DE9F04104460D46164611
:1005D0001F462A2000F054F9201200F055F9E0B22D
:1005E00000F052F9A119491EC1F30F2000F04CF997
:1005F000A119491EC8B200F047F92B2000F040F9BC
:10060000281200F041F9E8B200F03EF9E919491E5C
:10061000C1F30F2000F038F9E919491EC8B200F003
:1006200033F9BDE8F081000010B5CF2000F028F9C3
:10063000002000F029F9812000F026F9302000F098
:1006400023F9ED2000F01CF9642000F01DF90320CF
:1006500000F01AF9122000F017F9812000F014F9C7
:10066000E82000F00DF9852000F00EF9102000F0D0
:100670000BF9782000F008F9CB2000F001F93920BF
:1006800000F002F92C2000F0FFF8002000F0FCF848
:10069000342000F0F9F8022000F0F6F8F72000F01E
:1006A000EFF8202000F0F0F8EA2000F0E9F8002050
:1006B00000F0EAF8002000F0E7F8B12000F0E0F8E0
:1006C000002000F0E1F81B2000F0DEF8B62000F07A
:1006D000D7F80A2000F0D8F8A22000F0D5F8C02002
:1006E00000F0CEF8352000F0CFF8C12000F0C8F8B7
:1006F000112000F0C9F8C52000F0C2F8452000F034
:10070000C3F8452000F0C0F8C72000F0B9F8A220D7
:1007100000F0BAF8F22000F0B3F8002000F0B4F8CE
:10072000262000F0ADF8012000F0AEF8E02000F047
:10073000A7F80F2000F0A8F8262000F0A5F8242044
:1007400000F0A2F80B2000F09FF80E2000F09CF8BB
:10075000092000F099F8542000F096F8A82000F045
:1007600093F8462000F090F80C2000F08DF8172048
:1007700000F08AF8092000F087F80F2000F084F8D4
:10078000072000F081F8002000F07EF8E12000F062
:1007900077F8002000F078F8192000F075F81B2099
:1007A00000F072F8042000F06FF8102000F06CF8F0
:1007B000072000F069F82A2000F066F8472000F0D2
:1007C00063F8392000F060F8032000F05DF806209F
:1007D00000F05AF8062000F057F8302000F054F8E6
:1007E000382000F051F80F2000F04EF8362000F0CD
:1007F00047F8C82000F048F82A2000F041F800200F
:1008000000F042F8002000F03FF8002000F03CF833
:10081000EF2000F039F82B2000F032F8002000F033
:1008200033F8002000F030F8012000F02DF83F20D0
:1008300000F02AF83A2000F023F8552000F024F8C0
:10084000112000F01DF80348FFF7A3FC292000F059
:1008500017F810BDFCBF020010B502210648FFF7D3
:10086000B9FD0648FFF795FC02210348FFF7B4FDE8
:100870000248FFF78EFC10BD00180140FCBF0200CB
:100880004FF0C04108807047014908807047000060
:100890000000026000BFFEE77047704729B1064ABA
:1008A00052690243044B5A6104E0034A526982438D
:1008B000014B5A61704700000010024029B1064AFE
:1008C00092690243044B9A6104E0034A92698243AD
:1008D000014B9A617047000000100240704710B54C
:1008E00000F002F810BD00000CB50020019000904F
:1008F0003348006840F480303149086000BF304818
:10090000006800F4003000900198401C01900098AD
:1009100018B90198B0F5A06FF1D12948006800F42A
:10092000003010B10120009001E0002000900098FC
:10093000012843D12348006840F010002149086095
:100940000846006820F0030008600846006840F090
:10095000020008601A484068194948600846406823
:1009600048600846406840F4806048600846406837
:1009700020F47C1048600846406840F4E810486065
:100980000846006840F08070086000BF0C480068AE
:1009900000F000700028F9D00948406820F00300FA
:1009A000074948600846406840F00200486000BFC0
:1009B0000348406800F00C000828F9D10CBD000085
:1009C00000100240002002407047000010B513489C
:1009D000006840F00100114908600846406810496D
:1009E00008400E494860084600680E4908400B4917
:1009F00008600846006820F48020086008464068C7
:100A000020F4FE0048604FF41F008860FFF767FF86
:100A10004FF000600449086010BD00000010024063
:100A20000000FFF8FFFFF6FE08ED00E000BFFEE764
:100A300002E008C8121F08C1002AFAD170477047A7
:100A4000002001E001C1121F002AFBD17047FFF70F
:100A5000A3FD00BFFEE70000680A000800000020B8
:080A600000040000400A000838
:0400000508000131BD
:00000001FF
