:020000040800F2
:10000000580500204501000839340008812C0008FB
:100010003534000829040008693800080000000091
:100020000000000000000000000000005936000839
:100030002D04000800000000B9340008053800084D
:100040005F0100085F0100085F010008A13500089A
:100050005F0100085F0100085F0100085F01000800
:100060005F0100085F0100085F0100085F010008F0
:100070005F0100085F0100085F0100085F010008E0
:100080005F0100085F0100085F0100085F010008D0
:100090005F0100085F0100085F0100085F010008C0
:1000A0005F0100085F0100085F0100085F010008B0
:1000B0005F0100085F0100085F0100085F010008A0
:1000C0005F0100085F0100085F0100085F01000890
:1000D0005F0100085F0100085F0100085F01000880
:1000E0005F010008393500085F0100085F01000862
:1000F0005F0100085F0100085F0100085F01000860
:100100005F0100085F0100085F0100085F0100084F
:100110005F0100085F0100085F0100085F0100083F
:100120005F0100085F0100085F0100085F0100082F
:10013000DFF80CD000F03AF900480047E93A00082F
:10014000580500200648804706480047FEE7FEE7BE
:10015000FEE7FEE7FEE7FEE7FEE7FEE7FEE7FEE777
:10016000093800083101000840EA01039B0703D069
:1001700009E008C9121F08C0042AFAD203E011F8E6
:10018000013B00F8013B521EF9D270472DE9FE4FAA
:1001900081EA030404F0004421F0004100944FF090
:1001A000000B23F0004350EA01045ED052EA03043E
:1001B0005BD0C3F30A54C1F30A552C44A4F2F334C0
:1001C0000194A0FB0254C1F3130141F48011C3F365
:1001D000130343F4801301FB024400FB034E840A23
:1001E000970A44EA815447EA8357A4FB07680295BB
:1001F0008D0A05FB07854FEA932C04FB0C54270559
:10020000029D4FEA065847EA1637B5EB08056EEB34
:10021000070C870E920E47EA811742EA8312A7FB6A
:100220000201B6EB0B0164EB00042B0D43EA0C3327
:100230005E1844EB1C50DA465146E7FB0201C5F359
:1002400013044FEA0B3343EA14534FEA0432019C80
:1002500043EA0603A4F10C040294009CCDE900B427
:1002600000F055F803B0BDE8F08F00200146F9E733
:100270000EB5C10F80EAE0700844CA07002140F2C1
:1002800033438DE80E000A460B4600F040F803B0F9
:1002900000BD70B5C1F30A5201F000450024C1F35E
:1002A000130140F2FF3341F480119A4201DA002039
:1002B00070BD40F233439A42A2F2334203DC524211
:1002C00000F006F800E090402C43F1D0404270BDB1
:1002D000202A04DB203A21FA02F00021704721FA9B
:1002E00002F3D040C2F12002914008431946704702
:1002F00010B5141E73F1000408DA401C41F100012E
:1003000092185B411A4301D120F0010010BD2DE984
:10031000F04D92469B4611B1B1FA81F202E0B0FA7B
:1003200080F22032904600F053F804460F4640EA2F
:100330000A0041EA0B0153465A46084313D01146BE
:1003400053EA010019D0C8F140025046FFF7C0FF40
:1003500005460E4650465946424600F039F80843D5
:1003600005D0012004E020463946BDE8F08D00208C
:10037000054346EAE0762C4337430A986305E40ACE
:10038000A0EB08000022FD0A44EA47540A3002D5D7
:1003900000200146E9E7010510196941DDE908453A
:1003A00000196941BDE8F04DA2E70000064C074D79
:1003B00006E0E06840F0010394E807009847103435
:1003C000AC42F6D3FFF7B8FE587200087872000806
:1003D000202A04DB203A00FA02F100207047914005
:1003E000C2F1200320FA03F319439040704730B55F
:1003F0008C1810F8012B12F00F0301D110F8013BFB
:10040000120906D110F8012B03E010F8015B01F886
:10041000015B5B1EF9D101E001F8013B521EFBD1EB
:10042000A142E6D3002030BD00BFFEE7704701B512
:1004300002E00098401E009000980028F9D108BD05
:1004400000B5012003F022FA014803F059FA00BD7B
:1004500020A1070010B504462046722C7DD015DC83
:10046000042802F048820ADC58B3012849D0022847
:1004700001F02285032842F0508202F031B96F2842
:1004800054D070286AD07128F5D12AE3DF2801F012
:100490002C8509DC792801F055827A2801F07383D4
:1004A0007B28E8D101F0D5B8E02801F04B85A0F217
:1004B000764000287ED0A0F24C400028DBD101F02D
:1004C0003ABFEBA20A21084602F004FDEDA21E216C
:1004D0000A2002F0FFFCF1A23221142002F0FAFC03
:1004E000F2A24621142002F0F5FCF3A25A211420B6
:1004F00002F0F0FCF3A26E21142002F0EBFC02F0FB
:100500000CBAE6A20A21084602F0E4FCF0A21E2181
:10051000142002F0DFFCF3A23221142002F0DAFCF6
:10052000F7A24621142002F0D5FCE8E7F6A20A2142
:10053000084602F0CFFCFBA21E210A2002F0CAFCF2
:10054000FDA23221142002F0C5FCFE4800684FF4E1
:100550007A7190FBF1F00A2101E0D5E3F9E090FB1C
:10056000F1F201FB12003030F7490870F5480068DD
:10057000642190FBF1F00A2190FBF1F201FB1200E3
:100580003030F2490870EF4800680A2190FBF1F022
:1005900090FBF1F201FB12003030ED490870E948A0
:1005A00000680A2190FBF1F201FB12003030E949AA
:1005B000087000E0FEE3E44802783221642002F093
:1005C00057FCE248027832216E2002F051FCE048EC
:1005D00002783221782002F04BFCDE48027832218A
:1005E000822002F045FCDCA232218C2002F072FC59
:1005F000DAA24621142002F06DFCDB4800684FF4BB
:100600007A7190FBF1F00A2190FBF1F201FB1200EC
:100610003030D6490870D4480068642190FBF1F06E
:100620000A2190FBF1F201FB12003030D049087032
:10063000CD4800680A2190FBF1F090FBF1F201FB3C
:1006400012003030CB490870C74800680A2190FB7F
:10065000F1F201FB12003030C7490870C34802783C
:100660004621642002F004FCC148027846216E2035
:1006700002F0FEFBBF4802784621782002F0F8FB2A
:10068000BD4802784621822002F0F2FBB2A2462148
:100690008C2002F01FFCB9A25A21142002F01AFC8F
:1006A000B94800684FF47A7190FBF1F00A2190FB91
:1006B000F1F201FB12003030B4490870B248006812
:1006C000642190FBF1F00A2190FBF1F201FB120092
:1006D0003030AF490870AC4800680A2190FBF1F057
:1006E00090FBF1F201FB12003030AA490870A648D5
:1006F00000680A2190FBF1F201FB12003030A6499C
:100700000870A24802785A21642002F0B1FBA04888
:1007100002785A216E2002F0ABFB9E4802785A21E3
:10072000782002F0A5FB9C4802785A21822002F032
:100730009FFB89A25A218C2002F0CCFB97A26E214C
:10074000142002F0C7FB6EA28221142002F0C2FB2B
:10075000D5E66DA20A21084602F0BCFB90A21E213C
:100760000A2002F0B7FB74A23221142002F0B2FB7F
:10077000904800684FF47A7190FBF1F00A2190FBE9
:10078000F1F201FB120030308B4908708948006893
:10079000642190FBF1F00A2190FBF1F201FB1200C1
:1007A000303086490870834800680A2190FBF1F0D8
:1007B00090FBF1F201FB12003030814908707D4856
:1007C00000680A2190FBF1F201FB120030307D49F4
:1007D0000870794802783221642002F049FB77489A
:1007E000027832216E2002F043FB754802783221F4
:1007F000782002F03DFB734802783221822002F01B
:1008000037FB55A232218C2002F064FB53A2462113
:10081000142002F05FFB6C4800684FF47A7190FB83
:10082000F1F00A2190FBF1F201FB12003030674930
:10083000087065480068642190FBF1F00A2190FB84
:10084000F1F201FB12003030614908705E48006827
:100850000A2190FBF1F090FBF1F201FB1200303025
:100860005C490870584800680A2190FBF1F2B3E037
:10087000454C454320333330302050726F6A6563F6
:10088000740000003320417869732043616D657204
:100890006120536C696465720000000054696D65E5
:1008A000204C61707365204D6F6465005669646506
:1008B0006F204D6F646500004D616E75616C204D59
:1008C0006F64650053657474696E6773000000009F
:1008D000496E746572616374697665204D6F6465F5
:1008E00000000000496E70757420506172616D6582
:1008F00074657273204D616E75616C6C79000000D7
:1009000052657475726E0000506C6561736520737A
:100910006C6577207468652063616D657261207411
:100920006F00000074686520454E4420706F736945
:1009300074696F6E00000000536C6964653A203C76
:100940003C3C000044000020080100200901002078
:100950000A0100200B0100203E3E3E0050616E3A2D
:100960002020203C3C3C0000480000200C010020DE
:100970000D0100200E0100200F01002054696C744D
:100980003A20203C3C3C00004C000020100100209C
:100990001101002012010020130100205365740092
:1009A00074686520535441525420706F73697469A0
:1009B0006F6E00005000002014010020150100207F
:1009C000160100201701002054000020180100200B
:1009D000190100201A01002001FB12003030FE49ED
:1009E0000870FE4802784621642002F041FAFC4873
:1009F000027846216E2002F03BFAFA48027846213E
:100A0000782002F035FAF44802784621822002F07C
:100A10002FFAAFF2BC0246218C2002F05BFAAFF253
:100A2000A4025A21142002F055FAEF4800684FF44E
:100A30007A7190FBF1F00A2190FBF1F201FB1200B8
:100A40003030EA490870E8480068642190FBF1F012
:100A50000A2190FBF1F201FB12003030E4490870EA
:100A6000E14800680A2190FBF1F090FBF1F201FBF4
:100A700012003030DF490870DB4800680A2190FB23
:100A8000F1F201FB12003030DB490870D7480278E0
:100A90005A21642002F0ECF9D54802785A216E20E0
:100AA00002F0E6F9D34802785A21782002F0E0F902
:100AB000D14802785A21822002F0DAF9AFF26812A6
:100AC0005A218C2002F006FAAFF230126E21142067
:100AD00002F000FAAFF2D8128221142002F0FAF9E3
:100AE0000DE5C6A20A21084602F0F4F9C9A21E21AA
:100AF0000A2002F0EFF9CAA23221142002F0EAF92A
:100B0000CB4800684FF47A7190FBF1F00A2190FB1A
:100B1000F1F201FB12003030C6490870C448006889
:100B2000642190FBF1F00A2190FBF1F201FB12002D
:100B30003030C1490870BE4800680A2190FBF1F0CE
:100B400090FBF1F201FB12003030BC490870B8484C
:100B500000680A2190FBF1F201FB12003030B84925
:100B60000870B448027832217D2002F081F9B24841
:100B700002783221872002F07BF9B04802783221D6
:100B8000912002F075F9AE48027832219B2002F0E4
:100B90006FF9AFF23C223221A52002F09BF9A9A205
:100BA0004621142002F096F9AA4800684FF47A71A1
:100BB00090FBF1F00A2190FBF1F201FB12003030C2
:100BC000A5490870A3480068642190FBF1F00A2150
:100BD00090FBF1F201FB12003030A04908709D48F3
:100BE00000680A2190FBF1F090FBF1F201FB12008A
:100BF00030309B490870974800680A2190FBF1F259
:100C000001FB120030309749087093480278462162
:100C10007D2002F02DF9914802784621872002F0CC
:100C200027F98F4802784621912002F021F98D485A
:100C3000027846219B2002F01BF9AFF2E422462104
:100C4000A52002F047F988A25A21142002F042F9A7
:100C5000894800684FF47A7190FBF1F00A2190FB0B
:100C6000F1F201FB120030308449087082480068BC
:100C7000642190FBF1F00A2190FBF1F201FB1200DC
:100C800030307F4908707C4800680A2190FBF1F001
:100C900090FBF1F201FB120030307A49087076487F
:100CA00000680A2190FBF1F201FB12003030764916
:100CB0000870724802785A217D2002F0D9F87048F5
:100CC00002785A21872002F0D3F86E4802785A2120
:100CD000912002F0CDF86C4802785A219B2002F056
:100CE000C7F8AFF28C325A21A52002F0F3F8AFF228
:100CF00054326E21142002F0EDF8AFF2FC32822162
:100D0000142002F0E7F810E460A20A21084602F07D
:100D1000E1F865A21E210A2002F0DCF866480068AE
:100D20004FF47A7190FBF1F00A2190FBF1F201FB94
:100D300012003030614908705F480068642190FB00
:100D4000F1F00A2190FBF1F201FB120030305C4916
:100D50000870594800680A2190FBF1F090FBF1F20D
:100D600001FB1200303057490870534800680A21CF
:100D700090FBF1F201FB12003030534908704F48EC
:100D800002781E216E2002F073F84D4802781E2171
:100D9000782002F06DF84B4802781E21822002F084
:100DA00067F8494802781E218C2002F061F847A2BA
:100DB000322100E014E20A2002F08CF846A232212F
:100DC000822002F087F844A23221A02002F082F8AB
:100DD0004248006884E000001B0100201801002048
:100DE000190100201A010020580000201C010020D9
:100DF0001D0100201E0100201F010020506C6561B4
:100E0000736520656E74657220666F6C6C6F7769B0
:100E10006E670000706172616D65746572730000C9
:100E200046616D65733A202020203C3C3C00000068
:100E30005C00002020010020210100202201002070
:100E400023010020496E74657276616C3A203C3C47
:100E50003C0000006000002024010020250100204B
:100E60002601002027010020536875747465723ACA
:100E700020203C3C3C0000006400002028010020B1
:100E8000290100202A0100202B01002054616B69F8
:100E90006E672054696D65204C617073652E2E2E2F
:100EA000202E2E2E0000000046616D6573205461D7
:100EB0006B656E3A20000000FC0000202C01002031
:100EC0002D0100202E0100202F01002054696D65A6
:100ED000204C6566743A00003A000000780000205B
:100EE0004FF4616190FBF1F0FE490860084600682C
:100EF000C0EB0010FC490968A1EB80003C2190FB8D
:100F0000F1F0FA490860F7480068C0EB4011C1EB06
:100F10000020F5490968A1EB0010F4490968C1EB0C
:100F20000111A0EB8100F2490860EE4800680A2137
:100F300090FBF1F090FBF1F201FB12003030ED4933
:100F40000870E84800680A2190FBF1F201FB1200EA
:100F50003030E9490870E54800680A2190FBF1F05B
:100F600090FBF1F201FB12003030E4490870DF48D9
:100F700000680A2190FBF1F201FB12003030E049D9
:100F80000870DB4800680A2190FBF1F090FBF1F259
:100F900001FB12003030DB490870D54800680A2197
:100FA00090FBF1F201FB12003030D7490870D148B4
:100FB000027832216E2001F05BFFCF4802783221A7
:100FC000782001F055FFCD48027832218C2001F0C5
:100FD0004FFFCB4802783221962001F049FFC948E3
:100FE00002783221AA2001F043FFC748027832215B
:100FF000B42001F03DFFC5A246210A2001F06AFF9E
:10100000C3A24621502001F065FFC2A246219620CE
:1010100001F060FFC04800684FF47A7190FBF1F076
:101020000A2190FBF1F201FB12003030BB4908703D
:10103000B9480068642190FBF1F00A2190FBF1F2BD
:1010400001FB12003030B6490870B34800680A212D
:1010500090FBF1F090FBF1F201FB12003030B1494E
:101060000870AD4800680A2190FBF1F201FB120004
:101070003030AD490870A948027846211E2001F0A1
:10108000F7FEA74802784621282001F0F1FEA54886
:1010900002784621322001F0EBFEA3480278462177
:1010A0003C2001F0E5FEA14800684FF47A7190FB06
:1010B000F1F00A2190FBF1F201FB120030309C4963
:1010C00008709A480068642190FBF1F00A2190FBB7
:1010D000F1F201FB12003030964908709348006825
:1010E0000A2190FBF1F090FBF1F201FB120030308D
:1010F000914908708D4800680A2190FBF1F201FBCC
:10110000120030308D4908708948027846216420E9
:1011100001F0AEFE8748027846216E2001F0A8FE5D
:10112000854802784621782001F0A2FE83480278A3
:101130004621822001F09CFE814800684FF47A71BC
:1011400090FBF1F00A2190FBF1F201FB120030302C
:101150007C4908707A480068642190FBF1F00A210C
:1011600090FBF1F201FB12003030774908707448AF
:1011700000680A2190FBF1F090FBF1F201FB1200F4
:101180003030724908706E4800680A2190FBF1F215
:1011900001FB120030306E4908706A48027846211F
:1011A000AA2001F065FE684802784621B42001F0CB
:1011B0005FFE664802784621BE2001F059FE644871
:1011C00002784621C82001F053FE62A25A21142061
:1011D00001F080FE61A26E21142001F07BFE7FE40D
:1011E000AFF258320A21084601F074FEAFF24832DD
:1011F0001E210A2001F06EFE5A4800684FF47A71F1
:1012000090FBF1F00A2190FBF1F201FB120030306B
:101210005549087053480068642190FBF1F00A2199
:1012200090FBF1F201FB12003030504908704D483C
:1012300000680A2190FBF1F090FBF1F201FB120033
:1012400030304B490870474800680A2190FBF1F2A2
:1012500001FB1200303047490870434802781E21D4
:101260006E2001F005FE414802781E21782001F031
:10127000FFFD3F4802781E21822001F0F9FD3D4824
:1012800002781E218C2001F0F3FDAFF2C032322132
:101290000A2001F01FFEAFF2C0323221822001F09D
:1012A00019FEAFF2CC323221A02001F013FE0E481D
:1012B00000684FF4616190FBF1F00A49086008464C
:1012C0000068C0EB001008490968A1EB80003C21D0
:1012D00090FBF1F00549086002480068C0EB40113E
:1012E0004AE0000038010020780000203C01002086
:1012F0004001002030010020310100203201002097
:10130000330100203401002035010020583A00004C
:10131000593A00005A3A000094000020440100208D
:1013200045010020460100204701002098000020D0
:1013300048010020490100204A0100204B01002003
:101340009C0000204C0100204D0100204E01002097
:101350004F010020506175736500000053746F7079
:1013600000000000FC0000202C0100202D010020C6
:101370002E0100202F010020C1EB0020FE4909684A
:10138000A1EB0010FD490968C1EB0111A0EB810040
:10139000FB490860FB4800680A2190FBF1F090FBD4
:1013A000F1F201FB12003030F7490870F54800688F
:1013B0000A2190FBF1F201FB12003030F349087072
:1013C000EE4800680A2190FBF1F090FBF1F201FB7E
:1013D00012003030EE490870E84800680A2190FB9E
:1013E000F1F201FB12003030EA490870E44800686D
:1013F0000A2190FBF1F090FBF1F201FB120030307A
:10140000E5490870DE4800680A2190FBF1F201FB13
:1014100012003030E1490870DB48027832216E203A
:1014200001F026FDD94802783221782001F020FD14
:10143000D748027832218C2001F01AFDD548027875
:101440003221962001F014FDD34802783221AA20DF
:1014500001F00EFDD14802783221B42001F008FDE0
:10146000AFF2581246210A2001F034FDAFF26012AB
:101470004621502001F02EFDAFF268124621962041
:1014800001F028FDC64800684FF47A7190FBF1F036
:101490000A2190FBF1F201FB12003030C1490870C3
:1014A000BF480068642190FBF1F00A2190FBF1F243
:1014B00001FB12003030BC490870B94800680A21AD
:1014C00090FBF1F090FBF1F201FB12003030B749D4
:1014D0000870B34800680A2190FBF1F201FB12008A
:1014E0003030B3490870AF48027846211E2001F021
:1014F000BFFCAD4802784621282001F0B9FCAB487A
:1015000002784621322001F0B3FCA9480278462136
:101510003C2001F0ADFCA74800684FF47A7190FBC5
:10152000F1F00A2190FBF1F201FB12003030A249E8
:101530000870A0480068642190FBF1F00A2190FB3C
:10154000F1F201FB120030309C49087099480068A4
:101550000A2190FBF1F090FBF1F201FB1200303018
:1015600097490870934800680A2190FBF1F201FB4B
:1015700012003030934908708F4802784621642069
:1015800001F076FC8D48027846216E2001F070FC57
:101590008B4802784621782001F06AFC894802785D
:1015A0004621822001F064FC874800684FF47A717C
:1015B00090FBF1F00A2190FBF1F201FB12003030B8
:1015C0008249087080480068642190FBF1F00A218C
:1015D00090FBF1F201FB120030307D4908707A482F
:1015E00000680A2190FBF1F090FBF1F201FB120080
:1015F000303078490870744800680A2190FBF1F295
:1016000001FB12003030744908707048027846219E
:10161000AA2001F02DFC6E4802784621B42001F08A
:1016200027FC6C4802784621BE2001F021FC6A4864
:1016300002784621C82001F01BFC68A25A21142020
:1016400001F048FCAFF2EC226E21142001F042FCC4
:10165000C5E564A20A21084601F03CFCAFF64C0245
:101660001E210A2001F036FC65A23221142001F06F
:1016700031FC674800684FF47A7190FBF1F00A2161
:1016800090FBF1F201FB12003030624908706048B3
:101690000068642190FBF1F00A2190FBF1F201FB5C
:1016A000120030305C490870594800680A2190FBEC
:1016B000F1F090FBF1F201FB120030305749087055
:1016C000534800680A2190FBF1F201FB1200303010
:1016D000534908704F4802783221912001F0C8FB2D
:1016E0004D48027832219B2001F0C2FB4B48027822
:1016F0003221A52001F0BCFB494802783221AF20FD
:1017000001F0B6FBAFF6B0523221B92001F0E2FB96
:1017100044A24621142001F0DDFB464800684FF446
:101720007A7190FBF1F00A2190FBF1F201FB1200BB
:101730003030414908703F480068642190FBF1F067
:101740000A2190FBF1F201FB120030303B49087096
:10175000384800680A2190FBF1F090FBF1F201FBA0
:101760001200303036490870324800680A2190FB78
:10177000F1F201FB120065E0780000203C0100203E
:1017800040010020380100203001002031010020FC
:1017900032010020330100203401002035010020F7
:1017A0009400002044010020450100204601002053
:1017B0004701002098000020480100204901002036
:1017C0004A0100204B0100209C0000204C01002019
:1017D0004D0100204E0100204F010020526573751D
:1017E0006D650000506C6561736520656E7465728F
:1017F0002074686520666F6C6C6F77696E67000097
:10180000546F74616C2046616D65733A3C3C3C00DA
:101810005C00002020010020210100202201002086
:1018200023010020496E74657276616C3A20202095
:101830003C3C3C00600000202401002025010020E9
:10184000260100203030FE490870FE48027846210B
:10185000912001F00DFBFC48027846219B2001F00D
:1018600007FBFA4802784621A52001F001FBF44865
:1018700002784621AF2001F0FBFAAFF62472462130
:10188000B92001F027FBF2A25A21142001F022FB1B
:10189000F34800684FF47A7190FBF1F00A2190FB55
:1018A000F1F201FB12003030EE490870EC4800689C
:1018B000642190FBF1F00A2190FBF1F201FB120090
:1018C0003030E9490870E64800680A2190FBF1F0E1
:1018D00090FBF1F201FB12003030E4490870E0485F
:1018E00000680A2190FBF1F201FB12003030E04960
:1018F0000870DC4802785A21912001F0B9FADA48E0
:1019000002785A219B2001F0B3FAD84802785A2174
:10191000A52001F0ADFAD64802785A21AF2001F097
:10192000A7FAAFF6CC725A21B92001F0D3FAD1A2AE
:101930006E21142001F0CEFAD14A8221142001F048
:10194000C9FA4CE4AFF264120A21084601F0C2FA67
:10195000CCA21E210A2001F0BDFACDA23221142012
:1019600001F0B8FABDA24621142001F0B3FACD4827
:1019700000684FF47A7190FBF1F00A2190FBF1F2CC
:1019800001FB12003030C8490870C6480068642165
:1019900090FBF1F00A2190FBF1F201FB12003030D4
:1019A000C2490870BF4800680A2190FBF1F090FB23
:1019B000F1F201FB12003030BD490870B9480068EF
:1019C0000A2190FBF1F201FB12003030B949087096
:1019D000B548027846212D2001F04AFAB348027832
:1019E0004621372001F044FAB148027846214120CF
:1019F00001F03EFAAF48027846214B2001F038FA58
:101A00009F4A58324621552001F064FAAAA25A2171
:101A1000142001F05FFA91A26E21142001F05AFA0D
:101A2000AA4800684FF47A7190FBF1F00A2190FB0C
:101A3000F1F201FB12003030A5490870A34800689C
:101A4000642190FBF1F00A2190FBF1F201FB1200FE
:101A50003030A04908709D4800680A2190FBF1F0E1
:101A600090FBF1F201FB120030309B49087097485F
:101A700000680A2190FBF1F201FB12003030974917
:101A80000870934802786E212D2001F0F1F99148F9
:101A900002786E21372001F0EBF98F4802786E2131
:101AA000412001F0E5F98D4802786E214B2001F0CC
:101AB000DFF9734A58326E21552001F00BFA88A2E3
:101AC0008221142001F006FA64A29621142001F06C
:101AD00001FA884800684FF47A7190FBF1F00A210E
:101AE00090FBF1F201FB120030308349087081480D
:101AF0000068642190FBF1F00A2190FBF1F201FBF8
:101B0000120030307D4908707A4800680A2190FB45
:101B1000F1F090FBF1F201FB1200303078490870CF
:101B2000744800680A2190FBF1F201FB120030308A
:101B3000744908707048027896212D2001F098F9B8
:101B40006E4802789621372001F092F96C480278AD
:101B50009621412001F08CF96A48027896214B20A9
:101B600001F086F9464A58329621552001F0B2F923
:101B700040A2AA21142001F0ADF9414ABE2114204F
:101B800001F0A8F964E5AFF2A4320A21084601F099
:101B9000A1F93CA21E210A2001F09CF95AA232218F
:101BA000142001F097F92DA24621142001F092F99A
:101BB000594800684FF47A7190FBF1F00A2190FBCC
:101BC000F1F201FB120030305449087052480068AD
:101BD000642190FBF1F00A2190FBF1F201FB12006D
:101BE00030304F4908704C4800680A2190FBF1F0F2
:101BF00090FBF1F201FB120030304A490870464870
:101C000000680A2190FBF1F201FB120030304649D6
:101C100008704248027846212D2001F029F94048F9
:101C200002784621372001F023F93E480278462108
:101C3000412001F01DF93C48027846214B2075E017
:101C4000270100202401002025010020260100207A
:101C5000536875747465723A202020203C3C3C0027
:101C60006400002028010020290100202A01002012
:101C70002B010020436F6E74696E756500000000D3
:101C800000090008706172616D65746572732000EF
:101C9000537461727420506F736974696F6E5F580A
:101CA0003A0000005000002014010020150100201F
:101CB0001601002017010020537461727420506FC8
:101CC000736974696F6E5F593A0000005400002018
:101CD00018010020190100201A0100201B0100201A
:101CE000537461727420506F736974696F6E5F5AB8
:101CF0003A000000580000201C0100201D010020B7
:101D00001E0100201F010020456E6420506F736982
:101D100074696F6E5F583A0044000020080100208B
:101D2000090100200A0100200B01002001F0A0F8A9
:101D3000FE4A4621552001F0CDF8FDA25A2114207B
:101D400001F0C8F8AFF2EC026E21142001F0C2F8E5
:101D5000FB4800684FF47A7190FBF1F00A2190FB88
:101D6000F1F201FB12003030F6490870F4480068C7
:101D7000642190FBF1F00A2190FBF1F201FB1200CB
:101D80003030F1490870EE4800680A2190FBF1F00C
:101D900090FBF1F201FB12003030EC490870E8488A
:101DA00000680A2190FBF1F201FB12003030E84993
:101DB0000870E44802786E212D2001F059F8E248BD
:101DC00002786E21372001F053F8E04802786E2146
:101DD000412001F04DF8DE4802786E214B2001F0E1
:101DE00047F8D24A6E21552001F074F8D9A2822119
:101DF000142001F06FF8AFF29C129621142001F02C
:101E000069F8D84800684FF47A7190FBF1F00A2124
:101E100090FBF1F201FB12003030D3490870D14839
:101E20000068642190FBF1F00A2190FBF1F201FBC4
:101E300012003030CD490870CA4800680A2190FB72
:101E4000F1F090FBF1F201FB12003030C84908704C
:101E5000C44800680A2190FBF1F201FB1200303007
:101E6000C4490870C048027896212D2001F000F87E
:101E7000BE4802789621372000F0FAFFBC4802786D
:101E80009621412000F0F4FFBA48027896214B20B9
:101E900000F0EEFFA54A9621552001F01BF8AFF2A5
:101EA0002C22AA21142001F015F8A04A583ABE218C
:101EB000142001F00FF844E59C4AAC3A0A21084688
:101EC00001F008F8994A883A1E21142001F002F81E
:101ED000964A743A3221142000F0FCFF934A583A93
:101EE0004621142000F0F6FF2BE5AFF208720A211C
:101EF000084600F0EFFFA04A1E210A2000F0EAFF8A
:101F00009EA23221142000F0E5FF9F4800680A21BC
:101F100090FBF1F201FB120030309C49087008463A
:101F2000027832217D2000F0A3FFAFF2B8224621D3
:101F3000142000F0CFFF7D4A583A5A21142000F0B7
:101F4000C9FFFEE492A20A21084600F0C3FF8A4AB4
:101F5000B8321E210A2000F0BDFFAFF2BC221E21C4
:101F6000822000F0B7FFAFF2C8221E21A02000F0AF
:101F7000B1FF8C4800684FF4616190FBF1F08A4931
:101F8000086008460068C0EB001086490968A1EBAC
:101F900080003C2190FBF1F0844908608248006891
:101FA000C0EB4011C1EB00207E490968A1EB001095
:101FB0007E490968C1EB0111A0EB81007C490860F2
:101FC000794800680A2190FBF1F090FBF1F201FBE7
:101FD0001200303077490870734800680A2190FB7E
:101FE000F1F201FB12003030734908706F4800684D
:101FF0000A2190FBF1F090FBF1F201FB120030306E
:102000006E490870694800680A2190FBF1F201FBF3
:10201000120030306A490870654800680A2190FB58
:10202000F1F090FBF1F201FB1200303065490870CD
:102030005F4800680A2190FBF1F201FB120030308A
:10204000614908705B4802781E216E2000F010FF85
:10205000594802781E21782000F00AFF574802787C
:102060001E218C2000F004FF554802781E21962086
:1020700000F0FEFE534802781E21AA2000F0F8FE70
:10208000514802781E21B42000F0F2FEAFF68452CF
:1020900032210A2000F01EFFAFF68C523221502070
:1020A00000F018FFAFF694523221962000F012FF94
:1020B000464800684FF47A7190FBF1F00A2190FBDA
:1020C000F1F201FB12003030414908703F480068CE
:1020D000642190FBF1F00A2190FBF1F201FB120068
:1020E00030303C490870394800680A2190FBF1F013
:1020F00090FBF1F201FB1200303037490870334891
:1021000000680A2190FBF1F201FB120030303349E4
:1021100008702F48027832211E2000F0A9FE2D48B9
:1021200002783221282000F0A3FE59E05809000867
:10213000456E6420506F736974696F6E5F593A0021
:10214000480000200C0100200D0100200E0100209D
:102150000F010020456E6420506F736974696F6EC3
:102160005F5A3A004C0000201001002011010020AD
:102170001201002013010020140E00085370656541
:102180006428312D35293A00A80000205001002094
:1021900054616B696E6720566964656F2E2E2E2020
:1021A0002E2E2E0078000020380100203C01002057
:1021B00040010020300100203101002032010020C8
:1021C000330100203401002035010020940000205C
:1021D0004401002045010020460100204701002065
:1021E000FE4802783221084600F042FEFC480278A0
:1021F00032213C2000F03CFEFA4800684FF47A712E
:1022000090FBF1F00A2190FBF1F201FB120030305B
:10221000F5490870F3480068642190FBF1F00A2149
:1022200090FBF1F201FB12003030F0490870ED48EC
:1022300000680A2190FBF1F090FBF1F201FB120023
:102240003030EB490870E74800680A2190FBF1F252
:1022500001FB12003030E7490870E3480278322170
:10226000642000F005FEE148027832216E2000F083
:10227000FFFDDF4802783221782000F0F9FDDD48CB
:1022800002783221822000F0F3FDDB4800684FF431
:102290007A7190FBF1F00A2190FBF1F201FB120040
:1022A0003030D6490870D4480068642190FBF1F0C2
:1022B0000A2190FBF1F201FB12003030D049087086
:1022C000CD4800680A2190FBF1F090FBF1F201FB90
:1022D00012003030CB490870C74800680A2190FBD3
:1022E000F1F201FB12003030C7490870C348027890
:1022F0003221AA2000F0BCFDC14802783221B4206E
:1023000000F0B6FDBF4802783221BE2000F0B0FDDB
:10231000BD4802783221C82000F0AAFDAFF6CC7289
:102320004621142000F0D6FDAFF6D0725A211420B9
:1023300000F0D0FDF1E2AFF2A8120A21084600F049
:10234000C9FDB24A1E210A2000F0C4FDAFF2B062FE
:102350001E21822000F0BEFDAFF2BC621E21A02033
:1023600000F0B8FDAA4800684FF4616190FBF1F0FD
:10237000A849086008460068C0EB0010A449096835
:10238000A1EB80003C2190FBF1F0A3490860A1483B
:102390000068C0EB4011C1EB00209D490968A1EB2A
:1023A00000109D490968C1EB0111A0EB81009B4918
:1023B0000860984800680A2190FBF1F090FBF1F268
:1023C00001FB1200303096490870924800680A21DB
:1023D00090FBF1F201FB12003030924908708E48F8
:1023E00000680A2190FBF1F090FBF1F201FB120072
:1023F00030308D490870884800680A2190FBF1F25E
:1024000001FB1200303089490870844800680A21B5
:1024100090FBF1F090FBF1F201FB120030308449A7
:1024200008707E4800680A2190FBF1F201FB12005F
:102430003030804908707A4802781E216E2000F002
:1024400017FD784802781E21782000F011FD7648AB
:1024500002781E218C2000F00BFD744802781E21AA
:10246000962000F005FD724802781E21AA2000F097
:10247000FFFC704802781E21B42000F0F9FC6EA227
:1024800032210A2000F026FD6CA23221502000F0FB
:1024900021FD6BA23221962000F01CFD69480068E6
:1024A0004FF47A7190FBF1F00A2190FBF1F201FBFD
:1024B000120030306449087062480068642190FB63
:1024C000F1F00A2190FBF1F201FB120030305F497C
:1024D00008705C4800680A2190FBF1F090FBF1F273
:1024E00001FB120030303D490870564800680A214F
:1024F00090FBF1F201FB120030303949087052486C
:10250000027832211E2000F0B3FC504802783221BC
:10251000282000F0ADFC314802783221084600F056
:10252000A7FC2F48027832213C2000F0A1FC2D4866
:1025300000684FF47A7190FBF1F00A2190FBF1F200
:1025400001FB1200303028490870264800686421D9
:1025500090FBF1F00A2190FBF1F201FB1200303008
:10256000224908701F4800680A2190FBF1F090FB97
:10257000F1F201FB120030301D4908701948006863
:102580000A2190FBF1F201FB12003030194908706A
:10259000154802783221642000F06AFC1348027862
:1025A00032216E2000F064FC11480278322178203C
:1025B00000F05EFC0F4802783221822000F058FCC7
:1025C0000D4800684FF47A7190FBF1F00A2190FBFE
:1025D000F1F201FB12003030084939E046010020D9
:1025E00047010020980000204801002049010020F8
:1025F0004A0100204B0100209C0000204C010020DB
:102600004D0100204E0100204F010020CC0E00089B
:1026100078000020380100203C010020400100200B
:102620003001002031010020320100203301002060
:102630003401002035010020583A0000593A0000CA
:102640005A3A000094000020440100204501002077
:102650000870B3480068642190FBF1F00A2190FBF8
:10266000F1F201FB12003030AE490870AC4800684E
:102670000A2190FBF1F090FBF1F201FB12003030E7
:10268000A9490870A64800680A2190FBF1F201FBF5
:1026900012003030A5490870A54802783221AA20DE
:1026A00000F0E6FB9F4802783221B42000F0E0FB06
:1026B0009D4802783221BE2000F0DAFB9B48027868
:1026C0003221C82000F0D4FBAFF6F062462114207E
:1026D00000F000FC974A5A21142000F0FBFB1CE19B
:1026E000954A0A21084600F0F5FB934A80321E21E4
:1026F000142000F0EFFB914800684FF47A7190FBD2
:10270000F1F00A2190FBF1F201FB120030308C490C
:1027100008708A480068642190FBF1F00A2190FB60
:10272000F1F201FB120030308649087083480068DE
:102730000A2190FBF1F090FBF1F201FB1200303026
:10274000814908707D4800680A2190FBF1F201FB85
:10275000120030307D490870794802781E216420CB
:1027600000F086FB774802781E216E2000F080FB87
:10277000754802781E21782000F07AFB73480278B1
:102780001E21822000F074FB6B4AA0321E218C2097
:1027900000F0A0FB684AA4323221142000F09AFB1A
:1027A0006B4800684FF47A7190FBF1F00A2190FBBE
:1027B000F1F201FB1200303066490870644800688D
:1027C000642190FBF1F00A2190FBF1F201FB120071
:1027D0003030614908705E4800680A2190FBF1F0D2
:1027E00090FBF1F201FB120030305C490870584850
:1027F00000680A2190FBF1F201FB120030305849C9
:102800000870544802783221642000F031FB5248AD
:10281000027832216E2000F02BFB504802783221E2
:10282000782000F025FB4E4802783221822000F00B
:102830001FFB414AA03232218C2000F04BFB3E4A64
:10284000C4324621142000F045FB354800684FF49F
:102850007A7190FBF1F00A2190FBF1F201FB12007A
:102860003030334908702E480068642190FBF1F045
:102870000A2190FBF1F201FB120030302949087067
:10288000274800680A2190FBF1F090FBF1F201FB70
:102890001200303024490870214800680A2190FB5A
:1028A000F1F201FB12003030204908702048027814
:1028B0004621642000F0DCFA1A48027846216E2096
:1028C00000F0D6FA184802784621782000F0D0FAB5
:1028D000164802784621822000F0CAFA164AA03231
:1028E00046218C2000F0F6FA134A48325A2114206F
:1028F00000F0F0FA11E0104A0C320A21084600F00C
:10290000E9FA18A21E21142000F0E4FA0A4A48321B
:102910003221142000F0DEFA00BF00BF10BD00001D
:102920009C0000204D0100204E0100204F0100209E
:102930004C0100205C130008B80800089400002037
:1029400044010020450100204601002047010020ED
:102950009800002048010020490100204A01002081
:102960004B01002052652D696E697469616C697A4A
:102970006500000051B18200A2F1C042126842F02D
:1029800001038200A2F1C042136009E08200A2F1BB
:10299000C0421268034B1A408300A3F1C0431A607F
:1029A00070470000FEFF0F00D0E901121143C2681A
:1029B0001143026911434269114382691143C2699B
:1029C0001143026A1143426A1143826A1143C26A87
:1029D0001143026B114302689200A2F1C0421160E0
:1029E000816808290BD101688900A1F1C0410968FB
:1029F00041F0400201688900A1F1C0410A60416BC9
:102A00000968426B526841EA0211426B926841EADE
:102A10000221426B928941EA0241426B128A41EAE9
:102A20000251426B127D41EA0261426B926911438D
:102A30000268521C9200A2F1C0421160C16AB1F555
:102A4000804F1BD1816B0968826B526841EA021189
:102A5000826B926841EA0221826B128A41EA02513A
:102A6000826B127D41EA0261826B926911430268B6
:102A70009200A2F1C042C2F8041107E06FF0704268
:102A800001688900A1F1C041C1F80421704700002C
:102A900008B50121042000F031FD0420ADF800004C
:102AA00010208DF8030003208DF8020069462548A8
:102AB00000F04EF80121082000F020FD4FF4714095
:102AC000ADF8000010208DF8030003208DF80200FF
:102AD00069461D4800F03CF80121102000F00EFD71
:102AE000C020ADF8000010208DF8030003208DF801
:102AF00002006946154800F02BF84FF47040124967
:102B000014310860C020114948610121082000F0FB
:102B1000F5FC0120ADF8000004208DF803006946A3
:102B2000094800F015F80121102000F0E7FCF02022
:102B3000ADF8000004208DF803006946024800F05B
:102B400007F808BD00080140000C014000100140DA
:102B50002DE9F04102460025002600200023002434
:102B6000002791F803C00CF00F0591F803C00CF09A
:102B7000100CBCF1000F03D091F802C04CEA05051F
:102B800091F800C0BCF1000F31D0146800202BE098
:102B90004FF0010C0CFA00F3B1F800C00CEA030688
:102BA0009E4220D183004FF00F0C0CFA03F7BC4378
:102BB00005FA03FC4CEA040491F803C0BCF1280FA9
:102BC00006D14FF0010C0CFA00FCC2F814C00AE068
:102BD00091F803C0BCF1480F05D14FF0010C0CFA7D
:102BE00000FCC2F810C0401C0828D1D31460B1F812
:102BF00000C0BCF1FF0F34DD546800202EE000F16E
:102C0000080C4FF0010808FA0CF3B1F800C00CEA08
:102C100003069E4221D183004FF00F0C0CFA03F7FC
:102C2000BC4305FA03FC4CEA040491F803C0BCF170
:102C3000280F05D100F1080C08FA0CF8C2F814802E
:102C400091F803C0BCF1480F07D100F1080C4FF018
:102C5000010808FA0CF8C2F81080401C0828CED3EE
:102C60005460BDE8F0810246002093680B400BB130
:102C7000012000E00020704741617047016170470A
:102C800000BFFEE710B504462CB14FF48051054853
:102C9000FFF7F2FF04E04FF480510248FFF7EEFF28
:102CA00010BD0000001401402DE9F04106460F461A
:102CB00014461D46DDF818802B462246394630461C
:102CC00000F0F5F904FB05F0414600F056F9BDE8C7
:102CD000F08108B54FF6FF704FF4A073F022002189
:102CE00000900846FFF7E0FF08BD38B504464FF6F0
:102CF000FF70009004EB84000A2202EB8000C0F514
:102D0000A07083B204EB840002EB800081B20F223A
:102D10000520FFF7C9FF38BD10B504460D2C49D278
:102D2000DFE804F0070C11161B20252A2F34393E4A
:102D300043000F21052000F03FF83BE02321052050
:102D400000F03AF836E03721052000F035F831E0A0
:102D50004B21052000F030F82CE05F21052000F029
:102D60002BF827E07321052000F026F822E08721C8
:102D7000052000F021F81DE09B21052000F01CF843
:102D800018E0AF21052000F017F813E0C32105205B
:102D900000F012F80EE0D721052000F00DF809E050
:102DA000EB21052000F008F804E0FF21052000F0E9
:102DB00003F800BF00BF10BD70B504460D46A9B2B0
:102DC000A0B205230A2200F072F90021642000F06D
:102DD000D4F86A1C91B204F10A0290B203230122D2
:102DE00000F065F90021122000F0C7F8AA1C91B28A
:102DF00004F10B0290B201231A4600F058F90021A9
:102E0000012000F0BAF86A1E91B204F1080290B2F3
:102E10000123022200F04BF90021122000F0ADF84E
:102E2000AA1E91B204F1080290B201231A4600F0E2
:102E30003EF90021012000F0A0F86A1D91B204F1D2
:102E4000080290B20123022200F031F90021122081
:102E500000F093F8AA1D91B204F1080290B2012388
:102E60001A4600F024F90021012000F086F870BD18
:102E70002DE9F047804689461546A5F1200000F06F
:102E8000FF0A102308224946404600F010F92C2082
:102E900000F06AFA002417E00D4800EB0A10065D06
:102EA00000270DE006F0010018B11F2000F060FAC5
:102EB00003E04FF6FF7000F05BFA7610781CC7B2A3
:102EC000082FEFDB601CC4B2102CE5DBBDE8F087F7
:102ED000686C000870B505460E46144617E0284693
:102EE0000830F02803DD002506F1100086B23046D8
:102EF0001030B0F5A07F01DD002500262278314694
:102F00002846FFF7B5FF641C05F1080085B220785C
:102F10000028E4D170BD00B597B00121080200F08F
:102F2000CDFA02200190002002900520039000209D
:102F30000490059006904FF0805007900020089074
:102F4000099008200A9010200B9000200C900E9001
:102F50000F9010904FF48050119000201290139019
:102F6000149001A81590169008A8FFF71DFD0121E7
:102F70000020FFF7FFFC17B000BD70B504460D46FA
:102F800000262C2000F0F0F900BF03E0284600F0F6
:102F9000EFF9761CA642F9D370BD000008B50121F7
:102FA000084600F0ABFA0121602000F0A7FA0320E8
:102FB0008DF8020018208DF803004CF20370ADF874
:102FC000000069462C48FFF7C3FD4FF68070ADF84E
:102FD000000069462948FFF7BBFD03208DF8020079
:102FE00018208DF803001020ADF800006946224833
:102FF000FFF7AEFD2020ADF8000069461E48FFF740
:10300000A7FD0121202000F079FA8020ADF8000012
:1030100069461948FFF79CFD0121202000F06EFA57
:103020004FF40060ADF8000069461348FFF790FDCB
:1030300010208DF8030003208DF8020001214020AC
:1030400000F05CFA0220ADF8000069460B48FFF77B
:103050007FFD10208DF8030003208DF80200012170
:10306000202000F04BFA4FF48050ADF80000694684
:103070000148FFF76DFD08BD001401400018014034
:1030800008B5FFF78BFFFFF746FF0120FFF7FAFDBA
:1030900000F056F900F03CF84FF6FF704FF4A073C3
:1030A000F022002100900846FFF7FEFD08BD2DE943
:1030B000F04104460D4616461F462A2000F054F9FA
:1030C000201200F055F9E0B200F052F9A119491EA2
:1030D000C1F30F2000F04CF9A119491EC8B200F04D
:1030E00047F92B2000F040F9281200F041F9E8B22E
:1030F00000F03EF9E919491EC1F30F2000F038F93C
:10310000E919491EC8B200F033F9BDE8F0810000AA
:1031100010B5CF2000F028F9002000F029F9812017
:1031200000F026F9302000F023F9ED2000F01CF922
:10313000642000F01DF9032000F01AF9122000F0BD
:1031400017F9812000F014F9E82000F00DF985202E
:1031500000F00EF9102000F00BF9782000F008F9CB
:10316000CB2000F001F9392000F002F92C2000F00A
:10317000FFF8002000F0FCF8342000F0F9F80220FD
:1031800000F0F6F8F72000F0EFF8202000F0F0F85B
:10319000EA2000F0E9F8002000F0EAF8002000F052
:1031A000E7F8B12000F0E0F8002000F0E1F81B2083
:1031B00000F0DEF8B62000F0D7F80A2000F0D8F8CA
:1031C000A22000F0D5F8C02000F0CEF8352000F0A5
:1031D000CFF8C12000F0C8F8112000F0C9F8C520D0
:1031E00000F0C2F8452000F0C3F8452000F0C0F818
:1031F000C72000F0B9F8A22000F0BAF8F22000F0E1
:10320000B3F8002000F0B4F8262000F0ADF801205B
:1032100000F0AEF8E02000F0A7F80F2000F0A8F8CA
:10322000262000F0A5F8242000F0A2F80B2000F0E2
:103230009FF80E2000F09CF8092000F099F8542027
:1032400000F096F8A82000F093F8462000F090F8DF
:103250000C2000F08DF8172000F08AF8092000F00B
:1032600087F80F2000F084F8072000F081F8002094
:1032700000F07EF8E12000F077F8002000F078F808
:10328000192000F075F81B2000F072F8042000F0FF
:103290006FF8102000F06CF8072000F069F82A2081
:1032A00000F066F8472000F063F8392000F060F87D
:1032B000032000F05DF8062000F05AF8062000F028
:1032C00057F8302000F054F8382000F051F80F2063
:1032D00000F04EF8362000F047F8C82000F048F81B
:1032E0002A2000F041F8002000F042F8002000F011
:1032F0003FF8002000F03CF8EF2000F039F82B20D8
:1033000000F032F8002000F033F8002000F030F830
:10331000012000F02DF83F2000F02AF83A2000F0BC
:1033200023F8552000F024F8112000F01DF8034880
:10333000FDF77DF8292000F017F810BDFCBF020052
:1033400010B502210648FFF797FC0648FDF76FF815
:1033500002210348FFF792FC0248FDF768F810BD10
:1033600000180140FCBF02004FF0C04108807047C8
:1033700001490880704700000000026008B5012183
:103380004FF0C05000F0AAF8012000F08FF84FF481
:10339000407000F0C9F8012000F0C0F800F040F9DA
:1033A00000F048F900F0D6F83E2000F029F900F0CE
:1033B00037F9002000F016F900F032F94FF6FF70EF
:1033C0001B49088000F02CF94FF6FF701849091DC1
:1033D000088000F025F90121022000F0F3F81448DC
:1033E0001C38008800F0020011491C39088000F0E8
:1033F00017F900F0B9F829208DF8000000208DF8A9
:1034000001008DF8020001208DF80300684600F0ED
:1034100015F803208DF8000000208DF801008DF8CC
:10342000020001208DF80300684600F007F808BD8F
:103430002028004000BFFEE77047000070B5002163
:1034400000230F22C47804B3154C246804F4E0640C
:10345000C4F5E064210AC1F10403CA40447804FAC7
:1034600003F184781440214309010E4C0678A155DC
:10347000047804F01F050124AC4005786D11AD00FF
:1034800005F1E025C5F8004109E0047804F01F05C6
:103490000124AC40044D0678761145F8264070BDF5
:1034A0000CED00E000E400E080E100E0014908628A
:1034B0007047000000000E427047000029B1064A24
:1034C00052690243044B5A6104E0034A5269824341
:1034D000014B5A61704700000010024029B1064AB2
:1034E000D2690243044BDA6104E0034AD2698243A1
:1034F000014BDA61704700000010024029B1064A12
:1035000092690243044B9A6104E0034A9269824340
:10351000014B9A61704700000010024001490860A9
:10352000704700003C0442420249096A0143014AD3
:10353000116270470010024010B5022000F002F83E
:1035400010BD0000024909888143014A118070477B
:10355000042800400348008840F01000014908801A
:103560007047000004280040034800884FF6EF71C0
:1035700008400149088070470428004001460020A7
:10358000064A12880A40D0B2044A121F12880A4022
:1035900012B108B1012000E000207047042800406B
:1035A00010B50220FFF7EAFF012808D10220FFF73B
:1035B000C9FF0348006810B101480068804710BD8A
:1035C0001400002029B1064A12880243044B1A80D5
:1035D00004E0034A12888243014B1A8070470000BE
:1035E0000028004000B50246FFF7B4FF100C034965
:1035F0000880091D0A80FFF7B7FF00BD18280040AA
:1036000000B50246FFF7A6FFC2F303400349088056
:10361000091D0A80FFF7A8FF00BD00000828004030
:1036200000BF0348008800F020000028F9D0704750
:1036300004280040074800884FF6F7710840054904
:10364000088000BF0348008800F008000028F9D077
:103650007047000004280040704710B500F002F8E1
:1036600010BD00000CB500200190009033480068A8
:1036700040F480303149086000BF3048006800F4F1
:10368000003000900198401C0190009818B90198F2
:10369000B0F5A06FF1D12948006800F4003010B1F6
:1036A0000120009001E0002000900098012843D103
:1036B0002348006840F0100021490860084600686F
:1036C00020F0030008600846006840F0020008602F
:1036D0001A484068194948600846406848600846EA
:1036E000406840F4806048600846406820F47C10E0
:1036F00048600846406840F4E810486008460068A2
:1037000040F08070086000BF0C48006800F0007056
:103710000028F9D00948406820F0030007494860B4
:103720000846406840F00200486000BF0348406817
:1037300000F00C000828F9D10CBD00000010024078
:103740000020024010B5044624B1012C11D0022CF7
:103750002DD11DE00121084600F036F9142000F0BB
:10376000CFF80021012000F02FF9142000F0C8F854
:103770001DE00121032000F027F9142000F0C0F81B
:103780000021032000F020F9142000F0B9F80EE029
:103790000121052000F018F9142000F0B1F80021F3
:1037A000052000F011F9142000F0AAF800BF00BFB6
:1037B00010BD014606290FD2DFE801F00E0306080E
:1037C0000A0C4FF4C87007E0C82005E0642003E04D
:1037D000322001E0192000BF00BF7047042808D143
:1037E0004FF0E021096941F004014FF0E02211613E
:1037F00007E04FF0E021096921F004014FF0E022D9
:10380000116170477047000010B51348006840F020
:1038100001001149086008464068104908400E49F7
:103820004860084600680E4908400B490860084691
:10383000006820F4802008600846406820F4FE00FC
:1038400048604FF41F008860FFF707FF4FF00060EB
:103850000449086010BD0000001002400000FFF89D
:10386000FFFFF6FE08ED00E000BFFEE702E008C83B
:10387000121F08C1002AFAD170477047002001E0EA
:1038800001C1121F002AFBD17047000030B5044669
:1038900000250EE0084800F033F80121002000F078
:1038A00093F8054800F02CF80021084600F08CF849
:1038B0006D1CA542EEDB30BDA086010010B56FF097
:1038C0000400FFF78BFF0A4800680A49B0FBF1F0DB
:1038D000094908700846007800EB4001C1EBC010B0
:1038E0004FF6FF7101EAC0000449088010BD0000D6
:1038F0000000002000127A00180000201A000020AA
:103900000146114A12784A434FF0E0235A610022DF
:103910009A611A46126942F001021A6100BF4FF023
:10392000E022106900F001021AB100F48032002A8E
:10393000F5D04FF0E022126922F001024FF0E023AF
:103940001A6100229A6170471800002070B5054680
:10395000052D31D2DFE805F0030C151E27000121EB
:103960001748FFF780F908B1002400E0012423E0A4
:1039700010211448FFF777F908B1002400E0012472
:103980001AE020210F48FFF76EF908B1002400E08B
:10399000012411E040210B48FFF765F908B100242C
:1039A00000E0012408E080210648FFF75CF908B137
:1039B000002400E0012400BF00BF204670BD0000CD
:1039C000000C01400008014008285DD2DFE800F04B
:1039D000040E17232F3B445019B904222B4B1A60B5
:1039E00003E00422294B1B1F1A604DE019B9402245
:1039F000274B5A6102E04022254B1A6144E021B96D
:103A00004FF48042234B1A6004E04FF48042214B74
:103A10001B1F1A6038E021B94FF400421D4B1A6099
:103A200004E04FF400421B4B1B1F1A602CE021B92D
:103A30004FF48052174B1A6004E04FF48052154B3C
:103A40001B1F1A6020E019B98022114B5A6102E055
:103A500080220F4B1A6117E021B94FF400520D4B31
:103A60001A6004E04FF400520A4B1B1F1A600BE06F
:103A700021B94FF48072074B1A6004E04FF4807252
:103A8000044B1B1F1A6000BF00BF704714080140A1
:103A900000100140140C01402DE9F04105460E468E
:103AA00017464FF47A7191FBF6F000EBD071491094
:103AB0000C1F012000EB4400B5FBF0F80FE00121E2
:103AC0003846FFF781FF2046FFF71AFF00213846EE
:103AD000FFF77AFF2046FFF713FFA8F10108B8F1BE
:103AE000000FECD1BDE8F0811FB5FFF7C9FAFEF772
:103AF000CFFFFFF743FCFFF7E1FE0220FFF7C6FE12
:103B0000FCA20A210846FFF7E5F9FFF7E2F802F008
:103B100093FFFE4908600020FD4908600220FD492E
:103B2000086002F073BFFA48006800287ED1FA49A5
:103B30000860F7480068FCF78DFCF6480068FFF75E
:103B4000EBF80120FFF702FF012811D10220FFF757
:103B5000CCF8F0480068052805DAEE480068401CFB
:103B6000EC49086002E00220EA490860FCF768FCC2
:103B70000020FFF7EBFE012811D10220FFF7B5F876
:103B8000E4480068022805DDE2480068401EE1497B
:103B9000086002E00520DF490860FCF751FCDD48C1
:103BA0000068022814D10420FFF7D0FE01280FD1AD
:103BB000D948006860B90120D5490860D549086036
:103BC000D6490860D4490860FCF73AFCFFF781F851
:103BD000D0480068032815D10420FFF7B7FE01285C
:103BE00010D1CD48006868B90220C9490860012099
:103BF000C8490860CA490860C7490860FCF720FC4A
:103C0000FFF767F8C3480068042814D1FFF79EFE49
:103C1000012810D1C048006868B90320BC49086079
:103C20000120BC490860BC49086000E01BE0FCF7CB
:103C300007FCFFF74EF8B7480068052813D10420A9
:103C4000FFF784FE01280ED1B348006858B904205C
:103C5000AF4908600120AF490860AF490860FCF730
:103C6000EFFBFFF736F8AA48006801287ED1002054
:103C7000A9490860A6480068FCF7ECFBA548006865
:103C8000FFF74AF80120FFF761FE012810D1FFF786
:103C90002CF8A0480068032805DA9E480068401CFC
:103CA0009C49086002E001209A490860FCF7C8FBC3
:103CB0000020FFF74BFE012810D1FFF716F89548BA
:103CC0000068012805DD93480068401E914908609E
:103CD00002E003208F490860FCF7B2FB8D480068C2
:103CE000012820D10420FFF731FE01281BD18A488A
:103CF0000068C0B96F2086490860022085490860C5
:103D0000012085490860874800688749086087481E
:103D10000068874908608748006887490860FCF7A1
:103D20008FFBFEF7D6FF7B480068022814D10420E1
:103D3000FFF70CFE01280FD17748006860B97920A1
:103D400073490860022073490860012072490860C5
:103D5000FCF776FBFEF7BDFF6E480068032819D11B
:103D60000420FFF7F3FD012814D100E012E06A48B7
:103D7000006878B90020664908600220654908603B
:103D8000002066490860012063490860FCF758FB81
:103D9000FEF79FFF5E4800686F287DD100205E49D6
:103DA00008605B480068FCF755FB5A480068FEF75E
:103DB000B3FF0120FFF7CAFD012811D10220FEF751
:103DC00094FF54480068062805DA52480068401CF1
:103DD0005049086002E002204E490860FCF730FBC1
:103DE0000020FFF7B3FD012811D10220FEF77DFF6F
:103DF00048480068022805DD46480068401E4549DD
:103E0000086002E0062043490860FCF719FB002027
:103E1000FFF79CFD90B90120FFF798FD70B90220D3
:103E2000FFF794FD50B90320FFF790FD30B904204F
:103E3000FFF78CFD10B941484149086035480068DA
:103E4000022830D1FFF782FD01282CD136480068C6
:103E5000002828DD34480068401E334908600846C1
:103E600000683049086000230A221946184602F00B
:103E7000EDFD33480068FFF743FD314800680A282C
:103E800011DD2F480068FCF7F3F92E4A2E4BCDE9DF
:103E90000001FCF77BF900E077E1CDE90201FCF7D6
:103EA000F8F9274908601B48006802285ED1032002
:103EB000FFF74CFD012859D11B48006842F20F71F1
:103EC000884253DA18480068401C174908600846C1
:103ED00000681449086000230A221946012002F0F4
:103EE000B5FD17480068FFF70BFD154800680A2864
:103EF0003CDD2BE0496E697469616C697A65696EB5
:103F000067202E2E2E202E2E2E000000E8000020EE
:103F10003400002038000020F80000203C00002081
:103F20004000002094000020440000209800002061
:103F3000480000209C0000204C00002020A1070029
:103F4000000100209A9999999999E93FFE480068E3
:103F5000FCF78EF9FD4AFE4BCDE90001FCF716F99E
:103F6000CDE90201FCF795F9F7490860F9480068C6
:103F700003282FD10220FFF7E9FC01282AD1F648B7
:103F80000068002826DDF4480068401EF2490860F9
:103F900008460068F149086001231A4600210846D6
:103FA00002F054FDE8480068FFF7AAFCE648006804
:103FB0000A280FDDE4480068FCF75AF9E34AE44BAD
:103FC000CDE90001FCF7E2F8CDE90201FCF761F967
:103FD000DD490860DF480068032830D1FFF7B6FCF0
:103FE00001282CD1DC48006842F20F71884226DAA1
:103FF000D9480068401CD849086008460068D7497D
:10400000086001231A460021184602F01FFDCE4821
:104010000068FFF775FCCC4800680A280FDDCA4825
:104020000068FCF725F9C94AC94BCDE90001FCF746
:10403000ADF8CDE90201FCF72CF9C3490860C54889
:10404000006804282FD10220FFF780FC01282AD124
:10405000C3480068002826DDC1480068401EC049EA
:10406000086008460068BF49086002230122002159
:10407000084602F0EBFCB4480068FFF741FCB24888
:1040800000680A280FDDB0480068FCF7F1F8AF4A75
:10409000AF4BCDE90001FCF779F8CDE90201FCF75F
:1040A000F8F8A9490860AB480068042831D103201A
:1040B000FFF74CFC01282CD1A948006842F20F718F
:1040C000884226DAA6480068401CA54908600846D0
:1040D0000068A4490860022301220021104602F072
:1040E000B5FC99480068FFF70BFC974800680A2860
:1040F0000FDD95480068FCF7BBF8944A944BCDE976
:104100000001FCF743F8CDE90201FCF7C2F88E4943
:10411000086090480068052820D10420FFF716FCAD
:1041200001281BD190480068C0B970208F490860F1
:104130000220884908608E4800688E4908608748D8
:1041400000688D490860874800688C490860012034
:1041500085490860FCF774F9FEF7BBFD7D480068EF
:10416000062812D10420FFF7F1FB01280DD17E486B
:10417000006850B901207D490860764908607A4995
:104180000860FCF75DF9FEF7A4FD78480068702828
:104190007DD100207449086074480068FCF75AF922
:1041A0006C480068FEF7B8FD0120FFF7CFFB01283F
:1041B00011D10220FEF799FD66480068062805DA4D
:1041C00064480068401C6349086002E002206149BD
:1041D0000860FCF735F90020FFF7B8FB012811D182
:1041E0000220FEF782FD5B480068022805DD594881
:1041F0000068401E5749086002E0062055490860E3
:10420000FCF71EF90020FFF7A1FB90B90120FFF792
:104210009DFB70B90220FFF799FB50B90320FFF70F
:1042200095FB30B90420FFF791FB10B9544846497B
:10423000086048480068022830D1FFF787FB012852
:104240002CD14C480068002828DD4A480068401EF0
:1042500048490860084600684549086000230A226A
:104260001946184602F0F2FB37480068FFF748FB92
:10427000354800680A2811DD33480068FBF7F8FF6D
:10428000324A334BCDE90001FBF780FF00E0ADE19E
:10429000CDE90201FBF7FDFF2B4908602D480068BE
:1042A000022831D10320FFF751FB01282CD13148DE
:1042B000006842F20F71884226DA2E480068401CDE
:1042C0002C490860084600682949086000230A2232
:1042D0001946012002F0BAFB1B480068FFF710FBEB
:1042E000194800680A280FDD17480068FBF7C0FF6F
:1042F000164A174BCDE90001FBF748FFCDE9020153
:10430000FBF7C7FF104908601248006803284FD127
:104310000220FFF71BFB01284AD11748006800283C
:1043200046DD15480068401E1349086008460068CD
:104330000A49086001231A460021084602F086FB5C
:10434000014800681EE00000000100209A99999938
:104350009999E93F3800002048000020980000208B
:104360004C0000209C000020F800002034000020B9
:10437000940000205000002054000020580000202D
:1043800020A10700FFF7BCFAFD4800680A280FDDEE
:10439000FB480068FBF76CFFFA4AFB4BCDE90001D4
:1043A000FBF7F4FECDE90201FBF773FFF449086067
:1043B000F6480068032830D1FFF7C8FA01282CD14D
:1043C000F348006842F20F71884226DAF04800682C
:1043D000401CEF49086008460068EE490860012368
:1043E0001A460021184602F031FBE5480068FFF745
:1043F00087FAE34800680A280FDDE1480068FBF708
:1044000037FFE04AE04BCDE90001FBF7BFFECDE905
:104410000201FBF73EFFDA490860DC480068042827
:104420002FD10220FFF792FA01282AD1DA4800683A
:10443000002826DDD8480068401ED7490860084695
:104440000068D6490860022301220021084602F0D4
:10445000FDFACB480068FFF753FAC94800680A28FC
:104460000FDDC7480068FBF703FFC64AC64BCDE91E
:104470000001FBF78BFECDE90201FBF70AFFC04903
:104480000860C2480068042831D10320FFF75EFAB3
:1044900001282CD1C048006842F20F71884226DA08
:1044A000BD480068401CBC49086008460068BB491C
:1044B0000860022301220021104602F0C7FAB0482A
:1044C0000068FFF71DFAAE4800680A280FDDAC4807
:1044D0000068FBF7CDFEAB4AAB4BCDE90001FBF723
:1044E00055FECDE90201FBF7D4FEA5490860A748B7
:1044F0000068052818D10420FFF728FA012813D1F5
:10450000A748006801280FD1A648006860B971204B
:10451000A549086002209D4908600120A149086062
:10452000FBF78EFFFEF7D5FB98480068052818D1E9
:104530000420FFF70BFA012813D19C4800680128DA
:104540000FD19848006860B9DF20974908600220C1
:104550008E490860012093490860FBF771FFFEF760
:10456000B8FB8A480068062840D10420FFF7EEF91E
:1045700001283BD18B480068C0BB6F208A49086086
:10458000022082490860012086490860FBF758FF35
:10459000FEF79FFB8648006886490968401A039029
:1045A000002801DB039801E003984042824908603B
:1045B0000846006800EB80004000804908607C48A5
:1045C00000687C490968884203DD01207C49086055
:1045D00002E000207A4908607A4800686C4909685E
:1045E000401A0390002802DB039802E057E003988A
:1045F000404275490860084600687449086071487F
:10460000006863490968884203DD01207049086039
:1046100002E000206E4908606E4800685E49096843
:10462000401A0390002801DB039801E00398404200
:10463000694908600846006868490860654800687C
:1046400055490968884203DD01206549086002E098
:1046500000206349086000235848194602685848FA
:10466000006802F0F3F9524800685E4908600123CF
:104670005648002102685648006802F0E7F95148A0
:1046800000684449086002235448002102685448E5
:10469000006802F0DBF94F48006840490860424872
:1046A000006871286BD100203E4908603E480068D0
:1046B000FBF7D0FE35480068FEF72EFB0120FFF720
:1046C00045F9012811D10220FEF70FFB2F480068A1
:1046D000062805DA2D480068401C2C49086002E0D5
:1046E00002202A490860FBF7ABFE0020FFF72EF9F5
:1046F000012811D10220FEF7F8FA244800680228A8
:1047000005DD22480068401E2049086002E00620BE
:104710001E490860FBF794FE0020FFF717F990B9D7
:104720000120FFF713F970B90220FFF70FF950B914
:104730000320FFF70BF930B90420FFF707F910B990
:1047400029480F4908601148006802285ED1FFF728
:10475000FDF801285AD125480068002856DD234875
:104760000068401E2149086005480068FFF7C8F846
:10477000034800680A2849DD0148006838E0DAE1AA
:10478000000100209A9999999999E93F38000020F1
:104790005400002098000020580000209C000020B9
:1047A0003C000020F80000203400002040000020E1
:1047B00044000020500000207C00002088000020E1
:1047C0006800002048000020800000208C000020AD
:1047D0006C0000204C00002084000020900000208D
:1047E000700000209400002020A107005C00002041
:1047F000FBF73EFDF54AF64BCDE90001FBF7C6FCA1
:10480000CDE90201FBF745FDF2490860F248006876
:10481000022827D10320FFF799F8012822D1EF4879
:10482000006842F20F7188421CDAEC480068401CB4
:10483000EA490860E7480068FFF762F8E548006861
:104840000A280FDDE3480068FBF712FDDF4AE04B62
:10485000CDE90001FBF79AFCCDE90201FBF719FD58
:10486000DC490860DC480068032825D10220FFF7F6
:104870006DF8012820D1DA48006800281CDDD848EE
:104880000068401ED6490860D2480068FFF738F833
:10489000D04800680A280FDDCE480068FBF7E8FC26
:1048A000CA4ACB4BCDE90001FBF770FCCDE9020110
:1048B000FBF7EFFCC7490860C7480068032826D10A
:1048C000FFF744F8012822D1C548006842F20F7171
:1048D00088421CDAC2480068401CC1490860BD48D3
:1048E0000068FFF70DF8BB4800680A280FDDB948DB
:1048F0000068FBF7BDFCB54AB54BCDE90001FBF7FD
:1049000045FCCDE90201FBF7C4FCB2490860B2489E
:104910000068042825D10220FFF718F8012820D1CB
:10492000B048006800281CDDAE480068401EAD4954
:104930000860A8480068FEF7E3FFA64800680A2858
:104940000FDDA4480068FBF793FCA04AA04BCDE91B
:104950000001FBF71BFCCDE90201FBF79AFC9D4926
:1049600008609D480068042827D10320FEF7EEFF69
:10497000012822D19B48006842F20F7188421CDA5C
:1049800098480068401C9749086092480068FEF704
:10499000B7FF904800680A280FDD8E480068FBF7D3
:1049A00067FC8A4A8A4BCDE90001FBF7EFFBCDE9B2
:1049B0000201FBF76EFC87490860874800680528FC
:1049C00046D10420FEF7C2FF012841D18648006885
:1049D000F0BB72208549086004207F4908600120EF
:1049E00081490860FBF72CFD7D4800687D49096816
:1049F00008447A49096848437D49086008460068C8
:104A00007C4908607C4800687C490968401A03902A
:104A1000002801DB039801E00398404278490860D0
:104A2000084600686D49096890FBF1F07549086017
:104A30000846006800EB80004000734908606E483B
:104A400000686E490968884205DD01206F4900E071
:104A500058E0086002E000206C4908606C4800687B
:104A60006C490968401A0390002801DB039801E0B3
:104A70000398404268490860084600685749096839
:104A800090FBF1F0654908605E4800686449086081
:104A90005F4800685F490968884203DD0120614979
:104AA000086002E000205F4908605F4800685F49D5
:104AB0000968401A0390002801DB039801E003987D
:104AC00040425B490860084600684449096890FB19
:104AD000F1F0584908600846006857490860524894
:104AE000006852490968884203DD01205349086083
:104AF00002E000205149086001F09EFF5049086023
:104B0000FEF7E7F834480068062814D10420FEF7C1
:104B10001DFF01280FD13448006860B97020334967
:104B2000086002202C49086001202F490860FBF72B
:104B300087FCFEF7CEF82D480068792845D1002083
:104B40002949086029480068FBF784FC224800686E
:104B5000FEF7E2F80120FEF7F9FE01281BD1022042
:104B6000FEF7C3F81C480068082805DA1A480068F0
:104B7000801C194908600CE017480068082805D116
:104B800015480068401C1449086002E002201249E0
:104B90000860FBF755FC0020FEF7D8FE012858D12D
:104BA0000220FEF7A2F80C480068022803D1092071
:104BB000094908604BE008480068092842DA0648BD
:104BC0000068801E0449086041E08AE19A99999939
:104BD0009999E93F00010020380000205C00002086
:104BE0006000002064000020F80000203400002055
:104BF00074000020780000204400002050000020B5
:104C00007C000020CC0000208800002068000020EC
:104C1000480000205400002080000020D000002028
:104C20008C0000206C0000204C0000205800002068
:104C300084000020D400002090000020700000209C
:104C4000F0000020FE480068401EFD490860FBF7A8
:104C5000F7FB0020FEF77AFE90B90120FEF776FE02
:104C600070B90220FEF772FE50B90320FEF76EFE07
:104C700030B90420FEF76AFE10B9F248F249086024
:104C8000EF480068022824D1FEF760FE012820D1F9
:104C9000EE48006800281CDDEC480068401EEB4927
:104CA0000860E9480068FEF72BFEE74800680A281C
:104CB0000FDDE5480068FBF7DBFAE54AE54BCDE997
:104CC0000001FBF763FACDE90201FBF7E2FADE49E6
:104CD0000860DB480068022827D10320FEF736FE73
:104CE000012822D1D948006842F20F7188421CDAAB
:104CF000D6480068401CD5490860D3480068FEF7D4
:104D0000FFFDD14800680A280FDDCF480068FBF797
:104D1000AFFACF4ACF4BCDE90001FBF737FACDE927
:104D20000201FBF7B6FAC8490860C54800680428C4
:104D300025D10220FEF70AFE012820D1C6480068CE
:104D400000281CDDC4480068401EC3490860BE48F6
:104D50000068FEF7D5FDBC4800680A280FDDBA4898
:104D60000068FBF785FABA4ABA4BCDE90001FBF7B8
:104D70000DFACDE90201FBF78CFAB3490860B0489F
:104D80000068042827D10320FEF7E0FD012822D186
:104D9000B148006842F20F7188421CDAAE480068E0
:104DA000401CAD490860A8480068FEF7A9FDA64868
:104DB00000680A280FDDA4480068FBF759FAA44AE6
:104DC000A44BCDE90001FBF7E1F9CDE90201FBF7C6
:104DD00060FA9D4908609A480068062825D102209B
:104DE000FEF7B4FD012820D19C48006800281CDD96
:104DF0009A480068401E9949086093480068FEF789
:104E00007FFD914800680A280FDD8F480068FBF796
:104E10002FFA8F4A8F4BCDE90001FBF7B7F9CDE9A7
:104E20000201FBF736FA88490860854800680628C1
:104E300027D10320FEF78AFD012822D18748006888
:104E400042F20F7188421CDA84480068401C834992
:104E500008607D480068FEF753FD7B4800680A281B
:104E60000FDD79480068FBF703FA794A794BCDE901
:104E70000001FBF78BF9CDE90201FBF70AFA724951
:104E800008606F480068082814D10420FEF75EFD12
:104E900001280FD17248006860B97A207149086012
:104EA00002206749086001206D490860FBF7C8FAD5
:104EB000FDF70FFF62480068092812D10420FEF7B1
:104EC00045FD01280DD16648006850B901206549AB
:104ED00008605B49086062490860FBF7B1FAFDF7BA
:104EE000F8FE604800687A287ED100205C4908609E
:104EF0005C480068FBF7AEFA51480068FDF70CFF0C
:104F00000120FEF723FD01281BD10220FDF7EDFE55
:104F10004B480068082805DA49480068801C484961
:104F200008600CE046480068082805D1444800683D
:104F3000401C4349086002E0022041490860FBF739
:104F40007FFA0020FEF702FD01281BD10220FDF7A9
:104F5000CCFE3B480068022803D10920384908608C
:104F60000EE037480068092805DA35480068801ED9
:104F70003349086004E032480068401E3049086048
:104F8000FBF75EFA0020FEF7E1FC90B90120FEF786
:104F9000DDFC70B90220FEF7D9FC50B90320FEF702
:104FA000D5FC30B90420FEF7D1FC10B925482649BC
:104FB000086023480068022826D1FEF7C7FC0128B4
:104FC00022D12948006800281EDD27480068401EBD
:104FD000254908601C480068FEF792FC1A480068E2
:104FE0000A2811DD184800E0ADE20068FBF740F93F
:104FF000174A184BCDE90001FBF7C8F8CDE90201CB
:10500000FBF747F9104908600D48006802283ED1B7
:105010000320FEF79BFC012839D11348006842F2B7
:105020000F71884233DA10480068401C0E4908604E
:1050300005480068FEF764FC034800680A2815E08C
:105040003800002020A107000001002050000020AF
:105050009A9999999999E93F5400002058000020A5
:10506000F800002034000020440000200FDDFE483E
:105070000068FBF7FDF8FD4AFD4BCDE90001FBF7A9
:1050800085F8CDE90201FBF704F9F7490860F94812
:105090000068042825D10220FEF758FC012820D101
:1050A000F548006800281CDDF3480068401EF249FE
:1050B0000860ED480068FEF723FCEB4800680A280A
:1050C0000FDDE9480068FBF7D3F8E84AE84BCDE983
:1050D0000001FBF75BF8CDE90201FBF7DAF8E249E2
:1050E0000860E4480068042827D10320FEF72EFC5E
:1050F000012822D1E048006842F20F7188421CDA90
:10510000DD480068401CDC490860D7480068FEF7AD
:10511000F7FBD54800680A280FDDD3480068FBF785
:10512000A7F8D24AD24BCDE90001FBF72FF8CDE921
:105130000201FBF7AEF8CC490860CE4800680628AB
:1051400025D10220FEF702FC012820D1CB480068BF
:1051500000281CDDC9480068401EC8490860C248D4
:105160000068FEF7CDFBC04800680A280FDDBE4886
:105170000068FBF77DF8BD4ABD4BCDE90001FBF7A8
:1051800005F8CDE90201FBF784F8B7490860B94892
:105190000068062827D10320FEF7D8FB012822D17A
:1051A000B648006842F20F7188421CDAB3480068C2
:1051B000401CB2490860AC480068FEF7A1FBAA4851
:1051C00000680A280FDDA8480068FBF751F8A74AD5
:1051D000A74BCDE90001FAF7D9FFCDE90201FBF7B2
:1051E00058F8A1490860A348006808283CD1042069
:1051F000FEF7ACFB012837D1A1480068012833D164
:10520000A048006880BB7B209F4908600220994924
:10521000086001209B490860FBF712F9FDF759FD72
:105220009AA20A210846FDF755FE9F4800689F494B
:105230000968401A0390002801DB039801E00398F5
:1052400040429B4908600846006800EB800040002F
:10525000984908609448006894490968884204DDC8
:1052600001209549086003E068E000209249086049
:105270009248006892490968401A0390002801DBAF
:10528000039801E0039840428E4908600846006890
:105290008D4908608948006889490968884203DDAA
:1052A00001208A49086002E0002088490860884897
:1052B000006888490968401A0390002801DB0398B8
:1052C00001E0039840428449086008460068834929
:1052D00008607F4800687F490968884203DD012033
:1052E0007F49086002E000207D4908600023714882
:1052F000194602687048006801F0A8FB0123724853
:10530000002102687148006801F0A0FB0223734885
:10531000002102687248006801F098FB6348006849
:105320006149086066480068644908606948006827
:1053300067490860FBF784F8FDF7CBFC4D4800682F
:1053400008283CD10420FEF701FB012837D165482D
:105350000068012833D14B48006880BBDF204A49F0
:105360000860022043490860012046490860FBF7B5
:1053700067F8FDF7AEFC45A20A210846FDF7AAFD35
:105380004948006849490968401A0390002801DB30
:10539000039801E0039840424549086008460068C8
:1053A00000EB80004000434908603F4800683F49E7
:1053B0000968884204DD01203F49086003E0A9E054
:1053C00000203D4908603D4800683D490968401A91
:1053D0000390002801DB039801E00398404239491B
:1053E0000860084600683849086034480068344955
:1053F0000968884203DD01203449086002E000208A
:10540000324908603248006832490968401A0390FE
:10541000002801DB039801E0039840422E49086010
:10542000084600682D49086029480068294909682C
:10543000884203DD01202A49086002E00020284953
:10544000086000231B48194602681B48006801F0E9
:10545000FDFA01231C48002102681C48006801F085
:10546000F5FA02231D483FE0000100209A9999991E
:105470009999E93F38000020480000204C000020A6
:105480003C000020F800002034000020536C6577B9
:10549000696E6720746F20737461727420706F730B
:1054A0006974696F6E0000009400002050000020B5
:1054B0007C00002088000020680000209800002068
:1054C00054000020800000208C0000206C00002090
:1054D0009C00002058000020840000209000002044
:1054E000700000204000002000210268FB48006896
:1054F00001F0ACFAFA480068FA490860FA48006816
:10550000FA490860FA480068FA490860FAF798FF13
:10551000FDF7DFFBF8480068092814D10420FEF7E6
:1055200015FA01280FD1F548006860B97A20F449CE
:1055300008600220F04908600120F0490860FAF78D
:105540007FFFFDF7C6FBEE4800687B287ED1002078
:10555000EA490860EA480068FAF77CFFE648006814
:10556000FDF7DAFB0120FEF7F1F9012811D1022045
:10557000FDF7BBFBE0480068062805DADE48006856
:10558000401CDD49086002E00220DB490860FAF7B0
:1055900057FF0020FEF7DAF9012811D10220FDF7AC
:1055A000A4FBD5480068022805DDD3480068401EEA
:1055B000D149086002E00620CF490860FAF740FFB1
:1055C0000020FEF7C3F990B90120FEF7BFF970B9CA
:1055D0000220FEF7BBF950B90320FEF7B7F930B946
:1055E0000420FEF7B3F910B9C648C7490860C2489D
:1055F0000068022824D1FEF7A9F9012820D1C34868
:10560000006800281CDDC1480068401EBF490860D2
:10561000BD480068FEF774F9BB4800680A280FDD32
:10562000B9480068FAF724FEB94ABA4BCDE900013F
:10563000FAF7ACFDCDE90201FAF72BFEB24908609A
:10564000AD480068022829D1032000E0C8E1FEF738
:105650007DF9012822D1AD48006842F20F718842DD
:105660001CDAAA480068401CA8490860A6480068DF
:10567000FEF746F9A44800680A280FDDA248006832
:10568000FAF7F6FDA24AA34BCDE90001FAF77EFD39
:10569000CDE90201FAF7FDFD9B49086096480068D4
:1056A000032825D10220FEF751F9012820D19A487C
:1056B000006800281CDD98480068401E9649086074
:1056C00091480068FEF71CF98F4800680A280FDD32
:1056D0008D480068FAF7CCFD8D4A8E4BCDE900016C
:1056E000FAF754FDCDE90201FAF7D3FD86490860C7
:1056F00081480068032826D1FEF728F9012822D125
:105700008548006842F20F7188421CDA82480068BE
:10571000401C814908607C480068FEF7F1F87A482F
:1057200000680A280FDD78480068FAF7A1FD784A7A
:10573000784BCDE90001FAF729FDCDE90201FAF72E
:10574000A8FD714908606C480068042825D1022032
:10575000FEF7FCF8012820D17048006800281CDD05
:105760006E480068401E6D49086067480068FEF793
:10577000C7F8654800680A280FDD63480068FAF733
:1057800077FD634A634BCDE90001FAF7FFFCCDE9F1
:105790000201FAF77EFD5C4908605748006804285A
:1057A00027D10320FEF7D2F8012822D15B480068F8
:1057B00042F20F7188421CDA58480068401C574971
:1057C000086051480068FEF79BF84F4800680A28B7
:1057D0000FDD4D480068FAF74BFD4D4A4D4BCDE9C2
:1057E0000001FAF7D3FCCDE90201FAF752FD464970
:1057F000086041480068052846D10420FEF7A6F855
:10580000012841D13D480068F0BB72203C49086046
:10581000042039490860012038490860FAF710FE71
:105820003D4800683D4909680844384909684843CB
:105830003B490860084600683A4908603A480068F1
:1058400027490968401A0390002801DB039801E00A
:105850000398404235490860084600682B490968AA
:1058600090FBF1F0324908600846006800EB8000C8
:105870004000304908602C4800681949096888428E
:1058800005DD01202C4900E092E0086002E00020E4
:10589000294908602948006813490968401A03909B
:1058A000002801DB039801E0039840422449086086
:1058B000084600681549096890FBF1F02149086025
:1058C00008460068204908601C48006806490968C5
:1058D00088423DDD01201D4908603CE07000002049
:1058E0005000002094000020540000209800002068
:1058F000580000209C00002038000020F800002004
:105900003400002020A10700000100205C000020DE
:105910009A9999999999E93F6000002064000020C4
:105920007400002078000020440000207C0000204B
:10593000CC000020880000206800002048000020E3
:1059400080000020D00000208C0000206C0000208F
:105950000020FE490860FE480068FE490968401AB8
:105960000390002801DB039801E003984042FA49C4
:10597000086008460068F949096890FBF1F0F849A9
:10598000086008460068F7490860F1480068F14976
:105990000968884203DD0120F349086002E0002025
:1059A000F149086001F048F8F0490860FDF791F905
:1059B000EF480068062813D10420FDF7C7FF01282F
:1059C0000ED1EC48006858B97A20EB4908600120F4
:1059D000E7490860E7490860FAF732FDFDF779F911
:1059E000E548006872287DD10020E249086001F096
:1059F00023F8E249086008460068DC490968401A53
:105A0000B0F57A7F08DDDE480068401EDC4908609A
:105A100001F012F8D5490860D7480068FAF71AFD76
:105A2000D3480068FDF778F90120FDF78FFF0128C2
:105A300011D10320FDF759F9CD480068052805DA92
:105A4000CB480068401CCA49086002E00420C849ED
:105A50000860FAF7F5FC0020FDF778FF012811D166
:105A60000320FDF742F9C2480068042805DDC0485C
:105A70000068401EBE49086002E00520BC4908607D
:105A8000FAF7DEFCBA48006803281ED10420FDF7AF
:105A90005DFF012819D1B7480068B0B9B94800685E
:105AA000012804D101F018F80120B649086040F23D
:105AB0007640B14908600320AD4908600120AD4936
:105AC0000860FAF7BDFCFDF704F9A948006804284E
:105AD0001CD1FDF73BFF012818D1A6480068A8B9E2
