:020000040800F2
:100000003005002045010008ED330008352C0008BC
:10001000E933000805040008F93700080000000073
:100020000000000000000000000000000D36000885
:1000300009040008000000006D340008973700082C
:100040005F0100085F0100085F01000855350008E6
:100050005F0100085F0100085F0100085F01000800
:100060005F0100085F0100085F0100085F010008F0
:100070005F0100085F0100085F0100085F010008E0
:100080005F0100085F0100085F0100085F010008D0
:100090005F0100085F0100085F0100085F010008C0
:1000A0005F0100085F0100085F0100085F010008B0
:1000B0005F0100085F0100085F0100085F010008A0
:1000C0005F0100085F0100085F0100085F01000890
:1000D0005F0100085F0100085F0100085F01000880
:1000E0005F010008ED3400085F0100085F010008AF
:1000F0005F0100085F0100085F0100085F01000860
:100100005F0100085F0100085F0100085F0100084F
:100110005F0100085F0100085F0100085F0100083F
:100120005F0100085F0100085F0100085F0100082F
:10013000DFF80CD000F028F9004800479539000896
:10014000300500200648804706480047FEE7FEE7E6
:10015000FEE7FEE7FEE7FEE7FEE7FEE7FEE7FEE777
:1001600099370008310100082DE9FE4F81EA0304A8
:1001700004F0004421F0004100944FF0000B23F004
:10018000004350EA01045ED052EA03045BD0C3F39B
:100190000A54C1F30A552C44A4F2F3340194A0FB91
:1001A0000254C1F3130141F48011C3F3130343F468
:1001B000801301FB024400FB034E840A970A44EAC1
:1001C000815447EA8357A4FB076802958D0A05FB13
:1001D00007854FEA932C04FB0C542705029D4FEA38
:1001E000065847EA1637B5EB08056EEB070C870E85
:1001F000920E47EA811742EA8312A7FB0201B6EB8F
:100200000B0164EB00042B0D43EA0C335E1844EB46
:100210001C50DA465146E7FB0201C5F313044FEACE
:100220000B3343EA14534FEA0432019C43EA0603BA
:10023000A4F10C040294009CCDE900B400F055F840
:1002400003B0BDE8F08F00200146F9E70EB5C10FFD
:1002500080EAE0700844CA07002140F233438DE889
:100260000E000A460B4600F040F803B000BD70B522
:10027000C1F30A5201F000450024C1F3130140F21A
:10028000FF3341F480119A4201DA002070BD40F240
:1002900033439A42A2F2334203DC524200F006F8A2
:1002A00000E090402C43F1D0404270BD202A04DB96
:1002B000203A21FA02F00021704721FA02F3D040DF
:1002C000C2F12002914008431946704710B5141E30
:1002D00073F1000408DA401C41F1000192185B41FF
:1002E0001A4301D120F0010010BD2DE9F04D9246D6
:1002F0009B4611B1B1FA81F202E0B0FA80F22032ED
:10030000904600F053F804460F4640EA0A0041EADE
:100310000B0153465A46084313D0114653EA0100D5
:1003200019D0C8F140025046FFF7C0FF05460E46FF
:1003300050465946424600F039F8084305D001209E
:1003400004E020463946BDE8F08D0020054346EA2A
:10035000E0762C4337430A986305E40AA0EB0800D3
:100360000022FD0A44EA47540A3002D50020014623
:10037000E9E7010510196941DDE9084500196941FE
:10038000BDE8F04DA2E70000064C074D06E0E0682E
:1003900040F0010394E8070098471034AC42F6D3CC
:1003A000FFF7CAFEF067000810680008202A04DB87
:1003B000203A00FA02F1002070479140C2F1200378
:1003C00020FA03F319439040704730B58C1810F8A9
:1003D000012B12F00F0301D110F8013B120906D1D5
:1003E00010F8012B03E010F8015B01F8015B5B1EC4
:1003F000F9D101E001F8013B521EFBD1A142E6D345
:10040000002030BD00BFFEE7704701B502E0009854
:10041000401E009000980028F9D108BD00B50120C9
:1004200003F0FCF9014800F003F800BD20A107002B
:1004300007E0022100E000BF0A1EA1F10101FAD18C
:1004400000BF011EA0F10100F3D1704710B50446B2
:100450002046722C7ED015DC042802F05A820ADC79
:1004600070B3012842D0022801F00A85032842F027
:100470005C8202F042B96F284DD070286BD0712891
:10048000F5D10FE3DF2801F014850CDC792801F0A9
:1004900038827A2801F056837B2801F0B980DD2864
:1004A000E5D102F0FDB8E02801F03085A0F27640F9
:1004B00000287DD0A0F24C400028D8D101F01BBF0D
:1004C000F1A20A21142002F0DFFCF3A21E21142065
:1004D00002F0DAFCF3A23221142002F0D5FCF4A2DF
:1004E0004621142002F0D0FC02F01FBAE6A20A2135
:1004F000084602F0C9FCF1A21E21142002F0C4FC3F
:10050000F3A23221142002F0BFFCF8A246211420ED
:1005100002F0BAFCE8E7F7A20A21084602F0B4FCB0
:10052000FBA21E210A2002F0AFFCFEA23221142001
:1005300002F0AAFCFE4800684FF47A7190FBF1F0DB
:100540000A2190FBF1F201FB12003030F9490870EA
:10055000F74801E0B9E3F1E00068642190FBF1F0B5
:100560000A2190FBF1F201FB12003030F2490870D1
:10057000EF4800680A2190FBF1F090FBF1F201FBDB
:1005800012003030ED490870E94800680A2190FBFC
:10059000F1F201FB12003030E9490870E5480278B9
:1005A0003221642002F03EFCE3480278322100E070
:1005B000FEE36E2002F036FCE0480278322178201B
:1005C00002F030FCDE4802783221822002F02AFC60
:1005D000DCA232218C2002F057FCDBA24621142041
:1005E00002F052FCDB4800684FF47A7190FBF1F0A6
:1005F0000A2190FBF1F201FB12003030D64908705D
:10060000D4480068642190FBF1F00A2190FBF1F2DC
:1006100001FB12003030D1490870CE4800680A2131
:1006200090FBF1F090FBF1F201FB12003030CC496D
:100630000870C84800680A2190FBF1F201FB120023
:100640003030C8490870C44802784621642002F05E
:10065000E9FBC248027846216E2002F0E3FBC04865
:1006600002784621782002F0DDFBBE480278462160
:10067000822002F0D7FBB3A246218C2002F004FCBA
:10068000B9A25A21142002F0FFFBBA4800684FF4C7
:100690007A7190FBF1F00A2190FBF1F201FB12005C
:1006A0003030B5490870B3480068642190FBF1F020
:1006B0000A2190FBF1F201FB12003030AF490870C3
:1006C000AC4800680A2190FBF1F090FBF1F201FBCD
:1006D00012003030AA490870A64800680A2190FB31
:1006E000F1F201FB12003030A6490870A2480278EE
:1006F0005A21642002F096FBA04802785A216E200D
:1007000002F090FB9E4802785A21782002F08AFB82
:100710009C4802785A21822002F084FB89A25A2147
:100720008C2002F0B1FB98A26E21142002F0ACFBE9
:100730006EA28221142002F0A7FBD5E66DA20A2149
:10074000084602F0A1FB91A21E210A2002F09CFBA8
:1007500074A23221142002F097FB914800684FF4F4
:100760007A7190FBF1F00A2190FBF1F201FB12008B
:1007700030308C4908708A480068642190FBF1F0A1
:100780000A2190FBF1F201FB12003030864908701B
:10079000834800680A2190FBF1F090FBF1F201FB25
:1007A00012003030814908707D4800680A2190FBB2
:1007B000F1F201FB120030307D490870794802786F
:1007C0003221642002F02EFB7748027832216E201D
:1007D00002F028FB754802783221782002F022FBD3
:1007E000734802783221822002F01CFB55A232218C
:1007F0008C2002F049FB54A24621142002F044FB55
:100800006C4800684FF47A7190FBF1F00A2190FB7C
:10081000F1F201FB1200303067490870654800684A
:10082000642190FBF1F00A2190FBF1F201FB120030
:100830003030624908705F4800680A2190FBF1F08F
:1008400090FBF1F201FB120030305D49087059480D
:1008500000680A2190FBF1F201FB12003030594987
:100860000870554802784621642002F0DBFA5348AC
:10087000027846216E2002F0D5FA514802784621CE
:10088000782002F0CFFA9FE054696D65204C6170CA
:100890007365204D6F646500566964656F204D6F08
:1008A000646500004D616E75616C204D6F6465007C
:1008B00053657474696E677300000000496E746557
:1008C00072616374697665204D6F64650000000095
:1008D000496E70757420506172616D6574657273D4
:1008E000204D616E75616C6C790000005265747505
:1008F000726E0000506C6561736520736C657720C3
:100900007468652063616D65726120746F0000001A
:1009100074686520454E4420706F736974696F6E0A
:1009200000000000536C6964653A203C3C3C0000C8
:100930002C000020E4000020E5000020E60000205C
:10094000E70000203E3E3E0050616E3A2020203CF1
:100950003C3C000030000020E8000020E9000020BE
:10096000EA000020EB00002054696C743A20203C1F
:100970003C3C000034000020EC000020ED00002092
:10098000EE000020EF0000205365740074686520BD
:10099000535441525420706F736974696F6E000034
:1009A00038000020F0000020F1000020F2000020BC
:1009B000F30000203C000020F4000020F50000209F
:1009C000F6000020F7000020FE4802784621822031
:1009D00002F028FAAFF2940246218C2002F054FA79
:1009E000AFF27C025A21142002F04EFAF648006859
:1009F0004FF47A7190FBF1F00A2190FBF1F201FBC8
:100A000012003030F1490870EF480068642190FB13
:100A1000F1F00A2190FBF1F201FB12003030EC49B9
:100A20000870E94800680A2190FBF1F090FBF1F2B0
:100A300001FB12003030E7490870E34800680A21E2
:100A400090FBF1F201FB12003030E3490870DF48FF
:100A500002785A21642002F0E5F9DD4802785A2133
:100A60006E2002F0DFF9DB4802785A21782002F08C
:100A7000D9F9D94802785A21822002F0D3F9AFF28D
:100A80003C125A218C2002F0FFF9AFF204126E21C1
:100A9000142002F0F9F9AFF2AC128221142002F016
:100AA000F3F921E5CDA20A21084602F0EDF9D1A221
:100AB0001E210A2002F0E8F9D1A23221142002F00E
:100AC000E3F9D34800684FF47A7190FBF1F00A2102
:100AD00090FBF1F201FB12003030CE490870CC4897
:100AE0000068642190FBF1F00A2190FBF1F201FB18
:100AF00012003030C8490870C54800680A2190FBD0
:100B0000F1F090FBF1F201FB12003030C3490870A4
:100B1000BF4800680A2190FBF1F201FB120030305F
:100B2000BF490870BB48027832217D2002F07AF973
:100B3000B94802783221872002F074F9B748027868
:100B40003221912002F06EF9B548027832219B20C3
:100B500002F068F9AFF214223221A52002F094F9D4
:100B6000B0A24621142002F08FF9B24800684FF479
:100B70007A7190FBF1F00A2190FBF1F201FB120077
:100B80003030AD490870AB480068642190FBF1F04B
:100B90000A2190FBF1F201FB12003030A7490870E6
:100BA000A44800680A2190FBF1F090FBF1F201FBF0
:100BB00012003030A24908709E4800680A2190FB5C
:100BC000F1F201FB120030309E4908709A48027819
:100BD00046217D2002F026F9984802784621872098
:100BE00002F020F9964802784621912002F01AF985
:100BF0009448027846219B2002F014F9AFF2BC22FF
:100C00004621A52002F040F98FA25A21142002F0BB
:100C10003BF9914800684FF47A7190FBF1F00A219A
:100C200090FBF1F201FB120030308C4908708A48C9
:100C30000068642190FBF1F00A2190FBF1F201FBC6
:100C40001200303086490870834800680A2190FB02
:100C5000F1F090FBF1F201FB120030308149087095
:100C60007D4800680A2190FBF1F201FB1200303050
:100C70007D490870794802785A217D2002F0D2F827
:100C8000774802785A21872002F0CCF8754802781C
:100C90005A21912002F0C6F8734802785A219B200D
:100CA00002F0C0F8AFF264325A21A52002F0ECF84D
:100CB000AFF22C326E21142002F0E6F8AFF2D432FB
:100CC0008221142002F0E0F80EE468A20A2108460E
:100CD00002F0DAF86CA21E210A2002F0D5F86E4864
:100CE00000684FF47A7190FBF1F00A2190FBF1F269
:100CF00001FB1200303069490870674800686421C0
:100D000090FBF1F00A2190FBF1F201FB1200303070
:100D100063490870604800680A2190FBF1F090FB7D
:100D2000F1F201FB120030305E4908705A48006849
:100D30000A2190FBF1F201FB120030305A49087091
:100D4000564802781E216E2002F06CF85448027852
:100D50001E21782002F066F8524802781E21822077
:100D600002F060F8504802781E218C2002F05AF8F8
:100D70004EA232210A2002F087F84FA232218220AF
:100D800002F082F84CA23221A02002F07DF84B48FC
:100D900000684FF4616190FBF1F049490860084632
:100DA0000068C0EB001045490968A1EB800000E035
:100DB000F5E13C2190FBF1F04249086040480068B1
:100DC00082E00000F700002040000020F800002032
:100DD000F9000020FA000020FB000020506C656143
:100DE000736520656E74657220666F6C6C6F7769D1
:100DF0006E670000706172616D65746572730000EA
:100E000046616D65733A202020203C3C3C00000088
:100E100044000020FC000020FD000020FE00002017
:100E2000FF000020496E74657276616C3A203C3C8C
:100E30003C000000480000200001002001010020CB
:100E40000201002003010020536875747465723A32
:100E500020203C3C3C0000004C000020040100200D
:100E600005010020060100200701002054616B6984
:100E70006E672054696D65204C617073652E2E2E4F
:100E8000202E2E2E0000000046616D6573205461F7
:100E90006B656E3A20000000D80000200801002099
:100EA000090100200A0100200B01002054696D6532
:100EB000204C6566743A00003A0000006000002093
:100EC0001401002018010020C0EB4011C1EB0020EC
:100ED000FE490968A1EB0010FD490968C1EB011149
:100EE000A0EB8100FB490860FB4800680A2190FBE9
:100EF000F1F090FBF1F201FB12003030F74908707D
:100F0000F54800680A2190FBF1F201FB1200303035
:100F1000F3490870EE4800680A2190FBF1F090FB5D
:100F2000F1F201FB12003030EE490870E848006829
:100F30000A2190FBF1F201FB12003030EA490870FF
:100F4000E44800680A2190FBF1F090FBF1F201FB0C
:100F500012003030E5490870DE4800680A2190FB35
:100F6000F1F201FB12003030E1490870DB480278F1
:100F700032216E2001F056FFD948027832217820C4
:100F800001F050FFD748027832218C2001F04AFF4F
:100F9000D54802783221962001F044FFD3480278E8
:100FA0003221AA2001F03EFFD14802783221B4203C
:100FB00001F038FFCFA246210A2001F065FFCEA242
:100FC0004621502001F060FFCCA24621962001F07E
:100FD0005BFFCB4800684FF47A7190FBF1F00A2177
:100FE00090FBF1F201FB12003030C6490870C44892
:100FF0000068642190FBF1F00A2190FBF1F201FB03
:1010000012003030C0490870BD4800680A2190FBCA
:10101000F1F090FBF1F201FB12003030BB49087097
:10102000B74800680A2190FBF1F201FB1200303052
:10103000B7490870B348027846211E2001F0F2FE3D
:10104000B14802784621282001F0ECFEAF48027832
:101050004621322001F0E6FEAD48027846213C20D0
:1010600001F0E0FEAB4800684FF47A7190FBF1F0BC
:101070000A2190FBF1F201FB12003030A649087002
:10108000A4480068642190FBF1F00A2190FBF1F282
:1010900001FB12003030A14908709E4800680A2107
:1010A00090FBF1F090FBF1F201FB120030309C4913
:1010B0000870984800680A2190FBF1F201FB1200C9
:1010C000303098490870944802784621642001F035
:1010D000A9FE9248027846216E2001F0A3FE9048B6
:1010E00002784621782001F09DFE8E480278462144
:1010F000822001F097FE8C4800684FF47A7190FBD3
:10110000F1F00A2190FBF1F201FB12003030874927
:10111000087085480068642190FBF1F00A2190FB7B
:10112000F1F201FB12003030814908707E480068FE
:101130000A2190FBF1F090FBF1F201FB120030303C
:101140007C490870784800680A2190FBF1F201FBA5
:101150001200303078490870744802784621AA207D
:1011600001F060FE724802784621B42001F05AFE78
:10117000704802784621BE2001F054FE6E48027885
:101180004621C82001F04EFE6CA25A21142001F025
:101190007BFE6CA26E21142001F076FE81E4AFF29A
:1011A00034320A21084601F06FFEAFF224321E21CC
:1011B0000A2001F069FE654800684FF47A7190FBDF
:1011C000F1F00A2190FBF1F201FB1200303060498E
:1011D00008705E480068642190FBF1F00A2190FBE2
:1011E000F1F201FB120030305A490870574800688C
:1011F0000A2190FBF1F090FBF1F201FB120030307C
:1012000055490870514800680A2190FBF1F201FB32
:1012100012003030514908704D4802781E216E206E
:1012200001F000FE4B4802781E21782001F0FAFD03
:10123000494802781E21822001F0F4FD47480278D7
:101240001E218C2001F0EEFDAFF2A03232210A20E7
:1012500001F01AFEAFF2A0323221822001F014FE1A
:10126000AFF2AC323221A02001F00EFE1748006828
:101270004FF4616190FBF1F017490860084600687F
:10128000C0EB001011490968A1EB80003C2190FBE4
:10129000F1F00F49086010480068C0EB4011C1EB45
:1012A00000200A490968A1EB001009490968C1EB4F
:1012B0000111A0EB810007490860074800680A2176
:1012C00090FBF1F090FBF1F24AE00000600000209A
:1012D000180100201C010020140100200C01002036
:1012E0000D0100200E0100200F0100201001002040
:1012F00011010020583A0000593A00005A3A000003
:101300007C0000202001002021010020220100207B
:10131000230100208000002024010020250100205E
:101320002601002027010020840000202801002041
:10133000290100202A0100202B0100205061757333
:101340006500000053746F7000000000D80000209A
:1013500008010020090100200A0100200B010020E3
:1013600001FB12003030FE490870FE4800680A2177
:1013700090FBF1F201FB12003030FB490870FB4892
:1013800000680A2190FBF1F090FBF1F201FB1200E2
:101390003030F7490870F54800680A2190FBF1F2F7
:1013A00001FB12003030F3490870F34800680A214D
:1013B00090FBF1F090FBF1F201FB12003030EF49AD
:1013C0000870ED4800680A2190FBF1F201FB120061
:1013D0003030EB490870E248027832216E2001F08B
:1013E00021FDE14802783221782001F01BFDE04820
:1013F000027832218C2001F015FDDE48027832217E
:10140000962001F00FFDDD4802783221AA2001F07C
:1014100009FDDB4802783221B42001F003FDAFF270
:101420002C1246210A2001F02FFDAFF23412462182
:10143000502001F029FDAFF23C124621962001F028
:1014400023FDD04800684FF47A7190FBF1F00A2137
:1014500090FBF1F201FB12003030CB490870C94813
:101460000068642190FBF1F00A2190FBF1F201FB8E
:1014700012003030C5490870C24800680A2190FB4C
:10148000F1F090FBF1F201FB12003030C04908701E
:10149000BC4800680A2190FBF1F201FB12003030D9
:1014A000BC490870B848027846211E2001F0BAFCF9
:1014B000B64802784621282001F0B4FCB4480278EE
:1014C0004621322001F0AEFCB248027846213C2091
:1014D00001F0A8FCB04800684FF47A7190FBF1F07D
:1014E0000A2190FBF1F201FB12003030AB49087089
:1014F000A9480068642190FBF1F00A2190FBF1F209
:1015000001FB12003030A6490870A34800680A2188
:1015100090FBF1F090FBF1F201FB12003030A14999
:1015200008709D4800680A2190FBF1F201FB12004F
:1015300030309D490870994802784621642001F0B6
:1015400071FC9748027846216E2001F06BFC9548AB
:1015500002784621782001F065FC93480278462104
:10156000822001F05FFC914800684FF47A7190FB93
:10157000F1F00A2190FBF1F201FB120030308C49AE
:1015800008708A480068642190FBF1F00A2190FB02
:10159000F1F201FB12003030864908708348006880
:1015A0000A2190FBF1F090FBF1F201FB12003030C8
:1015B000814908707D4800680A2190FBF1F201FB27
:1015C000120030307D490870794802784621AA20FF
:1015D00001F028FC774802784621B42001F022FC73
:1015E000754802784621BE2001F01CFC7348027841
:1015F0004621C82001F016FC71A25A21142001F0E6
:1016000043FCAFF2C0226E21142001F03DFCC5E581
:101610006DA20A21084601F037FCAFF628021E2110
:101620000A2001F031FC6FA23221142001F02CFCC1
:10163000704800684FF47A7190FBF1F00A2190FB3A
:10164000F1F201FB120030306B4908706948006804
:10165000642190FBF1F00A2190FBF1F201FB1200F2
:10166000303066490870634800680A2190FBF1F049
:1016700090FBF1F201FB12003030614908705D48C7
:1016800000680A2190FBF1F201FB120030305D4945
:101690000870594802783221912001F0C3FB574865
:1016A000027832219B2001F0BDFB5548027832219F
:1016B000A52001F0B7FB534802783221AF2001F09A
:1016C000B1FBAFF680523221B92001F0DDFB4EA212
:1016D0004621142001F0D8FB4F4800684FF47A717E
:1016E00090FBF1F00A2190FBF1F201FB1200303087
:1016F0004A49087048480068642190FBF1F00A21CB
:1017000090FBF1F201FB120030304549087042486D
:1017100000680A2190FBF1F090FBF1F201FB12004E
:101720003030404908703C4800680A2190FBF1F2D3
:1017300001FB120030303C490870384802784621DD
:10174000912001F06FFB3648027846219B2001F082
:1017500069FB344802784621A52001F063FB65E06F
:101760000C010020140100200D01002018010020B0
:101770000E0100200F0100201C010020100100209C
:10178000110100207C000020200100202101002008
:1017900022010020230100208000002024010020DD
:1017A00025010020260100202701002084000020C0
:1017B00028010020290100202A0100202B010020FF
:1017C000526573756D650000506C656173652065C9
:1017D0006E7465722074686520666F6C6C6F7769D3
:1017E0006E670000546F74616C2046616D65733ADA
:1017F0003C3C3C0044000020FC000020FD00002098
:10180000FE000020FF000020496E74657276616C56
:101810003A2020203C3C3C004800002000010020F1
:10182000010100200201002003010020FE4802788F
:101830004621AF2001F0F6FAAFF6F8624621B92052
:1018400001F022FBF9A25A21142001F01DFBFB48F4
:1018500000684FF47A7190FBF1F00A2190FBF1F2ED
:1018600001FB12003030F6490870F448006864212A
:1018700090FBF1F00A2190FBF1F201FB12003030F5
:10188000F0490870ED4800680A2190FBF1F090FBE8
:10189000F1F201FB12003030EB490870E7480068B4
:1018A0000A2190FBF1F201FB12003030E749087089
:1018B000E34802785A21912001F0B4FAE148027815
:1018C0005A219B2001F0AEFADF4802785A21A52068
:1018D00001F0A8FADD4802785A21AF2001F0A2FAFF
:1018E000AFF6A0725A21B92001F0CEFAD8A26E212B
:1018F000142001F0C9FAD94A8221142001F0C4FA57
:101900004CE4AFF23C120A21084601F0BDFAD4A221
:101910001E210A2001F0B8FAD4A23221142001F0CD
:10192000B3FAC5A24621142001F0AEFAD4480068EB
:101930004FF47A7190FBF1F00A2190FBF1F201FB78
:1019400012003030CF490870CD480068642190FB08
:10195000F1F00A2190FBF1F201FB12003030CA498C
:101960000870C74800680A2190FBF1F090FBF1F283
:1019700001FB12003030C5490870C14800680A21D7
:1019800090FBF1F201FB12003030C1490870BD48F4
:10199000027846212D2001F045FABB480278462105
:1019A000372001F03FFAB94802784621412001F082
:1019B00039FAB748027846214B2001F033FAA74A9A
:1019C00058324621552001F05FFAB2A25A21142064
:1019D00001F05AFA98A26E21142001F055FAB2488B
:1019E00000684FF47A7190FBF1F00A2190FBF1F25C
:1019F00001FB12003030AD490870AB48006864212B
:101A000090FBF1F00A2190FBF1F201FB1200303063
:101A1000A7490870A44800680A2190FBF1F090FBE8
:101A2000F1F201FB12003030A24908709E480068B4
:101A30000A2190FBF1F201FB120030309E49087040
:101A40009A4802786E212D2001F0ECF9984802782E
:101A50006E21372001F0E6F9964802786E21412088
:101A600001F0E0F9944802786E214B2001F0DAF998
:101A70007A4A58326E21552001F006FA8FA282214F
:101A8000142001F001FA6CA29621142001F0FCF957
:101A90008F4800684FF47A7190FBF1F00A2190FBB7
:101AA000F1F201FB120030308A4908708848006862
:101AB000642190FBF1F00A2190FBF1F201FB12008E
:101AC000303085490870824800680A2190FBF1F0A7
:101AD00090FBF1F201FB12003030804908707C4825
:101AE00000680A2190FBF1F201FB120030307C49C2
:101AF00008707848027896212D2001F093F97648F5
:101B000002789621372001F08DF9744802789621E9
:101B1000412001F087F97248027896214B2001F0AC
:101B200081F94E4A58329621552001F0ADF948A26C
:101B3000AA21142001F0A8F9484ABE21142001F07E
:101B4000A3F964E5AFF280320A21084601F09CF95E
:101B500043A21E210A2001F097F962A2322114202B
:101B600001F092F934A24621142001F08DF9614868
:101B700000684FF47A7190FBF1F00A2190FBF1F2CA
:101B800001FB120030305C4908705A48006864213B
:101B900090FBF1F00A2190FBF1F201FB12003030D2
:101BA00056490870534800680A2190FBF1F090FBF9
:101BB000F1F201FB12003030514908704D480068C5
:101BC0000A2190FBF1F201FB120030304D49087000
:101BD0004948027846212D2001F024F9474802782F
:101BE0004621372001F01EF9454802784621412060
:101BF00001F018F94348027846214B2001F012F910
:101C0000164A58324621552001F03EF93EA25A218B
:101C1000142001F039F908A26E21142001F034F9E2
:101C20003D4800687AE000000301002053687574A5
:101C30007465723A202020203C3C3C004C0000207F
:101C400004010020050100200601002007010020FA
:101C5000436F6E74696E756500000000EC08000843
:101C6000706172616D657465727320005374617286
:101C70007420506F736974696F6E5F583A0000008A
:101C800038000020F0000020F1000020F2000020C9
:101C9000F3000020537461727420506F736974698B
:101CA0006F6E5F593A0000003C000020F4000020F5
:101CB000F5000020F6000020F70000205374617248
:101CC0007420506F736974696F6E5F5A3A00000038
:101CD00040000020F8000020F9000020FA00002059
:101CE000FB000020456E6420506F736974696F6E4D
:101CF0005F583A002C000020E4000020E50000209E
:101D0000E6000020E7000020456E6420506F7369F4
:101D100074696F6E5F593A00300000204FF47A7199
:101D200090FBF1F00A2190FBF1F201FB1200303040
:101D3000FE490870FE480068642190FBF1F00A211A
:101D400090FBF1F201FB12003030FA490870F848BC
:101D500000680A2190FBF1F090FBF1F201FB120008
:101D60003030F5490870F24800680A2190FBF1F222
:101D700001FB12003030F1490870EC4802786E2106
:101D80002D2001F04FF8EB4802786E21372001F04A
:101D900049F8E94802786E21412001F043F8E7480C
:101DA00002786E214B2001F03DF8E54A6E21552066
:101DB00001F06AF8E3A28221142001F065F8AFF285
:101DC00088129621142001F05FF8E24800684FF471
:101DD0007A7190FBF1F00A2190FBF1F201FB120005
:101DE0003030DD490870DB480068642190FBF1F079
:101DF0000A2190FBF1F201FB12003030D749087044
:101E0000D44800680A2190FBF1F090FBF1F201FB4D
:101E100012003030D2490870CE4800680A2190FB89
:101E2000F1F201FB12003030CE490870CA48027846
:101E300096212D2000F0F6FFC84802789621372021
:101E400000F0F0FFC64802789621412000F0EAFF3A
:101E5000C448027896214B2000F0E4FFB84A96214E
:101E6000552001F011F8AFF21822AA21142001F038
:101E70000BF8B34A583ABE21142001F005F83FE5AB
:101E8000AF4AAC3A0A21084600F0FEFFAC4A883A55
:101E90001E21142000F0F8FFA94A743A32211420C0
:101EA00000F0F2FFA64A583A4621142000F0ECFF59
:101EB00026E5AFF2EC620A21084600F0E5FFAA4AE7
:101EC0001E210A2000F0E0FFA8A23221142000F019
:101ED000DBFFA94800680A2190FBF1F201FB120028
:101EE0003030A64908700846027832217D2000F083
:101EF00099FFAFF2A4224621142000F0C5FF904ABA
:101F0000583A5A21142000F0BFFFF9E49CA20A219C
:101F1000084600F0B9FF944AB8321E210A2000F0AA
:101F2000B3FFAFF2A8221E21822000F0ADFFAFF276
:101F3000B4221E21A02000F0A7FF964800684FF4AD
:101F4000616190FBF1F09449086008460068C0EBBD
:101F5000001090490968A1EB80003C2190FBF1F052
:101F60008E4908608C480068C0EB4011C1EB00202E
:101F700088490968A1EB001088490968C1EB011183
:101F8000A0EB810086490860834800680A2190FB25
:101F9000F1F090FBF1F201FB120030308149087042
:101FA0007D4800680A2190FBF1F201FB12003030FD
:101FB0007D490870794800680A2190FBF1F090FB98
:101FC000F1F201FB12003030784908707348006864
:101FD0000A2190FBF1F201FB1200303074490870C5
:101FE0006F4800680A2190FBF1F090FBF1F201FBD1
:101FF000120030306F490870694800680A2190FB70
:10200000F1F201FB120030306B490870654802782C
:102010001E216E2000F006FF634802781E21782002
:1020200000F000FF614802781E218C2000F0FAFECB
:102030005F4802781E21962000F0F4FE5D48027889
:102040001E21AA2000F0EEFE5B4802781E21B4207B
:1020500000F0E8FEAFF6645232210A2000F014FFCF
:10206000AFF66C523221502000F00EFFAFF67452E2
:102070003221962000F008FF504800684FF47A7132
:1020800090FBF1F00A2190FBF1F201FB12003030DD
:102090004B49087049480068642190FBF1F00A211F
:1020A00090FBF1F201FB12003030464908704348C2
:1020B00000680A2190FBF1F090FBF1F201FB1200A5
:1020C0003030414908703D4800680A2190FBF1F228
:1020D00001FB120030303D49087039480278322146
:1020E0001E2000F09FFE374802783221282000F0A1
:1020F00099FE354802783221084600F093FE3348B5
:10210000027832213C2000F08DFE314800684FF407
:102110007A7190FBF1F00A2190FBF1F201FB1200C1
:1021200030302C4908702A48006855E0E80000204B
:1021300030000020E9000020EA000020EB00002031
:1021400044090008456E6420506F736974696F6EAE
:102150005F5A3A0034000020EC000020ED0000201F
:10216000EE000020EF000020F40D000853706565BC
:102170006428312D39293A00900000202C010020DC
:1021800054616B696E6720566964656F2E2E2E2030
:102190002E2E2E00600000201401002018010020C7
:1021A0001C0100200C0100200D0100200E01002068
:1021B0000F01002010010020110100207C000020F0
:1021C0002001002021010020220100202301002005
:1021D0008000002024010020642190FBF1F00A21FE
:1021E00090FBF1F201FB12003030FE490870FE480E
:1021F00000680A2190FBF1F090FBF1F201FB120064
:102200003030FA490870F84800680A2190FBF1F272
:1022100001FB12003030F6490870F648027832218E
:10222000642000F0FFFDEF48027832216E2000F0BC
:10223000F9FDEE4802783221782000F0F3FDEC48F9
:1022400002783221822000F0EDFDEB4800684FF467
:102250007A7190FBF1F00A2190FBF1F201FB120080
:102260003030E6490870E4480068642190FBF1F0E2
:102270000A2190FBF1F201FB12003030E0490870B6
:10228000DD4800680A2190FBF1F090FBF1F201FBC0
:1022900012003030DB490870D74800680A2190FBF3
:1022A000F1F201FB12003030D7490870D3480278B0
:1022B0003221AA2000F0B6FDD14802783221B420A4
:1022C00000F0B0FDCF4802783221BE2000F0AAFD18
:1022D000CD4802783221C82000F0A4FDAFF6A472E8
:1022E0004621142000F0D0FDAFF6A8725A21142028
:1022F00000F0CAFD19E3AFF278120A21084600F097
:10230000C3FDC24A1E210A2000F0BEFDAFF2946256
:102310001E21822000F0B8FDAFF2A0621E21A02095
:1023200000F0B2FDBA4800684FF4616190FBF1F033
:10233000B849086008460068C0EB0010B449096855
:10234000A1EB80003C2190FBF1F0B3490860B1485B
:102350000068C0EB4011C1EB0020AD490968A1EB5A
:102360000010AD490968C1EB0111A0EB8100AB4938
:102370000860A84800680A2190FBF1F090FBF1F298
:1023800001FB12003030A6490870A24800680A21FB
:1023900090FBF1F201FB12003030A24908709E4818
:1023A00000680A2190FBF1F090FBF1F201FB1200B2
:1023B00030309D490870984800680A2190FBF1F27E
:1023C00001FB1200303099490870944800680A21D6
:1023D00090FBF1F090FBF1F201FB120030309449D8
:1023E00008708E4800680A2190FBF1F201FB120090
:1023F0003030904908708A4802781E216E2000F023
:1024000011FD884802781E21782000F00BFD8648D7
:1024100002781E218C2000F005FD844802781E21E0
:10242000962000F0FFFC824802781E21AA2000F0CE
:10243000F9FC804802781E21B42000F0F3FC7EA253
:1024400032210A2000F020FD7CA23221502000F031
:102450001BFD7BA23221962000F016FD7948006812
:102460004FF47A7190FBF1F00A2190FBF1F201FB3D
:10247000120030307449087072480068642190FB83
:10248000F1F00A2190FBF1F201FB120030306F49AC
:1024900008706C4800680A2190FBF1F090FBF1F2A3
:1024A00001FB120030306A490870664800680A2152
:1024B00090FBF1F201FB120030306649087062486F
:1024C000027832211E2000F0ADFC604802783221F3
:1024D000282000F0A7FC5E4802783221084600F070
:1024E000A1FC5C48027832213C2000F09BFC3E4875
:1024F00000684FF47A7190FBF1F00A2190FBF1F241
:1025000001FB120030303B490870374800686421F5
:1025100090FBF1F00A2190FBF1F201FB1200303048
:1025200030490870304800680A2190FBF1F090FBB8
:10253000F1F201FB120030302C4908702A48006883
:102540000A2190FBF1F201FB12003030284908709B
:10255000284802783221642000F064FC2148027887
:1025600032216E2000F05EFC204802783221782073
:1025700000F058FC1E4802783221822000F052FC04
:102580001D4800684FF47A7190FBF1F00A2190FB2E
:10259000F1F201FB1200303018490870164800684B
:1025A000642190FBF1F00A2190FBF1F201FB120093
:1025B000303013490870104800680A2190FBF1F090
:1025C00090FBF1F201FB120030300E4908700A480E
:1025D00000680A2190FBF1F201FB120030300A4939
:1025E000087039E02501002080000020260100202D
:1025F0002701002024010020840000202801002061
:10260000290100202A0100202B010020AC0E000827
:102610006000002014010020180100201C0100208F
:102620000C0100200D0100200E0100200F010020F0
:102630001001002011010020583A0000593A000012
:102640005A3A00007C0000202001002021010020D7
:102650002201002023010020B54802783221AA205F
:1026600000F0E0FBB34802783221B42000F0DAFB3E
:10267000B14802783221BE2000F0D4FBAF48027886
:102680003221C82000F0CEFBAFF6CC6246211420E8
:1026900000F0FAFBAA4A5A21142000F0F5FB44E1AD
:1026A000AFF6DC620A21084600F0EEFBA54A1E21C7
:1026B0000A2000F0E9FBAFF24C523221142000F066
:1026C000E3FBA14800680A2190FBF1F201FB120034
:1026D00030309E4908700846027832217D2000F093
:1026E000A1FB9B4A4621142000F0CEFB984A9C3A5D
:1026F0005A21142000F0C8FB17E1954AE43A0A2158
:10270000084600F0C1FB924A643A1E21142000F0F2
:10271000BBFB904800684FF47A7190FBF1F00A21FE
:1027200090FBF1F201FB120030308B4908708948B0
:102730000068642190FBF1F00A2190FBF1F201FBAB
:102740001200303085490870824800680A2190FBE9
:10275000F1F090FBF1F201FB12003030804908707B
:102760007C4800680A2190FBF1F201FB1200303036
:102770007C490870784802781E21642000F052FBE2
:10278000764802781E216E2000F04CFB74480278D7
:102790001E21782000F046FB724802781E2182201C
:1027A00000F040FB6A4A443A1E218C2000F06CFB8A
:1027B000674A403A3221142000F066FB6A480068FC
:1027C0004FF47A7190FBF1F00A2190FBF1F201FBDA
:1027D000120030306549087063480068642190FB3E
:1027E000F1F00A2190FBF1F201FB12003030604958
:1027F00008705D4800680A2190FBF1F090FBF1F24F
:1028000001FB120030305B490870574800680A210C
:1028100090FBF1F201FB1200303057490870534829
:1028200002783221642000F0FDFA5148027832210A
:102830006E2000F0F7FA4F4802783221782000F03D
:10284000F1FA4D4802783221822000F0EBFA404A3A
:10285000443A32218C2000F017FB3D4A203A4621B1
:10286000142000F011FB454800684FF47A7190FB8A
:10287000F1F00A2190FBF1F201FB120030302C49FB
:1028800008703E480068642190FBF1F00A2190FB3B
:10289000F1F201FB12003030264908703748006819
:1028A0000A2190FBF1F090FBF1F201FB12003030B5
:1028B00021490870314800680A2190FBF1F201FBC0
:1028C000120030301D4908701948027846216420F2
:1028D00000F0A8FA1748027846216E2000F0A2FA0C
:1028E000154802784621782000F09CFA13480278B7
:1028F0004621822000F096FA154A443A46218C205F
:1029000000F0C2FA124A9C3A5A21142000F0BCFA94
:102910000BE01BA20A21142000F0B6FA0C4A9C3AE4
:102920001E21142000F0B0FA00BF00BF10BD00004F
:1029300028010020290100202A0100202B0100206D
:1029400044130008F40D0008900000202C01002022
:10295000880900087C0000202001002021010020BF
:1029600022010020230100208000002024010020FB
:1029700025010020260100202701002084000020DE
:1029800052652D696E697469616C697A6500000031
:1029900051B18200A2F1C042126842F001038200EC
:1029A000A2F1C042136009E08200A2F1C0421268A5
:1029B000034B1A408300A3F1C0431A607047000024
:1029C000FEFF0F00D0E901121143C26811430269F2
:1029D00011434269114382691143C2691143026A7A
:1029E0001143426A1143826A1143C26A1143026B66
:1029F000114302689200A2F1C04211608168082967
:102A00000BD101688900A1F1C041096841F0400281
:102A100001688900A1F1C0410A60416B0968426BFD
:102A2000526841EA0211426B926841EA0221426B0C
:102A3000928941EA0241426B128A41EA0251426B99
:102A4000127D41EA0261426B926911430268521C95
:102A50009200A2F1C0421160C16AB1F5804F1BD152
:102A6000816B0968826B526841EA0211826B92683D
:102A700041EA0221826B128A41EA0251826B127D85
:102A800041EA0261826B9269114302689200A2F1ED
:102A9000C042C2F8041107E06FF07042016889007B
:102AA000A1F1C041C1F804217047000008B501211F
:102AB000042000F0FDFC4FF4FE70ADF80000102083
:102AC0008DF8030003208DF8020069460B4800F0E2
:102AD00019F84FF47F70094914310860012108206A
:102AE00000F0E6FC40F2E330ADF8000004208DF881
:102AF00003006946024800F005F808BD00080140DF
:102B0000000C01402DE9F04102460025002600207E
:102B100000230024002791F803C00CF00F0591F862
:102B200003C00CF0100CBCF1000F03D091F802C0F0
:102B30004CEA050591F800C0BCF1000F31D01468D3
:102B400000202BE04FF0010C0CFA00F3B1F800C0AC
:102B50000CEA03069E4220D183004FF00F0C0CFAC2
:102B600003F7BC4305FA03FC4CEA040491F803C0E4
:102B7000BCF1280F06D14FF0010C0CFA00FCC2F892
:102B800014C00AE091F803C0BCF1480F05D14FF022
:102B9000010C0CFA00FCC2F810C0401C0828D1D36C
:102BA0001460B1F800C0BCF1FF0F34DD54680020A0
:102BB0002EE000F1080C4FF0010808FA0CF3B1F810
:102BC00000C00CEA03069E4221D183004FF00F0C97
:102BD0000CFA03F7BC4305FA03FC4CEA040491F831
:102BE00003C0BCF1280F05D100F1080C08FA0CF85D
:102BF000C2F8148091F803C0BCF1480F07D100F16E
:102C0000080C4FF0010808FA0CF8C2F81080401CBC
:102C10000828CED35460BDE8F081024600209368B6
:102C20000B400BB1012000E000207047416170476C
:102C30000161704700BFFEE710B504462CB14FF4A8
:102C400080510548FFF7F2FF04E04FF4805102483D
:102C5000FFF7EEFF10BD0000001401402DE9F04128
:102C600006460F4614461D46DDF818802B462246C0
:102C70003946304600F0F5F904FB05F0414600F016
:102C800056F9BDE8F08108B54FF6FF704FF4A07318
:102C9000F022002100900846FFF7E0FF08BD38B59C
:102CA00004464FF6FF70009004EB84000A2202EB0A
:102CB0008000C0F5A07083B204EB840002EB8000BA
:102CC00081B20F220520FFF7C9FF38BD10B50446B9
:102CD0000D2C49D2DFE804F0070C11161B20252A21
:102CE0002F34393E43000F21052000F03FF83BE030
:102CF0002321052000F03AF836E03721052000F0C6
:102D000035F831E04B21052000F030F82CE05F2150
:102D1000052000F02BF827E07321052000F026F8AD
:102D200022E08721052000F021F81DE09B210520ED
:102D300000F01CF818E0AF21052000F017F813E0B0
:102D4000C321052000F012F80EE0D721052000F085
:102D50000DF809E0EB21052000F008F804E0FF2160
:102D6000052000F003F800BF00BF10BD70B5044699
:102D70000D46A9B2A0B205230A2200F072F9002183
:102D8000642000F0D4F86A1C91B204F10A0290B2F7
:102D90000323012200F065F90021122000F0C7F89A
:102DA000AA1C91B204F10B0290B201231A4600F062
:102DB00058F90021012000F0BAF86A1E91B204F11E
:102DC000080290B20123022200F04BF900211220E8
:102DD00000F0ADF8AA1E91B204F1080290B20123EE
:102DE0001A4600F03EF90021012000F0A0F86A1D0B
:102DF00091B204F1080290B20123022200F031F9ED
:102E00000021122000F093F8AA1D91B204F10802EB
:102E100090B201231A4600F024F90021012000F0AD
:102E200086F870BD2DE9F047804689461546A5F124
:102E3000200000F0FF0A102308224946404600F017
:102E400010F92C2000F06AFA002417E00D4800EB7E
:102E50000A10065D00270DE006F0010018B11F20E2
:102E600000F060FA03E04FF6FF7000F05BFA7610B6
:102E7000781CC7B2082FEFDB601CC4B2102CE5DB56
:102E8000BDE8F087FE61000870B505460E461446A1
:102E900017E028460830F02803DD002506F1100071
:102EA00086B230461030B0F5A07F01DD0025002647
:102EB000227831462846FFF7B5FF641C05F108006B
:102EC00085B220780028E4D170BD00B597B001210B
:102ED000080200F0CDFA02200190002002900520A7
:102EE000039000200490059006904FF080500790CA
:102EF00000200890099008200A9010200B900020D4
:102F00000C900E900F9010904FF480501190002074
:102F100012901390149001A81590169008A8FFF72E
:102F200051FD01210020FFF733FD17B000BD70B542
:102F300004460D4600262C2000F0F0F900BF03E007
:102F4000284600F0EFF9761CA642F9D370BD0000C8
:102F500008B50121084600F0ABFA0121602000F01D
:102F6000A7FA03208DF8020018208DF803004CF218
:102F70000370ADF8000069462C48FFF7C3FD4FF61B
:102F80008070ADF8000069462948FFF7BBFD0320BB
:102F90008DF8020018208DF803001020ADF8000015
:102FA00069462248FFF7AEFD2020ADF800006946D3
:102FB0001E48FFF7A7FD0121202000F079FA8020AC
:102FC000ADF8000069461948FFF79CFD012120205B
:102FD00000F06EFA4FF40060ADF800006946134847
:102FE000FFF790FD10208DF8030003208DF80200FC
:102FF0000121402000F05CFA0220ADF80000694693
:103000000B48FFF77FFD10208DF8030003208DF89B
:1030100002000121202000F04BFA4FF48050ADF85F
:10302000000069460148FFF76DFD08BD001401402E
:103030000018014008B5FFF78BFFFFF746FF01209E
:10304000FFF7FAFD00F056F900F03CF84FF6FF707C
:103050004FF4A073F022002100900846FFF7FEFD18
:1030600008BD2DE9F04104460D4616461F462A20AC
:1030700000F054F9201200F055F9E0B200F052F9D6
:10308000A119491EC1F30F2000F04CF9A119491EE6
:10309000C8B200F047F92B2000F040F9281200F0E8
:1030A00041F9E8B200F03EF9E919491EC1F30F20D9
:1030B00000F038F9E919491EC8B200F033F9BDE84B
:1030C000F081000010B5CF2000F028F9002000F0BA
:1030D00029F9812000F026F9302000F023F9ED20B5
:1030E00000F01CF9642000F01DF9032000F01AF92B
:1030F000122000F017F9812000F014F9E82000F008
:103100000DF9852000F00EF9102000F00BF9782061
:1031100000F008F9CB2000F001F9392000F002F9A5
:103120002C2000F0FFF8002000F0FCF8342000F024
:10313000F9F8022000F0F6F8F72000F0EFF8202070
:1031400000F0F0F8EA2000F0E9F8002000F0EAF8DA
:10315000002000F0E7F8B12000F0E0F8002000F0D7
:10316000E1F81B2000F0DEF8B62000F0D7F80A20C6
:1031700000F0D8F8A22000F0D5F8C02000F0CEF87A
:10318000352000F0CFF8C12000F0C8F8112000F081
:10319000C9F8C52000F0C2F8452000F0C3F845206A
:1031A00000F0C0F8C72000F0B9F8A22000F0BAF88B
:1031B000F22000F0B3F8002000F0B4F8262000F070
:1031C000ADF8012000F0AEF8E02000F0A7F80F20E5
:1031D00000F0A8F8262000F0A5F8242000F0A2F8BE
:1031E0000B2000F09FF80E2000F09CF8092000F062
:1031F00099F8542000F096F8A82000F093F84620A3
:1032000000F090F80C2000F08DF8172000F08AF8FC
:10321000092000F087F80F2000F084F8072000F064
:1032200081F8002000F07EF8E12000F077F800201F
:1032300000F078F8192000F075F81B2000F072F803
:10324000042000F06FF8102000F06CF8072000F068
:1032500069F82A2000F066F8472000F063F839206A
:1032600000F060F8032000F05DF8062000F05AF846
:10327000062000F057F8302000F054F8382000F015
:1032800051F80F2000F04EF8362000F047F8C82023
:1032900000F048F82A2000F041F8002000F042F841
:1032A000002000F03FF8002000F03CF8EF2000F094
:1032B00039F82B2000F032F8002000F033F800201D
:1032C00000F030F8012000F02DF83F2000F02AF83F
:1032D0003A2000F023F8552000F024F8112000F0E7
:1032E0001DF80348FDF791F8292000F017F810BDEC
:1032F000FCBF020010B502210648FFF797FC064804
:10330000FDF783F802210348FFF792FC0248FDF71E
:103310007CF810BD00180140FCBF02004FF0C04116
:103320000880704701490880704700000000026073
:1033300008B501214FF0C05000F0AAF8012000F0BC
:103340008FF84FF4407000F0C9F8012000F0C0F889
:1033500000F040F900F048F900F0D6F83E2000F007
:1033600029F900F037F9002000F016F900F032F9E1
:103370004FF6FF701B49088000F02CF94FF6FF70E4
:103380001849091D088000F025F90121022000F0EC
:10339000F3F814481C38008800F0020011491C3969
:1033A000088000F017F900F0B9F829208DF8000026
:1033B00000208DF801008DF8020001208DF8030037
:1033C000684600F015F803208DF8000000208DF805
:1033D00001008DF8020001208DF80300684600F01E
:1033E00007F808BD2028004000BFFEE77047000036
:1033F00070B5002100230F22C47804B3154C246853
:1034000004F4E064C4F5E064210AC1F10403CA4095
:10341000447804FA03F184781440214309010E4CE6
:103420000678A155047804F01F050124AC40057806
:103430006D11AD0005F1E025C5F8004109E0047803
:1034400004F01F050124AC40044D0678761145F8C0
:10345000264070BD0CED00E000E400E080E100E0FB
:10346000014908627047000000000E4270470000EA
:1034700029B1064A52690243044B5A6104E0034AE7
:1034800052698243014B5A617047000000100240AC
:1034900029B1064AD2690243044BDA6104E0034AC7
:1034A000D2698243014BDA6170470000001002408C
:1034B00029B1064A92690243044B9A6104E0034A27
:1034C00092698243014B9A617047000000100240EC
:1034D00001490860704700003C0442420249096A01
:1034E0000143014A116270470010024010B50220EA
:1034F00000F002F810BD0000024909888143014A2A
:1035000011807047042800400348008840F01000F4
:1035100001490880704700000428004003480088E3
:103520004FF6EF71084001490880704704280040B9
:1035300001460020064A12880A40D0B2044A121FEF
:1035400012880A4012B108B1012000E00020704743
:103550000428004010B50220FFF7EAFF012808D137
:103560000220FFF7C9FF0348006810B10148006856
:10357000804710BD0000002029B1064A128802438E
:10358000044B1A8004E0034A12888243014B1A80DC
:10359000704700000028004000B50246FFF7B4FF66
:1035A000100C03490880091D0A80FFF7B7FF00BD12
:1035B0001828004000B50246FFF7A6FFC2F30340FB
:1035C00003490880091D0A80FFF7A8FF00BD00001D
:1035D0000828004000BF0348008800F020000028B1
:1035E000F9D0704704280040074800884FF6F7716B
:1035F00008400549088000BF0348008800F0080023
:103600000028F9D07047000004280040704710B52A
:1036100000F002F810BD00000CB5002001900090F1
:103620003348006840F480303149086000BF3048BA
:10363000006800F4003000900198401C0190009850
:1036400018B90198B0F5A06FF1D12948006800F4CD
:10365000003010B10120009001E00020009000989F
:10366000012843D12348006840F010002149086038
:103670000846006820F0030008600846006840F033
:10368000020008601A4840681949486008464068C6
:1036900048600846406840F48060486008464068DA
:1036A00020F47C1048600846406840F4E810486008
:1036B0000846006840F08070086000BF0C48006851
:1036C00000F000700028F9D00948406820F003009D
:1036D000074948600846406840F00200486000BF63
:1036E0000348406800F00C000828F9D10CBD000028
:1036F000001002400020024010B5044624B1012C05
:1037000011D0022C2DD11DE00121084600F0EEF869
:103710001420FCF78DFE0021012000F0E7F81420B2
:10372000FCF786FE1DE00121032000F0DFF81420E5
:10373000FCF77EFE0021032000F0D8F81420FCF7EF
:1037400077FE0EE00121052000F0D0F81420FCF7F0
:103750006FFE0021052000F0C9F81420FCF768FE78
:1037600000BF00BF10BD0146052912D2DFE801F0FD
:103770000306090C0F004FF448600AE04FF4C860DC
:1037800007E04FF4487004E04FF4A07001E0A0207F
:1037900000BF00BF7047704710B51348006840F085
:1037A00001001149086008464068104908400E4968
:1037B0004860084600680E4908400B490860084602
:1037C000006820F4802008600846406820F4FE006D
:1037D00048604FF41F008860FFF719FF4FF000604A
:1037E0000449086010BD0000001002400000FFF80E
:1037F000FFFFF6FE08ED00E000BFFEE702E008C8AC
:10380000121F08C1002AFAD170477047002001E05A
:1038100001C1121F002AFBD17047000030B50446D9
:1038200000250EE00848FCF703FE0121002000F00F
:103830005DF80548FCF7FCFD0021084600F056F84D
:103840006D1CA542EEDB30BDA086010070B50546BB
:10385000072D46D2DFE805F0040D161F28313B0086
:1038600001212148FFF7D9F908B1002400E0012423
:1038700037E002211C48FFF7D0F908B1002400E02E
:1038800001242EE020211848FFF7C7F908B10024D1
:1038900000E0012425E040211348FFF7BEF908B1FC
:1038A000002400E001241CE080210F48FFF7B5F957
:1038B00008B1002400E0012413E04FF480710A48AD
:1038C000FFF7ABF908B1002400E0012409E04FF450
:1038D00000710548FFF7A1F908B1002400E00124B8
:1038E00000BF00BF204670BD000C014007284DD22C
:1038F000DFE800F0040E18222C36420019B9042229
:10390000234B1A6003E00422214B1B1F1A603DE089
:1039100019B908221E4B1A6003E008221C4B1B1F1A
:103920001A6033E019B91022194B1A6003E0102213
:10393000174B1B1F1A6029E019B94022144B1A605B
:1039400003E04022124B1B1F1A601FE019B920220E
:103950000F4B1A6003E020220D4B1B1F1A6015E06D
:1039600021B94FF480720A4B1A6004E04FF4807260
:10397000074B1B1F1A6009E019B98022044B1A601B
:1039800003E08022024B1B1F1A6000BF00BF70477C
:1039900014080140FFF74EFBFFF788F8FFF7C8FC5B
:1039A0000220FFF73BFFFDA20A210846FFF76CFA51
:1039B000FFF769F902F0D2FBFE4908600020FE49DA
:1039C0000860FE49086002F0BCBBFB4800680028A4
:1039D0007ED1FB490860F8480068FCF737FDF748DE
:1039E0000068FFF773F90120FFF730FF012811D1BC
:1039F0000020FFF754F9F1480068032805DAEF4882
:103A00000068401CED49086002E00020EB490860B6
:103A1000FCF704FD0020FFF719FF012811D1002059
:103A2000FFF73DF9E5480068002805DDE348006838
:103A3000401EE249086002E00320E0490860FCF70C
:103A4000EDFCDE480068A0B90420FFF7FFFE012866
:103A50000FD1DB48006860B90120D7490860D74919
:103A60000860D8490860D6490860FCF7D7FCFFF722
:103A70000AF9D2480068012815D10420FFF7E6FEB4
:103A8000012810D1CE48006868B90220CA490860F0
:103A90000120CA490860CC490860C9490860FCF7A0
:103AA000BDFCFFF7F0F8C5480068022815D10420D6
:103AB000FFF7CCFE012810D1C148006868B9032087
:103AC000BD4908600120BD490860BD49086000E0AB
:103AD0001BE0FCF7A3FCFFF7D6F8B8480068032802
:103AE00013D10420FFF7B2FE01280ED1B4480068BC
:103AF00058B90420B04908600120B0490860B049B5
:103B00000860FCF78BFCFFF7BEF8AB4800680128A3
:103B10007ED10020AA490860A7480068FCF796FCFF
:103B2000A6480068FFF7D2F80120FFF78FFE0128B2
:103B300010D1FFF7B4F8A1480068032805DA9F48C0
:103B40000068401C9D49086002E001209B49086014
:103B5000FCF764FC0020FFF779FE012810D1FFF785
:103B60009EF896480068012805DD94480068401ECC
:103B70009249086002E0032090490860FCF74EFC7F
:103B80008E480068012820D10420FFF75FFE01283D
:103B90001BD18B480068C0B96F208749086002209C
:103BA000864908600120864908608848006888497D
:103BB0000860884800688849086088480068884923
:103BC0000860FCF72BFCFFF75EF87C4800680228D1
:103BD00014D10420FFF73AFE01280FD1784800687D
:103BE00060B9792074490860022074490860012096
:103BF00073490860FCF712FCFFF745F86F4800684E
:103C0000032817D10420FFF721FE012812D100E07C
:103C100010E06B48006868B9002067490860674990
:103C2000086068490860012065490860FCF7F6FBF8
:103C3000FFF729F8604800686F287DD100206049AF
:103C400008605D480068FCF701FC5C480068FFF70D
:103C50003DF80120FFF7FAFD012811D10220FFF7FE
:103C60001EF856480068062805DA54480068401CCB
:103C70005249086002E0022050490860FCF7CEFB80
:103C80000020FFF7E3FD012811D10220FFF707F81C
:103C90004A480068022805DD48480068401E474938
:103CA000086002E0062045490860FCF7B7FB0020E9
:103CB000FFF7CCFD90B90120FFF7C8FD70B90220D5
:103CC000FFF7C4FD50B90320FFF7C0FD30B9042051
:103CD000FFF7BCFD10B94348434908603748006806
:103CE00002282ED1FFF7B2FD01282AD138480068FA
:103CF000002826DD36480068401E35490860084621
:103D00000068324908600023A0221946184602F0D4
:103D10002FFA35480068FCF78BFB334800680A2807
:103D20000FDD31480068FCF791FA06462F4A304B08
:103D3000FCF71AFA044600E06BE1FCF798FA2A490E
:103D400008601E48006802285CD10320FFF77EFD52
:103D5000012857D11E48006842F20F71884251DA9B
:103D60001B480068401C1A4908600846006817494B
:103D700008600023A0221946012002F0F9F91A4830
:103D80000068FCF755FB184800680A283ADD164819
:103D90000068FCF75BFA0646144A2BE0496E69742A
:103DA00069616C697A65696E67202E2E2E202E2E31
:103DB0002E000000C40000201C0000202000002075
:103DC000D400002024000020280000207C000020D7
:103DD0002C00002080000020300000208400002003
:103DE0003400002020A10700DC0000209A99999956
:103DF0009999E93FFE4BFCF7B7F90446FCF737FA0F
:103E0000FC490860FC48006803282DD10220FFF718
:103E10001DFD012828D1F9480068002824DDF74855
:103E20000068401EF549086008460068F4490860CB
:103E30000123A0220021084602F09AF9ED4800680B
:103E4000FCF7F6FAEB4800680A280DDDE94800683F
:103E5000FCF7FCF90646EB4AE54BFCF785F904460E
:103E6000FCF705FAE3490860E348006803282ED10F
:103E7000FFF7ECFC01282AD1E048006842F20F71FC
:103E8000884224DADD480068401CDC4908600846A6
:103E90000068DB4908600123A0220021184602F0D7
:103EA00067F9D4480068FCF7C3FAD24800680A28CA
:103EB0000DDDD0480068FCF7C9F90646D14ACC4B65
:103EC000FCF752F90446FCF7D2F9CA490860CA481F
:103ED000006804282DD10220FFF7B8FC012828D162
:103EE000C9480068002824DDC7480068401EC6494C
:103EF000086008460068C54908600223A022002126
:103F0000084602F035F9BB480068FCF791FAB94859
:103F100000680A280DDDB7480068FCF797F90646E7
:103F2000B84AB34BFCF720F90446FCF7A0F9B149B5
:103F30000860B148006804282FD10320FFF786FCF1
:103F400001282AD1B048006842F20F71884224DA71
:103F5000AD480068401CAC49086008460068AB49A1
:103F600008600223A0220021012002F001F9A148EB
:103F70000068FCF75DFA9F4800680A280DDD9D483F
:103F80000068FCF763F906469E4A994BFCF7ECF88B
:103F90000446FCF76CF997490860974800680528C3
:103FA00020D10420FFF752FC01281BD1984800685B
:103FB000C0B970209749086002208F490860964870
:103FC0000068964908608E480068954908608F48E7
:103FD00000689449086001208D490860FCF71EFACA
:103FE000FEF751FE84480068062812D10420FFF72E
:103FF0002DFC01280DD18648006850B90120854963
:1040000008607D49086082490860FCF707FAFEF7FE
:104010003AFE8048006870287DD100207C49086005
:104020007C480068FCF712FA73480068FEF74EFE01
:104030000120FFF70BFC012811D10220FEF72FFE13
:104040006D480068062805DA6B480068401C6A491C
:10405000086002E0022068490860FCF7DFF90020F0
:10406000FFF7F4FB012811D10220FEF718FE624889
:104070000068022805DD60480068401E5E4908604F
:1040800002E006205C490860FCF7C8F90020FFF751
:10409000DDFB90B90120FFF7D9FB70B90220FFF7D3
:1040A000D5FB50B90320FFF7D1FB30B90420FFF74F
:1040B000CDFB10B95C484F4908604F4800680228A2
:1040C0002ED1FFF7C3FB01282AD1544800680028ED
:1040D00026DD52480068401E5049086008460068C6
:1040E0004D4908600023A0221946184602F040F806
:1040F00040480068FCF79CF93E4800680A280FDD3C
:104100003C480068FCF7A2F806463E4A384BFCF7EC
:104110002BF8044600E09DE1FCF7A9F8354908605A
:104120003548006802282FD10320FFF78FFB0128B4
:104130002AD13A48006842F20F71884224DA37489F
:104140000068401C3549086008460068324908602C
:104150000023A0221946012002F00AF82548006831
:10416000FCF766F9234800680A280DDD214800683D
:10417000FCF76CF80646234A1D4BFBF7F5FF044697
:10418000FCF775F81B4908601B48006803282DD10F
:104190000220FFF75BFB012828D121480068002896
:1041A00024DD1F480068401E1D490860084600685D
:1041B000134908600123A0220021084601F0D8FF1E
:1041C0000C480068FCF734F90A4800680A280DDD3D
:1041D00008480068FCF73AF806460A4A044BFBF721
:1041E000C3FF0446FCF743F80249086002481DE09B
:1041F0009999E93FDC0000202000002030000020D9
:10420000800000209A9999993400002084000020B1
:10421000D40000201C0000207C000020380000207A
:104220003C0000204000002020A107000068032877
:104230002ED1FFF70BFB01282AD1FE48006842F27D
:104240000F71884224DAFB480068401CF949086075
:1042500008460068F84908600123A022002118469A
:1042600001F086FFF5480068FCF7E2F8F3480068C3
:104270000A280DDDF1480068FBF7E8FF0646F04A22
:10428000F04BFBF771FF0446FBF7F1FFEB490860C9
:10429000ED48006804282DD10220FFF7D7FA012845
:1042A00028D1EA480068002824DDE8480068401E5C
:1042B000E649086008460068E54908600223A02234
:1042C0000021084601F054FFDC480068FCF7B0F814
:1042D000DA4800680A280DDDD8480068FBF7B6FF09
:1042E0000646D74AD74BFBF73FFF0446FBF7BFFF15
:1042F000D2490860D448006804282FD10320FFF772
:10430000A5FA01282AD1D148006842F20F718842EB
:1043100024DACE480068401CCC4908600846006892
:10432000CB4908600223A0220021012001F020FFD8
:10433000C2480068FCF77CF8C04800680A280DDD18
:10434000BE480068FBF782FF0646BD4ABD4BFBF73F
:104350000BFF0446FBF78BFFB8490860BA480068BA
:10436000052818D10420FFF771FA012813D1B948A4
:10437000006801280FD1B848006860B97120B749BA
:1043800008600220B04908600120B3490860FCF7CA
:1043900045F8FEF778FCAC480068052818D10420E1
:1043A000FFF754FA012813D1AD48006801280FD156
:1043B000A948006860B9DF20A84908600220A24926
:1043C00008600120A4490860FCF728F8FEF75BFCB0
:1043D0009D48006806283DD10420FFF737FA0128E0
:1043E00038D19D480068A8BB6F209C490860022016
:1043F00095490860012098490860FCF70FF8FEF71E
:1044000042FC98490968984A1268881A002801DB1A
:10441000014600E04142954A11601046006800EBF9
:1044200080004001924908608E4800688E49096802
:10443000884203DD01208F49086002E000208D4999
:1044400008608D4909687B4A1268881A002802DBD7
:10445000014601E05AE04142884A11601046006876
:1044600000EB80004001864908608348006871497C
:104470000968884203DD01208249086002E00020CB
:104480008049086080490968704A1268881A0028C3
:1044900001DB014600E041427C4A116010460068A1
:1044A00000EB800040017A4908607748006867495E
:1044B0000968884203DD01207649086002E0002097
:1044C0007449086000236A48194602686948006810
:1044D00001F04EFE634800686F4908600123684898
:1044E000002102686748006801F042FE62480068E7
:1044F0005149086002236648002102686548006847
:1045000001F036FE60480068514908605348006871
:1045100071287CD100205049086050480068FBF7A2
:1045200095FF49480068FEF7D1FB0120FFF78EF99F
:10453000012811D10220FEF7B2FB4348006806288B
:1045400005DA41480068401C3F49086002E002204B
:104550003D490860FBF762FF0020FFF777F901286B
:1045600011D10220FEF79BFB37480068022805DDC9
:1045700035480068401E3449086002E00620324990
:104580000860FBF74BFF0020FFF760F990B90120AE
:10459000FFF75CF970B90220FFF758F950B9032012
:1045A000FFF754F930B90420FFF750F910B93B4830
:1045B0002249086024480068022822D1FFF746F902
:1045C00001281ED13648006800281ADD34480068EA
:1045D000401E3349086019480068FBF729FF174857
:1045E00000680A280DDD15480068FBF72FFE064617
:1045F000134A144BFBF7B8FD0446FBF738FE0F498E
:10460000086011480068022860D1032000E0BDE185
:10461000FFF71CF9012859D12148006842F20F71B7
:10462000884253DA1E480068401C1D490860034850
:10463000006837E03C00002080000020DC00002003
:104640009A9999999999E93F20000020400000200B
:104650008400002024000020D40000201C00002042
:10466000280000202C0000203800002064000020DA
:104670007000002050000020300000206800002062
:104680007400002054000020340000206C00002042
:1046900078000020580000207C00002020A10700A6
:1046A00044000020FBF7C4FEFE4800680A280DDD28
:1046B000FC480068FBF7CAFD0646FB4AFB4BFBF7CC
:1046C00053FD0446FBF7D3FDF6490860F84800683F
:1046D000032823D10220FFF7B9F801281ED1F5489D
:1046E000006800281ADDF3480068401EF1490860A0
:1046F000EC480068FBF79CFEEA4800680A280DDDDC
:10470000E8480068FBF7A2FD0646E74AE74BFBF7DF
:104710002BFD0446FBF7ABFDE2490860E448006866
:10472000032824D1FFF792F8012820D1E14800683E
:1047300042F20F7188421ADADE480068401CDD49F7
:104740000860D8480068FBF773FED64800680A285E
:104750000DDDD4480068FBF779FD0646D24AD34BFD
:10476000FBF702FD0446FBF782FDCE490860D04806
:104770000068042823D10220FFF768F801281ED121
:10478000CD48006800281ADDCB480068401ECA49A1
:104790000860C4480068FBF74BFEC24800680A285E
:1047A0000DDDC0480068FBF751FD0646BE4ABF4B11
:1047B000FBF7DAFC0446FBF75AFDBA490860BC482F
:1047C0000068042825D10320FFF740F8012820D1F4
:1047D000B948006842F20F7188421ADAB648006898
:1047E000401CB5490860AF480068FBF721FEAD48A2
:1047F00000680A280DDDAB480068FBF727FD064678
:10480000A94AAA4BFBF7B0FC0446FBF730FDA549CB
:104810000860A7480068052845D10420FFF716F86E
:10482000012840D1A5480068E8BB7220A44908606F
:1048300004209F4908600120A0490860FBF7EEFDB5
:104840009C4800689C49096808449E490968484397
:104850009D490860084600689C4908609C490968B1
:104860009C4A1268881A002801DB014600E0414298
:10487000994A1160104600689249096890FBF1F06E
:10488000964908600846006800EB800040019449A2
:1048900008608F4800688F490968884204DD01205C
:1048A0009049086003E058E000208E4908608E4976
:1048B00009688E4A1268881A002801DB014600E068
:1048C00041428B4A1160104600687E49096890FB9E
:1048D000F1F0884908608148006800EB80004001E1
:1048E000854908608048006880490968884203DD7E
:1048F00001208249086002E0002080490860804968
:104900000968804A1268881A002801DB014600E025
:1049100041427D4A1160104600686A49096890FB6F
:10492000F1F07A4908600846006800EB8000400119
:10493000774908607248006872490968884203DD57
:1049400001207449086002E000207249086001F00B
:1049500005FC71490860FEF796F95548006806287D
:1049600014D10420FEF772FF01280FD153480068CC
:1049700060B970205249086002204D49086001204A
:104980004E490860FBF74AFDFEF77DF94C48006888
:1049900079287DD100204949086049480068FBF723
:1049A00055FD43480068FEF791F90120FEF74EFFE0
:1049B00001281BD10220FEF772F93D480068082843
:1049C00005DA3B480068801C394908600CE038482B
:1049D0000068082805D136480068401C3449086042
:1049E00002E0022032490860FBF718FD0020FEF7C4
:1049F0002DFF01281BD10220FEF751F92C48006839
:104A0000022803D109202A4908600EE028480068DE
:104A1000092805DA26480068801E2549086004E058
:104A200023480068401E22490860FBF7F7FC00207D
:104A3000FEF70CFF90B90120FEF708FF70B90220C5
:104A4000FEF704FF50B90320FEF700FF30B9042041
:104A5000FEF7FCFE10B9314812490860144800689E
:104A6000022864D1FEF7F2FE012860D119480068DF
:104A700000285CDD17480068401E16490860094898
:104A80000068FBF7D5FC074800680A284FDD00E006
:104A90004BE104480068FBF7D9FB0646024A034B8A
:104AA0003EE00000DC0000209A9999999999E93F2D
:104AB00020000020480000204C000020D4000020EE
:104AC0001C000020440000205C000020600000204A
:104AD0002C0000203800002064000020B4000020DA
:104AE0007000002050000020300000203C0000201A
:104AF00068000020B800002074000020540000204E
:104B000034000020400000206C000020BC00002089
:104B10007800002058000020CC00002020A10700D1
:104B2000FBF722FB0446FBF7A2FBFE490860FE48A8
:104B30000068022825D10320FEF788FE012820D135
:104B4000FA48006842F20F7188421ADAF7480068A2
:104B5000401CF6490860F3480068FBF769FCF1481F
:104B600000680A280DDDEF480068FBF76FFB06467A
:104B7000EF4AF04BFBF7F8FA0446FBF778FBE949FC
:104B80000860E9480068042823D10220FEF75EFE91
:104B900001281ED1E848006800281ADDE6480068B0
:104BA000401EE5490860DF480068FBF741FCDD482E
:104BB00000680A280DDDDB480068FBF747FB064666
:104BC000DB4ADC4BFBF7D0FA0446FBF750FBD54938
:104BD0000860D5480068042825D10320FEF736FE7A
:104BE000012820D1D448006842F20F7188421ADAB5
:104BF000D1480068401CD0490860CA480068FBF7EB
:104C000017FCC84800680A280DDDC6480068FBF795
:104C10001DFB0646C64AC74BFBF7A6FA0446FBF740
:104C200026FBC0490860C0480068062823D102203E
:104C3000FEF70CFE01281ED1C048006800281ADDCE
:104C4000BE480068401EBD490860B6480068FBF7D2
:104C5000EFFBB44800680A280DDDB2480068FBF796
:104C6000F5FA0646B24AB34BFBF77EFA0446FBF769
:104C7000FEFAAC490860AC480068062825D103203C
:104C8000FEF7E4FD012820D1AC48006842F20F7124
:104C900088421ADAA9480068401CA8490860A1485F
:104CA0000068FBF7C5FB9F4800680A280DDD9D489A
:104CB0000068FBF7CBFA06469D4A9E4BFBF754FA79
:104CC0000446FBF7D4FA974908609748006808281B
:104CD00014D10420FEF7BAFD01280FD198480068CE
:104CE00060B97A209749086002208F490860012046
:104CF00093490860FBF792FBFDF7C5FF8A480068FF
:104D0000092812D10420FEF7A1FD01280DD18C48FD
:104D1000006850B901208B490860834908608849C0
:104D20000860FBF77BFBFDF7AEFF864800687A283A
:104D30007ED100208249086082480068FBF786FB2C
:104D400079480068FDF7C2FF0120FEF77FFD0128CA
:104D50001BD10220FDF7A3FF73480068082805DA7D
:104D600071480068801C704908600CE06E4800685B
:104D7000082805D16C480068401C6B49086002E0B7
:104D8000022069490860FBF749FB0020FEF75EFD41
:104D900001281BD10220FDF782FF6348006802282A
:104DA00003D10920604908600EE05F4800680928C7
:104DB00005DA5D480068801E5B49086004E05A48D7
:104DC0000068401E58490860FBF728FB0020FEF7EA
:104DD0003DFD90B90120FEF739FD70B90220FEF7C4
:104DE00035FD50B90320FEF731FD30B90420FEF740
:104DF0002DFD10B954484B4908604B480068022803
:104E000024D1FEF723FD012820D150480068002856
:104E10001CDD4E480068401E4C490860414800684F
:104E2000FBF706FB3F4800680A280FDD3D4800E01D
:104E300046E10068FBF70AFA06463D4A3D4BFBF7A0
:104E400093F90446FBF713FA3649086036480068C0
:104E5000022825D10320FEF7F9FC012820D13B4888
:104E6000006842F20F7188421ADA38480068401C24
:104E7000364908602B480068FBF7DAFA29480068D1
:104E80000A280DDD27480068FBF7E0F90646284AA6
:104E9000284BFBF769F90446FBF7E9F9214908605B
:104EA00021480068042823D10220FEF7CFFC012806
:104EB0001ED12748006800281ADD25480068401EDA
:104EC0002349086017480068FBF7B2FA15480068E4
:104ED0000A280DDD13480068FBF7B8F90646144AA6
:104EE000144BFBF741F90446FBF7C1F90D49086083
:104EF0000D48006804283ED10320FEF7A7FC0128D6
:104F000039D11348006842F20F71884233DA1048F1
:104F10000068401C0E49086002480068FBF788FAE8
:104F2000004817E0DC0000202000002038000020AE
:104F30009A9999999999E93F3C00002040000020F6
:104F4000D40000201C00002020A107002C0000201D
:104F50003000002000680A280DDDFE480068FBF7DD
:104F600075F90646FC4AFD4BFBF7FEF80446FBF7D5
:104F70007EF9F8490860FA480068062823D1022023
:104F8000FEF764FC01281ED1F648006800281ADDEF
:104F9000F4480068401EF3490860EE480068FBF7DB
:104FA00047FAEC4800680A280DDDEA480068FBF77C
:104FB0004DF90646E84AE94BFBF7D6F80446FBF7FD
:104FC00056F9E4490860E6480068062825D1032020
:104FD000FEF73CFC012820D1E248006842F20F7144
:104FE00088421ADADF480068401CDE490860D94868
:104FF0000068FBF71DFAD74800680A280DDDD54880
:105000000068FBF723F90646D34AD44BFBF7ACF80C
:105010000446FBF72CF9CF490860D14800680828FE
:1050200018D10420FEF712FC012813D1CE480068E5
:1050300001280FD1CD48006860B97B20CC490860B9
:105040000220C74908600120C8490860FBF7E6F95B
:10505000FDF719FEC2480068082818D10420FEF7A1
:10506000F5FB012813D1C348006801280FD1BF48C0
:10507000006860B9DF20BE4908600220B8490860B6
:105080000120BA490860FBF7C9F9FDF7FCFDB448F7
:105090000068092814D10420FEF7D8FB01280FD19D
:1050A000B248006860B97A20B14908600220AC4972
:1050B00008600120AD490860FBF7B0F9FDF7E3FD9A
:1050C000AB4800687B287CD10020A8490860A8482C
:1050D0000068FBF7BBF9A2480068FDF7F7FD012067
:1050E000FEF7B4FB012811D10220FDF7D8FD9C4842
:1050F0000068062805DA9A480068401C984908604C
:1051000002E0022096490860FBF788F90020FEF7CC
:105110009DFB012811D10220FDF7C1FD90480068D8
:10512000022805DD8E480068401E8D49086002E0B7
:1051300006208B490860FBF771F90020FEF786FB1B
:1051400090B90120FEF782FB70B90220FEF77EFBCA
:1051500050B90320FEF77AFB30B90420FEF776FB46
:1051600010B985487B4908607D480068022822D133
:10517000FEF76CFB01281ED18048006800281ADD6C
:105180007E480068401E7D49086072480068FBF751
:105190004FF9704800680A280DDD6E480068FBF77B
:1051A00055F806466C4A6D4BFAF7DEFF0446FBF7EE
:1051B0005EF8684908606A480068022827D1032021
:1051C00000E022E2FEF742FB012820D16B48006894
:1051D00042F20F7188421ADA68480068401C674939
:1051E00008605C480068FBF723F95A4800680A2801
:1051F0000DDD58480068FBF729F80646564A574B1C
:10520000FAF7B2FF0446FBF732F8524908605448F7
:105210000068032823D10220FEF718FB01281ED1C5
:105220005748006800281ADD55480068401E544958
:10523000086048480068FBF7FBF8464800680A2801
:105240000DDD44480068FBF701F80646424A434B2F
:10525000FAF78AFF0446FBF70AF83E49086040481F
:105260000068032824D1FEF7F1FA012820D1444830
:10527000006842F20F7188421ADA41480068401C07
:105280003F49086033480068FBF7D2F831480068AE
:105290000A280DDD2F480068FAF7D8FF06462E4A87
:1052A0002E4BFAF761FF0446FAF7E1FF294908603F
:1052B0002B480068042823D10220FEF7C7FA0128F2
:1052C0001ED13048006800281ADD2E480068401EB4
:1052D0002C4908601F480068FBF7AAF81D480068C1
:1052E0000A280DDD1B480068FAF7B0FF06461A4A87
:1052F0001A4BFAF739FF0446FAF7B9FF1549086067
:1053000017480068042840D10320FEF79FFA0128BF
:105310003BD11C48006842F20F71884235DA1948C7
:105320000068401C174908600A480068FBF780F8CD
:10533000084800680A2828DD06480068FAF786FF52
:105340000646054A054BFAF70FFF0446FAF78FFFAA
:10535000004919E0DC0000209A9999999999E93F50
:10536000200000203400002024000020D400002071
:105370001C0000202800002020A10700440000207D
:10538000480000204C0000200860FE480068052806
:105390003DD10420FEF75AFA012838D1FA480068B6
:1053A000A8BB7220F94908600420F6490860012072
:1053B000F5490860FBF732F8F5480068F5490968D7
:1053C0000844F54909684843F449086008460068FC
:1053D000F3490860F3490968F34A1268881A0028FB
:1053E00001DB014600E04142F04A116010460068CE
:1053F00000EB80004001EE490860EA480068EA4995
:105400000968884204DD0120EA49086003E0E4E01D
:105410000020E8490860E8490968E84A1268881AE3
:10542000002801DB014600E04142E54A11601046D8
:10543000006800EB80004001E2490860DE48006837
:10544000DE490968884203DD0120DF49086002E087
:105450000020DD490860DD490968DD4A1268881AC4
:10546000002801DB014600E04142DA4A11601046A3
:10547000006800EB80004001D7490860D34800680D
:10548000D3490968884203DD0120D449086002E05D
:105490000020D24908600023C54819460268C54863
:1054A000006800F065FE0123C64800210268C64876
:1054B000006800F05DFE0223C74800210268C7486B
:1054C000006800F055FEB8480068B6490860BB485F
:1054D0000068B9490860BE480068BC490860C04916
:1054E0000968B14A1268881A002801DB014600E009
:1054F0004142AE4A116010460068A749096890FB16
:10550000F1F0B84908600846006800EB80004001EF
:10551000A7490860B2480068A3490968884203DDCA
:105520000120A449086002E00020A2490860AE49B9
:105530000968A24A1268881A002801DB014600E0C7
:1055400041429F4A1160104600689349096890FBE8
:10555000F1F0A64908600846006800EB80004001B1
:1055600098490860A048006894490968884203DDAA
:1055700001209549086002E00020934908609C4999
:105580000968934A1268881A002801DB014600E086
:105590004142904A1160104600687F49096890FBBB
:1055A000F1F0944908600846006800EB8000400173
:1055B000894908608E48006885490968884203DD8A
:1055C00001208649086002E000208449086000F05C
:1055D000C5FD89490860FDF756FB6A480068062842
:1055E00013D10420FEF732F901280ED16648006875
:1055F00058B97A206549086001206249086062490B
:105600000860FAF70BFFFDF73EFB60480068722860
:105610007ED100205C49086000F0A0FD7749086059
:105620000846006874490968401AB0F57A7F08DDB9
:105630005B480068401E5A49086000F08FFD6E49C3
:10564000086052480068FAF701FF4E480068FDF70D
:105650003DFB0120FEF7FAF8012811D10320FDF7E8
:105660001EFB48480068052805DA46480068401CCB
:105670004449086002E0042042490860FAF7CEFE7F
:105680000020FEF7E3F8012811D10320FDF707FB06
:105690003C480068042805DD3A480068401E394946
:1056A000086002E0052037490860FAF7B7FE354880
:1056B000006803281ED10420FEF7C8F8012819D17C
:1056C00031480068B0B94E480068012804D100F0A4
:1056D0008CFD01204A49086040F276402B49086061
:1056E000032028490860012027490860FAF796FE40
:1056F000FDF7C9FA2348006804281AD1FEF7A6F876
:10570000012816D12048006898B900201F4900E000
:1057100008E108601B4908603A49086020490860B0
:1057200039490860012018490860FAF777FEFDF74B
:10573000AAFA00F013FD31490860084600683349B1
:105740000968401A1249096801EB4102C2EBC11114
:10575000B0EBC10F0EDD2A48006858B900F045FDD6
:1057600000F0FCFC2A4908600120FEF757F80120F0
:10577000234908602148006825490968401A0549FD
:10578000096847E020000020D40000201C00002011
:10579000480000204C000020440000205C00002055
:1057A000600000207C000020380000206400002001
:1057B0007000002050000020800000203C000020ED
:1057C00068000020740000205400002084000020A5
:1057D000400000206C0000207800002058000020CD
:1057E0002C000020B400002030000020B800002071
:1057F00034000020BC000020CC000020C8000020A5
:10580000E000002024000020D80000208C000020B0
:105810008800002001EB4102C2EBC111B0EBC10FC7
:1058200065DDFE480068012861D100F0DEFC00F073
:1058300095FCFB4908600020F84908600120FDF74D
:10584000EDFFF8480068401CF64908600023F64860
:1058500019460268F548006800F08AFCF3480068C1
:10586000012807D1F2480068F24909680844F04964
:10587000086006E0EE480068EE490968401AEC4905
:1058800008600123EC4800210268EC48006800F041
:105890006FFCEA480068012807D1E9480068E94937
:1058A00009680844E649086006E0E5480068E549FB
:1058B0000968401AE24908600223E34800210268AF
:1058C000E248006800F054FCE0480068012807D175
:1058D000DF480068DF4909680844DD49086006E0E0
:1058E000DB480068DB490968401AD9490860CD489F
:1058F0000068D9490968884214D10520FDF78EFF58
:105900000020D6490860D6490860D6490860D649C3
:105910000860C44908600120D4490860FAF77EFD98
:10592000FDF7B1F9CD48006840F2764188426ED16A
:105930000020CE490860C9480068FAF787FDC848CA
:105940000068FDF7C3F90120FDF780FF012811D1A0
:105950000320FDF7A4F9C2480068042805DAC0480E
:105960000068401CBE49086002E00320BC49086092
:10597000FAF754FD0020FDF769FF012811D103203B
:10598000FDF78DF9B6480068032805DDB4480068C6
:10599000401EB349086002E00420B1490860FAF7EC
:1059A0003DFDAF480068032814D10420FDF74EFFE9
:1059B00001280FD1AD48006860B90820A7490860E8
:1059C0000320A74908600120A8490860FAF726FDCE
:1059D000FDF759F9A2480068042818D1FDF736FFF1
:1059E000012814D1A148006888B900209B490860AB
:1059F0009B4908609B4908609B4908608949086089
:105A000001209A490860FAF709FDFDF73CF993482F
:105A1000006802287ED10020944908608F48006801
:105A2000FAF714FD8E480068FDF750F90120FDF7E4
:105A30000DFF012810D1FDF732F9894800680328CD
:105A400005DA87480068401C8549086002E00120AB
:105A500083490860FAF7E2FC0020FDF7F7FE012811
:105A600010D1FDF71CF97E480068012805DD7C484F
:105A70000068401E7A49086002E003207849086007
:105A8000FAF7CCFC76480068012814D10420FDF711
:105A9000DDFE01280FD17548006860B96F206F499D
:105AA000086002206E490860012070490860FAF71A
:105AB000B5FCFDF7E8F86A480068022813D1042015
:105AC000FDF7C4FE01280ED16848006858B9DD20F2
:105AD0006249086001206249086064490860FAF779
