:020000040800F2
:10000000E00400204501000895240008091D0008AF
:1000100091240008CB0300082D28000800000000F0
:10002000000000000000000000000000B5260008ED
:10003000CF0300080000000015250008C9270008AC
:100040005F0100085F0100085F010008FD2500084E
:100050005F0100085F0100085F0100085F01000800
:100060005F0100085F0100085F0100085F010008F0
:100070005F0100085F0100085F0100085F010008E0
:100080005F0100085F0100085F0100085F010008D0
:100090005F0100085F0100085F0100085F010008C0
:1000A0005F0100085F0100085F0100085F010008B0
:1000B0005F0100085F0100085F0100085F010008A0
:1000C0005F0100085F0100085F0100085F01000890
:1000D0005F0100085F0100085F0100085F01000880
:1000E0005F010008952500085F0100085F01000816
:1000F0005F0100085F0100085F0100085F01000860
:100100005F0100085F0100085F0100085F0100084F
:100110005F0100085F0100085F0100085F0100083F
:100120005F0100085F0100085F0100085F0100082F
:10013000DFF80CD000F028F900480047C929000872
:10014000E00400200648804706480047FEE7FEE737
:10015000FEE7FEE7FEE7FEE7FEE7FEE7FEE7FEE777
:10016000CD270008310100082DE9FE4F81EA030484
:1001700004F0004421F0004100944FF0000B23F004
:10018000004350EA01045ED052EA03045BD0C3F39B
:100190000A54C1F30A552C44A4F2F3340194A0FB91
:1001A0000254C1F3130141F48011C3F3130343F468
:1001B000801301FB024400FB034E840A970A44EAC1
:1001C000815447EA8357A4FB076802958D0A05FB13
:1001D00007854FEA932C04FB0C542705029D4FEA38
:1001E000065847EA1637B5EB08056EEB070C870E85
:1001F000920E47EA811742EA8312A7FB0201B6EB8F
:100200000B0164EB00042B0D43EA0C335E1844EB46
:100210001C50DA465146E7FB0201C5F313044FEACE
:100220000B3343EA14534FEA0432019C43EA0603BA
:10023000A4F10C040294009CCDE900B400F055F840
:1002400003B0BDE8F08F00200146F9E70EB5C10FFD
:1002500080EAE0700844CA07002140F233438DE889
:100260000E000A460B4600F040F803B000BD70B522
:10027000C1F30A5201F000450024C1F3130140F21A
:10028000FF3341F480119A4201DA002070BD40F240
:1002900033439A42A2F2334203DC524200F006F8A2
:1002A00000E090402C43F1D0404270BD202A04DB96
:1002B000203A21FA02F00021704721FA02F3D040DF
:1002C000C2F12002914008431946704710B5141E30
:1002D00073F1000408DA401C41F1000192185B41FF
:1002E0001A4301D120F0010010BD2DE9F04D9246D6
:1002F0009B4611B1B1FA81F202E0B0FA80F22032ED
:10030000904600F053F804460F4640EA0A0041EADE
:100310000B0153465A46084313D0114653EA0100D5
:1003200019D0C8F140025046FFF7C0FF05460E46FF
:1003300050465946424600F039F8084305D001209E
:1003400004E020463946BDE8F08D0020054346EA2A
:10035000E0762C4337430A986305E40AA0EB0800D3
:100360000022FD0A44EA47540A3002D50020014623
:10037000E9E7010510196941DDE9084500196941FE
:10038000BDE8F04DA2E70000064C074D06E0E0682E
:1003900040F0010394E8070098471034AC42F6D3CC
:1003A000FFF7CAFE6C4000088C400008202A04DBDE
:1003B000203A00FA02F1002070479140C2F1200378
:1003C00020FA03F319439040704700BFFEE77047DF
:1003D00001B502E00098401E009000980028F9D175
:1003E00008BD000000B5012002F032FA014800F01B
:1003F00003F800BD20A1070007E0022100E000BFD4
:100400000A1EA1F10101FAD100BF011EA0F10100F5
:10041000F3D1704710B50446082C7DD00CDC082CB5
:1004200081F00483DFE814F018002E003A0A390A3C
:10043000390A4300540108030B2C01F09A8005DCB3
:10044000092C6AD00A2C41F0F182FCE30C2C01F05B
:100450003D82582CF7D1F7E3F1A20A21142001F0D4
:1004600067FDF3A21E21142001F062FDF3A23221E8
:10047000142001F05DFDF4A24621142001F058FD86
:1004800001F0D4BAE6A20A21084601F051FDF1A21A
:100490001E21142001F04CFDF3A23221142001F0A2
:1004A00047FDF8A24621142001F042FDE8E7F7A23B
:1004B0000A21084601F03CFDFBA21E210A2001F0A2
:1004C00037FDFEA23221142001F032FDFE48006803
:1004D0004FF47A7190FBF1F00A2190FBF1F201FBED
:1004E00012003030F9490870F7480068642190FB29
:1004F000F1F00A2190FBF1F201FB12003030F449D7
:100500000870F14800680A2190FBF1F090FBF1F2CD
:1005100001FB1200303001E0A4E3FDE3ED49087077
:10052000E94800680A2190FBF1F201FB120030302B
:10053000E9490870E54802783221642001F0C6FCE0
:10054000E348027832216E2001F0C0FCE1480278D5
:100550003221782001F0BAFCDF4802783221822073
:1005600001F0B4FCDDA232218C2001F0E1FCDCA220
:100570004621142001F0DCFCDC4800684FF47A715D
:1005800090FBF1F00A2190FBF1F201FB12003030F8
:10059000D7490870D5480068642190FBF1F00A2122
:1005A00090FBF1F201FB12003030D2490870CF48C5
:1005B00000680A2190FBF1F090FBF1F201FB1200C0
:1005C0003030CD490870C94800680A2190FBF1F22B
:1005D00001FB12003030C9490870C5480278462135
:1005E000642001F073FCC348027846216E2001F0BC
:1005F0006DFCC14802784621782001F067FCBF48B5
:1006000002784621822001F061FCB4A246218C20B0
:1006100001F08EFCBAA25A21142001F089FCBB48DB
:1006200000684FF47A7190FBF1F00A2190FBF1F22F
:1006300001FB12003030B6490870B44800686421EC
:1006400090FBF1F00A2190FBF1F201FB1200303037
:10065000B0490870AD4800680A2190FBF1F090FBAA
:10066000F1F201FB12003030AB490870A748006876
:100670000A2190FBF1F201FB12003030A74908700B
:10068000A34802785A21642001F020FCA148027896
:100690005A216E2001F01AFC9F4802785A217820D6
:1006A00001F014FC9D4802785A21822001F00EFCD2
:1006B0008AA25A218C2001F03BFC99A26E211420C1
:1006C00001F036FC6FA28221142001F031FCD7E644
:1006D0006EA20A21084601F02BFC92A21E210A20DC
:1006E00001F026FC75A23221142001F021FC924871
:1006F00000684FF47A7190FBF1F00A2190FBF1F25F
:1007000001FB120030308D4908708B48006864216D
:1007100090FBF1F00A2190FBF1F201FB1200303066
:1007200087490870844800680A2190FBF1F090FB2B
:10073000F1F201FB12003030824908707E480068F7
:100740000A2190FBF1F201FB120030307E49087063
:100750007A4802783221642001F0B8FB78480278A8
:1007600032216E2001F0B2FB7648027832217820E7
:1007700001F0ACFB744802783221822001F0A6FB24
:1007800056A232218C2001F0D3FB55A24621142021
:1007900001F0CEFB6D4800684FF47A7190FBF1F0E8
:1007A0000A2190FBF1F201FB120030306849087019
:1007B00066480068642190FBF1F00A2190FBF1F299
:1007C00001FB1200303063490870604800680A215C
:1007D00090FBF1F090FBF1F201FB120030305E492A
:1007E00008705A4800680A2190FBF1F201FB1200E0
:1007F00030305A490870564802784621642001F08A
:1008000065FB5448027846216E2001F05FFB524898
:1008100002784621782001F059FB504802789FE089
:1008200054696D65204C61707365204D6F6465007F
:10083000566964656F204D6F646500004D616E758B
:10084000616C204D6F64650053657474696E6773E5
:1008500000000000496E74657261637469766520FA
:100860004D6F646500000000496E70757420506122
:1008700072616D6574657273204D616E75616C6C2B
:100880007900000052657475726E0000506C6561ED
:10089000736520736C6577207468652063616D658E
:1008A000726120746F00000074686520454E44201A
:1008B000706F736974696F6E00000000536C696437
:1008C000653A203C3C3C000028000020A0000020AD
:1008D000A1000020A2000020A30000203E3E3E0018
:1008E00050616E3A2020203C3C3C00002C0000204F
:1008F000A4000020A5000020A6000020A7000020E2
:1009000054696C743A20203C3C3C000030000020CC
:10091000A8000020A9000020AA000020AB000020B1
:100920005365740074686520535441525420706FAD
:10093000736974696F6E000034000020AC00002001
:10094000AD000020AE000020AF00002038000020E5
:10095000B0000020B1000020B2000020B300002051
:100960004621822001F0B2FAAFF2900246218C209B
:1009700001F0DEFAAFF278025A21142001F0D8FA21
:10098000FE4800684FF47A7190FBF1F00A2190FB69
:10099000F1F201FB12003030F9490870F7480068A5
:1009A000642190FBF1F00A2190FBF1F201FB1200AF
:1009B0003030F4490870F14800680A2190FBF1F0EA
:1009C00090FBF1F201FB12003030EF490870EB4868
:1009D00000680A2190FBF1F201FB12003030EB4974
:1009E0000870E74802785A21642001F06FFAE54860
:1009F00002785A216E2001F069FAE34802785A2100
:100A0000782001F063FAE14802785A21822001F04F
:100A10005DFAAFF238125A218C2001F089FAAFF258
:100A200000126E21142001F083FAAFF2A812822185
:100A3000142001F07DFA23E5D5A20A21084601F031
:100A400077FAD9A21E210A2001F072FAD9A2322126
:100A5000142001F06DFADB4800684FF47A7190FBC6
:100A6000F1F00A2190FBF1F201FB12003030D6497F
:100A70000870D4480068642190FBF1F00A2190FBD3
:100A8000F1F201FB12003030D0490870CD48006807
:100A90000A2190FBF1F090FBF1F201FB12003030E3
:100AA000CB490870C74800680A2190FBF1F201FBAE
:100AB00012003030C7490870C348027832217D20C7
:100AC00001F004FAC14802783221872001F0FEF9D2
:100AD000BF4802783221912001F0F8F9BD48027830
:100AE00032219B2001F0F2F9AFF210223221A52031
:100AF00001F01EFAB8A24621142001F019FABA48F2
:100B000000684FF47A7190FBF1F00A2190FBF1F24A
:100B100001FB12003030B5490870B3480068642109
:100B200090FBF1F00A2190FBF1F201FB1200303052
:100B3000AF490870AC4800680A2190FBF1F090FBC7
:100B4000F1F201FB12003030AA490870A648006893
:100B50000A2190FBF1F201FB12003030A649087027
:100B6000A248027846217D2001F0B0F9A048027821
:100B70004621872001F0AAF99E480278462191205B
:100B800001F0A4F99C48027846219B2001F09EF9CF
:100B9000AFF2B8224621A52001F0CAF997A25A2146
:100BA000142001F0C5F9994800684FF47A7190FB60
:100BB000F1F00A2190FBF1F201FB12003030944970
:100BC000087092480068642190FBF1F00A2190FBC4
:100BD000F1F201FB120030308E4908708B4800683A
:100BE0000A2190FBF1F090FBF1F201FB1200303092
:100BF00089490870854800680A2190FBF1F201FBE1
:100C00001200303085490870814802785A217D20D1
:100C100001F05CF97F4802785A21872001F056F9EB
:100C20007D4802785A21912001F050F97B480278E2
:100C30005A219B2001F04AF9AFF260325A21A520D7
:100C400001F076F901E099E38BE1AFF22C326E21ED
:100C5000142001F06DF9AFF2D4328221142001F09A
:100C600067F90DE46EA20A21084601F061F973A24A
:100C70001E210A2001F05CF9744800684FF47A7173
:100C800090FBF1F00A2190FBF1F201FB12003030F1
:100C90006F4908706D480068642190FBF1F00A21EB
:100CA00090FBF1F201FB120030306A49087067488E
:100CB00000680A2190FBF1F090FBF1F201FB1200B9
:100CC000303065490870614800680A2190FBF1F2F4
:100CD00001FB12003030614908705D4802781E2126
:100CE0006E2001F0F3F85B4802781E21782001F0B5
:100CF000EDF8594802781E21822001F0E7F85748A4
:100D000002781E218C2001F0E1F855A232210A2040
:100D100001F00EF955A200E022E23221822001F01A
:100D200007F952A23221A02001F002F950480068D0
:100D30004FF4616190FBF1F04E490860084600688D
:100D4000C0EB00104A490968A1EB80003C2190FBF0
:100D5000F1F04949086047480068C0EB4011C1EB19
:100D6000002043490968A1EB001043490968C1EB21
:100D70000111A0EB81004149086081E03C000020A6
:100D8000B4000020B5000020B6000020B70000200D
:100D9000506C6561736520656E74657220666F6C5A
:100DA0006C6F77696E670000706172616D65746564
:100DB0007273000046616D65733A202020203C3C30
:100DC0003C00000040000020B8000020B9000020D6
:100DD000BA000020BB000020496E74657276616C19
:100DE0003A203C3C3C00000044000020BC000020B5
:100DF000BD000020BE000020BF00002053687574B5
:100E00007465723A20203C3C3C0000004800002001
:100E1000C0000020C1000020C2000020C30000204C
:100E200054616B696E672054696D65204C61707305
:100E3000652E2E2E202E2E2E0000000046616D65A0
:100E4000732054616B656E3A20000000940000200E
:100E5000C4000020C5000020C6000020C7000020FC
:100E600054696D65204C6566743A00003A000000D4
:100E70005C000020D0000020D4000020D80000201A
:100E8000FE4800680A2190FBF1F090FBF1F201FBB3
:100E900012003030FA490870F84800680A2190FBC7
:100EA000F1F201FB12003030F6490870F648006894
:100EB0000A2190FBF1F090FBF1F201FB12003030BF
:100EC000F2490870F04800680A2190FBF1F201FB3A
:100ED00012003030EE490870EE4800680A2190FB9D
:100EE000F1F090FBF1F201FB12003030EA4908709A
:100EF000E84800680A2190FBF1F201FB1200303053
:100F0000E6490870DE48027832216E2000F0DEFFEC
:100F1000DC4802783221782000F0D8FFDB480278E4
:100F200032218C2000F0D2FFD9480278322196205D
:100F300000F0CCFFD84802783221AA2000F0C6FF8A
:100F4000D64802783221B42000F0C0FFD4A2462156
:100F5000142000F0EDFFD4A25A21142000F0E8FF85
:100F600069E5AFF244120A21084600F0E1FFAFF252
:100F700034121E210A2000F0DBFFCD4800684FF438
:100F80007A7190FBF1F00A2190FBF1F201FB120063
:100F90003030C8490870C6480068642190FBF1F001
:100FA0000A2190FBF1F201FB12003030C2490870B7
:100FB000BF4800680A2190FBF1F090FBF1F201FBC1
:100FC00012003030BD490870B94800680A2190FB12
:100FD000F1F201FB12003030B9490870B5480278CF
:100FE0001E216E2000F072FFB34802781E21782087
:100FF00000F06CFFB14802781E21822000F066FFED
:10100000AF4802781E218C2000F060FFAFF2B012D2
:1010100032210A2000F08CFFAFF2B0123221822080
:1010200000F086FFAFF2BC123221A02000F080FF5A
:10103000A44800684FF4616190FBF1F08F490860AB
:1010400008460068C0EB00109E490968A1EB8000CB
:101050003C2190FBF1F08C49086088480068C0EBA7
:101060004011C1EB002097490968A1EB00108649A7
:101070000968C1EB0111A0EB8100864908607F4837
:1010800000680A2190FBF1F090FBF1F201FB1200E5
:1010900030307B490870794800680A2190FBF1F2F2
:1010A00001FB1200303077490870774800680A2148
:1010B00090FBF1F090FBF1F201FB1200303073492C
:1010C0000870714800680A2190FBF1F201FB1200E0
:1010D00030306F4908706F4800680A2190FBF1F0CA
:1010E00090FBF1F201FB120030306B490870694847
:1010F00000680A2190FBF1F201FB120030306749D1
:1011000008705F48027832216E2000F0DFFE5D48F3
:1011100002783221782000F0D9FE5C480278322132
:101120008C2000F0D3FE5A4802783221962000F03D
:10113000CDFE594802783221AA2000F0C7FE574858
:1011400002783221B42000F0C1FE5FA246211420B3
:1011500000F0EEFE54A25A21142000F0E9FE6AE4E9
:101160005BA20A21084600F0E3FE63A20A210846BA
:1011700000F0DEFE644800684FF47A7190FBF1F0F5
:101180000A2190FBF1F201FB120030305F49087038
:101190005D480068642190FBF1F00A2190FBF1F2B8
:1011A00001FB120030305A490870574800680A2184
:1011B00090FBF1F090FBF1F201FB12003030554949
:1011C0000870514800680A2190FBF1F201FB1200FF
:1011D0003030514908704D4802781421322000F017
:1011E00075FE4B48027814213C2000F06FFE494800
:1011F00002781421462000F069FE47480278142145
:10120000502000F063FE45A20A21084600F090FE3F
:10121000454800684FF47A7190FBF1F00A2190FB89
:10122000F1F201FB12003030404908703E4800687E
:10123000642190FBF1F00A2190FBF1F201FB120016
:1012400030303B490870384800680A2190FBF1F0C3
:1012500090FBF1F201FB1200303036490870324841
:1012600000680A2190FBF1F201FB12003030324994
:1012700008702E480278142132205FE0D000002050
:10128000C8000020C9000020D4000020CA000020AF
:10129000CB000020D8000020CC000020CD00002092
:1012A000506175736500000053746F70000000009A
:1012B00094000020C4000020C5000020C6000020CB
:1012C000C70000205C000020526573756D6500004A
:1012D000506C6561736520656E7465722074686515
:1012E00020666F6C6C6F77696E6720706172616DDC
:1012F0006574657273000000546F74616C20466100
:101300006D65733A0000000040000020B800002026
:10131000B9000020BA000020BB000020496E7465AF
:101320007276616C3A00000044000020BC0000208E
:10133000BD000020BE000020BF00002000F0C6FD60
:10134000FD48027814213C2000F0C0FDFB480278E3
:101350001421462000F0BAFDF948027814215020EB
:1013600000F0B4FDF7A20A21084600F0E1FDAFF657
:10137000EC220A21084600F0DBFD57E3F4A20A2123
:10138000084600F0D5FDFCA20A21084600F0D0FD79
:10139000FE4800684FF47A7190FBF1F00A2190FB4F
:1013A000F1F201FB12003030F9490870F74800688B
:1013B000642190FBF1F00A2190FBF1F201FB120095
:1013C0003030F4490870F14800680A2190FBF1F0D0
:1013D00090FBF1F201FB12003030EF490870EB484E
:1013E00000680A2190FBF1F201FB12003030EB495A
:1013F0000870E74802781421322000F067FDE548C4
:10140000027814213C2000F061FDE34802781421A9
:10141000462000F05BFDE14802781421502000F0E6
:1014200055FDDFA20A21084600F082FDE148006870
:101430004FF47A7190FBF1F00A2190FBF1F201FB7D
:1014400012003030DC490870DA480068642190FBF3
:10145000F1F00A2190FBF1F201FB12003030D74984
:101460000870D44800680A2190FBF1F090FBF1F27B
:1014700001FB12003030D2490870CE4800680A21C2
:1014800090FBF1F201FB12003030CE490870CA48DF
:1014900002781421322000F019FDC8480278142186
:1014A0003C2000F013FDC64802781421462000F0CD
:1014B0000DFDC44802781421502000F007FDC2A29F
:1014C0000A21084600F034FDC44800684FF47A71E0
:1014D00090FBF1F00A2190FBF1F201FB1200303099
:1014E000BF490870BD480068642190FBF1F00A21F3
:1014F00090FBF1F201FB12003030BA490870B74896
:1015000000680A2190FBF1F090FBF1F201FB120060
:101510003030B5490870B14800680A2190FBF1F2FB
:1015200001FB12003030B1490870AD480278142137
:10153000322000F0CBFCAB48027814213C2000F0B4
:10154000C5FCA94802781421462000F0BFFCA7483A
:1015500002781421502000F0B9FC7AA20A21084632
:1015600000F0E6FCAFF6E4420A21084600F0E0FC99
:101570005CE2AFF2A4220A21084600F0D9FC9CA24A
:101580000A21084600F0D4FC9D4800684FF47A71A7
:1015900090FBF1F00A2190FBF1F201FB12003030D8
:1015A0009849087096480068642190FBF1F00A2180
:1015B00090FBF1F201FB1200303093490870904823
:1015C00000680A2190FBF1F090FBF1F201FB1200A0
:1015D00030308E4908708A4800680A2190FBF1F289
:1015E00001FB120030308A490870864802781421C5
:1015F000322000F06BFC8448027814213C2000F07B
:1016000065FC824802781421462000F05FFC804887
:1016100002781421502000F059FC7EA20A210846CD
:1016200000F086FC7F4800684FF47A7190FBF1F07F
:101630000A2190FBF1F201FB120030307A49087068
:1016400078480068642190FBF1F00A2190FBF1F2E8
:1016500001FB1200303075490870724800680A2199
:1016600090FBF1F090FBF1F201FB12003030704979
:1016700008706C4800680A2190FBF1F201FB12002F
:1016800030306C490870684802781421322000F02C
:101690001DFC6648027814213C2000F017FC6448C9
:1016A00002781421462000F011FC624802781421CF
:1016B000502000F00BFC60A20A21084600F038FC24
:1016C000614800684FF47A7190FBF1F00A2190FBB9
:1016D000F1F201FB120030305C4908705A48006892
:1016E000642190FBF1F00A2190FBF1F201FB120062
:1016F000303057490870544800680A2190FBF1F0D7
:1017000090FBF1F201FB12003030524908704E4854
:1017100000680A2190FBF1F201FB120030304E49C3
:1017200008704A4802781421322000F0CFFB484864
:10173000027814213C2091E0BD000020BE00002072
:10174000BF000020436F6E74696E75650000000075
:10175000506C6561736520656E7465722074686590
:1017600020666F6C6C6F77696E6720706172616D57
:101770006574657273200000537461727420506F39
:10178000736974696F6E5F583A000000340000207E
:10179000AC000020AD000020AE000020AF00002013
:1017A000537461727420506F736974696F6E5F59FE
:1017B0003A00000038000020B0000020B1000020F6
:1017C000B2000020B3000020537461727420506F87
:1017D000736974696F6E5F5A3A0000003C00002024
:1017E000B4000020B5000020B6000020B7000020A3
:1017F000454E4420506F736974696F6E5F583A00AC
:1018000028000020A0000020A1000020A20000204D
:10181000A3000020454E4420506F736974696F6EB9
:101820005F593A002C000020A4000020A5000020F1
:10183000A6000020A7000020454E4420506F736989
:1018400074696F6E5F5A3A0030000020A8000020D3
:10185000A9000020AA000020AB00002000F036FB09
:10186000734802781421462000F030FB714802785A
:101870001421502000F02AFBAFF634220A2108463A
:1018800000F056FBAFF244120A21084600F050FB6C
:10189000694A0A21084600F04BFBC7E0664A543A01
:1018A0000A21084600F044FB634A303A0A21084600
:1018B00000F03EFB604A1C3A0A21084600F038FB63
:1018C0005D4A0A21084600F033FB00BFAFF2006218
:1018D0000A21084600F02CFBAFF2E4520A21084628
:1018E00000F026FB554800684FF47A7190FBF1F048
:1018F0000A2190FBF1F201FB1200303050490870D0
:101900004E480068642190FBF1F00A2190FBF1F24F
:1019100001FB120030304B490870484800680A212A
:1019200090FBF1F090FBF1F201FB120030304649E0
:101930000870424800680A2190FBF1F201FB120096
:101940003030424908703E4802781421322000F0BD
:10195000BDFA3C48027814213C2000F0B7FA3A481E
:1019600002781421462000F0B1FA38480278142198
:10197000502000F0ABFAAFF25C620A21084600F09A
:10198000D7FA334800684FF47A7190FBF1F00A21DE
:1019900090FBF1F201FB120030302E4908702C4808
:1019A0000068642190FBF1F00A2190FBF1F201FB49
:1019B0001200303028490870254800680A2190FB41
:1019C000F1F090FBF1F201FB120030302349087076
:1019D0001F4800680A2190FBF1F201FB1200303031
:1019E0001F4908701B4802781421322000F06EFA5B
:1019F0001948027814213C2000F068FA1748027850
:101A00001421462000F062FA154802781421502073
:101A100000F05CFAAFF2D4220A21084600F088FAFE
:101A2000054A0A21084600F083FA00BF00BF10BD36
:101A3000AA000020AB00002084080008400000201D
:101A4000B8000020B9000020BA000020BB00002030
:101A500044000020BC000020BD000020BE0000208B
:101A6000BF00002051B18200A2F1C042126842F0D2
:101A700001038200A2F1C042136009E08200A2F1DA
:101A8000C0421268034B1A408300A3F1C0431A609E
:101A900070470000FEFF0F00D0E901121143C26839
:101AA0001143026911434269114382691143C269BA
:101AB0001143026A1143426A1143826A1143C26AA6
:101AC0001143026B114302689200A2F1C0421160FF
:101AD000816808290BD101688900A1F1C04109681A
:101AE00041F0400201688900A1F1C0410A60416BE8
:101AF0000968426B526841EA0211426B926841EAFE
:101B00000221426B928941EA0241426B128A41EA08
:101B10000251426B127D41EA0261426B92691143AC
:101B20000268521C9200A2F1C0421160C16AB1F574
:101B3000804F1BD1816B0968826B526841EA0211A8
:101B4000826B926841EA0221826B128A41EA025159
:101B5000826B127D41EA0261826B926911430268D5
:101B60009200A2F1C042C2F8041107E06FF0704287
:101B700001688900A1F1C041C1F80421704700004B
:101B800008B50121042000F0E7FC4FF4FE70ADF829
:101B9000000010208DF8030003208DF80200694634
:101BA0000B4800F019F84FF47F70094914310860B0
:101BB0000121082000F0D0FC40F2E330ADF8000035
:101BC00004208DF803006946024800F005F808BDBE
:101BD00000080140000C01402DE9F04102460025BB
:101BE0000026002000230024002791F803C00CF0F9
:101BF0000F0591F803C00CF0100CBCF1000F03D0DE
:101C000091F802C04CEA050591F800C0BCF1000F44
:101C100031D0146800202BE04FF0010C0CFA00F3D7
:101C2000B1F800C00CEA03069E4220D183004FF0B9
:101C30000F0C0CFA03F7BC4305FA03FC4CEA04044E
:101C400091F803C0BCF1280F06D14FF0010C0CFA3B
:101C500000FCC2F814C00AE091F803C0BCF1480FC0
:101C600005D14FF0010C0CFA00FCC2F810C0401C6A
:101C70000828D1D31460B1F800C0BCF1FF0F34DDE7
:101C8000546800202EE000F1080C4FF0010808FA1B
:101C90000CF3B1F800C00CEA03069E4221D1830088
:101CA0004FF00F0C0CFA03F7BC4305FA03FC4CEAA7
:101CB000040491F803C0BCF1280F05D100F1080C11
:101CC00008FA0CF8C2F8148091F803C0BCF1480F70
:101CD00007D100F1080C4FF0010808FA0CF8C2F81F
:101CE0001080401C0828CED35460BDE8F081024625
:101CF000002093680B400BB1012000E000207047EA
:101D0000416170470161704700BFFEE710B50446AE
:101D10002CB14FF480510548FFF7F2FF04E04FF477
:101D200080510248FFF7EEFF10BD00000014014093
:101D30002DE9F04106460F4614461D46DDF8188091
:101D40002B4622463946304600F0DFF904FB05F009
:101D5000414600F040F9BDE8F08108B54FF6FF704C
:101D60004FF4A073F022002100900846FFF7E0FF37
:101D700008BD38B504464FF6FF70009004EB8400B0
:101D80000A2202EB8000C0F5A07083B204EB84004D
:101D900002EB800081B20F220520FFF7C9FF38BD9A
:101DA00010B50446092C33D2DFE804F0050A0F14FD
:101DB000191E23282D000F21052000F02BF827E005
:101DC0002321052000F026F822E03721052000F02D
:101DD00021F81DE04B21052000F01CF818E05F21E0
:101DE000052000F017F813E07321052000F012F829
:101DF0000EE08721052000F00DF809E09B21052069
:101E000000F008F804E0AF21052000F003F800BF5F
:101E100000BF10BD70B504460D46A9B2A0B205239F
:101E20000A2200F072F90021642000F0D4F86A1C44
:101E300091B204F10A0290B20323012200F065F985
:101E40000021122000F0C7F8AA1C91B204F10B0285
:101E500090B201231A4600F058F90021012000F049
:101E6000BAF86A1E91B204F1080290B2012302226C
:101E700000F04BF90021122000F0ADF8AA1E91B23B
:101E800004F1080290B201231A4600F03EF9002145
:101E9000012000F0A0F86A1D91B204F1080290B28E
:101EA0000123022200F031F90021122000F093F802
:101EB000AA1D91B204F1080290B201231A4600F063
:101EC00024F90021012000F086F870BD2DE9F047CB
:101ED000804689461546A5F1200000F0FF0A102330
:101EE00008224946404600F010F92C2000F06AFA1A
:101EF000002417E00D4800EB0A10065D00270DE0F6
:101F000006F0010018B11F2000F060FA03E04FF660
:101F1000FF7000F05BFA7610781CC7B2082FEFDB79
:101F2000601CC4B2102CE5DBBDE8F0877A3A0008EB
:101F300070B505460E46144617E028460830F028CE
:101F400003DD002506F1100086B230461030B0F5F2
:101F5000A07F01DD00250026227831462846FFF7C4
:101F6000B5FF641C05F1080085B220780028E4D193
:101F700070BD00B597B00121080200F0CDFA022033
:101F8000019000200290052003900020049005900D
:101F900006904FF08050079000200890099008208C
:101FA0000A9010200B9000200C900E900F90109033
:101FB0004FF480501190002012901390149001A8BB
:101FC0001590169008A8FFF767FD01210020FFF784
:101FD00049FD17B000BD70B504460D4600262C2003
:101FE00000F0F0F900BF03E0284600F0EFF9761C9E
:101FF000A642F9D370BD000008B50121084600F0E3
:10200000ABFA0121602000F0A7FA03208DF802004E
:1020100018208DF803004CF20370ADF800006946FB
:102020002C48FFF7D9FD4FF68070ADF800006946E7
:102030002948FFF7D1FD03208DF8020018208DF804
:1020400003001020ADF8000069462248FFF7C4FDE8
:102050002020ADF8000069461E48FFF7BDFD0121B4
:10206000202000F079FA8020ADF800006946194878
:10207000FFF7B2FD0121202000F06EFA4FF400605E
:10208000ADF8000069461348FFF7A6FD10208DF853
:10209000030003208DF802000121402000F05CFACB
:1020A0000220ADF8000069460B48FFF795FD1020AF
:1020B0008DF8030003208DF802000121202000F09C
:1020C0004BFA4FF48050ADF8000069460148FFF725
:1020D00083FD08BD001401400018014008B5FFF75A
:1020E0008BFFFFF746FF0120FFF710FE00F056F9C7
:1020F00000F03CF84FF6FF704FF4A073F02200217F
:1021000000900846FFF714FE08BD2DE9F041044693
:102110000D4616461F462A2000F054F9201200F002
:1021200055F9E0B200F052F9A119491EC1F30F2090
:1021300000F04CF9A119491EC8B200F047F92B2054
:1021400000F040F9281200F041F9E8B200F03EF941
:10215000E919491EC1F30F2000F038F9E919491EA9
:10216000C8B200F033F9BDE8F081000010B5CF200F
:1021700000F028F9002000F029F9812000F026F96C
:10218000302000F023F9ED2000F01CF9642000F06D
:102190001DF9032000F01AF9122000F017F9812030
:1021A00000F014F9E82000F00DF9852000F00EF998
:1021B000102000F00BF9782000F008F9CB2000F097
:1021C00001F9392000F002F92C2000F0FFF800207E
:1021D00000F0FCF8342000F0F9F8022000F0F6F8E6
:1021E000F72000F0EFF8202000F0F0F8EA2000F0EF
:1021F000E9F8002000F0EAF8002000F0E7F8B1204C
:1022000000F0E0F8002000F0E1F81B2000F0DEF81C
:10221000B62000F0D7F80A2000F0D8F8A22000F08D
:10222000D5F8C02000F0CEF8352000F0CFF8C1205E
:1022300000F0C8F8112000F0C9F8C52000F0C2F87D
:10224000452000F0C3F8452000F0C0F8C72000F09A
:10225000B9F8A22000F0BAF8F22000F0B3F800209C
:1022600000F0B4F8262000F0ADF8012000F0AEF840
:10227000E02000F0A7F80F2000F0A8F8262000F0DA
:10228000A5F8242000F0A2F80B2000F09FF80E2003
:1022900000F09CF8092000F099F8542000F096F81E
:1022A000A82000F093F8462000F090F80C2000F0F1
:1022B0008DF8172000F08AF8092000F087F80F2029
:1022C00000F084F8072000F081F8002000F07EF88C
:1022D000E12000F077F8002000F078F8192000F0F5
:1022E00075F81B2000F072F8042000F06FF8102041
:1022F00000F06CF8072000F069F82A2000F066F87A
:10230000472000F063F8392000F060F8032000F067
:102310005DF8062000F05AF8062000F057F830204B
:1023200000F054F8382000F051F80F2000F04EF87B
:10233000362000F047F8C82000F048F82A2000F0C6
:1023400041F8002000F042F8002000F03FF80020A3
:1023500000F03CF8EF2000F039F82B2000F032F8C4
:10236000002000F033F8002000F030F8012000F0E9
:102370002DF83F2000F02AF83A2000F023F85520ED
:1023800000F024F8112000F01DF80348FEF720F8B3
:10239000292000F017F810BDFCBF020010B5022183
:1023A0000648FFF7ADFC0648FEF712F80221034885
:1023B000FFF7A8FC0248FEF70BF810BD001801401B
:1023C000FCBF02004FF0C0410880704701490880FF
:1023D000704700000000026008B501214FF0C050B6
:1023E00000F0AAF8012000F08FF84FF4407000F0E0
:1023F000C9F8012000F0C0F800F040F900F048F9F9
:1024000000F0D6F83E2000F029F900F037F900205E
:1024100000F016F900F032F94FF6FF701B49088002
:1024200000F02CF94FF6FF701849091D088000F0E4
:1024300025F90121022000F0F3F814481C38008827
:1024400000F0020011491C39088000F017F900F073
:10245000B9F829208DF8000000208DF801008DF8D2
:10246000020001208DF80300684600F015F80320F3
:102470008DF8000000208DF801008DF80200012089
:102480008DF80300684600F007F808BD20280040DA
:1024900000BFFEE77047000070B5002100230F2247
:1024A000C47804B3154C246804F4E064C4F5E06413
:1024B000210AC1F10403CA40447804FA03F1847884
:1024C0001440214309010E4C0678A155047804F00C
:1024D0001F050124AC4005786D11AD0005F1E02524
:1024E000C5F8004109E0047804F01F050124AC4060
:1024F000044D0678761145F8264070BD0CED00E0DD
:1025000000E400E080E100E001490862704700005B
:1025100000000E427047000029B1064A526902438A
:10252000044B5A6104E0034A52698243014B5A61E9
:10253000704700000010024029B1064AD2690243E8
:10254000044BDA6104E0034AD2698243014BDA6149
:10255000704700000010024029B1064A9269024308
:10256000044B9A6104E0034A92698243014B9A61E9
:1025700070470000001002400149086070470000E9
:102580003C0442420249096A0143014A1162704710
:102590000010024010B5022000F002F810BD00004B
:1025A000024909888143014A11807047042800408C
:1025B0000348008840F0100001490880704700007F
:1025C00004280040034800884FF6EF710840014995
:1025D000088070470428004001460020064A1288FF
:1025E0000A40D0B2044A121F12880A4012B108B140
:1025F000012000E0002070470428004010B50220B0
:10260000FFF7EAFF012808D10220FFF7C9FF0348BE
:10261000006810B101480068804710BD000000202C
:1026200029B1064A12880243044B1A8004E0034A87
:1026300012888243014B1A80704700000028004036
:1026400000B50246FFF7B4FF100C03490880091DCE
:102650000A80FFF7B7FF00BD1828004000B502460A
:10266000FFF7A6FFC2F3034003490880091D0A8053
:10267000FFF7A8FF00BD00000828004000BF034886
:10268000008800F020000028F9D07047042800409E
:10269000074800884FF6F77108400549088000BFD9
:1026A0000348008800F008000028F9D070470000B7
:1026B00004280040704710B500F002F810BD00007B
:1026C0000CB50020019000903348006840F4803041
:1026D0003149086000BF3048006800F400300090C5
:1026E0000198401C0190009818B90198B0F5A06FAE
:1026F000F1D12948006800F4003010B101200090A9
:1027000001E0002000900098012843D12348006890
:1027100040F01000214908600846006820F00300DE
:1027200008600846006840F0020008601A484068E7
:10273000194948600846406848600846406840F4C7
:10274000806048600846406820F47C104860084675
:10275000406840F4E81048600846006840F0807027
:10276000086000BF0C48006800F000700028F9D035
:102770000948406820F0030007494860084640685F
:1027800040F00200486000BF0348406800F00C00C1
:102790000828F9D10CBD00000010024000200240C2
:1027A00010B5044674B90121084600F0B9F81420A8
:1027B000FDF722FE0021012000F0B2F81420FDF701
:1027C0001BFE00BF00BF10BD7047000010B51348CE
:1027D000006840F00100114908600846406810494F
:1027E00008400E494860084600680E4908400B49F9
:1027F00008600846006820F48020086008464068A9
:1028000020F4FE0048604FF41F008860FFF753FF7C
:102810004FF000600449086010BD00000010024045
:102820000000FFF8FFFFF6FE08ED00E000BFFEE746
:1028300002E008C8121F08C1002AFAD17047704789
:10284000002001E001C1121F002AFBD170470000E7
:1028500030B5044600250EE00848FDF7CDFD012106
:10286000002000F05DF80548FDF7C6FD0021084690
:1028700000F056F86D1CA542EEDB30BDA0860100CD
:1028800070B50546072D46D2DFE805F0040D161F8A
:1028900028313B0001212148FFF729FA08B1002423
:1028A00000E0012437E002211C48FFF720FA08B1BC
:1028B000002400E001242EE020211848FFF717FA39
:1028C00008B1002400E0012425E040211348FFF76F
:1028D0000EFA08B1002400E001241CE080210F481A
:1028E000FFF705FA08B1002400E0012413E04FF4DB
:1028F00080710A48FFF7FBF908B1002400E00124C9
:1029000009E04FF400710548FFF7F1F908B1002420
:1029100000E0012400BF00BF204670BD000C014054
:1029200007284DD2DFE800F0040E18222C364000B4
:1029300019B90422234B1A6003E00422214B1B1F08
:102940001A603DE019B908221E4B1A6003E0082204
:102950001C4B1B1F1A6033E019B91022194B1A6067
:1029600003E01022174B1B1F1A6029E019B920221F
:10297000144B1A6003E02022124B1B1F1A601FE049
:1029800019B940220F4B1A6003E040220D4B1B1F68
:102990001A6015E019B980220A4B1A6003E0802200
:1029A000084B1B1F1A600BE021B94FF48072054BD6
:1029B0001A6004E04FF48072024B1B1F1A6000BFC4
:1029C00000BF704714080140FFF788FBFFF7D8F8F5
:1029D000FFF702FD0220FFF73BFFFDA20A21084698
:1029E000FFF7A6FAFFF7B9F900F0FEFFFE4908600D
:1029F0000020FE490860FE49086000F0CABFFB489D
:102A0000006800287ED1FB490860F8480068FDF79F
:102A100001FDF7480068FFF7C3F90120FFF730FF19
:102A2000012811D10020FFF7A4F9F148006803281C
:102A300005DAEF480068401CED49086002E000201C
:102A4000EB490860FDF7CEFC0020FFF719FF0128D5
:102A500011D10020FFF78DF9E5480068002805DD59
:102A6000E3480068401EE249086002E00320E049B4
:102A70000860FDF7B7FCDE480068A0B90420FFF746
:102A8000FFFE01280FD1DB48006860B90120D7495B
:102A90000860D7490860D8490860D6490860FDF742
:102AA000A1FCFFF75AF9D2480068012813D104208D
:102AB000FFF7E6FE01280ED1CE48006858B9022083
:102AC000CA4908600120CA490860CA490860FDF780
:102AD00089FCFFF742F9C6480068022815D1042096
:102AE000FFF7CEFE012810D1C248006868B9032064
:102AF000BE4908600120BE490860BE490860FDF774
:102B000071FC00E019E0FFF728F9B94800680328D4
:102B100013D10420FFF7B4FE01280ED1B548006898
:102B200058B90420B14908600120B1490860B14991
:102B30000860FDF757FCFFF710F9AC480068012862
:102B40007ED10020AB490860A8480068FDF762FC10
:102B5000A7480068FFF724F90120FFF791FE01283C
:102B600010D1FFF706F9A2480068032805DAA0484B
:102B70000068401C9E49086002E001209C490860F2
:102B8000FDF730FC0020FFF77BFE012810D1FFF796
:102B9000F0F897480068012805DD95480068401E58
:102BA0009349086002E0032091490860FDF71AFC90
:102BB0008F480068012814D10420FFF761FE012826
:102BC0000FD18C48006860B9052088490860022050
:102BD00087490860012087490860FDF703FCFFF77B
:102BE000BCF883480068022813D10420FFF748FE90
:102BF00001280ED17F48006858B909207B49086038
:102C000001207B4908607B490860FDF7EBFBFFF77B
:102C1000A4F877480068032817D10420FFF730FE96
:102C2000012812D17348006850B900206F4908602C
:102C30006F4908607049086001206E49086000E033
:102C400003E0FDF7CFFBFFF788F868480068052828
:102C50007ED100206749086064480068FDF7DAFB10
:102C600063480068FFF79CF80120FFF709FE012880
:102C700011D10220FFF77DF85D480068062805DACB
:102C80005B480068401C5A49086002E0022058492D
:102C90000860FDF7A7FB0020FFF7F2FD012811D126
:102CA0000220FFF766F852480068022805DD504808
:102CB0000068401E4E49086002E006204C4908604A
:102CC000FDF790FB0020FFF7DBFD90B90120FFF737
:102CD000D7FD70B90220FFF7D3FD50B90320FFF7ED
:102CE000CFFD30B90420FFF7CBFD10B9434844496C
:102CF00008603F480068022824D1FFF7C1FD012881
:102D000020D140480068401E3E4908600023A022B0
:102D10001946184600F072FE39480068FDF76CFB52
:102D2000374800680A280DDD35480068FDF78EFA3F
:102D30000646354A354BFDF717FA0446FDF797FA74
:102D40002F4908602A480068022827D1032000E0A4
:102D500007E1FFF795FD012820D12A480068401CB3
:102D6000284908600023A0221946012000F046FEF1
:102D700023480068FDF740FB214800680A280DDD64
:102D80001F480068FDF762FA06461F4A1F4BFDF711
:102D9000EBF90446FDF76BFA19490860144800681E
:102DA000032843D10220FFF76BFD01283ED11848CC
:102DB0000068401E1649086011480068FDF71CFBBA
:102DC0000F4800680A2831DD0D48006822E0000045
:102DD000496E697469616C697A65696E67202E2E27
:102DE0002E202E2E2E000000840000201C0000202B
:102DF00020000020900000202400002020A10700D7
:102E000098000020280000209A9999999999E93F03
:102E10002C000020FDF71AFA0646FE4AFE4BFDF78D
:102E2000A3F90446FDF723FAFC490860FC48006852
:102E300003281ED1FFF724FD01281AD1F9480068A4
:102E4000401CF8490860F5480068FDF7D5FAF348DA
:102E500000680A280DDDF1480068FDF7F7F906461D
:102E6000EC4AED4BFDF780F90446FDF700FAEB491B
:102E70000860EB48006804281FD10220FFF700FD1E
:102E800001281AD1E8480068401EE7490860E34875
:102E90000068FDF7B1FAE14800680A280DDDDF4857
:102EA0000068FDF7D3F90646DA4ADB4BFDF75CF91B
:102EB0000446FDF7DCF9D9490860D94800680428C0
:102EC0001FD10320FFF7DCFC01281AD1D648006887
:102ED000401CD5490860D1480068FDF78DFACF48FD
:102EE00000680A280DDDCD480068FDF7AFF90646F9
:102EF000C84AC94BFDF738F90446FDF7B8F9C74988
:102F00000860C7480068052814D10420FFF7B8FC02
:102F100001280FD1C548006860B90620C44908607F
:102F20000220BF4908600120C0490860FDF75AFA35
:102F3000FEF713FFBA480068062812D10420FFF7F5
:102F40009FFC01280DD1B948006850B90120B8494B
:102F50000860B3490860B5490860FDF743FAFEF719
:102F6000FCFEB348006806287ED10020AF49086007
:102F7000AF480068FDF74EFAA9480068FEF710FF59
:102F80000120FFF77DFC012811D10220FEF7F1FEA0
:102F9000A3480068062805DAA1480068401CA0493B
:102FA000086002E002209E490860FDF71BFA00203D
:102FB000FFF766FC012811D10220FEF7DAFE9848DF
:102FC0000068022805DD96480068401E94490860A4
:102FD00002E0062092490860FDF704FA0020FFF79E
:102FE0004FFC90B90120FFF74BFC70B90220FFF7AE
:102FF00047FC50B90320FFF743FC30B90420FFF72A
:103000003FFC10B98B488549086085480068022854
:1030100024D1FFF735FC012820D187480068401EE5
:10302000854908600023A0221946184600F0E6FCF6
:103030007A480068FDF7E0F9784800680A280DDD55
:1030400076480068FDF702F90646724A724BFDF7B2
:103050008BF80446FDF70BF970490860704800686A
:10306000022827D1032000E0FEE0FFF709FC012839
:1030700020D171480068401C6F4908600023A022DD
:103080001946012000F0BAFC64480068FDF7B4F965
:10309000624800680A280DDD60480068FDF7D6F830
:1030A00006465C4A5C4BFDF75FF80446FDF7DFF827
:1030B0005A4908605A48006803281FD10220FFF7C8
:1030C000DFFB01281AD15D480068401E5B4908609B
:1030D00052480068FDF790F9504800680A280DDD55
:1030E0004E480068FDF7B2F806464A4A4A4BFDF7DB
:1030F0003BF80446FDF7BBF84849086048480068BB
:1031000003281ED1FFF7BCFB01281AD14B480068E9
:10311000401C4A49086041480068FDF76DF93F4886
:1031200000680A280DDD3D480068FDF78FF8064667
:10313000384A394BFDF718F80446FDF798F8374937
:1031400008603748006804281FD10220FFF798FB69
:1031500001281AD13A480068401E394908602F48B2
:103160000068FDF749F92D4800680A280DDD2B4855
:103170000068FDF76BF80646264A274BFCF7F4FF7C
:103180000446FDF774F825490860254800680428BE
:103190001FD10320FFF774FB01281AD128480068CB
:1031A000401C274908601D480068FDF725F91B48A9
:1031B00000680A280DDD19480068FDF747F8064643
:1031C000144A154BFCF7D0FF0446FDF750F813499D
:1031D000086013480068052814D10420FFF750FB4D
:1031E00001280FD11148006860B907201049086014
:1031F00002200B49086001200C490860FDF7F2F835
:10320000FEF7ABFD0648006806282DD10420FFF725
:1032100037FB17E09A9999999999E93F980000200E
:10322000200000202C000020300000209000002012
:103230001C00002020A107003400002038000020DE
:103240003C00002001280FD1FE48006860B905202D
:10325000FD4908600220FD4908600120F949086025
:10326000FDF7C0F8FEF779FDF748006807287DD123
:103270000020F4490860F4480068FDF7CBF8F348F3
:103280000068FEF78DFD0120FFF7FAFA012811D141
:103290000220FEF76EFDED480068062805DAEB48CF
:1032A0000068401CE949086002E00220E749086024
:1032B000FDF798F80020FFF7E3FA012811D102206A
:1032C000FEF757FDE1480068022805DDDF48006889
:1032D000401EDE49086002E00620DC490860FDF778
:1032E00081F80020FFF7CCFA90B90120FFF7C8FA67
:1032F00070B90220FFF7C4FA50B90320FFF7C0FAF3
:1033000030B90420FFF7BCFA10B9D148D1490860A0
:10331000CE48006802281ED1FFF7B2FA01281AD160
:10332000CD480068401ECC490860CA480068FDF7D7
:1033300063F8C84800680A280DDDC6480068FCF735
:1033400085FF0646C54AC64BFCF70EFF0446FCF750
:103350008EFFC0490860BD480068022821D10320C3
:10336000FFF78EFA01281CD1BB4800E059E1006844
:10337000401CB9490860B7480068FDF73DF8B548FA
:1033800000680A280DDDB3480068FCF75FFF0646B9
:10339000B24AB34BFCF7E8FE0446FCF768FFAD49C0
:1033A0000860AA48006803281FD10220FFF768FAC6
:1033B00001281AD1AB480068401EAA490860A548F8
:1033C0000068FDF719F8A34800680A280DDDA14838
:1033D0000068FCF73BFF0646A04AA14BFCF7C4FE81
:1033E0000446FCF744FF9B4908609848006803289E
:1033F0001ED1FFF745FA01281AD19A480068401CEF
:103400009849086093480068FCF7F6FF9148006807
:103410000A280DDD8F480068FCF718FF06468F4A22
:103420008F4BFCF7A1FE0446FCF721FF8949086099
:103430008648006804281FD10220FFF721FA0128DE
:103440001AD189480068401E874908608148006891
:10345000FCF7D2FF7F4800680A280DDD7D48006830
:10346000FCF7F4FE06467D4A7D4BFCF77DFE0446E4
:10347000FCF7FDFE774908607448006804281FD1F6
:103480000320FFF7FDF901281AD177480068401C96
:10349000754908606F480068FCF7AEFF6D4800682A
:1034A0000A280DDD6B480068FCF7D0FE06466B4A23
:1034B0006B4BFCF759FE0446FCF7D9FE65490860E2
:1034C00062480068052841D10420FFF7D9F9012896
:1034D0003CD15C480068C8BB08205B4908600320F9
:1034E0005A490860012057490860FCF77BFF5D4896
:1034F00000685D49096808445749096848435B49C1
:103500000860084600685A4908605A4909685A4ADA
:103510001268881A002801DB014600E04142574A40
:103520001160104600684C49096890FBF1F000EB0F
:1035300080004001524908604E4800684E490968C1
:10354000884204DD01204F49086003E050E000207C
:103550004C4908604C4909684C4A1268881A00288E
:1035600001DB014600E04142494A11601046006813
:103570003949096890FBF1F000EB800040014549B2
:1035800008604148006841490968884203DD01201C
:103590004149086002E000203F4908603F4909684E
:1035A0003F4A1268881A002801DB014600E04142C8
:1035B0003C4A1160104600682749096890FBF1F009
:1035C00000EB800040013849086034480068344905
:1035D0000968884203DD01203449086002E00020C8
:1035E0003249086000F000FA31490860FEF7B5FB87
:1035F00016480068062814D10420FFF741F9012875
:103600000FD11048006860B906200F4908600220F9
:103610000E49086001200B490860FCF7E3FEFEF745
:103620009CFB0948006808287ED1002005490860F5
:1036300000F0DAF91F490860084600681C4909686B
:10364000401A39E0900000201C00002020000020DB
:1036500020A1070098000020400000209A99999925
:103660009999E93F440000204800002058000020BC
:103670005C000020280000203400002060000020B2
:103680006C0000204C0000202C000020380000209E
:103690006400002070000020500000203000002056
:1036A0003C0000206800002074000020540000202E
:1036B0008C00002088000020B0F57A7F08DDB64835
:1036C0000068401EB449086000F08EF9B3490860F4
:1036D000B3480068FCF79EFEB2480068FEF760FB46
:1036E0000120FFF7CDF8012811D10320FEF741FB9F
:1036F000AC480068042805DAAA480068401CA949BB
:10370000086002E00320A7490860FCF76BFE002078
:10371000FFF7B6F8012813D10320FEF72AFBA148D2
:103720000068032807DD00E0C0E09E480068401EF6
:103730009C49086002E004209A490860FCF752FEA8
:103740009848006803281DD10420FFF799F8012844
:1037500018D195480068A8B994480068012804D198
:1037600000F081F901209149086058208C490860D7
:1037700003208C49086001208B490860FCF732FE69
:10378000FEF7EBFA87480068042818D1FFF778F8AD
:10379000012814D18448006888B900208049086055
:1037A00080490860824908607B4908608149086057
:1037B00001207D490860FCF715FEFEF7CEFA00F007
:1037C00013F97D490860084600687C490968401A79
:1037D0007B49096801EB4102C2EBC111B0EBC10F9B
:1037E0000EDD7248006858B900F03DF900F0FCF8B1
:1037F000744908600120FFF72BF801206B4908602D
:103800006D4800686F490968401A6F49096801EB03
:103810004102C2EBC111B0EBC10F2CDD634800685F
:10382000012828D100F01FF900F0DEF86349086094
:1038300000205E4908600120FFF70AF85D48006833
:10384000401C5C49086000236048194602686048D3
:10385000006800F0D3F801235E48002102685E484A
:10386000006800F0CBF802235C48002102685C4845
:10387000006800F0C3F84F4800685A490968884258
:1038800014D10520FEF7E4FF0020454908604549B2
:1038900008604749086040490860464908600120BF
:1038A00041490860FCF79EFDFEF757FA3C48006866
:1038B00058286ED100203C49086039480068FCF760
:1038C000A9FD38480068FEF76BFA0120FEF7D8FF23
:1038D000012811D10320FEF74CFA32480068042871
:1038E00005DA30480068401C2E49086002E00320D9
:1038F0002C490860FCF776FD0020FEF7C1FF012887
:1039000011D10320FEF735FA26480068032805DDAB
:1039100024480068401E2349086002E00420214931
:103920000860FCF75FFD1F480068032814D10420DD
:10393000FEF7A6FF01280FD11B48006860B90820D8
:1039400017490860032017490860012016490860DC
:10395000FCF748FDFEF701FA12480068042818D168
:10396000FEF78EFF012814D10F48006888B90020A7
:103970000B4908600B4908600D490860064908605A
:103980000C490860012008490860FCF72BFDFEF790
:10399000E4F9FFF734B800005C0000208C00002040
:1039A0001C00002020000020900000209C0000202F
:1039B0002400002094000020880000207C000020CB
:1039C0004400002078000020480000206C00002007
:1039D0004C000020700000205000002074000020E7
:1039E0005400002040000020034800880249091FBD
:1039F000098800EB014070471C2800402DE9F04386
:103A000007460D4690469946052D13D2DFE805F08E
:103A10000306090C0F004FF49C740BE040F2712474
:103A200008E040F2E24405E040F6354402E041F6A9
:103A30006A0400BF00BF012F04D101210220FEF75C
:103A40006FFF03E000210220FEF76AFF002606E078
:103A50004846FEF7A5FE2046FCF7CEFC761C464500
:103A6000F6DBBDE8F08300B501210620FEF758FF24
:103A700000210620FEF754FF00BD000000000000FA
:103A800000000000000000000000000000183C3CA6
:103A90003C18180018180000000000000066666658
:103AA000000000000000000000000000006C6CFE40
:103AB0006C6C6CFE6C6C000000000018183C660614
:103AC0000C183060663C1818000000000E1B5B6E7E
:103AD00030180C76DAD8700000000000001C363672
:103AE0001C06F66666DC00000000000000181818CE
:103AF0000000000000000000000000000030181866
:103B00000C0C0C0C0C18183000000000000C1818DD
:103B1000303030303018180C000000000000006C0D
:103B200038FE386C000000000000000000000018A3
:103B3000187E1818000000000000000000000000BF
:103B400000000000383830180000000000000000BD
:103B5000007E0000000000000000000000000000E7
:103B600000000000383800000000000000606030F5
:103B70003018180C0C060600000000000078CCEC91
:103B8000ECCCDCDCCC780000000000000030383EDB
:103B9000303030303030000000000000003C6666FD
:103BA0006030180C067E000000000000003C6666D5
:103BB00060386066663C000000000000000C0C6C81
:103BC0006C6C66FE6060000000000000007E06066F
:103BD000063E6060301E0000000000000038180C37
:103BE0003E666666663C000000000000007E6030B5
:103BF0003018180C0C0C000000000000003C666639
:103C00006E3C7666663C000000000000003C666684
:103C100066667C30181C00000000000000000038C0
:103C200038000000383800000000000000000038B4
:103C300038000000383830180000000000603018EC
:103C40000C060C18306000000000000000000000AE
:103C50007E007E00000000000000000000060C183E
:103C6000306030180C06000000000000003C666662
:103C7000301818001818000000000000007EC3C3B0
:103C8000F3DBDBF303FE00000000000000183C66DD
:103C900066667E666666000000000000003E66669E
:103CA000663E6666663E000000000000003C6666F8
:103CB00006060666663C000000000000001E366630
:103CC00066666666361E000000000000007E06067E
:103CD000063E0606067E000000000000007E060686
:103CE000063E06060606000000000000003C666670
:103CF00006067666667C00000000000000666666C8
:103D0000667E66666666000000000000003C1818CB
:103D100018181818183C00000000000000606060CF
:103D200060606066663C0000000000000066663669
:103D3000361E3636666600000000000000060606E5
:103D400006060606067E00000000000000C6C6EE5D
:103D5000D6D6D6C6C6C600000000000000C6C6CE35
:103D6000DEF6E6C6C6C6000000000000003C66663F
:103D700066666666663C000000000000003E6666FF
:103D8000663E06060606000000000000003C66666F
:103D900066666666663C306000000000003E66664F
:103DA000663E36666666000000000000003C66065F
:103DB0000C183060663C000000000000007E1818FF
:103DC0001818181818180000000000000066666631
:103DD00066666666663C0000000000000066666677
:103DE000666666663C1800000000000000C6C6C695
:103DF000D6D6D66C6C6C0000000000000066662C05
:103E000018183466666600000000000000666666EA
:103E1000663C18181818000000000000007E606062
:103E200030180C06067E000000000000003C0C0C60
:103E30000C0C0C0C0C0C0C0C3C0000000006060CCE
:103E40000C1818303060600000000000003C30307A
:103E500030303030303030303C0000183C660000EC
:103E60000000000000000000000000000000000052
:103E70000000000000000000FF00001C18300000DF
:103E80000000000000000000000000000000003CF6
:103E900060607C66667C0000000000000006063E54
:103EA00066666666663E0000000000000000003C9A
:103EB00066060606663C0000000000000060607CAC
:103EC00066666666667C0000000000000000003C3C
:103ED00066667E06063C00000000000000780C0CC0
:103EE0000C7E0C0C0C0C0000000000000000007C9C
:103EF00066666666667C60603E0000000006063E00
:103F00006666666666660000000000001818001EFF
:103F100018181818187E0000000000003030003C0F
:103F200030303030303030301E0000000006066681
:103F300066361E366666000000000000001E181877
:103F400018181818187E0000000000000000007EFD
:103F5000D6D6D6D6D6C60000000000000000003E2F
:103F60006666666666660000000000000000003CB1
:103F700066666666663C0000000000000000003EC9
:103F800066666666663E0606060000000000007C67
:103F900066666666667C6060600000000000006621
:103FA000760E060606060000000000000000007CF9
:103FB00006063C60603E000000000000000C0C7E25
:103FC0000C0C0C0C0C7800000000000000000066D7
:103FD00066666666667C0000000000000000006601
:103FE000666666663C18000000000000000000C61F
:103FF000D6D6D6D66C6C000000000000000000662B
:10400000663C183C66660000000000000000006688
:1040100066666666663C30180F0000000000007E91
:104020006030180C067E00000000000000301818F8
:10403000180C060C1818183000000000001818188A
:10404000181818181818181818000000000C18185C
:10405000183060301818180C00000000008EDB715A
:104060000000000000000000000000008C4000087C
:1040700000000020DC000000302800086841000833
:10408000DC000020040400004028000800000000BC
:104090000000000000000000000000000000000020
:1040A0000000000000000000000000000000000010
:1040B0000000000000000000000000000000000000
:1040C00000000000000000000000000000000000F0
:1040D00000000000000000000000000000000000E0
:1040E00000000000000000000000000000000000D0
:1040F00000000000000000000000000000000000C0
:1041000000000000000000000000000000000000AF
:10411000000000000000000000000000000000009F
:10412000000000000000000000000000000000008F
:10413000000000000000000000000000000000007F
:10414000000000000000000000000000000000006F
:10415000000000000000000000000000000000005F
:08416000000000000000000057
:0400000508000131BD
:00000001FF
