:020000040800F2
:100000005005002045010008553400089D2C0008CB
:10001000513400084504000885380008000000003D
:10002000000000000000000000000000753600081D
:100030004904000800000000D534000821380008F9
:100040005F0100085F0100085F010008BD3500087E
:100050005F0100085F0100085F0100085F01000800
:100060005F0100085F0100085F0100085F010008F0
:100070005F0100085F0100085F0100085F010008E0
:100080005F0100085F0100085F0100085F010008D0
:100090005F0100085F0100085F0100085F010008C0
:1000A0005F0100085F0100085F0100085F010008B0
:1000B0005F0100085F0100085F0100085F010008A0
:1000C0005F0100085F0100085F0100085F01000890
:1000D0005F0100085F0100085F0100085F01000880
:1000E0005F010008553500085F0100085F01000846
:1000F0005F0100085F0100085F0100085F01000860
:100100005F0100085F0100085F0100085F0100084F
:100110005F0100085F0100085F0100085F0100083F
:100120005F0100085F0100085F0100085F0100082F
:10013000DFF80CD000F03AF900480047053B000812
:10014000500500200648804706480047FEE7FEE7C6
:10015000FEE7FEE7FEE7FEE7FEE7FEE7FEE7FEE777
:10016000253800083101000840EA01039B0703D04D
:1001700009E008C9121F08C0042AFAD203E011F8E6
:10018000013B00F8013B521EF9D270472DE9FE4FAA
:1001900081EA030404F0004421F0004100944FF090
:1001A000000B23F0004350EA01045ED052EA03043E
:1001B0005BD0C3F30A54C1F30A552C44A4F2F334C0
:1001C0000194A0FB0254C1F3130141F48011C3F365
:1001D000130343F4801301FB024400FB034E840A23
:1001E000970A44EA815447EA8357A4FB07680295BB
:1001F0008D0A05FB07854FEA932C04FB0C54270559
:10020000029D4FEA065847EA1637B5EB08056EEB34
:10021000070C870E920E47EA811742EA8312A7FB6A
:100220000201B6EB0B0164EB00042B0D43EA0C3327
:100230005E1844EB1C50DA465146E7FB0201C5F359
:1002400013044FEA0B3343EA14534FEA0432019C80
:1002500043EA0603A4F10C040294009CCDE900B427
:1002600000F055F803B0BDE8F08F00200146F9E733
:100270000EB5C10F80EAE0700844CA07002140F2C1
:1002800033438DE80E000A460B4600F040F803B0F9
:1002900000BD70B5C1F30A5201F000450024C1F35E
:1002A000130140F2FF3341F480119A4201DA002039
:1002B00070BD40F233439A42A2F2334203DC524211
:1002C00000F006F800E090402C43F1D0404270BDB1
:1002D000202A04DB203A21FA02F00021704721FA9B
:1002E00002F3D040C2F12002914008431946704702
:1002F00010B5141E73F1000408DA401C41F100012E
:1003000092185B411A4301D120F0010010BD2DE984
:10031000F04D92469B4611B1B1FA81F202E0B0FA7B
:1003200080F22032904600F053F804460F4640EA2F
:100330000A0041EA0B0153465A46084313D01146BE
:1003400053EA010019D0C8F140025046FFF7C0FF40
:1003500005460E4650465946424600F039F80843D5
:1003600005D0012004E020463946BDE8F08D00208C
:10037000054346EAE0762C4337430A986305E40ACE
:10038000A0EB08000022FD0A44EA47540A3002D5D7
:1003900000200146E9E7010510196941DDE908453A
:1003A00000196941BDE8F04DA2E70000064C074D79
:1003B00006E0E06840F0010394E807009847103435
:1003C000AC42F6D3FFF7B8FEF073000810740008D3
:1003D000202A04DB203A00FA02F100207047914005
:1003E000C2F1200320FA03F319439040704770B51F
:1003F0008C1810F8015B15F0070301D110F8013BD0
:100400002A1106D110F8012B03E010F8016B01F856
:10041000016B5B1EF9D12B0705D40023521E0DD4AE
:1004200001F8013BFAE710F8013BCB1A921C03E0FC
:1004300013F8015B01F8015B521EF9D5A142D8D334
:10044000002070BD00BFFEE7704701B502E00098D4
:10045000401E009000980028F9D108BD00B5012089
:1004600003F022FA014803F059FA00BD20A1070069
:1004700010B504462046722C7DD015DC042802F00D
:1004800048820ADC58B3012849D0022801F02285AD
:10049000032842F0508202F031B96F2854D07028FE
:1004A0006AD07128F5D12AE3DF2801F02C8509DC18
:1004B000792801F055827A2801F073837B28E8D1EE
:1004C00001F0D5B8E02801F04B85A0F27640002875
:1004D0007ED0A0F24C400028DBD101F03ABFEBA265
:1004E0000A21084602F004FDEDA21E210A2002F0B6
:1004F000FFFCF1A23221142002F0FAFCF2A2462104
:10050000142002F0F5FCF3A25A21142002F0F0FCB2
:10051000F3A26E21142002F0EBFC02F00CBAE6A26A
:100520000A21084602F0E4FCF0A21E21142002F089
:10053000DFFCF3A23221142002F0DAFCF7A24621FC
:10054000142002F0D5FCE8E7F6A20A21084602F0E2
:10055000CFFCFBA21E210A2002F0CAFCFDA2322120
:10056000142002F0C5FCFE4800684FF47A7190FB3D
:10057000F1F00A2101E0D5E3F9E090FBF1F201FB93
:1005800012003030F7490870F5480068642190FB8C
:10059000F1F00A2190FBF1F201FB12003030F24938
:1005A0000870EF4800680A2190FBF1F090FBF1F22F
:1005B00001FB12003030ED490870E94800680A215B
:1005C00090FBF1F201FB12003030E949087000E0C5
:1005D000FEE3E44802783221642002F057FCE2484E
:1005E000027832216E2002F051FCE048027832217C
:1005F000782002F04BFCDE4802783221822002F0A3
:1006000045FCDCA232218C2002F072FCDAA24621E9
:10061000142002F06DFCDB4800684FF47A7190FB07
:10062000F1F00A2190FBF1F201FB12003030D649C3
:100630000870D4480068642190FBF1F00A2190FB17
:10064000F1F201FB12003030D0490870CD4800684B
:100650000A2190FBF1F090FBF1F201FB1200303027
:10066000CB490870C74800680A2190FBF1F201FBF2
:1006700012003030C7490870C34802784621642010
:1006800002F004FCC148027846216E2002F0FEFB15
:10069000BF4802784621782002F0F8FBBD48027876
:1006A0004621822002F0F2FBB2A246218C2002F009
:1006B0001FFCB9A25A21142002F01AFCB9480068A4
:1006C0004FF47A7190FBF1F00A2190FBF1F201FBFB
:1006D00012003030B4490870B2480068642190FBC1
:1006E000F1F00A2190FBF1F201FB12003030AF492A
:1006F0000870AC4800680A2190FBF1F090FBF1F221
:1007000001FB12003030AA490870A64800680A218F
:1007100090FBF1F201FB12003030A6490870A248AC
:1007200002785A21642002F0B1FBA04802785A21D5
:100730006E2002F0ABFB9E4802785A21782002F02E
:10074000A5FB9C4802785A21822002F09FFB89A2D7
:100750005A218C2002F0CCFB97A26E21142002F0CB
:10076000C7FB6EA28221142002F0C2FBD5E66DA267
:100770000A21084602F0BCFB90A21E210A2002F0CA
:10078000B7FB74A23221142002F0B2FB904800683B
:100790004FF47A7190FBF1F00A2190FBF1F201FB2A
:1007A000120030308B49087089480068642190FB42
:1007B000F1F00A2190FBF1F201FB12003030864982
:1007C0000870834800680A2190FBF1F090FBF1F279
:1007D00001FB12003030814908707D4800680A2111
:1007E00090FBF1F201FB120030307D49087079482E
:1007F00002783221642002F049FB774802783221E6
:100800006E2002F043FB754802783221782002F016
:100810003DFB734802783221822002F037FB55A25B
:1008200032218C2002F064FB53A24621142002F0F6
:100830005FFB6C4800684FF47A7190FBF1F00A217D
:1008400090FBF1F201FB12003030674908706548F7
:100850000068642190FBF1F00A2190FBF1F201FBAA
:1008600012003030614908705E4800680A2190FB30
:10087000F1F090FBF1F201FB120030305C4908709E
:10088000584800680A2190FBF1F2B3E0454C45431B
:1008900020333330302050726F6A6563740000007B
:1008A0003320417869732043616D65726120536C18
:1008B000696465720000000054696D65204C6170C8
:1008C0007365204D6F646500566964656F204D6FD8
:1008D000646500004D616E75616C204D6F6465004C
:1008E00053657474696E677300000000496E746527
:1008F00072616374697665204D6F64650000000065
:10090000496E70757420506172616D6574657273A3
:10091000204D616E75616C6C7900000052657475D4
:10092000726E0000506C6561736520736C65772092
:100930007468652063616D65726120746F000000EA
:1009400074686520454E4420706F736974696F6EDA
:1009500000000000536C6964653A203C3C3C000098
:100960003C000020000100200101002002010020C5
:10097000030100203E3E3E0050616E3A2020203CA4
:100980003C3C000040000020040100200501002044
:10099000060100200701002054696C743A20203CB5
:1009A0003C3C000044000020080100200901002018
:1009B0000A0100200B010020536574007468652053
:1009C000535441525420706F736974696F6E000004
:1009D000480000200C0100200D0100200E01002025
:1009E0000F0100204C000020100100201101002008
:1009F0001201002001FB12003030FE490870FE4851
:100A000002784621642002F041FAFC48027846212F
:100A10006E2002F03BFAFA4802784621782002F074
:100A200035FAF44802784621822002F02FFAAFF21C
:100A3000BC0246218C2002F05BFAAFF2A4025A21DC
:100A4000142002F055FAEF4800684FF47A7190FBD9
:100A5000F1F00A2190FBF1F201FB12003030EA497B
:100A60000870E8480068642190FBF1F00A2190FBCF
:100A7000F1F201FB12003030E4490870E1480068EF
:100A80000A2190FBF1F090FBF1F201FB12003030F3
:100A9000DF490870DB4800680A2190FBF1F201FB96
:100AA00012003030DB490870D74802785A216420A0
:100AB00002F0ECF9D54802785A216E2002F0E6F9EE
:100AC000D34802785A21782002F0E0F9D148027820
:100AD0005A21822002F0DAF9AFF268125A218C20F2
:100AE00002F006FAAFF230126E21142002F000FA82
:100AF000AFF2D8128221142002F0FAF90DE5C6A255
:100B00000A21084602F0F4F9C9A21E210A2002F0C7
:100B1000EFF9CAA23221142002F0EAF9CB480068AA
:100B20004FF47A7190FBF1F00A2190FBF1F201FB96
:100B300012003030C6490870C4480068642190FB38
:100B4000F1F00A2190FBF1F201FB12003030C149B3
:100B50000870BE4800680A2190FBF1F090FBF1F2AA
:100B600001FB12003030BC490870B84800680A2107
:100B700090FBF1F201FB12003030B8490870B44824
:100B8000027832217D2002F081F9B24802783221C8
:100B9000872002F07BF9B04802783221912002F0E0
:100BA00075F9AE48027832219B2002F06FF9AFF25E
:100BB0003C223221A52002F09BF9A9A24621142053
:100BC00002F096F9AA4800684FF47A7190FBF1F0B0
:100BD0000A2190FBF1F201FB12003030A5490870A8
:100BE000A3480068642190FBF1F00A2190FBF1F228
:100BF00001FB12003030A04908709D4800680A21AE
:100C000090FBF1F090FBF1F201FB120030309B49B8
:100C10000870974800680A2190FBF1F201FB12006E
:100C20003030974908709348027846217D2002F0C1
:100C30002DF9914802784621872002F027F98F4844
:100C400002784621912002F021F98D480278462150
:100C50009B2002F01BF9AFF2E4224621A52002F00E
:100C600047F988A25A21142002F042F98948006805
:100C70004FF47A7190FBF1F00A2190FBF1F201FB45
:100C8000120030308449087082480068642190FB6B
:100C9000F1F00A2190FBF1F201FB120030307F49A4
:100CA00008707C4800680A2190FBF1F090FBF1F29B
:100CB00001FB120030307A490870764800680A213A
:100CC00090FBF1F201FB1200303076490870724857
:100CD00002785A217D2002F0D9F8704802785A2112
:100CE000872002F0D3F86E4802785A21912002F052
:100CF000CDF86C4802785A219B2002F0C7F8AFF279
:100D00008C325A21A52002F0F3F8AFF254326E2152
:100D1000142002F0EDF8AFF2FC328221142002F030
:100D2000E7F810E460A20A21084602F0E1F865A2A3
:100D30001E210A2002F0DCF8664800684FF47A7140
:100D400090FBF1F00A2190FBF1F201FB1200303030
:100D5000614908705F480068642190FBF1F00A2146
:100D600090FBF1F201FB120030305C4908705948E9
:100D700000680A2190FBF1F090FBF1F201FB1200F8
:100D8000303057490870534800680A2190FBF1F24F
:100D900001FB12003030534908704F4802781E2181
:100DA0006E2002F073F84D4802781E21782002F080
:100DB0006DF84B4802781E21822002F067F84948FE
:100DC00002781E218C2002F061F847A2322100E057
:100DD00014E20A2002F08CF846A23221822002F0AE
:100DE00087F844A23221A02002F082F8424800682D
:100DF00084E00000130100201001002011010020F8
:100E000012010020500000201401002015010020D4
:100E10001601002017010020506C65617365206584
:100E20006E74657220666F6C6C6F77696E67000018
:100E3000706172616D6574657273000046616D6505
:100E4000733A202020203C3C3C000000540000204D
:100E500018010020190100201A0100201B010020A8
:100E6000496E74657276616C3A203C3C3C0000002F
:100E7000580000201C0100201D0100201E01002040
:100E80001F010020536875747465723A20203C3C41
:100E90003C0000005C000020200100202101002017
:100EA000220100202301002054616B696E672054E9
:100EB000696D65204C617073652E2E2E202E2E2EAE
:100EC0000000000046616D65732054616B656E3AE9
:100ED00020000000F4000020240100202501002053
:100EE000260100202701002054696D65204C6566AD
:100EF000743A00003A000000700000204FF4616175
:100F000090FBF1F0FE49086008460068C0EB001055
:100F1000FC490968A1EB80003C2190FBF1F0FA4903
:100F20000860F7480068C0EB4011C1EB0020F549AC
:100F30000968A1EB0010F4490968C1EB0111A0EBAD
:100F40008100F2490860EE4800680A2190FBF1F048
:100F500090FBF1F201FB12003030ED490870E848D7
:100F600000680A2190FBF1F201FB12003030E949E0
:100F70000870E54800680A2190FBF1F090FBF1F25F
:100F800001FB12003030E4490870DF4800680A2194
:100F900090FBF1F201FB12003030E0490870DB48B1
:100FA00000680A2190FBF1F090FBF1F201FB1200C6
:100FB0003030DB490870D54800680A2190FBF1F217
:100FC00001FB12003030D7490870D1480278322135
:100FD0006E2001F05BFFCF4802783221782001F0CB
:100FE00055FFCD48027832218C2001F04FFFCB48CD
:100FF00002783221962001F049FFC9480278322157
:10100000AA2001F043FFC74802783221B42001F042
:101010003DFFC5A246210A2001F06AFFC3A2462176
:10102000502001F065FFC2A24621962001F060FF2A
:10103000C04800684FF47A7190FBF1F00A2190FBF0
:10104000F1F201FB12003030BB490870B94800686A
:10105000642190FBF1F00A2190FBF1F201FB1200F8
:101060003030B6490870B34800680A2190FBF1F0AF
:1010700090FBF1F201FB12003030B1490870AD482D
:1010800000680A2190FBF1F201FB12003030AD49FB
:101090000870A948027846211E2001F0F7FEA748F3
:1010A00002784621282001F0F1FEA5480278462169
:1010B000322001F0EBFEA348027846213C2001F0EB
:1010C000E5FEA14800684FF47A7190FBF1F00A2127
:1010D00090FBF1F201FB120030309C4908709A48F5
:1010E0000068642190FBF1F00A2190FBF1F201FB12
:1010F0001200303096490870934800680A2190FB2E
:10110000F1F090FBF1F201FB1200303091490870D0
:101110008D4800680A2190FBF1F201FB120030308B
:101120008D490870894802784621642001F0AEFE9E
:101130008748027846216E2001F0A8FE8548027893
:101140004621782001F0A2FE8348027846218220C1
:1011500001F09CFE814800684FF47A7190FBF1F039
:101160000A2190FBF1F201FB120030307C4908703B
:101170007A480068642190FBF1F00A2190FBF1F2BB
:1011800001FB1200303077490870744800680A216A
:1011900090FBF1F090FBF1F201FB1200303072494C
:1011A00008706E4800680A2190FBF1F201FB120002
:1011B00030306E4908706A4802784621AA2001F052
:1011C00065FE684802784621B42001F05FFE66485B
:1011D00002784621BE2001F059FE6448027846217B
:1011E000C82001F053FE62A25A21142001F080FEB3
:1011F00061A26E21142001F07BFE7FE4AFF2583231
:101200000A21084601F074FEAFF248321E210A207E
:1012100001F06EFE5A4800684FF47A7190FBF1F0CD
:101220000A2190FBF1F201FB1200303055490870A1
:1012300053480068642190FBF1F00A2190FBF1F221
:1012400001FB12003030504908704D4800680A21F7
:1012500090FBF1F090FBF1F201FB120030304B49B2
:101260000870474800680A2190FBF1F201FB120068
:10127000303047490870434802781E216E2001F043
:1012800005FE414802781E21782001F0FFFD3F480D
:1012900002781E21822001F0F9FD3D4802781E21CE
:1012A0008C2001F0F3FDAFF2C03232210A2001F0B0
:1012B0001FFEAFF2C0323221822001F019FEAFF2E0
:1012C000CC323221A02001F013FE0E4800684FF40A
:1012D000616190FBF1F00A49086008460068C0EBC4
:1012E000001008490968A1EB80003C2190FBF1F057
:1012F0000549086002480068C0EB40114AE0000060
:10130000300100207000002034010020380100204E
:1013100028010020290100202A0100202B010020A3
:101320002C0100202D010020583A0000593A0000FD
:101330005A3A00008C0000203C0100203D010020B2
:101340003E0100203F0100209000002040010020CD
:1013500041010020420100204301002094000020B0
:1013600044010020450100204601002047010020E3
:10137000506175736500000053746F7000000000C9
:10138000F400002024010020250100202601002077
:1013900027010020C1EB0020FE490968A1EB0010E5
:1013A000FD490968C1EB0111A0EB8100FB49086010
:1013B000FB4800680A2190FBF1F090FBF1F201FB81
:1013C00012003030F7490870F54800680A2190FB98
:1013D000F1F201FB12003030F3490870EE4800686A
:1013E0000A2190FBF1F090FBF1F201FB120030308A
:1013F000EE490870E84800680A2190FBF1F201FB11
:1014000012003030EA490870E44800680A2190FB75
:10141000F1F090FBF1F201FB12003030E549087069
:10142000DE4800680A2190FBF1F201FB1200303027
:10143000E1490870DB48027832216E2001F026FD78
:10144000D94802783221782001F020FDD74802786F
:1014500032218C2001F01AFDD548027832219620E5
:1014600001F014FDD34802783221AA2001F00EFDCC
:10147000D14802783221B42001F008FDAFF25812B1
:1014800046210A2001F034FDAFF2601246215020BF
:1014900001F02EFDAFF268124621962001F028FDE2
:1014A000C64800684FF47A7190FBF1F00A2190FB76
:1014B000F1F201FB12003030C1490870BF480068EA
:1014C000642190FBF1F00A2190FBF1F201FB120084
:1014D0003030BC490870B94800680A2190FBF1F02F
:1014E00090FBF1F201FB12003030B7490870B348AD
:1014F00000680A2190FBF1F201FB12003030B34981
:101500000870AF48027846211E2001F0BFFCAD48AC
:1015100002784621282001F0B9FCAB480278462128
:10152000322001F0B3FCA948027846213C2001F0AA
:10153000ADFCA74800684FF47A7190FBF1F00A21E6
:1015400090FBF1F201FB12003030A2490870A04874
:101550000068642190FBF1F00A2190FBF1F201FB9D
:10156000120030309C490870994800680A2190FBAD
:10157000F1F090FBF1F201FB120030309749087056
:10158000934800680A2190FBF1F201FB1200303011
:10159000934908708F4802784621642001F076FC58
:1015A0008D48027846216E2001F070FC8B4802784D
:1015B0004621782001F06AFC894802784621822081
:1015C00001F064FC874800684FF47A7190FBF1F0F9
:1015D0000A2190FBF1F201FB1200303082490870C1
:1015E00080480068642190FBF1F00A2190FBF1F241
:1015F00001FB120030307D4908707A4800680A21EA
:1016000090FBF1F090FBF1F201FB120030307849D1
:101610000870744800680A2190FBF1F201FB120087
:10162000303074490870704802784621AA2001F0D1
:101630002DFC6E4802784621B42001F027FC6C484E
:1016400002784621BE2001F021FC6A48027846213A
:10165000C82001F01BFC68A25A21142001F048FCAC
:10166000AFF2EC226E21142001F042FCC5E564A229
:101670000A21084601F03CFCAFF64C021E210A206C
:1016800001F036FC65A23221142001F031FC6748DC
:1016900000684FF47A7190FBF1F00A2190FBF1F2AF
:1016A00001FB120030306249087060480068642114
:1016B00090FBF1F00A2190FBF1F201FB12003030B7
:1016C0005C490870594800680A2190FBF1F090FBD2
:1016D000F1F201FB1200303057490870534800689E
:1016E0000A2190FBF1F201FB1200303053490870DF
:1016F0004F4802783221912001F0C8FB4D48027812
:1017000032219B2001F0C2FB4B4802783221A520F8
:1017100001F0BCFB494802783221AF2001F0B6FB52
:10172000AFF6B0523221B92001F0E2FB44A24621CB
:10173000142001F0DDFB464800684FF47A7190FBFD
:10174000F1F00A2190FBF1F201FB12003030414927
:1017500008703F480068642190FBF1F00A2190FB7B
:10176000F1F201FB120030303B4908703848006844
:101770000A2190FBF1F090FBF1F201FB12003030F6
:1017800036490870324800680A2190FBF1F201FBEB
:10179000120065E0700000203401002038010020B4
:1017A0003001002028010020290100202A0100200A
:1017B0002B0100202C0100202D0100208C00002096
:1017C0003C0100203D0100203E0100203F0100209F
:1017D0009000002040010020410100204201002033
:1017E0004301002094000020440100204501002016
:1017F0004601002047010020526573756D650000A9
:10180000506C6561736520656E74657220746865DF
:1018100020666F6C6C6F77696E670000546F74613F
:101820006C2046616D65733A3C3C3C0054000020DE
:1018300018010020190100201A0100201B010020BE
:10184000496E74657276616C3A2020203C3C3C0005
:10185000580000201C0100201D0100201E01002056
:101860003030FE490870FE4802784621912001F090
:101870000DFBFC48027846219B2001F007FBFA484B
:1018800002784621A52001F001FBF44802784621A8
:10189000AF2001F0FBFAAFF624724621B92001F027
:1018A00027FBF2A25A21142001F022FBF348006822
:1018B0004FF47A7190FBF1F00A2190FBF1F201FBF9
:1018C00012003030EE490870EC480068642190FB4B
:1018D000F1F00A2190FBF1F201FB12003030E949EE
:1018E0000870E64800680A2190FBF1F090FBF1F2E5
:1018F00001FB12003030E4490870E04800680A211A
:1019000090FBF1F201FB12003030E0490870DC4836
:1019100002785A21912001F0B9FADA4802785A2166
:101920009B2001F0B3FAD84802785A21A52001F093
:10193000ADFAD64802785A21AF2001F0A7FAAFF6E7
:10194000CC725A21B92001F0D3FAD1A26E21142011
:1019500001F0CEFAD14A8221142001F0C9FA4CE4F8
:10196000AFF264120A21084601F0C2FACCA21E218D
:101970000A2001F0BDFACDA23221142001F0B8FAFC
:10198000BDA24621142001F0B3FACD4800684FF4FF
:101990007A7190FBF1F00A2190FBF1F201FB120049
:1019A0003030C8490870C6480068642190FBF1F0E7
:1019B0000A2190FBF1F201FB12003030C24908709D
:1019C000BF4800680A2190FBF1F090FBF1F201FBA7
:1019D00012003030BD490870B94800680A2190FBF8
:1019E000F1F201FB12003030B9490870B5480278B5
:1019F00046212D2001F04AFAB348027846213720CB
:101A000001F044FAB14802784621412001F03EFA43
:101A1000AF48027846214B2001F038FA9F4A5832ED
:101A20004621552001F064FAAAA25A21142001F09F
:101A30005FFA91A26E21142001F05AFAAA480068B8
:101A40004FF47A7190FBF1F00A2190FBF1F201FB67
:101A500012003030A5490870A3480068642190FB4B
:101A6000F1F00A2190FBF1F201FB12003030A049A5
:101A700008709D4800680A2190FBF1F090FBF1F29C
:101A800001FB120030309B490870974800680A211A
:101A900090FBF1F201FB1200303097490870934837
:101AA00002786E212D2001F0F1F9914802786E2123
:101AB000372001F0EBF98F4802786E21412001F0C8
:101AC000E5F98D4802786E214B2001F0DFF9734A69
:101AD00058326E21552001F00BFA88A28221142081
:101AE00001F006FA64A29621142001F001FA884858
:101AF00000684FF47A7190FBF1F00A2190FBF1F24B
:101B000001FB12003030834908708148006864216D
:101B100090FBF1F00A2190FBF1F201FB1200303052
:101B20007D4908707A4800680A2190FBF1F090FB2B
:101B3000F1F201FB120030307849087074480068F7
:101B40000A2190FBF1F201FB120030307449087059
:101B50007048027896212D2001F098F96E4802789D
:101B60009621372001F092F96C48027896214120A5
:101B700001F08CF96A48027896214B2001F086F931
:101B8000464A58329621552001F0B2F940A2AA21C6
:101B9000142001F0ADF9414ABE21142001F0A8F94A
:101BA00064E5AFF2A4320A21084601F0A1F93CA293
:101BB0001E210A2001F09CF95AA23221142001F0C2
:101BC00097F92DA24621142001F092F95948006896
:101BD0004FF47A7190FBF1F00A2190FBF1F201FBD6
:101BE000120030305449087052480068642190FB5C
:101BF000F1F00A2190FBF1F201FB120030304F4965
:101C000008704C4800680A2190FBF1F090FBF1F25B
:101C100001FB120030304A490870464800680A212A
:101C200090FBF1F201FB1200303046490870424847
:101C3000027846212D2001F029F9404802784621FA
:101C4000372001F023F93E4802784621412001F077
:101C50001DF93C48027846214B2075E01F01002009
:101C60001C0100201D0100201E0100205368757416
:101C70007465723A202020203C3C3C005C0000202F
:101C8000200100202101002022010020230100204A
:101C9000436F6E74696E7565000000001C090008D2
:101CA000706172616D657465727320005374617246
:101CB0007420506F736974696F6E5F583A0000004A
:101CC000480000200C0100200D0100200E01002022
:101CD0000F010020537461727420506F736974692E
:101CE0006F6E5F593A0000004C0000201001002088
:101CF00011010020120100201301002053746172B1
:101D00007420506F736974696F6E5F5A3A000000F7
:101D100050000020140100201501002016010020B1
:101D200017010020456E6420506F736974696F6EEF
:101D30005F583A003C000020000100200101002013
:101D4000020100200301002001F0A0F8FE4A462114
:101D5000552001F0CDF8FDA25A21142001F0C8F859
:101D6000AFF2EC026E21142001F0C2F8FB480068CB
:101D70004FF47A7190FBF1F00A2190FBF1F201FB34
:101D800012003030F6490870F4480068642190FB76
:101D9000F1F00A2190FBF1F201FB12003030F14921
:101DA0000870EE4800680A2190FBF1F090FBF1F218
:101DB00001FB12003030EC490870E84800680A2145
:101DC00090FBF1F201FB12003030E8490870E44862
:101DD00002786E212D2001F059F8E24802786E2138
:101DE000372001F053F8E04802786E21412001F0DD
:101DF0004DF8DE4802786E214B2001F047F8D24AB8
:101E00006E21552001F074F8D9A28221142001F02E
:101E10006FF8AFF29C129621142001F069F8D848AF
:101E200000684FF47A7190FBF1F00A2190FBF1F217
:101E300001FB12003030D3490870D148006864219A
:101E400090FBF1F00A2190FBF1F201FB120030301F
:101E5000CD490870CA4800680A2190FBF1F090FB58
:101E6000F1F201FB12003030C8490870C448006824
:101E70000A2190FBF1F201FB12003030C4490870D6
:101E8000C048027896212D2001F000F8BE48027863
:101E90009621372000F0FAFFBC48027896214120B5
:101EA00000F0F4FFBA48027896214B2000F0EEFFD4
:101EB000A54A9621552001F01BF8AFF22C22AA2149
:101EC000142001F015F8A04A583ABE21142001F060
:101ED0000FF844E59C4AAC3A0A21084601F008F89C
:101EE000994A883A1E21142001F002F8964A743A61
:101EF0003221142000F0FCFF934A583A4621142066
:101F000000F0F6FF2BE5AFF208720A21084600F058
:101F1000EFFFA04A1E210A2000F0EAFF9EA2322114
:101F2000142000F0E5FF9F4800680A2190FBF1F2C1
:101F300001FB120030309C490870084602783221BB
:101F40007D2000F0A3FFAFF2B8224621142000F05C
:101F5000CFFF7D4A583A5A21142000F0C9FFFEE411
:101F600092A20A21084600F0C3FF8A4AB8321E2115
:101F70000A2000F0BDFFAFF2BC221E21822000F03B
:101F8000B7FFAFF2C8221E21A02000F0B1FF8C489D
:101F900000684FF4616190FBF1F08A4908600846DF
:101FA0000068C0EB001086490968A1EB80003C2165
:101FB00090FBF1F08449086082480068C0EB401152
:101FC000C1EB00207E490968A1EB00107E49096839
:101FD000C1EB0111A0EB81007C49086079480068E1
:101FE0000A2190FBF1F090FBF1F201FB120030307E
:101FF00077490870734800680A2190FBF1F201FBF1
:1020000012003030734908706F4800680A2190FB55
:10201000F1F090FBF1F201FB120030306E490870D4
:10202000694800680A2190FBF1F201FB1200303090
:102030006A490870654800680A2190FBF1F090FB3E
:10204000F1F201FB12003030654908705F4800680A
:102050000A2190FBF1F201FB120030306149087057
:102060005B4802781E216E2000F010FF594802786C
:102070001E21782000F00AFF574802781E218C208C
:1020800000F004FF554802781E21962000F0FEFE65
:10209000534802781E21AA2000F0F8FE5148027829
:1020A0001E21B42000F0F2FEAFF6845232210A2045
:1020B00000F01EFFAFF68C523221502000F018FFC6
:1020C000AFF694523221962000F012FF4648006885
:1020D0004FF47A7190FBF1F00A2190FBF1F201FBD1
:1020E00012003030414908703F480068642190FB7D
:1020F000F1F00A2190FBF1F201FB120030303C4973
:102100000870394800680A2190FBF1F090FBF1F269
:1021100001FB1200303037490870334800680A214B
:1021200090FBF1F201FB12003030334908702F4868
:10213000027832211E2000F0A9FE2D4802783221BB
:10214000282000F0A3FE59E074090008456E6420C1
:10215000506F736974696F6E5F593A0040000020D8
:1021600004010020050100200601002007010020D5
:10217000456E6420506F736974696F6E5F5A3A00E0
:102180004400002008010020090100200A0100206D
:102190000B010020300E0008537065656428312D56
:1021A00035293A00A00000204801002054616B69E5
:1021B0006E6720566964656F2E2E2E202E2E2E00FF
:1021C0007000002030010020340100203801002080
:1021D00028010020290100202A0100202B010020D5
:1021E0002C0100202D0100208C0000203C0100204B
:1021F0003D0100203E0100203F010020FE48027802
:102200003221084600F042FEFC48027832213C2090
:1022100000F03CFEFA4800684FF47A7190FBF1F050
:102220000A2190FBF1F201FB12003030F5490870F1
:10223000F3480068642190FBF1F00A2190FBF1F271
:1022400001FB12003030F0490870ED4800680A21A7
:1022500090FBF1F090FBF1F201FB12003030EB4902
:102260000870E74800680A2190FBF1F201FB1200B8
:102270003030E7490870E34802783221642000F0EA
:1022800005FEE148027832216E2000F0FFFDDF48B4
:1022900002783221782000F0F9FDDD480278322101
:1022A000822000F0F3FDDB4800684FF47A7190FB68
:1022B000F1F00A2190FBF1F201FB12003030D64917
:1022C0000870D4480068642190FBF1F00A2190FB6B
:1022D000F1F201FB12003030D0490870CD4800689F
:1022E0000A2190FBF1F090FBF1F201FB120030307B
:1022F000CB490870C74800680A2190FBF1F201FB46
:1023000012003030C7490870C34802783221AA2031
:1023100000F0BCFDC14802783221B42000F0B6FDC7
:10232000BF4802783221BE2000F0B0FDBD480278DF
:102330003221C82000F0AAFDAFF6CC72462114204D
:1023400000F0D6FDAFF6D0725A21142000F0D0FD77
:10235000F1E2AFF2A8120A21084600F0C9FDB24A24
:102360001E210A2000F0C4FDAFF2B0621E218220BF
:1023700000F0BEFDAFF2BC621E21A02000F0B8FD4F
:10238000AA4800684FF4616190FBF1F0A849086029
:1023900008460068C0EB0010A4490968A1EB800062
:1023A0003C2190FBF1F0A3490860A1480068C0EB14
:1023B0004011C1EB00209D490968A1EB00109D4927
:1023C0000968C1EB0111A0EB81009B4908609848A6
:1023D00000680A2190FBF1F090FBF1F201FB120082
:1023E000303096490870924800680A2190FBF1F25B
:1023F00001FB12003030924908708E4800680A21B3
:1024000090FBF1F090FBF1F201FB120030308D49AE
:102410000870884800680A2190FBF1F201FB120065
:10242000303089490870844800680A2190FBF1F037
:1024300090FBF1F201FB12003030844908707E48B5
:1024400000680A2190FBF1F201FB12003030804954
:1024500008707A4802781E216E2000F017FD784837
:1024600002781E21782000F011FD764802781E21A6
:102470008C2000F00BFD744802781E21962000F09D
:1024800005FD724802781E21AA2000F0FFFC70486A
:1024900002781E21B42000F0F9FC6EA232210A203D
:1024A00000F026FD6CA23221502000F021FD6BA22D
:1024B0003221962000F01CFD694800684FF47A71C3
:1024C00090FBF1F00A2190FBF1F201FB1200303099
:1024D0006449087062480068642190FBF1F00A21A9
:1024E00090FBF1F201FB120030305F4908705C484C
:1024F00000680A2190FBF1F090FBF1F201FB120061
:1025000030303D490870564800680A2190FBF1F2CE
:1025100001FB1200303039490870524802783221EC
:102520001E2000F0B3FC504802783221282000F031
:10253000ADFC314802783221084600F0A7FC2F4854
:10254000027832213C2000F0A1FC2D4800684FF4B5
:102550007A7190FBF1F00A2190FBF1F201FB12007D
:1025600030302849087026480068642190FBF1F05B
:102570000A2190FBF1F201FB120030302249087071
:102580001F4800680A2190FBF1F090FBF1F201FB7B
:10259000120030301D490870194800680A2190FB6C
:1025A000F1F201FB12003030194908701548027829
:1025B0003221642000F06AFC1348027832216E2038
:1025C00000F064FC114802783221782000F05EFCB3
:1025D0000F4802783221822000F058FC0D48006834
:1025E0004FF47A7190FBF1F00A2190FBF1F201FBBC
:1025F00012003030084939E03E0100203F01002040
:1026000090000020400100204101002042010020F4
:1026100043010020940000204401002045010020D7
:102620004601002047010020E80E0008700000204D
:102630003001002034010020380100202801002052
:10264000290100202A0100202B0100202C0100205C
:102650002D010020583A0000593A00005A3A000073
:102660008C0000203C0100203D0100200870B34890
:102670000068642190FBF1F00A2190FBF1F201FB6C
:1026800012003030AE490870AC4800680A2190FB57
:10269000F1F090FBF1F201FB12003030A949087013
:1026A000A64800680A2190FBF1F201FB12003030CD
:1026B000A5490870A54802783221AA2000F0E6FB5F
:1026C0009F4802783221B42000F0E0FB9D48027858
:1026D0003221BE2000F0DAFB9B4802783221C8206C
:1026E00000F0D4FBAFF6F0624621142000F000FCAD
:1026F000974A5A21142000F0FBFB1CE1954A0A215D
:10270000084600F0F5FB934A80321E21142000F0A9
:10271000EFFB914800684FF47A7190FBF1F00A21C9
:1027200090FBF1F201FB120030308C4908708A48AE
:102730000068642190FBF1F00A2190FBF1F201FBAB
:102740001200303086490870834800680A2190FBE7
:10275000F1F090FBF1F201FB12003030814908707A
:102760007D4800680A2190FBF1F201FB1200303035
:102770007D490870794802781E21642000F086FBAC
:10278000774802781E216E2000F080FB75480278A1
:102790001E21782000F07AFB734802781E218220E7
:1027A00000F074FB6B4AA0321E218C2000F0A0FBCD
:1027B000684AA4323221142000F09AFB6B4800686A
:1027C0004FF47A7190FBF1F00A2190FBF1F201FBDA
:1027D000120030306649087064480068642190FB3C
:1027E000F1F00A2190FBF1F201FB12003030614957
:1027F00008705E4800680A2190FBF1F090FBF1F24E
:1028000001FB120030305C490870584800680A210A
:1028100090FBF1F201FB1200303058490870544827
:1028200002783221642000F031FB524802783221D4
:102830006E2000F02BFB504802783221782000F007
:1028400025FB4E4802783221822000F01FFB414ACE
:10285000A03232218C2000F04BFB3E4AC43246218C
:10286000142000F045FB354800684FF47A7190FB66
:10287000F1F00A2190FBF1F201FB120030303349F4
:1028800008702E480068642190FBF1F00A2190FB4B
:10289000F1F201FB12003030294908702748006826
:1028A0000A2190FBF1F090FBF1F201FB12003030B5
:1028B00024490870214800680A2190FBF1F201FBCD
:1028C00012003030204908702048027846216420E8
:1028D00000F0DCFA1A48027846216E2000F0D6FAA1
:1028E000184802784621782000F0D0FA164802787D
:1028F0004621822000F0CAFA164AA03246218C20D6
:1029000000F0F6FA134A48325A21142000F0F0FA87
:1029100011E0104A0C320A21084600F0E9FA18A228
:102920001E21142000F0E4FA0A4A48323221142011
:1029300000F0DEFA00BF00BF10BD000094000020D0
:1029400045010020460100204701002044010020ED
:1029500078130008D40800088C0000203C010020F7
:102960003D0100203E0100203F010020900000209A
:1029700040010020410100204201002043010020CD
:1029800052652D696E697469616C697A6500000031
:1029900051B18200A2F1C042126842F001038200EC
:1029A000A2F1C042136009E08200A2F1C0421268A5
:1029B000034B1A408300A3F1C0431A607047000024
:1029C000FEFF0F00D0E901121143C26811430269F2
:1029D00011434269114382691143C2691143026A7A
:1029E0001143426A1143826A1143C26A1143026B66
:1029F000114302689200A2F1C04211608168082967
:102A00000BD101688900A1F1C041096841F0400281
:102A100001688900A1F1C0410A60416B0968426BFD
:102A2000526841EA0211426B926841EA0221426B0C
:102A3000928941EA0241426B128A41EA0251426B99
:102A4000127D41EA0261426B926911430268521C95
:102A50009200A2F1C0421160C16AB1F5804F1BD152
:102A6000816B0968826B526841EA0211826B92683D
:102A700041EA0221826B128A41EA0251826B127D85
:102A800041EA0261826B9269114302689200A2F1ED
:102A9000C042C2F8041107E06FF07042016889007B
:102AA000A1F1C041C1F804217047000008B501211F
:102AB000042000F031FD0420ADF8000010208DF856
:102AC000030003208DF802006946254800F04EF807
:102AD0000121082000F020FD4FF47140ADF8000006
:102AE00010208DF8030003208DF8020069461D4870
:102AF00000F03CF80121102000F00EFDC020ADF8E0
:102B0000000010208DF8030003208DF802006946B4
:102B1000154800F02BF84FF470401249143108604A
:102B2000C020114948610121082000F0F5FC012076
:102B3000ADF8000004208DF803006946094800F054
:102B400015F80121102000F0E7FCF020ADF800009E
:102B500004208DF803006946024800F007F808BD1C
:102B600000080140000C0140001001402DE9F04137
:102B7000024600250026002000230024002791F8AB
:102B800003C00CF00F0591F803C00CF0100CBCF161
:102B9000000F03D091F802C04CEA050591F800C07F
:102BA000BCF1000F31D0146800202BE04FF0010C75
:102BB0000CFA00F3B1F800C00CEA03069E4220D1E3
:102BC00083004FF00F0C0CFA03F7BC4305FA03FC2B
:102BD0004CEA040491F803C0BCF1280F06D14FF071
:102BE000010C0CFA00FCC2F814C00AE091F803C012
:102BF000BCF1480F05D14FF0010C0CFA00FCC2F8F3
:102C000010C0401C0828D1D31460B1F800C0BCF13A
:102C1000FF0F34DD546800202EE000F1080C4FF067
:102C2000010808FA0CF3B1F800C00CEA03069E4252
:102C300021D183004FF00F0C0CFA03F7BC4305FAC7
:102C400003FC4CEA040491F803C0BCF1280F05D141
:102C500000F1080C08FA0CF8C2F8148091F803C0CF
:102C6000BCF1480F07D100F1080C4FF0010808FA39
:102C70000CF8C2F81080401C0828CED35460BDE880
:102C8000F0810246002093680B400BB1012000E068
:102C900000207047416170470161704700BFFEE747
:102CA00010B504462CB14FF480510548FFF7F2FFF0
:102CB00004E04FF480510248FFF7EEFF10BD000022
:102CC000001401402DE9F04106460F4614461D460A
:102CD000DDF818802B4622463946304600F0F5F9DB
:102CE00004FB05F0414600F056F9BDE8F08108B557
:102CF0004FF6FF704FF4A073F022002100900846B9
:102D0000FFF7E0FF08BD38B504464FF6FF700090AE
:102D100004EB84000A2202EB8000C0F5A07083B2AD
:102D200004EB840002EB800081B20F220520FFF744
:102D3000C9FF38BD10B504460D2C49D2DFE804F0B8
:102D4000070C11161B20252A2F34393E43000F2172
:102D5000052000F03FF83BE02321052000F03AF881
:102D600036E03721052000F035F831E04B21052011
:102D700000F030F82CE05F21052000F02BF827E070
:102D80007321052000F026F822E08721052000F0BD
:102D900021F81DE09B21052000F01CF818E0AF2170
:102DA000052000F017F813E0C321052000F012F809
:102DB0000EE0D721052000F00DF809E0EB210520F9
:102DC00000F008F804E0FF21052000F003F800BF40
:102DD00000BF10BD70B504460D46A9B2A0B20523D0
:102DE0000A2200F072F90021642000F0D4F86A1C75
:102DF00091B204F10A0290B20323012200F065F9B6
:102E00000021122000F0C7F8AA1C91B204F10B02B5
:102E100090B201231A4600F058F90021012000F079
:102E2000BAF86A1E91B204F1080290B2012302229C
:102E300000F04BF90021122000F0ADF8AA1E91B26B
:102E400004F1080290B201231A4600F03EF9002175
:102E5000012000F0A0F86A1D91B204F1080290B2BE
:102E60000123022200F031F90021122000F093F832
:102E7000AA1D91B204F1080290B201231A4600F093
:102E800024F90021012000F086F870BD2DE9F047FB
:102E9000804689461546A5F1200000F0FF0A102360
:102EA00008224946404600F010F92C2000F06AFA4A
:102EB000002417E00D4800EB0A10065D00270DE026
:102EC00006F0010018B11F2000F060FA03E04FF691
:102ED000FF7000F05BFA7610781CC7B2082FEFDBAA
:102EE000601CC4B2102CE5DBBDE8F087006E000862
:102EF00070B505460E46144617E028460830F028FF
:102F000003DD002506F1100086B230461030B0F522
:102F1000A07F01DD00250026227831462846FFF7F4
:102F2000B5FF641C05F1080085B220780028E4D1C3
:102F300070BD00B597B00121080200F0CDFA022063
:102F4000019000200290052003900020049005903D
:102F500006904FF0805007900020089009900820BC
:102F60000A9010200B9000200C900E900F90109063
:102F70004FF480501190002012901390149001A8EB
:102F80001590169008A8FFF71DFD01210020FFF7FE
:102F9000FFFC17B000BD70B504460D4600262C207E
:102FA00000F0F0F900BF03E0284600F0EFF9761CCE
:102FB000A642F9D370BD000008B50121084600F013
:102FC000ABFA0121602000F0A7FA03208DF802007F
:102FD00018208DF803004CF20370ADF8000069462C
:102FE0002C48FFF7C3FD4FF68070ADF8000069462E
:102FF0002948FFF7BBFD03208DF8020018208DF84B
:1030000003001020ADF8000069462248FFF7AEFD2E
:103010002020ADF8000069461E48FFF7A7FD0121FA
:10302000202000F079FA8020ADF8000069461948A8
:10303000FFF79CFD0121202000F06EFA4FF40060A4
:10304000ADF8000069461348FFF790FD10208DF899
:10305000030003208DF802000121402000F05CFAFB
:103060000220ADF8000069460B48FFF77FFD1020F5
:103070008DF8030003208DF802000121202000F0CC
:103080004BFA4FF48050ADF8000069460148FFF755
:103090006DFD08BD001401400018014008B5FFF7A0
:1030A0008BFFFFF746FF0120FFF7FAFD00F056F90E
:1030B00000F03CF84FF6FF704FF4A073F0220021AF
:1030C00000900846FFF7FEFD08BD2DE9F0410446DB
:1030D0000D4616461F462A2000F054F9201200F033
:1030E00055F9E0B200F052F9A119491EC1F30F20C1
:1030F00000F04CF9A119491EC8B200F047F92B2085
:1031000000F040F9281200F041F9E8B200F03EF971
:10311000E919491EC1F30F2000F038F9E919491ED9
:10312000C8B200F033F9BDE8F081000010B5CF203F
:1031300000F028F9002000F029F9812000F026F99C
:10314000302000F023F9ED2000F01CF9642000F09D
:103150001DF9032000F01AF9122000F017F9812060
:1031600000F014F9E82000F00DF9852000F00EF9C8
:10317000102000F00BF9782000F008F9CB2000F0C7
:1031800001F9392000F002F92C2000F0FFF80020AE
:1031900000F0FCF8342000F0F9F8022000F0F6F816
:1031A000F72000F0EFF8202000F0F0F8EA2000F01F
:1031B000E9F8002000F0EAF8002000F0E7F8B1207C
:1031C00000F0E0F8002000F0E1F81B2000F0DEF84D
:1031D000B62000F0D7F80A2000F0D8F8A22000F0BE
:1031E000D5F8C02000F0CEF8352000F0CFF8C1208F
:1031F00000F0C8F8112000F0C9F8C52000F0C2F8AE
:10320000452000F0C3F8452000F0C0F8C72000F0CA
:10321000B9F8A22000F0BAF8F22000F0B3F80020CC
:1032200000F0B4F8262000F0ADF8012000F0AEF870
:10323000E02000F0A7F80F2000F0A8F8262000F00A
:10324000A5F8242000F0A2F80B2000F09FF80E2033
:1032500000F09CF8092000F099F8542000F096F84E
:10326000A82000F093F8462000F090F80C2000F021
:103270008DF8172000F08AF8092000F087F80F2059
:1032800000F084F8072000F081F8002000F07EF8BC
:10329000E12000F077F8002000F078F8192000F025
:1032A00075F81B2000F072F8042000F06FF8102071
:1032B00000F06CF8072000F069F82A2000F066F8AA
:1032C000472000F063F8392000F060F8032000F098
:1032D0005DF8062000F05AF8062000F057F830207C
:1032E00000F054F8382000F051F80F2000F04EF8AC
:1032F000362000F047F8C82000F048F82A2000F0F7
:1033000041F8002000F042F8002000F03FF80020D3
:1033100000F03CF8EF2000F039F82B2000F032F8F4
:10332000002000F033F8002000F030F8012000F019
:103330002DF83F2000F02AF83A2000F023F855201D
:1033400000F024F8112000F01DF80348FDF77DF887
:10335000292000F017F810BDFCBF020010B50221B3
:103360000648FFF797FC0648FDF76FF8022103486F
:10337000FFF792FC0248FDF768F810BD0018014005
:10338000FCBF02004FF0C04108807047014908802F
:10339000704700000000026008B501214FF0C050E6
:1033A00000F0AAF8012000F08FF84FF4407000F010
:1033B000C9F8012000F0C0F800F040F900F048F929
:1033C00000F0D6F83E2000F029F900F037F900208F
:1033D00000F016F900F032F94FF6FF701B49088033
:1033E00000F02CF94FF6FF701849091D088000F015
:1033F00025F90121022000F0F3F814481C38008858
:1034000000F0020011491C39088000F017F900F0A3
:10341000B9F829208DF8000000208DF801008DF802
:10342000020001208DF80300684600F015F8032023
:103430008DF8000000208DF801008DF802000120B9
:103440008DF80300684600F007F808BD202800400A
:1034500000BFFEE77047000070B5002100230F2277
:10346000C47804B3154C246804F4E064C4F5E06443
:10347000210AC1F10403CA40447804FA03F18478B4
:103480001440214309010E4C0678A155047804F03C
:103490001F050124AC4005786D11AD0005F1E02554
:1034A000C5F8004109E0047804F01F050124AC4090
:1034B000044D0678761145F8264070BD0CED00E00D
:1034C00000E400E080E100E001490862704700008C
:1034D00000000E427047000029B1064A52690243BB
:1034E000044B5A6104E0034A52698243014B5A611A
:1034F000704700000010024029B1064AD269024319
:10350000044BDA6104E0034AD2698243014BDA6179
:10351000704700000010024029B1064A9269024338
:10352000044B9A6104E0034A92698243014B9A6119
:103530007047000000100240014908607047000019
:103540003C0442420249096A0143014A1162704740
:103550000010024010B5022000F002F810BD00007B
:10356000024909888143014A1180704704280040BC
:103570000348008840F010000149088070470000AF
:1035800004280040034800884FF6EF7108400149C5
:10359000088070470428004001460020064A12882F
:1035A0000A40D0B2044A121F12880A4012B108B170
:1035B000012000E0002070470428004010B50220E0
:1035C000FFF7EAFF012808D10220FFF7C9FF0348EF
:1035D000006810B101480068804710BD1400002049
:1035E00029B1064A12880243044B1A8004E0034AB8
:1035F00012888243014B1A80704700000028004067
:1036000000B50246FFF7B4FF100C03490880091DFE
:103610000A80FFF7B7FF00BD1828004000B502463A
:10362000FFF7A6FFC2F3034003490880091D0A8083
:10363000FFF7A8FF00BD00000828004000BF0348B6
:10364000008800F020000028F9D0704704280040CE
:10365000074800884FF6F77108400549088000BF09
:103660000348008800F008000028F9D070470000E7
:1036700004280040704710B500F002F810BD0000AB
:103680000CB50020019000903348006840F4803071
:103690003149086000BF3048006800F400300090F5
:1036A0000198401C0190009818B90198B0F5A06FDE
:1036B000F1D12948006800F4003010B101200090D9
:1036C00001E0002000900098012843D123480068C1
:1036D00040F01000214908600846006820F003000F
:1036E00008600846006840F0020008601A48406818
:1036F000194948600846406848600846406840F4F8
:10370000806048600846406820F47C1048600846A5
:10371000406840F4E81048600846006840F0807057
:10372000086000BF0C48006800F000700028F9D065
:103730000948406820F0030007494860084640688F
:1037400040F00200486000BF0348406800F00C00F1
:103750000828F9D10CBD00000010024000200240F2
:1037600010B5044624B1012C11D0022C2DD11DE03E
:103770000121084600F036F9142000F0CFF80021AE
:10378000012000F02FF9142000F0C8F81DE00121FD
:10379000032000F027F9142000F0C0F800210320D6
:1037A00000F020F9142000F0B9F80EE00121052006
:1037B00000F018F9142000F0B1F80021052000F005
:1037C00011F9142000F0AAF800BF00BF10BD014697
:1037D00006290FD2DFE801F00E0306080A0C4FF4A9
:1037E000C87007E0C82005E0642003E0322001E053
:1037F000192000BF00BF7047042808D14FF0E02116
:10380000096941F004014FF0E022116107E04FF037
:10381000E021096921F004014FF0E02211617047B5
:103820007047000010B51348006840F001001149CE
:10383000086008464068104908400E49486008463C
:1038400000680E4908400B4908600846006820F4EB
:10385000802008600846406820F4FE0048604FF46D
:103860001F008860FFF707FF4FF000600449086001
:1038700010BD0000001002400000FFF8FFFFF6FE40
:1038800008ED00E000BFFEE702E008C8121F08C113
:10389000002AFAD170477047002001E001C1121FD1
:1038A000002AFBD17047000030B5044600250EE029
:1038B000084800F033F80121002000F093F8054893
:1038C00000F02CF80021084600F08CF86D1CA54291
:1038D000EEDB30BDA086010010B56FF00400FFF7ED
:1038E0008BFF0A4800680A49B0FBF1F009490870EB
:1038F0000846007800EB4001C1EBC0104FF6FF71A5
:1039000001EAC0000449088010BD0000000000204A
:1039100000127A00180000201A0000200146114A07
:1039200012784A434FF0E0235A6100229A611A4606
:10393000126942F001021A6100BF4FF0E0221069E3
:1039400000F001021AB100F48032002AF5D04FF0E5
:10395000E022126922F001024FF0E0231A610022F6
:103960009A6170471800002070B50546052D31D2C8
:10397000DFE805F0030C151E270001211748FFF7AB
:1039800080F908B1002400E0012423E0102114484C
:10399000FFF777F908B1002400E001241AE02021A4
:1039A0000F48FFF76EF908B1002400E0012411E090
:1039B00040210B48FFF765F908B1002400E001241D
:1039C00008E080210648FFF75CF908B1002400E018
:1039D000012400BF00BF204670BD0000000C014064
:1039E0000008014008285DD2DFE800F0040E17232C
:1039F0002F3B445019B904222B4B1A6003E00422D8
:103A0000294B1B1F1A604DE019B94022274B5A6100
:103A100002E04022254B1A6144E021B94FF4804274
:103A2000234B1A6004E04FF48042214B1B1F1A60A5
:103A300038E021B94FF400421D4B1A6004E04FF406
:103A400000421B4B1B1F1A602CE021B94FF480521F
:103A5000174B1A6004E04FF48052154B1B1F1A607D
:103A600020E019B98022114B5A6102E080220F4BED
:103A70001A6117E021B94FF400520D4B1A6004E0AF
:103A80004FF400520A4B1B1F1A600BE021B94FF490
:103A90008072074B1A6004E04FF48072044B1B1FC6
:103AA0001A6000BF00BF70471408014000100140B9
:103AB000140C01402DE9F04105460E4617464FF41F
:103AC0007A7191FBF6F000EBD07149100C1F0220C7
:103AD00000EB4400B5FBF0F80FE001213846FFF79A
:103AE00081FF2046FFF71AFF00213846FFF77AFFD3
:103AF0002046FFF713FFA8F10108B8F1000FECD141
:103B0000BDE8F0811FB5FFF7C9FAFEF7CFFFFFF759
:103B100043FCFFF7E1FE0220FFF7C6FEFCA20A21EC
:103B20000846FFF7E5F9FFF7E2F80020FE490860D4
:103B30000220FE49086002F0ECBFFB480068002844
:103B40007ED1FB490860F8480068FCF791FCF74813
:103B50000068FFF7EFF80120FFF706FF012811D1F9
:103B60000220FFF7D0F8F1480068052805DAEF4891
:103B70000068401CED49086002E00220EB49086043
:103B8000FCF76CFC0020FFF7EFFE012811D10220AA
:103B9000FFF7B9F8E5480068022805DDE34800684A
:103BA000401EE249086002E00520E0490860FCF799
:103BB00055FCDE480068022814D10420FFF7D4FE2B
:103BC00001280FD1DA48006860B90120D6490860A1
:103BD000D6490860D7490860D5490860FCF73EFC23
:103BE000FFF785F8D1480068032815D10420FFF7B6
:103BF000BBFE012810D1CE48006868B90220CA492E
:103C000008600120C9490860CB490860C8490860BC
:103C1000FCF724FCFFF76BF8C4480068042814D1B3
:103C2000FFF7A2FE012810D1C148006868B903203F
:103C3000BD4908600120BD490860BD49086000E039
:103C40001BE0FCF70BFCFFF752F8B84800680528AA
:103C500013D10420FFF788FE01280ED1B448006874
:103C600058B90420B04908600120B0490860B04943
:103C70000860FCF7F3FBFFF73AF8AB48006801284F
:103C80007ED10020AA490860A7480068FCF7F0FB35
:103C9000A6480068FFF74EF80120FFF765FE0128EF
:103CA00010D1FFF730F8A1480068032805DA9F48D3
:103CB0000068401C9D49086002E001209B490860A3
:103CC000FCF7CCFB0020FFF74FFE012810D1FFF7D7
:103CD0001AF896480068012805DD94480068401EDF
:103CE0009249086002E0032090490860FCF7B6FBA7
:103CF0008E480068012820D10420FFF735FE0128F6
:103D00001BD18B480068C0B96F208749086002202A
:103D1000864908600120864908608848006888490B
:103D200008608848006888490860884800688849B1
:103D30000860FCF793FBFEF7DAFF7C480068022876
:103D400014D10420FFF710FE01280FD17848006835
:103D500060B9792074490860022074490860012024
:103D600073490860FCF77AFBFEF7C1FF6F480068F3
:103D7000032819D10420FFF7F7FD012814D100E032
:103D800012E06B48006878B900206749086002209B
:103D9000664908600020674908600120644908609E
:103DA000FCF75CFBFEF7A3FF5F4800686F287DD13E
:103DB00000205F4908605C480068FCF759FB5B48DD
:103DC0000068FEF7B7FF0120FFF7CEFD012811D1F3
:103DD0000220FEF798FF55480068062805DA534888
:103DE0000068401C5149086002E002204F49086009
:103DF000FCF734FB0020FFF7B7FD012811D10220AA
:103E0000FEF781FF49480068022805DD4748006841
:103E1000401E4649086002E0062044490860FCF75D
:103E20001DFB0020FFF7A0FD90B90120FFF79CFDCE
:103E300070B90220FFF798FD50B90320FFF794FDF9
:103E400030B90420FFF790FD10B94248424908609C
:103E500036480068022830D1FFF786FD01282CD1B2
:103E600037480068002828DD35480068401E34497E
:103E70000860084600683149086000230A22194694
:103E8000184602F059FE34480068FFF747FD3248F3
:103E900000680A2811DD30480068FCF7E9F92F4A6C
:103EA0002F4BCDE90001FCF771F900E07DE1CDE990
:103EB0000201FCF7EEF9284908601C480068022856
:103EC00064D10320FFF750FD01285FD11C48006832
:103ED00042F20F71884259DA19480068214909688D
:103EE000884253D216480068401C154908600846AD
:103EF00000681249086000230A221946012002F0D6
:103F00001BFE15480068FFF709FD134800682BE009
:103F1000496E697469616C697A65696E67202E2ED5
:103F20002E202E2E2E0000002C000020300000201D
:103F3000F000002034000020380000208C00002019
:103F40003C00002090000020400000209400002051
:103F50004400002020A10700F80000209A999999B8
:103F60009999E93F200000200A280FDDFE480068EB
:103F7000FCF77EF9FD4AFE4BCDE90001FCF706F99E
:103F8000CDE90201FCF785F9F7490860F9480068B6
:103F900003282FD10220FFF7E7FC01282AD1F64899
:103FA0000068002826DDF4480068401EF2490860D9
:103FB00008460068F149086001231A4600210846B6
:103FC00002F0BAFDE8480068FFF7A8FCE648006880
:103FD0000A280FDDE4480068FCF74AF9E34AE44B9D
:103FE000CDE90001FCF7D2F8CDE90201FCF751F967
:103FF000DD490860DF480068032830D1FFF7B4FCD2
:1040000001282CD1DC48006842F20F71884226DA80
:10401000D9480068401CD849086008460068D7495C
:10402000086001231A460021184602F085FDCE489B
:104030000068FFF773FCCC4800680A280FDDCA4807
:104040000068FCF715F9C94AC94BCDE90001FCF736
:104050009DF8CDE90201FCF71CF9C3490860C54889
:10406000006804282FD10220FFF77EFC01282AD106
:10407000C3480068002826DDC1480068401EC049CA
:10408000086008460068BF49086002230122002139
:10409000084602F051FDB4480068FFF73FFCB24803
:1040A00000680A280FDDB0480068FCF7E1F8AF4A65
:1040B000AF4BCDE90001FCF769F8CDE90201FCF74F
:1040C000E8F8A9490860AB480068042831D103200A
:1040D000FFF74AFC01282CD1A948006842F20F7171
:1040E000884226DAA6480068401CA54908600846B0
:1040F0000068A4490860022301220021104602F052
:104100001BFD99480068FFF709FC974800680A28DA
:104110000FDD95480068FCF7ABF8944A944BCDE965
:104120000001FCF733F8CDE90201FCF7B2F88E4943
:10413000086090480068052820D10420FFF714FC8F
:1041400001281BD190480068C0B970208F490860D1
:104150000220884908608E4800688E4908608748B8
:1041600000688D490860874800688C490860012014
:1041700085490860FCF772F9FEF7B9FD7D480068D3
:10418000062812D10420FFF7EFFB01280DD17E484D
:10419000006850B901207D490860764908607A4975
:1041A0000860FCF75BF9FEF7A2FD7848006870280C
:1041B0007DD100207449086074480068FCF758F904
:1041C0006C480068FEF7B6FD0120FFF7CDFB012823
:1041D00011D10220FEF797FD66480068062805DA2F
:1041E00064480068401C6349086002E0022061499D
:1041F0000860FCF733F90020FFF7B6FB012811D166
:104200000220FEF780FD5B480068022805DD594862
:104210000068401E5749086002E0062055490860C2
:10422000FCF71CF90020FFF79FFB90B90120FFF776
:104230009BFB70B90220FFF797FB50B90320FFF7F3
:1042400093FB30B90420FFF78FFB10B9544846495F
:10425000086048480068022830D1FFF785FB012834
:104260002CD14C480068002828DD4A480068401ED0
:1042700048490860084600684549086000230A224A
:104280001946184602F058FC37480068FFF746FB0D
:10429000354800680A2811DD33480068FBF7E8FF5D
:1042A000324A334BCDE90001FBF770FF00E0B4E187
:1042B000CDE90201FBF7EDFF2B4908602D480068AE
:1042C000022837D10320FFF74FFB012832D13148B4
:1042D000006842F20F7188422CDA2E48006831499A
:1042E0000968884226D22B480068401C294908608A
:1042F000084600682649086000230A221946012062
:1043000002F01AFC18480068FFF708FB164800681E
:104310000A280FDD14480068FBF7AAFF134A144B64
:10432000CDE90001FBF732FFCDE90201FBF7B1FF58
:104330000D4908600F480068032850D10220FFF79C
:1043400013FB01284BD114480068002847DD1248B0
:104350000068401E10490860084600680749086068
:1043600001231A4600211FE0F80000209A9999992C
:104370009999E93F30000020400000209000002083
:104380004400002094000020F00000202C000020B9
:104390008C000020480000204C000020500000202D
:1043A00020A1070020000020084602F0C5FBFE48BF
:1043B0000068FFF7B3FAFC4800680A280FDDFA48E6
:1043C0000068FBF755FFF94AF94BCDE90001FBF70F
:1043D000DDFECDE90201FBF75CFFF3490860F5481B
:1043E0000068032830D1FFF7BFFA01282CD1F2482A
:1043F000006842F20F71884226DAEF480068401CDC
:10440000ED49086008460068EC49086001231A4637
:104410000021184602F090FBE3480068FFF77EFA9F
:10442000E14800680A280FDDDF480068FBF720FF3D
:10443000DE4ADF4BCDE90001FBF7A8FECDE9020122
:10444000FBF727FFD8490860DA48006804282FD115
:104450000220FFF789FA01282AD1D94800680028EC
:1044600026DDD7480068401ED54908600846006828
:10447000D4490860022301220021084602F05CFBB7
:10448000C9480068FFF74AFAC74800680A280FDDE4
:10449000C5480068FBF7ECFEC44AC54BCDE90001F6
:1044A000FBF774FECDE90201FBF7F3FEBE4908609D
:1044B000C0480068042831D10320FFF755FA0128CD
:1044C0002CD1BF48006842F20F71884226DABC48FE
:1044D0000068401CBA49086008460068B94908608D
:1044E000022301220021104602F026FBAE4800689C
:1044F000FFF714FAAC4800680A280FDDAA480068E4
:10450000FBF7B6FEA94AAA4BCDE90001FBF73EFE38
:10451000CDE90201FBF7BDFEA3490860A54800688C
:10452000052818D10420FFF71FFA012813D1A64847
:10453000006801280FD1A548006860B97120A4491E
:10454000086002209B4908600120A0490860FBF731
:1045500085FFFEF7CCFB97480068052818D104209A
:10456000FFF702FA012813D19A48006801280FD1F9
:104570009648006860B9DF209549086002208D499F
:104580000860012091490860FBF768FFFEF7AFFB68
:1045900088480068062840D10420FFF7E5F9012883
:1045A0003BD18A480068C0BB6F208949086002205F
:1045B00080490860012085490860FBF74FFFFEF73E
:1045C00096FB8548006885490968401A03900028D1
:1045D00001DB039801E003984042814908600846E6
:1045E000006800EB800040007E4908607A4800685F
:1045F0007A490968884203DD01207B49086002E0AE
:10460000002079490860794800686B490968401AB8
:104610000390002802DB039802E057E00398404231
:104620007349086008460068724908606F4800686E
:1046300061490968884203DD01206F49086002E092
:1046400000206D4908606D4800685D490968401A9E
:104650000390002801DB039801E003984042684979
:104660000860084600686749086064480068544963
:104670000968884203DD01206349086002E00020E8
:104680006149086000235748194602685648006887
:1046900002F052FA504800685C490860012355480E
:1046A000002102685448006802F046FA4F4800684A
:1046B00042490860022353480021026852480068BA
:1046C00002F03AFA4D4800683E49086040480068E8
:1046D000712867D100203D4908603D480068FBF71C
:1046E000C7FE34480068FEF725FB0120FFF73CF9C0
:1046F000012811D10220FEF706FB2E48006806288B
:1047000005DA2C480068401C2A49086002E00220B3
:1047100028490860FBF7A2FE0020FFF725F90128D1
:1047200011D10220FEF7EFFA22480068022805DDC9
:1047300020480068401E1F49086002E006201D490D
:104740000860FBF78BFE0020FFF70EF990B90120FF
:10475000FFF70AF970B90220FFF706F950B90320F4
:10476000FFF702F930B90420FFF7FEF810B9284826
:104770000D4908600F48006802285FD1FFF7F4F880
:1047800001285BD123480068002857DD21480068D4
:10479000401E2049086004480068FFF7BFF802483F
:1047A000006839E0DFE10000F80000209A9999994B
:1047B0009999E93F300000204C0000209000002033
:1047C000500000209400002034000020F000002061
:1047D0002C000020380000203C0000204800002071
:1047E00074000020800000206000002040000020B5
:1047F0007800002084000020640000204400002095
:104800007C00002088000020680000208C00002030
:1048100020A10700540000200A280FDDF748006897
:10482000FBF726FDF64AF74BCDE90001FBF7AEFC9E
:10483000CDE90201FBF72DFDF0490860F248006860
:10484000022827D10320FFF78FF8012822D1EF4853
:10485000006842F20F7188421CDAEC480068401C84
:10486000EA490860E5480068FFF758F8E34800683F
:104870000A280FDDE1480068FBF7FAFCE04AE14B4B
:10488000CDE90001FBF782FCCDE90201FBF701FD58
:10489000DA490860DC480068032825D10220FFF7C8
:1048A00063F8012820D1DA48006805281CDDD848C3
:1048B0000068401ED6490860D0480068FFF72EF80F
:1048C000CE4800680A280FDDCC480068FBF7D0FC12
:1048D000CB4ACC4BCDE90001FBF758FCCDE90201F6
:1048E000FBF7D7FCC5490860C7480068032826D1F4
:1048F000FFF73AF8012822D1C548006842F20F714B
:1049000088421CDAC2480068401CC1490860BB48A4
:104910000068FFF703F8B94800680A280FDDB748B8
:104920000068FBF7A5FCB64AB64BCDE90001FBF7E2
:104930002DFCCDE90201FBF7ACFCB0490860B248A0
:104940000068042825D10220FFF70EF8012820D1A5
:10495000B048006800281CDDAE480068401EAD4924
:104960000860A6480068FEF7D9FFA44800680A2836
:104970000FDDA2480068FBF77BFCA14AA14BCDE903
:104980000001FBF703FCCDE90201FBF782FC9B4928
:1049900008609D480068042827D10320FEF7E4FF43
:1049A000012822D19B48006842F20F7188421CDA2C
:1049B00098480068401C9749086090480068FEF7D6
:1049C000ADFF8E4800680A280FDD8C480068FBF7B1
:1049D0004FFC8B4A8B4BCDE90001FBF7D7FBCDE9B0
:1049E0000201FBF756FC85490860874800680528E6
:1049F00046D10420FEF7B8FF012841D1864800685F
:104A0000F0BB72208549086004207F4908600120BE
:104A100081490860FBF722FD7D4800687D490968EF
:104A200008447A49096848437D4908600846006897
:104A30007C4908607C4800687C490968401A0390FA
:104A4000002801DB039801E00398404278490860A0
:104A5000084600686D49096890FBF1F075490860E7
:104A60000846006800EB80004000734908606E480B
:104A700000686E490968884205DD01206F4900E041
:104A800058E0086002E000206C4908606C4800684B
:104A90006C490968401A0390002801DB039801E083
:104AA0000398404268490860084600685749096809
:104AB00090FBF1F0654908605E4800686449086051
:104AC0005F4800685F490968884203DD0120614949
:104AD000086002E000205F4908605F4800685F49A5
:104AE0000968401A0390002801DB039801E003984D
:104AF00040425B490860084600684449096890FBE9
:104B0000F1F0584908600846006857490860524863
:104B1000006852490968884203DD01205349086052
:104B200002E000205149086001F0FCFF5049086094
:104B3000FEF7DDF834480068062814D10420FEF79B
:104B400013FF01280FD13448006860B97020334941
:104B5000086002202C49086001202F490860FBF7FB
:104B60007DFCFEF7C4F82D480068792845D1002067
:104B70002949086029480068FBF77AFC2248006848
:104B8000FEF7D8F80120FEF7EFFE01281BD1022026
:104B9000FEF7B9F81C480068082805DA1A480068CA
:104BA000801C194908600CE017480068082805D1E6
:104BB00015480068401C1449086002E002201249B0
:104BC0000860FBF74BFC0020FEF7CEFE012858D111
:104BD0000220FEF798F80C480068022803D109204B
:104BE000094908604BE008480068092842DA06488D
:104BF0000068801E0449086041E096E1F80000204A
:104C00009A9999999999E93F300000205400002021
:104C1000580000205C000020F00000202C00002044
:104C20006C000020700000203C00002048000020A4
:104C300074000020C40000208000002060000020DC
:104C4000400000204C00002078000020C800002018
:104C50008400002064000020440000205000002058
:104C60007C000020CC00002088000020680000208C
:104C7000E8000020FE480068401EFD490860FBF780
:104C8000EDFB0020FEF770FE90B90120FEF76CFEF0
:104C900070B90220FEF768FE50B90320FEF764FEEB
:104CA00030B90420FEF760FE10B9F248F2490860FE
:104CB000EF480068022824D1FEF756FE012820D1D3
:104CC000EE48006800281CDDEC480068401EEB49F7
:104CD0000860E9480068FEF721FEE74800680A28F6
:104CE0000FDDE5480068FBF7C3FAE54AE54BCDE97F
:104CF0000001FBF74BFACDE90201FBF7CAFADE49E6
:104D00000860DB48006802282DD10320FEF72CFE46
:104D1000012828D1D948006842F20F71884222DA6E
:104D2000D6480068D849096888421CD2D348006830
:104D3000401CD2490860D0480068FEF7EFFDCE481D
:104D400000680A280FDDCC480068FBF791FACC4ACE
:104D5000CC4BCDE90001FBF719FACDE90201FBF7D5
:104D600098FAC5490860C2480068042825D1022085
:104D7000FEF7FAFD012820D1C448006800281CDD98
:104D8000C2480068401EC1490860BB480068FEF781
:104D9000C5FDB94800680A280FDDB7480068FBF771
:104DA00067FAB74AB74BCDE90001FBF7EFF9CDE958
:104DB0000201FBF76EFAB0490860AD4800680428AC
:104DC0002DD10320FEF7D0FD012828D1AF4800687F
:104DD00042F20F71884222DAA8480068AA4909689D
:104DE00088421CD2A9480068401CA8490860A24813
:104DF0000068FEF793FDA04800680A280FDD9E4872
:104E00000068FBF735FA9E4A9E4BCDE90001FBF79F
:104E1000BDF9CDE90201FBF73CFA974908609448D7
:104E20000068062825D10220FEF79EFD012820D12A
:104E30009748006800281CDD95480068401E94498A
:104E400008608D480068FEF769FD8B4800680A28F5
:104E50000FDD89480068FBF70BFA894A894BCDE9D9
:104E60000001FBF793F9CDE90201FBF712FA824941
:104E700008607F480068062827D10320FEF774FDEC
:104E8000012822D18248006842F20F7188421CDA60
:104E90007F480068401C7E49086077480068FEF73C
:104EA0003DFD754800680A280FDD73480068FBF770
:104EB000DFF9734A734BCDE90001FBF767F9CDE9E0
:104EC0000201FBF7E6F96C490860694800680828A8
:104ED00014D10420FEF748FD01280FD16D48006869
:104EE00060B97A206C49086002206149086001209D
:104EF00068490860FBF7B2FAFDF7F9FE5C48006804
:104F0000092812D10420FEF72FFD01280DD1614898
:104F1000006850B9012060490860554908605D4942
:104F20000860FBF79BFAFDF7E2FE5B4800687A2811
:104F30007ED100205749086057480068FBF798FA6F
:104F40004B480068FDF7F6FE0120FEF70DFD012835
:104F50001BD10220FDF7D7FE45480068082805DA76
:104F600043480068801C424908600CE040480068E3
:104F7000082805D13E480068401C3D49086002E011
:104F800002203B490860FBF769FA0020FEF7ECFCC1
:104F900001281BD10220FDF7B6FE35480068022823
:104FA00003D10920324908600EE031480068092821
:104FB00005DA2F480068801E2D49086004E02C485F
:104FC0000068401E2A490860FBF748FA0020FEF7F7
:104FD000CBFC90B90120FEF7C7FC70B90220FEF7A8
:104FE000C3FC50B90320FEF7BFFC30B90420FEF724
:104FF000BBFC10B91F48204908601D480068022802
:1050000026D1FEF7B1FC012822D1244800680028EF
:105010001EDD22480068401E2049086016480068CE
:10502000FEF77CFC144800680A2811DD124800E0F5
:10503000B8E20068FBF71CF9114A124BCDE90001F8
:10504000FBF7A4F8CDE90201FBF723F90A49086050
:1050500007480068022846D10320FEF785FC012896
:1050600041D10E48006842F20F7188423BDA17E0E6
:105070003000002020A10700F80000204800002098
:105080009A9999999999E93F200000204C000020B5
:1050900050000020F00000202C0000203C000020E8
:1050A000FC480068FC49096888421CD2F94800683D
:1050B000401CF8490860F9480068FEF72FFCF748E3
:1050C00000680A280FDDF5480068FBF7D1F8F44ABC
:1050D000F44BCDE90001FBF759F8CDE90201FBF7EC
:1050E000D8F8EE490860F0480068042825D102206D
:1050F000FEF73AFC012820D1EC48006800281CDDAE
:10510000EA480068401EE9490860E4480068FEF784
:1051100005FCE24800680A280FDDE0480068FBF75C
:10512000A7F8DF4ADF4BCDE90001FBF72FF8CDE907
:105130000201FBF7AEF8D9490860DB480068042893
:1051400027D10320FEF710FC012822D1D7480068A0
:1051500042F20F7188421CDAD4480068401CD349DF
:105160000860CE480068FEF7D9FBCC4800680A28E2
:105170000FDDCA480068FBF77BF8C94AC94BCDE987
:105180000001FBF703F8CDE90201FBF782F8C34900
:105190000860C5480068062825D10220FEF7E4FB18
:1051A000012820D1C248006800281CDDC0480068E2
:1051B000401EBF490860B9480068FEF7AFFBB7481A
:1051C00000680A280FDDB5480068FBF751F8B44ABB
:1051D000B44BCDE90001FAF7D9FFCDE90201FBF7A5
:1051E00058F8AE490860B0480068062827D1032067
:1051F000FEF7BAFB012822D1AD48006842F20F71D8
:1052000088421CDAAA480068401CA9490860A348E3
:105210000068FEF783FBA14800680A280FDD9F485D
:105220000068FBF725F89E4A9E4BCDE90001FAF78E
:10523000ADFFCDE90201FBF72CF8984908609A48C8
:10524000006808283CD10420FEF78EFB012837D1E6
:1052500098480068012833D19748006880BB7B20BC
:105260009649086002209049086001209249086030
:10527000FBF7F4F8FDF73BFD91A20A210846FDF784
:1052800037FE9648006896490968401A039000283E
:1052900001DB039801E00398404292490860084608
:1052A000006800EB800040008F4908608B48006870
:1052B0008B490968884204DD01208C49086003E0BD
:1052C00068E00020894908608948006889490968C0
:1052D000401A0390002801DB039801E00398404244
:1052E000854908600846006884490860804800686D
:1052F00080490968884203DD01208149086002E095
:1053000000207F4908607F4800687F490968401A8B
:105310000390002801DB039801E0039840427B4999
:105320000860084600687A4908607648006876494F
:105330000968884203DD01207649086002E0002008
:105340007449086000236848194602686748006885
:1053500001F0F2FB012369480021026868480068F7
:1053600001F0EAFB02236A480021026869480068EC
:1053700001F0E2FB5A480068584908605D4800683F
:105380005B490860604800685E490860FBF766F8A2
:10539000FDF7ADFC4448006808283CD10420FEF726
:1053A000E3FA012837D15C480068012833D142482C
:1053B000006880BBDF204149086002203A4908604C
:1053C00001203D490860FBF749F8FDF790FC3CA23D
:1053D0000A210846FDF78CFD4048006840490968ED
:1053E000401A0390002801DB039801E00398404233
:1053F0003C4908600846006800EB800040003A49DC
:1054000008603648006836490968884204DD012092
:105410003649086003E0ACE00020344908603448B5
:10542000006834490968401A0390002801DB03989A
:1054300001E00398404230490860084600682F495F
:1054400008602B4800682B490968884203DD012069
:105450002B49086002E000202949086029480068BB
:1054600029490968401A0390002801DB039801E0EC
:1054700003984042254908600846006824490860AE
:105480002048006820490968884247DD01202149F9
:10549000086046E03C00002020000020F8000020CA
:1054A0009A9999999999E93F30000020400000208D
:1054B0004400002034000020F00000202C000020D8
:1054C000536C6577696E6720746F207374617274B2
:1054D00020706F736974696F6E0000008C0000208B
:1054E00048000020740000208000002060000020A0
:1054F000900000204C000020780000208400002054
:105500006400002094000020500000207C00002057
:105510008800002068000020380000200020FA49A0
:1055200008600023F94819460268F948006801F04C
:1055300003FB0123F74800210268F748006801F0E7
:10554000FBFA0223F54800210268EF48006801F0E9
:10555000F3FAF3480068F3490860F3480068F34938
:105560000860F3480068F3490860FAF777FFFDF731
:10557000BEFBF1480068092814D10420FEF7F4F9B5
:1055800001280FD1ED48006860B97A20EC49086025
:105590000220E94908600120E8490860FAF75EFF47
:1055A000FDF7A5FBE64800687B287DD10020E34994
:1055B0000860E3480068FAF75BFFDF480068FDF722
:1055C000B9FB0120FEF7D0F9012811D10220FDF727
:1055D0009AFBD9480068062805DAD7480068401CBD
:1055E000D549086002E00220D3490860FAF736FF87
:1055F0000020FEF7B9F9012811D10220FDF783FB45
:10560000CD480068022805DDCB480068401ECA4925
:10561000086002E00620C8490860FAF71FFF002072
:10562000FEF7A2F990B90120FEF79EF970B90220A9
:10563000FEF79AF950B90320FEF796F930B9042025
:10564000FEF792F910B9BF48BF490860BA48006830
:10565000022824D1FEF788F9012820D1BB48006830
:1056600000281CDDB9480068401EB8490860B648EB
:105670000068FEF753F9B44800680A280FDDB24805
:105680000068FAF7F5FDB24AB24BCDE90001FAF72E
:105690007DFDCDE90201FAF7FCFDAB490860A648A3
:1056A0000068022829D100E0C8E10320FEF75CF978
:1056B000012822D1A548006842F20F7188421CDA05
:1056C000A2480068401CA14908609F480068FEF796
:1056D00025F99D4800680A280FDD9B480068FAF705
:1056E000C7FD9B4A9B4BCDE90001FAF74FFDCDE981
:1056F0000201FAF7CEFD944908608F48006803283C
:1057000025D10220FEF730F9012820D19248006807
:1057100000281CDD90480068401E8F4908608A48B8
:105720000068FEF7FBF8884800680A280FDD864805
:105730000068FAF79DFD864A864BCDE90001FAF72D
:1057400025FDCDE90201FAF7A4FD7F4908607A48FA
:105750000068032826D1FEF707F9012822D17E48E8
:10576000006842F20F7188421CDA7B480068401CD6
:105770007949086074480068FEF7D0F872480068FC
:105780000A280FDD70480068FAF772FD704A714B05
:10579000CDE90001FAF7FAFCCDE90201FAF779FD4B
:1057A0006949086064480068042825D10220FEF792
:1057B000DBF8012820D16948006800281CDD674813
:1057C0000068401E654908605F480068FEF7A6F85B
:1057D0005D4800680A280FDD5B480068FAF748FD5D
:1057E0005B4A5C4BCDE90001FAF7D0FCCDE9020140
:1057F000FAF74FFD544908604F480068042827D144
:105800000320FEF7B1F8012822D15448006842F283
:105810000F7188421CDA51480068401C4F490860EB
:1058200049480068FEF77AF8474800680A280FDD03
:1058300045480068FAF71CFD454A464BCDE9000192
:10584000FAF7A4FCCDE90201FAF723FD3E4908600E
:1058500039480068052845D10420FEF785F801285D
:1058600040D136480068E8BB722035490860042002
:1058700031490860012031490860FAF7EFFD3648E8
:105880000068364909680844304909684843344982
:1058900008600846006833490860334800682049BA
:1058A0000968401A0390002801DB039801E003987F
:1058B00040422E490860084600682449096890FB68
:1058C000F1F02B4908600846006800EB80004000BA
:1058D0000E4908602448006811490968884205DDBE
:1058E000012000E092E00A49086002E00020084937
:1058F0000860204800680C490968401A0390002895
:105900003ADB03983AE000006800002080000020A5
:105910006000002084000020640000208800002037
:10592000480000208C0000204C0000209000002047
:10593000500000209400002030000020F0000020E3
:105940002C00002020A10700F800002054000020B7
:105950009A9999999999E93F580000205C00002094
:105960006C000020700000203C000020740000202B
:10597000C40000204000002003984042F74908601E
:1059800008460068F649096890FBF1F0F54908609F
:1059900008460068F4490860F4480068F44909685A
:1059A000884203DD0120F349086002E00020F1494C
:1059B0000860F1480068F1490968401A039000281E
:1059C00001DB039801E003984042ED490860084676
:1059D0000068E349096890FBF1F0EA49086008466D
:1059E0000068E9490860E4480068E44909688842B9
:1059F00003DD0120E549086002E00020E34908607A
:105A000001F090F8E2490860FDF771F9E14800689B
:105A1000062813D10420FDF7A7FF01280ED1DE4888
:105A2000006858B97A20DD4908600120D94908602A
:105A3000D9490860FAF712FDFDF759F9D74800680F
:105A400072287DD10020D449086001F06BF8D44958
:105A5000086008460068CE490968401AB0F57A7FA8
:105A600008DDD0480068401ECE49086001F05AF8B1
:105A7000C7490860C9480068FAF7FAFCC5480068D9
:105A8000FDF758F90120FDF76FFF012811D1032020
:105A9000FDF739F9BF480068052805DABD480068F8
:105AA000401CBC49086002E00420BA490860FAF7CB
:105AB000D5FC0020FDF758FF012811D10320FDF788
:105AC00022F9B4480068042805DDB2480068401E89
:105AD000B049086002E00520AE490860FAF7BEFC54
